{
  "_format": "hh-sol-artifact-1",
  "contractName": "BaseOrderHandler",
  "sourceName": "contracts/exchange/BaseOrderHandler.sol",
  "abi": [
    {
      "inputs": [
        {
          "internalType": "contract RoleStore",
          "name": "_roleStore",
          "type": "address"
        },
        {
          "internalType": "contract DataStore",
          "name": "_dataStore",
          "type": "address"
        },
        {
          "internalType": "contract EventEmitter",
          "name": "_eventEmitter",
          "type": "address"
        },
        {
          "internalType": "contract Oracle",
          "name": "_oracle",
          "type": "address"
        },
        {
          "internalType": "contract OrderVault",
          "name": "_orderVault",
          "type": "address"
        },
        {
          "internalType": "contract SwapHandler",
          "name": "_swapHandler",
          "type": "address"
        },
        {
          "internalType": "contract IReferralStorage",
          "name": "_referralStorage",
          "type": "address"
        }
      ],
      "stateMutability": "nonpayable",
      "type": "constructor"
    },
    {
      "inputs": [
        {
          "internalType": "address",
          "name": "msgSender",
          "type": "address"
        }
      ],
      "name": "InvalidNativeTokenSender",
      "type": "error"
    },
    {
      "inputs": [],
      "name": "dataStore",
      "outputs": [
        {
          "internalType": "contract DataStore",
          "name": "",
          "type": "address"
        }
      ],
      "stateMutability": "view",
      "type": "function"
    },
    {
      "inputs": [],
      "name": "eventEmitter",
      "outputs": [
        {
          "internalType": "contract EventEmitter",
          "name": "",
          "type": "address"
        }
      ],
      "stateMutability": "view",
      "type": "function"
    },
    {
      "inputs": [],
      "name": "oracle",
      "outputs": [
        {
          "internalType": "contract Oracle",
          "name": "",
          "type": "address"
        }
      ],
      "stateMutability": "view",
      "type": "function"
    },
    {
      "inputs": [],
      "name": "orderVault",
      "outputs": [
        {
          "internalType": "contract OrderVault",
          "name": "",
          "type": "address"
        }
      ],
      "stateMutability": "view",
      "type": "function"
    },
    {
      "inputs": [],
      "name": "referralStorage",
      "outputs": [
        {
          "internalType": "contract IReferralStorage",
          "name": "",
          "type": "address"
        }
      ],
      "stateMutability": "view",
      "type": "function"
    },
    {
      "inputs": [],
      "name": "roleStore",
      "outputs": [
        {
          "internalType": "contract RoleStore",
          "name": "",
          "type": "address"
        }
      ],
      "stateMutability": "view",
      "type": "function"
    },
    {
      "inputs": [],
      "name": "swapHandler",
      "outputs": [
        {
          "internalType": "contract SwapHandler",
          "name": "",
          "type": "address"
        }
      ],
      "stateMutability": "view",
      "type": "function"
    },
    {
      "stateMutability": "payable",
      "type": "receive"
    }
  ],
  "bytecode": "0x61016060405234801561001157600080fd5b506040516104e93803806104e98339810160408190526100309161007f565b6001600160a01b0396871660805294861660a05291851660c05291841660e05290831661010052821661012052166101405261011b565b6001600160a01b038116811461007c57600080fd5b50565b600080600080600080600060e0888a03121561009a57600080fd5b87516100a581610067565b60208901519097506100b681610067565b60408901519096506100c781610067565b60608901519095506100d881610067565b60808901519094506100e981610067565b60a08901519093506100fa81610067565b60c089015190925061010b81610067565b8091505092959891949750929550565b60805160a05160c05160e05161010051610120516101405161036e61017b60003960006101840152600061026a0152600061029e015260006102d201526000610236015260008181606c0152610202015260006101ce015261036e6000f3fe6080604052600436106100635760003560e01c80626cc35e146101725780634a4a7b04146101bc578063660d0d67146101f05780637dc0d1d0146102245780638a53aaac1461025857806393845e461461028c5780639ff78c30146102c057600080fd5b3661016d5760007f00000000000000000000000000000000000000000000000000000000000000006001600160a01b03166321f8a7216040516020016100c09060208082526003908201526215d39560ea1b604082015260600190565b604051602081830303815290604052805190602001206040518263ffffffff1660e01b81526004016100f491815260200190565b602060405180830381865afa158015610111573d6000803e3d6000fd5b505050506040513d601f19601f8201168201806040525081019061013591906102f4565b9050336001600160a01b0382161461016b573360405163738d28df60e11b81526004016101629190610324565b60405180910390fd5b005b600080fd5b34801561017e57600080fd5b506101a67f000000000000000000000000000000000000000000000000000000000000000081565b6040516101b39190610324565b60405180910390f35b3480156101c857600080fd5b506101a67f000000000000000000000000000000000000000000000000000000000000000081565b3480156101fc57600080fd5b506101a67f000000000000000000000000000000000000000000000000000000000000000081565b34801561023057600080fd5b506101a67f000000000000000000000000000000000000000000000000000000000000000081565b34801561026457600080fd5b506101a67f000000000000000000000000000000000000000000000000000000000000000081565b34801561029857600080fd5b506101a67f000000000000000000000000000000000000000000000000000000000000000081565b3480156102cc57600080fd5b506101a67f000000000000000000000000000000000000000000000000000000000000000081565b60006020828403121561030657600080fd5b81516001600160a01b038116811461031d57600080fd5b9392505050565b6001600160a01b039190911681526020019056fea2646970667358221220ab881b261a0dd3c7c684d15c1a4604f97c2f011b0d223c70f07a5f38e8b3edcb64736f6c63430008120033",
  "linkReferences": {},
  "deployedLinkReferences": {}
}