{
  "_format": "hh-sol-artifact-1",
  "contractName": "ChainlinkDataStreamProvider",
  "sourceName": "contracts/oracle/ChainlinkDataStreamProvider.sol",
  "abi": [
    {
      "inputs": [
        {
          "internalType": "contract DataStore",
          "name": "_dataStore",
          "type": "address"
        },
        {
          "internalType": "address",
          "name": "_oracle",
          "type": "address"
        },
        {
          "internalType": "contract IChainlinkDataStreamVerifier",
          "name": "_verifier",
          "type": "address"
        }
      ],
      "stateMutability": "nonpayable",
      "type": "constructor"
    },
    {
      "inputs": [],
      "name": "EmptyChainlinkPaymentToken",
      "type": "error"
    },
    {
      "inputs": [
        {
          "internalType": "address",
          "name": "token",
          "type": "address"
        }
      ],
      "name": "EmptyDataStreamFeedId",
      "type": "error"
    },
    {
      "inputs": [
        {
          "internalType": "address",
          "name": "token",
          "type": "address"
        }
      ],
      "name": "EmptyDataStreamMultiplier",
      "type": "error"
    },
    {
      "inputs": [
        {
          "internalType": "address",
          "name": "token",
          "type": "address"
        },
        {
          "internalType": "int192",
          "name": "bid",
          "type": "int192"
        },
        {
          "internalType": "int192",
          "name": "ask",
          "type": "int192"
        }
      ],
      "name": "InvalidDataStreamBidAsk",
      "type": "error"
    },
    {
      "inputs": [
        {
          "internalType": "address",
          "name": "token",
          "type": "address"
        },
        {
          "internalType": "bytes32",
          "name": "feedId",
          "type": "bytes32"
        },
        {
          "internalType": "bytes32",
          "name": "expectedFeedId",
          "type": "bytes32"
        }
      ],
      "name": "InvalidDataStreamFeedId",
      "type": "error"
    },
    {
      "inputs": [
        {
          "internalType": "address",
          "name": "token",
          "type": "address"
        },
        {
          "internalType": "int192",
          "name": "bid",
          "type": "int192"
        },
        {
          "internalType": "int192",
          "name": "ask",
          "type": "int192"
        }
      ],
      "name": "InvalidDataStreamPrices",
      "type": "error"
    },
    {
      "inputs": [
        {
          "internalType": "address",
          "name": "token",
          "type": "address"
        },
        {
          "internalType": "uint256",
          "name": "spreadReductionFactor",
          "type": "uint256"
        }
      ],
      "name": "InvalidDataStreamSpreadReductionFactor",
      "type": "error"
    },
    {
      "inputs": [
        {
          "internalType": "address",
          "name": "msgSender",
          "type": "address"
        },
        {
          "internalType": "string",
          "name": "role",
          "type": "string"
        }
      ],
      "name": "Unauthorized",
      "type": "error"
    },
    {
      "inputs": [],
      "name": "dataStore",
      "outputs": [
        {
          "internalType": "contract DataStore",
          "name": "",
          "type": "address"
        }
      ],
      "stateMutability": "view",
      "type": "function"
    },
    {
      "inputs": [
        {
          "internalType": "address",
          "name": "token",
          "type": "address"
        },
        {
          "internalType": "bytes",
          "name": "data",
          "type": "bytes"
        }
      ],
      "name": "getOraclePrice",
      "outputs": [
        {
          "components": [
            {
              "internalType": "address",
              "name": "token",
              "type": "address"
            },
            {
              "internalType": "uint256",
              "name": "min",
              "type": "uint256"
            },
            {
              "internalType": "uint256",
              "name": "max",
              "type": "uint256"
            },
            {
              "internalType": "uint256",
              "name": "timestamp",
              "type": "uint256"
            },
            {
              "internalType": "address",
              "name": "provider",
              "type": "address"
            }
          ],
          "internalType": "struct OracleUtils.ValidatedPrice",
          "name": "",
          "type": "tuple"
        }
      ],
      "stateMutability": "nonpayable",
      "type": "function"
    },
    {
      "inputs": [],
      "name": "oracle",
      "outputs": [
        {
          "internalType": "address",
          "name": "",
          "type": "address"
        }
      ],
      "stateMutability": "view",
      "type": "function"
    },
    {
      "inputs": [],
      "name": "verifier",
      "outputs": [
        {
          "internalType": "contract IChainlinkDataStreamVerifier",
          "name": "",
          "type": "address"
        }
      ],
      "stateMutability": "view",
      "type": "function"
    }
  ],
  "bytecode": "0x60e060405234801561001057600080fd5b50604051610f8e380380610f8e83398101604081905261002f91610064565b6001600160a01b0392831660805290821660a0521660c0526100b1565b6001600160a01b038116811461006157600080fd5b50565b60008060006060848603121561007957600080fd5b83516100848161004c565b60208501519093506100958161004c565b60408501519092506100a68161004c565b809150509250925092565b60805160a05160c051610e8661010860003960008181605601526102b6015260008181610116015261018701526000818160ef015281816101ef015281816105e60152818161071701526107ed0152610e866000f3fe608060405234801561001057600080fd5b506004361061004c5760003560e01c80632b7ac3f314610051578063377bbdaf1461008e578063660d0d67146100ea5780637dc0d1d014610111575b600080fd5b6100787f000000000000000000000000000000000000000000000000000000000000000081565b6040516100859190610a51565b60405180910390f35b6100a161009c366004610b13565b610138565b604051610085919081516001600160a01b039081168252602080840151908301526040808401519083015260608084015190830152608092830151169181019190915260a00190565b6100787f000000000000000000000000000000000000000000000000000000000000000081565b6100787f000000000000000000000000000000000000000000000000000000000000000081565b61017c6040518060a0016040528060006001600160a01b0316815260200160008152602001600081526020016000815260200160006001600160a01b031681525090565b336001600160a01b037f000000000000000000000000000000000000000000000000000000000000000016146101eb576040805163a35b150b60e01b8152336004820152602481019190915260066044820152654f7261636c6560d01b60648201526084015b60405180910390fd5b60007f00000000000000000000000000000000000000000000000000000000000000006001600160a01b031663a6ed563e61022586610562565b6040518263ffffffff1660e01b815260040161024391815260200190565b602060405180830381865afa158015610260573d6000803e3d6000fd5b505050506040513d601f19601f820116820180604052508101906102849190610ba5565b9050806102a657836040516318b900b360e21b81526004016101e29190610a51565b60006102b06105e0565b905060007f00000000000000000000000000000000000000000000000000000000000000006001600160a01b031663f7e83aee86846040518363ffffffff1660e01b8152600401610302929190610c0e565b6000604051808303816000875af1158015610321573d6000803e3d6000fd5b505050506040513d6000823e601f3d908101601f191682016040526103499190810190610c3c565b90506000818060200190518101906103619190610ceb565b805190915084146103a157805160405163a4949e2560e01b81526001600160a01b03891660048201526024810191909152604481018590526064016101e2565b60008160e0015160170b1315806103c15750600081610100015160170b13155b156103ee57868160e00151826101000151604051632a74194d60e01b81526004016101e293929190610d9a565b80610100015160170b8160e0015160170b131561042d57868160e00151826101000151604051638d56bea160e01b81526004016101e293929190610d9a565b600061043888610712565b905060006104608360e001516001600160c01b03168368327cb2734119d3b7a9601e1b6107d1565b905060006104898461010001516001600160c01b03168468327cb2734119d3b7a9601e1b6107d1565b905060006104968b6107e8565b905080156105195768327cb2734119d3b7a9601e1b81036104d15760026104bd8484610dd5565b6104c79190610dfe565b9250829150610519565b600060026104df8585610e20565b6104e99190610dfe565b90506104f581836108c3565b6104ff9085610dd5565b935061050b81836108c3565b6105159084610e20565b9250505b506040805160a0810182526001600160a01b038c168152602081019390935282810191909152929092015163ffffffff1660608301525030608082015293505050505b92915050565b6000604051602001610596906020808252600e908201526d1110551057d4d51491505357d25160921b604082015260600190565b60408051601f198184030181528282528051602091820120908301526001600160a01b03841690820152606001604051602081830303815290604052805190602001209050919050565b606060007f00000000000000000000000000000000000000000000000000000000000000006001600160a01b03166321f8a72160405160200161064e9060208082526017908201527621a420a4a72624a725afa820aca6a2a72a2faa27a5a2a760491b604082015260600190565b604051602081830303815290604052805190602001206040518263ffffffff1660e01b815260040161068291815260200190565b602060405180830381865afa15801561069f573d6000803e3d6000fd5b505050506040513d601f19601f820116820180604052508101906106c39190610e33565b90506001600160a01b0381166106ec576040516352dfddfd60e01b815260040160405180910390fd5b806040516020016106fd9190610a51565b60405160208183030381529060405291505090565b6000807f00000000000000000000000000000000000000000000000000000000000000006001600160a01b031663bd02d0f561074d856108dc565b6040518263ffffffff1660e01b815260040161076b91815260200190565b602060405180830381865afa158015610788573d6000803e3d6000fd5b505050506040513d601f19601f820116820180604052508101906107ac9190610ba5565b90508060000361055c578260405163044202e360e11b81526004016101e29190610a51565b60006107de848484610918565b90505b9392505050565b6000807f00000000000000000000000000000000000000000000000000000000000000006001600160a01b031663bd02d0f561082385610a02565b6040518263ffffffff1660e01b815260040161084191815260200190565b602060405180830381865afa15801561085e573d6000803e3d6000fd5b505050506040513d601f19601f820116820180604052508101906108829190610ba5565b905068327cb2734119d3b7a9601e1b81111561055c57604051636e0c29ed60e01b81526001600160a01b0384166004820152602481018290526044016101e2565b60006107e1838368327cb2734119d3b7a9601e1b6107d1565b6000604051602001610596906020808252601690820152752220aa20afa9aa2922a0a6afa6aaa62a24a82624a2a960511b604082015260600190565b60008080600019858709858702925082811083820303915050806000036109525783828161094857610948610de8565b04925050506107e1565b8084116109995760405162461bcd60e51b81526020600482015260156024820152744d6174683a206d756c446976206f766572666c6f7760581b60448201526064016101e2565b60008486880960026001871981018816978890046003810283188082028403028082028403028082028403028082028403028082028403029081029092039091026000889003889004909101858311909403939093029303949094049190911702949350505050565b60006040516020016105969060208082526023908201527f444154415f53545245414d5f5350524541445f524544554354494f4e5f4641436040820152622a27a960e91b606082015260800190565b6001600160a01b0391909116815260200190565b6001600160a01b0381168114610a7a57600080fd5b50565b634e487b7160e01b600052604160045260246000fd5b60405161012081016001600160401b0381118282101715610ab657610ab6610a7d565b60405290565b604051601f8201601f191681016001600160401b0381118282101715610ae457610ae4610a7d565b604052919050565b60006001600160401b03821115610b0557610b05610a7d565b50601f01601f191660200190565b60008060408385031215610b2657600080fd5b8235610b3181610a65565b915060208301356001600160401b03811115610b4c57600080fd5b8301601f81018513610b5d57600080fd5b8035610b70610b6b82610aec565b610abc565b818152866020838501011115610b8557600080fd5b816020840160208301376000602083830101528093505050509250929050565b600060208284031215610bb757600080fd5b5051919050565b60005b83811015610bd9578181015183820152602001610bc1565b50506000910152565b60008151808452610bfa816020860160208601610bbe565b601f01601f19169290920160200192915050565b604081526000610c216040830185610be2565b8281036020840152610c338185610be2565b95945050505050565b600060208284031215610c4e57600080fd5b81516001600160401b03811115610c6457600080fd5b8201601f81018413610c7557600080fd5b8051610c83610b6b82610aec565b818152856020838501011115610c9857600080fd5b610c33826020830160208601610bbe565b805163ffffffff81168114610cbd57600080fd5b919050565b80516001600160c01b0381168114610cbd57600080fd5b8051601781900b8114610cbd57600080fd5b60006101208284031215610cfe57600080fd5b610d06610a93565b82518152610d1660208401610ca9565b6020820152610d2760408401610ca9565b6040820152610d3860608401610cc2565b6060820152610d4960808401610cc2565b6080820152610d5a60a08401610ca9565b60a0820152610d6b60c08401610cd9565b60c0820152610d7c60e08401610cd9565b60e0820152610100610d8f818501610cd9565b908201529392505050565b6001600160a01b03939093168352601791820b6020840152900b604082015260600190565b634e487b7160e01b600052601160045260246000fd5b8082018082111561055c5761055c610dbf565b634e487b7160e01b600052601260045260246000fd5b600082610e1b57634e487b7160e01b600052601260045260246000fd5b500490565b8181038181111561055c5761055c610dbf565b600060208284031215610e4557600080fd5b81516107e181610a6556fea26469706673582212202a777b8b000754a6bbb4a57b6f0e89b647c6c34f037adde269e68267f9cf186664736f6c63430008120033",
  "linkReferences": {},
  "deployedLinkReferences": {}
}