{
  "_format": "hh-sol-artifact-1",
  "contractName": "Config",
  "sourceName": "contracts/config/Config.sol",
  "abi": [
    {
      "inputs": [
        {
          "internalType": "contract RoleStore",
          "name": "_roleStore",
          "type": "address"
        },
        {
          "internalType": "contract DataStore",
          "name": "_dataStore",
          "type": "address"
        },
        {
          "internalType": "contract EventEmitter",
          "name": "_eventEmitter",
          "type": "address"
        }
      ],
      "stateMutability": "nonpayable",
      "type": "constructor"
    },
    {
      "inputs": [
        {
          "internalType": "bytes32",
          "name": "baseKey",
          "type": "bytes32"
        },
        {
          "internalType": "uint256",
          "name": "value",
          "type": "uint256"
        }
      ],
      "name": "ConfigValueExceedsAllowedRange",
      "type": "error"
    },
    {
      "inputs": [
        {
          "internalType": "address",
          "name": "token",
          "type": "address"
        }
      ],
      "name": "DataStreamIdAlreadyExistsForToken",
      "type": "error"
    },
    {
      "inputs": [
        {
          "internalType": "bytes32",
          "name": "baseKey",
          "type": "bytes32"
        }
      ],
      "name": "InvalidBaseKey",
      "type": "error"
    },
    {
      "inputs": [
        {
          "internalType": "uint256",
          "name": "value",
          "type": "uint256"
        }
      ],
      "name": "InvalidClaimableFactor",
      "type": "error"
    },
    {
      "inputs": [
        {
          "internalType": "address",
          "name": "token",
          "type": "address"
        }
      ],
      "name": "OracleProviderAlreadyExistsForToken",
      "type": "error"
    },
    {
      "inputs": [
        {
          "internalType": "address",
          "name": "token",
          "type": "address"
        }
      ],
      "name": "PriceFeedAlreadyExistsForToken",
      "type": "error"
    },
    {
      "inputs": [
        {
          "internalType": "address",
          "name": "msgSender",
          "type": "address"
        },
        {
          "internalType": "string",
          "name": "role",
          "type": "string"
        }
      ],
      "name": "Unauthorized",
      "type": "error"
    },
    {
      "inputs": [],
      "name": "MAX_ALLOWED_FUNDING_DECREASE_FACTOR_PER_SECOND",
      "outputs": [
        {
          "internalType": "uint256",
          "name": "",
          "type": "uint256"
        }
      ],
      "stateMutability": "view",
      "type": "function"
    },
    {
      "inputs": [],
      "name": "MAX_ALLOWED_FUNDING_INCREASE_FACTOR_PER_SECOND",
      "outputs": [
        {
          "internalType": "uint256",
          "name": "",
          "type": "uint256"
        }
      ],
      "stateMutability": "view",
      "type": "function"
    },
    {
      "inputs": [],
      "name": "MAX_ALLOWED_MAX_FUNDING_FACTOR_PER_SECOND",
      "outputs": [
        {
          "internalType": "uint256",
          "name": "",
          "type": "uint256"
        }
      ],
      "stateMutability": "view",
      "type": "function"
    },
    {
      "inputs": [],
      "name": "MAX_FEE_FACTOR",
      "outputs": [
        {
          "internalType": "uint256",
          "name": "",
          "type": "uint256"
        }
      ],
      "stateMutability": "view",
      "type": "function"
    },
    {
      "inputs": [
        {
          "internalType": "bytes32",
          "name": "",
          "type": "bytes32"
        }
      ],
      "name": "allowedBaseKeys",
      "outputs": [
        {
          "internalType": "bool",
          "name": "",
          "type": "bool"
        }
      ],
      "stateMutability": "view",
      "type": "function"
    },
    {
      "inputs": [
        {
          "internalType": "bytes32",
          "name": "",
          "type": "bytes32"
        }
      ],
      "name": "allowedLimitedBaseKeys",
      "outputs": [
        {
          "internalType": "bool",
          "name": "",
          "type": "bool"
        }
      ],
      "stateMutability": "view",
      "type": "function"
    },
    {
      "inputs": [],
      "name": "dataStore",
      "outputs": [
        {
          "internalType": "contract DataStore",
          "name": "",
          "type": "address"
        }
      ],
      "stateMutability": "view",
      "type": "function"
    },
    {
      "inputs": [],
      "name": "eventEmitter",
      "outputs": [
        {
          "internalType": "contract EventEmitter",
          "name": "",
          "type": "address"
        }
      ],
      "stateMutability": "view",
      "type": "function"
    },
    {
      "inputs": [
        {
          "internalType": "address",
          "name": "token",
          "type": "address"
        },
        {
          "internalType": "address",
          "name": "provider",
          "type": "address"
        }
      ],
      "name": "initOracleProviderForToken",
      "outputs": [],
      "stateMutability": "nonpayable",
      "type": "function"
    },
    {
      "inputs": [
        {
          "internalType": "bytes[]",
          "name": "data",
          "type": "bytes[]"
        }
      ],
      "name": "multicall",
      "outputs": [
        {
          "internalType": "bytes[]",
          "name": "results",
          "type": "bytes[]"
        }
      ],
      "stateMutability": "nonpayable",
      "type": "function"
    },
    {
      "inputs": [],
      "name": "roleStore",
      "outputs": [
        {
          "internalType": "contract RoleStore",
          "name": "",
          "type": "address"
        }
      ],
      "stateMutability": "view",
      "type": "function"
    },
    {
      "inputs": [
        {
          "internalType": "bytes32",
          "name": "baseKey",
          "type": "bytes32"
        },
        {
          "internalType": "bytes",
          "name": "data",
          "type": "bytes"
        },
        {
          "internalType": "address",
          "name": "value",
          "type": "address"
        }
      ],
      "name": "setAddress",
      "outputs": [],
      "stateMutability": "nonpayable",
      "type": "function"
    },
    {
      "inputs": [
        {
          "internalType": "bytes32",
          "name": "baseKey",
          "type": "bytes32"
        },
        {
          "internalType": "bytes",
          "name": "data",
          "type": "bytes"
        },
        {
          "internalType": "bool",
          "name": "value",
          "type": "bool"
        }
      ],
      "name": "setBool",
      "outputs": [],
      "stateMutability": "nonpayable",
      "type": "function"
    },
    {
      "inputs": [
        {
          "internalType": "bytes32",
          "name": "baseKey",
          "type": "bytes32"
        },
        {
          "internalType": "bytes",
          "name": "data",
          "type": "bytes"
        },
        {
          "internalType": "bytes32",
          "name": "value",
          "type": "bytes32"
        }
      ],
      "name": "setBytes32",
      "outputs": [],
      "stateMutability": "nonpayable",
      "type": "function"
    },
    {
      "inputs": [
        {
          "internalType": "address",
          "name": "market",
          "type": "address"
        },
        {
          "internalType": "address",
          "name": "token",
          "type": "address"
        },
        {
          "internalType": "uint256",
          "name": "timeKey",
          "type": "uint256"
        },
        {
          "internalType": "address",
          "name": "account",
          "type": "address"
        },
        {
          "internalType": "uint256",
          "name": "factor",
          "type": "uint256"
        }
      ],
      "name": "setClaimableCollateralFactorForAccount",
      "outputs": [],
      "stateMutability": "nonpayable",
      "type": "function"
    },
    {
      "inputs": [
        {
          "internalType": "address",
          "name": "market",
          "type": "address"
        },
        {
          "internalType": "address",
          "name": "token",
          "type": "address"
        },
        {
          "internalType": "uint256",
          "name": "timeKey",
          "type": "uint256"
        },
        {
          "internalType": "uint256",
          "name": "factor",
          "type": "uint256"
        }
      ],
      "name": "setClaimableCollateralFactorForTime",
      "outputs": [],
      "stateMutability": "nonpayable",
      "type": "function"
    },
    {
      "inputs": [
        {
          "internalType": "address",
          "name": "token",
          "type": "address"
        },
        {
          "internalType": "bytes32",
          "name": "feedId",
          "type": "bytes32"
        },
        {
          "internalType": "uint256",
          "name": "dataStreamMultiplier",
          "type": "uint256"
        },
        {
          "internalType": "uint256",
          "name": "dataStreamSpreadReductionFactor",
          "type": "uint256"
        }
      ],
      "name": "setDataStream",
      "outputs": [],
      "stateMutability": "nonpayable",
      "type": "function"
    },
    {
      "inputs": [
        {
          "internalType": "bytes32",
          "name": "baseKey",
          "type": "bytes32"
        },
        {
          "internalType": "bytes",
          "name": "data",
          "type": "bytes"
        },
        {
          "internalType": "int256",
          "name": "value",
          "type": "int256"
        }
      ],
      "name": "setInt",
      "outputs": [],
      "stateMutability": "nonpayable",
      "type": "function"
    },
    {
      "inputs": [
        {
          "internalType": "address",
          "name": "market",
          "type": "address"
        },
        {
          "internalType": "uint256",
          "name": "minPositionImpactPoolAmount",
          "type": "uint256"
        },
        {
          "internalType": "uint256",
          "name": "positionImpactPoolDistributionRate",
          "type": "uint256"
        }
      ],
      "name": "setPositionImpactDistributionRate",
      "outputs": [],
      "stateMutability": "nonpayable",
      "type": "function"
    },
    {
      "inputs": [
        {
          "internalType": "address",
          "name": "token",
          "type": "address"
        },
        {
          "internalType": "address",
          "name": "priceFeed",
          "type": "address"
        },
        {
          "internalType": "uint256",
          "name": "priceFeedMultiplier",
          "type": "uint256"
        },
        {
          "internalType": "uint256",
          "name": "priceFeedHeartbeatDuration",
          "type": "uint256"
        },
        {
          "internalType": "uint256",
          "name": "stablePrice",
          "type": "uint256"
        }
      ],
      "name": "setPriceFeed",
      "outputs": [],
      "stateMutability": "nonpayable",
      "type": "function"
    },
    {
      "inputs": [
        {
          "internalType": "bytes32",
          "name": "baseKey",
          "type": "bytes32"
        },
        {
          "internalType": "bytes",
          "name": "data",
          "type": "bytes"
        },
        {
          "internalType": "uint256",
          "name": "value",
          "type": "uint256"
        }
      ],
      "name": "setUint",
      "outputs": [],
      "stateMutability": "nonpayable",
      "type": "function"
    }
  ],
  "bytecode": "0x60e06040523480156200001157600080fd5b506040516200a6d33803806200a6d38339810160408190526200003491620046d8565b60016000556001600160a01b0380841660805282811660a052811660c0526200005c6200006f565b620000666200427e565b50505062004a60565b6001806000604051602001620000a8906020808252600f908201526e484f4c44494e475f4144445245535360881b604082015260600190565b60405160208183030381529060405280519060200120815260200190815260200160002060006101000a81548160ff02191690831515021790555060018060006040516020016200012a906020808252601e908201527f4d494e5f48414e444c455f455845435554494f4e5f4552524f525f4741530000604082015260600190565b60405160208183030381529060405280519060200120815260200190815260200160002060006101000a81548160ff0219169083151502179055506001806000604051602001620001be9060208082526029908201527f4d494e5f48414e444c455f455845435554494f4e5f4552524f525f4741535f5460408201526813d7d193d495d0549160ba1b606082015260800190565b60405160208183030381529060405280519060200120815260200190815260200160002060006101000a81548160ff02191690831515021790555060018060006040516020016200023e906020808252818101527f4d494e5f4144444954494f4e414c5f4741535f464f525f455845435554494f4e604082015260600190565b60405160208183030381529060405280519060200120815260200190815260200160002060006101000a81548160ff0219169083151502179055506001806000604051602001620002b5906020808252601290820152711254d7d3505492d15517d11254d05093115160721b604082015260600190565b60405160208183030381529060405280519060200120815260200190815260200160002060006101000a81548160ff0219169083151502179055506001806000604051602001620003379060208082526014908201527f4d41585f535741505f504154485f4c454e475448000000000000000000000000604082015260600190565b60405160208183030381529060405280519060200120815260200190815260200160002060006101000a81548160ff0219169083151502179055506001806000604051602001620003b99060208082526016908201527f4d41585f43414c4c4241434b5f4741535f4c494d495400000000000000000000604082015260600190565b60405160208183030381529060405280519060200120815260200190815260200160002060006101000a81548160ff02191690831515021790555060018060006040516020016200043b906020808252601e908201527f524546554e445f455845435554494f4e5f4645455f4741535f4c494d49540000604082015260600190565b60405160208183030381529060405280519060200120815260200190815260200160002060006101000a81548160ff0219169083151502179055506001806000604051602001620004bd9060208082526015908201527f4d494e5f504f534954494f4e5f53495a455f5553440000000000000000000000604082015260600190565b60405160208183030381529060405280519060200120815260200190815260200160002060006101000a81548160ff021916908315150217905550600180600060405160200162000553906020808252602b908201527f4d41585f504f534954494f4e5f494d504143545f464143544f525f464f525f4c60408201526a49515549444154494f4e5360a81b606082015260800190565b60405160208183030381529060405280519060200120815260200190815260200160002060006101000a81548160ff0219169083151502179055506001806000604051602001620005a4906200472c565b60405160208183030381529060405280519060200120815260200190815260200160002060006101000a81548160ff0219169083151502179055506001806000604051602001620005f59062004755565b60405160208183030381529060405280519060200120815260200190815260200160002060006101000a81548160ff021916908315150217905550600180600060405160200162000646906200478c565b60405160208183030381529060405280519060200120815260200190815260200160002060006101000a81548160ff0219169083151502179055506001806000604051602001620006d49060208082526023908201527f4d494e5f4d41524b45545f544f4b454e535f464f525f46495253545f4445504f60408201526214d25560ea1b606082015260800190565b60405160208183030381529060405280519060200120815260200190815260200160002060006101000a81548160ff021916908315150217905550600180600060405160200162000756906020808252601f908201527f4352454154455f4445504f5349545f464541545552455f44495341424c454400604082015260600190565b60405160208183030381529060405280519060200120815260200190815260200160002060006101000a81548160ff0219169083151502179055506001806000604051602001620007d8906020808252601f908201527f43414e43454c5f4445504f5349545f464541545552455f44495341424c454400604082015260600190565b60405160208183030381529060405280519060200120815260200190815260200160002060006101000a81548160ff021916908315150217905550600180600060405160200162000858906020808252818101527f455845435554455f4445504f5349545f464541545552455f44495341424c4544604082015260600190565b60405160208183030381529060405280519060200120815260200190815260200160002060006101000a81548160ff0219169083151502179055506001806000604051602001620008e59060208082526022908201527f4352454154455f5749544844524157414c5f464541545552455f44495341424c604082015261115160f21b606082015260800190565b60405160208183030381529060405280519060200120815260200190815260200160002060006101000a81548160ff0219169083151502179055506001806000604051602001620009729060208082526022908201527f43414e43454c5f5749544844524157414c5f464541545552455f44495341424c604082015261115160f21b606082015260800190565b60405160208183030381529060405280519060200120815260200190815260200160002060006101000a81548160ff021916908315150217905550600180600060405160200162000a009060208082526023908201527f455845435554455f5749544844524157414c5f464541545552455f444953414260408201526213115160ea1b606082015260800190565b60405160208183030381529060405280519060200120815260200190815260200160002060006101000a81548160ff021916908315150217905550600180600060405160200162000a95906020808252602a908201527f455845435554455f41544f4d49435f5749544844524157414c5f4645415455526040820152691157d11254d05093115160b21b606082015260800190565b60405160208183030381529060405280519060200120815260200190815260200160002060006101000a81548160ff021916908315150217905550600180600060405160200162000b17906020808252601d908201527f4352454154455f53484946545f464541545552455f44495341424c4544000000604082015260600190565b60405160208183030381529060405280519060200120815260200190815260200160002060006101000a81548160ff021916908315150217905550600180600060405160200162000b99906020808252601d908201527f43414e43454c5f53484946545f464541545552455f44495341424c4544000000604082015260600190565b60405160208183030381529060405280519060200120815260200190815260200160002060006101000a81548160ff021916908315150217905550600180600060405160200162000c1b906020808252601e908201527f455845435554455f53484946545f464541545552455f44495341424c45440000604082015260600190565b60405160208183030381529060405280519060200120815260200190815260200160002060006101000a81548160ff021916908315150217905550600180600060405160200162000c9d906020808252601d908201527f4352454154455f4f524445525f464541545552455f44495341424c4544000000604082015260600190565b60405160208183030381529060405280519060200120815260200190815260200160002060006101000a81548160ff021916908315150217905550600180600060405160200162000d1f906020808252601e908201527f455845435554455f4f524445525f464541545552455f44495341424c45440000604082015260600190565b60405160208183030381529060405280519060200120815260200190815260200160002060006101000a81548160ff021916908315150217905550600180600060405160200162000da1906020808252601c908201527f455845435554455f41444c5f464541545552455f44495341424c454400000000604082015260600190565b60405160208183030381529060405280519060200120815260200190815260200160002060006101000a81548160ff021916908315150217905550600180600060405160200162000e23906020808252601d908201527f5550444154455f4f524445525f464541545552455f44495341424c4544000000604082015260600190565b60405160208183030381529060405280519060200120815260200190815260200160002060006101000a81548160ff021916908315150217905550600180600060405160200162000ea5906020808252601d908201527f43414e43454c5f4f524445525f464541545552455f44495341424c4544000000604082015260600190565b60405160208183030381529060405280519060200120815260200190815260200160002060006101000a81548160ff021916908315150217905550600180600060405160200162000f339060208082526023908201527f4352454154455f474c565f4445504f5349545f464541545552455f444953414260408201526213115160ea1b606082015260800190565b60405160208183030381529060405280519060200120815260200190815260200160002060006101000a81548160ff021916908315150217905550600180600060405160200162000fc19060208082526023908201527f43414e43454c5f474c565f4445504f5349545f464541545552455f444953414260408201526213115160ea1b606082015260800190565b60405160208183030381529060405280519060200120815260200190815260200160002060006101000a81548160ff0219169083151502179055506001806000604051602001620010509060208082526024908201527f455845435554455f474c565f4445504f5349545f464541545552455f444953416040820152631093115160e21b606082015260800190565b60405160208183030381529060405280519060200120815260200190815260200160002060006101000a81548160ff0219169083151502179055506001806000604051602001620010e19060208082526026908201527f4352454154455f474c565f5749544844524157414c5f464541545552455f444960408201526514d05093115160d21b606082015260800190565b60405160208183030381529060405280519060200120815260200190815260200160002060006101000a81548160ff0219169083151502179055506001806000604051602001620011729060208082526026908201527f43414e43454c5f474c565f5749544844524157414c5f464541545552455f444960408201526514d05093115160d21b606082015260800190565b60405160208183030381529060405280519060200120815260200190815260200160002060006101000a81548160ff0219169083151502179055506001806000604051602001620012049060208082526027908201527f455845435554455f474c565f5749544844524157414c5f464541545552455f446040820152661254d05093115160ca1b606082015260800190565b60405160208183030381529060405280519060200120815260200190815260200160002060006101000a81548160ff0219169083151502179055506001806000604051602001620012909060208082526021908201527f4352454154455f474c565f53484946545f464541545552455f44495341424c456040820152601160fa1b606082015260800190565b60405160208183030381529060405280519060200120815260200190815260200160002060006101000a81548160ff02191690831515021790555060018060006040516020016200131d9060208082526022908201527f455845435554455f474c565f53484946545f464541545552455f44495341424c604082015261115160f21b606082015260800190565b60405160208183030381529060405280519060200120815260200190815260200160002060006101000a81548160ff0219169083151502179055506001806000604051602001620013ab9060208082526023908201527f434c41494d5f46554e44494e475f464545535f464541545552455f444953414260408201526213115160ea1b606082015260800190565b60405160208183030381529060405280519060200120815260200190815260200160002060006101000a81548160ff0219169083151502179055506001806000604051602001620014379060208082526021908201527f434c41494d5f434f4c4c41544552414c5f464541545552455f44495341424c456040820152601160fa1b606082015260800190565b60405160208183030381529060405280519060200120815260200190815260200160002060006101000a81548160ff0219169083151502179055506001806000604051602001620014ca9060208082526028908201527f434c41494d5f414646494c494154455f524557415244535f464541545552455f604082015267111254d05093115160c21b606082015260800190565b60405160208183030381529060405280519060200120815260200190815260200160002060006101000a81548160ff02191690831515021790555060018060006040516020016200154c906020808252601e908201527f434c41494d5f55495f464545535f464541545552455f44495341424c45440000604082015260600190565b60405160208183030381529060405280519060200120815260200190815260200160002060006101000a81548160ff0219169083151502179055506001806000604051602001620015ce906020808252601b908201527f4d494e5f414646494c494154455f5245574152445f464143544f520000000000604082015260600190565b60405160208183030381529060405280519060200120815260200190815260200160002060006101000a81548160ff021916908315150217905550600180600060405160200162001650906020808252601b908201527f5355424143434f554e545f464541545552455f44495341424c45440000000000604082015260600190565b60405160208183030381529060405280519060200120815260200190815260200160002060006101000a81548160ff0219169083151502179055506001806000604051602001620016d2906020808252601e908201527f4d494e5f4f5241434c455f424c4f434b5f434f4e4649524d4154494f4e530000604082015260600190565b60405160208183030381529060405280519060200120815260200190815260200160002060006101000a81548160ff0219169083151502179055506001806000604051602001620017549060208082526014908201527f4d41585f4f5241434c455f50524943455f414745000000000000000000000000604082015260600190565b60405160208183030381529060405280519060200120815260200190815260200160002060006101000a81548160ff0219169083151502179055506001806000604051602001620017d6906020808252601a908201527f4d41585f4f5241434c455f54494d455354414d505f52414e4745000000000000604082015260600190565b60405160208183030381529060405280519060200120815260200190815260200160002060006101000a81548160ff021916908315150217905550600180600060405160200162001858906020808252601b908201527f4f5241434c455f54494d455354414d505f41444a5553544d454e540000000000604082015260600190565b60405160208183030381529060405280519060200120815260200190815260200160002060006101000a81548160ff0219169083151502179055506001806000604051602001620018da9060208082526017908201527f434841494e4c494e4b5f5041594d454e545f544f4b454e000000000000000000604082015260600190565b60405160208183030381529060405280519060200120815260200190815260200160002060006101000a81548160ff02191690831515021790555060018060006040516020016200195c9060208082526018908201527f53455155454e4345525f47524143455f4455524154494f4e0000000000000000604082015260600190565b60405160208183030381529060405280519060200120815260200190815260200160002060006101000a81548160ff0219169083151502179055506001806000604051602001620019ec9060208082526025908201527f4d41585f4f5241434c455f5245465f50524943455f444556494154494f4e5f4660408201526420a1aa27a960d91b606082015260800190565b60405160208183030381529060405280519060200120815260200190815260200160002060006101000a81548160ff021916908315150217905550600180600060405160200162001a6e906020808252601c908201527f504f534954494f4e5f4645455f52454345495645525f464143544f5200000000604082015260600190565b60405160208183030381529060405280519060200120815260200190815260200160002060006101000a81548160ff021916908315150217905550600180600060405160200162001af0906020808252601f908201527f4c49515549444154494f4e5f4645455f52454345495645525f464143544f5200604082015260600190565b60405160208183030381529060405280519060200120815260200190815260200160002060006101000a81548160ff021916908315150217905550600180600060405160200162001b729060208082526018908201527f535741505f4645455f52454345495645525f464143544f520000000000000000604082015260600190565b60405160208183030381529060405280519060200120815260200190815260200160002060006101000a81548160ff021916908315150217905550600180600060405160200162001bf4906020808252601d908201527f424f52524f57494e475f4645455f52454345495645525f464143544f52000000604082015260600190565b60405160208183030381529060405280519060200120815260200190815260200160002060006101000a81548160ff021916908315150217905550600180600060405160200162001c4590620047b7565b60405160208183030381529060405280519060200120815260200190815260200160002060006101000a81548160ff021916908315150217905550600180600060405160200162001c9690620047f9565b60405160208183030381529060405280519060200120815260200190815260200160002060006101000a81548160ff021916908315150217905550600180600060405160200162001ce7906200483b565b60405160208183030381529060405280519060200120815260200190815260200160002060006101000a81548160ff021916908315150217905550600180600060405160200162001d38906200487e565b60405160208183030381529060405280519060200120815260200190815260200160002060006101000a81548160ff021916908315150217905550600180600060405160200162001d8990620048c0565b60405160208183030381529060405280519060200120815260200190815260200160002060006101000a81548160ff021916908315150217905550600180600060405160200162001dda9062004902565b60405160208183030381529060405280519060200120815260200190815260200160002060006101000a81548160ff021916908315150217905550600180600060405160200162001e509060208082526011908201527011115413d4d25517d1d054d7d312535255607a1b604082015260600190565b60405160208183030381529060405280519060200120815260200190815260200160002060006101000a81548160ff021916908315150217905550600180600060405160200162001ed29060208082526014908201527f5749544844524157414c5f4741535f4c494d4954000000000000000000000000604082015260600190565b60405160208183030381529060405280519060200120815260200190815260200160002060006101000a81548160ff021916908315150217905550600180600060405160200162001f549060208082526015908201527f474c565f4445504f5349545f4741535f4c494d49540000000000000000000000604082015260600190565b60405160208183030381529060405280519060200120815260200190815260200160002060006101000a81548160ff021916908315150217905550600180600060405160200162001fd69060208082526018908201527f474c565f5749544844524157414c5f4741535f4c494d49540000000000000000604082015260600190565b60405160208183030381529060405280519060200120815260200190815260200160002060006101000a81548160ff0219169083151502179055506001806000604051602001620020589060208082526013908201527f474c565f53484946545f4741535f4c494d495400000000000000000000000000604082015260600190565b60405160208183030381529060405280519060200120815260200190815260200160002060006101000a81548160ff0219169083151502179055506001806000604051602001620020da9060208082526018908201527f474c565f5045525f4d41524b45545f4741535f4c494d49540000000000000000604082015260600190565b60405160208183030381529060405280519060200120815260200190815260200160002060006101000a81548160ff02191690831515021790555060018060006040516020016200214e906020808252600f908201526e14d212519517d1d054d7d312535255608a1b604082015260600190565b60405160208183030381529060405280519060200120815260200190815260200160002060006101000a81548160ff0219169083151502179055506001806000604051602001620021d09060208082526015908201527f53494e474c455f535741505f4741535f4c494d49540000000000000000000000604082015260600190565b60405160208183030381529060405280519060200120815260200190815260200160002060006101000a81548160ff0219169083151502179055506001806000604051602001620022529060208082526018908201527f494e4352454153455f4f524445525f4741535f4c494d49540000000000000000604082015260600190565b60405160208183030381529060405280519060200120815260200190815260200160002060006101000a81548160ff0219169083151502179055506001806000604051602001620022d49060208082526018908201527f44454352454153455f4f524445525f4741535f4c494d49540000000000000000604082015260600190565b60405160208183030381529060405280519060200120815260200190815260200160002060006101000a81548160ff0219169083151502179055506001806000604051602001620023569060208082526014908201527f535741505f4f524445525f4741535f4c494d4954000000000000000000000000604082015260600190565b60405160208183030381529060405280519060200120815260200190815260200160002060006101000a81548160ff0219169083151502179055506001806000604051602001620023d89060208082526018908201527f544f4b454e5f5452414e534645525f4741535f4c494d49540000000000000000604082015260600190565b60405160208183030381529060405280519060200120815260200190815260200160002060006101000a81548160ff02191690831515021790555060018060006040516020016200245a906020808252601f908201527f4e41544956455f544f4b454e5f5452414e534645525f4741535f4c494d495400604082015260600190565b60405160208183030381529060405280519060200120815260200190815260200160002060006101000a81548160ff0219169083151502179055506001806000604051602001620024dc9060208082526017908201527f524551554553545f45585049524154494f4e5f54494d45000000000000000000604082015260600190565b60405160208183030381529060405280519060200120815260200190815260200160002060006101000a81548160ff02191690831515021790555060018060006040516020016200255e9060208082526015908201527f4d494e5f434f4c4c41544552414c5f464143544f520000000000000000000000604082015260600190565b60405160208183030381529060405280519060200120815260200190815260200160002060006101000a81548160ff0219169083151502179055506001806000604051602001620025fb9060208082526032908201527f4d494e5f434f4c4c41544552414c5f464143544f525f464f525f4f50454e5f49604082015271272a22a922a9aa2fa6aaa62a24a82624a2a960711b606082015260800190565b60405160208183030381529060405280519060200120815260200190815260200160002060006101000a81548160ff0219169083151502179055506001806000604051602001620026729060208082526012908201527113525397d0d3d31310551154905317d554d160721b604082015260600190565b60405160208183030381529060405280519060200120815260200190815260200160002060006101000a81548160ff0219169083151502179055506001806000604051602001620026e79060208082526010908201526f1592549515505317d513d2d15397d25160821b604082015260600190565b60405160208183030381529060405280519060200120815260200190815260200160002060006101000a81548160ff02191690831515021790555060018060006040516020016200275d906020808252601190820152701592549515505317d3505492d15517d251607a1b604082015260600190565b60405160208183030381529060405280519060200120815260200190815260200160002060006101000a81548160ff0219169083151502179055506001806000604051602001620027df906020808252601b908201527f5649525455414c5f494e56454e544f52595f464f525f53574150530000000000604082015260600190565b60405160208183030381529060405280519060200120815260200190815260200160002060006101000a81548160ff021916908315150217905550600180600060405160200162002861906020808252601f908201527f5649525455414c5f494e56454e544f52595f464f525f504f534954494f4e5300604082015260600190565b60405160208183030381529060405280519060200120815260200190815260200160002060006101000a81548160ff0219169083151502179055506001806000604051602001620028e39060208082526016908201527f504f534954494f4e5f494d504143545f464143544f5200000000000000000000604082015260600190565b60405160208183030381529060405280519060200120815260200190815260200160002060006101000a81548160ff021916908315150217905550600180600060405160200162002965906020808252601f908201527f504f534954494f4e5f494d504143545f4558504f4e454e545f464143544f5200604082015260600190565b60405160208183030381529060405280519060200120815260200190815260200160002060006101000a81548160ff0219169083151502179055506001806000604051602001620029e7906020808252601a908201527f4d41585f504f534954494f4e5f494d504143545f464143544f52000000000000604082015260600190565b60405160208183030381529060405280519060200120815260200190815260200160002060006101000a81548160ff021916908315150217905550600180600060405160200162002a699060208082526013908201527f504f534954494f4e5f4645455f464143544f5200000000000000000000000000604082015260600190565b60405160208183030381529060405280519060200120815260200190815260200160002060006101000a81548160ff021916908315150217905550600180600060405160200162002aeb9060208082526013908201527f50524f5f444953434f554e545f464143544f5200000000000000000000000000604082015260600190565b60405160208183030381529060405280519060200120815260200190815260200160002060006101000a81548160ff021916908315150217905550600180600060405160200162002b3c9062004945565b60405160208183030381529060405280519060200120815260200190815260200160002060006101000a81548160ff021916908315150217905550600180600060405160200162002bbe9060208082526016908201527f4c49515549444154494f4e5f4645455f464143544f5200000000000000000000604082015260600190565b60405160208183030381529060405280519060200120815260200190815260200160002060006101000a81548160ff021916908315150217905550600180600060405160200162002c359060208082526012908201527129aba0a82fa4a6a820a1aa2fa320a1aa27a960711b604082015260600190565b60405160208183030381529060405280519060200120815260200190815260200160002060006101000a81548160ff021916908315150217905550600180600060405160200162002cb7906020808252601b908201527f535741505f494d504143545f4558504f4e454e545f464143544f520000000000604082015260600190565b60405160208183030381529060405280519060200120815260200190815260200160002060006101000a81548160ff021916908315150217905550600180600060405160200162002d2b906020808252600f908201526e29aba0a82fa322a2afa320a1aa27a960891b604082015260600190565b60405160208183030381529060405280519060200120815260200190815260200160002060006101000a81548160ff021916908315150217905550600180600060405160200162002da2906020808252601290820152712222a827a9a4aa2fa322a2afa320a1aa27a960711b604082015260600190565b60405160208183030381529060405280519060200120815260200190815260200160002060006101000a81548160ff021916908315150217905550600180600060405160200162002e249060208082526015908201527f5749544844524157414c5f4645455f464143544f520000000000000000000000604082015260600190565b60405160208183030381529060405280519060200120815260200190815260200160002060006101000a81548160ff021916908315150217905550600180600060405160200162002ea69060208082526016908201527f41544f4d49435f535741505f4645455f464143544f5200000000000000000000604082015260600190565b60405160208183030381529060405280519060200120815260200190815260200160002060006101000a81548160ff021916908315150217905550600180600060405160200162002f1c9060208082526011908201527026a0ac2faaa4afa322a2afa320a1aa27a960791b604082015260600190565b60405160208183030381529060405280519060200120815260200190815260200160002060006101000a81548160ff021916908315150217905550600180600060405160200162002f9e9060208082526016908201527f4d41585f4155544f5f43414e43454c5f4f524445525300000000000000000000604082015260600190565b60405160208183030381529060405280519060200120815260200190815260200160002060006101000a81548160ff0219169083151502179055506001806000604051602001620030469060208082526033908201527f4d41585f544f54414c5f43414c4c4241434b5f4741535f4c494d49545f464f5260408201527f5f4155544f5f43414e43454c5f4f524445525300000000000000000000000000606082015260800190565b60405160208183030381529060405280519060200120815260200190815260200160002060006101000a81548160ff0219169083151502179055506001806000604051602001620030b6906020808252600b908201526a4f5241434c455f5459504560a81b604082015260600190565b60405160208183030381529060405280519060200120815260200190815260200160002060006101000a81548160ff021916908315150217905550600180600060405160200162003129906020808252600e908201526d2922a9a2a92b22afa320a1aa27a960911b604082015260600190565b60405160208183030381529060405280519060200120815260200190815260200160002060006101000a81548160ff0219169083151502179055506001806000604051602001620031ab906020808252601c908201527f4f50454e5f494e5445524553545f524553455256455f464143544f5200000000604082015260600190565b60405160208183030381529060405280519060200120815260200190815260200160002060006101000a81548160ff02191690831515021790555060018060006040516020016200321e906020808252600e908201526d26a0ac2fa827262fa320a1aa27a960911b604082015260600190565b60405160208183030381529060405280519060200120815260200190815260200160002060006101000a81548160ff0219169083151502179055506001806000604051602001620032a09060208082526018908201527f4d494e5f504e4c5f464143544f525f41465445525f41444c0000000000000000604082015260600190565b60405160208183030381529060405280519060200120815260200190815260200160002060006101000a81548160ff021916908315150217905550600180600060405160200162003313906020808252600e908201526d232aa72224a723afa320a1aa27a960911b604082015260600190565b60405160208183030381529060405280519060200120815260200190815260200160002060006101000a81548160ff0219169083151502179055506001806000604051602001620033959060208082526017908201527f46554e44494e475f4558504f4e454e545f464143544f52000000000000000000604082015260600190565b60405160208183030381529060405280519060200120815260200190815260200160002060006101000a81548160ff0219169083151502179055506001806000604051602001620033e6906200496e565b60405160208183030381529060405280519060200120815260200190815260200160002060006101000a81548160ff02191690831515021790555060018060006040516020016200343790620049b0565b60405160208183030381529060405280519060200120815260200190815260200160002060006101000a81548160ff02191690831515021790555060018060006040516020016200348890620049f2565b60405160208183030381529060405280519060200120815260200190815260200160002060006101000a81548160ff0219169083151502179055506001806000604051602001620034d99062004a29565b60405160208183030381529060405280519060200120815260200190815260200160002060006101000a81548160ff02191690831515021790555060018060006040516020016200355b906020808252601c908201527f5448524553484f4c445f464f525f535441424c455f46554e44494e4700000000604082015260600190565b60405160208183030381529060405280519060200120815260200190815260200160002060006101000a81548160ff0219169083151502179055506001806000604051602001620035dd906020808252601e908201527f5448524553484f4c445f464f525f44454352454153455f46554e44494e470000604082015260600190565b60405160208183030381529060405280519060200120815260200190815260200160002060006101000a81548160ff02191690831515021790555060018060006040516020016200366d9060208082526025908201527f49474e4f52455f4f50454e5f494e5445524553545f464f525f55534147455f4660408201526420a1aa27a960d91b606082015260800190565b60405160208183030381529060405280519060200120815260200190815260200160002060006101000a81548160ff0219169083151502179055506001806000604051602001620036ef9060208082526014908201527f4f5054494d414c5f55534147455f464143544f52000000000000000000000000604082015260600190565b60405160208183030381529060405280519060200120815260200190815260200160002060006101000a81548160ff0219169083151502179055506001806000604051602001620037719060208082526015908201527f424153455f424f52524f57494e475f464143544f520000000000000000000000604082015260600190565b60405160208183030381529060405280519060200120815260200190815260200160002060006101000a81548160ff0219169083151502179055506001806000604051602001620038009060208082526024908201527f41424f56455f4f5054494d414c5f55534147455f424f52524f57494e475f464160408201526321aa27a960e11b606082015260800190565b60405160208183030381529060405280519060200120815260200190815260200160002060006101000a81548160ff0219169083151502179055506001806000604051602001620038759060208082526010908201526f2127a92927aba4a723afa320a1aa27a960811b604082015260600190565b60405160208183030381529060405280519060200120815260200190815260200160002060006101000a81548160ff0219169083151502179055506001806000604051602001620038f79060208082526019908201527f424f52524f57494e475f4558504f4e454e545f464143544f5200000000000000604082015260600190565b60405160208183030381529060405280519060200120815260200190815260200160002060006101000a81548160ff0219169083151502179055506001806000604051602001620039859060208082526023908201527f534b49505f424f52524f57494e475f4645455f464f525f534d414c4c45525f5360408201526249444560e81b606082015260800190565b60405160208183030381529060405280519060200120815260200190815260200160002060006101000a81548160ff021916908315150217905550600180600060405160200162003a07906020808252601d908201527f50524943455f464545445f4845415254424541545f4455524154494f4e000000604082015260600190565b60405160208183030381529060405280519060200120815260200190815260200160002060006101000a81548160ff021916908315150217905550600180600060405160200162003a899060208082526016908201527f49535f474c565f4d41524b45545f44495341424c454400000000000000000000604082015260600190565b60405160208183030381529060405280519060200120815260200190815260200160002060006101000a81548160ff021916908315150217905550600180600060405160200162003b09906020808252818101527f474c565f4d41585f4d41524b45545f544f4b454e5f42414c414e43455f555344604082015260600190565b60405160208183030381529060405280519060200120815260200190815260200160002060006101000a81548160ff021916908315150217905550600180600060405160200162003b979060208082526023908201527f474c565f4d41585f4d41524b45545f544f4b454e5f42414c414e43455f414d4f60408201526215539560ea1b606082015260800190565b60405160208183030381529060405280519060200120815260200190815260200160002060006101000a81548160ff021916908315150217905550600180600060405160200162003c239060208082526021908201527f474c565f53484946545f4d41585f50524943455f494d504143545f464143544f6040820152602960f91b606082015260800190565b60405160208183030381529060405280519060200120815260200190815260200160002060006101000a81548160ff021916908315150217905550600180600060405160200162003ca59060208082526016908201527f474c565f53484946545f4d494e5f494e54455256414c00000000000000000000604082015260600190565b60405160208183030381529060405280519060200120815260200190815260200160002060006101000a81548160ff021916908315150217905550600180600060405160200162003d25906020808252818101527f4d494e5f474c565f544f4b454e535f464f525f46495253545f4445504f534954604082015260600190565b60405160208183030381529060405280519060200120815260200190815260200160002060006101000a81548160ff021916908315150217905550600180600060405160200162003da79060208082526014908201527f474c565f4d41585f4d41524b45545f434f554e54000000000000000000000000604082015260600190565b60405160208183030381529060405280519060200120815260200190815260200160002060006101000a81548160ff021916908315150217905550600180600060405160200162003e29906020808252601c908201527f53594e435f434f4e4649475f464541545552455f44495341424c454400000000604082015260600190565b60405160208183030381529060405280519060200120815260200190815260200160002060006101000a81548160ff021916908315150217905550600180600060405160200162003eab906020808252601b908201527f53594e435f434f4e4649475f4d41524b45545f44495341424c45440000000000604082015260600190565b60405160208183030381529060405280519060200120815260200190815260200160002060006101000a81548160ff021916908315150217905550600180600060405160200162003f2d906020808252601e908201527f53594e435f434f4e4649475f504152414d455445525f44495341424c45440000604082015260600190565b60405160208183030381529060405280519060200120815260200190815260200160002060006101000a81548160ff021916908315150217905550600180600060405160200162003fbd9060208082526025908201527f53594e435f434f4e4649475f4d41524b45545f504152414d455445525f444953604082015264105093115160da1b606082015260800190565b60405160208183030381529060405280519060200120815260200190815260200160002060006101000a81548160ff02191690831515021790555060018060006040516020016200403f9060208082526014908201527f4255594241434b5f42415443485f414d4f554e54000000000000000000000000604082015260600190565b60405160208183030381529060405280519060200120815260200190815260200160002060006101000a81548160ff0219169083151502179055506001806000604051602001620040b690602080825260129082015271212aaca120a1a5afa3a6ac2fa320a1aa27a960711b604082015260600190565b60405160208183030381529060405280519060200120815260200190815260200160002060006101000a81548160ff021916908315150217905550600180600060405160200162004138906020808252601f908201527f4255594241434b5f4d41585f50524943455f494d504143545f464143544f5200604082015260600190565b60405160208183030381529060405280519060200120815260200190815260200160002060006101000a81548160ff0219169083151502179055506001806000604051602001620041ba9060208082526015908201527f4255594241434b5f4d41585f50524943455f4147450000000000000000000000604082015260600190565b60405160208183030381529060405280519060200120815260200190815260200160002060006101000a81548160ff0219169083151502179055506001806000604051602001620042489060208082526023908201527f444154415f53545245414d5f5350524541445f524544554354494f4e5f4641436040820152622a27a960e91b606082015260800190565b60408051808303601f19018152918152815160209283012083529082019290925201600020805460ff1916911515919091179055565b6001600260006040516020016200429590620047b7565b60405160208183030381529060405280519060200120815260200190815260200160002060006101000a81548160ff021916908315150217905550600160026000604051602001620042e790620047f9565b60405160208183030381529060405280519060200120815260200190815260200160002060006101000a81548160ff02191690831515021790555060016002600060405160200162004339906200483b565b60405160208183030381529060405280519060200120815260200190815260200160002060006101000a81548160ff0219169083151502179055506001600260006040516020016200438b906200487e565b60405160208183030381529060405280519060200120815260200190815260200160002060006101000a81548160ff021916908315150217905550600160026000604051602001620043dd90620048c0565b60405160208183030381529060405280519060200120815260200190815260200160002060006101000a81548160ff0219169083151502179055506001600260006040516020016200442f9062004902565b60405160208183030381529060405280519060200120815260200190815260200160002060006101000a81548160ff021916908315150217905550600160026000604051602001620044819062004a29565b60405160208183030381529060405280519060200120815260200190815260200160002060006101000a81548160ff021916908315150217905550600160026000604051602001620044d390620049f2565b60405160208183030381529060405280519060200120815260200190815260200160002060006101000a81548160ff02191690831515021790555060016002600060405160200162004525906200496e565b60405160208183030381529060405280519060200120815260200190815260200160002060006101000a81548160ff0219169083151502179055506001600260006040516020016200457790620049b0565b60405160208183030381529060405280519060200120815260200190815260200160002060006101000a81548160ff021916908315150217905550600160026000604051602001620045c9906200472c565b60405160208183030381529060405280519060200120815260200190815260200160002060006101000a81548160ff0219169083151502179055506001600260006040516020016200461b9062004755565b60405160208183030381529060405280519060200120815260200190815260200160002060006101000a81548160ff0219169083151502179055506001600260006040516020016200466d906200478c565b60405160208183030381529060405280519060200120815260200190815260200160002060006101000a81548160ff021916908315150217905550600160026000604051602001620042489062004945565b6001600160a01b0381168114620046d557600080fd5b50565b600080600060608486031215620046ee57600080fd5b8351620046fb81620046bf565b60208501519093506200470e81620046bf565b60408501519092506200472181620046bf565b809150509250925092565b6020808252600f908201526e13505617d413d3d317d05353d55395608a1b604082015260600190565b60208082526018908201527f4d41585f504f4f4c5f5553445f464f525f4445504f5349540000000000000000604082015260600190565b60208082526011908201527013505617d3d4115397d2539511549154d5607a1b604082015260600190565b60208082526022908201527f455354494d415445445f4741535f4645455f424153455f414d4f554e545f56326040820152615f3160f01b606082015260800190565b60208082526022908201527f455354494d415445445f4741535f4645455f5045525f4f5241434c455f505249604082015261434560f01b606082015260800190565b60208082526023908201527f455354494d415445445f4741535f4645455f4d554c5449504c4945525f4641436040820152622a27a960e91b606082015260800190565b60208082526022908201527f455845435554494f4e5f4741535f4645455f424153455f414d4f554e545f56326040820152615f3160f01b606082015260800190565b60208082526022908201527f455845435554494f4e5f4741535f4645455f5045525f4f5241434c455f505249604082015261434560f01b606082015260800190565b60208082526023908201527f455845435554494f4e5f4741535f4645455f4d554c5449504c4945525f4641436040820152622a27a960e91b606082015260800190565b6020808252600f908201526e282927afaa2920a222a92faa24a2a960891b604082015260600190565b60208082526022908201527f46554e44494e475f494e4352454153455f464143544f525f5045525f5345434f604082015261139160f21b606082015260800190565b60208082526022908201527f46554e44494e475f44454352454153455f464143544f525f5045525f5345434f604082015261139160f21b606082015260800190565b6020808252601d908201527f4d494e5f46554e44494e475f464143544f525f5045525f5345434f4e44000000604082015260600190565b6020808252601d908201527f4d41585f46554e44494e475f464143544f525f5045525f5345434f4e44000000604082015260600190565b60805160a05160c051615aec62004be76000396000818161021101528181610628015281816108f001528181610ca901528181610ebf01528181611292015281816115e70152818161195e01528181611ded0152818161232d015281816126d80152818161277f0152612a960152600081816101b8015281816104e30152818161075501528181610b5a01528181610d5101528181611132015281816114970152818161178101528181611841015281816119fa01528181611af701528181611b9101528181611c2b01528181611eb201528181611f720152818161200c015281816120a6015281816121400152818161258501528181612757015281816127fd015281816128970152818161293101528181613248015261334001526000818161018401528181610315015281816103d00152818161099501528181610a5001528181610f630152818161101e015281816112cb01528181611386015281816123c00152818161247b01528181612b8201528181612c6f0152612f390152615aec6000f3fe608060405234801561001057600080fd5b50600436106101075760003560e01c8063039f2ca61461010c57806306850ad91461012157806313a39b5214610159578063160d0ce61461016c5780634a4a7b041461017f578063660d0d67146101b35780636a0a6cca146101da5780639fc2f961146101ed5780639ff78c301461020c578063a43f85c514610233578063aa0179a514610246578063ac9650d814610259578063af4937fc14610279578063c830360214610281578063d971f3c8146102a4578063ed65f569146102b7578063eef34020146102ca578063efdb895c146102d2578063f70f0da2146102e5578063fa972df2146102f8578063ffe478f314610300575b600080fd5b61011f61011a366004614638565b610313565b005b61014461012f366004614687565b60016020526000908152604090205460ff1681565b60405190151581526020015b60405180910390f35b61011f6101673660046146b5565b6106a2565b61011f61017a366004614710565b610993565b6101a67f000000000000000000000000000000000000000000000000000000000000000081565b604051610150919061476a565b6101a67f000000000000000000000000000000000000000000000000000000000000000081565b61011f6101e836600461477e565b610ce0565b6101fe69152d02c7e14af680000081565b604051908152602001610150565b6101a67f000000000000000000000000000000000000000000000000000000000000000081565b61011f610241366004614638565b610f61565b61011f6102543660046147d2565b6112c9565b61026c610267366004614821565b61161e565b604051610150919061493a565b6101fe61173d565b61014461028f366004614687565b60026020526000908152604090205460ff1681565b61011f6102b2366004614954565b611763565b61011f6102c536600461498d565b6119d4565b6101fe611e7e565b61011f6102e03660046149c8565b611e94565b61011f6102f3366004614638565b6123be565b6101fe61270f565b61011f61030e366004614a19565b612726565b7f00000000000000000000000000000000000000000000000000000000000000006001600160a01b031663ac4ab3fb3360405160200161035290614a4e565b604051602081830303815290604052805190602001206040518363ffffffff1660e01b8152600401610385929190614a7d565b602060405180830381865afa1580156103a2573d6000803e3d6000fd5b505050506040513d601f19601f820116820180604052508101906103c69190614a96565b15801561048357507f00000000000000000000000000000000000000000000000000000000000000006001600160a01b031663ac4ab3fb3360405160200161040d90614ab3565b604051602081830303815290604052805190602001206040518363ffffffff1660e01b8152600401610440929190614a7d565b602060405180830381865afa15801561045d573d6000803e3d6000fd5b505050506040513d601f19601f820116820180604052508101906104819190614a96565b155b156104ac573360405163a35b150b60e01b81526004016104a39190614ada565b60405180910390fd5b6104b4612b27565b6104bd83612b80565b60006104c98484612d73565b6040516309d23b6160e31b81529091506001600160a01b037f00000000000000000000000000000000000000000000000000000000000000001690634e91db089061051a9084908690600401614b1d565b6020604051808303816000875af1158015610539573d6000803e3d6000fd5b505050506040513d601f19601f8201168201806040525081019061055d9190614b2b565b50610566614484565b6080810151610576906002612db6565b604080518082019091526007815266626173654b657960c81b602082015260808201516105a69160009088612e1b565b60408051808201909152600581526476616c756560d81b602082015260808201516105d49160019086612e1b565b60a08101516105e4906001612e6e565b6040805180820190915260048152636461746160e01b602082015260a08201516106119160009087612ed0565b604051630937807960e21b81526001600160a01b037f000000000000000000000000000000000000000000000000000000000000000016906324de01e49061065f9088908590600401615422565b600060405180830381600087803b15801561067957600080fd5b505af115801561068d573d6000803e3d6000fd5b50505050505061069d6001600055565b505050565b6106f56040516020016106b490614ab3565b604051602081830303815290604052805190602001206040518060400160405280600d81526020016c21a7a72324a3afa5a2a2a822a960991b815250612f22565b6106fd612b27565b68327cb2734119d3b7a9601e1b81111561072d57604051636c2738d360e01b8152600481018290526024016104a3565b600061073b86868686612fd2565b604051637152429d60e11b81529091506001600160a01b037f0000000000000000000000000000000000000000000000000000000000000000169063e2a4853a9061078c9084908690600401614b1d565b6020604051808303816000875af11580156107ab573d6000803e3d6000fd5b505050506040513d601f19601f820116820180604052508101906107cf9190614b2b565b506107d8614484565b80516107e5906003612db6565b6040805180820190915260068152651b585c9ad95d60d21b60208201528151610811916000908a61304a565b6040805180820190915260058152643a37b5b2b760d91b6020820152815161083c916001908961304a565b6040805180820190915260078152661858d8dbdd5b9d60ca1b60208201528151610869916002908761304a565b6020810151610879906002612db6565b6108b460006040518060400160405280600781526020016674696d654b657960c81b815250878460200151612e1b909392919063ffffffff16565b6108ee6001604051806040016040528060068152602001653330b1ba37b960d11b815250858460200151612e1b909392919063ffffffff16565b7f00000000000000000000000000000000000000000000000000000000000000006001600160a01b03166363d16363610926896130a7565b61092f896130a7565b846040518463ffffffff1660e01b815260040161094e93929190615464565b600060405180830381600087803b15801561096857600080fd5b505af115801561097c573d6000803e3d6000fd5b50505050505061098c6001600055565b5050505050565b7f00000000000000000000000000000000000000000000000000000000000000006001600160a01b031663ac4ab3fb336040516020016109d290614a4e565b604051602081830303815290604052805190602001206040518363ffffffff1660e01b8152600401610a05929190614a7d565b602060405180830381865afa158015610a22573d6000803e3d6000fd5b505050506040513d601f19601f82011682018060405250810190610a469190614a96565b158015610b0357507f00000000000000000000000000000000000000000000000000000000000000006001600160a01b031663ac4ab3fb33604051602001610a8d90614ab3565b604051602081830303815290604052805190602001206040518363ffffffff1660e01b8152600401610ac0929190614a7d565b602060405180830381865afa158015610add573d6000803e3d6000fd5b505050506040513d601f19601f82011682018060405250810190610b019190614a96565b155b15610b23573360405163a35b150b60e01b81526004016104a39190614ada565b610b2b612b27565b610b3483612b80565b6000610b408484612d73565b60405163ca446dd960e01b81529091506001600160a01b037f0000000000000000000000000000000000000000000000000000000000000000169063ca446dd990610b9190849086906004016154c6565b6020604051808303816000875af1158015610bb0573d6000803e3d6000fd5b505050506040513d601f19601f82011682018060405250810190610bd491906154dd565b50610bdd614484565b6080810151610bed906001612db6565b604080518082019091526007815266626173654b657960c81b60208201526080820151610c1d9160009088612e1b565b60a0810151610c2d906001612e6e565b6040805180820190915260048152636461746160e01b602082015260a0820151610c5a9160009087612ed0565b8051610c67906001612db6565b60408051808201909152600581526476616c756560d81b60208201528151610c92916000908661304a565b604051630937807960e21b81526001600160a01b037f000000000000000000000000000000000000000000000000000000000000000016906324de01e49061065f90889085906004016154fa565b610cf26040516020016106b490614ab3565b610cfa612b27565b68327cb2734119d3b7a9601e1b811115610d2a57604051636c2738d360e01b8152600481018290526024016104a3565b6000610d378585856130b3565b604051637152429d60e11b81529091506001600160a01b037f0000000000000000000000000000000000000000000000000000000000000000169063e2a4853a90610d889084908690600401614b1d565b6020604051808303816000875af1158015610da7573d6000803e3d6000fd5b505050506040513d601f19601f82011682018060405250810190610dcb9190614b2b565b50610dd4614484565b8051610de1906002612db6565b6040805180820190915260068152651b585c9ad95d60d21b60208201528151610e0d916000908961304a565b6040805180820190915260058152643a37b5b2b760d91b60208201528151610e38916001908861304a565b6020810151610e48906002612db6565b610e8360006040518060400160405280600781526020016674696d654b657960c81b815250868460200151612e1b909392919063ffffffff16565b610ebd6001604051806040016040528060068152602001653330b1ba37b960d11b815250858460200151612e1b909392919063ffffffff16565b7f00000000000000000000000000000000000000000000000000000000000000006001600160a01b03166363d16363610ef5886130a7565b610efe886130a7565b846040518463ffffffff1660e01b8152600401610f1d93929190615534565b600060405180830381600087803b158015610f3757600080fd5b505af1158015610f4b573d6000803e3d6000fd5b505050505050610f5b6001600055565b50505050565b7f00000000000000000000000000000000000000000000000000000000000000006001600160a01b031663ac4ab3fb33604051602001610fa090614a4e565b604051602081830303815290604052805190602001206040518363ffffffff1660e01b8152600401610fd3929190614a7d565b602060405180830381865afa158015610ff0573d6000803e3d6000fd5b505050506040513d601f19601f820116820180604052508101906110149190614a96565b1580156110d157507f00000000000000000000000000000000000000000000000000000000000000006001600160a01b031663ac4ab3fb3360405160200161105b90614ab3565b604051602081830303815290604052805190602001206040518363ffffffff1660e01b815260040161108e929190614a7d565b602060405180830381865afa1580156110ab573d6000803e3d6000fd5b505050506040513d601f19601f820116820180604052508101906110cf9190614a96565b155b156110f1573360405163a35b150b60e01b81526004016104a39190614ada565b6110f9612b27565b61110283612b80565b600061110e8484612d73565b905061111b84848461311b565b604051637152429d60e11b81526001600160a01b037f0000000000000000000000000000000000000000000000000000000000000000169063e2a4853a906111699084908690600401614b1d565b6020604051808303816000875af1158015611188573d6000803e3d6000fd5b505050506040513d601f19601f820116820180604052508101906111ac9190614b2b565b506111b5614484565b60808101516111c5906001612db6565b604080518082019091526007815266626173654b657960c81b602082015260808201516111f59160009088612e1b565b60a0810151611205906001612e6e565b6040805180820190915260048152636461746160e01b602082015260a08201516112329160009087612ed0565b6020810151611242906001612db6565b61127b60006040518060400160405280600581526020016476616c756560d81b815250858460200151612e1b909392919063ffffffff16565b604051630937807960e21b81526001600160a01b037f000000000000000000000000000000000000000000000000000000000000000016906324de01e49061065f9088908590600401615593565b7f00000000000000000000000000000000000000000000000000000000000000006001600160a01b031663ac4ab3fb3360405160200161130890614a4e565b604051602081830303815290604052805190602001206040518363ffffffff1660e01b815260040161133b929190614a7d565b602060405180830381865afa158015611358573d6000803e3d6000fd5b505050506040513d601f19601f8201168201806040525081019061137c9190614a96565b15801561143957507f00000000000000000000000000000000000000000000000000000000000000006001600160a01b031663ac4ab3fb336040516020016113c390614ab3565b604051602081830303815290604052805190602001206040518363ffffffff1660e01b81526004016113f6929190614a7d565b602060405180830381865afa158015611413573d6000803e3d6000fd5b505050506040513d601f19601f820116820180604052508101906114379190614a96565b155b15611459573360405163a35b150b60e01b81526004016104a39190614ada565b611461612b27565b61146a83612b80565b60006114768484612d73565b60405163abfdcced60e01b81526004810182905283151560248201529091507f00000000000000000000000000000000000000000000000000000000000000006001600160a01b03169063abfdcced906044016020604051808303816000875af11580156114e8573d6000803e3d6000fd5b505050506040513d601f19601f8201168201806040525081019061150c9190614a96565b50611515614484565b6080810151611525906001612db6565b604080518082019091526007815266626173654b657960c81b602082015260808201516115559160009088612e1b565b60a0810151611565906001612e6e565b6040805180820190915260048152636461746160e01b602082015260a08201516115929160009087612ed0565b60608101516115a2906001612db6565b60408051808201909152600581526476616c756560d81b602082015260608201516115d09160009086614094565b604051630937807960e21b81526001600160a01b037f000000000000000000000000000000000000000000000000000000000000000016906324de01e49061065f90889085906004016155ca565b6060816001600160401b0381111561163857611638614575565b60405190808252806020026020018201604052801561166b57816020015b60608152602001906001900390816116565790505b50905060005b82811015611735576000803086868581811061168f5761168f615601565b90506020028101906116a19190615617565b6040516116af929190615664565b600060405180830381855af49150503d80600081146116ea576040519150601f19603f3d011682016040523d82523d6000602084013e6116ef565b606091505b50915091508161170257611702816140e9565b8084848151811061171557611715615601565b60200260200101819052505050808061172d9061568a565b915050611671565b505b92915050565b606461175668327cb2734119d3b7a9601e1b60056156a3565b61176091906156ba565b81565b6117756040516020016106b490614ab3565b61177d612b27565b60007f00000000000000000000000000000000000000000000000000000000000000006001600160a01b03166321f8a7216117b785614122565b6040518263ffffffff1660e01b81526004016117d591815260200190565b602060405180830381865afa1580156117f2573d6000803e3d6000fd5b505050506040513d601f19601f8201168201806040525081019061181691906154dd565b6001600160a01b03161461183f578160405163119f2bcb60e31b81526004016104a3919061476a565b7f00000000000000000000000000000000000000000000000000000000000000006001600160a01b031663ca446dd961187784614122565b836040518363ffffffff1660e01b81526004016118959291906154c6565b6020604051808303816000875af11580156118b4573d6000803e3d6000fd5b505050506040513d601f19601f820116820180604052508101906118d891906154dd565b506118e1614484565b80516118ee906002612db6565b6040805180820190915260058152643a37b5b2b760d91b60208201528151611919916000908661304a565b604080518082019091526008815267383937bb34b232b960c11b60208201528151611947916001908561304a565b60405163483624fb60e11b81526001600160a01b037f0000000000000000000000000000000000000000000000000000000000000000169063906c49f6906119939084906004016156dc565b600060405180830381600087803b1580156119ad57600080fd5b505af11580156119c1573d6000803e3d6000fd5b50505050506119d06001600055565b5050565b6119e66040516020016106b490614ab3565b6119ee612b27565b60006001600160a01b037f00000000000000000000000000000000000000000000000000000000000000001663a6ed563e611a28876141a6565b6040518263ffffffff1660e01b8152600401611a4691815260200190565b602060405180830381865afa158015611a63573d6000803e3d6000fd5b505050506040513d601f19601f82011682018060405250810190611a879190614b2b565b14611aa7578360405163104fe69560e21b81526004016104a3919061476a565b611af5604051602001611ab990615720565b6040516020818303038152906040528051906020012085604051602001611ae0919061476a565b6040516020818303038152906040528361311b565b7f00000000000000000000000000000000000000000000000000000000000000006001600160a01b0316634e91db08611b2d866141a6565b856040518363ffffffff1660e01b8152600401611b4b929190614b1d565b6020604051808303816000875af1158015611b6a573d6000803e3d6000fd5b505050506040513d601f19601f82011682018060405250810190611b8e9190614b2b565b507f00000000000000000000000000000000000000000000000000000000000000006001600160a01b031663e2a4853a611bc7866141da565b846040518363ffffffff1660e01b8152600401611be5929190614b1d565b6020604051808303816000875af1158015611c04573d6000803e3d6000fd5b505050506040513d601f19601f82011682018060405250810190611c289190614b2b565b507f00000000000000000000000000000000000000000000000000000000000000006001600160a01b031663e2a4853a611c6186614216565b836040518363ffffffff1660e01b8152600401611c7f929190614b1d565b6020604051808303816000875af1158015611c9e573d6000803e3d6000fd5b505050506040513d601f19601f82011682018060405250810190611cc29190614b2b565b50611ccb614484565b8051611cd8906001612db6565b6040805180820190915260058152643a37b5b2b760d91b60208201528151611d03916000908861304a565b6080810151611d13906001612db6565b60408051808201909152600681526519995959125960d21b60208201526080820151611d429160009087612e1b565b6020810151611d52906002612db6565b611d9a6000604051806040016040528060148152602001733230ba30a9ba3932b0b6a6bab63a34b83634b2b960611b815250858460200151612e1b909392919063ffffffff16565b611deb60016040518060400160405280601f81526020017f6461746153747265616d537072656164526564756374696f6e466163746f7200815250848460200151612e1b909392919063ffffffff16565b7f00000000000000000000000000000000000000000000000000000000000000006001600160a01b03166324de01e4611e23876130a7565b836040518363ffffffff1660e01b8152600401611e41929190615763565b600060405180830381600087803b158015611e5b57600080fd5b505af1158015611e6f573d6000803e3d6000fd5b5050505050610f5b6001600055565b611760610e1069152d02c7e14af68000006156ba565b611ea66040516020016106b490614ab3565b611eae612b27565b60007f00000000000000000000000000000000000000000000000000000000000000006001600160a01b03166321f8a721611ee888614227565b6040518263ffffffff1660e01b8152600401611f0691815260200190565b602060405180830381865afa158015611f23573d6000803e3d6000fd5b505050506040513d601f19601f82011682018060405250810190611f4791906154dd565b6001600160a01b031614611f705784604051631a82825360e31b81526004016104a3919061476a565b7f00000000000000000000000000000000000000000000000000000000000000006001600160a01b031663ca446dd9611fa887614227565b866040518363ffffffff1660e01b8152600401611fc69291906154c6565b6020604051808303816000875af1158015611fe5573d6000803e3d6000fd5b505050506040513d601f19601f8201168201806040525081019061200991906154dd565b507f00000000000000000000000000000000000000000000000000000000000000006001600160a01b031663e2a4853a61204287614257565b856040518363ffffffff1660e01b8152600401612060929190614b1d565b6020604051808303816000875af115801561207f573d6000803e3d6000fd5b505050506040513d601f19601f820116820180604052508101906120a39190614b2b565b507f00000000000000000000000000000000000000000000000000000000000000006001600160a01b031663e2a4853a6120dc87614292565b846040518363ffffffff1660e01b81526004016120fa929190614b1d565b6020604051808303816000875af1158015612119573d6000803e3d6000fd5b505050506040513d601f19601f8201168201806040525081019061213d9190614b2b565b507f00000000000000000000000000000000000000000000000000000000000000006001600160a01b031663e2a4853a612176876142d5565b836040518363ffffffff1660e01b8152600401612194929190614b1d565b6020604051808303816000875af11580156121b3573d6000803e3d6000fd5b505050506040513d601f19601f820116820180604052508101906121d79190614b2b565b506121e0614484565b80516121ed906002612db6565b6040805180820190915260058152643a37b5b2b760d91b60208201528151612218916000908961304a565b6040805180820190915260098152681c1c9a58d95199595960ba1b60208201528151612247916001908861304a565b6020810151612257906003612db6565b61229e600060405180604001604052806013815260200172383934b1b2a332b2b226bab63a34b83634b2b960691b815250868460200151612e1b909392919063ffffffff16565b6122ec60016040518060400160405280601a815260200179383934b1b2a332b2b22432b0b93a3132b0ba223ab930ba34b7b760311b815250858460200151612e1b909392919063ffffffff16565b61232b60026040518060400160405280600b81526020016a737461626c65507269636560a81b815250848460200151612e1b909392919063ffffffff16565b7f00000000000000000000000000000000000000000000000000000000000000006001600160a01b03166324de01e4612363886130a7565b836040518363ffffffff1660e01b81526004016123819291906157a6565b600060405180830381600087803b15801561239b57600080fd5b505af11580156123af573d6000803e3d6000fd5b505050505061098c6001600055565b7f00000000000000000000000000000000000000000000000000000000000000006001600160a01b031663ac4ab3fb336040516020016123fd90614a4e565b604051602081830303815290604052805190602001206040518363ffffffff1660e01b8152600401612430929190614a7d565b602060405180830381865afa15801561244d573d6000803e3d6000fd5b505050506040513d601f19601f820116820180604052508101906124719190614a96565b15801561252e57507f00000000000000000000000000000000000000000000000000000000000000006001600160a01b031663ac4ab3fb336040516020016124b890614ab3565b604051602081830303815290604052805190602001206040518363ffffffff1660e01b81526004016124eb929190614a7d565b602060405180830381865afa158015612508573d6000803e3d6000fd5b505050506040513d601f19601f8201168201806040525081019061252c9190614a96565b155b1561254e573360405163a35b150b60e01b81526004016104a39190614ada565b612556612b27565b61255f83612b80565b600061256b8484612d73565b6040516303e49bed60e41b81529091506001600160a01b037f00000000000000000000000000000000000000000000000000000000000000001690633e49bed0906125bc9084908690600401614b1d565b6020604051808303816000875af11580156125db573d6000803e3d6000fd5b505050506040513d601f19601f820116820180604052508101906125ff9190614b2b565b50612608614484565b6080810151612618906001612db6565b604080518082019091526007815266626173654b657960c81b602082015260808201516126489160009088612e1b565b60a0810151612658906001612e6e565b6040805180820190915260048152636461746160e01b602082015260a08201516126859160009087612ed0565b6040810151612695906001612db6565b604080518082018252600581526476616c756560d81b6020820152908201516126c19160009086612e1b565b604051630937807960e21b81526001600160a01b037f000000000000000000000000000000000000000000000000000000000000000016906324de01e49061065f90889085906004016157e8565b6117606201518069152d02c7e14af68000006156ba565b6127386040516020016106b490614ab3565b612740612b27565b60405163c468d13560e01b81526001600160a01b037f0000000000000000000000000000000000000000000000000000000000000000811660048301527f0000000000000000000000000000000000000000000000000000000000000000811660248301528416604482015273__$e53db83827f4e07ebc418caf7145b8c2d5$__9063c468d1359060640160006040518083038186803b1580156127e357600080fd5b505af41580156127f7573d6000803e3d6000fd5b505050507f00000000000000000000000000000000000000000000000000000000000000006001600160a01b031663e2a4853a61283385614307565b846040518363ffffffff1660e01b8152600401612851929190614b1d565b6020604051808303816000875af1158015612870573d6000803e3d6000fd5b505050506040513d601f19601f820116820180604052508101906128949190614b2b565b507f00000000000000000000000000000000000000000000000000000000000000006001600160a01b031663e2a4853a6128cd8561434a565b836040518363ffffffff1660e01b81526004016128eb929190614b1d565b6020604051808303816000875af115801561290a573d6000803e3d6000fd5b505050506040513d601f19601f8201168201806040525081019061292e9190614b2b565b507f00000000000000000000000000000000000000000000000000000000000000006001600160a01b031663e2a4853a6129678561439c565b426040518363ffffffff1660e01b8152600401612985929190614b1d565b6020604051808303816000875af11580156129a4573d6000803e3d6000fd5b505050506040513d601f19601f820116820180604052508101906129c89190614b2b565b506129d1614484565b80516129de906001612db6565b6040805180820190915260068152651b585c9ad95d60d21b60208201528151612a0a916000908761304a565b6020810151612a1a906002612db6565b612a6960006040518060400160405280601b81526020017a1b5a5b941bdcda5d1a5bdb925b5c1858dd141bdbdb105b5bdd5b9d602a1b815250858460200151612e1b909392919063ffffffff16565b612a946001604051806060016040528060228152602001615a95602291396020840151919085612e1b565b7f00000000000000000000000000000000000000000000000000000000000000006001600160a01b03166324de01e4612acc866130a7565b836040518363ffffffff1660e01b8152600401612aea92919061581e565b600060405180830381600087803b158015612b0457600080fd5b505af1158015612b18573d6000803e3d6000fd5b505050505061069d6001600055565b600260005403612b795760405162461bcd60e51b815260206004820152601f60248201527f5265656e7472616e637947756172643a207265656e7472616e742063616c6c0060448201526064016104a3565b6002600055565b7f00000000000000000000000000000000000000000000000000000000000000006001600160a01b031663ac4ab3fb33604051602001612bbf90614ab3565b604051602081830303815290604052805190602001206040518363ffffffff1660e01b8152600401612bf2929190614a7d565b602060405180830381865afa158015612c0f573d6000803e3d6000fd5b505050506040513d601f19601f82011682018060405250810190612c339190614a96565b15612c6d5760008181526001602052604090205460ff16612c6a5760405163eb19d3f560e01b8152600481018290526024016104a3565b50565b7f00000000000000000000000000000000000000000000000000000000000000006001600160a01b031663ac4ab3fb33604051602001612cac90614a4e565b604051602081830303815290604052805190602001206040518363ffffffff1660e01b8152600401612cdf929190614a7d565b602060405180830381865afa158015612cfc573d6000803e3d6000fd5b505050506040513d601f19601f82011682018060405250810190612d209190614a96565b15612d575760008181526002602052604090205460ff16612c6a5760405163eb19d3f560e01b8152600481018290526024016104a3565b60405163eb19d3f560e01b8152600481018290526024016104a3565b60008151600003612d85575081611737565b8282604051602001612d98929190615879565b60405160208183030381529060405280519060200120905092915050565b806001600160401b03811115612dce57612dce614575565b604051908082528060200260200182016040528015612e1457816020015b604080518082019091526060815260006020820152815260200190600190039081612dec5790505b5090915250565b8184600001518481518110612e3257612e32615601565b6020026020010151600001819052508084600001518481518110612e5857612e58615601565b6020026020010151602001818152505050505050565b806001600160401b03811115612e8657612e86614575565b604051908082528060200260200182016040528015612e1457816020015b6040805180820190915260608082526020820152815260200190600190039081612ea457505090915250565b8184600001518481518110612ee757612ee7615601565b6020026020010151600001819052508084600001518481518110612f0d57612f0d615601565b60200260200101516020018190525050505050565b60405163ac4ab3fb60e01b81526001600160a01b037f0000000000000000000000000000000000000000000000000000000000000000169063ac4ab3fb90612f709033908690600401614a7d565b602060405180830381865afa158015612f8d573d6000803e3d6000fd5b505050506040513d601f19601f82011682018060405250810190612fb19190614a96565b6119d057338160405163a35b150b60e01b81526004016104a392919061589f565b6000604051602001612fe3906158c3565b60408051601f198184030181528282528051602091820120908301526001600160a01b0380881691830191909152808616606083015260808201859052831660a082015260c001604051602081830303815290604052805190602001209050949350505050565b818460000151848151811061306157613061615601565b602002602001015160000181905250808460000151848151811061308757613087615601565b6020908102919091018101516001600160a01b0390921691015250505050565b6001600160a01b031690565b60006040516020016130c4906158c3565b60408051808303601f190181528282528051602091820120818401526001600160a01b03968716838301529490951660608201526080808201939093528451808203909301835260a0019093528051910120919050565b6040516020016131579060208082526018908201527729a2a8aaa2a721a2a92fa3a920a1a2afa22aa920aa24a7a760411b604082015260600190565b60405160208183030381529060405280519060200120830361319a57611c2081111561319a578281604051635ebb87c960e01b81526004016104a3929190614b1d565b6040516020016131a9906158f8565b6040516020818303038152906040528051906020012083036132dd5769152d02c7e14af68000008111156131f4578281604051635ebb87c960e01b81526004016104a3929190614b1d565b60006132246040516020016132089061592f565b6040516020818303038152906040528051906020012084612d73565b60405163bd02d0f560e01b8152600481018290529091506000906001600160a01b037f0000000000000000000000000000000000000000000000000000000000000000169063bd02d0f590602401602060405180830381865afa15801561328f573d6000803e3d6000fd5b505050506040513d601f19601f820116820180604052508101906132b39190614b2b565b9050808310156132da578483604051635ebb87c960e01b81526004016104a3929190614b1d565b50505b6040516020016132ec9061592f565b6040516020818303038152906040528051906020012083036133d557600061331c604051602001613208906158f8565b60405163bd02d0f560e01b8152600481018290529091506000906001600160a01b037f0000000000000000000000000000000000000000000000000000000000000000169063bd02d0f590602401602060405180830381865afa158015613387573d6000803e3d6000fd5b505050506040513d601f19601f820116820180604052508101906133ab9190614b2b565b9050808311156133d2578483604051635ebb87c960e01b81526004016104a3929190614b1d565b50505b6040516020016133e490615966565b60405160208183030381529060405280519060200120830361343a57613416610e1069152d02c7e14af68000006156ba565b81111561343a578281604051635ebb87c960e01b81526004016104a3929190614b1d565b604051602001613449906159a8565b6040516020818303038152906040528051906020012083036134a05761347c6201518069152d02c7e14af68000006156ba565b8111156134a0578281604051635ebb87c960e01b81526004016104a3929190614b1d565b6040516020016134af906159ea565b6040516020818303038152906040528051906020012083148061351f5750604051602001613506906020808252601590820152742120a9a2afa127a92927aba4a723afa320a1aa27a960591b604082015260600190565b6040516020818303038152906040528051906020012083145b1561355357690a968163f0a57b400000811115613553578281604051635ebb87c960e01b81526004016104a3929190614b1d565b6040516020016135a19060208082526024908201527f41424f56455f4f5054494d414c5f55534147455f424f52524f57494e475f464160408201526321aa27a960e11b606082015260800190565b6040516020818303038152906040528051906020012083036135ec5769152d02c7e14af68000008111156135ec578281604051635ebb87c960e01b81526004016104a3929190614b1d565b60405160200161362790602080825260179082015276232aa72224a723afa2ac2827a722a72a2fa320a1aa27a960491b604082015260600190565b6040516020818303038152906040528051906020012083148061369b5750604051602001613682906020808252601990820152782127a92927aba4a723afa2ac2827a722a72a2fa320a1aa27a960391b604082015260600190565b6040516020818303038152906040528051906020012083145b156136db576136b768327cb2734119d3b7a9601e1b60026156a3565b8111156136db578281604051635ebb87c960e01b81526004016104a3929190614b1d565b60405160200161371c906020808252601f908201527f504f534954494f4e5f494d504143545f4558504f4e454e545f464143544f5200604082015260600190565b604051602081830303815290604052805190602001208314806137925750604051602001613779906020808252601b908201527a29aba0a82fa4a6a820a1aa2fa2ac2827a722a72a2fa320a1aa27a960291b604082015260600190565b6040516020818303038152906040528051906020012083145b156137d2576137ae68327cb2734119d3b7a9601e1b60036156a3565b8111156137d2578281604051635ebb87c960e01b81526004016104a3929190614b1d565b604051602001613804906020808252600e908201526d232aa72224a723afa320a1aa27a960911b604082015260600190565b6040516020818303038152906040528051906020012083148061384a5750604051602001613831906159ea565b6040516020818303038152906040528051906020012083145b80613878575060405160200161385f90615966565b6040516020818303038152906040528051906020012083145b806138a6575060405160200161388d906159a8565b6040516020818303038152906040528051906020012083145b806138fe57506040516020016138e59060208082526015908201527426a4a72fa1a7a62620aa22a920a62fa320a1aa27a960591b604082015260600190565b6040516020818303038152906040528051906020012083145b1561394a57606461391c68327cb2734119d3b7a9601e1b60016156a3565b61392691906156ba565b81111561394a578281604051635ebb87c960e01b81526004016104a3929190614b1d565b60405160200161397d906020808252600f908201526e29aba0a82fa322a2afa320a1aa27a960891b604082015260600190565b604051602081830303815290604052805190602001208314806139ea57506040516020016139d1906020808252601290820152712222a827a9a4aa2fa322a2afa320a1aa27a960711b604082015260600190565b6040516020818303038152906040528051906020012083145b80613a425750604051602001613a29906020808252601590820152742ba4aa24222920aba0a62fa322a2afa320a1aa27a960591b604082015260600190565b6040516020818303038152906040528051906020012083145b80613a985750604051602001613a7f906020808252601390820152722827a9a4aa24a7a72fa322a2afa320a1aa27a960691b604082015260600190565b6040516020818303038152906040528051906020012083145b80613aec5750604051602001613ad39060208082526011908201527026a0ac2faaa4afa322a2afa320a1aa27a960791b604082015260600190565b6040516020818303038152906040528051906020012083145b80613b455750604051602001613b2c9060208082526016908201527520aa27a6a4a1afa9aba0a82fa322a2afa320a1aa27a960511b604082015260600190565b6040516020818303038152906040528051906020012083145b80613ba55750604051602001613b8c906020808252601f908201527f4255594241434b5f4d41585f50524943455f494d504143545f464143544f5200604082015260600190565b6040516020818303038152906040528051906020012083145b15613bf1576064613bc368327cb2734119d3b7a9601e1b60056156a3565b613bcd91906156ba565b811115613bf1578281604051635ebb87c960e01b81526004016104a3929190614b1d565b604051602001613c2b906020808252601690820152752624a8aaa4a220aa24a7a72fa322a2afa320a1aa27a960511b604082015260600190565b604051602081830303815290604052805190602001208303613c8257613c5e606468327cb2734119d3b7a9601e1b6156ba565b811115613c82578281604051635ebb87c960e01b81526004016104a3929190614b1d565b604051602001613cb89060208082526012908201527113525397d0d3d31310551154905317d554d160721b604082015260600190565b604051602081830303815290604052805190602001208303613d0f57613ceb68327cb2734119d3b7a9601e1b600a6156a3565b811115613d0f578281604051635ebb87c960e01b81526004016104a3929190614b1d565b604051602001613d4f906020808252601c908201527b2827a9a4aa24a7a72fa322a2afa922a1a2a4ab22a92fa320a1aa27a960211b604082015260600190565b60405160208183030381529060405280519060200120831480613dc25750604051602001613da99060208082526018908201527729aba0a82fa322a2afa922a1a2a4ab22a92fa320a1aa27a960411b604082015260600190565b6040516020818303038152906040528051906020012083145b80613e225750604051602001613e09906020808252601d908201527f424f52524f57494e475f4645455f52454345495645525f464143544f52000000604082015260600190565b6040516020818303038152906040528051906020012083145b80613e825750604051602001613e69906020808252601f908201527f4c49515549444154494f4e5f4645455f52454345495645525f464143544f5200604082015260600190565b6040516020818303038152906040528051906020012083145b80613ed35750604051602001613eba906020808252600e908201526d26a0ac2fa827262fa320a1aa27a960911b604082015260600190565b6040516020818303038152906040528051906020012083145b80613f2e5750604051602001613f159060208082526018908201527713525397d4139317d19050d513d497d05195115497d0511360421b604082015260600190565b6040516020818303038152906040528051906020012083145b80613f855750604051602001613f6c9060208082526014908201527327a82a24a6a0a62faaa9a0a3a2afa320a1aa27a960611b604082015260600190565b6040516020818303038152906040528051906020012083145b80613fdb5750604051602001613fc290602080825260139082015272282927afa224a9a1a7aaa72a2fa320a1aa27a960691b604082015260600190565b6040516020818303038152906040528051906020012083145b80614030575060405160200161401790602080825260129082015271212aaca120a1a5afa3a6ac2fa320a1aa27a960711b604082015260600190565b6040516020818303038152906040528051906020012083145b8061405e575060405160200161404590615720565b6040516020818303038152906040528051906020012083145b1561069d5768327cb2734119d3b7a9601e1b81111561069d578281604051635ebb87c960e01b81526004016104a3929190614b1d565b81846000015184815181106140ab576140ab615601565b60200260200101516000018190525080846000015184815181106140d1576140d1615601565b60209081029190910181015191151591015250505050565b6000806140f5836143eb565b915091508015614119578160405162461bcd60e51b81526004016104a39190615a14565b61069d8361447b565b60006040516020016141619060208082526019908201527827a920a1a622afa82927ab24a222a92fa327a92faa27a5a2a760391b604082015260600190565b60405160208183030381529060405280519060200120826040516020016141899291906154c6565b604051602081830303815290604052805190602001209050919050565b6000604051602001614161906020808252600e908201526d1110551057d4d51491505357d25160921b604082015260600190565b6000604051602001614161906020808252601690820152752220aa20afa9aa2922a0a6afa6aaa62a24a82624a2a960511b604082015260600190565b600060405160200161416190615720565b6000604051602001614161906020808252600a908201526914149250d157d191515160b21b604082015260600190565b600060405160200161416190602080825260159082015274282924a1a2afa322a2a22fa6aaa62a24a82624a2a960591b604082015260600190565b6000604051602001614161906020808252601d908201527f50524943455f464545445f4845415254424541545f4455524154494f4e000000604082015260600190565b6000604051602001614161906020808252600c908201526b535441424c455f505249434560a01b604082015260600190565b6000604051602001614161906020808252601f908201527f4d494e5f504f534954494f4e5f494d504143545f504f4f4c5f414d4f554e5400604082015260600190565b60006040516020016141619060208082526026908201527f504f534954494f4e5f494d504143545f504f4f4c5f444953545249425554494f6040820152654e5f5241544560d01b606082015260800190565b60006040516020016141619060208082526023908201527f504f534954494f4e5f494d504143545f504f4f4c5f444953545249425554454460408201526217d05560ea1b606082015260800190565b60606000604483511015614412575050604080516020810190915260008082529092909150565b600061441f846020015190565b90506307b9e43360e51b6001600160e01b031982160161445e57600484019350838060200190518101906144539190615a27565b946001945092505050565b600060405180602001604052806000815250909250925050915091565b80518060208301fd5b604080516101208101909152606060e08201818152610100830191909152819081526020016144c6604051806040016040528060608152602001606081525090565b81526020016144e8604051806040016040528060608152602001606081525090565b815260200161450a604051806040016040528060608152602001606081525090565b815260200161452c604051806040016040528060608152602001606081525090565b815260200161454e604051806040016040528060608152602001606081525090565b8152602001614570604051806040016040528060608152602001606081525090565b905290565b634e487b7160e01b600052604160045260246000fd5b604051601f8201601f191681016001600160401b03811182821017156145b3576145b3614575565b604052919050565b60006001600160401b038211156145d4576145d4614575565b50601f01601f191660200190565b600082601f8301126145f357600080fd5b8135614606614601826145bb565b61458b565b81815284602083860101111561461b57600080fd5b816020850160208301376000918101602001919091529392505050565b60008060006060848603121561464d57600080fd5b8335925060208401356001600160401b0381111561466a57600080fd5b614676868287016145e2565b925050604084013590509250925092565b60006020828403121561469957600080fd5b5035919050565b6001600160a01b0381168114612c6a57600080fd5b600080600080600060a086880312156146cd57600080fd5b85356146d8816146a0565b945060208601356146e8816146a0565b93506040860135925060608601356146ff816146a0565b949793965091946080013592915050565b60008060006060848603121561472557600080fd5b8335925060208401356001600160401b0381111561474257600080fd5b61474e868287016145e2565b925050604084013561475f816146a0565b809150509250925092565b6001600160a01b0391909116815260200190565b6000806000806080858703121561479457600080fd5b843561479f816146a0565b935060208501356147af816146a0565b93969395505050506040820135916060013590565b8015158114612c6a57600080fd5b6000806000606084860312156147e757600080fd5b8335925060208401356001600160401b0381111561480457600080fd5b614810868287016145e2565b925050604084013561475f816147c4565b6000806020838503121561483457600080fd5b82356001600160401b038082111561484b57600080fd5b818501915085601f83011261485f57600080fd5b81358181111561486e57600080fd5b8660208260051b850101111561488357600080fd5b60209290920196919550909350505050565b60005b838110156148b0578181015183820152602001614898565b50506000910152565b600081518084526148d1816020860160208601614895565b601f01601f19169290920160200192915050565b600081518084526020808501808196508360051b8101915082860160005b8581101561492d57828403895261491b8483516148b9565b98850198935090840190600101614903565b5091979650505050505050565b60208152600061494d60208301846148e5565b9392505050565b6000806040838503121561496757600080fd5b8235614972816146a0565b91506020830135614982816146a0565b809150509250929050565b600080600080608085870312156149a357600080fd5b84356149ae816146a0565b966020860135965060408601359560600135945092505050565b600080600080600060a086880312156149e057600080fd5b85356149eb816146a0565b945060208601356149fb816146a0565b94979496505050506040830135926060810135926080909101359150565b600080600060608486031215614a2e57600080fd5b8335614a39816146a0565b95602085013595506040909401359392505050565b6020808252601590820152742624a6a4aa22a22fa1a7a72324a3afa5a2a2a822a960591b604082015260600190565b6001600160a01b03929092168252602082015260400190565b600060208284031215614aa857600080fd5b815161494d816147c4565b6020808252600d908201526c21a7a72324a3afa5a2a2a822a960991b604082015260600190565b6001600160a01b03919091168152604060208201819052601790820152762624a6a4aa22a210179021a7a72324a39025a2a2a822a960491b606082015260800190565b918252602082015260400190565b600060208284031215614b3d57600080fd5b5051919050565b600082825180855260208086019550808260051b8401018186016000805b85811015614be257601f19878503018a52825160408151818752614b88828801826148b9565b92880151878403888a0152805180855290890193869350890191505b80831015614bcd5783516001600160a01b03168252928801926001929092019190880190614ba4565b509b87019b9550505091840191600101614b62565b509198975050505050505050565b60006040808401835182865281815180845260608801915060608160051b89010193506020808401935060005b82811015614c6757898603605f1901845284518051888852614c41898901826148b9565b918401516001600160a01b03169784019790975295509381019392810192600101614c1d565b50808801519550888503818a015250505050614c838183614b44565b95945050505050565b600081518084526020808501808196508360051b810191508286016000805b86811015614d1e578385038a52825160408151818852614ccd828901826148b9565b92890151888403898b01528051808552908a01938693508a0191505b80831015614d095783518252928901926001929092019190890190614ce9565b509b88019b9650505091850191600101614cab565b509298975050505050505050565b60006040808401835182865281815180845260608801915060608160051b89010193506020808401935060005b82811015614d9a57898603605f1901845284518051888852614d7d898901826148b9565b918401519784019790975295509381019392810192600101614d59565b50808801519550888503818a015250505050614c838183614c8c565b600081518084526020808501808196508360051b810191508286016000805b86811015614d1e578385038a52825160408151818852614df7828901826148b9565b92890151888403898b01528051808552908a01938693508a0191505b80831015614e335783518252928901926001929092019190890190614e13565b509b88019b9650505091850191600101614dd5565b60006040808401835182865281815180845260608801915060608160051b89010193506020808401935060005b82811015614eb657898603605f1901845284518051888852614e99898901826148b9565b918401519784019790975295509381019392810192600101614e75565b50808801519550888503818a015250505050614c838183614db6565b6000815180845260208085019450848260051b86018286016000805b86811015614be2578484038a52825160408151818752614f10828801826148b9565b92890151878403888b01528051808552908a01938693508a0191505b80831015614f4e57835115158252928901926001929092019190890190614f2c565b509b88019b9550505091850191600101614eee565b60006040808401835182865281815180845260608801915060608160051b89010193506020808401935060005b82811015614fd357898603605f1901845284518051888852614fb4898901826148b9565b9184015115159784019790975295509381019392810192600101614f90565b50808801519550888503818a015250505050614c838183614ed2565b600081518084526020808501808196508360051b810191508286016000805b86811015614d1e578385038a52825160408151818852615030828901826148b9565b92890151888403898b01528051808552908a01938693508a0191505b8083101561506c578351825292890192600192909201919089019061504c565b509b88019b965050509185019160010161500e565b60006040808401835182865281815180845260608801915060608160051b89010193506020808401935060005b828110156150ef57898603605f19018452845180518888526150d2898901826148b9565b9184015197840197909752955093810193928101926001016150ae565b50808801519550888503818a015250505050614c838183614fef565b6000815180845260208085019450848260051b860182860160005b85811015615176578383038952815160408151818652615148828701826148b9565b9150508682015191508481038786015261516281836148e5565b9a87019a9450505090840190600101615126565b5090979650505050505050565b60006040808401835182865281815180845260608801915060608160051b89010193506020808401935060005b8281101561520057898603605f19018452845180518888526151d4898901826148b9565b91840151888303898601529190506151ec81836148b9565b9750505093810193928101926001016151b0565b50808801519550888503818a015250505050614c83818361510b565b60008282518085526020808601955060058183821b8501018287016000805b868110156152ca57601f1980898603018c52835160408151818852615262828901826148b9565b928a0151888403898c01528051808552908b019392508a83019150808a1b83018b01875b828110156152b257868583030184526152a08287516148b9565b958d0195938d01939150600101615286565b509f8b019f985050509488019450505060010161523b565b50919998505050505050505050565b60006040808401835182865281815180845260608801915060608160051b89010193506020808401935060005b8281101561535657898603605f190184528451805188885261532a898901826148b9565b918401518883038986015291905061534281836148b9565b975050509381019392810192600101615306565b50808801519550888503818a015250505050614c83818361521c565b6000815160e0845261538760e0850182614bf0565b9050602083015184820360208601526153a08282614d2c565b915050604083015184820360408601526153ba8282614e48565b915050606083015184820360608601526153d48282614f63565b915050608083015184820360808601526153ee8282615081565b91505060a083015184820360a08601526154088282615183565b91505060c083015184820360c0860152614c8382826152d9565b60608152600a60608201526929b2ba213cba32b9999960b11b608082015282602082015260a06040820152600061545c60a0830184615372565b949350505050565b60808152602660808201527f536574436c61696d61626c65436f6c6c61746572616c466163746f72466f724160a08201526518d8dbdd5b9d60d21b60c082015283602082015282604082015260e060608201526000614c8360e0830184615372565b9182526001600160a01b0316602082015260400190565b6000602082840312156154ef57600080fd5b815161494d816146a0565b60608152600a6060820152695365744164647265737360b01b608082015282602082015260a06040820152600061545c60a0830184615372565b60808152602360808201527f536574436c61696d61626c65436f6c6c61746572616c466163746f72466f725460a082015262696d6560e81b60c082015283602082015282604082015260e060608201526000614c8360e0830184615372565b60608152600760608201526614d95d155a5b9d60ca1b608082015282602082015260a06040820152600061545c60a0830184615372565b60608152600760608201526614d95d109bdbdb60ca1b608082015282602082015260a06040820152600061545c60a0830184615372565b634e487b7160e01b600052603260045260246000fd5b6000808335601e1984360301811261562e57600080fd5b8301803591506001600160401b0382111561564857600080fd5b60200191503681900382131561565d57600080fd5b9250929050565b8183823760009101908152919050565b634e487b7160e01b600052601160045260246000fd5b60006001820161569c5761569c615674565b5060010190565b808202811582820484141761173757611737615674565b6000826156d757634e487b7160e01b600052601260045260246000fd5b500490565b60408152601a60408201527924b734ba27b930b1b632a83937bb34b232b92337b92a37b5b2b760311b606082015260806020820152600061494d6080830184615372565b60208082526023908201527f444154415f53545245414d5f5350524541445f524544554354494f4e5f4641436040820152622a27a960e91b606082015260800190565b606081526013606082015272436f6e6669675365744461746153747265616d60681b608082015282602082015260a06040820152600061545c60a0830184615372565b60608152601260608201527110dbdb999a59d4d95d141c9a58d95199595960721b608082015282602082015260a06040820152600061545c60a0830184615372565b60608152600660608201526514d95d125b9d60d21b608082015282602082015260a06040820152600061545c60a0830184615372565b60608152602560608201527f536574506f736974696f6e496d70616374506f6f6c446973747269627574696f6080820152646e5261746560d81b60a082015282602082015260c06040820152600061545c60c0830184615372565b82815260008251615891816020850160208701614895565b919091016020019392505050565b6001600160a01b038316815260406020820181905260009061545c908301846148b9565b6020808252601b908201527a21a620a4a6a0a12622afa1a7a62620aa22a920a62fa320a1aa27a960291b604082015260600190565b6020808252601d908201527f4d41585f46554e44494e475f464143544f525f5045525f5345434f4e44000000604082015260600190565b6020808252601d908201527f4d494e5f46554e44494e475f464143544f525f5045525f5345434f4e44000000604082015260600190565b60208082526022908201527f46554e44494e475f494e4352454153455f464143544f525f5045525f5345434f604082015261139160f21b606082015260800190565b60208082526022908201527f46554e44494e475f44454352454153455f464143544f525f5045525f5345434f604082015261139160f21b606082015260800190565b60208082526010908201526f2127a92927aba4a723afa320a1aa27a960811b604082015260600190565b60208152600061494d60208301846148b9565b600060208284031215615a3957600080fd5b81516001600160401b03811115615a4f57600080fd5b8201601f81018413615a6057600080fd5b8051615a6e614601826145bb565b818152856020838501011115615a8357600080fd5b614c8382602083016020860161489556fe706f736974696f6e496d70616374506f6f6c446973747269627574696f6e52617465a264697066735822122032e87a7a204d64ac4cf892385a758e0b8e23333ffb1204171f037be3a49ae79e64736f6c63430008120033",
  "linkReferences": {
    "contracts/market/MarketUtils.sol": {
      "MarketUtils": [
        {
          "length": 20,
          "start": 29589
        }
      ]
    }
  },
  "deployedLinkReferences": {
    "contracts/market/MarketUtils.sol": {
      "MarketUtils": [
        {
          "length": 20,
          "start": 10158
        }
      ]
    }
  }
}