{
  "_format": "hh-sol-artifact-1",
  "contractName": "ContributorHandler",
  "sourceName": "contracts/contributor/ContributorHandler.sol",
  "abi": [
    {
      "inputs": [
        {
          "internalType": "contract RoleStore",
          "name": "_roleStore",
          "type": "address"
        },
        {
          "internalType": "contract DataStore",
          "name": "_dataStore",
          "type": "address"
        },
        {
          "internalType": "contract EventEmitter",
          "name": "_eventEmitter",
          "type": "address"
        }
      ],
      "stateMutability": "nonpayable",
      "type": "constructor"
    },
    {
      "inputs": [
        {
          "internalType": "address",
          "name": "token",
          "type": "address"
        }
      ],
      "name": "InvalidContributorToken",
      "type": "error"
    },
    {
      "inputs": [
        {
          "internalType": "uint256",
          "name": "tokensLength",
          "type": "uint256"
        },
        {
          "internalType": "uint256",
          "name": "amountsLength",
          "type": "uint256"
        }
      ],
      "name": "InvalidSetContributorPaymentInput",
      "type": "error"
    },
    {
      "inputs": [
        {
          "internalType": "uint256",
          "name": "tokensLength",
          "type": "uint256"
        },
        {
          "internalType": "uint256",
          "name": "amountsLength",
          "type": "uint256"
        }
      ],
      "name": "InvalidSetMaxTotalContributorTokenAmountInput",
      "type": "error"
    },
    {
      "inputs": [
        {
          "internalType": "address",
          "name": "token",
          "type": "address"
        },
        {
          "internalType": "uint256",
          "name": "totalAmount",
          "type": "uint256"
        },
        {
          "internalType": "uint256",
          "name": "maxTotalAmount",
          "type": "uint256"
        }
      ],
      "name": "MaxTotalContributorTokenAmountExceeded",
      "type": "error"
    },
    {
      "inputs": [
        {
          "internalType": "uint256",
          "name": "interval",
          "type": "uint256"
        }
      ],
      "name": "MinContributorPaymentIntervalBelowAllowedRange",
      "type": "error"
    },
    {
      "inputs": [
        {
          "internalType": "uint256",
          "name": "minPaymentInterval",
          "type": "uint256"
        }
      ],
      "name": "MinContributorPaymentIntervalNotYetPassed",
      "type": "error"
    },
    {
      "inputs": [
        {
          "internalType": "address",
          "name": "msgSender",
          "type": "address"
        },
        {
          "internalType": "string",
          "name": "role",
          "type": "string"
        }
      ],
      "name": "Unauthorized",
      "type": "error"
    },
    {
      "inputs": [
        {
          "internalType": "address",
          "name": "account",
          "type": "address"
        }
      ],
      "name": "addContributorAccount",
      "outputs": [],
      "stateMutability": "nonpayable",
      "type": "function"
    },
    {
      "inputs": [
        {
          "internalType": "address",
          "name": "token",
          "type": "address"
        }
      ],
      "name": "addContributorToken",
      "outputs": [],
      "stateMutability": "nonpayable",
      "type": "function"
    },
    {
      "inputs": [],
      "name": "dataStore",
      "outputs": [
        {
          "internalType": "contract DataStore",
          "name": "",
          "type": "address"
        }
      ],
      "stateMutability": "view",
      "type": "function"
    },
    {
      "inputs": [],
      "name": "eventEmitter",
      "outputs": [
        {
          "internalType": "contract EventEmitter",
          "name": "",
          "type": "address"
        }
      ],
      "stateMutability": "view",
      "type": "function"
    },
    {
      "inputs": [
        {
          "internalType": "bytes[]",
          "name": "data",
          "type": "bytes[]"
        }
      ],
      "name": "multicall",
      "outputs": [
        {
          "internalType": "bytes[]",
          "name": "results",
          "type": "bytes[]"
        }
      ],
      "stateMutability": "nonpayable",
      "type": "function"
    },
    {
      "inputs": [
        {
          "internalType": "address",
          "name": "account",
          "type": "address"
        }
      ],
      "name": "removeContributorAccount",
      "outputs": [],
      "stateMutability": "nonpayable",
      "type": "function"
    },
    {
      "inputs": [
        {
          "internalType": "address",
          "name": "token",
          "type": "address"
        }
      ],
      "name": "removeContributorToken",
      "outputs": [],
      "stateMutability": "nonpayable",
      "type": "function"
    },
    {
      "inputs": [],
      "name": "roleStore",
      "outputs": [
        {
          "internalType": "contract RoleStore",
          "name": "",
          "type": "address"
        }
      ],
      "stateMutability": "view",
      "type": "function"
    },
    {
      "inputs": [],
      "name": "sendPayments",
      "outputs": [],
      "stateMutability": "nonpayable",
      "type": "function"
    },
    {
      "inputs": [
        {
          "internalType": "address",
          "name": "account",
          "type": "address"
        },
        {
          "internalType": "address[]",
          "name": "tokens",
          "type": "address[]"
        },
        {
          "internalType": "uint256[]",
          "name": "amounts",
          "type": "uint256[]"
        }
      ],
      "name": "setContributorAmount",
      "outputs": [],
      "stateMutability": "nonpayable",
      "type": "function"
    },
    {
      "inputs": [
        {
          "internalType": "address",
          "name": "token",
          "type": "address"
        },
        {
          "internalType": "address",
          "name": "vault",
          "type": "address"
        }
      ],
      "name": "setContributorTokenVault",
      "outputs": [],
      "stateMutability": "nonpayable",
      "type": "function"
    },
    {
      "inputs": [
        {
          "internalType": "address[]",
          "name": "tokens",
          "type": "address[]"
        },
        {
          "internalType": "uint256[]",
          "name": "amounts",
          "type": "uint256[]"
        }
      ],
      "name": "setMaxTotalContributorTokenAmount",
      "outputs": [],
      "stateMutability": "nonpayable",
      "type": "function"
    },
    {
      "inputs": [
        {
          "internalType": "uint256",
          "name": "interval",
          "type": "uint256"
        }
      ],
      "name": "setMinContributorPaymentInterval",
      "outputs": [],
      "stateMutability": "nonpayable",
      "type": "function"
    }
  ],
  "bytecode": "0x60e06040523480156200001157600080fd5b50604051620034b8380380620034b8833981016040819052620000349162000070565b60016000556001600160a01b0392831660805290821660a0521660c052620000c4565b6001600160a01b03811681146200006d57600080fd5b50565b6000806000606084860312156200008657600080fd5b8351620000938162000057565b6020850151909350620000a68162000057565b6040850151909250620000b98162000057565b809150509250925092565b60805160a05160c051613308620001b06000396000818161017301528181610bf801526113c401526000818161011e015281816102870152818161039801528181610520015281816105d7015281816106bb0152818161077201528181610829015281816108e7015281816109ce01528181610a9201528181610cad01528181610ddb01528181610ea301528181611080015281816110d80152818161118201528181611272015281816114940152818161167001528181611727015281816117de0152818161189c015281816119ad0152611a6b01526000818160e1015261154501526133086000f3fe608060405234801561001057600080fd5b50600436106100af5760003560e01c80630f8c394b146100b457806349f6c644146100c95780634a4a7b04146100dc578063660d0d671461011957806369ad67651461014057806389d6d138146101485780638ed163551461015b5780639ff78c301461016e578063ac9650d814610195578063d18f9a8f146101b5578063d95205cf146101c8578063f32b56dc146101db578063f74b7613146101ee575b600080fd5b6100c76100c23660046121d2565b610201565b005b6100c76100d7366004612338565b610348565b6101037f000000000000000000000000000000000000000000000000000000000000000081565b604051610110919061239b565b60405180910390f35b6101037f000000000000000000000000000000000000000000000000000000000000000081565b6100c761048b565b6100c76101563660046123af565b610d79565b6100c76101693660046123d3565b610e87565b6101037f000000000000000000000000000000000000000000000000000000000000000081565b6101a86101a336600461240c565b610f45565b6040516101109190612525565b6100c76101c33660046123af565b611064565b6100c76101d63660046123af565b6110bc565b6100c76101e9366004612538565b611114565b6100c76101fc3660046123af565b611478565b6102096114d0565b61025960405160200161021b906125ad565b604051602081830303815290604052805190602001206040518060400160405280600a81526020016921a7a72a2927a62622a960b11b815250611529565b621a5e008110156102855760405163961b402560e01b8152600481018290526024015b60405180910390fd5b7f00000000000000000000000000000000000000000000000000000000000000006001600160a01b031663e2a4853a6040516020016102c3906125d1565b60405160208183030381529060405280519060200120836040518363ffffffff1660e01b81526004016102f7929190612606565b6020604051808303816000875af1158015610316573d6000803e3d6000fd5b505050506040513d601f19601f8201168201806040525081019061033a9190612614565b506103456001600055565b50565b6103506114d0565b61036260405160200161021b906125ad565b805182511461038a5781518151604051630a6a4f7160e21b815260040161027c929190612606565b60005b8251811015610474577f00000000000000000000000000000000000000000000000000000000000000006001600160a01b031663e2a4853a6103e78584815181106103da576103da61262d565b60200260200101516115d9565b8484815181106103f9576103f961262d565b60200260200101516040518363ffffffff1660e01b815260040161041e929190612606565b6020604051808303816000875af115801561043d573d6000803e3d6000fd5b505050506040513d601f19601f820116820180604052508101906104619190612614565b508061046c81612659565b91505061038d565b5061047d61166c565b6104876001600055565b5050565b6104936114d0565b61051c6040516020016104d19060208082526017908201527621a7a72a2924a12aaa27a92fa224a9aa2924a12aaa27a960491b604082015260600190565b604051602081830303815290604052805190602001206040518060400160405280601781526020017621a7a72a2924a12aaa27a92fa224a9aa2924a12aaa27a960491b815250611529565b60007f00000000000000000000000000000000000000000000000000000000000000006001600160a01b031663bd02d0f560405160200161055c90612672565b604051602081830303815290604052805190602001206040518263ffffffff1660e01b815260040161059091815260200190565b602060405180830381865afa1580156105ad573d6000803e3d6000fd5b505050506040513d601f19601f820116820180604052508101906105d19190612614565b905060007f00000000000000000000000000000000000000000000000000000000000000006001600160a01b031663bd02d0f5604051602001610613906125d1565b604051602081830303815290604052805190602001206040518263ffffffff1660e01b815260040161064791815260200190565b602060405180830381865afa158015610664573d6000803e3d6000fd5b505050506040513d601f19601f820116820180604052508101906106889190612614565b90504261069582846126a7565b11156106b75760405163b9dc7b9d60e01b81526004810182905260240161027c565b60007f00000000000000000000000000000000000000000000000000000000000000006001600160a01b03166335ea80596040516020016106f7906126ba565b604051602081830303815290604052805190602001206040518263ffffffff1660e01b815260040161072b91815260200190565b602060405180830381865afa158015610748573d6000803e3d6000fd5b505050506040513d601f19601f8201168201806040525081019061076c9190612614565b905060007f00000000000000000000000000000000000000000000000000000000000000006001600160a01b03166335ea80596040516020016107ae906126ea565b604051602081830303815290604052805190602001206040518263ffffffff1660e01b81526004016107e291815260200190565b602060405180830381865afa1580156107ff573d6000803e3d6000fd5b505050506040513d601f19601f820116820180604052508101906108239190612614565b905060007f00000000000000000000000000000000000000000000000000000000000000006001600160a01b031663e7e4148e604051602001610865906126ba565b604051602081830303815290604052805190602001206000866040518463ffffffff1660e01b815260040161089c9392919061271c565b600060405180830381865afa1580156108b9573d6000803e3d6000fd5b505050506040513d6000823e601f3d908101601f191682016040526108e19190810190612732565b905060007f00000000000000000000000000000000000000000000000000000000000000006001600160a01b031663e7e4148e604051602001610923906126ea565b604051602081830303815290604052805190602001206000866040518463ffffffff1660e01b815260040161095a9392919061271c565b600060405180830381865afa158015610977573d6000803e3d6000fd5b505050506040513d6000823e601f3d908101601f1916820160405261099f9190810190612732565b905060005b84811015610caa5760008382815181106109c0576109c061262d565b6020026020010151905060007f00000000000000000000000000000000000000000000000000000000000000006001600160a01b03166321f8a721610a0484611b58565b6040518263ffffffff1660e01b8152600401610a2291815260200190565b602060405180830381865afa158015610a3f573d6000803e3d6000fd5b505050506040513d601f19601f82011682018060405250810190610a6391906127c0565b905060005b86811015610c94576000858281518110610a8457610a8461262d565b6020026020010151905060007f00000000000000000000000000000000000000000000000000000000000000006001600160a01b031663bd02d0f5610ac98488611b95565b6040518263ffffffff1660e01b8152600401610ae791815260200190565b602060405180830381865afa158015610b04573d6000803e3d6000fd5b505050506040513d601f19601f82011682018060405250810190610b289190612614565b9050610b3f6001600160a01b038616858484611c29565b610b476120e1565b8051610b54906002611c89565b6040805180820190915260078152661858d8dbdd5b9d60ca1b60208201528151610b819160009086611cee565b6040805180820190915260058152643a37b5b2b760d91b60208201528151610bac9160019089611cee565b6020810151610bbc906001611c89565b610bf6600060405180604001604052806006815260200165185b5bdd5b9d60d21b815250848460200151611d4b909392919063ffffffff16565b7f00000000000000000000000000000000000000000000000000000000000000006001600160a01b03166324de01e4610c2e85611d9e565b836040518363ffffffff1660e01b8152600401610c4c9291906130a0565b600060405180830381600087803b158015610c6657600080fd5b505af1158015610c7a573d6000803e3d6000fd5b505050505050508080610c8c90612659565b915050610a68565b5050508080610ca290612659565b9150506109a4565b507f00000000000000000000000000000000000000000000000000000000000000006001600160a01b031663e2a4853a604051602001610ce990612672565b60405160208183030381529060405280519060200120610d064290565b6040518363ffffffff1660e01b8152600401610d23929190612606565b6020604051808303816000875af1158015610d42573d6000803e3d6000fd5b505050506040513d601f19601f82011682018060405250810190610d669190612614565b50505050505050610d776001600055565b565b610d816114d0565b610dd9604051602001610d93906130e6565b604051602081830303815290604052805190602001206040518060400160405280601281526020017121a7a72a2924a12aaa27a92fa5a2a2a822a960711b815250611529565b7f00000000000000000000000000000000000000000000000000000000000000006001600160a01b031663b348e639604051602001610e17906126ea565b60405160208183030381529060405280519060200120836040518363ffffffff1660e01b8152600401610e4b929190613112565b600060405180830381600087803b158015610e6557600080fd5b505af1158015610e79573d6000803e3d6000fd5b505050506103456001600055565b610e8f6114d0565b610ea1604051602001610d93906130e6565b7f00000000000000000000000000000000000000000000000000000000000000006001600160a01b031663ca446dd9610ed984611b58565b836040518363ffffffff1660e01b8152600401610ef7929190613112565b6020604051808303816000875af1158015610f16573d6000803e3d6000fd5b505050506040513d601f19601f82011682018060405250810190610f3a91906127c0565b506104876001600055565b6060816001600160401b03811115610f5f57610f5f6121eb565b604051908082528060200260200182016040528015610f9257816020015b6060815260200190600190039081610f7d5790505b50905060005b8281101561105c5760008030868685818110610fb657610fb661262d565b9050602002810190610fc89190613129565b604051610fd6929190613176565b600060405180830381855af49150503d8060008114611011576040519150601f19603f3d011682016040523d82523d6000602084013e611016565b606091505b5091509150816110295761102981611daa565b8084848151811061103c5761103c61262d565b60200260200101819052505050808061105490612659565b915050610f98565b505b92915050565b61106c6114d0565b61107e604051602001610d93906130e6565b7f00000000000000000000000000000000000000000000000000000000000000006001600160a01b03166369721d41604051602001610e17906126ba565b6110c46114d0565b6110d6604051602001610d93906130e6565b7f00000000000000000000000000000000000000000000000000000000000000006001600160a01b03166369721d41604051602001610e17906126ea565b61111c6114d0565b61112e604051602001610d93906130e6565b80518251146111565781518151604051630530b25960e41b815260040161027c929190612606565b60005b82518110156114605760008382815181106111765761117661262d565b602002602001015190507f00000000000000000000000000000000000000000000000000000000000000006001600160a01b031663c769d1a16040516020016111be906126ba565b60405160208183030381529060405280519060200120836040518363ffffffff1660e01b81526004016111f2929190613112565b602060405180830381865afa15801561120f573d6000803e3d6000fd5b505050506040513d601f19601f820116820180604052508101906112339190613186565b6112525780604051634a59130960e01b815260040161027c919061239b565b60008383815181106112665761126661262d565b602002602001015190507f00000000000000000000000000000000000000000000000000000000000000006001600160a01b031663e2a4853a6112a98885611b95565b836040518363ffffffff1660e01b81526004016112c7929190612606565b6020604051808303816000875af11580156112e6573d6000803e3d6000fd5b505050506040513d601f19601f8201168201806040525081019061130a9190612614565b506113136120e1565b8051611320906002611c89565b6040805180820190915260078152661858d8dbdd5b9d60ca1b6020820152815161134d916000908a611cee565b6040805180820190915260058152643a37b5b2b760d91b602082015281516113789160019086611cee565b6020810151611388906001611c89565b6113c2600060405180604001604052806006815260200165185b5bdd5b9d60d21b815250848460200151611d4b909392919063ffffffff16565b7f00000000000000000000000000000000000000000000000000000000000000006001600160a01b03166324de01e46113fa89611d9e565b836040518363ffffffff1660e01b81526004016114189291906131a8565b600060405180830381600087803b15801561143257600080fd5b505af1158015611446573d6000803e3d6000fd5b50505050505050808061145890612659565b915050611159565b5061146961166c565b6114736001600055565b505050565b6114806114d0565b611492604051602001610d93906130e6565b7f00000000000000000000000000000000000000000000000000000000000000006001600160a01b031663b348e639604051602001610e17906126ba565b6002600054036115225760405162461bcd60e51b815260206004820152601f60248201527f5265656e7472616e637947756172643a207265656e7472616e742063616c6c00604482015260640161027c565b6002600055565b60405163ac4ab3fb60e01b8152336004820152602481018390527f00000000000000000000000000000000000000000000000000000000000000006001600160a01b03169063ac4ab3fb90604401602060405180830381865afa158015611594573d6000803e3d6000fd5b505050506040513d601f19601f820116820180604052508101906115b89190613186565b61048757338160405163a35b150b60e01b815260040161027c9291906131ec565b60006040516020016116279060208082526022908201527f4d41585f544f54414c5f434f4e5452494255544f525f544f4b454e5f414d4f55604082015261139560f21b606082015260800190565b604051602081830303815290604052805190602001208260405160200161164f929190613112565b604051602081830303815290604052805190602001209050919050565b60007f00000000000000000000000000000000000000000000000000000000000000006001600160a01b03166335ea80596040516020016116ac906126ba565b604051602081830303815290604052805190602001206040518263ffffffff1660e01b81526004016116e091815260200190565b602060405180830381865afa1580156116fd573d6000803e3d6000fd5b505050506040513d601f19601f820116820180604052508101906117219190612614565b905060007f00000000000000000000000000000000000000000000000000000000000000006001600160a01b03166335ea8059604051602001611763906126ea565b604051602081830303815290604052805190602001206040518263ffffffff1660e01b815260040161179791815260200190565b602060405180830381865afa1580156117b4573d6000803e3d6000fd5b505050506040513d601f19601f820116820180604052508101906117d89190612614565b905060007f00000000000000000000000000000000000000000000000000000000000000006001600160a01b031663e7e4148e60405160200161181a906126ba565b604051602081830303815290604052805190602001206000866040518463ffffffff1660e01b81526004016118519392919061271c565b600060405180830381865afa15801561186e573d6000803e3d6000fd5b505050506040513d6000823e601f3d908101601f191682016040526118969190810190612732565b905060007f00000000000000000000000000000000000000000000000000000000000000006001600160a01b031663e7e4148e6040516020016118d8906126ea565b604051602081830303815290604052805190602001206000866040518463ffffffff1660e01b815260040161190f9392919061271c565b600060405180830381865afa15801561192c573d6000803e3d6000fd5b505050506040513d6000823e601f3d908101601f191682016040526119549190810190612732565b905060005b84811015611b515760008382815181106119755761197561262d565b602002602001015190506000805b86811015611a6657600085828151811061199f5761199f61262d565b6020026020010151905060007f00000000000000000000000000000000000000000000000000000000000000006001600160a01b031663bd02d0f56119e48488611b95565b6040518263ffffffff1660e01b8152600401611a0291815260200190565b602060405180830381865afa158015611a1f573d6000803e3d6000fd5b505050506040513d601f19601f82011682018060405250810190611a439190612614565b9050611a4f81856126a7565b935050508080611a5e90612659565b915050611983565b5060007f00000000000000000000000000000000000000000000000000000000000000006001600160a01b031663bd02d0f5611aa1856115d9565b6040518263ffffffff1660e01b8152600401611abf91815260200190565b602060405180830381865afa158015611adc573d6000803e3d6000fd5b505050506040513d601f19601f82011682018060405250810190611b009190612614565b905080821115611b3b576040516243038f60e41b81526001600160a01b0384166004820152602481018390526044810182905260640161027c565b5050508080611b4990612659565b915050611959565b5050505050565b60006040516020016116279060208082526017908201527610d3d395149250955513d497d513d2d15397d590555315604a1b604082015260600190565b6000604051602001611bd39060208082526018908201527710d3d395149250955513d497d513d2d15397d05353d5539560421b604082015260600190565b60408051601f198184030181528282528051602091820120908301526001600160a01b03808616918301919091528316606082015260800160405160208183030381529060405280519060200120905092915050565b604080516001600160a01b0385811660248301528416604482015260648082018490528251808303909101815260849091019091526020810180516001600160e01b03166323b872dd60e01b179052611c83908590611de3565b50505050565b806001600160401b03811115611ca157611ca16121eb565b604051908082528060200260200182016040528015611ce757816020015b604080518082019091526060815260006020820152815260200190600190039081611cbf5790505b5090915250565b8184600001518481518110611d0557611d0561262d565b6020026020010151600001819052508084600001518481518110611d2b57611d2b61262d565b6020908102919091018101516001600160a01b0390921691015250505050565b8184600001518481518110611d6257611d6261262d565b6020026020010151600001819052508084600001518481518110611d8857611d8861262d565b6020026020010151602001818152505050505050565b6001600160a01b031690565b600080611db683611eb8565b915091508015611dda578160405162461bcd60e51b815260040161027c9190613210565b61147383611f48565b6000611e38826040518060400160405280602081526020017f5361666545524332303a206c6f772d6c6576656c2063616c6c206661696c6564815250856001600160a01b0316611f519092919063ffffffff16565b9050805160001480611e59575080806020019051810190611e599190613186565b6114735760405162461bcd60e51b815260206004820152602a60248201527f5361666545524332303a204552433230206f7065726174696f6e20646964206e6044820152691bdd081cdd58d8d9595960b21b606482015260840161027c565b60606000604483511015611edf575050604080516020810190915260008082529092909150565b6000611eec846020015190565b90506307b9e43360e51b6001600160e01b0319821601611f2b5760048401935083806020019051810190611f209190613223565b946001945092505050565b600060405180602001604052806000815250909250925050915091565b80518060208301fd5b6060611f608484600085611f68565b949350505050565b606082471015611fc95760405162461bcd60e51b815260206004820152602660248201527f416464726573733a20696e73756666696369656e742062616c616e636520666f6044820152651c8818d85b1b60d21b606482015260840161027c565b600080866001600160a01b03168587604051611fe591906132b6565b60006040518083038185875af1925050503d8060008114612022576040519150601f19603f3d011682016040523d82523d6000602084013e612027565b606091505b509150915061203887838387612043565b979650505050505050565b606083156120b25782516000036120ab576001600160a01b0385163b6120ab5760405162461bcd60e51b815260206004820152601d60248201527f416464726573733a2063616c6c20746f206e6f6e2d636f6e7472616374000000604482015260640161027c565b5081611f60565b611f6083838151156120c75781518083602001fd5b8060405162461bcd60e51b815260040161027c9190613210565b604080516101208101909152606060e0820181815261010083019190915281908152602001612123604051806040016040528060608152602001606081525090565b8152602001612145604051806040016040528060608152602001606081525090565b8152602001612167604051806040016040528060608152602001606081525090565b8152602001612189604051806040016040528060608152602001606081525090565b81526020016121ab604051806040016040528060608152602001606081525090565b81526020016121cd604051806040016040528060608152602001606081525090565b905290565b6000602082840312156121e457600080fd5b5035919050565b634e487b7160e01b600052604160045260246000fd5b604051601f8201601f191681016001600160401b0381118282101715612229576122296121eb565b604052919050565b60006001600160401b0382111561224a5761224a6121eb565b5060051b60200190565b6001600160a01b038116811461034557600080fd5b600082601f83011261227a57600080fd5b8135602061228f61228a83612231565b612201565b82815260059290921b840181019181810190868411156122ae57600080fd5b8286015b848110156122d25780356122c581612254565b83529183019183016122b2565b509695505050505050565b600082601f8301126122ee57600080fd5b813560206122fe61228a83612231565b82815260059290921b8401810191818101908684111561231d57600080fd5b8286015b848110156122d25780358352918301918301612321565b6000806040838503121561234b57600080fd5b82356001600160401b038082111561236257600080fd5b61236e86838701612269565b9350602085013591508082111561238457600080fd5b50612391858286016122dd565b9150509250929050565b6001600160a01b0391909116815260200190565b6000602082840312156123c157600080fd5b81356123cc81612254565b9392505050565b600080604083850312156123e657600080fd5b82356123f181612254565b9150602083013561240181612254565b809150509250929050565b6000806020838503121561241f57600080fd5b82356001600160401b038082111561243657600080fd5b818501915085601f83011261244a57600080fd5b81358181111561245957600080fd5b8660208260051b850101111561246e57600080fd5b60209290920196919550909350505050565b60005b8381101561249b578181015183820152602001612483565b50506000910152565b600081518084526124bc816020860160208601612480565b601f01601f19169290920160200192915050565b600081518084526020808501808196508360051b8101915082860160005b858110156125185782840389526125068483516124a4565b988501989350908401906001016124ee565b5091979650505050505050565b6020815260006123cc60208301846124d0565b60008060006060848603121561254d57600080fd5b833561255881612254565b925060208401356001600160401b038082111561257457600080fd5b61258087838801612269565b9350604086013591508082111561259657600080fd5b506125a3868287016122dd565b9150509250925092565b6020808252600a908201526921a7a72a2927a62622a960b11b604082015260600190565b6020808252818101527f4d494e5f434f4e5452494255544f525f5041594d454e545f494e54455256414c604082015260600190565b918252602082015260400190565b60006020828403121561262657600080fd5b5051919050565b634e487b7160e01b600052603260045260246000fd5b634e487b7160e01b600052601160045260246000fd5b60006001820161266b5761266b612643565b5060010190565b6020808252601b908201527a10d3d395149250955513d497d31054d517d410565351539517d055602a1b604082015260600190565b8082018082111561105e5761105e612643565b60208082526016908201527510d3d395149250955513d497d513d2d15397d31254d560521b604082015260600190565b60208082526018908201527710d3d395149250955513d497d050d0d3d5539517d31254d560421b604082015260600190565b9283526020830191909152604082015260600190565b6000602080838503121561274557600080fd5b82516001600160401b0381111561275b57600080fd5b8301601f8101851361276c57600080fd5b805161277a61228a82612231565b81815260059190911b8201830190838101908783111561279957600080fd5b928401925b828410156120385783516127b181612254565b8252928401929084019061279e565b6000602082840312156127d257600080fd5b81516123cc81612254565b600081518084526020808501808196508360051b810191508286016000805b86811015612878578385038a5282516040815181885261281e828901826124a4565b92890151888403898b01528051808552908a01938693508a0191505b808310156128635783516001600160a01b0316825292890192600192909201919089019061283a565b509b88019b96505050918501916001016127fc565b509298975050505050505050565b60006040808401835182865281815180845260608801915060608160051b89010193506020808401935060005b828110156128fd57898603605f19018452845180518888526128d7898901826124a4565b918401516001600160a01b031697840197909752955093810193928101926001016128b3565b50808801519550888503818a01525050505061291981836127dd565b95945050505050565b600081518084526020808501808196508360051b810191508286016000805b86811015612878578385038a52825160408151818852612963828901826124a4565b92890151888403898b01528051808552908a01938693508a0191505b8083101561299f578351825292890192600192909201919089019061297f565b509b88019b9650505091850191600101612941565b60006040808401835182865281815180845260608801915060608160051b89010193506020808401935060005b82811015612a2257898603605f1901845284518051888852612a05898901826124a4565b9184015197840197909752955093810193928101926001016129e1565b50808801519550888503818a0152505050506129198183612922565b600081518084526020808501808196508360051b810191508286016000805b86811015612878578385038a52825160408151818852612a7f828901826124a4565b92890151888403898b01528051808552908a01938693508a0191505b80831015612abb5783518252928901926001929092019190890190612a9b565b509b88019b9650505091850191600101612a5d565b60006040808401835182865281815180845260608801915060608160051b89010193506020808401935060005b82811015612b3e57898603605f1901845284518051888852612b21898901826124a4565b918401519784019790975295509381019392810192600101612afd565b50808801519550888503818a0152505050506129198183612a3e565b600081518084526020808501808196508360051b810191508286016000805b86811015612878578385038a52825160408151818852612b9b828901826124a4565b92890151888403898b01528051808552908a01938693508a0191505b80831015612bd957835115158252928901926001929092019190890190612bb7565b509b88019b9650505091850191600101612b79565b60006040808401835182865281815180845260608801915060608160051b89010193506020808401935060005b82811015612c5e57898603605f1901845284518051888852612c3f898901826124a4565b9184015115159784019790975295509381019392810192600101612c1b565b50808801519550888503818a0152505050506129198183612b5a565b600081518084526020808501808196508360051b810191508286016000805b86811015612878578385038a52825160408151818852612cbb828901826124a4565b92890151888403898b01528051808552908a01938693508a0191505b80831015612cf75783518252928901926001929092019190890190612cd7565b509b88019b9650505091850191600101612c99565b60006040808401835182865281815180845260608801915060608160051b89010193506020808401935060005b82811015612d7a57898603605f1901845284518051888852612d5d898901826124a4565b918401519784019790975295509381019392810192600101612d39565b50808801519550888503818a0152505050506129198183612c7a565b600081518084526020808501808196508360051b8101915082860160005b85811015612518578284038952815160408151818752612dd6828801826124a4565b91505086820151915085810387870152612df081836124d0565b9a87019a9550505090840190600101612db4565b60006040808401835182865281815180845260608801915060608160051b89010193506020808401935060005b82811015612e8157898603605f1901845284518051888852612e55898901826124a4565b9184015188830389860152919050612e6d81836124a4565b975050509381019392810192600101612e31565b50808801519550888503818a0152505050506129198183612d96565b600081518084526020808501808196506005915083821b81018387016000805b87811015612f48578484038b52825160408151818752612edf828801826124a4565b928a0151878403888c01528051808552908b019392508a83019150808a1b83018b01865b82811015612f3157601f19858303018452612f1f8287516124a4565b958d0195938d01939150600101612f03565b509e8b019e97505050938801935050600101612ebd565b50919998505050505050505050565b60006040808401835182865281815180845260608801915060608160051b89010193506020808401935060005b82811015612fd457898603605f1901845284518051888852612fa8898901826124a4565b9184015188830389860152919050612fc081836124a4565b975050509381019392810192600101612f84565b50808801519550888503818a0152505050506129198183612e9d565b6000815160e0845261300560e0850182612886565b90506020830151848203602086015261301e82826129b4565b915050604083015184820360408601526130388282612ad0565b915050606083015184820360608601526130528282612bee565b9150506080830151848203608086015261306c8282612d0c565b91505060a083015184820360a08601526130868282612e04565b91505060c083015184820360c08601526129198282612f57565b60608152601660608201527514d95b9910dbdb9d1c9a589d5d1bdc94185e5b595b9d60521b608082015282602082015260a060408201526000611f6060a0830184612ff0565b60208082526012908201527121a7a72a2924a12aaa27a92fa5a2a2a822a960711b604082015260600190565b9182526001600160a01b0316602082015260400190565b6000808335601e1984360301811261314057600080fd5b8301803591506001600160401b0382111561315a57600080fd5b60200191503681900382131561316f57600080fd5b9250929050565b8183823760009101908152919050565b60006020828403121561319857600080fd5b815180151581146123cc57600080fd5b60608152601460608201527314d95d10dbdb9d1c9a589d5d1bdc905b5bdd5b9d60621b608082015282602082015260a060408201526000611f6060a0830184612ff0565b6001600160a01b0383168152604060208201819052600090611f60908301846124a4565b6020815260006123cc60208301846124a4565b60006020828403121561323557600080fd5b81516001600160401b038082111561324c57600080fd5b818401915084601f83011261326057600080fd5b815181811115613272576132726121eb565b613285601f8201601f1916602001612201565b915080825285602082850101111561329c57600080fd5b6132ad816020840160208601612480565b50949350505050565b600082516132c8818460208701612480565b919091019291505056fea264697066735822122086cde2e6879158f87e6267a8ac4e9647aa0c60e375ad4b6ddafdd3fe8a9a931d64736f6c63430008140033",
  "linkReferences": {},
  "deployedLinkReferences": {}
}