{
  "_format": "hh-sol-artifact-1",
  "contractName": "ContributorHandler",
  "sourceName": "contracts/contributor/ContributorHandler.sol",
  "abi": [
    {
      "inputs": [
        {
          "internalType": "contract RoleStore",
          "name": "_roleStore",
          "type": "address"
        },
        {
          "internalType": "contract DataStore",
          "name": "_dataStore",
          "type": "address"
        },
        {
          "internalType": "contract EventEmitter",
          "name": "_eventEmitter",
          "type": "address"
        }
      ],
      "stateMutability": "nonpayable",
      "type": "constructor"
    },
    {
      "inputs": [
        {
          "internalType": "address",
          "name": "token",
          "type": "address"
        }
      ],
      "name": "InvalidContributorToken",
      "type": "error"
    },
    {
      "inputs": [
        {
          "internalType": "uint256",
          "name": "tokensLength",
          "type": "uint256"
        },
        {
          "internalType": "uint256",
          "name": "amountsLength",
          "type": "uint256"
        }
      ],
      "name": "InvalidSetContributorPaymentInput",
      "type": "error"
    },
    {
      "inputs": [
        {
          "internalType": "uint256",
          "name": "tokensLength",
          "type": "uint256"
        },
        {
          "internalType": "uint256",
          "name": "amountsLength",
          "type": "uint256"
        }
      ],
      "name": "InvalidSetMaxTotalContributorTokenAmountInput",
      "type": "error"
    },
    {
      "inputs": [
        {
          "internalType": "address",
          "name": "token",
          "type": "address"
        },
        {
          "internalType": "uint256",
          "name": "totalAmount",
          "type": "uint256"
        },
        {
          "internalType": "uint256",
          "name": "maxTotalAmount",
          "type": "uint256"
        }
      ],
      "name": "MaxTotalContributorTokenAmountExceeded",
      "type": "error"
    },
    {
      "inputs": [
        {
          "internalType": "uint256",
          "name": "interval",
          "type": "uint256"
        }
      ],
      "name": "MinContributorPaymentIntervalBelowAllowedRange",
      "type": "error"
    },
    {
      "inputs": [
        {
          "internalType": "uint256",
          "name": "minPaymentInterval",
          "type": "uint256"
        }
      ],
      "name": "MinContributorPaymentIntervalNotYetPassed",
      "type": "error"
    },
    {
      "inputs": [
        {
          "internalType": "address",
          "name": "msgSender",
          "type": "address"
        },
        {
          "internalType": "string",
          "name": "role",
          "type": "string"
        }
      ],
      "name": "Unauthorized",
      "type": "error"
    },
    {
      "inputs": [
        {
          "internalType": "address",
          "name": "account",
          "type": "address"
        }
      ],
      "name": "addContributorAccount",
      "outputs": [],
      "stateMutability": "nonpayable",
      "type": "function"
    },
    {
      "inputs": [
        {
          "internalType": "address",
          "name": "token",
          "type": "address"
        }
      ],
      "name": "addContributorToken",
      "outputs": [],
      "stateMutability": "nonpayable",
      "type": "function"
    },
    {
      "inputs": [],
      "name": "dataStore",
      "outputs": [
        {
          "internalType": "contract DataStore",
          "name": "",
          "type": "address"
        }
      ],
      "stateMutability": "view",
      "type": "function"
    },
    {
      "inputs": [],
      "name": "eventEmitter",
      "outputs": [
        {
          "internalType": "contract EventEmitter",
          "name": "",
          "type": "address"
        }
      ],
      "stateMutability": "view",
      "type": "function"
    },
    {
      "inputs": [
        {
          "internalType": "bytes[]",
          "name": "data",
          "type": "bytes[]"
        }
      ],
      "name": "multicall",
      "outputs": [
        {
          "internalType": "bytes[]",
          "name": "results",
          "type": "bytes[]"
        }
      ],
      "stateMutability": "nonpayable",
      "type": "function"
    },
    {
      "inputs": [
        {
          "internalType": "address",
          "name": "account",
          "type": "address"
        }
      ],
      "name": "removeContributorAccount",
      "outputs": [],
      "stateMutability": "nonpayable",
      "type": "function"
    },
    {
      "inputs": [
        {
          "internalType": "address",
          "name": "token",
          "type": "address"
        }
      ],
      "name": "removeContributorToken",
      "outputs": [],
      "stateMutability": "nonpayable",
      "type": "function"
    },
    {
      "inputs": [],
      "name": "roleStore",
      "outputs": [
        {
          "internalType": "contract RoleStore",
          "name": "",
          "type": "address"
        }
      ],
      "stateMutability": "view",
      "type": "function"
    },
    {
      "inputs": [],
      "name": "sendPayments",
      "outputs": [],
      "stateMutability": "nonpayable",
      "type": "function"
    },
    {
      "inputs": [
        {
          "internalType": "address",
          "name": "account",
          "type": "address"
        },
        {
          "internalType": "address[]",
          "name": "tokens",
          "type": "address[]"
        },
        {
          "internalType": "uint256[]",
          "name": "amounts",
          "type": "uint256[]"
        }
      ],
      "name": "setContributorAmount",
      "outputs": [],
      "stateMutability": "nonpayable",
      "type": "function"
    },
    {
      "inputs": [
        {
          "internalType": "address",
          "name": "token",
          "type": "address"
        },
        {
          "internalType": "address",
          "name": "vault",
          "type": "address"
        }
      ],
      "name": "setContributorTokenVault",
      "outputs": [],
      "stateMutability": "nonpayable",
      "type": "function"
    },
    {
      "inputs": [
        {
          "internalType": "address[]",
          "name": "tokens",
          "type": "address[]"
        },
        {
          "internalType": "uint256[]",
          "name": "amounts",
          "type": "uint256[]"
        }
      ],
      "name": "setMaxTotalContributorTokenAmount",
      "outputs": [],
      "stateMutability": "nonpayable",
      "type": "function"
    },
    {
      "inputs": [
        {
          "internalType": "uint256",
          "name": "interval",
          "type": "uint256"
        }
      ],
      "name": "setMinContributorPaymentInterval",
      "outputs": [],
      "stateMutability": "nonpayable",
      "type": "function"
    }
  ],
  "bytecode": "0x60e06040523480156200001157600080fd5b506040516200351638038062003516833981016040819052620000349162000070565b60016000556001600160a01b0392831660805290821660a0521660c052620000c4565b6001600160a01b03811681146200006d57600080fd5b50565b6000806000606084860312156200008657600080fd5b8351620000938162000057565b6020850151909350620000a68162000057565b6040850151909250620000b98162000057565b809150509250925092565b60805160a05160c051613366620001b06000396000818161017301528181610bf7015261141b01526000818161011e0152818161028e0152818161039f0152818161051f015281816105d6015281816106ba0152818161077101528181610828015281816108e6015281816109cd01528181610a9101528181610cac01528181610dda01528181610f05015281816110d70152818161112f015281816111d9015281816112c9015281816114eb0152818161195201528181611a0901528181611ac001528181611b7e01528181611c8f0152611d4d01526000818160e1015261159c01526133666000f3fe608060405234801561001057600080fd5b50600436106100af5760003560e01c80630f8c394b146100b457806349f6c644146100c95780634a4a7b04146100dc578063660d0d671461011957806369ad67651461014057806389d6d138146101485780638ed163551461015b5780639ff78c301461016e578063ac9650d814610195578063d18f9a8f146101b5578063d95205cf146101c8578063f32b56dc146101db578063f74b7613146101ee575b600080fd5b6100c76100c2366004612229565b610201565b005b6100c76100d736600461238f565b61034f565b6101037f000000000000000000000000000000000000000000000000000000000000000081565b60405161011091906123f2565b60405180910390f35b6101037f000000000000000000000000000000000000000000000000000000000000000081565b6100c761048a565b6100c7610156366004612406565b610d78565b6100c761016936600461242a565b610e86565b6101037f000000000000000000000000000000000000000000000000000000000000000081565b6101a86101a3366004612463565b610f9c565b604051610110919061257c565b6100c76101c3366004612406565b6110bb565b6100c76101d6366004612406565b611113565b6100c76101e936600461258f565b61116b565b6100c76101fc366004612406565b6114cf565b610209611527565b61026060405160200161021b90612604565b604051602081830303815290604052805190602001206040518060400160405280601181526020017054494d454c4f434b5f4d554c544953494760781b815250611580565b621a5e0081101561028c5760405163961b402560e01b8152600481018290526024015b60405180910390fd5b7f00000000000000000000000000000000000000000000000000000000000000006001600160a01b031663e2a4853a6040516020016102ca9061262f565b60405160208183030381529060405280519060200120836040518363ffffffff1660e01b81526004016102fe929190612664565b6020604051808303816000875af115801561031d573d6000803e3d6000fd5b505050506040513d601f19601f820116820180604052508101906103419190612672565b5061034c6001600055565b50565b610357611527565b61036960405160200161021b90612604565b80518251146103915781518151604051630a6a4f7160e21b8152600401610283929190612664565b60005b825181101561047b577f00000000000000000000000000000000000000000000000000000000000000006001600160a01b031663e2a4853a6103ee8584815181106103e1576103e161268b565b6020026020010151611630565b8484815181106104005761040061268b565b60200260200101516040518363ffffffff1660e01b8152600401610425929190612664565b6020604051808303816000875af1158015610444573d6000803e3d6000fd5b505050506040513d601f19601f820116820180604052508101906104689190612672565b5080610473816126b7565b915050610394565b506104866001600055565b5050565b610492611527565b61051b6040516020016104d09060208082526017908201527621a7a72a2924a12aaa27a92fa224a9aa2924a12aaa27a960491b604082015260600190565b604051602081830303815290604052805190602001206040518060400160405280601781526020017621a7a72a2924a12aaa27a92fa224a9aa2924a12aaa27a960491b815250611580565b60007f00000000000000000000000000000000000000000000000000000000000000006001600160a01b031663bd02d0f560405160200161055b906126d0565b604051602081830303815290604052805190602001206040518263ffffffff1660e01b815260040161058f91815260200190565b602060405180830381865afa1580156105ac573d6000803e3d6000fd5b505050506040513d601f19601f820116820180604052508101906105d09190612672565b905060007f00000000000000000000000000000000000000000000000000000000000000006001600160a01b031663bd02d0f56040516020016106129061262f565b604051602081830303815290604052805190602001206040518263ffffffff1660e01b815260040161064691815260200190565b602060405180830381865afa158015610663573d6000803e3d6000fd5b505050506040513d601f19601f820116820180604052508101906106879190612672565b9050426106948284612705565b11156106b65760405163b9dc7b9d60e01b815260048101829052602401610283565b60007f00000000000000000000000000000000000000000000000000000000000000006001600160a01b03166335ea80596040516020016106f690612718565b604051602081830303815290604052805190602001206040518263ffffffff1660e01b815260040161072a91815260200190565b602060405180830381865afa158015610747573d6000803e3d6000fd5b505050506040513d601f19601f8201168201806040525081019061076b9190612672565b905060007f00000000000000000000000000000000000000000000000000000000000000006001600160a01b03166335ea80596040516020016107ad90612748565b604051602081830303815290604052805190602001206040518263ffffffff1660e01b81526004016107e191815260200190565b602060405180830381865afa1580156107fe573d6000803e3d6000fd5b505050506040513d601f19601f820116820180604052508101906108229190612672565b905060007f00000000000000000000000000000000000000000000000000000000000000006001600160a01b031663e7e4148e60405160200161086490612718565b604051602081830303815290604052805190602001206000866040518463ffffffff1660e01b815260040161089b9392919061277a565b600060405180830381865afa1580156108b8573d6000803e3d6000fd5b505050506040513d6000823e601f3d908101601f191682016040526108e09190810190612790565b905060007f00000000000000000000000000000000000000000000000000000000000000006001600160a01b031663e7e4148e60405160200161092290612748565b604051602081830303815290604052805190602001206000866040518463ffffffff1660e01b81526004016109599392919061277a565b600060405180830381865afa158015610976573d6000803e3d6000fd5b505050506040513d6000823e601f3d908101601f1916820160405261099e9190810190612790565b905060005b84811015610ca95760008382815181106109bf576109bf61268b565b6020026020010151905060007f00000000000000000000000000000000000000000000000000000000000000006001600160a01b03166321f8a721610a03846116c3565b6040518263ffffffff1660e01b8152600401610a2191815260200190565b602060405180830381865afa158015610a3e573d6000803e3d6000fd5b505050506040513d601f19601f82011682018060405250810190610a62919061281e565b905060005b86811015610c93576000858281518110610a8357610a8361268b565b6020026020010151905060007f00000000000000000000000000000000000000000000000000000000000000006001600160a01b031663bd02d0f5610ac88488611700565b6040518263ffffffff1660e01b8152600401610ae691815260200190565b602060405180830381865afa158015610b03573d6000803e3d6000fd5b505050506040513d601f19601f82011682018060405250810190610b279190612672565b9050610b3e6001600160a01b038616858484611794565b610b46612138565b8051610b539060026117f4565b6040805180820190915260078152661858d8dbdd5b9d60ca1b60208201528151610b809160009086611859565b6040805180820190915260058152643a37b5b2b760d91b60208201528151610bab9160019089611859565b6020810151610bbb9060016117f4565b610bf5600060405180604001604052806006815260200165185b5bdd5b9d60d21b8152508484602001516118b6909392919063ffffffff16565b7f00000000000000000000000000000000000000000000000000000000000000006001600160a01b03166324de01e4610c2d85611909565b836040518363ffffffff1660e01b8152600401610c4b9291906130fe565b600060405180830381600087803b158015610c6557600080fd5b505af1158015610c79573d6000803e3d6000fd5b505050505050508080610c8b906126b7565b915050610a67565b5050508080610ca1906126b7565b9150506109a3565b507f00000000000000000000000000000000000000000000000000000000000000006001600160a01b031663e2a4853a604051602001610ce8906126d0565b60405160208183030381529060405280519060200120610d054290565b6040518363ffffffff1660e01b8152600401610d22929190612664565b6020604051808303816000875af1158015610d41573d6000803e3d6000fd5b505050506040513d601f19601f82011682018060405250810190610d659190612672565b50505050505050610d766001600055565b565b610d80611527565b610dd8604051602001610d9290613144565b604051602081830303815290604052805190602001206040518060400160405280601281526020017121a7a72a2924a12aaa27a92fa5a2a2a822a960711b815250611580565b7f00000000000000000000000000000000000000000000000000000000000000006001600160a01b031663b348e639604051602001610e1690612748565b60405160208183030381529060405280519060200120836040518363ffffffff1660e01b8152600401610e4a929190613170565b600060405180830381600087803b158015610e6457600080fd5b505af1158015610e78573d6000803e3d6000fd5b5050505061034c6001600055565b610e8e611527565b610f03604051602001610ec2906020808252600d908201526c21a7a72324a3afa5a2a2a822a960991b604082015260600190565b604051602081830303815290604052805190602001206040518060400160405280600d81526020016c21a7a72324a3afa5a2a2a822a960991b815250611580565b7f00000000000000000000000000000000000000000000000000000000000000006001600160a01b031663ca446dd9610f3b846116c3565b836040518363ffffffff1660e01b8152600401610f59929190613170565b6020604051808303816000875af1158015610f78573d6000803e3d6000fd5b505050506040513d601f19601f8201168201806040525081019061047b919061281e565b6060816001600160401b03811115610fb657610fb6612242565b604051908082528060200260200182016040528015610fe957816020015b6060815260200190600190039081610fd45790505b50905060005b828110156110b3576000803086868581811061100d5761100d61268b565b905060200281019061101f9190613187565b60405161102d9291906131d4565b600060405180830381855af49150503d8060008114611068576040519150601f19603f3d011682016040523d82523d6000602084013e61106d565b606091505b5091509150816110805761108081611915565b808484815181106110935761109361268b565b6020026020010181905250505080806110ab906126b7565b915050610fef565b505b92915050565b6110c3611527565b6110d5604051602001610d9290613144565b7f00000000000000000000000000000000000000000000000000000000000000006001600160a01b03166369721d41604051602001610e1690612718565b61111b611527565b61112d604051602001610d9290613144565b7f00000000000000000000000000000000000000000000000000000000000000006001600160a01b03166369721d41604051602001610e1690612748565b611173611527565b611185604051602001610d9290613144565b80518251146111ad5781518151604051630530b25960e41b8152600401610283929190612664565b60005b82518110156114b75760008382815181106111cd576111cd61268b565b602002602001015190507f00000000000000000000000000000000000000000000000000000000000000006001600160a01b031663c769d1a160405160200161121590612718565b60405160208183030381529060405280519060200120836040518363ffffffff1660e01b8152600401611249929190613170565b602060405180830381865afa158015611266573d6000803e3d6000fd5b505050506040513d601f19601f8201168201806040525081019061128a91906131e4565b6112a95780604051634a59130960e01b815260040161028391906123f2565b60008383815181106112bd576112bd61268b565b602002602001015190507f00000000000000000000000000000000000000000000000000000000000000006001600160a01b031663e2a4853a6113008885611700565b836040518363ffffffff1660e01b815260040161131e929190612664565b6020604051808303816000875af115801561133d573d6000803e3d6000fd5b505050506040513d601f19601f820116820180604052508101906113619190612672565b5061136a612138565b80516113779060026117f4565b6040805180820190915260078152661858d8dbdd5b9d60ca1b602082015281516113a4916000908a611859565b6040805180820190915260058152643a37b5b2b760d91b602082015281516113cf9160019086611859565b60208101516113df9060016117f4565b611419600060405180604001604052806006815260200165185b5bdd5b9d60d21b8152508484602001516118b6909392919063ffffffff16565b7f00000000000000000000000000000000000000000000000000000000000000006001600160a01b03166324de01e461145189611909565b836040518363ffffffff1660e01b815260040161146f929190613206565b600060405180830381600087803b15801561148957600080fd5b505af115801561149d573d6000803e3d6000fd5b5050505050505080806114af906126b7565b9150506111b0565b506114c061194e565b6114ca6001600055565b505050565b6114d7611527565b6114e9604051602001610d9290613144565b7f00000000000000000000000000000000000000000000000000000000000000006001600160a01b031663b348e639604051602001610e1690612718565b6002600054036115795760405162461bcd60e51b815260206004820152601f60248201527f5265656e7472616e637947756172643a207265656e7472616e742063616c6c006044820152606401610283565b6002600055565b60405163ac4ab3fb60e01b8152336004820152602481018390527f00000000000000000000000000000000000000000000000000000000000000006001600160a01b03169063ac4ab3fb90604401602060405180830381865afa1580156115eb573d6000803e3d6000fd5b505050506040513d601f19601f8201168201806040525081019061160f91906131e4565b61048657338160405163a35b150b60e01b815260040161028392919061324a565b600060405160200161167e9060208082526022908201527f4d41585f544f54414c5f434f4e5452494255544f525f544f4b454e5f414d4f55604082015261139560f21b606082015260800190565b60405160208183030381529060405280519060200120826040516020016116a6929190613170565b604051602081830303815290604052805190602001209050919050565b600060405160200161167e9060208082526017908201527610d3d395149250955513d497d513d2d15397d590555315604a1b604082015260600190565b600060405160200161173e9060208082526018908201527710d3d395149250955513d497d513d2d15397d05353d5539560421b604082015260600190565b60408051601f198184030181528282528051602091820120908301526001600160a01b03808616918301919091528316606082015260800160405160208183030381529060405280519060200120905092915050565b604080516001600160a01b0385811660248301528416604482015260648082018490528251808303909101815260849091019091526020810180516001600160e01b03166323b872dd60e01b1790526117ee908590611e3a565b50505050565b806001600160401b0381111561180c5761180c612242565b60405190808252806020026020018201604052801561185257816020015b60408051808201909152606081526000602082015281526020019060019003908161182a5790505b5090915250565b81846000015184815181106118705761187061268b565b60200260200101516000018190525080846000015184815181106118965761189661268b565b6020908102919091018101516001600160a01b0390921691015250505050565b81846000015184815181106118cd576118cd61268b565b60200260200101516000018190525080846000015184815181106118f3576118f361268b565b6020026020010151602001818152505050505050565b6001600160a01b031690565b60008061192183611f0f565b915091508015611945578160405162461bcd60e51b8152600401610283919061326e565b6114ca83611f9f565b60007f00000000000000000000000000000000000000000000000000000000000000006001600160a01b03166335ea805960405160200161198e90612718565b604051602081830303815290604052805190602001206040518263ffffffff1660e01b81526004016119c291815260200190565b602060405180830381865afa1580156119df573d6000803e3d6000fd5b505050506040513d601f19601f82011682018060405250810190611a039190612672565b905060007f00000000000000000000000000000000000000000000000000000000000000006001600160a01b03166335ea8059604051602001611a4590612748565b604051602081830303815290604052805190602001206040518263ffffffff1660e01b8152600401611a7991815260200190565b602060405180830381865afa158015611a96573d6000803e3d6000fd5b505050506040513d601f19601f82011682018060405250810190611aba9190612672565b905060007f00000000000000000000000000000000000000000000000000000000000000006001600160a01b031663e7e4148e604051602001611afc90612718565b604051602081830303815290604052805190602001206000866040518463ffffffff1660e01b8152600401611b339392919061277a565b600060405180830381865afa158015611b50573d6000803e3d6000fd5b505050506040513d6000823e601f3d908101601f19168201604052611b789190810190612790565b905060007f00000000000000000000000000000000000000000000000000000000000000006001600160a01b031663e7e4148e604051602001611bba90612748565b604051602081830303815290604052805190602001206000866040518463ffffffff1660e01b8152600401611bf19392919061277a565b600060405180830381865afa158015611c0e573d6000803e3d6000fd5b505050506040513d6000823e601f3d908101601f19168201604052611c369190810190612790565b905060005b84811015611e33576000838281518110611c5757611c5761268b565b602002602001015190506000805b86811015611d48576000858281518110611c8157611c8161268b565b6020026020010151905060007f00000000000000000000000000000000000000000000000000000000000000006001600160a01b031663bd02d0f5611cc68488611700565b6040518263ffffffff1660e01b8152600401611ce491815260200190565b602060405180830381865afa158015611d01573d6000803e3d6000fd5b505050506040513d601f19601f82011682018060405250810190611d259190612672565b9050611d318185612705565b935050508080611d40906126b7565b915050611c65565b5060007f00000000000000000000000000000000000000000000000000000000000000006001600160a01b031663bd02d0f5611d8385611630565b6040518263ffffffff1660e01b8152600401611da191815260200190565b602060405180830381865afa158015611dbe573d6000803e3d6000fd5b505050506040513d601f19601f82011682018060405250810190611de29190612672565b905080821115611e1d576040516243038f60e41b81526001600160a01b03841660048201526024810183905260448101829052606401610283565b5050508080611e2b906126b7565b915050611c3b565b5050505050565b6000611e8f826040518060400160405280602081526020017f5361666545524332303a206c6f772d6c6576656c2063616c6c206661696c6564815250856001600160a01b0316611fa89092919063ffffffff16565b9050805160001480611eb0575080806020019051810190611eb091906131e4565b6114ca5760405162461bcd60e51b815260206004820152602a60248201527f5361666545524332303a204552433230206f7065726174696f6e20646964206e6044820152691bdd081cdd58d8d9595960b21b6064820152608401610283565b60606000604483511015611f36575050604080516020810190915260008082529092909150565b6000611f43846020015190565b90506307b9e43360e51b6001600160e01b0319821601611f825760048401935083806020019051810190611f779190613281565b946001945092505050565b600060405180602001604052806000815250909250925050915091565b80518060208301fd5b6060611fb78484600085611fbf565b949350505050565b6060824710156120205760405162461bcd60e51b815260206004820152602660248201527f416464726573733a20696e73756666696369656e742062616c616e636520666f6044820152651c8818d85b1b60d21b6064820152608401610283565b600080866001600160a01b0316858760405161203c9190613314565b60006040518083038185875af1925050503d8060008114612079576040519150601f19603f3d011682016040523d82523d6000602084013e61207e565b606091505b509150915061208f8783838761209a565b979650505050505050565b60608315612109578251600003612102576001600160a01b0385163b6121025760405162461bcd60e51b815260206004820152601d60248201527f416464726573733a2063616c6c20746f206e6f6e2d636f6e74726163740000006044820152606401610283565b5081611fb7565b611fb7838381511561211e5781518083602001fd5b8060405162461bcd60e51b8152600401610283919061326e565b604080516101208101909152606060e082018181526101008301919091528190815260200161217a604051806040016040528060608152602001606081525090565b815260200161219c604051806040016040528060608152602001606081525090565b81526020016121be604051806040016040528060608152602001606081525090565b81526020016121e0604051806040016040528060608152602001606081525090565b8152602001612202604051806040016040528060608152602001606081525090565b8152602001612224604051806040016040528060608152602001606081525090565b905290565b60006020828403121561223b57600080fd5b5035919050565b634e487b7160e01b600052604160045260246000fd5b604051601f8201601f191681016001600160401b038111828210171561228057612280612242565b604052919050565b60006001600160401b038211156122a1576122a1612242565b5060051b60200190565b6001600160a01b038116811461034c57600080fd5b600082601f8301126122d157600080fd5b813560206122e66122e183612288565b612258565b82815260059290921b8401810191818101908684111561230557600080fd5b8286015b8481101561232957803561231c816122ab565b8352918301918301612309565b509695505050505050565b600082601f83011261234557600080fd5b813560206123556122e183612288565b82815260059290921b8401810191818101908684111561237457600080fd5b8286015b848110156123295780358352918301918301612378565b600080604083850312156123a257600080fd5b82356001600160401b03808211156123b957600080fd5b6123c5868387016122c0565b935060208501359150808211156123db57600080fd5b506123e885828601612334565b9150509250929050565b6001600160a01b0391909116815260200190565b60006020828403121561241857600080fd5b8135612423816122ab565b9392505050565b6000806040838503121561243d57600080fd5b8235612448816122ab565b91506020830135612458816122ab565b809150509250929050565b6000806020838503121561247657600080fd5b82356001600160401b038082111561248d57600080fd5b818501915085601f8301126124a157600080fd5b8135818111156124b057600080fd5b8660208260051b85010111156124c557600080fd5b60209290920196919550909350505050565b60005b838110156124f25781810151838201526020016124da565b50506000910152565b600081518084526125138160208601602086016124d7565b601f01601f19169290920160200192915050565b600081518084526020808501808196508360051b8101915082860160005b8581101561256f57828403895261255d8483516124fb565b98850198935090840190600101612545565b5091979650505050505050565b6020815260006124236020830184612527565b6000806000606084860312156125a457600080fd5b83356125af816122ab565b925060208401356001600160401b03808211156125cb57600080fd5b6125d7878388016122c0565b935060408601359150808211156125ed57600080fd5b506125fa86828701612334565b9150509250925092565b60208082526011908201527054494d454c4f434b5f4d554c544953494760781b604082015260600190565b6020808252818101527f4d494e5f434f4e5452494255544f525f5041594d454e545f494e54455256414c604082015260600190565b918252602082015260400190565b60006020828403121561268457600080fd5b5051919050565b634e487b7160e01b600052603260045260246000fd5b634e487b7160e01b600052601160045260246000fd5b6000600182016126c9576126c96126a1565b5060010190565b6020808252601b908201527a10d3d395149250955513d497d31054d517d410565351539517d055602a1b604082015260600190565b808201808211156110b5576110b56126a1565b60208082526016908201527510d3d395149250955513d497d513d2d15397d31254d560521b604082015260600190565b60208082526018908201527710d3d395149250955513d497d050d0d3d5539517d31254d560421b604082015260600190565b9283526020830191909152604082015260600190565b600060208083850312156127a357600080fd5b82516001600160401b038111156127b957600080fd5b8301601f810185136127ca57600080fd5b80516127d86122e182612288565b81815260059190911b820183019083810190878311156127f757600080fd5b928401925b8284101561208f57835161280f816122ab565b825292840192908401906127fc565b60006020828403121561283057600080fd5b8151612423816122ab565b600081518084526020808501808196508360051b810191508286016000805b868110156128d6578385038a5282516040815181885261287c828901826124fb565b92890151888403898b01528051808552908a01938693508a0191505b808310156128c15783516001600160a01b03168252928901926001929092019190890190612898565b509b88019b965050509185019160010161285a565b509298975050505050505050565b60006040808401835182865281815180845260608801915060608160051b89010193506020808401935060005b8281101561295b57898603605f1901845284518051888852612935898901826124fb565b918401516001600160a01b03169784019790975295509381019392810192600101612911565b50808801519550888503818a015250505050612977818361283b565b95945050505050565b600081518084526020808501808196508360051b810191508286016000805b868110156128d6578385038a528251604081518188526129c1828901826124fb565b92890151888403898b01528051808552908a01938693508a0191505b808310156129fd57835182529289019260019290920191908901906129dd565b509b88019b965050509185019160010161299f565b60006040808401835182865281815180845260608801915060608160051b89010193506020808401935060005b82811015612a8057898603605f1901845284518051888852612a63898901826124fb565b918401519784019790975295509381019392810192600101612a3f565b50808801519550888503818a0152505050506129778183612980565b600081518084526020808501808196508360051b810191508286016000805b868110156128d6578385038a52825160408151818852612add828901826124fb565b92890151888403898b01528051808552908a01938693508a0191505b80831015612b195783518252928901926001929092019190890190612af9565b509b88019b9650505091850191600101612abb565b60006040808401835182865281815180845260608801915060608160051b89010193506020808401935060005b82811015612b9c57898603605f1901845284518051888852612b7f898901826124fb565b918401519784019790975295509381019392810192600101612b5b565b50808801519550888503818a0152505050506129778183612a9c565b600081518084526020808501808196508360051b810191508286016000805b868110156128d6578385038a52825160408151818852612bf9828901826124fb565b92890151888403898b01528051808552908a01938693508a0191505b80831015612c3757835115158252928901926001929092019190890190612c15565b509b88019b9650505091850191600101612bd7565b60006040808401835182865281815180845260608801915060608160051b89010193506020808401935060005b82811015612cbc57898603605f1901845284518051888852612c9d898901826124fb565b9184015115159784019790975295509381019392810192600101612c79565b50808801519550888503818a0152505050506129778183612bb8565b600081518084526020808501808196508360051b810191508286016000805b868110156128d6578385038a52825160408151818852612d19828901826124fb565b92890151888403898b01528051808552908a01938693508a0191505b80831015612d555783518252928901926001929092019190890190612d35565b509b88019b9650505091850191600101612cf7565b60006040808401835182865281815180845260608801915060608160051b89010193506020808401935060005b82811015612dd857898603605f1901845284518051888852612dbb898901826124fb565b918401519784019790975295509381019392810192600101612d97565b50808801519550888503818a0152505050506129778183612cd8565b600081518084526020808501808196508360051b8101915082860160005b8581101561256f578284038952815160408151818752612e34828801826124fb565b91505086820151915085810387870152612e4e8183612527565b9a87019a9550505090840190600101612e12565b60006040808401835182865281815180845260608801915060608160051b89010193506020808401935060005b82811015612edf57898603605f1901845284518051888852612eb3898901826124fb565b9184015188830389860152919050612ecb81836124fb565b975050509381019392810192600101612e8f565b50808801519550888503818a0152505050506129778183612df4565b600081518084526020808501808196506005915083821b81018387016000805b87811015612fa6578484038b52825160408151818752612f3d828801826124fb565b928a0151878403888c01528051808552908b019392508a83019150808a1b83018b01865b82811015612f8f57601f19858303018452612f7d8287516124fb565b958d0195938d01939150600101612f61565b509e8b019e97505050938801935050600101612f1b565b50919998505050505050505050565b60006040808401835182865281815180845260608801915060608160051b89010193506020808401935060005b8281101561303257898603605f1901845284518051888852613006898901826124fb565b918401518883038986015291905061301e81836124fb565b975050509381019392810192600101612fe2565b50808801519550888503818a0152505050506129778183612efb565b6000815160e0845261306360e08501826128e4565b90506020830151848203602086015261307c8282612a12565b915050604083015184820360408601526130968282612b2e565b915050606083015184820360608601526130b08282612c4c565b915050608083015184820360808601526130ca8282612d6a565b91505060a083015184820360a08601526130e48282612e62565b91505060c083015184820360c08601526129778282612fb5565b60608152601660608201527514d95b9910dbdb9d1c9a589d5d1bdc94185e5b595b9d60521b608082015282602082015260a060408201526000611fb760a083018461304e565b60208082526012908201527121a7a72a2924a12aaa27a92fa5a2a2a822a960711b604082015260600190565b9182526001600160a01b0316602082015260400190565b6000808335601e1984360301811261319e57600080fd5b8301803591506001600160401b038211156131b857600080fd5b6020019150368190038213156131cd57600080fd5b9250929050565b8183823760009101908152919050565b6000602082840312156131f657600080fd5b8151801515811461242357600080fd5b60608152601460608201527314d95d10dbdb9d1c9a589d5d1bdc905b5bdd5b9d60621b608082015282602082015260a060408201526000611fb760a083018461304e565b6001600160a01b0383168152604060208201819052600090611fb7908301846124fb565b60208152600061242360208301846124fb565b60006020828403121561329357600080fd5b81516001600160401b03808211156132aa57600080fd5b818401915084601f8301126132be57600080fd5b8151818111156132d0576132d0612242565b6132e3601f8201601f1916602001612258565b91508082528560208285010111156132fa57600080fd5b61330b8160208401602086016124d7565b50949350505050565b600082516133268184602087016124d7565b919091019291505056fea2646970667358221220594b37dcffcb9c67bfb872007df074576b9565c32f3d6d288f5a89a8ac92ca0b64736f6c63430008120033",
  "linkReferences": {},
  "deployedLinkReferences": {}
}