{
  "_format": "hh-sol-artifact-1",
  "contractName": "CounterTest",
  "sourceName": "contracts/test/AssemblyReturnTest.sol",
  "abi": [
    {
      "inputs": [],
      "name": "count",
      "outputs": [
        {
          "internalType": "uint256",
          "name": "",
          "type": "uint256"
        }
      ],
      "stateMutability": "view",
      "type": "function"
    },
    {
      "inputs": [],
      "name": "increment",
      "outputs": [],
      "stateMutability": "nonpayable",
      "type": "function"
    }
  ],
  "bytecode": "0x6080604052600160005534801561001557600080fd5b5060cc806100246000396000f3fe6080604052348015600f57600080fd5b506004361060325760003560e01c806306661abd146037578063d09de08a146051575b600080fd5b603f60005481565b60405190815260200160405180910390f35b60576059565b005b6000805490806066836070565b9190505560206040f35b600060018201608f57634e487b7160e01b600052601160045260246000fd5b506001019056fea2646970667358221220c92a7773095caf46eb7d1172c45623b04b8568e1e51882d36570d64ef2e239dd64736f6c63430008120033",
  "linkReferences": {},
  "deployedLinkReferences": {}
}