{
  "_format": "hh-sol-artifact-1",
  "contractName": "ExchangeRouter",
  "sourceName": "contracts/router/ExchangeRouter.sol",
  "abi": [
    {
      "inputs": [
        {
          "internalType": "contract Router",
          "name": "_router",
          "type": "address"
        },
        {
          "internalType": "contract RoleStore",
          "name": "_roleStore",
          "type": "address"
        },
        {
          "internalType": "contract DataStore",
          "name": "_dataStore",
          "type": "address"
        },
        {
          "internalType": "contract EventEmitter",
          "name": "_eventEmitter",
          "type": "address"
        },
        {
          "internalType": "contract IDepositHandler",
          "name": "_depositHandler",
          "type": "address"
        },
        {
          "internalType": "contract IWithdrawalHandler",
          "name": "_withdrawalHandler",
          "type": "address"
        },
        {
          "internalType": "contract IShiftHandler",
          "name": "_shiftHandler",
          "type": "address"
        },
        {
          "internalType": "contract IOrderHandler",
          "name": "_orderHandler",
          "type": "address"
        },
        {
          "internalType": "contract IExternalHandler",
          "name": "_externalHandler",
          "type": "address"
        }
      ],
      "stateMutability": "nonpayable",
      "type": "constructor"
    },
    {
      "inputs": [
        {
          "internalType": "uint256",
          "name": "adjustedClaimableAmount",
          "type": "uint256"
        },
        {
          "internalType": "uint256",
          "name": "claimedAmount",
          "type": "uint256"
        }
      ],
      "name": "CollateralAlreadyClaimed",
      "type": "error"
    },
    {
      "inputs": [
        {
          "internalType": "bytes32",
          "name": "key",
          "type": "bytes32"
        }
      ],
      "name": "DisabledFeature",
      "type": "error"
    },
    {
      "inputs": [
        {
          "internalType": "address",
          "name": "market",
          "type": "address"
        }
      ],
      "name": "DisabledMarket",
      "type": "error"
    },
    {
      "inputs": [
        {
          "internalType": "address",
          "name": "market",
          "type": "address"
        },
        {
          "internalType": "address",
          "name": "token",
          "type": "address"
        }
      ],
      "name": "EmptyAddressInMarketTokenBalanceValidation",
      "type": "error"
    },
    {
      "inputs": [],
      "name": "EmptyDeposit",
      "type": "error"
    },
    {
      "inputs": [],
      "name": "EmptyHoldingAddress",
      "type": "error"
    },
    {
      "inputs": [],
      "name": "EmptyMarket",
      "type": "error"
    },
    {
      "inputs": [],
      "name": "EmptyOrder",
      "type": "error"
    },
    {
      "inputs": [],
      "name": "EmptyReceiver",
      "type": "error"
    },
    {
      "inputs": [
        {
          "internalType": "address",
          "name": "token",
          "type": "address"
        }
      ],
      "name": "EmptyTokenTranferGasLimit",
      "type": "error"
    },
    {
      "inputs": [
        {
          "internalType": "uint256",
          "name": "marketsLength",
          "type": "uint256"
        },
        {
          "internalType": "uint256",
          "name": "tokensLength",
          "type": "uint256"
        }
      ],
      "name": "InvalidClaimAffiliateRewardsInput",
      "type": "error"
    },
    {
      "inputs": [
        {
          "internalType": "uint256",
          "name": "marketsLength",
          "type": "uint256"
        },
        {
          "internalType": "uint256",
          "name": "tokensLength",
          "type": "uint256"
        },
        {
          "internalType": "uint256",
          "name": "timeKeysLength",
          "type": "uint256"
        }
      ],
      "name": "InvalidClaimCollateralInput",
      "type": "error"
    },
    {
      "inputs": [
        {
          "internalType": "uint256",
          "name": "marketsLength",
          "type": "uint256"
        },
        {
          "internalType": "uint256",
          "name": "tokensLength",
          "type": "uint256"
        }
      ],
      "name": "InvalidClaimFundingFeesInput",
      "type": "error"
    },
    {
      "inputs": [
        {
          "internalType": "uint256",
          "name": "marketsLength",
          "type": "uint256"
        },
        {
          "internalType": "uint256",
          "name": "tokensLength",
          "type": "uint256"
        }
      ],
      "name": "InvalidClaimUiFeesInput",
      "type": "error"
    },
    {
      "inputs": [
        {
          "internalType": "uint256",
          "name": "value",
          "type": "uint256"
        }
      ],
      "name": "InvalidClaimableFactor",
      "type": "error"
    },
    {
      "inputs": [
        {
          "internalType": "address",
          "name": "market",
          "type": "address"
        },
        {
          "internalType": "address",
          "name": "token",
          "type": "address"
        },
        {
          "internalType": "uint256",
          "name": "balance",
          "type": "uint256"
        },
        {
          "internalType": "uint256",
          "name": "expectedMinBalance",
          "type": "uint256"
        }
      ],
      "name": "InvalidMarketTokenBalance",
      "type": "error"
    },
    {
      "inputs": [
        {
          "internalType": "address",
          "name": "market",
          "type": "address"
        },
        {
          "internalType": "address",
          "name": "token",
          "type": "address"
        },
        {
          "internalType": "uint256",
          "name": "balance",
          "type": "uint256"
        },
        {
          "internalType": "uint256",
          "name": "claimableFundingFeeAmount",
          "type": "uint256"
        }
      ],
      "name": "InvalidMarketTokenBalanceForClaimableFunding",
      "type": "error"
    },
    {
      "inputs": [
        {
          "internalType": "address",
          "name": "market",
          "type": "address"
        },
        {
          "internalType": "address",
          "name": "token",
          "type": "address"
        },
        {
          "internalType": "uint256",
          "name": "balance",
          "type": "uint256"
        },
        {
          "internalType": "uint256",
          "name": "collateralAmount",
          "type": "uint256"
        }
      ],
      "name": "InvalidMarketTokenBalanceForCollateralAmount",
      "type": "error"
    },
    {
      "inputs": [
        {
          "internalType": "uint256",
          "name": "uiFeeFactor",
          "type": "uint256"
        },
        {
          "internalType": "uint256",
          "name": "maxUiFeeFactor",
          "type": "uint256"
        }
      ],
      "name": "InvalidUiFeeFactor",
      "type": "error"
    },
    {
      "inputs": [
        {
          "internalType": "address",
          "name": "token",
          "type": "address"
        },
        {
          "internalType": "address",
          "name": "receiver",
          "type": "address"
        },
        {
          "internalType": "uint256",
          "name": "amount",
          "type": "uint256"
        }
      ],
      "name": "TokenTransferError",
      "type": "error"
    },
    {
      "inputs": [
        {
          "internalType": "address",
          "name": "msgSender",
          "type": "address"
        },
        {
          "internalType": "string",
          "name": "role",
          "type": "string"
        }
      ],
      "name": "Unauthorized",
      "type": "error"
    },
    {
      "inputs": [
        {
          "internalType": "bytes32",
          "name": "key",
          "type": "bytes32"
        }
      ],
      "name": "cancelDeposit",
      "outputs": [],
      "stateMutability": "payable",
      "type": "function"
    },
    {
      "inputs": [
        {
          "internalType": "bytes32",
          "name": "key",
          "type": "bytes32"
        }
      ],
      "name": "cancelOrder",
      "outputs": [],
      "stateMutability": "payable",
      "type": "function"
    },
    {
      "inputs": [
        {
          "internalType": "bytes32",
          "name": "key",
          "type": "bytes32"
        }
      ],
      "name": "cancelShift",
      "outputs": [],
      "stateMutability": "payable",
      "type": "function"
    },
    {
      "inputs": [
        {
          "internalType": "bytes32",
          "name": "key",
          "type": "bytes32"
        }
      ],
      "name": "cancelWithdrawal",
      "outputs": [],
      "stateMutability": "payable",
      "type": "function"
    },
    {
      "inputs": [
        {
          "internalType": "address[]",
          "name": "markets",
          "type": "address[]"
        },
        {
          "internalType": "address[]",
          "name": "tokens",
          "type": "address[]"
        },
        {
          "internalType": "address",
          "name": "receiver",
          "type": "address"
        }
      ],
      "name": "claimAffiliateRewards",
      "outputs": [
        {
          "internalType": "uint256[]",
          "name": "",
          "type": "uint256[]"
        }
      ],
      "stateMutability": "payable",
      "type": "function"
    },
    {
      "inputs": [
        {
          "internalType": "address[]",
          "name": "markets",
          "type": "address[]"
        },
        {
          "internalType": "address[]",
          "name": "tokens",
          "type": "address[]"
        },
        {
          "internalType": "uint256[]",
          "name": "timeKeys",
          "type": "uint256[]"
        },
        {
          "internalType": "address",
          "name": "receiver",
          "type": "address"
        }
      ],
      "name": "claimCollateral",
      "outputs": [
        {
          "internalType": "uint256[]",
          "name": "",
          "type": "uint256[]"
        }
      ],
      "stateMutability": "payable",
      "type": "function"
    },
    {
      "inputs": [
        {
          "internalType": "address[]",
          "name": "markets",
          "type": "address[]"
        },
        {
          "internalType": "address[]",
          "name": "tokens",
          "type": "address[]"
        },
        {
          "internalType": "address",
          "name": "receiver",
          "type": "address"
        }
      ],
      "name": "claimFundingFees",
      "outputs": [
        {
          "internalType": "uint256[]",
          "name": "",
          "type": "uint256[]"
        }
      ],
      "stateMutability": "payable",
      "type": "function"
    },
    {
      "inputs": [
        {
          "internalType": "address[]",
          "name": "markets",
          "type": "address[]"
        },
        {
          "internalType": "address[]",
          "name": "tokens",
          "type": "address[]"
        },
        {
          "internalType": "address",
          "name": "receiver",
          "type": "address"
        }
      ],
      "name": "claimUiFees",
      "outputs": [
        {
          "internalType": "uint256[]",
          "name": "",
          "type": "uint256[]"
        }
      ],
      "stateMutability": "payable",
      "type": "function"
    },
    {
      "inputs": [
        {
          "components": [
            {
              "internalType": "address",
              "name": "receiver",
              "type": "address"
            },
            {
              "internalType": "address",
              "name": "callbackContract",
              "type": "address"
            },
            {
              "internalType": "address",
              "name": "uiFeeReceiver",
              "type": "address"
            },
            {
              "internalType": "address",
              "name": "market",
              "type": "address"
            },
            {
              "internalType": "address",
              "name": "initialLongToken",
              "type": "address"
            },
            {
              "internalType": "address",
              "name": "initialShortToken",
              "type": "address"
            },
            {
              "internalType": "address[]",
              "name": "longTokenSwapPath",
              "type": "address[]"
            },
            {
              "internalType": "address[]",
              "name": "shortTokenSwapPath",
              "type": "address[]"
            },
            {
              "internalType": "uint256",
              "name": "minMarketTokens",
              "type": "uint256"
            },
            {
              "internalType": "bool",
              "name": "shouldUnwrapNativeToken",
              "type": "bool"
            },
            {
              "internalType": "uint256",
              "name": "executionFee",
              "type": "uint256"
            },
            {
              "internalType": "uint256",
              "name": "callbackGasLimit",
              "type": "uint256"
            }
          ],
          "internalType": "struct DepositUtils.CreateDepositParams",
          "name": "params",
          "type": "tuple"
        }
      ],
      "name": "createDeposit",
      "outputs": [
        {
          "internalType": "bytes32",
          "name": "",
          "type": "bytes32"
        }
      ],
      "stateMutability": "payable",
      "type": "function"
    },
    {
      "inputs": [
        {
          "components": [
            {
              "components": [
                {
                  "internalType": "address",
                  "name": "receiver",
                  "type": "address"
                },
                {
                  "internalType": "address",
                  "name": "cancellationReceiver",
                  "type": "address"
                },
                {
                  "internalType": "address",
                  "name": "callbackContract",
                  "type": "address"
                },
                {
                  "internalType": "address",
                  "name": "uiFeeReceiver",
                  "type": "address"
                },
                {
                  "internalType": "address",
                  "name": "market",
                  "type": "address"
                },
                {
                  "internalType": "address",
                  "name": "initialCollateralToken",
                  "type": "address"
                },
                {
                  "internalType": "address[]",
                  "name": "swapPath",
                  "type": "address[]"
                }
              ],
              "internalType": "struct IBaseOrderUtils.CreateOrderParamsAddresses",
              "name": "addresses",
              "type": "tuple"
            },
            {
              "components": [
                {
                  "internalType": "uint256",
                  "name": "sizeDeltaUsd",
                  "type": "uint256"
                },
                {
                  "internalType": "uint256",
                  "name": "initialCollateralDeltaAmount",
                  "type": "uint256"
                },
                {
                  "internalType": "uint256",
                  "name": "triggerPrice",
                  "type": "uint256"
                },
                {
                  "internalType": "uint256",
                  "name": "acceptablePrice",
                  "type": "uint256"
                },
                {
                  "internalType": "uint256",
                  "name": "executionFee",
                  "type": "uint256"
                },
                {
                  "internalType": "uint256",
                  "name": "callbackGasLimit",
                  "type": "uint256"
                },
                {
                  "internalType": "uint256",
                  "name": "minOutputAmount",
                  "type": "uint256"
                },
                {
                  "internalType": "uint256",
                  "name": "validFromTime",
                  "type": "uint256"
                }
              ],
              "internalType": "struct IBaseOrderUtils.CreateOrderParamsNumbers",
              "name": "numbers",
              "type": "tuple"
            },
            {
              "internalType": "enum Order.OrderType",
              "name": "orderType",
              "type": "uint8"
            },
            {
              "internalType": "enum Order.DecreasePositionSwapType",
              "name": "decreasePositionSwapType",
              "type": "uint8"
            },
            {
              "internalType": "bool",
              "name": "isLong",
              "type": "bool"
            },
            {
              "internalType": "bool",
              "name": "shouldUnwrapNativeToken",
              "type": "bool"
            },
            {
              "internalType": "bool",
              "name": "autoCancel",
              "type": "bool"
            },
            {
              "internalType": "bytes32",
              "name": "referralCode",
              "type": "bytes32"
            }
          ],
          "internalType": "struct IBaseOrderUtils.CreateOrderParams",
          "name": "params",
          "type": "tuple"
        }
      ],
      "name": "createOrder",
      "outputs": [
        {
          "internalType": "bytes32",
          "name": "",
          "type": "bytes32"
        }
      ],
      "stateMutability": "payable",
      "type": "function"
    },
    {
      "inputs": [
        {
          "components": [
            {
              "internalType": "address",
              "name": "receiver",
              "type": "address"
            },
            {
              "internalType": "address",
              "name": "callbackContract",
              "type": "address"
            },
            {
              "internalType": "address",
              "name": "uiFeeReceiver",
              "type": "address"
            },
            {
              "internalType": "address",
              "name": "fromMarket",
              "type": "address"
            },
            {
              "internalType": "address",
              "name": "toMarket",
              "type": "address"
            },
            {
              "internalType": "uint256",
              "name": "minMarketTokens",
              "type": "uint256"
            },
            {
              "internalType": "uint256",
              "name": "executionFee",
              "type": "uint256"
            },
            {
              "internalType": "uint256",
              "name": "callbackGasLimit",
              "type": "uint256"
            }
          ],
          "internalType": "struct ShiftUtils.CreateShiftParams",
          "name": "params",
          "type": "tuple"
        }
      ],
      "name": "createShift",
      "outputs": [
        {
          "internalType": "bytes32",
          "name": "",
          "type": "bytes32"
        }
      ],
      "stateMutability": "payable",
      "type": "function"
    },
    {
      "inputs": [
        {
          "components": [
            {
              "internalType": "address",
              "name": "receiver",
              "type": "address"
            },
            {
              "internalType": "address",
              "name": "callbackContract",
              "type": "address"
            },
            {
              "internalType": "address",
              "name": "uiFeeReceiver",
              "type": "address"
            },
            {
              "internalType": "address",
              "name": "market",
              "type": "address"
            },
            {
              "internalType": "address[]",
              "name": "longTokenSwapPath",
              "type": "address[]"
            },
            {
              "internalType": "address[]",
              "name": "shortTokenSwapPath",
              "type": "address[]"
            },
            {
              "internalType": "uint256",
              "name": "minLongTokenAmount",
              "type": "uint256"
            },
            {
              "internalType": "uint256",
              "name": "minShortTokenAmount",
              "type": "uint256"
            },
            {
              "internalType": "bool",
              "name": "shouldUnwrapNativeToken",
              "type": "bool"
            },
            {
              "internalType": "uint256",
              "name": "executionFee",
              "type": "uint256"
            },
            {
              "internalType": "uint256",
              "name": "callbackGasLimit",
              "type": "uint256"
            }
          ],
          "internalType": "struct WithdrawalUtils.CreateWithdrawalParams",
          "name": "params",
          "type": "tuple"
        }
      ],
      "name": "createWithdrawal",
      "outputs": [
        {
          "internalType": "bytes32",
          "name": "",
          "type": "bytes32"
        }
      ],
      "stateMutability": "payable",
      "type": "function"
    },
    {
      "inputs": [],
      "name": "dataStore",
      "outputs": [
        {
          "internalType": "contract DataStore",
          "name": "",
          "type": "address"
        }
      ],
      "stateMutability": "view",
      "type": "function"
    },
    {
      "inputs": [],
      "name": "depositHandler",
      "outputs": [
        {
          "internalType": "contract IDepositHandler",
          "name": "",
          "type": "address"
        }
      ],
      "stateMutability": "view",
      "type": "function"
    },
    {
      "inputs": [],
      "name": "eventEmitter",
      "outputs": [
        {
          "internalType": "contract EventEmitter",
          "name": "",
          "type": "address"
        }
      ],
      "stateMutability": "view",
      "type": "function"
    },
    {
      "inputs": [
        {
          "components": [
            {
              "internalType": "address",
              "name": "receiver",
              "type": "address"
            },
            {
              "internalType": "address",
              "name": "callbackContract",
              "type": "address"
            },
            {
              "internalType": "address",
              "name": "uiFeeReceiver",
              "type": "address"
            },
            {
              "internalType": "address",
              "name": "market",
              "type": "address"
            },
            {
              "internalType": "address[]",
              "name": "longTokenSwapPath",
              "type": "address[]"
            },
            {
              "internalType": "address[]",
              "name": "shortTokenSwapPath",
              "type": "address[]"
            },
            {
              "internalType": "uint256",
              "name": "minLongTokenAmount",
              "type": "uint256"
            },
            {
              "internalType": "uint256",
              "name": "minShortTokenAmount",
              "type": "uint256"
            },
            {
              "internalType": "bool",
              "name": "shouldUnwrapNativeToken",
              "type": "bool"
            },
            {
              "internalType": "uint256",
              "name": "executionFee",
              "type": "uint256"
            },
            {
              "internalType": "uint256",
              "name": "callbackGasLimit",
              "type": "uint256"
            }
          ],
          "internalType": "struct WithdrawalUtils.CreateWithdrawalParams",
          "name": "params",
          "type": "tuple"
        },
        {
          "components": [
            {
              "internalType": "address[]",
              "name": "tokens",
              "type": "address[]"
            },
            {
              "internalType": "address[]",
              "name": "providers",
              "type": "address[]"
            },
            {
              "internalType": "bytes[]",
              "name": "data",
              "type": "bytes[]"
            }
          ],
          "internalType": "struct OracleUtils.SetPricesParams",
          "name": "oracleParams",
          "type": "tuple"
        }
      ],
      "name": "executeAtomicWithdrawal",
      "outputs": [],
      "stateMutability": "payable",
      "type": "function"
    },
    {
      "inputs": [],
      "name": "externalHandler",
      "outputs": [
        {
          "internalType": "contract IExternalHandler",
          "name": "",
          "type": "address"
        }
      ],
      "stateMutability": "view",
      "type": "function"
    },
    {
      "inputs": [
        {
          "internalType": "address[]",
          "name": "externalCallTargets",
          "type": "address[]"
        },
        {
          "internalType": "bytes[]",
          "name": "externalCallDataList",
          "type": "bytes[]"
        },
        {
          "internalType": "address[]",
          "name": "refundTokens",
          "type": "address[]"
        },
        {
          "internalType": "address[]",
          "name": "refundReceivers",
          "type": "address[]"
        }
      ],
      "name": "makeExternalCalls",
      "outputs": [],
      "stateMutability": "nonpayable",
      "type": "function"
    },
    {
      "inputs": [
        {
          "internalType": "bytes[]",
          "name": "data",
          "type": "bytes[]"
        }
      ],
      "name": "multicall",
      "outputs": [
        {
          "internalType": "bytes[]",
          "name": "results",
          "type": "bytes[]"
        }
      ],
      "stateMutability": "payable",
      "type": "function"
    },
    {
      "inputs": [],
      "name": "orderHandler",
      "outputs": [
        {
          "internalType": "contract IOrderHandler",
          "name": "",
          "type": "address"
        }
      ],
      "stateMutability": "view",
      "type": "function"
    },
    {
      "inputs": [],
      "name": "roleStore",
      "outputs": [
        {
          "internalType": "contract RoleStore",
          "name": "",
          "type": "address"
        }
      ],
      "stateMutability": "view",
      "type": "function"
    },
    {
      "inputs": [],
      "name": "router",
      "outputs": [
        {
          "internalType": "contract Router",
          "name": "",
          "type": "address"
        }
      ],
      "stateMutability": "view",
      "type": "function"
    },
    {
      "inputs": [
        {
          "internalType": "address",
          "name": "receiver",
          "type": "address"
        },
        {
          "internalType": "uint256",
          "name": "amount",
          "type": "uint256"
        }
      ],
      "name": "sendNativeToken",
      "outputs": [],
      "stateMutability": "payable",
      "type": "function"
    },
    {
      "inputs": [
        {
          "internalType": "address",
          "name": "token",
          "type": "address"
        },
        {
          "internalType": "address",
          "name": "receiver",
          "type": "address"
        },
        {
          "internalType": "uint256",
          "name": "amount",
          "type": "uint256"
        }
      ],
      "name": "sendTokens",
      "outputs": [],
      "stateMutability": "payable",
      "type": "function"
    },
    {
      "inputs": [
        {
          "internalType": "address",
          "name": "receiver",
          "type": "address"
        },
        {
          "internalType": "uint256",
          "name": "amount",
          "type": "uint256"
        }
      ],
      "name": "sendWnt",
      "outputs": [],
      "stateMutability": "payable",
      "type": "function"
    },
    {
      "inputs": [
        {
          "internalType": "address",
          "name": "market",
          "type": "address"
        },
        {
          "internalType": "address",
          "name": "callbackContract",
          "type": "address"
        }
      ],
      "name": "setSavedCallbackContract",
      "outputs": [],
      "stateMutability": "payable",
      "type": "function"
    },
    {
      "inputs": [
        {
          "internalType": "uint256",
          "name": "uiFeeFactor",
          "type": "uint256"
        }
      ],
      "name": "setUiFeeFactor",
      "outputs": [],
      "stateMutability": "payable",
      "type": "function"
    },
    {
      "inputs": [],
      "name": "shiftHandler",
      "outputs": [
        {
          "internalType": "contract IShiftHandler",
          "name": "",
          "type": "address"
        }
      ],
      "stateMutability": "view",
      "type": "function"
    },
    {
      "inputs": [
        {
          "internalType": "bytes32",
          "name": "key",
          "type": "bytes32"
        },
        {
          "components": [
            {
              "internalType": "address[]",
              "name": "primaryTokens",
              "type": "address[]"
            },
            {
              "components": [
                {
                  "internalType": "uint256",
                  "name": "min",
                  "type": "uint256"
                },
                {
                  "internalType": "uint256",
                  "name": "max",
                  "type": "uint256"
                }
              ],
              "internalType": "struct Price.Props[]",
              "name": "primaryPrices",
              "type": "tuple[]"
            },
            {
              "internalType": "uint256",
              "name": "minTimestamp",
              "type": "uint256"
            },
            {
              "internalType": "uint256",
              "name": "maxTimestamp",
              "type": "uint256"
            }
          ],
          "internalType": "struct OracleUtils.SimulatePricesParams",
          "name": "simulatedOracleParams",
          "type": "tuple"
        }
      ],
      "name": "simulateExecuteDeposit",
      "outputs": [],
      "stateMutability": "payable",
      "type": "function"
    },
    {
      "inputs": [
        {
          "components": [
            {
              "internalType": "address[]",
              "name": "primaryTokens",
              "type": "address[]"
            },
            {
              "components": [
                {
                  "internalType": "uint256",
                  "name": "min",
                  "type": "uint256"
                },
                {
                  "internalType": "uint256",
                  "name": "max",
                  "type": "uint256"
                }
              ],
              "internalType": "struct Price.Props[]",
              "name": "primaryPrices",
              "type": "tuple[]"
            },
            {
              "internalType": "uint256",
              "name": "minTimestamp",
              "type": "uint256"
            },
            {
              "internalType": "uint256",
              "name": "maxTimestamp",
              "type": "uint256"
            }
          ],
          "internalType": "struct OracleUtils.SimulatePricesParams",
          "name": "simulatedOracleParams",
          "type": "tuple"
        }
      ],
      "name": "simulateExecuteLatestDeposit",
      "outputs": [],
      "stateMutability": "payable",
      "type": "function"
    },
    {
      "inputs": [
        {
          "components": [
            {
              "internalType": "address[]",
              "name": "primaryTokens",
              "type": "address[]"
            },
            {
              "components": [
                {
                  "internalType": "uint256",
                  "name": "min",
                  "type": "uint256"
                },
                {
                  "internalType": "uint256",
                  "name": "max",
                  "type": "uint256"
                }
              ],
              "internalType": "struct Price.Props[]",
              "name": "primaryPrices",
              "type": "tuple[]"
            },
            {
              "internalType": "uint256",
              "name": "minTimestamp",
              "type": "uint256"
            },
            {
              "internalType": "uint256",
              "name": "maxTimestamp",
              "type": "uint256"
            }
          ],
          "internalType": "struct OracleUtils.SimulatePricesParams",
          "name": "simulatedOracleParams",
          "type": "tuple"
        }
      ],
      "name": "simulateExecuteLatestOrder",
      "outputs": [],
      "stateMutability": "payable",
      "type": "function"
    },
    {
      "inputs": [
        {
          "components": [
            {
              "internalType": "address[]",
              "name": "primaryTokens",
              "type": "address[]"
            },
            {
              "components": [
                {
                  "internalType": "uint256",
                  "name": "min",
                  "type": "uint256"
                },
                {
                  "internalType": "uint256",
                  "name": "max",
                  "type": "uint256"
                }
              ],
              "internalType": "struct Price.Props[]",
              "name": "primaryPrices",
              "type": "tuple[]"
            },
            {
              "internalType": "uint256",
              "name": "minTimestamp",
              "type": "uint256"
            },
            {
              "internalType": "uint256",
              "name": "maxTimestamp",
              "type": "uint256"
            }
          ],
          "internalType": "struct OracleUtils.SimulatePricesParams",
          "name": "simulatedOracleParams",
          "type": "tuple"
        }
      ],
      "name": "simulateExecuteLatestShift",
      "outputs": [],
      "stateMutability": "payable",
      "type": "function"
    },
    {
      "inputs": [
        {
          "components": [
            {
              "internalType": "address[]",
              "name": "primaryTokens",
              "type": "address[]"
            },
            {
              "components": [
                {
                  "internalType": "uint256",
                  "name": "min",
                  "type": "uint256"
                },
                {
                  "internalType": "uint256",
                  "name": "max",
                  "type": "uint256"
                }
              ],
              "internalType": "struct Price.Props[]",
              "name": "primaryPrices",
              "type": "tuple[]"
            },
            {
              "internalType": "uint256",
              "name": "minTimestamp",
              "type": "uint256"
            },
            {
              "internalType": "uint256",
              "name": "maxTimestamp",
              "type": "uint256"
            }
          ],
          "internalType": "struct OracleUtils.SimulatePricesParams",
          "name": "simulatedOracleParams",
          "type": "tuple"
        },
        {
          "internalType": "enum ISwapPricingUtils.SwapPricingType",
          "name": "swapPricingType",
          "type": "uint8"
        }
      ],
      "name": "simulateExecuteLatestWithdrawal",
      "outputs": [],
      "stateMutability": "payable",
      "type": "function"
    },
    {
      "inputs": [
        {
          "internalType": "bytes32",
          "name": "key",
          "type": "bytes32"
        },
        {
          "components": [
            {
              "internalType": "address[]",
              "name": "primaryTokens",
              "type": "address[]"
            },
            {
              "components": [
                {
                  "internalType": "uint256",
                  "name": "min",
                  "type": "uint256"
                },
                {
                  "internalType": "uint256",
                  "name": "max",
                  "type": "uint256"
                }
              ],
              "internalType": "struct Price.Props[]",
              "name": "primaryPrices",
              "type": "tuple[]"
            },
            {
              "internalType": "uint256",
              "name": "minTimestamp",
              "type": "uint256"
            },
            {
              "internalType": "uint256",
              "name": "maxTimestamp",
              "type": "uint256"
            }
          ],
          "internalType": "struct OracleUtils.SimulatePricesParams",
          "name": "simulatedOracleParams",
          "type": "tuple"
        }
      ],
      "name": "simulateExecuteOrder",
      "outputs": [],
      "stateMutability": "payable",
      "type": "function"
    },
    {
      "inputs": [
        {
          "internalType": "bytes32",
          "name": "key",
          "type": "bytes32"
        },
        {
          "components": [
            {
              "internalType": "address[]",
              "name": "primaryTokens",
              "type": "address[]"
            },
            {
              "components": [
                {
                  "internalType": "uint256",
                  "name": "min",
                  "type": "uint256"
                },
                {
                  "internalType": "uint256",
                  "name": "max",
                  "type": "uint256"
                }
              ],
              "internalType": "struct Price.Props[]",
              "name": "primaryPrices",
              "type": "tuple[]"
            },
            {
              "internalType": "uint256",
              "name": "minTimestamp",
              "type": "uint256"
            },
            {
              "internalType": "uint256",
              "name": "maxTimestamp",
              "type": "uint256"
            }
          ],
          "internalType": "struct OracleUtils.SimulatePricesParams",
          "name": "simulatedOracleParams",
          "type": "tuple"
        }
      ],
      "name": "simulateExecuteShift",
      "outputs": [],
      "stateMutability": "payable",
      "type": "function"
    },
    {
      "inputs": [
        {
          "internalType": "bytes32",
          "name": "key",
          "type": "bytes32"
        },
        {
          "components": [
            {
              "internalType": "address[]",
              "name": "primaryTokens",
              "type": "address[]"
            },
            {
              "components": [
                {
                  "internalType": "uint256",
                  "name": "min",
                  "type": "uint256"
                },
                {
                  "internalType": "uint256",
                  "name": "max",
                  "type": "uint256"
                }
              ],
              "internalType": "struct Price.Props[]",
              "name": "primaryPrices",
              "type": "tuple[]"
            },
            {
              "internalType": "uint256",
              "name": "minTimestamp",
              "type": "uint256"
            },
            {
              "internalType": "uint256",
              "name": "maxTimestamp",
              "type": "uint256"
            }
          ],
          "internalType": "struct OracleUtils.SimulatePricesParams",
          "name": "simulatedOracleParams",
          "type": "tuple"
        },
        {
          "internalType": "enum ISwapPricingUtils.SwapPricingType",
          "name": "swapPricingType",
          "type": "uint8"
        }
      ],
      "name": "simulateExecuteWithdrawal",
      "outputs": [],
      "stateMutability": "payable",
      "type": "function"
    },
    {
      "inputs": [
        {
          "internalType": "bytes32",
          "name": "key",
          "type": "bytes32"
        },
        {
          "internalType": "uint256",
          "name": "sizeDeltaUsd",
          "type": "uint256"
        },
        {
          "internalType": "uint256",
          "name": "acceptablePrice",
          "type": "uint256"
        },
        {
          "internalType": "uint256",
          "name": "triggerPrice",
          "type": "uint256"
        },
        {
          "internalType": "uint256",
          "name": "minOutputAmount",
          "type": "uint256"
        },
        {
          "internalType": "uint256",
          "name": "validFromTime",
          "type": "uint256"
        },
        {
          "internalType": "bool",
          "name": "autoCancel",
          "type": "bool"
        }
      ],
      "name": "updateOrder",
      "outputs": [],
      "stateMutability": "payable",
      "type": "function"
    },
    {
      "inputs": [],
      "name": "withdrawalHandler",
      "outputs": [
        {
          "internalType": "contract IWithdrawalHandler",
          "name": "",
          "type": "address"
        }
      ],
      "stateMutability": "view",
      "type": "function"
    }
  ],
  "bytecode": "0x6101a06040523480156200001257600080fd5b506040516200630e3803806200630e833981016040819052620000359162000097565b60016000556001600160a01b0397881660805297871660a05294861660c05292851660e0529084166101005283166101205282166101405281166101605216610180526200016e565b6001600160a01b03811681146200009457600080fd5b50565b60008060008060008060008060006101208a8c031215620000b757600080fd5b8951620000c4816200007e565b60208b0151909950620000d7816200007e565b60408b0151909850620000ea816200007e565b60608b0151909750620000fd816200007e565b60808b015190965062000110816200007e565b60a08b015190955062000123816200007e565b60c08b015190945062000136816200007e565b60e08b015190935062000149816200007e565b6101008b01519092506200015d816200007e565b809150509295985092959850929598565b60805160a05160c05160e0516101005161012051610140516101605161018051615fed620003216000396000818161027101526119d30152600081816104e601528181610f6b015281816113360152818161154e015281816115a40152611b7501526000818161058601528181610dbd015281816114ca015281816117770152611c4b0152600081816102300152818161084a01528181611047015281816111a90152818161171d01526117cd0152600081816104250152818161099601528181610b5301528181610ebc0152610fef0152600081816104590152818161070201528181610cb801528181610e690152818161192b0152611e3701526000818161035901528181610642015281816106e10152818161080c015281816108e301528181610a3501528181610bfd01528181610c9701528181610e0a01528181610e4801528181610fb1015281816110ba0152818161121a01528181611383015281816113e3015281816115100152818161187e0152818161190a01528181611a8a01528181611c0d01528181611d8a0152611e160152600081816105e00152611cca015260006102de0152615fed6000f3fe6080604052600436106101b55760003560e01c806301a9cbb2146101ba578063054d5174146101e3578063073fb09e146101f85780632a3db3eb1461020b5780632c2f3c071461021e5780632e944bd61461025f578063314044841461029357806349287a22146102a657806349e58799146102b95780634a4a7b04146102cc57806353ead2d3146103005780635a03cd94146103135780635b4e956114610326578063660d0d67146103475780636996807b1461037b5780636adbfaf51461038e5780636b5341a1146103a15780637213c5a0146103b45780637489ec23146103c75780637d39aaf1146103da57806396be2898146103ed578063983fa392146104005780639c8b2cfb146104135780639ff78c3014610447578063a7115fa81461047b578063ac9650d81461048e578063ad23c5a1146104ae578063b1f906b9146104c1578063b5848305146104d4578063bc190c1414610508578063c41b1ab31461051b578063d59922b01461052e578063dd5baad21461054e578063e10f8aa614610561578063e65c9ae114610574578063e6d66ac8146105a8578063e9249b57146105bb578063f887ea40146105ce575b600080fd5b6101cd6101c836600461415a565b610602565b6040516101da91906141d1565b60405180910390f35b6101f66101f1366004614321565b6107fd565b005b6101f661020636600461436e565b6108c4565b6101f66102193660046143a7565b610977565b34801561022a57600080fd5b506102527f000000000000000000000000000000000000000000000000000000000000000081565b6040516101da91906143ed565b34801561026b57600080fd5b506102527f000000000000000000000000000000000000000000000000000000000000000081565b6101f66102a1366004614401565b6109fb565b6101cd6102b436600461415a565b610bc6565b6101f66102c73660046143a7565b610d9e565b3480156102d857600080fd5b506102527f000000000000000000000000000000000000000000000000000000000000000081565b6101f661030e36600461441a565b610df4565b6101f6610321366004614401565b610e3a565b610339610334366004614446565b610e9a565b6040519081526020016101da565b34801561035357600080fd5b506102527f000000000000000000000000000000000000000000000000000000000000000081565b610339610389366004614481565b610f48565b6101f661039c3660046144bc565b610fa2565b6101f66103af366004614509565b611026565b6101f66103c2366004614401565b611080565b6101f66103d5366004614401565b6111e0565b6101f66103e836600461441a565b61136d565b6101f66103fb366004614401565b6113a9565b6101f661040e3660046144bc565b611501565b34801561041f57600080fd5b506102527f000000000000000000000000000000000000000000000000000000000000000081565b34801561045357600080fd5b506102527f000000000000000000000000000000000000000000000000000000000000000081565b6101f66104893660046143a7565b611585565b6104a161049c366004614568565b6115db565b6040516101da9190614681565b6103396104bc366004614694565b6116fa565b6103396104cf3660046146c8565b611754565b3480156104e057600080fd5b506102527f000000000000000000000000000000000000000000000000000000000000000081565b6101f66105163660046146db565b6117ae565b6101cd61052936600461415a565b611847565b34801561053a57600080fd5b506101f6610549366004614758565b6119b4565b6101f661055c3660046148c8565b611a50565b6101f661056f3660046144bc565b611bfe565b34801561058057600080fd5b506102527f000000000000000000000000000000000000000000000000000000000000000081565b6101f66105b6366004614928565b611c82565b6101cd6105c9366004614969565b611d33565b3480156105da57600080fd5b506102527f000000000000000000000000000000000000000000000000000000000000000081565b606061060c611ef0565b825184511461063d57835183516040516374cee48d60e01b8152600401610634929190614a57565b60405180910390fd5b61066f7f000000000000000000000000000000000000000000000000000000000000000061066a30611f49565b611fd6565b835133906000906001600160401b0381111561068d5761068d613f44565b6040519080825280602002602001820160405280156106b6578160200160208202803683370190505b50905060005b86518110156107e85773__$00d18be641c3a4f9ed15a2e39383149bb3$__637ed7d8ea7f00000000000000000000000000000000000000000000000000000000000000007f0000000000000000000000000000000000000000000000000000000000000000868b868151811061073457610734614a65565b60200260200101518b878151811061074e5761074e614a65565b60200260200101518b6040518763ffffffff1660e01b815260040161077896959493929190614a88565b602060405180830381865af4158015610795573d6000803e3d6000fd5b505050506040513d601f19601f820116820180604052508101906107b99190614ac2565b8282815181106107cb576107cb614a65565b6020908102919091010152806107e081614af1565b9150506106bc565b509150506107f66001600055565b9392505050565b610805611ef0565b60006108307f0000000000000000000000000000000000000000000000000000000000000000612001565b604051632f06430560e21b81529091506001600160a01b037f0000000000000000000000000000000000000000000000000000000000000000169063bc190c149061088390849087908790600401614be7565b600060405180830381600087803b15801561089d57600080fd5b505af11580156108b1573d6000803e3d6000fd5b50505050506108c06001600055565b5050565b6108cc611ef0565b60405163b3678d5b60e01b81526001600160a01b037f00000000000000000000000000000000000000000000000000000000000000008116600483015233602483015280841660448301528216606482015273__$d7e28679fbfe4f4a6e86262d9995c4a909$__9063b3678d5b9060840160006040518083038186803b15801561095557600080fd5b505af4158015610969573d6000803e3d6000fd5b505050506108c06001600055565b61097f611ef0565b604051632a3db3eb60e01b81526001600160a01b037f00000000000000000000000000000000000000000000000000000000000000001690632a3db3eb906109cd9085908590600401614c20565b600060405180830381600087803b1580156109e757600080fd5b505af1158015610969573d6000803e3d6000fd5b610a03611ef0565b60405163fdfc26f360e01b815260009073__$b63e253a228f0e32f671cc49c7fc32477c$__9063fdfc26f390610a5f907f0000000000000000000000000000000000000000000000000000000000000000908690600401614c39565b600060405180830381865af4158015610a7c573d6000803e3d6000fd5b505050506040513d6000823e601f3d908101601f19168201604052610aa49190810190614d68565b90506000610ab182515190565b6001600160a01b031603610ad8576040516395b66fe960e01b815260040160405180910390fd5b33610ae282515190565b6001600160a01b031614610b3d576040805163a35b150b60e01b8152336004820152602481019190915260196044820152781858d8dbdd5b9d08199bdc8818d85b98d95b11195c1bdcda5d603a1b6064820152608401610634565b604051630c50112160e21b8152600481018390527f00000000000000000000000000000000000000000000000000000000000000006001600160a01b0316906331404484906024015b600060405180830381600087803b158015610ba057600080fd5b505af1158015610bb4573d6000803e3d6000fd5b5050505050610bc36001600055565b50565b6060610bd0611ef0565b8251845114610bf85783518351604051635b3043dd60e01b8152600401610634929190614a57565b610c257f000000000000000000000000000000000000000000000000000000000000000061066a3061201b565b835133906000906001600160401b03811115610c4357610c43613f44565b604051908082528060200260200182016040528015610c6c578160200160208202803683370190505b50905060005b86518110156107e85773__$9d4130ea52f4c58807a0c72df3e6362e69$__63d57d53997f00000000000000000000000000000000000000000000000000000000000000007f00000000000000000000000000000000000000000000000000000000000000008a8581518110610ce957610ce9614a65565b60200260200101518a8681518110610d0357610d03614a65565b6020026020010151888b6040518763ffffffff1660e01b8152600401610d2e96959493929190614a88565b602060405180830381865af4158015610d4b573d6000803e3d6000fd5b505050506040513d601f19601f82011682018060405250810190610d6f9190614ac2565b828281518110610d8157610d81614a65565b602090810291909101015280610d9681614af1565b915050610c72565b610da6611ef0565b6040516349e5879960e01b81526001600160a01b037f000000000000000000000000000000000000000000000000000000000000000016906349e58799906109cd9085908590600401614c20565b610dfc611ef0565b610e058261206f565b610e307f00000000000000000000000000000000000000000000000000000000000000008383612096565b6108c06001600055565b610e42611ef0565b33610e8f7f00000000000000000000000000000000000000000000000000000000000000007f000000000000000000000000000000000000000000000000000000000000000083856121a2565b50610bc36001600055565b6000610ea4611ef0565b60405162bd80c160e61b815233906001600160a01b037f00000000000000000000000000000000000000000000000000000000000000001690632f60304090610ef39084908790600401614f4f565b6020604051808303816000875af1158015610f12573d6000803e3d6000fd5b505050506040513d601f19601f82011682018060405250810190610f369190614ac2565b915050610f436001600055565b919050565b6000610f52611ef0565b60405163531f9cb760e01b815233906001600160a01b037f0000000000000000000000000000000000000000000000000000000000000000169063531f9cb790610ef3908490879060040161519f565b610faa611ef0565b6000610fd57f0000000000000000000000000000000000000000000000000000000000000000612001565b604051632a3db3eb60e01b81529091506001600160a01b037f00000000000000000000000000000000000000000000000000000000000000001690632a3db3eb90610b869084908690600401614c20565b61102e611ef0565b60405163021bb5a760e61b815233906001600160a01b037f000000000000000000000000000000000000000000000000000000000000000016906386ed69c090610883908490879087906004016153f6565b611088611ef0565b60405163fdfc26f360e01b815260009073__$3dc24d71d6ebafc0c4ce8ac2f69cd1548a$__9063fdfc26f3906110e4907f0000000000000000000000000000000000000000000000000000000000000000908690600401614c39565b600060405180830381865af4158015611101573d6000803e3d6000fd5b505050506040513d6000823e601f3d908101601f191682016040526111299190810190615510565b90503361113582515190565b6001600160a01b031614611193576040805163a35b150b60e01b81523360048201526024810191909152601c60448201527b1858d8dbdd5b9d08199bdc8818d85b98d95b15da5d1a191c985dd85b60221b6064820152608401610634565b6040516303909e2d60e51b8152600481018390527f00000000000000000000000000000000000000000000000000000000000000006001600160a01b031690637213c5a090602401610b86565b6111e8611ef0565b60405163fdfc26f360e01b815260009073__$9dcb75ef0bb6c4288f2ccffe7dc492c4eb$__9063fdfc26f390611244907f0000000000000000000000000000000000000000000000000000000000000000908690600401614c39565b600060405180830381865af4158015611261573d6000803e3d6000fd5b505050506040513d6000823e601f3d908101601f191682016040526112899190810190615763565b9050600061129682515190565b6001600160a01b0316036112bd57604051631630779760e01b815260040160405180910390fd5b336112c782515190565b6001600160a01b031614611320576040805163a35b150b60e01b81523360048201526024810191909152601760448201527630b1b1b7bab73a103337b91031b0b731b2b627b93232b960491b6064820152608401610634565b604051637489ec2360e01b8152600481018390527f00000000000000000000000000000000000000000000000000000000000000006001600160a01b031690637489ec2390602401610b86565b611375611ef0565b61137e8261206f565b610e307f00000000000000000000000000000000000000000000000000000000000000008383612370565b6113b1611ef0565b60405163fdfc26f360e01b815260009073__$17bbc74b36df540d4a9b171eb59c5012db$__9063fdfc26f39061140d907f0000000000000000000000000000000000000000000000000000000000000000908690600401614c39565b61016060405180830381865af415801561142b573d6000803e3d6000fd5b505050506040513d601f19601f8201168201806040525081019061144f91906158fa565b90503361145b82515190565b6001600160a01b0316146114b4576040805163a35b150b60e01b8152336004820152602481019190915260176044820152761858d8dbdd5b9d08199bdc8818d85b98d95b14da1a599d604a1b6064820152608401610634565b6040516312d7c51360e31b8152600481018390527f00000000000000000000000000000000000000000000000000000000000000006001600160a01b0316906396be289890602401610b86565b611509611ef0565b60006115347f0000000000000000000000000000000000000000000000000000000000000000612001565b6040516314e22bf560e31b81529091506001600160a01b037f0000000000000000000000000000000000000000000000000000000000000000169063a7115fa890610b869084908690600401614c20565b61158d611ef0565b6040516314e22bf560e31b81526001600160a01b037f0000000000000000000000000000000000000000000000000000000000000000169063a7115fa8906109cd9085908590600401614c20565b6060816001600160401b038111156115f5576115f5613f44565b60405190808252806020026020018201604052801561162857816020015b60608152602001906001900390816116135790505b50905060005b828110156116f2576000803086868581811061164c5761164c614a65565b905060200281019061165e91906159b7565b60405161166c9291906159fd565b600060405180830381855af49150503d80600081146116a7576040519150601f19603f3d011682016040523d82523d6000602084013e6116ac565b606091505b5091509150816116bf576116bf816123f3565b808484815181106116d2576116d2614a65565b6020026020010181905250505080806116ea90614af1565b91505061162e565b505b92915050565b6000611704611ef0565b604051634c5a91e560e11b815233906001600160a01b037f000000000000000000000000000000000000000000000000000000000000000016906398b523ca90610ef39084908790600401615a0d565b600061175e611ef0565b60405163074ed6cf60e21b815233906001600160a01b037f00000000000000000000000000000000000000000000000000000000000000001690631d3b5b3c90610ef39084908790600401615a31565b6117b6611ef0565b604051632f06430560e21b81526001600160a01b037f0000000000000000000000000000000000000000000000000000000000000000169063bc190c149061180690869086908690600401614be7565b600060405180830381600087803b15801561182057600080fd5b505af1158015611834573d6000803e3d6000fd5b505050506118426001600055565b505050565b6060611851611ef0565b82518451146118795783518351604051637363cfa560e01b8152600401610634929190614a57565b6118a67f000000000000000000000000000000000000000000000000000000000000000061066a3061242c565b6118af8261206f565b835133906000906001600160401b038111156118cd576118cd613f44565b6040519080825280602002602001820160405280156118f6578160200160208202803683370190505b50905060005b86518110156107e8576119857f00000000000000000000000000000000000000000000000000000000000000007f000000000000000000000000000000000000000000000000000000000000000089848151811061195c5761195c614a65565b602002602001015189858151811061197657611976614a65565b6020026020010151878a61247b565b82828151811061199757611997614a65565b6020908102919091010152806119ac81614af1565b9150506118fc565b6119bc611ef0565b604051630d59922b60e41b81526001600160a01b037f0000000000000000000000000000000000000000000000000000000000000000169063d59922b090611a0e908790879087908790600401615ae4565b600060405180830381600087803b158015611a2857600080fd5b505af1158015611a3c573d6000803e3d6000fd5b50505050611a4a6001600055565b50505050565b611a58611ef0565b60405163fdfc26f360e01b815260009073__$9dcb75ef0bb6c4288f2ccffe7dc492c4eb$__9063fdfc26f390611ab4907f0000000000000000000000000000000000000000000000000000000000000000908c90600401614c39565b600060405180830381865af4158015611ad1573d6000803e3d6000fd5b505050506040513d6000823e601f3d908101601f19168201604052611af99190810190615763565b905033611b0582515190565b6001600160a01b031614611b5e576040805163a35b150b60e01b81523360048201526024810191909152601760448201527630b1b1b7bab73a103337b9103ab83230ba32a7b93232b960491b6064820152608401610634565b604051631d1a0db560e21b81526001600160a01b037f0000000000000000000000000000000000000000000000000000000000000000169063746836d490611bb8908b908b908b908b908b908b908b908b90600401615bbe565b600060405180830381600087803b158015611bd257600080fd5b505af1158015611be6573d6000803e3d6000fd5b5050505050611bf56001600055565b50505050505050565b611c06611ef0565b6000611c317f0000000000000000000000000000000000000000000000000000000000000000612001565b6040516349e5879960e01b81529091506001600160a01b037f000000000000000000000000000000000000000000000000000000000000000016906349e5879990610b869084908690600401614c20565b611c8a611ef0565b611c938261206f565b6040516303704f0f60e31b81526001600160a01b0384811660048301523360248301819052848216604484015260648301849052917f000000000000000000000000000000000000000000000000000000000000000090911690631b82787890608401600060405180830381600087803b158015611d1057600080fd5b505af1158015611d24573d6000803e3d6000fd5b50505050506118426001600055565b6060611d3d611ef0565b83518551141580611d5057508251845114155b15611d855784518451845160405163216068f960e11b8152600481019390935260248301919091526044820152606401610634565b611db27f000000000000000000000000000000000000000000000000000000000000000061066a30612700565b611dbb8261206f565b845133906000906001600160401b03811115611dd957611dd9613f44565b604051908082528060200260200182016040528015611e02578160200160208202803683370190505b50905060005b8751811015611eda57611eab7f00000000000000000000000000000000000000000000000000000000000000007f00000000000000000000000000000000000000000000000000000000000000008a8481518110611e6857611e68614a65565b60200260200101518a8581518110611e8257611e82614a65565b60200260200101518a8681518110611e9c57611e9c614a65565b6020026020010151888b61274d565b828281518110611ebd57611ebd614a65565b602090810291909101015280611ed281614af1565b915050611e08565b50915050611ee86001600055565b949350505050565b600260005403611f425760405162461bcd60e51b815260206004820152601f60248201527f5265656e7472616e637947756172643a207265656e7472616e742063616c6c006044820152606401610634565b6002600055565b6000604051602001611f8c906020808252601e908201527f434c41494d5f55495f464545535f464541545552455f44495341424c45440000604082015260600190565b60408051601f198184030181528282528051602091820120908301526001600160a01b03841690820152606001604051602081830303815290604052805190602001209050919050565b611fe08282612be5565b156108c05760405163dd70e0c960e01b815260048101829052602401610634565b60008061200d83612c51565b90506000611ee88483612d00565b6000604051602001611f8c9060208082526028908201527f434c41494d5f414646494c494154455f524557415244535f464541545552455f604082015267111254d05093115160c21b606082015260800190565b6001600160a01b038116610bc35760405163d551823d60e01b815260040160405180910390fd5b806000036120a357505050565b6120ac8261206f565b6000836001600160a01b031663bd02d0f56040516020016120fe906020808252601f908201527f4e41544956455f544f4b454e5f5452414e534645525f4741535f4c494d495400604082015260600190565b604051602081830303815290604052805190602001206040518263ffffffff1660e01b815260040161213291815260200190565b602060405180830381865afa15801561214f573d6000803e3d6000fd5b505050506040513d601f19601f820116820180604052508101906121739190614ac2565b90506000806000806000868887f190508015612190575050505050565b61219b858585612370565b5050505050565b6000846001600160a01b031663bd02d0f56040516020016121e89060208082526011908201527026a0ac2faaa4afa322a2afa320a1aa27a960791b604082015260600190565b604051602081830303815290604052805190602001206040518263ffffffff1660e01b815260040161221c91815260200190565b602060405180830381865afa158015612239573d6000803e3d6000fd5b505050506040513d601f19601f8201168201806040525081019061225d9190614ac2565b905080821115612284578181604051638146813960e01b8152600401610634929190614a57565b846001600160a01b031663e2a4853a61229c85612d33565b846040518363ffffffff1660e01b81526004016122ba929190614a57565b6020604051808303816000875af11580156122d9573d6000803e3d6000fd5b505050506040513d601f19601f820116820180604052508101906122fd9190614ac2565b506040516311bfdfd160e21b815273__$c1eebf06e53d0bd092f667687cf73e1ebf$__906346ff7f449061233990879087908790600401615cf4565b60006040518083038186803b15801561235157600080fd5b505af4158015612365573d6000803e3d6000fd5b505050505050505050565b8060000361237d57505050565b6123868261206f565b600061239184612d66565b9050806001600160a01b031663d0e30db0836040518263ffffffff1660e01b81526004016000604051808303818588803b1580156123ce57600080fd5b505af11580156123e2573d6000803e3d6000fd5b5050505050611a4a84828585612e13565b6000806123ff83613049565b915091508015612423578160405162461bcd60e51b81526004016106349190615d18565b611842836130d9565b6000604051602001611f8c9060208082526023908201527f434c41494d5f46554e44494e475f464545535f464541545552455f444953414260408201526213115160ea1b606082015260800190565b6000806124898686866130e2565b60405163bd02d0f560e01b8152600481018290529091506000906001600160a01b038a169063bd02d0f590602401602060405180830381865afa1580156124d4573d6000803e3d6000fd5b505050506040513d601f19601f820116820180604052508101906124f89190614ac2565b604051637152429d60e11b81529091506001600160a01b038a169063e2a4853a9061252a908590600090600401614a57565b6020604051808303816000875af1158015612549573d6000803e3d6000fd5b505050506040513d601f19601f8201168201806040525081019061256d9190614ac2565b506000896001600160a01b031663e98aabc16125898a8a613153565b846040518363ffffffff1660e01b81526004016125a7929190614a57565b6020604051808303816000875af11580156125c6573d6000803e3d6000fd5b505050506040513d601f19601f820116820180604052508101906125ea9190614ac2565b60405163078d3b7960e01b81529091506001600160a01b0389169063078d3b799061261d908a9089908790600401615cf4565b600060405180830381600087803b15801561263757600080fd5b505af115801561264b573d6000803e3d6000fd5b505050506126598a896131a1565b604051634ee4c83160e01b81526001600160a01b03808b166004830152808a166024830152808916604483015280881660648301528616608482015260a4810183905260c4810182905273__$c1eebf06e53d0bd092f667687cf73e1ebf$__90634ee4c8319060e40160006040518083038186803b1580156126da57600080fd5b505af41580156126ee573d6000803e3d6000fd5b50939c9b505050505050505050505050565b6000604051602001611f8c9060208082526021908201527f434c41494d5f434f4c4c41544552414c5f464541545552455f44495341424c456040820152601160fa1b606082015260800190565b600080886001600160a01b031663bd02d0f561276b898989896131b9565b6040518263ffffffff1660e01b815260040161278991815260200190565b602060405180830381865afa1580156127a6573d6000803e3d6000fd5b505050506040513d601f19601f820116820180604052508101906127ca9190614ac2565b90506000808a6001600160a01b031663bd02d0f56127e98b8b8b613231565b6040518263ffffffff1660e01b815260040161280791815260200190565b602060405180830381865afa158015612824573d6000803e3d6000fd5b505050506040513d601f19601f820116820180604052508101906128489190614ac2565b905060008b6001600160a01b031663bd02d0f56128678c8c8c8c613286565b6040518263ffffffff1660e01b815260040161288591815260200190565b602060405180830381865afa1580156128a2573d6000803e3d6000fd5b505050506040513d601f19601f820116820180604052508101906128c69190614ac2565b90508082116128d557806128d7565b815b9250505068327cb2734119d3b7a9601e1b81111561290b57604051636c2738d360e01b815260048101829052602401610634565b60008a6001600160a01b031663bd02d0f56129288b8b8b8b613297565b6040518263ffffffff1660e01b815260040161294691815260200190565b602060405180830381865afa158015612963573d6000803e3d6000fd5b505050506040513d601f19601f820116820180604052508101906129879190614ac2565b9050600061299584846132d6565b90508181116129bb578082604051631d8db13960e31b8152600401610634929190614a57565b60006129c78383615d2b565b90508c6001600160a01b031663e2a4853a6129e48d8d8d8d613297565b846040518363ffffffff1660e01b8152600401612a02929190614a57565b6020604051808303816000875af1158015612a21573d6000803e3d6000fd5b505050506040513d601f19601f82011682018060405250810190612a459190614ac2565b5060008d6001600160a01b031663e98aabc1612a618e8e6132ef565b846040518363ffffffff1660e01b8152600401612a7f929190614a57565b6020604051808303816000875af1158015612a9e573d6000803e3d6000fd5b505050506040513d601f19601f82011682018060405250810190612ac29190614ac2565b60405163078d3b7960e01b81529091506001600160a01b038d169063078d3b7990612af5908e908c908790600401615cf4565b600060405180830381600087803b158015612b0f57600080fd5b505af1158015612b23573d6000803e3d6000fd5b50505050612b318e8d6131a1565b6040516359e8c46f60e11b81526001600160a01b03808f166004830152808e166024830152808d166044830152606482018c9052808b166084830152891660a482015260c4810183905260e4810182905273__$c1eebf06e53d0bd092f667687cf73e1ebf$__9063b3d188de906101040160006040518083038186803b158015612bba57600080fd5b505af4158015612bce573d6000803e3d6000fd5b509398505050505050505050979650505050505050565b604051633d70e7e560e11b8152600481018290526000906001600160a01b03841690637ae1cfca90602401602060405180830381865afa158015612c2d573d6000803e3d6000fd5b505050506040513d601f19601f820116820180604052508101906107f69190615d3e565b6000816001600160a01b031663bd02d0f5604051602001612c8b906020808252600590820152644e4f4e434560d81b604082015260600190565b604051602081830303815290604052805190602001206040518263ffffffff1660e01b8152600401612cbf91815260200190565b602060405180830381865afa158015612cdc573d6000803e3d6000fd5b505050506040513d601f19601f820116820180604052508101906116f49190614ac2565b60008282604051602001612d15929190614c39565b60405160208183030381529060405280519060200120905092915050565b6000604051602001611f8c906020808252600d908201526c2aa4afa322a2afa320a1aa27a960991b604082015260600190565b6000816001600160a01b03166321f8a721604051602001612d9e9060208082526003908201526215d39560ea1b604082015260600190565b604051602081830303815290604052805190602001206040518263ffffffff1660e01b8152600401612dd291815260200190565b602060405180830381865afa158015612def573d6000803e3d6000fd5b505050506040513d601f19601f820116820180604052508101906116f49190615d5b565b8015611a4a57612e228261206f565b6000846001600160a01b031663bd02d0f5612e3c86613300565b6040518263ffffffff1660e01b8152600401612e5a91815260200190565b602060405180830381865afa158015612e77573d6000803e3d6000fd5b505050506040513d601f19601f82011682018060405250810190612e9b9190614ac2565b905080600003612ec05783604051634fe14bfd60e11b815260040161063491906143ed565b6000612ece8585858561333e565b5090508015612ede575050611a4a565b6000866001600160a01b03166321f8a721604051602001612f22906020808252600f908201526e484f4c44494e475f4144445245535360881b604082015260600190565b604051602081830303815290604052805190602001206040518263ffffffff1660e01b8152600401612f5691815260200190565b602060405180830381865afa158015612f73573d6000803e3d6000fd5b505050506040513d601f19601f82011682018060405250810190612f979190615d5b565b90506001600160a01b038116612fc057604051633a6de2f560e21b815260040160405180910390fd5b600080612fcf8884888861333e565b915091508115612fe3575050505050611a4a565b6000612fee82613049565b5090507fc9f14d9a0a9b46470c7c0b6c508f8283abaab7f795f153953c58cd4250824dae8183604051613022929190615d78565b60405180910390a188888860405163012f3b8f60e71b815260040161063493929190615cf4565b60606000604483511015613070575050604080516020810190915260008082529092909150565b600061307d846020015190565b90506307b9e43360e51b6001600160e01b03198216016130bc57600484019350838060200190518101906130b19190615d9d565b946001945092505050565b600060405180602001604052806000815250909250925050915091565b80518060208301fd5b60006040516020016130f390615e0a565b60408051601f198184030181528282528051602091820120908301526001600160a01b038087169183019190915280851660608301528316608082015260a0015b6040516020818303038152906040528051906020012090509392505050565b600060405160200161316490615e0a565b60408051601f198184030181528282528051602091820120908301526001600160a01b038086169183019190915283166060820152608001612d15565b60006131ad83836134a6565b90506118428382613553565b60006040516020016131ca90615e3c565b60408051601f198184030181528282528051602091820120908301526001600160a01b0380881691830191909152808616606083015260808201859052831660a082015260c001604051602081830303815290604052805190602001209050949350505050565b600060405160200161324290615e71565b60408051601f198184030181528282528051602091820120908301526001600160a01b0380871691830191909152841660608201526080810183905260a001613134565b60006040516020016131ca90615e71565b60006040516020016131ca9060208082526019908201527810d3105253515117d0d3d31310551154905317d05353d55395603a1b604082015260600190565b60006107f6838368327cb2734119d3b7a9601e1b613596565b600060405160200161316490615e3c565b6000604051602001611f8c906020808252601890820152771513d2d15397d514905394d1915497d1d054d7d31253525560421b604082015260600190565b60006060600063a9059cbb60e01b868660405160240161335f929190614c39565b604051602081830303815290604052906001600160e01b0319166020820180516001600160e01b0383818316178352505050509050600080886001600160a01b031686846040516133b09190615ea6565b60006040518083038160008787f1925050503d80600081146133ee576040519150601f19603f3d011682016040523d82523d6000602084013e6133f3565b606091505b50915091508115613494578051600003613451576001600160a01b0389163b6134515760006040518060400160405280601481526020017310d85b1b081d1bc81b9bdb8b58dbdb9d1c9858dd60621b8152509450945050505061349d565b600081511180156134735750808060200190518101906134719190615d3e565b155b156134865760009450925061349d915050565b60019450925061349d915050565b60009450925050505b94509492505050565b60408051608081018252600080825260208201819052918101829052606081019190915260405163a8d8fff560e01b815260009073__$ff439aa65a80c9eec648f15db20b189505$__9063a8d8fff5906135069087908790600401615ec2565b608060405180830381865af4158015613523573d6000803e3d6000fd5b505050506040513d601f19601f820116820180604052508101906135479190615edc565b90506107f684826135a3565b6135628282836040015161366c565b80606001516001600160a01b031681604001516001600160a01b031603613587575050565b6108c08282836060015161366c565b6000611ee8848484613861565b80516001600160a01b03166135cb576040516302fde0d760e11b815260040160405180910390fd5b6000826001600160a01b0316637ae1cfca6135e9846000015161394b565b6040518263ffffffff1660e01b815260040161360791815260200190565b602060405180830381865afa158015613624573d6000803e3d6000fd5b505050506040513d601f19601f820116820180604052508101906136489190615d3e565b905080156118425781516040516309f8c93760e01b815261063491906004016143ed565b81516001600160a01b0316158061368a57506001600160a01b038116155b156136ad57815160405163e474a42560e01b815261063491908390600401615ec2565b81516040516370a0823160e01b81526000916001600160a01b038416916370a08231916136dc916004016143ed565b602060405180830381865afa1580156136f9573d6000803e3d6000fd5b505050506040513d601f19601f8201168201806040525081019061371d9190614ac2565b9050600061372c858585613983565b9050808210156137585783516040516333a1ea6b60e01b81526106349190859085908590600401615f43565b600061376c86866000015186600180613ca6565b90506137818686600001518660006001613ca6565b61378b9082615f6c565b9050808310156137b757845160405163808c464f60e01b81526106349190869086908590600401615f43565b6000866001600160a01b031663bd02d0f56137d6886000015188613153565b6040518263ffffffff1660e01b81526004016137f491815260200190565b602060405180830381865afa158015613811573d6000803e3d6000fd5b505050506040513d601f19601f820116820180604052508101906138359190614ac2565b905080841015611bf5578551604051639dd026db60e01b81526106349190879087908590600401615f43565b600080806000198587098587029250828110838203039150508060000361389b5783828161389157613891615f7f565b04925050506107f6565b8084116138e25760405162461bcd60e51b81526020600482015260156024820152744d6174683a206d756c446976206f766572666c6f7760581b6044820152606401610634565b60008486880960026001871981018816978890046003810283188082028403028082028403028082028403028082028403028082028403029081029092039091026000889003889004909101858311909403939093029303949094049190911702949350505050565b6000604051602001611f8c906020808252601290820152711254d7d3505492d15517d11254d05093115160721b604082015260600190565b60006139be6040518060c001604052806000815260200160008152602001600081526020016000815260200160008152602001600081525090565b846001600160a01b031663bd02d0f56139db866000015186613d36565b6040518263ffffffff1660e01b81526004016139f991815260200190565b602060405180830381865afa158015613a16573d6000803e3d6000fd5b505050506040513d601f19601f82011682018060405250810190613a3a9190614ac2565b81528351613a4a90869085613d67565b602082015283516001600160a01b0386169063bd02d0f590613a6c90866132ef565b6040518263ffffffff1660e01b8152600401613a8a91815260200190565b602060405180830381865afa158015613aa7573d6000803e3d6000fd5b505050506040513d601f19601f82011682018060405250810190613acb9190614ac2565b604082015283516001600160a01b0386169063bd02d0f590613aed9086613de1565b6040518263ffffffff1660e01b8152600401613b0b91815260200190565b602060405180830381865afa158015613b28573d6000803e3d6000fd5b505050506040513d601f19601f82011682018060405250810190613b4c9190614ac2565b606082015283516001600160a01b0386169063bd02d0f590613b6e9086613e1b565b6040518263ffffffff1660e01b8152600401613b8c91815260200190565b602060405180830381865afa158015613ba9573d6000803e3d6000fd5b505050506040513d601f19601f82011682018060405250810190613bcd9190614ac2565b608082015283516001600160a01b0386169063bd02d0f590613bef9086613e58565b6040518263ffffffff1660e01b8152600401613c0d91815260200190565b602060405180830381865afa158015613c2a573d6000803e3d6000fd5b505050506040513d601f19601f82011682018060405250810190613c4e9190614ac2565b60a0820181905260808201516060830151604084015160208501518551613c759190615f6c565b613c7f9190615f6c565b613c899190615f6c565b613c939190615f6c565b613c9d9190615f6c565b95945050505050565b600081866001600160a01b031663bd02d0f5613cc3888888613e8e565b6040518263ffffffff1660e01b8152600401613ce191815260200190565b602060405180830381865afa158015613cfe573d6000803e3d6000fd5b505050506040513d601f19601f82011682018060405250810190613d229190614ac2565b613d2c9190615f95565b9695505050505050565b6000604051602001613164906020808252600b908201526a1413d3d317d05353d5539560aa1b604082015260600190565b6000836001600160a01b031663bd02d0f5613d828585613f07565b6040518263ffffffff1660e01b8152600401613da091815260200190565b602060405180830381865afa158015613dbd573d6000803e3d6000fd5b505050506040513d601f19601f82011682018060405250810190611ee89190614ac2565b60006040516020016131649060208082526014908201527310d31052535050931157d1915157d05353d5539560621b604082015260600190565b60006040516020016131649060208082526017908201527610d31052535050931157d55257d1915157d05353d55395604a1b604082015260600190565b60006040516020016131649060208082526010908201526f10519192531250551157d49155d0549160821b604082015260600190565b6000604051602001613ec2906020808252600e908201526d434f4c4c41544552414c5f53554d60901b604082015260600190565b60408051601f198184030181528282528051602091820120908301526001600160a01b038087169183019190915284166060820152821515608082015260a001613134565b60006040516020016131649060208082526017908201527614d5d05417d253541050d517d413d3d317d05353d55395604a1b604082015260600190565b634e487b7160e01b600052604160045260246000fd5b604051608081016001600160401b0381118282101715613f7c57613f7c613f44565b60405290565b604080519081016001600160401b0381118282101715613f7c57613f7c613f44565b60405160c081016001600160401b0381118282101715613f7c57613f7c613f44565b604051606081016001600160401b0381118282101715613f7c57613f7c613f44565b60405161012081016001600160401b0381118282101715613f7c57613f7c613f44565b60405160e081016001600160401b0381118282101715613f7c57613f7c613f44565b60405161016081016001600160401b0381118282101715613f7c57613f7c613f44565b60405161010081016001600160401b0381118282101715613f7c57613f7c613f44565b604051601f8201601f191681016001600160401b038111828210171561409b5761409b613f44565b604052919050565b60006001600160401b038211156140bc576140bc613f44565b5060051b60200190565b6001600160a01b0381168114610bc357600080fd5b8035610f43816140c6565b600082601f8301126140f757600080fd5b8135602061410c614107836140a3565b614073565b82815260059290921b8401810191818101908684111561412b57600080fd5b8286015b8481101561414f578035614142816140c6565b835291830191830161412f565b509695505050505050565b60008060006060848603121561416f57600080fd5b83356001600160401b038082111561418657600080fd5b614192878388016140e6565b945060208601359150808211156141a857600080fd5b506141b5868287016140e6565b92505060408401356141c6816140c6565b809150509250925092565b6020808252825182820181905260009190848201906040850190845b81811015614209578351835292840192918401916001016141ed565b50909695505050505050565b60006080828403121561422757600080fd5b61422f613f5a565b905081356001600160401b038082111561424857600080fd5b614254858386016140e6565b835260209150818401358181111561426b57600080fd5b84019050601f8101851361427e57600080fd5b803561428c614107826140a3565b81815260069190911b820183019083810190878311156142ab57600080fd5b928401925b828410156142ee57604084890312156142c95760008081fd5b6142d1613f82565b8435815285850135868201528252604090930192908401906142b0565b80858701525050505050604082013560408201526060820135606082015292915050565b803560058110610f4357600080fd5b6000806040838503121561433457600080fd5b82356001600160401b0381111561434a57600080fd5b61435685828601614215565b92505061436560208401614312565b90509250929050565b6000806040838503121561438157600080fd5b823561438c816140c6565b9150602083013561439c816140c6565b809150509250929050565b600080604083850312156143ba57600080fd5b8235915060208301356001600160401b038111156143d757600080fd5b6143e385828601614215565b9150509250929050565b6001600160a01b0391909116815260200190565b60006020828403121561441357600080fd5b5035919050565b6000806040838503121561442d57600080fd5b8235614438816140c6565b946020939093013593505050565b60006020828403121561445857600080fd5b81356001600160401b0381111561446e57600080fd5b820161018081850312156107f657600080fd5b60006020828403121561449357600080fd5b81356001600160401b038111156144a957600080fd5b82016101e081850312156107f657600080fd5b6000602082840312156144ce57600080fd5b81356001600160401b038111156144e457600080fd5b611ee884828501614215565b6000610160828403121561450357600080fd5b50919050565b6000806040838503121561451c57600080fd5b82356001600160401b038082111561453357600080fd5b61453f868387016144f0565b9350602085013591508082111561455557600080fd5b5083016060818603121561439c57600080fd5b6000806020838503121561457b57600080fd5b82356001600160401b038082111561459257600080fd5b818501915085601f8301126145a657600080fd5b8135818111156145b557600080fd5b8660208260051b85010111156145ca57600080fd5b60209290920196919550909350505050565b60005b838110156145f75781810151838201526020016145df565b50506000910152565b600081518084526146188160208601602086016145dc565b601f01601f19169290920160200192915050565b600081518084526020808501808196508360051b8101915082860160005b85811015614674578284038952614662848351614600565b9885019893509084019060010161464a565b5091979650505050505050565b6020815260006107f6602083018461462c565b6000602082840312156146a657600080fd5b81356001600160401b038111156146bc57600080fd5b611ee8848285016144f0565b6000610100828403121561450357600080fd5b6000806000606084860312156146f057600080fd5b8335925060208401356001600160401b0381111561470d57600080fd5b61471986828701614215565b92505061472860408501614312565b90509250925092565b60006001600160401b0382111561474a5761474a613f44565b50601f01601f191660200190565b6000806000806080858703121561476e57600080fd5b84356001600160401b038082111561478557600080fd5b614791888389016140e6565b95506020915081870135818111156147a857600080fd5b8701601f810189136147b957600080fd5b80356147c7614107826140a3565b81815260059190911b8201840190848101908b8311156147e657600080fd5b8584015b8381101561485a5780358681111561480157600080fd5b8501603f81018e1361481257600080fd5b8781013561482261410782614731565b8181528f60408385010111156148385760008081fd5b81604084018b83013760009181018a01919091528452509186019186016147ea565b509750505050604087013591508082111561487457600080fd5b614880888389016140e6565b9350606087013591508082111561489657600080fd5b506148a3878288016140e6565b91505092959194509250565b8015158114610bc357600080fd5b8035610f43816148af565b600080600080600080600060e0888a0312156148e357600080fd5b873596506020880135955060408801359450606088013593506080880135925060a0880135915060c0880135614918816148af565b8091505092959891949750929550565b60008060006060848603121561493d57600080fd5b8335614948816140c6565b92506020840135614958816140c6565b929592945050506040919091013590565b6000806000806080858703121561497f57600080fd5b84356001600160401b038082111561499657600080fd5b6149a2888389016140e6565b95506020915081870135818111156149b957600080fd5b6149c589828a016140e6565b9550506040870135818111156149da57600080fd5b87019050601f810188136149ed57600080fd5b80356149fb614107826140a3565b81815260059190911b8201830190838101908a831115614a1a57600080fd5b928401925b82841015614a3857833582529284019290840190614a1f565b8096505050505050614a4c606086016140db565b905092959194509250565b918252602082015260400190565b634e487b7160e01b600052603260045260246000fd5b6001600160a01b03169052565b6001600160a01b0396871681529486166020860152928516604085015290841660608401528316608083015290911660a082015260c00190565b600060208284031215614ad457600080fd5b5051919050565b634e487b7160e01b600052601160045260246000fd5b600060018201614b0357614b03614adb565b5060010190565b600081518084526020808501945080840160005b83811015614b435781516001600160a01b031687529582019590820190600101614b1e565b509495945050505050565b6000815160808452614b636080850182614b0a565b60208481015186830387830152805180845290820193509091600091908301905b80831015614baf57845180518352840151848301529383019360019290920191604090910190614b84565b5060408601516040880152606086015160608801528094505050505092915050565b634e487b7160e01b600052602160045260246000fd5b838152606060208201526000614c006060830185614b4e565b905060058310614c1257614c12614bd1565b826040830152949350505050565b828152604060208201526000611ee86040830184614b4e565b6001600160a01b03929092168252602082015260400190565b8051610f43816140c6565b600082601f830112614c6e57600080fd5b81516020614c7e614107836140a3565b82815260059290921b84018101918181019086841115614c9d57600080fd5b8286015b8481101561414f578051614cb4816140c6565b8352918301918301614ca1565b600060c08284031215614cd357600080fd5b614cdb613fa4565b9050815181526020820151602082015260408201516040820152606082015160608201526080820151608082015260a082015160a082015292915050565b600060208284031215614d2b57600080fd5b604051602081016001600160401b0381118282101715614d4d57614d4d613f44565b80604052508091508251614d60816148af565b905292915050565b600060208284031215614d7a57600080fd5b81516001600160401b0380821115614d9157600080fd5b8184019150610100808387031215614da857600080fd5b614db0613fc6565b835183811115614dbf57600080fd5b84016101208189031215614dd257600080fd5b614dda613fe8565b614de382614c52565b8152614df160208301614c52565b6020820152614e0260408301614c52565b6040820152614e1360608301614c52565b6060820152614e2460808301614c52565b6080820152614e3560a08301614c52565b60a0820152614e4660c08301614c52565b60c082015260e082015185811115614e5d57600080fd5b614e698a828501614c5d565b60e0830152508382015185811115614e8057600080fd5b614e8c8a828501614c5d565b8286015250825250614ea18760208601614cc1565b6020820152614eb38760e08601614d19565b60408201529695505050505050565b6000808335601e19843603018112614ed957600080fd5b83016020810192503590506001600160401b03811115614ef857600080fd5b8060051b3603821315614f0a57600080fd5b9250929050565b8183526000602080850194508260005b85811015614b43578135614f34816140c6565b6001600160a01b031687529582019590820190600101614f21565b6001600160a01b0383168152604060208201819052614f78908201614f73846140db565b614a7b565b6000614f86602084016140db565b614f936060840182614a7b565b50614fa0604084016140db565b614fad6080840182614a7b565b50614fba606084016140db565b614fc760a0840182614a7b565b50614fd4608084016140db565b614fe160c0840182614a7b565b50614fee60a084016140db565b614ffb60e0840182614a7b565b5061500960c0840184614ec2565b61018061010081818701526150236101c087018486614f11565b935061503260e0880188614ec2565b9350610120603f19888703018189015261504d868684614f11565b955061014094508289013585890152615067818a016148bd565b9250505061016061507b8188018315159052565b928701359186019190915250909301356101a09092019190915250919050565b600081356150a8816140c6565b6001600160a01b0390811684526020830135906150c4826140c6565b90811660208501526040830135906150db826140c6565b90811660408501526060830135906150f2826140c6565b9081166060850152608083013590615109826140c6565b16608084015261511b60a083016140db565b61512860a0850182614a7b565b5061513660c0830183614ec2565b60e060c0860152613c9d60e086018284614f11565b60098110610bc357600080fd5b8035610f438161514b565b6009811061517357615173614bd1565b9052565b60038110610bc357600080fd5b8035610f4381615177565b6003811061517357615173614bd1565b6001600160a01b038316815260406020820152600082353684900360de190181126151c957600080fd5b6101e08060408501526151e2610220850186840161509b565b915061523d6060850160208701803582526020810135602083015260408101356040830152606081013560608301526080810135608083015260a081013560a083015260c081013560c083015260e081013560e08301525050565b61524a6101208601615158565b61016061525981870183615163565b6152666101408801615184565b91506101806152778188018461518f565b6152828289016148bd565b92506101a091506152968288018415159052565b6152a18189016148bd565b9250506101c06152b48188018415159052565b6152bf8289016148bd565b151593870193909352505093909301356102009092019190915250919050565b60006101606152f184614f73856140db565b6152fd602084016140db565b61530a6020860182614a7b565b50615317604084016140db565b6153246040860182614a7b565b50615331606084016140db565b61533e6060860182614a7b565b5061534c6080840184614ec2565b82608087015261535f8387018284614f11565b9250505061537060a0840184614ec2565b85830360a0870152615383838284614f11565b9250505060c083013560c085015260e083013560e08501526101006153a98185016148bd565b15159085015261012083810135908501526101409283013592909301919091525090565b81835281816020850137506000828201602090810191909152601f909101601f19169091010190565b6001600160a01b03841681526060602080830182905260009161541b908401866152df565b838103604085015261542d8586614ec2565b6060835261543f606084018284614f11565b91505061544e83870187614ec2565b83830385850152615460838284614f11565b925050506154716040870187614ec2565b83830360408501528293508083528483019350848160051b8401018260005b838110156154ff57858303601f19018752813536869003601e190181126154b657600080fd5b850188810190356001600160401b038111156154d157600080fd5b8036038213156154e057600080fd5b6154eb8582846153cd565b988a01989450505090870190600101615490565b50909b9a5050505050505050505050565b60006020828403121561552257600080fd5b81516001600160401b038082111561553957600080fd5b90830190610100828603121561554e57600080fd5b615556613fc6565b82518281111561556557600080fd5b830160e0818803121561557757600080fd5b61557f61400b565b61558882614c52565b815261559660208301614c52565b60208201526155a760408301614c52565b60408201526155b860608301614c52565b60608201526155c960808301614c52565b608082015260a0820151848111156155e057600080fd5b6155ec89828501614c5d565b60a08301525060c08201518481111561560457600080fd5b61561089828501614c5d565b60c0830152508252506156268660208501614cc1565b60208201526156388660e08501614d19565b604082015295945050505050565b8051610f438161514b565b8051610f4381615177565b6000610160828403121561566f57600080fd5b61567761402d565b905061568282615646565b815261569060208301615651565b602082015260408201516040820152606082015160608201526080820151608082015260a082015160a082015260c082015160c082015260e082015160e082015261010080830151818301525061012080830151818301525061014080830151818301525092915050565b60006080828403121561570d57600080fd5b615715613f5a565b90508151615722816148af565b81526020820151615732816148af565b60208201526040820151615745816148af565b60408201526060820151615758816148af565b606082015292915050565b60006020828403121561577557600080fd5b81516001600160401b038082111561578c57600080fd5b9083019061020082860312156157a157600080fd5b6157a9613fc6565b8251828111156157b857600080fd5b830161010081880312156157cb57600080fd5b6157d3614050565b6157dc82614c52565b81526157ea60208301614c52565b60208201526157fb60408301614c52565b604082015261580c60608301614c52565b606082015261581d60808301614c52565b608082015261582e60a08301614c52565b60a082015261583f60c08301614c52565b60c082015260e08201518481111561585657600080fd5b61586289828501614c5d565b60e083015250825250615878866020850161565c565b60208201526156388661018085016156fb565b600060a0828403121561589d57600080fd5b60405160a081016001600160401b03811182821017156158bf576158bf613f44565b806040525080915082518152602083015160208201526040830151604082015260608301516060820152608083015160808201525092915050565b600081830361016081121561590e57600080fd5b615916613f82565b60c082121561592457600080fd5b61592c613fa4565b91508351615939816140c6565b82526020840151615949816140c6565b6020830152604084015161595c816140c6565b6040830152606084015161596f816140c6565b60608301526080840151615982816140c6565b608083015260a0840151615995816140c6565b60a08301528181526159aa8560c0860161588b565b6020820152949350505050565b6000808335601e198436030181126159ce57600080fd5b8301803591506001600160401b038211156159e857600080fd5b602001915036819003821315614f0a57600080fd5b8183823760009101908152919050565b6001600160a01b0383168152604060208201819052600090611ee8908301846152df565b6001600160a01b0383811682526101208201908335615a4f816140c6565b8181166020850152506020840135615a66816140c6565b81811660408501525050615a7c604084016140db565b615a896060840182614a7b565b50615a96606084016140db565b615aa36080840182614a7b565b50615ab0608084016140db565b615abd60a0840182614a7b565b5060a083013560c083015260c083013560e083015260e08301356101008301529392505050565b608081526000615af76080830187614b0a565b8281036020840152615b09818761462c565b90508281036040840152615b1d8186614b0a565b90508281036060840152615b318185614b0a565b979650505050505050565b615b47828251615163565b6020810151615b59602084018261518f565b5060408101516040830152606081015160608301526080810151608083015260a081015160a083015260c081015160c083015260e081015160e08301526101008082015181840152506101208082015181840152506101408082015181840152505050565b60006101008a83528960208401528860408401528760608401528660808401528560a084015284151560c08401528060e084015283516102008285015260018060a01b038082511661030086015280602083015116610320860152506040810151615c2d610340860182614a7b565b506060810151615c41610360860182614a7b565b506080810151615c55610380860182614a7b565b5060a0810151615c696103a0860182614a7b565b5060c0810151615c7d6103c0860182614a7b565b5060e001516103e08401829052615c98610400850182614b0a565b9150506020840151615cae610120850182615b3c565b5060408481015180511515610280860152602081015115156102a08601529081015115156102c0850152606081015115156102e0850152509a9950505050505050505050565b6001600160a01b039384168152919092166020820152604081019190915260600190565b6020815260006107f66020830184614600565b818103818111156116f4576116f4614adb565b600060208284031215615d5057600080fd5b81516107f6816148af565b600060208284031215615d6d57600080fd5b81516107f6816140c6565b604081526000615d8b6040830185614600565b8281036020840152613c9d8185614600565b600060208284031215615daf57600080fd5b81516001600160401b03811115615dc557600080fd5b8201601f81018413615dd657600080fd5b8051615de461410782614731565b818152856020838501011115615df957600080fd5b613c9d8260208301602086016145dc565b60208082526018908201527710d31052535050931157d1955391125391d7d05353d5539560421b604082015260600190565b6020808252601b908201527a10d31052535050931157d0d3d31310551154905317d05353d55395602a1b604082015260600190565b6020808252601b908201527a21a620a4a6a0a12622afa1a7a62620aa22a920a62fa320a1aa27a960291b604082015260600190565b60008251615eb88184602087016145dc565b9190910192915050565b6001600160a01b0392831681529116602082015260400190565b600060808284031215615eee57600080fd5b615ef6613f5a565b8251615f01816140c6565b81526020830151615f11816140c6565b60208201526040830151615f24816140c6565b60408201526060830151615f37816140c6565b60608201529392505050565b6001600160a01b0394851681529290931660208301526040820152606081019190915260800190565b808201808211156116f4576116f4614adb565b634e487b7160e01b600052601260045260246000fd5b600082615fb257634e487b7160e01b600052601260045260246000fd5b50049056fea26469706673582212202d733f7e2e47f51307c4ef81c44a9bf9d3d81d501c695b11f2c92639af80abb264736f6c63430008120033",
  "linkReferences": {
    "contracts/callback/CallbackUtils.sol": {
      "CallbackUtils": [
        {
          "length": 20,
          "start": 3137
        }
      ]
    },
    "contracts/deposit/DepositStoreUtils.sol": {
      "DepositStoreUtils": [
        {
          "length": 20,
          "start": 3382
        }
      ]
    },
    "contracts/fee/FeeUtils.sol": {
      "FeeUtils": [
        {
          "length": 20,
          "start": 2536
        }
      ]
    },
    "contracts/market/MarketEventUtils.sol": {
      "MarketEventUtils": [
        {
          "length": 20,
          "start": 9774
        },
        {
          "length": 20,
          "start": 10694
        },
        {
          "length": 20,
          "start": 11941
        }
      ]
    },
    "contracts/market/MarketStoreUtils.sol": {
      "MarketStoreUtils": [
        {
          "length": 20,
          "start": 14333
        }
      ]
    },
    "contracts/order/OrderStoreUtils.sol": {
      "OrderStoreUtils": [
        {
          "length": 20,
          "start": 5403
        },
        {
          "length": 20,
          "start": 7563
        }
      ]
    },
    "contracts/referral/ReferralUtils.sol": {
      "ReferralUtils": [
        {
          "length": 20,
          "start": 3998
        }
      ]
    },
    "contracts/shift/ShiftStoreUtils.sol": {
      "ShiftStoreUtils": [
        {
          "length": 20,
          "start": 5860
        }
      ]
    },
    "contracts/withdrawal/WithdrawalStoreUtils.sol": {
      "WithdrawalStoreUtils": [
        {
          "length": 20,
          "start": 5051
        }
      ]
    }
  },
  "deployedLinkReferences": {
    "contracts/callback/CallbackUtils.sol": {
      "CallbackUtils": [
        {
          "length": 20,
          "start": 2336
        }
      ]
    },
    "contracts/deposit/DepositStoreUtils.sol": {
      "DepositStoreUtils": [
        {
          "length": 20,
          "start": 2581
        }
      ]
    },
    "contracts/fee/FeeUtils.sol": {
      "FeeUtils": [
        {
          "length": 20,
          "start": 1735
        }
      ]
    },
    "contracts/market/MarketEventUtils.sol": {
      "MarketEventUtils": [
        {
          "length": 20,
          "start": 8973
        },
        {
          "length": 20,
          "start": 9893
        },
        {
          "length": 20,
          "start": 11140
        }
      ]
    },
    "contracts/market/MarketStoreUtils.sol": {
      "MarketStoreUtils": [
        {
          "length": 20,
          "start": 13532
        }
      ]
    },
    "contracts/order/OrderStoreUtils.sol": {
      "OrderStoreUtils": [
        {
          "length": 20,
          "start": 4602
        },
        {
          "length": 20,
          "start": 6762
        }
      ]
    },
    "contracts/referral/ReferralUtils.sol": {
      "ReferralUtils": [
        {
          "length": 20,
          "start": 3197
        }
      ]
    },
    "contracts/shift/ShiftStoreUtils.sol": {
      "ShiftStoreUtils": [
        {
          "length": 20,
          "start": 5059
        }
      ]
    },
    "contracts/withdrawal/WithdrawalStoreUtils.sol": {
      "WithdrawalStoreUtils": [
        {
          "length": 20,
          "start": 4250
        }
      ]
    }
  }
}