{
  "_format": "hh-sol-artifact-1",
  "contractName": "FeeBatchStoreUtils",
  "sourceName": "contracts/fee/FeeBatchStoreUtils.sol",
  "abi": [
    {
      "inputs": [
        {
          "internalType": "bytes32",
          "name": "key",
          "type": "bytes32"
        }
      ],
      "name": "FeeBatchNotFound",
      "type": "error"
    },
    {
      "inputs": [],
      "name": "CREATED_AT",
      "outputs": [
        {
          "internalType": "bytes32",
          "name": "",
          "type": "bytes32"
        }
      ],
      "stateMutability": "view",
      "type": "function"
    },
    {
      "inputs": [],
      "name": "FEE_AMOUNTS",
      "outputs": [
        {
          "internalType": "bytes32",
          "name": "",
          "type": "bytes32"
        }
      ],
      "stateMutability": "view",
      "type": "function"
    },
    {
      "inputs": [],
      "name": "FEE_TOKENS",
      "outputs": [
        {
          "internalType": "bytes32",
          "name": "",
          "type": "bytes32"
        }
      ],
      "stateMutability": "view",
      "type": "function"
    },
    {
      "inputs": [],
      "name": "REMAINING_AMOUNTS",
      "outputs": [
        {
          "internalType": "bytes32",
          "name": "",
          "type": "bytes32"
        }
      ],
      "stateMutability": "view",
      "type": "function"
    },
    {
      "inputs": [
        {
          "internalType": "contract DataStore",
          "name": "dataStore",
          "type": "DataStore"
        },
        {
          "internalType": "bytes32",
          "name": "key",
          "type": "bytes32"
        }
      ],
      "name": "get",
      "outputs": [
        {
          "components": [
            {
              "internalType": "address[]",
              "name": "feeTokens",
              "type": "address[]"
            },
            {
              "internalType": "uint256[]",
              "name": "feeAmounts",
              "type": "uint256[]"
            },
            {
              "internalType": "uint256[]",
              "name": "remainingAmounts",
              "type": "uint256[]"
            },
            {
              "internalType": "uint256",
              "name": "createdAt",
              "type": "uint256"
            }
          ],
          "internalType": "struct FeeBatch.Props",
          "name": "",
          "type": "tuple"
        }
      ],
      "stateMutability": "view",
      "type": "function"
    }
  ],
  "bytecode": "0x6112f461003a600b82828239805160001a60731461002d57634e487b7160e01b600052600060045260246000fd5b30600052607381538281f3fe73000000000000000000000000000000000000000030146080604052600436106100775760003560e01c8063780606871461007c5780639fb35d3614610097578063b56a2dc61461009f578063c118fc1c146100a7578063d5517b14146100af578063e1fbaed3146100d1578063fdfc26f3146100f1575b600080fd5b610084610111565b6040519081526020015b60405180910390f35b610084610139565b610084610148565b610084610157565b8180156100bb57600080fd5b506100cf6100ca366004610cba565b610166565b005b8180156100dd57600080fd5b506100cf6100ec366004610de2565b610555565b6101046100ff366004610cba565b6108b1565b60405161008e9190610f55565b60405160200161012090610ff8565b6040516020818303038152906040528051906020012081565b60405160200161012090611023565b60405160200161012090611048565b6040516020016101209061106c565b816001600160a01b03166391d4403c60405160200161018490611090565b60405160208183030381529060405280519060200120836040518363ffffffff1660e01b81526004016101b89291906110b8565b602060405180830381865afa1580156101d5573d6000803e3d6000fd5b505050506040513d601f19601f820116820180604052508101906101f991906110c6565b61021d57604051632df6dc2360e01b81526004810182905260240160405180910390fd5b816001600160a01b0316639921c3cc60405160200161023b90611090565b60405160208183030381529060405280519060200120836040518363ffffffff1660e01b815260040161026f9291906110b8565b600060405180830381600087803b15801561028957600080fd5b505af115801561029d573d6000803e3d6000fd5b50505050816001600160a01b031663c1dc9182826040516020016102c09061106c565b604051602081830303815290604052805190602001206040516020016102e79291906110b8565b604051602081830303815290604052805190602001206040518263ffffffff1660e01b815260040161031b91815260200190565b600060405180830381600087803b15801561033557600080fd5b505af1158015610349573d6000803e3d6000fd5b50505050816001600160a01b031663be43caa38260405160200161036c90611023565b604051602081830303815290604052805190602001206040516020016103939291906110b8565b604051602081830303815290604052805190602001206040518263ffffffff1660e01b81526004016103c791815260200190565b600060405180830381600087803b1580156103e157600080fd5b505af11580156103f5573d6000803e3d6000fd5b50505050816001600160a01b031663be43caa38260405160200161041890610ff8565b6040516020818303038152906040528051906020012060405160200161043f9291906110b8565b604051602081830303815290604052805190602001206040518263ffffffff1660e01b815260040161047391815260200190565b600060405180830381600087803b15801561048d57600080fd5b505af11580156104a1573d6000803e3d6000fd5b50505050816001600160a01b03166342c3bd96826040516020016104c490611048565b604051602081830303815290604052805190602001206040516020016104eb9291906110b8565b604051602081830303815290604052805190602001206040518263ffffffff1660e01b815260040161051f91815260200190565b600060405180830381600087803b15801561053957600080fd5b505af115801561054d573d6000803e3d6000fd5b505050505050565b826001600160a01b031663c80f4c6260405160200161057390611090565b60405160208183030381529060405280519060200120846040518363ffffffff1660e01b81526004016105a79291906110b8565b600060405180830381600087803b1580156105c157600080fd5b505af11580156105d5573d6000803e3d6000fd5b50505050826001600160a01b031663ec672cf6836040516020016105f89061106c565b6040516020818303038152906040528051906020012060405160200161061f9291906110b8565b60408051601f1981840301815290829052805160209091012084516001600160e01b031960e085901b168352610657926004016110ef565b600060405180830381600087803b15801561067157600080fd5b505af1158015610685573d6000803e3d6000fd5b50505050826001600160a01b0316635eb07dbd836040516020016106a890611023565b604051602081830303815290604052805190602001206040516020016106cf9291906110b8565b6040516020818303038152906040528051906020012083602001516040518363ffffffff1660e01b8152600401610707929190611146565b600060405180830381600087803b15801561072157600080fd5b505af1158015610735573d6000803e3d6000fd5b50505050826001600160a01b0316635eb07dbd8360405160200161075890610ff8565b6040516020818303038152906040528051906020012060405160200161077f9291906110b8565b60408051601f198184030181528282528051602090910120908501516001600160e01b031960e085901b1683526107b892600401611146565b600060405180830381600087803b1580156107d257600080fd5b505af11580156107e6573d6000803e3d6000fd5b50505050826001600160a01b031663e2a4853a8360405160200161080990611048565b604051602081830303815290604052805190602001206040516020016108309291906110b8565b6040516020818303038152906040528051906020012083606001516040518363ffffffff1660e01b81526004016108689291906110b8565b6020604051808303816000875af1158015610887573d6000803e3d6000fd5b505050506040513d601f19601f820116820180604052508101906108ab9190611187565b50505050565b6108b9610c7a565b6108c1610c7a565b836001600160a01b03166391d4403c6040516020016108df90611090565b60405160208183030381529060405280519060200120856040518363ffffffff1660e01b81526004016109139291906110b8565b602060405180830381865afa158015610930573d6000803e3d6000fd5b505050506040513d601f19601f8201168201806040525081019061095491906110c6565b61095f579050610c74565b836001600160a01b0316635948f7338460405160200161097e9061106c565b604051602081830303815290604052805190602001206040516020016109a59291906110b8565b604051602081830303815290604052805190602001206040518263ffffffff1660e01b81526004016109d991815260200190565b600060405180830381865afa1580156109f6573d6000803e3d6000fd5b505050506040513d6000823e601f3d908101601f19168201604052610a1e91908101906111a0565b81526040516001600160a01b038516906386ac6bdf908590610a4290602001611023565b60405160208183030381529060405280519060200120604051602001610a699291906110b8565b604051602081830303815290604052805190602001206040518263ffffffff1660e01b8152600401610a9d91815260200190565b600060405180830381865afa158015610aba573d6000803e3d6000fd5b505050506040513d6000823e601f3d908101601f19168201604052610ae29190810190611239565b8160200181905250836001600160a01b03166386ac6bdf84604051602001610b0990610ff8565b60405160208183030381529060405280519060200120604051602001610b309291906110b8565b604051602081830303815290604052805190602001206040518263ffffffff1660e01b8152600401610b6491815260200190565b600060405180830381865afa158015610b81573d6000803e3d6000fd5b505050506040513d6000823e601f3d908101601f19168201604052610ba99190810190611239565b8160400181905250836001600160a01b031663bd02d0f584604051602001610bd090611048565b60405160208183030381529060405280519060200120604051602001610bf79291906110b8565b604051602081830303815290604052805190602001206040518263ffffffff1660e01b8152600401610c2b91815260200190565b602060405180830381865afa158015610c48573d6000803e3d6000fd5b505050506040513d601f19601f82011682018060405250810190610c6c9190611187565b606082015290505b92915050565b6040518060800160405280606081526020016060815260200160608152602001600081525090565b6001600160a01b0381168114610cb757600080fd5b50565b60008060408385031215610ccd57600080fd5b8235610cd881610ca2565b946020939093013593505050565b634e487b7160e01b600052604160045260246000fd5b604051608081016001600160401b0381118282101715610d1e57610d1e610ce6565b60405290565b604051601f8201601f191681016001600160401b0381118282101715610d4c57610d4c610ce6565b604052919050565b60006001600160401b03821115610d6d57610d6d610ce6565b5060051b60200190565b600082601f830112610d8857600080fd5b81356020610d9d610d9883610d54565b610d24565b82815260059290921b84018101918181019086841115610dbc57600080fd5b8286015b84811015610dd75780358352918301918301610dc0565b509695505050505050565b600080600060608486031215610df757600080fd5b8335610e0281610ca2565b9250602084810135925060408501356001600160401b0380821115610e2657600080fd5b9086019060808289031215610e3a57600080fd5b610e42610cfc565b823582811115610e5157600080fd5b8301601f81018a13610e6257600080fd5b8035610e70610d9882610d54565b81815260059190911b8201860190868101908c831115610e8f57600080fd5b928701925b82841015610eb6578335610ea781610ca2565b82529287019290870190610e94565b84525050508284013582811115610ecc57600080fd5b610ed88a828601610d77565b85830152506040830135935081841115610ef157600080fd5b610efd89858501610d77565b604082015260608301356060820152809450505050509250925092565b600081518084526020808501945080840160005b83811015610f4a57815187529582019590820190600101610f2e565b509495945050505050565b60208082528251608083830152805160a0840181905260009291820190839060c08601905b80831015610fa35783516001600160a01b03168252928401926001929092019190840190610f7a565b50838701519350601f19925082868203016040870152610fc38185610f1a565b93505050604085015181858403016060860152610fe08382610f1a565b92505050606084015160808401528091505092915050565b60208082526011908201527052454d41494e494e475f414d4f554e545360781b604082015260600190565b6020808252600b908201526a4645455f414d4f554e545360a81b604082015260600190565b6020808252600a908201526910d4915055115117d05560b21b604082015260600190565b6020808252600a90820152694645455f544f4b454e5360b01b604082015260600190565b6020808252600e908201526d11915157d0905510d217d31254d560921b604082015260600190565b918252602082015260400190565b6000602082840312156110d857600080fd5b815180151581146110e857600080fd5b9392505050565b6000604082018483526020604081850152818551808452606086019150828701935060005b818110156111395784516001600160a01b031683529383019391830191600101611114565b5090979650505050505050565b6000604082018483526020604081850152818551808452606086019150828701935060005b818110156111395784518352938301939183019160010161116b565b60006020828403121561119957600080fd5b5051919050565b600060208083850312156111b357600080fd5b82516001600160401b038111156111c957600080fd5b8301601f810185136111da57600080fd5b80516111e8610d9882610d54565b81815260059190911b8201830190838101908783111561120757600080fd5b928401925b8284101561122e57835161121f81610ca2565b8252928401929084019061120c565b979650505050505050565b6000602080838503121561124c57600080fd5b82516001600160401b0381111561126257600080fd5b8301601f8101851361127357600080fd5b8051611281610d9882610d54565b81815260059190911b820183019083810190878311156112a057600080fd5b928401925b8284101561122e578351825292840192908401906112a556fea2646970667358221220c4e0815ffeaae689aa37cf95373b9dcd63a1f61a0fe9c0f15cf9d172a434461764736f6c63430008120033",
  "linkReferences": {},
  "deployedLinkReferences": {}
}