{
  "_format": "hh-sol-artifact-1",
  "contractName": "FeeDistributor",
  "sourceName": "contracts/fee/FeeDistributor.sol",
  "abi": [
    {
      "inputs": [
        {
          "internalType": "contract RoleStore",
          "name": "_roleStore",
          "type": "address"
        },
        {
          "internalType": "contract Oracle",
          "name": "_oracle",
          "type": "address"
        },
        {
          "internalType": "contract FeeDistributorVault",
          "name": "_feeDistributorVault",
          "type": "address"
        },
        {
          "internalType": "contract FeeHandler",
          "name": "_feeHandler",
          "type": "address"
        },
        {
          "internalType": "contract DataStore",
          "name": "_dataStore",
          "type": "address"
        },
        {
          "internalType": "contract EventEmitter",
          "name": "_eventEmitter",
          "type": "address"
        },
        {
          "internalType": "contract MultichainReader",
          "name": "_multichainReader",
          "type": "address"
        },
        {
          "internalType": "contract IVaultV1",
          "name": "_vaultV1",
          "type": "address"
        },
        {
          "internalType": "address",
          "name": "_gmx",
          "type": "address"
        },
        {
          "internalType": "address",
          "name": "_esGmx",
          "type": "address"
        },
        {
          "internalType": "address",
          "name": "_wnt",
          "type": "address"
        }
      ],
      "stateMutability": "nonpayable",
      "type": "constructor"
    },
    {
      "inputs": [
        {
          "internalType": "uint256",
          "name": "minRequiredFeeAmount",
          "type": "uint256"
        },
        {
          "internalType": "uint256",
          "name": "feeAmountCurrentChain",
          "type": "uint256"
        },
        {
          "internalType": "uint256",
          "name": "amountToBridgeOut",
          "type": "uint256"
        }
      ],
      "name": "AttemptedBridgeAmountTooHigh",
      "type": "error"
    },
    {
      "inputs": [
        {
          "internalType": "uint256",
          "name": "minRequiredFeeAmount",
          "type": "uint256"
        },
        {
          "internalType": "uint256",
          "name": "currentChainFeeAmount",
          "type": "uint256"
        }
      ],
      "name": "BridgedAmountNotSufficient",
      "type": "error"
    },
    {
      "inputs": [
        {
          "internalType": "bytes",
          "name": "result",
          "type": "bytes"
        }
      ],
      "name": "BridgingTransactionFailed",
      "type": "error"
    },
    {
      "inputs": [
        {
          "internalType": "uint256",
          "name": "lastDistributionTime",
          "type": "uint256"
        },
        {
          "internalType": "uint256",
          "name": "startOfCurrentWeek",
          "type": "uint256"
        }
      ],
      "name": "FeeDistributionAlreadyCompleted",
      "type": "error"
    },
    {
      "inputs": [
        {
          "internalType": "uint256",
          "name": "distributionStateUint",
          "type": "uint256"
        }
      ],
      "name": "InvalidDistributionState",
      "type": "error"
    },
    {
      "inputs": [
        {
          "internalType": "address",
          "name": "token",
          "type": "address"
        }
      ],
      "name": "InvalidReferralRewardToken",
      "type": "error"
    },
    {
      "inputs": [
        {
          "internalType": "uint256",
          "name": "keepersLength",
          "type": "uint256"
        },
        {
          "internalType": "uint256",
          "name": "keeperTargetBalancesLength",
          "type": "uint256"
        },
        {
          "internalType": "uint256",
          "name": "keeperVersionsLength",
          "type": "uint256"
        }
      ],
      "name": "KeeperArrayLengthMismatch",
      "type": "error"
    },
    {
      "inputs": [
        {
          "internalType": "uint256",
          "name": "timestamp",
          "type": "uint256"
        }
      ],
      "name": "OutdatedReadResponse",
      "type": "error"
    },
    {
      "inputs": [
        {
          "internalType": "address",
          "name": "token",
          "type": "address"
        },
        {
          "internalType": "uint256",
          "name": "addressArrayLength",
          "type": "uint256"
        },
        {
          "internalType": "uint256",
          "name": "maxBatchSize",
          "type": "uint256"
        }
      ],
      "name": "ReferralRewardsAmountExceedsMaxBatchSize",
      "type": "error"
    },
    {
      "inputs": [
        {
          "internalType": "address",
          "name": "token",
          "type": "address"
        },
        {
          "internalType": "uint256",
          "name": "addressArrayLength",
          "type": "uint256"
        },
        {
          "internalType": "uint256",
          "name": "amountArrayLength",
          "type": "uint256"
        }
      ],
      "name": "ReferralRewardsArrayMismatch",
      "type": "error"
    },
    {
      "inputs": [
        {
          "internalType": "address",
          "name": "token",
          "type": "address"
        },
        {
          "internalType": "uint256",
          "name": "tokenReferralRewards",
          "type": "uint256"
        },
        {
          "internalType": "uint256",
          "name": "maxTokenReferralRewards",
          "type": "uint256"
        }
      ],
      "name": "ReferralRewardsThresholdBreached",
      "type": "error"
    },
    {
      "inputs": [
        {
          "internalType": "uint256",
          "name": "treasuryWntAmount",
          "type": "uint256"
        },
        {
          "internalType": "uint256",
          "name": "wntGlpShortfall",
          "type": "uint256"
        },
        {
          "internalType": "uint256",
          "name": "maxTreasuryWntShortfall",
          "type": "uint256"
        }
      ],
      "name": "TreasuryFeeThresholdBreached",
      "type": "error"
    },
    {
      "inputs": [
        {
          "internalType": "address",
          "name": "msgSender",
          "type": "address"
        },
        {
          "internalType": "string",
          "name": "role",
          "type": "string"
        }
      ],
      "name": "Unauthorized",
      "type": "error"
    },
    {
      "inputs": [
        {
          "internalType": "uint256",
          "name": "wntReferralRewardsInUsd",
          "type": "uint256"
        },
        {
          "internalType": "uint256",
          "name": "wntReferralRewardsInUsdLimit",
          "type": "uint256"
        }
      ],
      "name": "WntReferralRewardsInUsdLimitExceeded",
      "type": "error"
    },
    {
      "inputs": [
        {
          "internalType": "uint256",
          "name": "wntReferralRewardsInUsd",
          "type": "uint256"
        },
        {
          "internalType": "uint256",
          "name": "maxWntReferralRewardsInUsd",
          "type": "uint256"
        }
      ],
      "name": "WntReferralRewardsInUsdThresholdBreached",
      "type": "error"
    },
    {
      "inputs": [],
      "name": "chainlinkKey",
      "outputs": [
        {
          "internalType": "bytes32",
          "name": "",
          "type": "bytes32"
        }
      ],
      "stateMutability": "view",
      "type": "function"
    },
    {
      "inputs": [],
      "name": "dataStore",
      "outputs": [
        {
          "internalType": "contract DataStore",
          "name": "",
          "type": "address"
        }
      ],
      "stateMutability": "view",
      "type": "function"
    },
    {
      "inputs": [],
      "name": "dataStoreKey",
      "outputs": [
        {
          "internalType": "bytes32",
          "name": "",
          "type": "bytes32"
        }
      ],
      "stateMutability": "view",
      "type": "function"
    },
    {
      "inputs": [
        {
          "internalType": "uint256",
          "name": "wntReferralRewardsInUsd",
          "type": "uint256"
        },
        {
          "internalType": "uint256",
          "name": "esGmxForReferralRewards",
          "type": "uint256"
        },
        {
          "internalType": "uint256",
          "name": "feesV1Usd",
          "type": "uint256"
        },
        {
          "internalType": "uint256",
          "name": "feesV2Usd",
          "type": "uint256"
        }
      ],
      "name": "distribute",
      "outputs": [],
      "stateMutability": "nonpayable",
      "type": "function"
    },
    {
      "inputs": [],
      "name": "esGmx",
      "outputs": [
        {
          "internalType": "address",
          "name": "",
          "type": "address"
        }
      ],
      "stateMutability": "view",
      "type": "function"
    },
    {
      "inputs": [],
      "name": "esGmxVesterKey",
      "outputs": [
        {
          "internalType": "bytes32",
          "name": "",
          "type": "bytes32"
        }
      ],
      "stateMutability": "view",
      "type": "function"
    },
    {
      "inputs": [],
      "name": "eventEmitter",
      "outputs": [
        {
          "internalType": "contract EventEmitter",
          "name": "",
          "type": "address"
        }
      ],
      "stateMutability": "view",
      "type": "function"
    },
    {
      "inputs": [],
      "name": "extendedGmxTrackerKey",
      "outputs": [
        {
          "internalType": "bytes32",
          "name": "",
          "type": "bytes32"
        }
      ],
      "stateMutability": "view",
      "type": "function"
    },
    {
      "inputs": [],
      "name": "feeDistributorVault",
      "outputs": [
        {
          "internalType": "contract FeeDistributorVault",
          "name": "",
          "type": "address"
        }
      ],
      "stateMutability": "view",
      "type": "function"
    },
    {
      "inputs": [],
      "name": "feeGlpTrackerKey",
      "outputs": [
        {
          "internalType": "bytes32",
          "name": "",
          "type": "bytes32"
        }
      ],
      "stateMutability": "view",
      "type": "function"
    },
    {
      "inputs": [],
      "name": "feeHandler",
      "outputs": [
        {
          "internalType": "contract FeeHandler",
          "name": "",
          "type": "address"
        }
      ],
      "stateMutability": "view",
      "type": "function"
    },
    {
      "inputs": [],
      "name": "glpKey",
      "outputs": [
        {
          "internalType": "bytes32",
          "name": "",
          "type": "bytes32"
        }
      ],
      "stateMutability": "view",
      "type": "function"
    },
    {
      "inputs": [],
      "name": "gmx",
      "outputs": [
        {
          "internalType": "address",
          "name": "",
          "type": "address"
        }
      ],
      "stateMutability": "view",
      "type": "function"
    },
    {
      "inputs": [],
      "name": "gmxKey",
      "outputs": [
        {
          "internalType": "bytes32",
          "name": "",
          "type": "bytes32"
        }
      ],
      "stateMutability": "view",
      "type": "function"
    },
    {
      "inputs": [],
      "name": "initiateDistribute",
      "outputs": [],
      "stateMutability": "nonpayable",
      "type": "function"
    },
    {
      "inputs": [],
      "name": "multichainReader",
      "outputs": [
        {
          "internalType": "contract MultichainReader",
          "name": "",
          "type": "address"
        }
      ],
      "stateMutability": "view",
      "type": "function"
    },
    {
      "inputs": [],
      "name": "oracle",
      "outputs": [
        {
          "internalType": "contract Oracle",
          "name": "",
          "type": "address"
        }
      ],
      "stateMutability": "view",
      "type": "function"
    },
    {
      "inputs": [
        {
          "internalType": "bytes32",
          "name": "",
          "type": "bytes32"
        },
        {
          "components": [
            {
              "internalType": "uint256",
              "name": "timestamp",
              "type": "uint256"
            },
            {
              "internalType": "bytes",
              "name": "readData",
              "type": "bytes"
            }
          ],
          "internalType": "struct MultichainReaderUtils.ReceivedData",
          "name": "receivedData",
          "type": "tuple"
        }
      ],
      "name": "processLzReceive",
      "outputs": [],
      "stateMutability": "nonpayable",
      "type": "function"
    },
    {
      "inputs": [],
      "name": "referralRewardsEsGmxKey",
      "outputs": [
        {
          "internalType": "bytes32",
          "name": "",
          "type": "bytes32"
        }
      ],
      "stateMutability": "view",
      "type": "function"
    },
    {
      "inputs": [],
      "name": "referralRewardsWntKey",
      "outputs": [
        {
          "internalType": "bytes32",
          "name": "",
          "type": "bytes32"
        }
      ],
      "stateMutability": "view",
      "type": "function"
    },
    {
      "inputs": [],
      "name": "roleStore",
      "outputs": [
        {
          "internalType": "contract RoleStore",
          "name": "",
          "type": "address"
        }
      ],
      "stateMutability": "view",
      "type": "function"
    },
    {
      "inputs": [
        {
          "internalType": "address",
          "name": "token",
          "type": "address"
        },
        {
          "internalType": "uint256",
          "name": "maxBatchSize",
          "type": "uint256"
        },
        {
          "internalType": "address[]",
          "name": "accounts",
          "type": "address[]"
        },
        {
          "internalType": "uint256[]",
          "name": "amounts",
          "type": "uint256[]"
        }
      ],
      "name": "sendReferralRewards",
      "outputs": [],
      "stateMutability": "nonpayable",
      "type": "function"
    },
    {
      "inputs": [],
      "name": "synapseRouterKey",
      "outputs": [
        {
          "internalType": "bytes32",
          "name": "",
          "type": "bytes32"
        }
      ],
      "stateMutability": "view",
      "type": "function"
    },
    {
      "inputs": [],
      "name": "treasuryKey",
      "outputs": [
        {
          "internalType": "bytes32",
          "name": "",
          "type": "bytes32"
        }
      ],
      "stateMutability": "view",
      "type": "function"
    },
    {
      "inputs": [],
      "name": "vaultV1",
      "outputs": [
        {
          "internalType": "contract IVaultV1",
          "name": "",
          "type": "address"
        }
      ],
      "stateMutability": "view",
      "type": "function"
    },
    {
      "inputs": [
        {
          "internalType": "address",
          "name": "token",
          "type": "address"
        },
        {
          "internalType": "address",
          "name": "receiver",
          "type": "address"
        },
        {
          "internalType": "uint256",
          "name": "amount",
          "type": "uint256"
        },
        {
          "internalType": "bool",
          "name": "shouldUnwrapNativeToken",
          "type": "bool"
        }
      ],
      "name": "withdrawTokens",
      "outputs": [],
      "stateMutability": "nonpayable",
      "type": "function"
    },
    {
      "inputs": [],
      "name": "wnt",
      "outputs": [
        {
          "internalType": "address",
          "name": "",
          "type": "address"
        }
      ],
      "stateMutability": "view",
      "type": "function"
    }
  ],
  "bytecode": "0x6101e06040523480156200001257600080fd5b506040516200633f3803806200633f8339810160408190526200003591620000b6565b60016000556001600160a01b039a8b16608052988a1660a05296891660c05294881660e052928716610100529086166101205285166101405284166101605283166101805282166101a052166101c052620001b3565b6001600160a01b0381168114620000a157600080fd5b50565b8051620000b1816200008b565b919050565b60008060008060008060008060008060006101608c8e031215620000d957600080fd5b8b51620000e6816200008b565b60208d0151909b50620000f9816200008b565b60408d0151909a506200010c816200008b565b60608d01519099506200011f816200008b565b60808d015190985062000132816200008b565b60a08d015190975062000145816200008b565b60c08d015190965062000158816200008b565b60e08d01519095506200016b816200008b565b6101008d01519094506200017f816200008b565b9250620001906101208d01620000a4565b9150620001a16101408d01620000a4565b90509295989b509295989b9093969950565b60805160a05160c05160e05161010051610120516101405161016051610180516101a0516101c051615f8b620003b46000396000818161016e015281816104fd0152818161065b01528181610ae80152818161173f01528181611c400152818161238c01528181612b7401528181612bb101528181612bee0152613a740152600081816102c40152818161068d01528181610b1b015281816112f00152818161133101528181611395015281816113ec01526114960152600081816101c90152818161059b01528181610c5c01528181610cfa01528181611acd01528181611b350152818161253401528181612c2b01528181613454015281816142de0152818161431b01528181614456015261447a0152600081816101a20152611c1101526000818161029d0152818161103101526110c401526000818161034d0152612e9d015260008181610276015281816121820152818161290801528181612d0d01528181612fc60152818161331c015281816135f501526136c60152600081816101f8015281816104d0015261056c01526000818161038701528181610a4e01528181610c8901528181611419015281816114bd015281816123bb0152818161256101528181612a280152613216015260008181610306015281816133940152818161342501526134c401526000818161021f01526120410152615f8b6000f3fe608060405234801561001057600080fd5b50600436106101495760003560e01c806302ccfa8c1461014e578063126846ec146101695780631ee00bc31461019d57806331e67c71146101c457806333598a24146101eb5780633c93adee146101f35780634a4a7b041461021a5780635ac3325e1461024157806361465a3214610249578063628616571461025e578063660d0d6714610271578063669d7ce4146102985780636a192a78146102bf578063707fcf19146102e657806370c8b627146102ee5780637dc0d1d014610301578063854410d014610328578063857f740d146103305780638c8d1eb0146103385780639661905f146103405780639ff78c3014610348578063a16f187e1461036f578063a65eb56814610382578063c991eb19146103a9578063d1e150a4146103b1578063d3452183146103b9578063df8f33f1146103c1575b600080fd5b6101566103c9565b6040519081526020015b60405180910390f35b6101907f000000000000000000000000000000000000000000000000000000000000000081565b6040516101609190614973565b6101907f000000000000000000000000000000000000000000000000000000000000000081565b6101907f000000000000000000000000000000000000000000000000000000000000000081565b6101566103f1565b6101907f000000000000000000000000000000000000000000000000000000000000000081565b6101907f000000000000000000000000000000000000000000000000000000000000000081565b610156610400565b61025c610257366004614987565b61040f565b005b61025c61026c3660046149dc565b6109a1565b6101907f000000000000000000000000000000000000000000000000000000000000000081565b6101907f000000000000000000000000000000000000000000000000000000000000000081565b6101907f000000000000000000000000000000000000000000000000000000000000000081565b61025c610ab4565b61025c6102fc366004614a7a565b611264565b6101907f000000000000000000000000000000000000000000000000000000000000000081565b6101566118ee565b6101566118fd565b61015661190c565b61015661191b565b6101907f000000000000000000000000000000000000000000000000000000000000000081565b61025c61037d366004614b05565b61192a565b6101907f000000000000000000000000000000000000000000000000000000000000000081565b610156611f95565b610156611fa4565b610156611fb3565b610156611fc2565b6040516020016103d890614b52565b6040516020818303038152906040528051906020012081565b6040516020016103d890614b75565b6040516020016103d890614ba5565b610417611fd1565b61047460405160200161042990614bc7565b60405160208183030381529060405280519060200120604051806040016040528060178152602001762322a2afa224a9aa2924a12aaa24a7a72fa5a2a2a822a960491b81525061202a565b61047c6120da565b6104b16104ac60405160200161049190614bf8565b60405160208183030381529060405280519060200120612169565b6121fb565b6104b961227b565b604051630b27346f60e11b81526001600160a01b037f0000000000000000000000000000000000000000000000000000000000000000169063164e68de90610525907f000000000000000000000000000000000000000000000000000000000000000090600401614973565b600060405180830381600087803b15801561053f57600080fd5b505af1158015610553573d6000803e3d6000fd5b5050604051630b27346f60e11b81526001600160a01b037f000000000000000000000000000000000000000000000000000000000000000016925063164e68de91506105c3907f000000000000000000000000000000000000000000000000000000000000000090600401614973565b600060405180830381600087803b1580156105dd57600080fd5b505af11580156105f1573d6000803e3d6000fd5b50505050600080600080610606888787612382565b93509350935093506000806106196124c9565b91509150600061062b87878686612903565b905061064061063a6001612c6e565b8a612cf6565b61065361064d6002612c6e565b89612cf6565b61068561067f7f0000000000000000000000000000000000000000000000000000000000000000612d8c565b86612cf6565b6106b76106b17f0000000000000000000000000000000000000000000000000000000000000000612d8c565b8b612cf6565b6106e56040516020016106c990614c3f565b6040516020818303038152906040528051906020012042612cf6565b6107176040516020016106f790614c85565b60408051601f19818403018152919052805160209091012060005b612cf6565b61071f614856565b602081015161072f90600a612dff565b61075d816000604051806040016040528060098152602001681999595cd58c555cd960ba1b8152508d612e64565b905061078d816001604051806040016040528060098152602001681999595cd58c955cd960ba1b8152508c612e64565b90506107cc816002604051806040016040528060188152602001773332b2a0b6b7bab73a23b6bc21bab93932b73a21b430b4b760411b81525087612e64565b9050610804816003604051806040016040528060118152602001700e8dee8c2d88ccaca82dadeeadce88edaf607b1b81525086612e64565b90506108388160046040518060400160405280600d81526020016c776e74466f724b65657065727360981b81525085612e64565b905061086e8160056040518060400160405280600f81526020016e776e74466f72436861696e6c696e6b60881b8152508b612e64565b90506108a38160066040518060400160405280600e81526020016d776e74466f72547265617375727960901b8152508a612e64565b90506108d3816007604051806040016040528060098152602001680776e74466f72476c760bc1b81525088612e64565b905061090f81600860405180604001604052806015815260200174776e74466f72526566657272616c5265776172647360581b81525089612e64565b905061094d816009604051806040016040528060178152602001766573476d78466f72526566657272616c5265776172647360481b8152508e612e64565b905061098960405180604001604052806018815260200177119959511a5cdd1c9a589d5d1a5bdb90dbdb5c1b195d195960421b81525082612e86565b505050505050505061099b6001600055565b50505050565b6109a9611fd1565b610a186040516020016109da906020808252600a908201526921a7a72a2927a62622a960b11b604082015260600190565b604051602081830303815290604052805190602001206040518060400160405280600a81526020016921a7a72a2927a62622a960b11b81525061202a565b604051632fb1260560e01b81526001600160a01b03858116600483015284811660248301526044820184905282151560648301527f00000000000000000000000000000000000000000000000000000000000000001690632fb1260590608401600060405180830381600087803b158015610a9257600080fd5b505af1158015610aa6573d6000803e3d6000fd5b5050505061099b6001600055565b610abc611fd1565b610ace60405160200161042990614bc7565b610ad86000612f02565b610ae061227b565b610b13610b0c7f0000000000000000000000000000000000000000000000000000000000000000612f6e565b6000612cf6565b610b3f610b0c7f0000000000000000000000000000000000000000000000000000000000000000612f6e565b6000610b6e604051602001610b5390614ccb565b60405160208183030381529060405280519060200120612fad565b9050600060018251610b809190614d13565b610b8b906003614d26565b6001600160401b03811115610ba257610ba2614d3d565b604051908082528060200260200182016040528015610bdb57816020015b610bc8614947565b815260200190600190039081610bc05790505b5090506000805b8351811015610f7f576000848281518110610bff57610bff614d53565b602002602001015190506000610c3982604051602001610c1e90614d69565b6040516020818303038152906040528051906020012061303d565b9050468203610dc6576040516370a0823160e01b81526000906001600160a01b037f000000000000000000000000000000000000000000000000000000000000000016906370a0823190610cb1907f000000000000000000000000000000000000000000000000000000000000000090600401614973565b602060405180830381865afa158015610cce573d6000803e3d6000fd5b505050506040513d601f19601f82011682018060405250810190610cf29190614d97565b610d23610d1e7f0000000000000000000000000000000000000000000000000000000000000000613053565b612169565b610d2d9190614db0565b90506000826001600160a01b03166318160ddd6040518163ffffffff1660e01b8152600401602060405180830381865afa158015610d6f573d6000803e3d6000fd5b505050506040513d601f19601f82011682018060405250810190610d939190614d97565b9050610da7610da1856130a0565b83612cf6565b610db9610db3856130e3565b82612cf6565b6001955050505050610f6d565b6000610ddb83604051602001610c1e90614dc3565b90506000610deb610d1e85613123565b9050600086610e0457610dff866003614d26565b610e1a565b610e0f600187614d13565b610e1a906003614d26565b9050610e8d82610e3387604051602001610c1e90614b52565b63bd02d0f560e01b610e4487613053565b604051602401610e5691815260200190565b60408051601f198184030181529190526020810180516001600160e01b03166001600160e01b031990931692909217909152613171565b888281518110610e9f57610e9f614d53565b60200260200101819052508080610eb590614de0565b915050610ee882846370a0823160e01b610ed889604051602001610c1e90614df9565b604051602401610e569190614973565b888281518110610efa57610efa614d53565b60200260200101819052508080610f1090614de0565b6040805160048152602481019091526020810180516001600160e01b03166318160ddd60e01b179052909250610f4a915083908690613171565b888281518110610f5c57610f5c614d53565b602002602001018190525050505050505b80610f7781614de0565b915050610be2565b506040805160608101825260008082526020820181905291810191909152610fdd6040516020016104919060208082526019908201527811915157d11254d5149250955513d497d1d054d7d312535255603a1b604082015260600190565b6001600160801b031681528351610ff690600190614e1f565b611001906060614e43565b61100c906008614e6b565b63ffffffff166020820152604051632fca305360e21b81526000906001600160a01b037f0000000000000000000000000000000000000000000000000000000000000000169063bf28c14c906110689087908690600401614ed8565b6040805180830381865afa158015611084573d6000803e3d6000fd5b505050506040513d601f19601f820116820180604052508101906110a8919061501e565b805160405163c323228360e01b81529192506001600160a01b037f0000000000000000000000000000000000000000000000000000000000000000169163c323228391906110fc9088908790600401614ed8565b60806040518083038185885af115801561111a573d6000803e3d6000fd5b50505050506040513d601f19601f8201168201806040525081019061113f919061503a565b5061117160405160200161115290614c85565b60408051601f1981840301815291905280516020909101206001612cf6565b611179614856565b6020810151611189906002612dff565b6111d58160006040518060400160405280601a8152602001796e756d6265724f66436861696e7352656164526571756573747360301b81525060018a516111d09190614d13565b612e64565b9050611216816001604051806040016040528060168152602001756d6573736167696e674665652e6e617469766546656560501b8152508560000151612e64565b905061125260405180604001604052806018815260200177119959511a5cdd1c9a589d5d1a5bdb925b9a5d1a585d195960421b81525082612e86565b5050505050506112626001600055565b565b61126c611fd1565b61127e60405160200161042990614bc7565b6112886000612f02565b8281146112b757604051637ed1475d60e11b81526112ae908790859084906004016150ab565b60405180910390fd5b848311156112de576040516302bf61d760e31b81526112ae908790859088906004016150ab565b60006112ec610d1e88612f6e565b90507f00000000000000000000000000000000000000000000000000000000000000006001600160a01b0316876001600160a01b03160361173d576000611355610d1e7f0000000000000000000000000000000000000000000000000000000000000000612d8c565b90506000611389610d1e60405160200161136e90614b75565b604051602081830303815290604052805190602001206131a7565b9050808211156113d2577f00000000000000000000000000000000000000000000000000000000000000008282604051638d1884f360e01b81526004016112ae939291906150ab565b6040516370a0823160e01b81526000906001600160a01b037f000000000000000000000000000000000000000000000000000000000000000016906370a0823190611441907f000000000000000000000000000000000000000000000000000000000000000090600401614973565b602060405180830381865afa15801561145e573d6000803e3d6000fd5b505050506040513d601f19601f820116820180604052508101906114829190614d97565b905080831115611536576001600160a01b037f0000000000000000000000000000000000000000000000000000000000000000166340c10f197f00000000000000000000000000000000000000000000000000000000000000006114e68487614d13565b6040518363ffffffff1660e01b81526004016115039291906150cc565b600060405180830381600087803b15801561151d57600080fd5b505af1158015611531573d6000803e3d6000fd5b505050505b60005b8781101561173457600089898381811061155557611555614d53565b905060200201602081019061156a91906150e5565b9050600088888481811061158057611580614d53565b9050602002013590506115948d83836131e8565b61159e8188614db0565b965060006115b546604051602001610c1e90615102565b90506000816001600160a01b031663a2545fa5856040518263ffffffff1660e01b81526004016115e59190614973565b602060405180830381865afa158015611602573d6000803e3d6000fd5b505050506040513d601f19601f820116820180604052508101906116269190614d97565b905060006116348483614db0565b60405163107c89c960e21b81529091506001600160a01b038416906341f227249061166590889085906004016150cc565b600060405180830381600087803b15801561167f57600080fd5b505af1158015611693573d6000803e3d6000fd5b5050505061169f614856565b60208101516116af906001612dff565b6116df8160006040518060400160405280600b81526020016a195cd1db5e105b5bdd5b9d60aa1b81525088612e64565b905061171b60405180604001604052806018815260200177115cd1db5e149959995c9c985b14995dd85c991cd4d95b9d60421b81525082612e86565b505050505050808061172c90614de0565b915050611539565b50505050611897565b7f00000000000000000000000000000000000000000000000000000000000000006001600160a01b0316876001600160a01b03160361187c5760005b8481101561187657600086868381811061179557611795614d53565b90506020020160208101906117aa91906150e5565b905060008585848181106117c0576117c0614d53565b9050602002013590506117d48a83836131e8565b6117de8185614db0565b93506117e8614856565b60208101516117f8906001612dff565b611826816000604051806040016040528060098152602001681ddb9d105b5bdd5b9d60ba1b81525085612e64565b90506118606040518060400160405280601681526020017515db9d149959995c9c985b14995dd85c991cd4d95b9d60521b81525082612e86565b505050808061186e90614de0565b915050611779565b50611897565b866040516317f6121160e31b81526004016112ae9190614973565b60006118a5610d1e89612d8c565b9050808211156118ce57878282604051638d1884f360e01b81526004016112ae939291906150ab565b6118da610da189612f6e565b50506118e66001600055565b505050505050565b6040516020016103d890615128565b6040516020016103d890615150565b6040516020016103d89061516d565b6040516020016103d890615102565b611932611fd1565b6119af60405160200161196a9060208082526011908201527026aaa62a24a1a420a4a72fa922a0a222a960791b604082015260600190565b604051602081830303815290604052805190602001206040518060400160405280601181526020017026aaa62a24a1a420a4a72fa922a0a222a960791b81525061202a565b6119b96001612f02565b6119c381356121fb565b60006119d7604051602001610b5390614ccb565b905060005b8151811015611abc5760008282815181106119f9576119f9614d53565b602002602001015190506000468203611a145750611aaa9050565b600081611a2b57611a26846060614d26565b611a41565b611a36600185614d13565b611a41906060614d26565b905060008080611a5460208a018a615190565b8590611a61826060614db0565b92611a6e939291906151d6565b810190611a7b9190615200565b925092509250611a97611a8d876130a0565b6107128486614db0565b611aa3610db3876130e3565b5050505050505b80611ab481614de0565b9150506119dc565b506000611ac96001613277565b90507f000000000000000000000000000000000000000000000000000000000000000081600081518110611aff57611aff614d53565b60200260200101906001600160a01b031690816001600160a01b0316815250506000611b2b6001613277565b9050611b5e611b597f00000000000000000000000000000000000000000000000000000000000000006132c4565b613303565b81600081518110611b7157611b71614d53565b6001600160a01b039290921660209283029190910190910152604080516001808252818301909252600091816020015b6060815260200190600190039081611ba15790505090506040518060200160405280600081525081600081518110611bdb57611bdb614d53565b60200260200101819052506000611c0b60405180606001604052808681526020018581526020018481525061338f565b905060007f00000000000000000000000000000000000000000000000000000000000000006001600160a01b031663e124e6d27f00000000000000000000000000000000000000000000000000000000000000006040518263ffffffff1660e01b8152600401611c7b9190614973565b6020604051808303816000875af1158015611c9a573d6000803e3d6000fd5b505050506040513d601f19601f82011682018060405250810190611cbe9190614d97565b9050611d1d604051602001611d01906020808252601a90820152794645455f444953545249425554494f4e5f474d585f505249434560301b604082015260600190565b6040516020818303038152906040528051906020012083612cf6565b611d4b604051602001611d2f9061522c565b6040516020818303038152906040528051906020012082612cf6565b611d7d604051602001611d5d90614bf8565b604051602081830303815290604052805190602001208860000135612cf6565b611dae604051602001611d8f90614c85565b60408051601f1981840301815291905280516020909101206002612cf6565b611db6614856565b6020810151611dc6906004612dff565b611e0d8160006040518060400160405280601a8152602001796e756d6265724f66436861696e7352656365697665644461746160301b81525060018b516111d09190614d13565b9050611e4e8160016040518060400160405280601681526020017507265636569766564446174612e74696d657374616d760541b8152508b60000135612e64565b9050611e7d81600260405180604001604052806008815260200167676d78507269636560c01b81525086612e64565b9050611eac81600360405180604001604052806008815260200167776e74507269636560c01b81525085612e64565b60a0810151909150611ebf90600161353a565b611f436000604051806040016040528060158152602001747265636569766564446174612e526561644461746160581b8152508a8060200190611f029190615190565b8080601f01602080910402602001604051908101604052809392919081815260200183838082843760009201919091525050505060a085015192919061359c565b611f806040518060400160405280601b81526020017a119959511a5cdd1c9a589d5d1a5bdb91185d18549958d95a5d9959602a1b81525082612e86565b50505050505050611f916001600055565b5050565b6040516020016103d890615260565b6040516020016103d89061528e565b6040516020016103d890614d69565b6040516020016103d890614dc3565b6002600054036120235760405162461bcd60e51b815260206004820152601f60248201527f5265656e7472616e637947756172643a207265656e7472616e742063616c6c0060448201526064016112ae565b6002600055565b60405163ac4ab3fb60e01b81526001600160a01b037f0000000000000000000000000000000000000000000000000000000000000000169063ac4ab3fb9061207890339086906004016150cc565b602060405180830381865afa158015612095573d6000803e3d6000fd5b505050506040513d601f19601f820116820180604052508101906120b991906152b7565b611f9157338160405163a35b150b60e01b81526004016112ae9291906152d4565b60006120ee60405160200161049190614c85565b9050600281600381111561210457612104614cb5565b600381111561211557612115614cb5565b1415806121455750600381600381111561213157612131614cb5565b600381111561214257612142614cb5565b14155b15612166576040516321a57d1960e21b8152600481018290526024016112ae565b50565b60405163bd02d0f560e01b8152600481018290526000907f00000000000000000000000000000000000000000000000000000000000000006001600160a01b03169063bd02d0f590602401602060405180830381865afa1580156121d1573d6000803e3d6000fd5b505050506040513d601f19601f820116820180604052508101906121f59190614d97565b92915050565b61224f6040516020016104919060208082526027908201527f4645455f4449535452494255544f525f4d41585f524541445f524553504f4e53604082015266455f44454c415960c81b606082015260800190565b6122598242614d13565b11156121665760405163ef84cb9960e01b8152600481018290526024016112ae565b6000600761228c62093a804261530e565b612297906004614db0565b6122a19190615322565b9050600060076122e9604051602001610491906020808252818101527f4645455f4449535452494255544f525f444953545249425554494f4e5f444159604082015260600190565b6122f4846007614db0565b6122fe9190614d13565b6123089190615322565b9050600061231962093a8042615322565b6123239042614d13565b905060006123348362093a80614d26565b61233e9083614d13565b9050600061235460405160200161049190614c3f565b90508181111561237b5780826040516329e8e56560e11b81526004016112ae929190615336565b5050505050565b60008060008060007f00000000000000000000000000000000000000000000000000000000000000006001600160a01b03166370a082317f00000000000000000000000000000000000000000000000000000000000000006040518263ffffffff1660e01b81526004016123f69190614973565b602060405180830381865afa158015612413573d6000803e3d6000fd5b505050506040513d601f19601f820116820180604052508101906124379190614d97565b90506000806124446135ee565b91509150600080612457858c8c876138ee565b9150915060006124688d8d8861397e565b905060008183858861247a898c614d13565b6124849190614d13565b61248e9190614d13565b6124989190614d13565b6124a29190614d13565b90506124b18785858985613abd565b949f949e50919c50909a509198505050505050505050565b60008060006124e060405160200161049190614c85565b60038111156124f1576124f1614cb5565b90506000612501610d1e466130a0565b905080600383600381111561251857612518614cb5565b036125d8576040516370a0823160e01b81526001600160a01b037f000000000000000000000000000000000000000000000000000000000000000016906370a0823190612589907f000000000000000000000000000000000000000000000000000000000000000090600401614973565b602060405180830381865afa1580156125a6573d6000803e3d6000fd5b505050506040513d601f19601f820116820180604052508101906125ca9190614d97565b90506125d8610db3466130a0565b60006125ec604051602001610b5390614ccb565b905060006125fa8251613277565b905060006126088351613277565b90506000806000805b8651811015612748574687828151811061262d5761262d614d53565b602002602001015103612661578786828151811061264d5761264d614d53565b6020026020010181815250508093506126a5565b612686610d1e88838151811061267957612679614d53565b60200260200101516130a0565b86828151811061269857612698614d53565b6020026020010181815250505b6126ca610d1e8883815181106126bd576126bd614d53565b60200260200101516130e3565b8582815181106126dc576126dc614d53565b6020026020010181815250508581815181106126fa576126fa614d53565b60200260200101518361270d9190614db0565b925084818151811061272157612721614d53565b6020026020010151826127349190614db0565b91508061274081614de0565b915050612611565b5060008185858151811061275e5761275e614d53565b6020026020010151846127719190614d26565b61277b919061530e565b905060006127898a83615344565b905060008061279a610d1e88613ba9565b905060008313156127fd576127e6604051602001610491906020808252602690820152600080516020615f36833981519152604082015265105353d5539560d21b606082015260800190565b6127f08483613be9565b6127fa9190614d13565b91505b6000612809838e614db0565b90508b8111156128905760038e600381111561282757612827614cb5565b0361284957808c6040516352891c0160e11b81526004016112ae929190615336565b61287a60405160200161285b90614c85565b60408051601f1981840301815291905280516020909101206003612cf6565b50999e949d50939b505050505050505050505050565b60028e60038111156128a4576128a4614cb5565b0361287a5760006128ba8c898c8a8f8e89613c02565b90506128c6818e614d13565b8211156128ec57818d826040516397a3eeff60e01b81526004016112ae93929190615364565b5050999e949d50939b505050505050505050505050565b6000807f00000000000000000000000000000000000000000000000000000000000000006001600160a01b0316635948f7336040516020016129449061537a565b604051602081830303815290604052805190602001206040518263ffffffff1660e01b815260040161297891815260200190565b600060405180830381865afa158015612995573d6000803e3d6000fd5b505050506040513d6000823e601f3d908101601f191682016040526129bd91908101906153d3565b905060006129d3604051602001610b539061537a565b90506000805b8351811015612b6e578281815181106129f4576129f4614d53565b6020026020010151848281518110612a0e57612a0e614d53565b60200260200101516001600160a01b0316311015612b5c577f00000000000000000000000000000000000000000000000000000000000000006001600160a01b031663d443ca94858381518110612a6757612a67614d53565b6020026020010151868481518110612a8157612a81614d53565b60200260200101516001600160a01b031631868581518110612aa557612aa5614d53565b6020026020010151612ab79190614d13565b6040518363ffffffff1660e01b8152600401612ad49291906150cc565b600060405180830381600087803b158015612aee57600080fd5b505af1158015612b02573d6000803e3d6000fd5b50505050838181518110612b1857612b18614d53565b60200260200101516001600160a01b031631838281518110612b3c57612b3c614d53565b602002602001015183612b4f9190614db0565b612b599190614d13565b91505b80612b6681614de0565b9150506129d9565b50612bac7f0000000000000000000000000000000000000000000000000000000000000000612ba646604051602001610c1e9061516d565b8a6131e8565b612be97f0000000000000000000000000000000000000000000000000000000000000000612be346604051602001610c1e90614ba5565b896131e8565b612c267f0000000000000000000000000000000000000000000000000000000000000000612c2046604051602001610c1e9061528e565b88614036565b612c637f0000000000000000000000000000000000000000000000000000000000000000612c5d46604051602001610c1e90614d69565b87614036565b979650505050505050565b6000604051602001612cb1906020808252601e908201527f4645455f4449535452494255544f525f4645455f414d4f554e545f5553440000604082015260600190565b6040516020818303038152906040528051906020012082604051602001612cd9929190615336565b604051602081830303815290604052805190602001209050919050565b604051637152429d60e11b81526001600160a01b037f0000000000000000000000000000000000000000000000000000000000000000169063e2a4853a90612d449085908590600401615336565b6020604051808303816000875af1158015612d63573d6000803e3d6000fd5b505050506040513d601f19601f82011682018060405250810190612d879190614d97565b505050565b6000604051602001612dcd906020808252602790820152600080516020615f1683398151915260408201526617d05353d5539560ca1b606082015260800190565b60408051601f198184030181528282528051602091820120908301526001600160a01b03841690820152606001612cd9565b806001600160401b03811115612e1757612e17614d3d565b604051908082528060200260200182016040528015612e5d57816020015b604080518082019091526060815260006020820152815260200190600190039081612e355790505b5090915250565b612e6c614856565b6020850151612e7d9085858561416e565b50929392505050565b60405163483624fb60e11b81526001600160a01b037f0000000000000000000000000000000000000000000000000000000000000000169063906c49f690612ed49085908590600401615b9b565b600060405180830381600087803b158015612eee57600080fd5b505af11580156118e6573d6000803e3d6000fd5b6000612f1660405160200161049190614c85565b9050806003811115612f2a57612f2a614cb5565b6003811115612f3b57612f3b614cb5565b826003811115612f4d57612f4d614cb5565b14611f91576040516321a57d1960e21b8152600481018290526024016112ae565b6000604051602001612dcd906020808252602590820152600080516020615f1683398151915260408201526417d4d1539560da1b606082015260800190565b6040516386ac6bdf60e01b8152600481018290526060907f00000000000000000000000000000000000000000000000000000000000000006001600160a01b0316906386ac6bdf90602401600060405180830381865afa158015613015573d6000803e3d6000fd5b505050506040513d6000823e601f3d908101601f191682016040526121f59190810190615c64565b600061304c611b5984846141c1565b9392505050565b6000604051602001612dcd9060208082526021908201527f574954484452415741424c455f4255594241434b5f544f4b454e5f414d4f554e6040820152601560fa1b606082015260800190565b6000604051602001612cb1906020808252601e908201527f4645455f4449535452494255544f525f4645455f414d4f554e545f474d580000604082015260600190565b6000604051602001612cb1906020808252601a908201527908c8a8abe8892a6a8a49284aaa89ea4bea6a882968a88be8e9ab60331b604082015260600190565b6000604051602001612cb19060208082526022908201527f4645455f4449535452494255544f525f4c415945525a45524f5f434841494e5f604082015261125160f21b606082015260800190565b613179614947565b506040805160608101825263ffffffff9490941684526001600160a01b039290921660208401529082015290565b6000604051602001612cb1906020808252818101527f4645455f4449535452494255544f525f414d4f554e545f5448524553484f4c44604082015260600190565b60405163078d3b7960e01b81526001600160a01b0384811660048301528381166024830152604482018390527f0000000000000000000000000000000000000000000000000000000000000000169063078d3b7990606401600060405180830381600087803b15801561325a57600080fd5b505af115801561326e573d6000803e3d6000fd5b50505050505050565b60606000826001600160401b0381111561329357613293614d3d565b6040519080825280602002602001820160405280156132bc578160200160208202803683370190505b509392505050565b6000604051602001612dcd9060208082526019908201527827a920a1a622afa82927ab24a222a92fa327a92faa27a5a2a760391b604082015260600190565b6040516321f8a72160e01b8152600481018290526000907f00000000000000000000000000000000000000000000000000000000000000006001600160a01b0316906321f8a72190602401602060405180830381865afa15801561336b573d6000803e3d6000fd5b505050506040513d601f19601f820116820180604052508101906121f59190615ce9565b6000817f00000000000000000000000000000000000000000000000000000000000000006001600160a01b0316633d333c85826040518263ffffffff1660e01b81526004016133de9190615d06565b600060405180830381600087803b1580156133f857600080fd5b505af115801561340c573d6000803e3d6000fd5b5050604051631773dc6560e21b81526001600160a01b037f0000000000000000000000000000000000000000000000000000000000000000169250635dcf7194915061347c907f000000000000000000000000000000000000000000000000000000000000000090600401614973565b6040805180830381865afa158015613498573d6000803e3d6000fd5b505050506040513d601f19601f820116820180604052508101906134bc919061501e565b6020015191507f00000000000000000000000000000000000000000000000000000000000000006001600160a01b031662ccf1556040518163ffffffff1660e01b8152600401600060405180830381600087803b15801561351c57600080fd5b505af1158015613530573d6000803e3d6000fd5b5050505050919050565b806001600160401b0381111561355257613552614d3d565b604051908082528060200260200182016040528015612e5d57816020015b604080518082019091526060808252602082015281526020019060019003908161357057505090915250565b81846000015184815181106135b3576135b3614d53565b60200260200101516000018190525080846000015184815181106135d9576135d9614d53565b60200260200101516020018190525050505050565b60008060007f00000000000000000000000000000000000000000000000000000000000000006001600160a01b0316635948f7336040516020016136319061537a565b604051602081830303815290604052805190602001206040518263ffffffff1660e01b815260040161366591815260200190565b600060405180830381865afa158015613682573d6000803e3d6000fd5b505050506040513d6000823e601f3d908101601f191682016040526136aa91908101906153d3565b905060006136c0604051602001610b539061537a565b905060007f00000000000000000000000000000000000000000000000000000000000000006001600160a01b031663116bb9296040516020016137029061537a565b604051602081830303815290604052805190602001206040518263ffffffff1660e01b815260040161373691815260200190565b600060405180830381865afa158015613753573d6000803e3d6000fd5b505050506040513d6000823e601f3d908101601f1916820160405261377b9190810190615d5e565b90508151835114158061379057508051835114155b156137b757825182518251604051630fcc1b9160e11b81526004016112ae93929190615364565b600080600061380a6040516020016104919060208082526021908201527f4645455f4449535452494255544f525f4b45455045525f474c505f464143544f6040820152602960f91b606082015260800190565b905060005b86518110156138e057600087828151811061382c5761382c614d53565b60200260200101516001600160a01b03163187838151811061385057613850614d53565b60200260200101516138629190614d13565b905080156138cd5785828151811061387c5761387c614d53565b60200260200101511561389a576138938186614db0565b94506138cd565b60006138a68285613be9565b90506138b28186614db0565b9450806138bf8388614db0565b6138c99190614d13565b9550505b50806138d881614de0565b91505061380f565b509197909650945050505050565b600080806139068786613901818a614db0565b61424b565b9050600061395582613950604051602001610491906020808252818101527f4645455f4449535452494255544f525f434841494e4c494e4b5f464143544f52604082015260600190565b613be9565b90506000856139648385614d13565b61396e9190614d13565b9199919850909650505050505050565b6000806139ca604051602001610491906020808252602e90820152600080516020615f1683398151915260408201526d17d5d39517d554d117d31253525560921b606082015260800190565b9050808511156139f1578481604051637b02aa0560e11b81526004016112ae929190615336565b6000613a08610d1e60405160200161136e90615260565b90506000613a168683613be9565b905080871115613a3d578681604051633f3f249160e01b81526004016112ae929190615336565b6000613a5a88613a556040516020016104919061522c565b614260565b90506000613a688785613be9565b905080821115613ab1577f00000000000000000000000000000000000000000000000000000000000000008282604051638d1884f360e01b81526004016112ae939291906150ab565b50979650505050505050565b600080808486613acd898b614d13565b613ad79190614d13565b613ae19190614db0565b90506000613afa610d1e60405160200161136e90615150565b90506000613b088383613be9565b905080861015613b99576000613b29610d1e60405160200161136e90614ba5565b90506000613b378a83613be9565b90506000613b458985614d13565b90506000613b53838d614d13565b905080821115613b7c578b8282604051633411e2a560e11b81526004016112ae93929190615364565b613b86828d614d13565b9b50613b92828b614db0565b9950505050505b5095989397509295505050505050565b6000604051602001612cb1906020808252602690820152600080516020615f368339815191526040820152652320a1aa27a960d11b606082015260800190565b600061304c838368327cb2734119d3b7a9601e1b61424b565b600080613c0f8951613277565b9050600089516001600160401b03811115613c2c57613c2c614d3d565b604051908082528060200260200182016040528015613c55578160200160208202803683370190505b50905060008a516001600160401b03811115613c7357613c73614d3d565b604051908082528060200260200182016040528015613ca657816020015b6060815260200190600190039081613c915790505b50905060005b8b51811015613d1457888a8281518110613cc857613cc8614d53565b60200260200101518c613cdb9190614d26565b613ce5919061530e565b848281518110613cf757613cf7614d53565b602090810291909101015280613d0c81614de0565b915050613cac565b5060005b8b51811015613db757838181518110613d3357613d33614d53565b6020026020010151888281518110613d4d57613d4d614d53565b6020026020010151613d5f9190615344565b838281518110613d7157613d71614d53565b602002602001018181525050613d878c51613277565b828281518110613d9957613d99614d53565b60200260200101819052508080613daf90614de0565b915050613d18565b506000805b8c51811015613ffe576000848281518110613dd957613dd9614d53565b60200260200101511315613fec575b6000848281518110613dfc57613dfc614d53565b6020026020010151138015613e1157508c5182105b15613fec575b8c5182108015613e4157506000848381518110613e3657613e36614d53565b602002602001015112155b15613e585781613e5081614de0565b925050613e17565b8c518214613fec576000848381518110613e7457613e74614d53565b6020026020010151613e8590615dec565b90506000858381518110613e9b57613e9b614d53565b6020026020010151905080821115613f455780858481518110613ec057613ec0614d53565b60200260200101518581518110613ed957613ed9614d53565b60200260200101818151613eed9190614db0565b90525085518190879086908110613f0657613f06614d53565b60200260200101818151613f1a9190615e08565b9052508551600090879085908110613f3457613f34614d53565b602002602001018181525050613fe5565b81858481518110613f5857613f58614d53565b60200260200101518581518110613f7157613f71614d53565b60200260200101818151613f859190614db0565b90525085518290879085908110613f9e57613f9e614d53565b60200260200101818151613fb29190615344565b9052508551600090879086908110613fcc57613fcc614d53565b602090810291909101015283613fe181614de0565b9450505b5050613de8565b80613ff681614de0565b915050613dbc565b5060006140258d848a8151811061401757614017614d53565b60200260200101518961426e565b9d9c50505050505050505050505050565b6140418383836131e8565b6000826001600160a01b031663bfe109286040518163ffffffff1660e01b8152600401602060405180830381865afa158015614081573d6000803e3d6000fd5b505050506040513d601f19601f820116820180604052508101906140a59190615ce9565b9050806001600160a01b0316633ae6d6eb6040518163ffffffff1660e01b8152600401600060405180830381600087803b1580156140e257600080fd5b505af11580156140f6573d6000803e3d6000fd5b50505050806001600160a01b03166318e20a0362093a8084614118919061530e565b6040518263ffffffff1660e01b815260040161413691815260200190565b600060405180830381600087803b15801561415057600080fd5b505af1158015614164573d6000803e3d6000fd5b5050505050505050565b818460000151848151811061418557614185614d53565b60200260200101516000018190525080846000015184815181106141ab576141ab614d53565b6020026020010151602001818152505050505050565b6000604051602001614203906020808252601c908201527b4645455f4449535452494255544f525f414444524553535f494e464f60201b604082015260600190565b60405160208183030381529060405280519060200120838360405160200161422d93929190615364565b60405160208183030381529060405280519060200120905092915050565b600061425884848461461e565b949350505050565b600061304c83836000614708565b60008061428446604051602001610c1e90615128565b90506000614294610d1e46614757565b61429e9042614db0565b90506000805b87518110156145925760008782815181106142c1576142c1614d53565b60200260200101519050806000036142d95750614580565b6143047f000000000000000000000000000000000000000000000000000000000000000030836131e8565b60405163095ea7b360e01b81526001600160a01b037f0000000000000000000000000000000000000000000000000000000000000000169063095ea7b39061435290889085906004016150cc565b6020604051808303816000875af1158015614371573d6000803e3d6000fd5b505050506040513d601f19601f8201168201806040525081019061439591906152b7565b5060006143c48a84815181106143ad576143ad614d53565b6020026020010151604051602001610c1e90614df9565b905060006143f48b85815181106143dd576143dd614d53565b6020026020010151604051602001610c1e90614dc3565b90506000614402848b613be9565b9050600061442b610d1e8e888151811061441e5761441e614d53565b60200260200101516147a9565b6144359042614db0565b90506000848e888151811061444c5761444c614d53565b60200260200101517f00000000000000000000000000000000000000000000000000000000000000008860007f00000000000000000000000000000000000000000000000000000000000000008b8f60008c8c8c6040516024016144bb9c9b9a99989796959493929190615e28565b60408051601f198184030181529181526020820180516001600160e01b031663c228814760e01b1790525190915060009081906001600160a01b038d1690614504908590615ee6565b6000604051808303816000865af19150503d8060008114614541576040519150601f19603f3d011682016040523d82523d6000602084013e614546565b606091505b50915091508161456b57806040516398984b3760e01b81526004016112ae9190615f02565b614575888b614db0565b995050505050505050505b8061458a81614de0565b9150506142a4565b5061459b614856565b60208101516145ab906001612dff565b6145e2816000604051806040016040528060128152602001711d1bdd185b11db5e109c9a5919d95913dd5d60721b81525085612e64565b90506146136040518060400160405280600d81526020016c11db5e109c9a5919d95913dd5d609a1b81525082612e86565b509695505050505050565b60008080600019858709858702925082811083820303915050806000036146585783828161464e5761464e6152f8565b049250505061304c565b80841161469f5760405162461bcd60e51b81526020600482015260156024820152744d6174683a206d756c446976206f766572666c6f7760581b60448201526064016112ae565b60008486880960026001871981018816978890046003810283188082028403028082028403028082028403028082028403028082028403029081029092039091026000889003889004909101858311909403939093029303949094049190911702949350505050565b60008360000361471a5750600061304c565b8115614740576147398468327cb2734119d3b7a9601e1b8560016147f9565b905061304c565b6142588468327cb2734119d3b7a9601e1b8561461e565b6000604051602001612cb19060208082526026908201527f4645455f4449535452494255544f525f4252494447455f4f524947494e5f444560408201526541444c494e4560d01b606082015260800190565b6000604051602001612cb19060208082526024908201527f4645455f4449535452494255544f525f4252494447455f444553545f444541446040820152634c494e4560e01b606082015260800190565b60008061480786868661461e565b9050600183600281111561481d5761481d614cb5565b14801561483a575060008480614835576148356152f8565b868809115b1561484d5761484a600182614db0565b90505b95945050505050565b604080516101208101909152606060e0820181815261010083019190915281908152602001614898604051806040016040528060608152602001606081525090565b81526020016148ba604051806040016040528060608152602001606081525090565b81526020016148dc604051806040016040528060608152602001606081525090565b81526020016148fe604051806040016040528060608152602001606081525090565b8152602001614920604051806040016040528060608152602001606081525090565b8152602001614942604051806040016040528060608152602001606081525090565b905290565b6040805160608082018352600080835260208301529181019190915290565b6001600160a01b03169052565b6001600160a01b0391909116815260200190565b6000806000806080858703121561499d57600080fd5b5050823594602084013594506040840135936060013592509050565b6001600160a01b038116811461216657600080fd5b801515811461216657600080fd5b600080600080608085870312156149f257600080fd5b84356149fd816149b9565b93506020850135614a0d816149b9565b9250604085013591506060850135614a24816149ce565b939692955090935050565b60008083601f840112614a4157600080fd5b5081356001600160401b03811115614a5857600080fd5b6020830191508360208260051b8501011115614a7357600080fd5b9250929050565b60008060008060008060808789031215614a9357600080fd5b8635614a9e816149b9565b95506020870135945060408701356001600160401b0380821115614ac157600080fd5b614acd8a838b01614a2f565b90965094506060890135915080821115614ae657600080fd5b50614af389828a01614a2f565b979a9699509497509295939492505050565b60008060408385031215614b1857600080fd5b8235915060208301356001600160401b03811115614b3557600080fd5b830160408186031215614b4757600080fd5b809150509250929050565b6020808252600990820152684441544153544f524560b81b604082015260600190565b6020808252601690820152750a48a8c8aa4a48298bea48aae82a488a6be8aa68e9ab60531b604082015260600190565b602080825260089082015267545245415355525960c01b604082015260600190565b6020808252601790820152762322a2afa224a9aa2924a12aaa24a7a72fa5a2a2a822a960491b604082015260600190565b60208082526027908201527f4645455f4449535452494255544f525f524541445f524553504f4e53455f544960408201526604d455354414d560cc1b606082015260800190565b60208082526026908201527f4645455f4449535452494255544f525f444953545249425554494f4e5f54494d6040820152650455354414d560d41b606082015260800190565b6020808252601690820152754645455f444953545249425554494f4e5f535441544560501b604082015260600190565b634e487b7160e01b600052602160045260246000fd5b60208082526018908201527711915157d11254d5149250955513d497d0d210525397d25160421b604082015260600190565b634e487b7160e01b600052601160045260246000fd5b818103818111156121f5576121f5614cfd565b80820281158282048414176121f5576121f5614cfd565b634e487b7160e01b600052604160045260246000fd5b634e487b7160e01b600052603260045260246000fd5b60208082526014908201527322ac2a22a72222a22fa3a6ac2faa2920a1a5a2a960611b604082015260600190565b600060208284031215614da957600080fd5b5051919050565b808201808211156121f5576121f5614cfd565b60208082526003908201526208e9ab60eb1b604082015260600190565b600060018201614df257614df2614cfd565b5060010190565b6020808252600c908201526b2322a2afa922a1a2a4ab22a960a11b604082015260600190565b63ffffffff828116828216039080821115614e3c57614e3c614cfd565b5092915050565b63ffffffff818116838216028082169190828114614e6357614e63614cfd565b505092915050565b63ffffffff818116838216019080821115614e3c57614e3c614cfd565b60005b83811015614ea3578181015183820152602001614e8b565b50506000910152565b60008151808452614ec4816020860160208601614e88565b601f01601f19169290920160200192915050565b6000608082016080835280855180835260a08501915060a08160051b8601019250602080880160005b83811015614f5e57878603609f190185528151805163ffffffff168752838101516001600160a01b031684880152604090810151606091880182905290614f4a81890183614eac565b975050509382019390820190600101614f01565b5050839450614f958187018880516001600160801b03908116835260208083015163ffffffff169084015260409182015116910152565b505050509392505050565b604051601f8201601f191681016001600160401b0381118282101715614fc857614fc8614d3d565b604052919050565b600060408284031215614fe257600080fd5b604080519081016001600160401b038111828210171561500457615004614d3d565b604052825181526020928301519281019290925250919050565b60006040828403121561503057600080fd5b61304c8383614fd0565b60006080828403121561504c57600080fd5b604051606081016001600160401b03808211838310171561506f5761506f614d3d565b816040528451835260208501519150808216821461508c57600080fd5b50602082015261509f8460408501614fd0565b60408201529392505050565b6001600160a01b039390931683526020830191909152604082015260600190565b6001600160a01b03929092168252602082015260400190565b6000602082840312156150f757600080fd5b813561304c816149b9565b6020808252600c908201526b22a9a3a6ac2fab22a9aa22a960a11b604082015260600190565b6020808252600e908201526d29aca720a829a2afa927aaaa22a960911b604082015260600190565b6020808252600390820152620474c560ec1b604082015260600190565b602080825260099082015268434841494e4c494e4b60b81b604082015260600190565b6000808335601e198436030181126151a757600080fd5b8301803591506001600160401b038211156151c157600080fd5b602001915036819003821315614a7357600080fd5b600080858511156151e657600080fd5b838611156151f357600080fd5b5050820193919092039150565b60008060006060848603121561521557600080fd5b505081359360208301359350604090920135919050565b6020808252601a90820152794645455f444953545249425554494f4e5f574e545f505249434560301b604082015260600190565b602080825260149082015273149151915494905317d49155d0549114d7d5d39560621b604082015260600190565b6020808252600f908201526e2322a2afa3a6282faa2920a1a5a2a960891b604082015260600190565b6000602082840312156152c957600080fd5b815161304c816149ce565b6001600160a01b038316815260406020820181905260009061425890830184614eac565b634e487b7160e01b600052601260045260246000fd5b60008261531d5761531d6152f8565b500490565b600082615331576153316152f8565b500690565b918252602082015260400190565b8181036000831280158383131683831282161715614e3c57614e3c614cfd565b9283526020830191909152604082015260600190565b6020808252601c908201527b4645455f4449535452494255544f525f4b45455045525f434f53545360201b604082015260600190565b60006001600160401b038211156153c9576153c9614d3d565b5060051b60200190565b600060208083850312156153e657600080fd5b82516001600160401b038111156153fc57600080fd5b8301601f8101851361540d57600080fd5b805161542061541b826153b0565b614fa0565b81815260059190911b8201830190838101908783111561543f57600080fd5b928401925b82841015612c63578351615457816149b9565b82529284019290840190615444565b600081518084526020808501945080840160005b8381101561549f5781516001600160a01b03168752958201959082019060010161547a565b509495945050505050565b600081518084526020808501808196508360051b8101915082860160005b858110156155185782840389528151604081518187526154ea82880182614eac565b915050868201519150858103878701526155048183615466565b9a87019a95505050908401906001016154c8565b5091979650505050505050565b60006040808401835182865281815180845260608801915060608160051b89010193506020808401935060005b8281101561559c57898603605f190184528451805188885261557689890182614eac565b918401516001600160a01b03169784019790975295509381019392810192600101615552565b50808801519550888503818a01525050505061484d81836154aa565b600082825180855260208086019550808260051b8401018186016000805b8581101561564d57601f19878503018a528251604081518187526155fc82880182614eac565b92880151878403888a0152805180855290890193869350890191505b808310156156385783518252928801926001929092019190880190615618565b509b87019b95505050918401916001016155d6565b509198975050505050505050565b60006040808401835182865281815180845260608801915060608160051b89010193506020808401935060005b828110156156c957898603605f19018452845180518888526156ac89890182614eac565b918401519784019790975295509381019392810192600101615688565b50808801519550888503818a01525050505061484d81836155b8565b60006040808401835182865281815180845260608801915060608160051b89010193506020808401935060005b828110156156c957898603605f190184528451805188885261573689890182614eac565b918401519784019790975295509381019392810192600101615712565b600081518084526020808501808196508360051b810191508286016000805b868110156157e7578385038a5282516040815181885261579482890182614eac565b92890151888403898b01528051808552908a01938693508a0191505b808310156157d2578351151582529289019260019290920191908901906157b0565b509b88019b9650505091850191600101615772565b509298975050505050505050565b60006040808401835182865281815180845260608801915060608160051b89010193506020808401935060005b8281101561586557898603605f190184528451805188885261584689890182614eac565b9184015115159784019790975295509381019392810192600101615822565b50808801519550888503818a01525050505061484d8183615753565b60006040808401835182865281815180845260608801915060608160051b89010193506020808401935060005b828110156156c957898603605f19018452845180518888526158d289890182614eac565b9184015197840197909752955093810193928101926001016158ae565b6000815180845260208085019450848260051b860182860160005b85811015615934578383038952615922838351614eac565b9885019892509084019060010161590a565b5090979650505050505050565b600081518084526020808501808196508360051b8101915082860160005b8581101561551857828403895281516040815181875261598182880182614eac565b9150508682015191508581038787015261599b81836158ef565b9a87019a955050509084019060010161595f565b60006040808401835182865281815180845260608801915060608160051b89010193506020808401935060005b82811015615a2c57898603605f1901845284518051888852615a0089890182614eac565b9184015188830389860152919050615a188183614eac565b9750505093810193928101926001016159dc565b50808801519550888503818a01525050505061484d8183615941565b600081518084526020808501808196506005915083821b81018387016000805b87811015615af3578484038b52825160408151818752615a8a82880182614eac565b928a0151878403888c01528051808552908b019392508a83019150808a1b83018b01865b82811015615adc57601f19858303018452615aca828751614eac565b958d0195938d01939150600101615aae565b509e8b019e97505050938801935050600101615a68565b50919998505050505050505050565b60006040808401835182865281815180845260608801915060608160051b89010193506020808401935060005b82811015615b7f57898603605f1901845284518051888852615b5389890182614eac565b9184015188830389860152919050615b6b8183614eac565b975050509381019392810192600101615b2f565b50808801519550888503818a01525050505061484d8183615a48565b604081526000615bae6040830185614eac565b8281036020840152835160e08252615bc960e0830182615525565b905060208501518282036020840152615be2828261565b565b91505060408501518282036040840152615bfc82826156e5565b91505060608501518282036060840152615c1682826157f5565b91505060808501518282036080840152615c308282615881565b91505060a085015182820360a0840152615c4a82826159af565b91505060c085015182820360c0840152612c638282615b02565b60006020808385031215615c7757600080fd5b82516001600160401b03811115615c8d57600080fd5b8301601f81018513615c9e57600080fd5b8051615cac61541b826153b0565b81815260059190911b82018301908381019087831115615ccb57600080fd5b928401925b82841015612c6357835182529284019290840190615cd0565b600060208284031215615cfb57600080fd5b815161304c816149b9565b602081526000825160606020840152615d226080840182615466565b90506020840151601f1980858403016040860152615d408383615466565b925060408601519150808584030160608601525061484d82826158ef565b60006020808385031215615d7157600080fd5b82516001600160401b03811115615d8757600080fd5b8301601f81018513615d9857600080fd5b8051615da661541b826153b0565b81815260059190911b82018301908381019087831115615dc557600080fd5b928401925b82841015612c63578351615ddd816149ce565b82529284019290840190615dca565b6000600160ff1b8201615e0157615e01614cfd565b5060000390565b8082018281126000831280158216821582161715614e6357614e63614cfd565b6001600160a01b038d168152602081018c905260006101c0615e4d604084018e614966565b8b6060840152615e60608084018c614966565b615e6d60a084018b614966565b8860c08401528760e084015280610100840152615e908184016000815260200190565b9050615ea0610120840188614966565b615eae610140840187614966565b84610160840152836101808401528281036101a0840152615ed3816000815260200190565b9f9e505050505050505050505050505050565b60008251615ef8818460208701614e88565b9190910192915050565b60208152600061304c6020830184614eac56fe4645455f4449535452494255544f525f524546455252414c5f524557415244534645455f4449535452494255544f525f4252494447455f534c4950504147455fa2646970667358221220c89b1d529da405d5a1f4b16b671b4661cbd88bd21fed0a588ee8bbf6fe1ce3a564736f6c63430008140033",
  "linkReferences": {},
  "deployedLinkReferences": {}
}