{
  "_format": "hh-sol-artifact-1",
  "contractName": "FeeDistributor",
  "sourceName": "contracts/fee/FeeDistributor.sol",
  "abi": [
    {
      "inputs": [
        {
          "internalType": "contract RoleStore",
          "name": "_roleStore",
          "type": "address"
        },
        {
          "internalType": "contract IOracle",
          "name": "_oracle",
          "type": "address"
        },
        {
          "internalType": "contract FeeDistributorVault",
          "name": "_feeDistributorVault",
          "type": "address"
        },
        {
          "internalType": "contract FeeHandler",
          "name": "_feeHandler",
          "type": "address"
        },
        {
          "internalType": "contract DataStore",
          "name": "_dataStore",
          "type": "address"
        },
        {
          "internalType": "contract EventEmitter",
          "name": "_eventEmitter",
          "type": "address"
        },
        {
          "internalType": "contract MultichainReader",
          "name": "_multichainReader",
          "type": "address"
        },
        {
          "internalType": "address",
          "name": "_claimVault",
          "type": "address"
        },
        {
          "internalType": "address",
          "name": "_gmx",
          "type": "address"
        },
        {
          "internalType": "address",
          "name": "_esGmx",
          "type": "address"
        },
        {
          "internalType": "address",
          "name": "_wnt",
          "type": "address"
        }
      ],
      "stateMutability": "nonpayable",
      "type": "constructor"
    },
    {
      "inputs": [
        {
          "internalType": "uint256",
          "name": "minRequiredFeeAmount",
          "type": "uint256"
        },
        {
          "internalType": "uint256",
          "name": "feeAmountCurrentChain",
          "type": "uint256"
        },
        {
          "internalType": "uint256",
          "name": "amountToBridgeOut",
          "type": "uint256"
        }
      ],
      "name": "AttemptedBridgeAmountTooHigh",
      "type": "error"
    },
    {
      "inputs": [
        {
          "internalType": "uint256",
          "name": "minRequiredFeeAmount",
          "type": "uint256"
        },
        {
          "internalType": "uint256",
          "name": "currentChainFeeAmount",
          "type": "uint256"
        }
      ],
      "name": "BridgedAmountNotSufficient",
      "type": "error"
    },
    {
      "inputs": [
        {
          "internalType": "address",
          "name": "token",
          "type": "address"
        },
        {
          "internalType": "uint256",
          "name": "timestamp",
          "type": "uint256"
        },
        {
          "internalType": "uint256",
          "name": "heartbeatDuration",
          "type": "uint256"
        }
      ],
      "name": "ChainlinkPriceFeedNotUpdated",
      "type": "error"
    },
    {
      "inputs": [
        {
          "internalType": "address",
          "name": "token",
          "type": "address"
        }
      ],
      "name": "EmptyChainlinkPriceFeed",
      "type": "error"
    },
    {
      "inputs": [
        {
          "internalType": "address",
          "name": "token",
          "type": "address"
        }
      ],
      "name": "EmptyChainlinkPriceFeedMultiplier",
      "type": "error"
    },
    {
      "inputs": [
        {
          "internalType": "uint256",
          "name": "lastDistributionTime",
          "type": "uint256"
        },
        {
          "internalType": "uint256",
          "name": "startOfCurrentWeek",
          "type": "uint256"
        }
      ],
      "name": "FeeDistributionAlreadyCompleted",
      "type": "error"
    },
    {
      "inputs": [
        {
          "internalType": "address",
          "name": "token",
          "type": "address"
        }
      ],
      "name": "InsufficientFunds",
      "type": "error"
    },
    {
      "inputs": [
        {
          "internalType": "uint256",
          "name": "distributionStateUint",
          "type": "uint256"
        }
      ],
      "name": "InvalidDistributionState",
      "type": "error"
    },
    {
      "inputs": [
        {
          "internalType": "address",
          "name": "receiver",
          "type": "address"
        }
      ],
      "name": "InvalidFeeReceiver",
      "type": "error"
    },
    {
      "inputs": [
        {
          "internalType": "address",
          "name": "token",
          "type": "address"
        },
        {
          "internalType": "int256",
          "name": "price",
          "type": "int256"
        }
      ],
      "name": "InvalidFeedPrice",
      "type": "error"
    },
    {
      "inputs": [
        {
          "internalType": "address",
          "name": "token",
          "type": "address"
        }
      ],
      "name": "InvalidReferralRewardToken",
      "type": "error"
    },
    {
      "inputs": [
        {
          "internalType": "uint256",
          "name": "wntForKeepers",
          "type": "uint256"
        },
        {
          "internalType": "uint256",
          "name": "wntToKeepers",
          "type": "uint256"
        }
      ],
      "name": "KeeperAmountMismatch",
      "type": "error"
    },
    {
      "inputs": [
        {
          "internalType": "uint256",
          "name": "tokensForReferralRewards",
          "type": "uint256"
        },
        {
          "internalType": "uint256",
          "name": "maxEsGmxReferralRewards",
          "type": "uint256"
        }
      ],
      "name": "MaxEsGmxReferralRewardsAmountExceeded",
      "type": "error"
    },
    {
      "inputs": [
        {
          "internalType": "address",
          "name": "token",
          "type": "address"
        },
        {
          "internalType": "uint256",
          "name": "cumulativeTransferAmount",
          "type": "uint256"
        },
        {
          "internalType": "uint256",
          "name": "tokensForReferralRewards",
          "type": "uint256"
        }
      ],
      "name": "MaxReferralRewardsExceeded",
      "type": "error"
    },
    {
      "inputs": [
        {
          "internalType": "uint256",
          "name": "maxWntFromTreasury",
          "type": "uint256"
        },
        {
          "internalType": "uint256",
          "name": "additionalWntFromTreasury",
          "type": "uint256"
        }
      ],
      "name": "MaxWntFromTreasuryExceeded",
      "type": "error"
    },
    {
      "inputs": [
        {
          "internalType": "uint256",
          "name": "wntReferralRewardsInUsd",
          "type": "uint256"
        },
        {
          "internalType": "uint256",
          "name": "maxWntReferralRewardsInUsdAmount",
          "type": "uint256"
        }
      ],
      "name": "MaxWntReferralRewardsInUsdAmountExceeded",
      "type": "error"
    },
    {
      "inputs": [
        {
          "internalType": "uint256",
          "name": "wntReferralRewardsInUsd",
          "type": "uint256"
        },
        {
          "internalType": "uint256",
          "name": "maxWntReferralRewardsInUsd",
          "type": "uint256"
        }
      ],
      "name": "MaxWntReferralRewardsInUsdExceeded",
      "type": "error"
    },
    {
      "inputs": [
        {
          "internalType": "uint256",
          "name": "timestamp",
          "type": "uint256"
        }
      ],
      "name": "OutdatedReadResponse",
      "type": "error"
    },
    {
      "inputs": [
        {
          "internalType": "address",
          "name": "msgSender",
          "type": "address"
        },
        {
          "internalType": "string",
          "name": "role",
          "type": "string"
        }
      ],
      "name": "Unauthorized",
      "type": "error"
    },
    {
      "inputs": [],
      "name": "ZeroTreasuryAddress",
      "type": "error"
    },
    {
      "inputs": [],
      "name": "bridgedGmxReceived",
      "outputs": [],
      "stateMutability": "nonpayable",
      "type": "function"
    },
    {
      "inputs": [
        {
          "internalType": "address",
          "name": "token",
          "type": "address"
        },
        {
          "internalType": "uint256",
          "name": "distributionId",
          "type": "uint256"
        },
        {
          "components": [
            {
              "internalType": "address",
              "name": "account",
              "type": "address"
            },
            {
              "internalType": "uint256",
              "name": "amount",
              "type": "uint256"
            }
          ],
          "internalType": "struct ClaimUtils.DepositParam[]",
          "name": "params",
          "type": "tuple[]"
        }
      ],
      "name": "depositReferralRewards",
      "outputs": [],
      "stateMutability": "nonpayable",
      "type": "function"
    },
    {
      "inputs": [
        {
          "internalType": "uint256",
          "name": "wntReferralRewardsInUsd",
          "type": "uint256"
        },
        {
          "internalType": "uint256",
          "name": "esGmxForReferralRewards",
          "type": "uint256"
        },
        {
          "internalType": "uint256",
          "name": "feesV1Usd",
          "type": "uint256"
        },
        {
          "internalType": "uint256",
          "name": "feesV2Usd",
          "type": "uint256"
        }
      ],
      "name": "distribute",
      "outputs": [],
      "stateMutability": "nonpayable",
      "type": "function"
    },
    {
      "inputs": [],
      "name": "initiateDistribute",
      "outputs": [],
      "stateMutability": "nonpayable",
      "type": "function"
    },
    {
      "inputs": [],
      "name": "oracle",
      "outputs": [
        {
          "internalType": "contract IOracle",
          "name": "",
          "type": "address"
        }
      ],
      "stateMutability": "view",
      "type": "function"
    },
    {
      "inputs": [
        {
          "internalType": "bytes32",
          "name": "",
          "type": "bytes32"
        },
        {
          "components": [
            {
              "internalType": "uint256",
              "name": "timestamp",
              "type": "uint256"
            },
            {
              "internalType": "bytes",
              "name": "readData",
              "type": "bytes"
            }
          ],
          "internalType": "struct MultichainReaderUtils.ReceivedData",
          "name": "receivedData",
          "type": "tuple"
        }
      ],
      "name": "processLzReceive",
      "outputs": [],
      "stateMutability": "nonpayable",
      "type": "function"
    },
    {
      "inputs": [],
      "name": "roleStore",
      "outputs": [
        {
          "internalType": "contract RoleStore",
          "name": "",
          "type": "address"
        }
      ],
      "stateMutability": "view",
      "type": "function"
    },
    {
      "stateMutability": "payable",
      "type": "receive"
    }
  ],
  "bytecode": "0x6101e060405234801561001157600080fd5b5060405161629c38038061629c833981016040819052610030916100ad565b60016000556001600160a01b039a8b16608052988a1660a05296891660c05294881660e052928716610100529086166101205285166101405284166101605283166101805282166101a052166101c05261018d565b6001600160a01b038116811461009a57600080fd5b50565b80516100a881610085565b919050565b60008060008060008060008060008060006101608c8e0312156100cf57600080fd5b8b516100da81610085565b60208d0151909b506100eb81610085565b60408d0151909a506100fc81610085565b60608d015190995061010d81610085565b60808d015190985061011e81610085565b60a08d015190975061012f81610085565b60c08d015190965061014081610085565b945061014e60e08d0161009d565b935061015d6101008d0161009d565b925061016c6101208d0161009d565b915061017b6101408d0161009d565b90509295989b509295989b9093969950565b60805160a05160c05160e05161010051610120516101405161016051610180516101a0516101c051615f25610377600039600081816102c2015281816103630152818161069a01528181611a430152818161207d015281816128d601528181613200015281816135b40152818161360e015281816139400152613a49015260008181610395015281816106cd01528181611601015281816116b401526116ec01526000818161086a0152818161089601528181610ebc0152818161149b01528181612880015281816136d7015281816138ec015281816139c901528181613d2c01528181613d540152613da2015260008181611b620152611c48015260008181610be40152610c7701526000818161199f01528181611ae901526123fd01526000818161072301528181610f4801528181611ac701528181611b8901528181611c2601528181611e72015281816120c20152818161223f015281816124830152818161330e015281816133c90152613af10152600081816102950152610e8f015260008181610625015281816117130152818161257701528181612d4c01528181613241015281816135060152613f91015260008181610103015281816127be015281816128fc015281816139a80152613a2801526000818160820152611d370152615f256000f3fe6080604052600436106100645760003560e01c80634a4a7b041461007057806361465a32146100ba578063707fcf19146100dc5780637dc0d1d0146100f1578063a16f187e14610125578063b5cb97f614610145578063c49946841461015a57600080fd5b3661006b57005b600080fd5b34801561007c57600080fd5b506100a47f000000000000000000000000000000000000000000000000000000000000000081565b6040516100b191906146e6565b60405180910390f35b3480156100c657600080fd5b506100da6100d53660046146fa565b61017a565b005b3480156100e857600080fd5b506100da6105d8565b3480156100fd57600080fd5b506100a47f000000000000000000000000000000000000000000000000000000000000000081565b34801561013157600080fd5b506100da61014036600461472c565b610de7565b34801561015157600080fd5b506100da6113be565b34801561016657600080fd5b506100da61017536600461478e565b6115cb565b610182611cc7565b6101df6040516020016101949061481b565b60405160208183030381529060405280519060200120604051806040016040528060178152602001762322a2afa224a9aa2924a12aaa24a7a72fa5a2a2a822a960491b815250611d20565b600061020e6040516020016101f39061484c565b60405160208183030381529060405280519060200120611dd4565b90506001600160a01b038116610237576040516351dc806d60e11b815260040160405180910390fd5b6102416003611ded565b6102766102716040516020016102569061486e565b60405160208183030381529060405280519060200120611e59565b611ee6565b61027e611f69565b604051630b27346f60e11b81526001600160a01b037f0000000000000000000000000000000000000000000000000000000000000000169063164e68de906102ea907f0000000000000000000000000000000000000000000000000000000000000000906004016146e6565b600060405180830381600087803b15801561030457600080fd5b505af1158015610318573d6000803e3d6000fd5b5050505060008060008061032d898888612070565b935093509350935061034861034260016121a0565b88612228565b61035b61035560026121a0565b87612228565b61038d6103877f00000000000000000000000000000000000000000000000000000000000000006122be565b82612228565b6103bf6103b97f00000000000000000000000000000000000000000000000000000000000000006122be565b89612228565b6103ed6040516020016103d1906148b5565b6040516020818303038152906040528051906020012042612228565b6103f76000612331565b6103ff6145d6565b602081015161040f90600761235f565b61043d816000604051806040016040528060098152602001681999595cd58c555cd960ba1b8152508b6123c4565b905061046d816001604051806040016040528060098152602001681999595cd58c955cd960ba1b8152508a6123c4565b90506104a18160026040518060400160405280600d81526020016c776e74466f724b65657065727360981b815250886123c4565b90506104d78160036040518060400160405280600f81526020016e776e74466f72436861696e6c696e6b60881b815250876123c4565b905061050c8160046040518060400160405280600e81526020016d776e74466f72547265617375727960901b815250866123c4565b905061054881600560405180604001604052806015815260200174776e74466f72526566657272616c5265776172647360581b815250856123c4565b9050610586816006604051806040016040528060178152602001766573476d78466f72526566657272616c5265776172647360481b8152508c6123c4565b90506105c260405180604001604052806018815260200177119959511a5cdd1c9a589d5d1a5bdb90dbdb5c1b195d195960421b815250826123e6565b5050505050506105d26001600055565b50505050565b6105e0611cc7565b6105f26040516020016101949061481b565b600061062160405160200161060690614911565b6040516020818303038152906040528051906020012061246a565b90507f00000000000000000000000000000000000000000000000000000000000000006001600160a01b0316816001600160a01b031614610680578060405163cb9339d560e01b815260040161067791906146e6565b60405180910390fd5b61068a6000611ded565b610692611f69565b6106c56106be7f00000000000000000000000000000000000000000000000000000000000000006124f6565b6000612228565b6106f16106be7f00000000000000000000000000000000000000000000000000000000000000006124f6565b6040516357ed18eb60e01b815260009073__$26ca41ccf224404dca1800130c325a7716$__906357ed18eb9061074b907f0000000000000000000000000000000000000000000000000000000000000000906004016146e6565b600060405180830381865af4158015610768573d6000803e3d6000fd5b505050506040513d6000823e601f3d908101601f1916820160405261079091908101906149ea565b805190915060006107a2600183614a9a565b6107ad906003614aad565b6001600160401b038111156107c4576107c4614937565b6040519080825280602002602001820160405280156107fd57816020015b6107ea6146c7565b8152602001906001900390816107e25790505b5090506000805b83811015610b2b57600085828151811061082057610820614ac4565b60200260200101519050600061085a8260405160200161083f90614ada565b6040516020818303038152906040528051906020012061253a565b905046820361095857600061088e7f0000000000000000000000000000000000000000000000000000000000000000612550565b6108bf6108ba7f000000000000000000000000000000000000000000000000000000000000000061259f565b611e59565b6108c99190614b08565b90506000826001600160a01b03166318160ddd6040518163ffffffff1660e01b8152600401602060405180830381865afa15801561090b573d6000803e3d6000fd5b505050506040513d601f19601f8201168201806040525081019061092f9190614b1b565b905061094361093d856125ec565b83612228565b61094f6103878561262f565b50505050610b23565b60006109858360405160200161083f9060208082526003908201526208e9ab60eb1b604082015260600190565b905060006109956108ba8561266f565b905060006109a4876003614aad565b9050610a35826109db8760405160200161083f906020808252600990820152684441544153544f524560b81b604082015260600190565b63bd02d0f560e01b6109ec8761259f565b6040516024016109fe91815260200190565b60408051601f198184030181529190526020810180516001600160e01b03166001600160e01b0319909316929092179091526126bd565b888281518110610a4757610a47614ac4565b60200260200101819052508080610a5d90614b34565b915050610a9082846370a0823160e01b610a808960405160200161083f90614911565b6040516024016109fe91906146e6565b888281518110610aa257610aa2614ac4565b60200260200101819052508080610ab890614b34565b6040805160048152602481019091526020810180516001600160e01b03166318160ddd60e01b179052909250610af29150839086906126bd565b888281518110610b0457610b04614ac4565b60200260200101819052508680610b1a90614b34565b97505050505050505b600101610804565b506040805160608101825260008082526020820181905291810191909152610b896040516020016102569060208082526019908201527811915157d11254d5149250955513d497d1d054d7d312535255603a1b604082015260600190565b6001600160801b03168152610b9f600185614b4d565b610baa906060614b69565b610bb5906008614b88565b63ffffffff166020820152610bca6001612331565b604051632fca305360e21b81526000906001600160a01b037f0000000000000000000000000000000000000000000000000000000000000000169063bf28c14c90610c1b9087908690600401614bea565b6040805180830381865afa158015610c37573d6000803e3d6000fd5b505050506040513d601f19601f82011682018060405250810190610c5b9190614cdf565b805160405163c323228360e01b81529192506001600160a01b037f0000000000000000000000000000000000000000000000000000000000000000169163c32322839190610caf9088908790600401614bea565b60806040518083038185885af1158015610ccd573d6000803e3d6000fd5b50505050506040513d601f19601f82011682018060405250810190610cf29190614d53565b50610cfb6145d6565b6020810151610d0b90600261235f565b610d568160006040518060400160405280601a8152602001796e756d6265724f66436861696e7352656164526571756573747360301b81525060018a610d519190614a9a565b6123c4565b9050610d97816001604051806040016040528060168152602001756d6573736167696e674665652e6e617469766546656560501b81525085600001516123c4565b9050610dd360405180604001604052806018815260200177119959511a5cdd1c9a589d5d1a5bdb925b9a5d1a585d195960421b815250826123e6565b5050505050505050610de56001600055565b565b610e64604051602001610e1f9060208082526011908201527026aaa62a24a1a420a4a72fa922a0a222a960791b604082015260600190565b604051602081830303815290604052805190602001206040518060400160405280601181526020017026aaa62a24a1a420a4a72fa922a0a222a960791b815250611d20565b610e6e6001611ded565b610e788135611ee6565b604051630b27346f60e11b81526001600160a01b037f0000000000000000000000000000000000000000000000000000000000000000169063164e68de90610ee4907f0000000000000000000000000000000000000000000000000000000000000000906004016146e6565b600060405180830381600087803b158015610efe57600080fd5b505af1158015610f12573d6000803e3d6000fd5b50506040516357ed18eb60e01b81526000925073__$26ca41ccf224404dca1800130c325a7716$__91506357ed18eb90610f70907f0000000000000000000000000000000000000000000000000000000000000000906004016146e6565b600060405180830381865af4158015610f8d573d6000803e3d6000fd5b505050506040513d6000823e601f3d908101601f19168201604052610fb591908101906149ea565b90506000610fc382516126f3565b90506000610fd183516126f3565b90506000610fe16108ba466125ec565b90506000610ff16108ba4661262f565b905060008060008060005b895181101561112e5760008a828151811061101957611019614ac4565b6020026020010151905046810361108857878a838151811061103d5761103d614ac4565b6020026020010181815250508689838151811061105c5761105c614ac4565b60209081029190910101526110718887614b08565b955061107d8786614b08565b945081935050611126565b6000806110a48e806020019061109e9190614d6f565b8761273d565b91509150818c85815181106110bb576110bb614ac4565b602002602001018181525050808b85815181106110da576110da614ac4565b60209081029190910101526110ef8289614b08565b97506110fb8188614b08565b965061110961093d846125ec565b6111156103878461262f565b8461111f81614b34565b9550505050505b600101610ffc565b5061115d60405160200161114190614db5565b6040516020818303038152906040528051906020012085612228565b61118b60405160200161116f90614df9565b6040516020818303038152906040528051906020012084612228565b6111bd60405160200161119d9061486e565b604051602081830303815290604052805190602001208b60000135612228565b6111c561279f565b60006111d2858786612968565b9050600081881061125857818811156112465760006111f58c888c898f8a61297d565b90506000611203828b614a9a565b905080841115611237576040516397a3eeff60e01b815260048101859052602481018b905260448101839052606401610677565b611243610387466125ec565b50505b5060016112536003612331565b611265565b5060006112656002612331565b61126d6145d6565b602081015161127d90600161235f565b6112ba816000604051806040016040528060188152602001773332b2a0b6b7bab73a23b6bc21bab93932b73a21b430b4b760411b8152508c6123c4565b60a08101519091506112cd906001612b58565b61132560006040518060400160405280600c81526020016b72656365697665644461746160a01b8152508f6040516020016113089190614e2e565b60408051601f1981840301815291905260a0850151929190612bba565b606081015161133590600161235f565b6040805180820190915260138152721a5cd09c9a5919da5b99d0dbdb5c1b195d1959606a1b602082015260608201516113719160009085612c0c565b6113ae6040518060400160405280601b81526020017a119959511a5cdd1c9a589d5d1a5bdb91185d18549958d95a5d9959602a1b815250826123e6565b5050505050505050505050505050565b6113c6611cc7565b6113d86040516020016101949061481b565b6113e26002611ded565b6113f76102716040516020016102569061486e565b6113ff611f69565b600061141360405160200161025690614db5565b905060006114236108ba4661262f565b9050600061143960405160200161025690614df9565b90506000611448848484612968565b905060006114586108ba466125ec565b905060006114668284614a9a565b905060006114766108ba46612c61565b905060006114848383612cb3565b905060006114928286614b08565b905060006114bf7f0000000000000000000000000000000000000000000000000000000000000000612550565b9050818110156114e65781816040516352891c0160e11b8152600401610677929190614eb0565b6114f2610387466125ec565b6114fc6003612331565b60006115088783614a9a565b90506115126145d6565b602081015161152290600261235f565b6115528160006040518060400160405280600b81526020016a19db5e149958d95a5d995960aa1b815250856123c4565b9050611591816001604051806040016040528060188152602001773332b2a0b6b7bab73a23b6bc21bab93932b73a21b430b4b760411b815250866123c4565b90506115b5604051806060016040528060218152602001615e8f60219139826123e6565b505050505050505050505050610de56001600055565b6115d3611cc7565b6115e56040516020016101949061481b565b6115ef6000611ded565b60006115fd6108ba866122be565b90507f00000000000000000000000000000000000000000000000000000000000000006001600160a01b0316856001600160a01b031603611a41576000611686604051602001610256906020808252603190820152600080516020615eb083398151915260408201527010549114d7d154d1d35617d05353d55395607a1b606082015260800190565b9050808211156116ad578181604051635cb6b1b960e11b8152600401610677929190614eb0565b60006116d87f0000000000000000000000000000000000000000000000000000000000000000612550565b90508083111561178c576001600160a01b037f0000000000000000000000000000000000000000000000000000000000000000166340c10f197f000000000000000000000000000000000000000000000000000000000000000061173c8487614a9a565b6040518363ffffffff1660e01b8152600401611759929190614ebe565b600060405180830381600087803b15801561177357600080fd5b505af1158015611787573d6000803e3d6000fd5b505050505b60005b84811015611a395760008686838181106117ab576117ab614ac4565b9050604002018036038101906117c19190614ed7565b905060006117f86040516020016101f3906020808252600c908201526b22a9a3a6ac2fab22a9aa22a960a11b604082015260600190565b6020830151835160405163a2545fa560e01b81529293506000926001600160a01b0385169163a2545fa59161183091906004016146e6565b602060405180830381865afa15801561184d573d6000803e3d6000fd5b505050506040513d601f19601f820116820180604052508101906118719190614b1b565b61187b9190614b08565b835160405163107c89c960e21b81529192506001600160a01b038416916341f22724916118ac918590600401614ebe565b600060405180830381600087803b1580156118c657600080fd5b505af11580156118da573d6000803e3d6000fd5b505050506118e66145d6565b80516118f390600161235f565b6040805180820190915260078152661858d8dbdd5b9d60ca1b60208201528451825161192492909160009190612ccc565b602081015161193490600261235f565b61196381600060405180604001604052806006815260200165185b5bdd5b9d60d21b81525087602001516123c4565b905061199b81600160405180604001604052806011815260200170746f74616c4573476d785265776172647360781b815250856123c4565b90507f00000000000000000000000000000000000000000000000000000000000000006001600160a01b03166324de01e46119d98660000151612d29565b836040518363ffffffff1660e01b81526004016119f792919061571e565b600060405180830381600087803b158015611a1157600080fd5b505af1158015611a25573d6000803e3d6000fd5b50506001909601955061178f945050505050565b505050611a95565b7f00000000000000000000000000000000000000000000000000000000000000006001600160a01b0316856001600160a01b031614611a9557846040516317f6121160e31b815260040161067791906146e6565b604051635fa278ad60e11b815260009073__$a05ee47aaf2bebb5836367119e343f1fd0$__9063bf44f15a90611b19907f0000000000000000000000000000000000000000000000000000000000000000907f0000000000000000000000000000000000000000000000000000000000000000908b908b908b908b90600401615768565b602060405180830381865af4158015611b36573d6000803e3d6000fd5b505050506040513d601f19601f82011682018060405250810190611b5a9190614b1b565b9050611b87867f000000000000000000000000000000000000000000000000000000000000000083612d35565b7f00000000000000000000000000000000000000000000000000000000000000006001600160a01b031663340dbab3611bbf88612dbc565b836040518363ffffffff1660e01b8152600401611bdd929190614eb0565b6020604051808303816000875af1158015611bfc573d6000803e3d6000fd5b505050506040513d601f19601f82011682018060405250810190611c209190614b1b565b50611c6c7f0000000000000000000000000000000000000000000000000000000000000000877f0000000000000000000000000000000000000000000000000000000000000000612dfe565b600081611c7b6108ba896124f6565b611c859190614b08565b905082811115611cae5786818460405163c1fa684360e01b8152600401610677939291906157ea565b611cba610387886124f6565b5050506105d26001600055565b600260005403611d195760405162461bcd60e51b815260206004820152601f60248201527f5265656e7472616e637947756172643a207265656e7472616e742063616c6c006044820152606401610677565b6002600055565b60405163ac4ab3fb60e01b81526001600160a01b037f0000000000000000000000000000000000000000000000000000000000000000169063ac4ab3fb90611d6e9033908690600401614ebe565b602060405180830381865afa158015611d8b573d6000803e3d6000fd5b505050506040513d601f19601f82011682018060405250810190611daf919061580b565b611dd057338160405163a35b150b60e01b815260040161067792919061582d565b5050565b6000611de7611de283612f09565b61246a565b92915050565b6000611e0160405160200161025690615851565b9050806003811115611e1557611e156148fb565b6003811115611e2657611e266148fb565b826003811115611e3857611e386148fb565b14611dd0576040516321a57d1960e21b815260048101829052602401610677565b60405163bd02d0f560e01b8152600481018290526000907f00000000000000000000000000000000000000000000000000000000000000006001600160a01b03169063bd02d0f5906024015b602060405180830381865afa158015611ec2573d6000803e3d6000fd5b505050506040513d601f19601f82011682018060405250810190611de79190614b1b565b611f3a6040516020016102569060208082526027908201527f4645455f4449535452494255544f525f4d41585f524541445f524553504f4e53604082015266455f44454c415960c81b606082015260800190565b611f448242614a9a565b1115611f665760405163ef84cb9960e01b815260048101829052602401610677565b50565b60006007611f7a6201518042615896565b611f85906004614b08565b611f8f91906158aa565b905060006007611fd7604051602001610256906020808252818101527f4645455f4449535452494255544f525f444953545249425554494f4e5f444159604082015260600190565b611fe2846007614b08565b611fec9190614a9a565b611ff691906158aa565b9050600061200762015180426158aa565b6120119042614a9a565b905060006120228362015180614aad565b61202c9083614a9a565b90506000612042604051602001610256906148b5565b9050818111156120695780826040516329e8e56560e11b8152600401610677929190614eb0565b5050505050565b60008060008060006120a17f0000000000000000000000000000000000000000000000000000000000000000612550565b905060008073__$26ca41ccf224404dca1800130c325a7716$__634fb811e97f00000000000000000000000000000000000000000000000000000000000000006040518263ffffffff1660e01b81526004016120fd91906146e6565b6040805180830381865af4158015612119573d6000803e3d6000fd5b505050506040513d601f19601f8201168201806040525081019061213d91906158be565b9092509050600061214e8284614b08565b905060008061215f868d8d87612f4b565b91509150600061216f8e8e612fdb565b905061217f87878786868661311d565b915061218c84848461330a565b929d919c509a509098509650505050505050565b60006040516020016121e3906020808252601e908201527f4645455f4449535452494255544f525f4645455f414d4f554e545f5553440000604082015260600190565b604051602081830303815290604052805190602001208260405160200161220b929190614eb0565b604051602081830303815290604052805190602001209050919050565b604051637152429d60e11b81526001600160a01b037f0000000000000000000000000000000000000000000000000000000000000000169063e2a4853a906122769085908590600401614eb0565b6020604051808303816000875af1158015612295573d6000803e3d6000fd5b505050506040513d601f19601f820116820180604052508101906122b99190614b1b565b505050565b60006040516020016122ff906020808252602790820152600080516020615ed083398151915260408201526617d05353d5539560ca1b606082015260800190565b60408051601f198184030181528282528051602091820120908301526001600160a01b0384169082015260600161220b565b611f6660405160200161234390615851565b6040516020818303038152906040528051906020012082612228565b806001600160401b0381111561237757612377614937565b6040519080825280602002602001820160405280156123bd57816020015b6040805180820190915260608152600060208201528152602001906001900390816123955790505b5090915250565b6123cc6145d6565b60208501516123dd908585856137c9565b50929392505050565b60405163483624fb60e11b81526001600160a01b037f0000000000000000000000000000000000000000000000000000000000000000169063906c49f69061243490859085906004016158e2565b600060405180830381600087803b15801561244e57600080fd5b505af1158015612462573d6000803e3d6000fd5b505050505050565b6040516321f8a72160e01b8152600481018290526000907f00000000000000000000000000000000000000000000000000000000000000006001600160a01b0316906321f8a72190602401602060405180830381865afa1580156124d2573d6000803e3d6000fd5b505050506040513d601f19601f82011682018060405250810190611de79190615907565b60006040516020016122ff906020808252602a90820152600080516020615ed083398151915260408201526917d1115413d4d255115160b21b606082015260800190565b6000612549611de2848461381c565b9392505050565b6040516370a0823160e01b81526000906001600160a01b038316906370a0823190611ea5907f0000000000000000000000000000000000000000000000000000000000000000906004016146e6565b60006040516020016122ff9060208082526021908201527f574954484452415741424c455f4255594241434b5f544f4b454e5f414d4f554e6040820152601560fa1b606082015260800190565b60006040516020016121e3906020808252601e908201527f4645455f4449535452494255544f525f4645455f414d4f554e545f474d580000604082015260600190565b60006040516020016121e3906020808252601a908201527908c8a8abe8892a6a8a49284aaa89ea4bea6a882968a88be8e9ab60331b604082015260600190565b60006040516020016121e39060208082526022908201527f4645455f4449535452494255544f525f4c415945525a45524f5f434841494e5f604082015261125160f21b606082015260800190565b6126c56146c7565b506040805160608101825263ffffffff9490941684526001600160a01b039290921660208401529082015290565b6060816001600160401b0381111561270d5761270d614937565b604051908082528060200260200182016040528015612736578160200160208202803683370190505b5092915050565b6000808061274c846060614aad565b905060008080888489612760826060614b08565b9261276d93929190615924565b81019061277a919061594e565b91945092509050600061278d8385614b08565b9650909450505050505b935093915050565b6127a76138b8565b604051633d333c8560e01b81526001600160a01b037f00000000000000000000000000000000000000000000000000000000000000001690633d333c85906127f390849060040161597a565b600060405180830381600087803b15801561280d57600080fd5b505af1158015612821573d6000803e3d6000fd5b505050506128a9604051602001612865906020808252601990820152784645455f4449535452494255544f525f474d585f505249434560381b604082015260600190565b604051602081830303815290604052805190602001206128a47f0000000000000000000000000000000000000000000000000000000000000000613ae7565b612228565b6128fa6040516020016128bb906159d1565b604051602081830303815290604052805190602001206128a47f0000000000000000000000000000000000000000000000000000000000000000613ae7565b7f00000000000000000000000000000000000000000000000000000000000000006001600160a01b031662ccf1556040518163ffffffff1660e01b8152600401600060405180830381600087803b15801561295457600080fd5b505af1158015612069573d6000803e3d6000fd5b6000612975848484613b3a565b949350505050565b855160009081816001600160401b0381111561299b5761299b614937565b6040519080825280602002602001820160405280156129c4578160200160208202803683370190505b50905060005b82811015612a1b576129f6898983815181106129e8576129e8614ac4565b602002602001015189612968565b828281518110612a0857612a08614ac4565b60209081029190910101526001016129ca565b506040516358b4282560e01b815260009073__$26ca41ccf224404dca1800130c325a7716$__906358b4282590612a589089908690600401615a36565b600060405180830381865af4158015612a75573d6000803e3d6000fd5b505050506040513d6000823e601f3d908101601f19168201604052612a9d9190810190615a5b565b90506000612aaa846126f3565b905060005b8251811015612b3e5786838281518110612acb57612acb614ac4565b60200260200101516000015103612b3657828181518110612aee57612aee614ac4565b60200260200101516040015182848381518110612b0d57612b0d614ac4565b60200260200101516020015181518110612b2957612b29614ac4565b6020026020010181815250505b600101612aaf565b50612b498b82613c24565b9b9a5050505050505050505050565b806001600160401b03811115612b7057612b70614937565b6040519080825280602002602001820160405280156123bd57816020015b6040805180820190915260608082526020820152815260200190600190039081612b8e57505090915250565b8184600001518481518110612bd157612bd1614ac4565b6020026020010151600001819052508084600001518481518110612bf757612bf7614ac4565b60200260200101516020018190525050505050565b8184600001518481518110612c2357612c23614ac4565b6020026020010151600001819052508084600001518481518110612c4957612c49614ac4565b60209081029190910181015191151591015250505050565b60006040516020016121e39060208082526026908201527f4645455f4449535452494255544f525f4252494447455f534c4950504147455f6040820152652320a1aa27a960d11b606082015260800190565b6000612549838368327cb2734119d3b7a9601e1b612968565b8184600001518481518110612ce357612ce3614ac4565b6020026020010151600001819052508084600001518481518110612d0957612d09614ac4565b6020908102919091018101516001600160a01b0390921691015250505050565b6001600160a01b031690565b60405163078d3b7960e01b81526001600160a01b037f0000000000000000000000000000000000000000000000000000000000000000169063078d3b7990612d8590869086908690600401615b16565b600060405180830381600087803b158015612d9f57600080fd5b505af1158015612db3573d6000803e3d6000fd5b50505050505050565b60006040516020016122ff906020808252601c908201527b1513d5105317d0d31052535050931157d195539114d7d05353d5539560221b604082015260600190565b6000836001600160a01b031663bd02d0f5612e1885612dbc565b6040518263ffffffff1660e01b8152600401612e3691815260200190565b602060405180830381865afa158015612e53573d6000803e3d6000fd5b505050506040513d601f19601f82011682018060405250810190612e779190614b1b565b6040516370a0823160e01b81529091506001600160a01b038416906370a0823190612ea69085906004016146e6565b602060405180830381865afa158015612ec3573d6000803e3d6000fd5b505050506040513d601f19601f82011682018060405250810190612ee79190614b1b565b8111156105d25782604051639fc47b7760e01b815260040161067791906146e6565b60006040516020016121e3906020808252601c908201527b4645455f4449535452494255544f525f414444524553535f494e464f60201b604082015260600190565b60008080612f638786612f5e818a614b08565b612968565b90506000612fb282612fad604051602001610256906020808252818101527f4645455f4449535452494255544f525f434841494e4c494e4b5f464143544f52604082015260600190565b612cb3565b9050600085612fc18385614a9a565b612fcb9190614a9a565b9199919850909650505050505050565b60008061302c604051602001610256906020808252603390820152600080516020615eb083398151915260408201527210549114d7d5d39517d554d117d05353d55395606a1b606082015260800190565b90508084111561305357838160405163e668511560e01b8152600401610677929190614eb0565b60006130a3604051602001610256906020808252603390820152600080516020615eb083398151915260408201527220a92229afaba72a2faaa9a22fa320a1aa27a960691b606082015260800190565b905060006130b18583612cb3565b9050808611156130d8578581604051630c2b825560e21b8152600401610677929190614eb0565b600068327cb2734119d3b7a9601e1b6130f9604051602001610256906159d1565b6131039190614aad565b9050600061311188836140b7565b98975050505050505050565b600080838561312c888b614a9a565b6131369190614a9a565b6131409190614a9a565b9050600061314e8489614b08565b9050818111156132e15760006131648383614a9a565b9050858111156132ce5760006131c9604051602001610256906020808252602c908201527f4645455f4449535452494255544f525f4d41585f574e545f414d4f554e545f4660408201526b524f4d5f545245415355525960a01b606082015260800190565b905060006131d78884614a9a565b9050818111156131fe57818160405163226a41e560e21b8152600401610677929190614eb0565b7f00000000000000000000000000000000000000000000000000000000000000006001600160a01b03166323b872dd61323f6040516020016101f39061484c565b7f0000000000000000000000000000000000000000000000000000000000000000846040518463ffffffff1660e01b815260040161327f93929190615b16565b6020604051808303816000875af115801561329e573d6000803e3d6000fd5b505050506040513d601f19601f820116820180604052508101906132c2919061580b565b506000975050506132db565b6132d88187614a9a565b95505b506132fd565b60006132ed8284614a9a565b90506132f98187614b08565b9550505b5092979650505050505050565b60007f00000000000000000000000000000000000000000000000000000000000000006001600160a01b0316635948f73360405160200161334a90615b3a565b604051602081830303815290604052805190602001206040518263ffffffff1660e01b815260040161337e91815260200190565b600060405180830381865afa15801561339b573d6000803e3d6000fd5b505050506040513d6000823e601f3d908101601f191682016040526133c39190810190615b70565b905060007f00000000000000000000000000000000000000000000000000000000000000006001600160a01b03166386ac6bdf60405160200161340590615b3a565b604051602081830303815290604052805190602001206040518263ffffffff1660e01b815260040161343991815260200190565b600060405180830381865afa158015613456573d6000803e3d6000fd5b505050506040513d6000823e601f3d908101601f1916820160405261347e91908101906149ea565b90506000805b835181101561358a5760008482815181106134a1576134a1614ac4565b602002602001015190506000816001600160a01b031631905060008584815181106134ce576134ce614ac4565b602002602001015190508082101561357f5760006134ec8383614a9a565b604051633510f2a560e21b81529091506001600160a01b037f0000000000000000000000000000000000000000000000000000000000000000169063d443ca949061353d9087908590600401614ebe565b600060405180830381600087803b15801561355757600080fd5b505af115801561356b573d6000803e3d6000fd5b50505050808661357b9190614b08565b9550505b505050600101613484565b508086146135af5785816040516304471bcd60e11b8152600401610677929190614eb0565b6136097f00000000000000000000000000000000000000000000000000000000000000006136036040516020016101f390602080825260099082015268434841494e4c494e4b60b81b604082015260600190565b87612d35565b6136457f000000000000000000000000000000000000000000000000000000000000000061363f6040516020016101f39061484c565b86612d35565b600061365a4660405160200161083f90614ada565b9050600061366a6108ba466125ec565b90506000826001600160a01b031663bfe109286040518163ffffffff1660e01b8152600401602060405180830381865afa1580156136ac573d6000803e3d6000fd5b505050506040513d601f19601f820116820180604052508101906136d09190615907565b90506136fd7f00000000000000000000000000000000000000000000000000000000000000008484612d35565b806001600160a01b0316633ae6d6eb6040518163ffffffff1660e01b8152600401600060405180830381600087803b15801561373857600080fd5b505af115801561374c573d6000803e3d6000fd5b50505050806001600160a01b03166318e20a0362093a808461376e9190615896565b6040518263ffffffff1660e01b815260040161378c91815260200190565b600060405180830381600087803b1580156137a657600080fd5b505af11580156137ba573d6000803e3d6000fd5b50505050505050505050505050565b81846000015184815181106137e0576137e0614ac4565b602002602001015160000181905250808460000151848151811061380657613806614ac4565b6020026020010151602001818152505050505050565b600060405160200161386e9060208082526026908201527f4645455f4449535452494255544f525f414444524553535f494e464f5f464f526040820152652fa1a420a4a760d11b606082015260800190565b60408051601f198184030181528282528051602091820120908301528101849052606081018390526080015b60405160208183030381529060405280519060200120905092915050565b6138dc60405180606001604052806060815260200160608152602001606081525090565b60006138e860026126f3565b90507f00000000000000000000000000000000000000000000000000000000000000008160008151811061391e5761391e614ac4565b60200260200101906001600160a01b031690816001600160a01b0316815250507f00000000000000000000000000000000000000000000000000000000000000008160018151811061397257613972614ac4565b60200260200101906001600160a01b031690816001600160a01b031681525050600061399e60026126f3565b90506139ed611de27f00000000000000000000000000000000000000000000000000000000000000007f00000000000000000000000000000000000000000000000000000000000000006140c5565b81600081518110613a0057613a00614ac4565b60200260200101906001600160a01b031690816001600160a01b031681525050613a6d611de27f00000000000000000000000000000000000000000000000000000000000000007f00000000000000000000000000000000000000000000000000000000000000006140c5565b81600181518110613a8057613a80614ac4565b6001600160a01b03929092166020928302919091019091015260408051600280825260608201909252600091816020015b6060815260200190600190039081613ab15750506040805160608101825294855260208501939093529183019190915250919050565b6000806000613b167f000000000000000000000000000000000000000000000000000000000000000085614141565b91509150816125495783604051638db88ccf60e01b815260040161067791906146e6565b6000808060001985870985870292508281108382030391505080600003613b7457838281613b6a57613b6a615880565b0492505050612549565b808411613bbb5760405162461bcd60e51b81526020600482015260156024820152744d6174683a206d756c446976206f766572666c6f7760581b6044820152606401610677565b60008486880960026001871981018816978890046003810283188082028403028082028403028082028403028082028403028082028403029081029092039091026000889003889004909101858311909403939093029303949094049190911702949350505050565b600080613c5b6040516020016101f3906020808252600d908201526c131056515496915493d7d3d195609a1b604082015260600190565b90506000816001600160a01b031663857749b06040518163ffffffff1660e01b8152600401602060405180830381865afa158015613c9d573d6000803e3d6000fd5b505050506040513d601f19601f82011682018060405250810190613cc19190615c04565b60ff1690506000613cd3826012614a9a565b613cde90600a615d06565b90506000805b875181101561401c576000878281518110613d0157613d01614ac4565b6020026020010151905080600003613d195750614014565b6000613d258286614370565b9050613d527f00000000000000000000000000000000000000000000000000000000000000003083612d35565b7f00000000000000000000000000000000000000000000000000000000000000006001600160a01b0316876001600160a01b031614613e1e5760405163095ea7b360e01b81526001600160a01b037f0000000000000000000000000000000000000000000000000000000000000000169063095ea7b390613dd9908a908590600401614ebe565b6020604051808303816000875af1158015613df8573d6000803e3d6000fd5b505050506040513d601f19601f82011682018060405250810190613e1c919061580b565b505b60008a8481518110613e3257613e32614ac4565b602002602001015190506000613e4a6108ba8361266f565b90506000613e69613e648460405160200161083f90614911565b612d29565b90506000613e86613e8086612fad6108ba88612c61565b8a614370565b905060006040518060e001604052808563ffffffff16815260200184815260200187815260200183815260200160405180602001604052806000815250815260200160405180602001604052806000815250815260200160405180602001604052806000815250815250905060008c6001600160a01b0316633b6f743b8360006040518363ffffffff1660e01b8152600401613f23929190615d88565b6040805180830381865afa158015613f3f573d6000803e3d6000fd5b505050506040513d601f19601f82011682018060405250810190613f639190614cdf565b805160405163c7c7f5b360e01b81529192506001600160a01b038f169163c7c7f5b39190613fb990869086907f000000000000000000000000000000000000000000000000000000000000000090600401615dac565b60c06040518083038185885af1158015613fd7573d6000803e3d6000fd5b50505050506040513d601f19601f82011682018060405250810190613ffc9190615deb565b506140099050878b614b08565b995050505050505050505b600101613ce4565b506140256145d6565b602081015161403590600161235f565b61406c816000604051806040016040528060128152602001711d1bdd185b11db5e109c9a5919d95913dd5d60721b815250856123c4565b90506140ac6040518060400160405280601c81526020017b119959511a5cdd1c9a589d5d1a5bdb91db5e109c9a5919d95913dd5d60221b815250826123e6565b509695505050505050565b600061254983836000614387565b60006040516020016141049060208082526019908201527827a920a1a622afa82927ab24a222a92fa327a92faa27a5a2a760391b604082015260600190565b60408051601f198184030181528282528051602091820120908301526001600160a01b03808616918301919091528316606082015260800161389a565b6000806000846001600160a01b03166321f8a72161415e866143d6565b6040518263ffffffff1660e01b815260040161417c91815260200190565b602060405180830381865afa158015614199573d6000803e3d6000fd5b505050506040513d601f19601f820116820180604052508101906141bd9190615907565b90506001600160a01b0381166141da576000809250925050614369565b6000819050600080826001600160a01b031663feaf968c6040518163ffffffff1660e01b815260040160a060405180830381865afa158015614220573d6000803e3d6000fd5b505050506040513d601f19601f820116820180604052508101906142449190615e3c565b5093505092505060008213614270578682604051635f328a5b60e11b8152600401610677929190614ebe565b6000886001600160a01b031663bd02d0f561428a8a614406565b6040518263ffffffff1660e01b81526004016142a891815260200190565b602060405180830381865afa1580156142c5573d6000803e3d6000fd5b505050506040513d601f19601f820116820180604052508101906142e99190614b1b565b905081421180156143025750806143008342614a9a565b115b15614326578782826040516306b5a95b60e51b8152600401610677939291906157ea565b600061433184614449565b9050600061433f8b8b61449f565b9050600061435a838368327cb2734119d3b7a9601e1b612968565b60019a50985050505050505050505b9250929050565b60008161437d8185615896565b6125499190614aad565b60008360000361439957506000612549565b81156143bf576143b88468327cb2734119d3b7a9601e1b85600161453e565b9050612549565b6129758468327cb2734119d3b7a9601e1b85613b3a565b60006040516020016122ff906020808252600a908201526914149250d157d191515160b21b604082015260600190565b60006040516020016122ff906020808252601d908201527f50524943455f464545445f4845415254424541545f4455524154494f4e000000604082015260600190565b60008082121561449b5760405162461bcd60e51b815260206004820181905260248201527f53616665436173743a2076616c7565206d75737420626520706f7369746976656044820152606401610677565b5090565b600080836001600160a01b031663bd02d0f56144ba8561459b565b6040518263ffffffff1660e01b81526004016144d891815260200190565b602060405180830381865afa1580156144f5573d6000803e3d6000fd5b505050506040513d601f19601f820116820180604052508101906145199190614b1b565b905080600003612549578260405163b86fffef60e01b815260040161067791906146e6565b60008061454c868686613b3a565b90506001836002811115614562576145626148fb565b14801561457f57506000848061457a5761457a615880565b868809115b156145925761458f600182614b08565b90505b95945050505050565b60006040516020016122ff90602080825260159082015274282924a1a2afa322a2a22fa6aaa62a24a82624a2a960591b604082015260600190565b604080516101208101909152606060e0820181815261010083019190915281908152602001614618604051806040016040528060608152602001606081525090565b815260200161463a604051806040016040528060608152602001606081525090565b815260200161465c604051806040016040528060608152602001606081525090565b815260200161467e604051806040016040528060608152602001606081525090565b81526020016146a0604051806040016040528060608152602001606081525090565b81526020016146c2604051806040016040528060608152602001606081525090565b905290565b6040805160608082018352600080835260208301529181019190915290565b6001600160a01b0391909116815260200190565b6000806000806080858703121561471057600080fd5b5050823594602084013594506040840135936060013592509050565b6000806040838503121561473f57600080fd5b8235915060208301356001600160401b0381111561475c57600080fd5b83016040818603121561476e57600080fd5b809150509250929050565b6001600160a01b0381168114611f6657600080fd5b600080600080606085870312156147a457600080fd5b84356147af81614779565b93506020850135925060408501356001600160401b038111156147d157600080fd5b8501601f810187136147e257600080fd5b80356001600160401b038111156147f857600080fd5b8760208260061b840101111561480d57600080fd5b949793965060200194505050565b6020808252601790820152762322a2afa224a9aa2924a12aaa24a7a72fa5a2a2a822a960491b604082015260600190565b602080825260089082015267545245415355525960c01b604082015260600190565b60208082526027908201527f4645455f4449535452494255544f525f524541445f524553504f4e53455f544960408201526604d455354414d560cc1b606082015260800190565b60208082526026908201527f4645455f4449535452494255544f525f444953545249425554494f4e5f54494d6040820152650455354414d560d41b606082015260800190565b634e487b7160e01b600052602160045260246000fd5b6020808252600c908201526b2322a2afa922a1a2a4ab22a960a11b604082015260600190565b634e487b7160e01b600052604160045260246000fd5b604080519081016001600160401b038111828210171561496f5761496f614937565b60405290565b604051606081016001600160401b038111828210171561496f5761496f614937565b604051601f8201601f191681016001600160401b03811182821017156149bf576149bf614937565b604052919050565b60006001600160401b038211156149e0576149e0614937565b5060051b60200190565b6000602082840312156149fc57600080fd5b81516001600160401b03811115614a1257600080fd5b8201601f81018413614a2357600080fd5b8051614a36614a31826149c7565b614997565b8082825260208201915060208360051b850101925086831115614a5857600080fd5b6020840193505b82841015614a7a578351825260209384019390910190614a5f565b9695505050505050565b634e487b7160e01b600052601160045260246000fd5b81810381811115611de757611de7614a84565b8082028115828204841417611de757611de7614a84565b634e487b7160e01b600052603260045260246000fd5b60208082526014908201527322ac2a22a72222a22fa3a6ac2faa2920a1a5a2a960611b604082015260600190565b80820180821115611de757611de7614a84565b600060208284031215614b2d57600080fd5b5051919050565b600060018201614b4657614b46614a84565b5060010190565b63ffffffff8281168282160390811115611de757611de7614a84565b63ffffffff818116838216029081169081811461273657612736614a84565b63ffffffff8181168382160190811115611de757611de7614a84565b6000815180845260005b81811015614bca57602081850181015186830182015201614bae565b506000602082860101526020601f19601f83011685010191505092915050565b6000608082016080835280855180835260a08501915060a08160051b86010192506020870160005b82811015614c7357868503609f190184528151805163ffffffff1686526020808201516001600160a01b031690870152604090810151606091870182905290614c5d90870182614ba4565b9550506020938401939190910190600101614c12565b5050505080915050612549602083018480516001600160801b03908116835260208083015163ffffffff169084015260409182015116910152565b600060408284031215614cc057600080fd5b614cc861494d565b825181526020928301519281019290925250919050565b600060408284031215614cf157600080fd5b6125498383614cae565b600060808284031215614d0d57600080fd5b614d15614975565b8251815260208301519091506001600160401b0381168114614d3657600080fd5b6020820152614d488360408401614cae565b604082015292915050565b600060808284031215614d6557600080fd5b6125498383614cfb565b6000808335601e19843603018112614d8657600080fd5b8301803591506001600160401b03821115614da057600080fd5b60200191503681900382131561436957600080fd5b60208082526024908201527f4645455f4449535452494255544f525f544f54414c5f4645455f414d4f554e546040820152630be8e9ab60e31b606082015260800190565b6020808252818101527f4645455f4449535452494255544f525f544f54414c5f5354414b45445f474d58604082015260600190565b602080825282358282015260009083013536849003601e19018112614e5257600080fd5b83016020810190356001600160401b03811115614e6e57600080fd5b803603821315614e7d57600080fd5b604080850152806060850152808260808601376000608082860101526080601f19601f8301168501019250505092915050565b918252602082015260400190565b6001600160a01b03929092168252602082015260400190565b60006040828403128015614eea57600080fd5b50614ef361494d565b8235614efe81614779565b81526020928301359281019290925250919050565b600081518084526020840193506020830160005b82811015614f4e5781516001600160a01b0316865260209586019590910190600101614f27565b5093949350505050565b600082825180855260208501945060208160051b8301016020850160005b83811015614fcf57601f198584030188528151805160408552614f9c6040860182614ba4565b9050602082015191508481036020860152614fb78183614f13565b60209a8b019a90955093909301925050600101614f76565b50909695505050505050565b60006040830182516040855281815180845260608701915060608160051b880101935060208301925060005b8181101561505557605f19888603018352835180516040875261502d6040880182614ba4565b6020928301516001600160a01b03169783019790975250938401939290920191600101615007565b50505050602083015184820360208601526145928282614f58565b600082825180855260208501945060208160051b8301016020850160005b83811015614fcf57601f1985840301885281518051604085526150b46040860182614ba4565b6020928301518682038785015280518083529084019360009350909101905b808310156150f657835182526020820191506020840193506001830192506150d3565b5060209a8b019a9095509390930192505060010161508e565b60006040830182516040855281815180845260608701915060608160051b880101935060208301925060005b8181101561518057605f1988860301835283518051604087526151616040880182614ba4565b602092830151978301979097525093840193929092019160010161513b565b50505050602083015184820360208601526145928282615070565b60006040830182516040855281815180845260608701915060608160051b880101935060208301925060005b8181101561518057605f1988860301835283518051604087526151ed6040880182614ba4565b60209283015197830197909752509384019392909201916001016151c7565b600082825180855260208501945060208160051b8301016020850160005b83811015614fcf57601f1985840301885281518051604085526152506040860182614ba4565b6020928301518682038785015280518083529084019360009350909101905b808310156152945783511515825260208201915060208401935060018301925061526f565b5060209a8b019a9095509390930192505060010161522a565b60006040830182516040855281815180845260608701915060608160051b880101935060208301925060005b8181101561532057605f1988860301835283518051604087526152ff6040880182614ba4565b602092830151151597830197909752509384019392909201916001016152d9565b5050505060208301518482036020860152614592828261520c565b60006040830182516040855281815180845260608701915060608160051b880101935060208301925060005b8181101561518057605f19888603018352835180516040875261538d6040880182614ba4565b6020928301519783019790975250938401939290920191600101615367565b600082825180855260208501945060208160051b8301016020850160005b83811015614fcf57601f198584030188526153e6838351614ba4565b60209889019890935091909101906001016153ca565b600082825180855260208501945060208160051b8301016020850160005b83811015614fcf57601f1985840301885281518051604085526154406040860182614ba4565b905060208201519150848103602086015261545b81836153ac565b60209a8b019a9095509390930192505060010161541a565b60006040830182516040855281815180845260608701915060608160051b880101935060208301925060005b818110156154f757605f1988860301835283518051604087526154c56040880182614ba4565b90506020820151915086810360208801526154e08183614ba4565b96505050602093840193929092019160010161549f565b505050506020830151848203602086015261459282826153fc565b600082825180855260208501945060208160051b8301016020850160005b83811015614fcf57601f1985840301885281518051604085526155566040860182614ba4565b6020928301518682038785015280518083529084019391925081830191600582901b84010160005b828110156155af57601f1985830301845261559a828751614ba4565b6020968701969490940193915060010161557e565b508097505050505050602082019150602088019750600181019050615530565b60006040830182516040855281815180845260608701915060608160051b880101935060208301925060005b8181101561565357605f1988860301835283518051604087526156216040880182614ba4565b905060208201519150868103602088015261563c8183614ba4565b9650505060209384019392909201916001016155fb565b50505050602083015184820360208601526145928282615512565b6000815160e0845261568360e0850182614fdb565b90506020830151848203602086015261569c828261510f565b915050604083015184820360408601526156b6828261519b565b915050606083015184820360608601526156d082826152ad565b915050608083015184820360808601526156ea828261533b565b91505060a083015184820360a08601526157048282615473565b91505060c083015184820360c086015261459282826155cf565b60608152601a606082015279151bdd185b115cd1db5e14995dd85c991cd25b98dc99585cd95960321b608082015282602082015260a06040820152600061297560a083018461566e565b6001600160a01b0387811682528681166020830152851660408201526060810184905260a060808201819052810182905260008360c08301825b858110156157dc5782356157b581614779565b6001600160a01b0316825260208381013590830152604092830192909101906001016157a2565b509998505050505050505050565b6001600160a01b039390931683526020830191909152604082015260600190565b60006020828403121561581d57600080fd5b8151801515811461254957600080fd5b6001600160a01b038316815260406020820181905260009061297590830184614ba4565b6020808252601590820152744645455f4449535452494255544f525f535441544560581b604082015260600190565b634e487b7160e01b600052601260045260246000fd5b6000826158a5576158a5615880565b500490565b6000826158b9576158b9615880565b500690565b600080604083850312156158d157600080fd5b505080516020909101519092909150565b6040815260006158f56040830185614ba4565b8281036020840152614592818561566e565b60006020828403121561591957600080fd5b815161254981614779565b6000808585111561593457600080fd5b8386111561594157600080fd5b5050820193919092039150565b60008060006060848603121561596357600080fd5b505081359360208301359350604090920135919050565b6020815260008251606060208401526159966080840182614f13565b90506020840151601f198483030160408501526159b38282614f13565b9150506040840151601f1984830301606085015261459282826153ac565b6020808252601990820152784645455f4449535452494255544f525f574e545f505249434560381b604082015260600190565b600081518084526020840193506020830160005b82811015614f4e578151865260209586019590910190600101615a18565b604081526000615a496040830185615a04565b82810360208401526145928185615a04565b600060208284031215615a6d57600080fd5b81516001600160401b03811115615a8357600080fd5b8201601f81018413615a9457600080fd5b8051615aa2614a31826149c7565b80828252602082019150602060608402850101925086831115615ac457600080fd5b6020840193505b82841015614a7a5760608488031215615ae357600080fd5b615aeb614975565b8451815260208086015181830152604080870151908301529083526060909401939190910190615acb565b6001600160a01b039384168152919092166020820152604081019190915260600190565b6020808252601c908201527b4645455f4449535452494255544f525f4b45455045525f434f53545360201b604082015260600190565b600060208284031215615b8257600080fd5b81516001600160401b03811115615b9857600080fd5b8201601f81018413615ba957600080fd5b8051615bb7614a31826149c7565b8082825260208201915060208360051b850101925086831115615bd957600080fd5b6020840193505b82841015614a7a578351615bf381614779565b825260209384019390910190615be0565b600060208284031215615c1657600080fd5b815160ff8116811461254957600080fd5b6001815b600184111561279757808504811115615c4657615c46614a84565b6001841615615c5457908102905b60019390931c928002615c2b565b600082615c7157506001611de7565b81615c7e57506000611de7565b8160018114615c945760028114615c9e57615cba565b6001915050611de7565b60ff841115615caf57615caf614a84565b50506001821b611de7565b5060208310610133831016604e8410600b8410161715615cdd575081810a611de7565b615cea6000198484615c27565b8060001904821115615cfe57615cfe614a84565b029392505050565b60006125498383615c62565b63ffffffff81511682526020810151602083015260408101516040830152606081015160608301526000608082015160e06080850152615d5560e0850182614ba4565b905060a083015184820360a0860152615d6e8282614ba4565b91505060c083015184820360c08601526145928282614ba4565b604081526000615d9b6040830185615d12565b905082151560208301529392505050565b608081526000615dbf6080830186615d12565b8451602084810191909152909401516040830152506001600160a01b0391909116606090910152919050565b60008060c08385031215615dfe57600080fd5b615e088484614cfb565b9150615e178460808501614cae565b90509250929050565b80516001600160501b0381168114615e3757600080fd5b919050565b600080600080600060a08688031215615e5457600080fd5b615e5d86615e20565b60208701516040880151606089015192975090955093509150615e8260808701615e20565b9050929550929590935056fe466565446973747269627574696f6e42726964676564476d7852656365697665644645455f4449535452494255544f525f4d41585f524546455252414c5f5245574645455f4449535452494255544f525f524546455252414c5f52455741524453a2646970667358221220473b8e12beb2c45d74dd6f63da09b8d1e9cb81261f909468067da780da4e8d6164736f6c634300081d0033",
  "linkReferences": {
    "contracts/claim/ClaimUtils.sol": {
      "ClaimUtils": [
        {
          "length": 20,
          "start": 7710
        }
      ]
    },
    "contracts/fee/FeeDistributorUtils.sol": {
      "FeeDistributorUtils": [
        {
          "length": 20,
          "start": 2682
        },
        {
          "length": 20,
          "start": 4766
        },
        {
          "length": 20,
          "start": 9247
        },
        {
          "length": 20,
          "start": 11685
        }
      ]
    }
  },
  "deployedLinkReferences": {
    "contracts/claim/ClaimUtils.sol": {
      "ClaimUtils": [
        {
          "length": 20,
          "start": 6823
        }
      ]
    },
    "contracts/fee/FeeDistributorUtils.sol": {
      "FeeDistributorUtils": [
        {
          "length": 20,
          "start": 1795
        },
        {
          "length": 20,
          "start": 3879
        },
        {
          "length": 20,
          "start": 8360
        },
        {
          "length": 20,
          "start": 10798
        }
      ]
    }
  }
}