{
  "_format": "hh-sol-artifact-1",
  "contractName": "FeeDistributor",
  "sourceName": "contracts/fee/FeeDistributor.sol",
  "abi": [
    {
      "inputs": [
        {
          "internalType": "contract RoleStore",
          "name": "_roleStore",
          "type": "address"
        },
        {
          "internalType": "contract IOracle",
          "name": "_oracle",
          "type": "address"
        },
        {
          "internalType": "contract FeeDistributorVault",
          "name": "_feeDistributorVault",
          "type": "address"
        },
        {
          "internalType": "contract FeeHandler",
          "name": "_feeHandler",
          "type": "address"
        },
        {
          "internalType": "contract DataStore",
          "name": "_dataStore",
          "type": "address"
        },
        {
          "internalType": "contract EventEmitter",
          "name": "_eventEmitter",
          "type": "address"
        },
        {
          "internalType": "contract MultichainReader",
          "name": "_multichainReader",
          "type": "address"
        },
        {
          "internalType": "address",
          "name": "_gmx",
          "type": "address"
        },
        {
          "internalType": "address",
          "name": "_esGmx",
          "type": "address"
        },
        {
          "internalType": "address",
          "name": "_wnt",
          "type": "address"
        }
      ],
      "stateMutability": "nonpayable",
      "type": "constructor"
    },
    {
      "inputs": [
        {
          "internalType": "uint256",
          "name": "minRequiredFeeAmount",
          "type": "uint256"
        },
        {
          "internalType": "uint256",
          "name": "feeAmountCurrentChain",
          "type": "uint256"
        },
        {
          "internalType": "uint256",
          "name": "amountToBridgeOut",
          "type": "uint256"
        }
      ],
      "name": "AttemptedBridgeAmountTooHigh",
      "type": "error"
    },
    {
      "inputs": [
        {
          "internalType": "uint256",
          "name": "minRequiredFeeAmount",
          "type": "uint256"
        },
        {
          "internalType": "uint256",
          "name": "currentChainFeeAmount",
          "type": "uint256"
        }
      ],
      "name": "BridgedAmountNotSufficient",
      "type": "error"
    },
    {
      "inputs": [
        {
          "internalType": "uint256",
          "name": "lastDistributionTime",
          "type": "uint256"
        },
        {
          "internalType": "uint256",
          "name": "startOfCurrentWeek",
          "type": "uint256"
        }
      ],
      "name": "FeeDistributionAlreadyCompleted",
      "type": "error"
    },
    {
      "inputs": [
        {
          "internalType": "uint256",
          "name": "distributionStateUint",
          "type": "uint256"
        }
      ],
      "name": "InvalidDistributionState",
      "type": "error"
    },
    {
      "inputs": [
        {
          "internalType": "address",
          "name": "receiver",
          "type": "address"
        }
      ],
      "name": "InvalidFeeReceiver",
      "type": "error"
    },
    {
      "inputs": [
        {
          "internalType": "address",
          "name": "token",
          "type": "address"
        }
      ],
      "name": "InvalidReferralRewardToken",
      "type": "error"
    },
    {
      "inputs": [
        {
          "internalType": "uint256",
          "name": "wntForKeepers",
          "type": "uint256"
        },
        {
          "internalType": "uint256",
          "name": "wntToKeepers",
          "type": "uint256"
        }
      ],
      "name": "KeeperAmountMismatch",
      "type": "error"
    },
    {
      "inputs": [
        {
          "internalType": "uint256",
          "name": "keepersLength",
          "type": "uint256"
        },
        {
          "internalType": "uint256",
          "name": "keeperTargetBalancesLength",
          "type": "uint256"
        },
        {
          "internalType": "uint256",
          "name": "keeperVersionsLength",
          "type": "uint256"
        }
      ],
      "name": "KeeperArrayLengthMismatch",
      "type": "error"
    },
    {
      "inputs": [
        {
          "internalType": "address",
          "name": "token",
          "type": "address"
        },
        {
          "internalType": "uint256",
          "name": "tokenReferralRewards",
          "type": "uint256"
        },
        {
          "internalType": "uint256",
          "name": "maxTokenReferralRewards",
          "type": "uint256"
        }
      ],
      "name": "MaxReferralRewardsExceeded",
      "type": "error"
    },
    {
      "inputs": [
        {
          "internalType": "uint256",
          "name": "wntReferralRewardsInUsd",
          "type": "uint256"
        },
        {
          "internalType": "uint256",
          "name": "maxWntReferralRewardsInUsdAmount",
          "type": "uint256"
        }
      ],
      "name": "MaxWntReferralRewardsInUsdAmountExceeded",
      "type": "error"
    },
    {
      "inputs": [
        {
          "internalType": "uint256",
          "name": "wntReferralRewardsInUsd",
          "type": "uint256"
        },
        {
          "internalType": "uint256",
          "name": "maxWntReferralRewardsInUsd",
          "type": "uint256"
        }
      ],
      "name": "MaxWntReferralRewardsInUsdExceeded",
      "type": "error"
    },
    {
      "inputs": [
        {
          "internalType": "uint256",
          "name": "treasuryWntAmount",
          "type": "uint256"
        },
        {
          "internalType": "uint256",
          "name": "additionalWntForGlp",
          "type": "uint256"
        },
        {
          "internalType": "uint256",
          "name": "maxWntUsableFromTreasury",
          "type": "uint256"
        }
      ],
      "name": "MaxWntUsableFromTreasuryExceeded",
      "type": "error"
    },
    {
      "inputs": [
        {
          "internalType": "uint256",
          "name": "timestamp",
          "type": "uint256"
        }
      ],
      "name": "OutdatedReadResponse",
      "type": "error"
    },
    {
      "inputs": [
        {
          "internalType": "address",
          "name": "token",
          "type": "address"
        },
        {
          "internalType": "uint256",
          "name": "addressArrayLength",
          "type": "uint256"
        },
        {
          "internalType": "uint256",
          "name": "maxBatchSize",
          "type": "uint256"
        }
      ],
      "name": "ReferralRewardsAmountExceedsMaxBatchSize",
      "type": "error"
    },
    {
      "inputs": [
        {
          "internalType": "address",
          "name": "token",
          "type": "address"
        },
        {
          "internalType": "uint256",
          "name": "addressArrayLength",
          "type": "uint256"
        },
        {
          "internalType": "uint256",
          "name": "amountArrayLength",
          "type": "uint256"
        }
      ],
      "name": "ReferralRewardsArrayMismatch",
      "type": "error"
    },
    {
      "inputs": [
        {
          "internalType": "address",
          "name": "msgSender",
          "type": "address"
        },
        {
          "internalType": "string",
          "name": "role",
          "type": "string"
        }
      ],
      "name": "Unauthorized",
      "type": "error"
    },
    {
      "inputs": [],
      "name": "bridgedGmxReceived",
      "outputs": [],
      "stateMutability": "nonpayable",
      "type": "function"
    },
    {
      "inputs": [
        {
          "internalType": "uint256",
          "name": "wntReferralRewardsInUsd",
          "type": "uint256"
        },
        {
          "internalType": "uint256",
          "name": "esGmxForReferralRewards",
          "type": "uint256"
        },
        {
          "internalType": "uint256",
          "name": "feesV1Usd",
          "type": "uint256"
        },
        {
          "internalType": "uint256",
          "name": "feesV2Usd",
          "type": "uint256"
        }
      ],
      "name": "distribute",
      "outputs": [],
      "stateMutability": "nonpayable",
      "type": "function"
    },
    {
      "inputs": [],
      "name": "initiateDistribute",
      "outputs": [],
      "stateMutability": "nonpayable",
      "type": "function"
    },
    {
      "inputs": [],
      "name": "oracle",
      "outputs": [
        {
          "internalType": "contract IOracle",
          "name": "",
          "type": "address"
        }
      ],
      "stateMutability": "view",
      "type": "function"
    },
    {
      "inputs": [
        {
          "internalType": "bytes32",
          "name": "",
          "type": "bytes32"
        },
        {
          "components": [
            {
              "internalType": "uint256",
              "name": "timestamp",
              "type": "uint256"
            },
            {
              "internalType": "bytes",
              "name": "readData",
              "type": "bytes"
            }
          ],
          "internalType": "struct MultichainReaderUtils.ReceivedData",
          "name": "receivedData",
          "type": "tuple"
        }
      ],
      "name": "processLzReceive",
      "outputs": [],
      "stateMutability": "nonpayable",
      "type": "function"
    },
    {
      "inputs": [],
      "name": "roleStore",
      "outputs": [
        {
          "internalType": "contract RoleStore",
          "name": "",
          "type": "address"
        }
      ],
      "stateMutability": "view",
      "type": "function"
    },
    {
      "inputs": [
        {
          "internalType": "address",
          "name": "token",
          "type": "address"
        },
        {
          "internalType": "uint256",
          "name": "maxBatchSize",
          "type": "uint256"
        },
        {
          "internalType": "address[]",
          "name": "accounts",
          "type": "address[]"
        },
        {
          "internalType": "uint256[]",
          "name": "amounts",
          "type": "uint256[]"
        }
      ],
      "name": "sendReferralRewards",
      "outputs": [],
      "stateMutability": "nonpayable",
      "type": "function"
    },
    {
      "stateMutability": "payable",
      "type": "receive"
    }
  ],
  "bytecode": "0x6101c06040523480156200001257600080fd5b5060405162005f4338038062005f438339810160408190526200003591620000af565b60016000556001600160a01b03998a1660805297891660a05295881660c05293871660e05291861661010052851661012052841661014052831661016052821661018052166101a05262000198565b6001600160a01b03811681146200009a57600080fd5b50565b8051620000aa8162000084565b919050565b6000806000806000806000806000806101408b8d031215620000d057600080fd5b8a51620000dd8162000084565b60208c0151909a50620000f08162000084565b60408c0151909950620001038162000084565b60608c0151909850620001168162000084565b60808c0151909750620001298162000084565b60a08c01519096506200013c8162000084565b60c08c01519095506200014f8162000084565b60e08c0151909450620001628162000084565b6101008c0151909350620001768162000084565b9150620001876101208c016200009d565b90509295989b9194979a5092959850565b60805160a05160c05160e05161010051610120516101405161016051610180516101a051615bf56200034e6000396000818161026a0152818161031b015281816107080152818161128a01528181611f2b01528181612197015281816121f20152818161222f01528181612b7d015281816133f1015281816139a30152613a6a01526000818161034d0152818161073b01528181610e4d01528181610e8e01528181610f0e01528181610f520152610f8a0152600081816108430152818161086f0152818161150e01528181611a570152818161229001528181612aa00152818161394f01528181613a0b01528181613cfb01528181613d230152613d71015260008181610bc70152610c5a015260006125390152600081816105de01528181611d190152818161237b01528181612fd1015281816135730152818161360301526138a801526000818161023d01526114e101526000818161069301528181610fb1015281816120de015281816126e7015281816128910152613f67015260008181610123015281816129b201528181612a7101528181612b4e0152612bba01526000818160820152611bf70152615bf56000f3fe6080604052600436106100645760003560e01c80634a4a7b041461007057806361465a32146100ba578063707fcf19146100dc57806370c8b627146100f15780637dc0d1d014610111578063a16f187e14610145578063b5cb97f61461016557600080fd5b3661006b57005b600080fd5b34801561007c57600080fd5b506100a47f000000000000000000000000000000000000000000000000000000000000000081565b6040516100b19190614337565b60405180910390f35b3480156100c657600080fd5b506100da6100d536600461434b565b61017a565b005b3480156100e857600080fd5b506100da6105c0565b3480156100fd57600080fd5b506100da61010c3660046143dd565b610dca565b34801561011d57600080fd5b506100a47f000000000000000000000000000000000000000000000000000000000000000081565b34801561015157600080fd5b506100da610160366004614468565b611439565b34801561017157600080fd5b506100da61197a565b610182611b87565b6101df604051602001610194906144b5565b60405160208183030381529060405280519060200120604051806040016040528060178152602001762322a2afa224a9aa2924a12aaa24a7a72fa5a2a2a822a960491b815250611be0565b6101e96003611c94565b61021e6102196040516020016101fe906144e6565b60405160208183030381529060405280519060200120611d00565b611d93565b610226611e16565b604051630b27346f60e11b81526001600160a01b037f0000000000000000000000000000000000000000000000000000000000000000169063164e68de90610292907f000000000000000000000000000000000000000000000000000000000000000090600401614337565b600060405180830381600087803b1580156102ac57600080fd5b505af11580156102c0573d6000803e3d6000fd5b5050505060008060008060006102d7898888611f1d565b945094509450945094506102ed85858584611ff6565b6103006102fa60016122dc565b88612364565b61031361030d60026122dc565b87612364565b61034561033f7f00000000000000000000000000000000000000000000000000000000000000006123fa565b83612364565b6103776103717f00000000000000000000000000000000000000000000000000000000000000006123fa565b89612364565b6103a56040516020016103899061452d565b6040516020818303038152906040528051906020012042612364565b6103af600061246d565b6103b7614227565b60208101516103c790600861249b565b6103f5816000604051806040016040528060098152602001681999595cd58c555cd960ba1b8152508b612500565b9050610425816001604051806040016040528060098152602001681999595cd58c955cd960ba1b8152508a612500565b90506104598160026040518060400160405280600d81526020016c776e74466f724b65657065727360981b81525089612500565b905061048f8160036040518060400160405280600f81526020016e776e74466f72436861696e6c696e6b60881b81525088612500565b90506104c48160046040518060400160405280600e81526020016d776e74466f72547265617375727960901b81525087612500565b90506104f4816005604051806040016040528060098152602001680776e74466f72476c760bc1b81525085612500565b905061053081600660405180604001604052806015815260200174776e74466f72526566657272616c5265776172647360581b81525086612500565b905061056e816007604051806040016040528060178152602001766573476d78466f72526566657272616c5265776172647360481b8152508c612500565b90506105aa60405180604001604052806018815260200177119959511a5cdd1c9a589d5d1a5bdb90dbdb5c1b195d195960421b81525082612522565b5050505050506105ba6001600055565b50505050565b6105c8611b87565b6105da604051602001610194906144b5565b60007f00000000000000000000000000000000000000000000000000000000000000006001600160a01b03166321f8a72160405160200161061a90614589565b604051602081830303815290604052805190602001206040518263ffffffff1660e01b815260040161064e91815260200190565b602060405180830381865afa15801561066b573d6000803e3d6000fd5b505050506040513d601f19601f8201168201806040525081019061068f91906145af565b90507f00000000000000000000000000000000000000000000000000000000000000006001600160a01b0316816001600160a01b0316146106ee578060405163cb9339d560e01b81526004016106e59190614337565b60405180910390fd5b6106f86000611c94565b610700611e16565b61073361072c7f000000000000000000000000000000000000000000000000000000000000000061259e565b6000612364565b61075f61072c7f000000000000000000000000000000000000000000000000000000000000000061259e565b60006107696125dd565b8051909150600061077b6001836145e2565b6107869060036145f5565b6001600160401b0381111561079d5761079d61460c565b6040519080825280602002602001820160405280156107d657816020015b6107c3614318565b8152602001906001900390816107bb5790505b5090506000805b83811015610b0e5760008582815181106107f9576107f9614622565b6020026020010151905060006108338260405160200161081890614638565b604051602081830303815290604052805190602001206126a5565b90504682036109315760006108677f00000000000000000000000000000000000000000000000000000000000000006126c0565b6108986108937f000000000000000000000000000000000000000000000000000000000000000061270f565b611d00565b6108a29190614666565b90506000826001600160a01b03166318160ddd6040518163ffffffff1660e01b8152600401602060405180830381865afa1580156108e4573d6000803e3d6000fd5b505050506040513d601f19601f820116820180604052508101906109089190614679565b905061091661033f8561275c565b6109286109228561279f565b82612364565b50505050610afc565b600061095e836040516020016108189060208082526003908201526208e9ab60eb1b604082015260600190565b9050600061096e610893856127df565b9050600061097d8760036145f5565b9050610a0e826109b487604051602001610818906020808252600990820152684441544153544f524560b81b604082015260600190565b63bd02d0f560e01b6109c58761270f565b6040516024016109d791815260200190565b60408051601f198184030181529190526020810180516001600160e01b03166001600160e01b03199093169290921790915261282d565b888281518110610a2057610a20614622565b60200260200101819052508080610a3690614692565b915050610a6982846370a0823160e01b610a598960405160200161081890614589565b6040516024016109d79190614337565b888281518110610a7b57610a7b614622565b60200260200101819052508080610a9190614692565b6040805160048152602481019091526020810180516001600160e01b03166318160ddd60e01b179052909250610acb91508390869061282d565b888281518110610add57610add614622565b60200260200101819052508680610af390614692565b97505050505050505b80610b0681614692565b9150506107dd565b506040805160608101825260008082526020820181905291810191909152610b6c6040516020016101fe9060208082526019908201527811915157d11254d5149250955513d497d1d054d7d312535255603a1b604082015260600190565b6001600160801b03168152610b826001856146ab565b610b8d9060606146c8565b610b989060086146f0565b63ffffffff166020820152610bad600161246d565b604051632fca305360e21b81526000906001600160a01b037f0000000000000000000000000000000000000000000000000000000000000000169063bf28c14c90610bfe9087908690600401614753565b6040805180830381865afa158015610c1a573d6000803e3d6000fd5b505050506040513d601f19601f82011682018060405250810190610c3e91906148c1565b805160405163c323228360e01b81529192506001600160a01b037f0000000000000000000000000000000000000000000000000000000000000000169163c32322839190610c929088908790600401614753565b60806040518083038185885af1158015610cb0573d6000803e3d6000fd5b50505050506040513d601f19601f82011682018060405250810190610cd59190614935565b50610cde614227565b6020810151610cee90600261249b565b610d398160006040518060400160405280601a8152602001796e756d6265724f66436861696e7352656164526571756573747360301b81525060018a610d3491906145e2565b612500565b9050610d7a816001604051806040016040528060168152602001756d6573736167696e674665652e6e617469766546656560501b8152508560000151612500565b9050610db660405180604001604052806018815260200177119959511a5cdd1c9a589d5d1a5bdb925b9a5d1a585d195960421b81525082612522565b5050505050505050610dc86001600055565b565b610dd2611b87565b610de4604051602001610194906144b5565b610dee6000611c94565b828114610e1457604051637ed1475d60e11b81526106e590879085908490600401614951565b84831115610e3b576040516302bf61d760e31b81526106e590879085908890600401614951565b6000610e496108938861259e565b90507f00000000000000000000000000000000000000000000000000000000000000006001600160a01b0316876001600160a01b031603611288576000610eb26108937f00000000000000000000000000000000000000000000000000000000000000006123fa565b90506000610f026040516020016101fe906020808252603190820152600080516020615b8083398151915260408201527010549114d7d154d1d35617d05353d55395607a1b606082015260800190565b905080821115610f4b577f0000000000000000000000000000000000000000000000000000000000000000828260405163c1fa684360e01b81526004016106e593929190614951565b6000610f767f00000000000000000000000000000000000000000000000000000000000000006126c0565b90508083111561102a576001600160a01b037f0000000000000000000000000000000000000000000000000000000000000000166340c10f197f0000000000000000000000000000000000000000000000000000000000000000610fda84876145e2565b6040518363ffffffff1660e01b8152600401610ff7929190614972565b600060405180830381600087803b15801561101157600080fd5b505af1158015611025573d6000803e3d6000fd5b505050505b60005b8781101561127f57600089898381811061104957611049614622565b905060200201602081019061105e919061498b565b9050600088888481811061107457611074614622565b9050602002013590506110888d8383612863565b6110928188614666565b965060006110ca46604051602001610818906020808252600c908201526b22a9a3a6ac2fab22a9aa22a960a11b604082015260600190565b9050600082826001600160a01b031663a2545fa5866040518263ffffffff1660e01b81526004016110fb9190614337565b602060405180830381865afa158015611118573d6000803e3d6000fd5b505050506040513d601f19601f8201168201806040525081019061113c9190614679565b6111469190614666565b60405163107c89c960e21b81529091506001600160a01b038316906341f22724906111779087908590600401614972565b600060405180830381600087803b15801561119157600080fd5b505af11580156111a5573d6000803e3d6000fd5b505050506111b1614227565b60208101516111c190600261249b565b6111f18160006040518060400160405280600b81526020016a195cd1db5e105b5bdd5b9d60aa1b81525087612500565b905061122b8160016040518060400160405280601381526020017275706461746564426f6e75735265776172647360681b81525085612500565b905061126760405180604001604052806018815260200177115cd1db5e149959995c9c985b14995dd85c991cd4d95b9d60421b81525082612522565b5050505050808061127790614692565b91505061102d565b505050506113e2565b7f00000000000000000000000000000000000000000000000000000000000000006001600160a01b0316876001600160a01b0316036113c75760005b848110156113c15760008686838181106112e0576112e0614622565b90506020020160208101906112f5919061498b565b9050600085858481811061130b5761130b614622565b90506020020135905061131f8a8383612863565b6113298185614666565b9350611333614227565b602081015161134390600161249b565b611371816000604051806040016040528060098152602001681ddb9d105b5bdd5b9d60ba1b81525085612500565b90506113ab6040518060400160405280601681526020017515db9d149959995c9c985b14995dd85c991cd4d95b9d60521b81525082612522565b50505080806113b990614692565b9150506112c4565b506113e2565b866040516317f6121160e31b81526004016106e59190614337565b60006113f0610893896123fa565b9050808211156114195787828260405163c1fa684360e01b81526004016106e593929190614951565b61142561033f8961259e565b50506114316001600055565b505050505050565b6114b66040516020016114719060208082526011908201527026aaa62a24a1a420a4a72fa922a0a222a960791b604082015260600190565b604051602081830303815290604052805190602001206040518060400160405280601181526020017026aaa62a24a1a420a4a72fa922a0a222a960791b815250611be0565b6114c06001611c94565b6114ca8135611d93565b604051630b27346f60e11b81526001600160a01b037f0000000000000000000000000000000000000000000000000000000000000000169063164e68de90611536907f000000000000000000000000000000000000000000000000000000000000000090600401614337565b600060405180830381600087803b15801561155057600080fd5b505af1158015611564573d6000803e3d6000fd5b5050505060006115726125dd565b9050600061158082516128e9565b9050600061158e83516128e9565b9050600061159e6108934661275c565b905060006115ae6108934661279f565b905060008060008060005b89518110156116f55760008a82815181106115d6576115d6614622565b6020026020010151905046810361164557878a83815181106115fa576115fa614622565b6020026020010181815250508689838151811061161957611619614622565b602090810291909101015261162e8887614666565b955061163a8786614666565b9450819350506116e3565b6000806116618e806020019061165b91906149a8565b87612933565b91509150818c858151811061167857611678614622565b602002602001018181525050808b858151811061169757611697614622565b60209081029190910101526116ac8289614666565b97506116b88188614666565b96506116c661033f8461275c565b6116d26109228461279f565b846116dc81614692565b9550505050505b806116ed81614692565b9150506115b9565b50611724604051602001611708906149ee565b6040516020818303038152906040528051906020012085612364565b61175260405160200161173690614a32565b6040516020818303038152906040528051906020012084612364565b611784604051602001611764906144e6565b604051602081830303815290604052805190602001208b60000135612364565b61178c612993565b6000611799858786612c26565b9050600081881061181457818811156118025760006117bc8c888c898f8a612c3b565b905060006117ca828b6145e2565b9050808411156117f357838a836040516397a3eeff60e01b81526004016106e593929190614a67565b6117ff6109224661275c565b50505b50600161180f600361246d565b611821565b506000611821600261246d565b611829614227565b602081015161183990600161249b565b611876816000604051806040016040528060188152602001773332b2a0b6b7bab73a23b6bc21bab93932b73a21b430b4b760411b8152508c612500565b60a0810151909150611889906001612e2a565b6118e160006040518060400160405280600c81526020016b72656365697665644461746160a01b8152508f6040516020016118c49190614a7d565b60408051601f1981840301815291905260a0850151929190612e8c565b60608101516118f190600161249b565b6040805180820190915260138152721a5cd09c9a5919da5b99d0dbdb5c1b195d1959606a1b6020820152606082015161192d9160009085612ede565b61196a6040518060400160405280601b81526020017a119959511a5cdd1c9a589d5d1a5bdb91185d18549958d95a5d9959602a1b81525082612522565b5050505050505050505050505050565b611982611b87565b611994604051602001610194906144b5565b61199e6002611c94565b6119b36102196040516020016101fe906144e6565b6119bb611e16565b60006119cf6040516020016101fe906149ee565b905060006119df6108934661279f565b905060006119f56040516020016101fe90614a32565b90506000611a04848484612c26565b90506000611a146108934661275c565b90506000611a2282846145e2565b90506000611a3261089346612f33565b90506000611a408383612f85565b90506000611a4e8286614666565b90506000611a7b7f00000000000000000000000000000000000000000000000000000000000000006126c0565b905081811015611aa25781816040516352891c0160e11b81526004016106e5929190614aff565b611aae6109224661275c565b611ab8600361246d565b6000611ac487836145e2565b9050611ace614227565b6020810151611ade90600261249b565b611b0e8160006040518060400160405280600b81526020016a19db5e149958d95a5d995960aa1b81525085612500565b9050611b4d816001604051806040016040528060188152602001773332b2a0b6b7bab73a23b6bc21bab93932b73a21b430b4b760411b81525086612500565b9050611b71604051806060016040528060218152602001615b5f6021913982612522565b505050505050505050505050610dc86001600055565b600260005403611bd95760405162461bcd60e51b815260206004820152601f60248201527f5265656e7472616e637947756172643a207265656e7472616e742063616c6c0060448201526064016106e5565b6002600055565b60405163ac4ab3fb60e01b81526001600160a01b037f0000000000000000000000000000000000000000000000000000000000000000169063ac4ab3fb90611c2e9033908690600401614972565b602060405180830381865afa158015611c4b573d6000803e3d6000fd5b505050506040513d601f19601f82011682018060405250810190611c6f9190614b22565b611c9057338160405163a35b150b60e01b81526004016106e5929190614b3d565b5050565b6000611ca86040516020016101fe90614b61565b9050806003811115611cbc57611cbc614573565b6003811115611ccd57611ccd614573565b826003811115611cdf57611cdf614573565b14611c90576040516321a57d1960e21b8152600481018290526024016106e5565b60405163bd02d0f560e01b8152600481018290526000907f00000000000000000000000000000000000000000000000000000000000000006001600160a01b03169063bd02d0f5906024015b602060405180830381865afa158015611d69573d6000803e3d6000fd5b505050506040513d601f19601f82011682018060405250810190611d8d9190614679565b92915050565b611de76040516020016101fe9060208082526027908201527f4645455f4449535452494255544f525f4d41585f524541445f524553504f4e53604082015266455f44454c415960c81b606082015260800190565b611df182426145e2565b1115611e135760405163ef84cb9960e01b8152600481018290526024016106e5565b50565b60006007611e276201518042614ba6565b611e32906004614666565b611e3c9190614bba565b905060006007611e846040516020016101fe906020808252818101527f4645455f4449535452494255544f525f444953545249425554494f4e5f444159604082015260600190565b611e8f846007614666565b611e9991906145e2565b611ea39190614bba565b90506000611eb46201518042614bba565b611ebe90426145e2565b90506000611ecf83620151806145f5565b611ed990836145e2565b90506000611eef6040516020016101fe9061452d565b905081811115611f165780826040516329e8e56560e11b81526004016106e5929190614aff565b5050505050565b600080600080600080611f4f7f00000000000000000000000000000000000000000000000000000000000000006126c0565b9050600080611f5c612f9e565b90925090506000611f6d8284614666565b9050600080611f7e868e8e88613206565b915091506000611f8f8f8f89613296565b9050600081838589611fa18a8d6145e2565b611fab91906145e2565b611fb591906145e2565b611fbf91906145e2565b611fc991906145e2565b9050611fd88885858a8561343b565b959d50939b5092995097509195505050505050939792965093509350565b600061202560405160200161200a90614bce565b6040516020818303038152906040528051906020012061355a565b9050600061205660405160200161203b90614bce565b604051602081830303815290604052805190602001206135ea565b90506000805b835181101561216d57600084828151811061207957612079614622565b602002602001015190506000816001600160a01b031631905060008584815181106120a6576120a6614622565b60200260200101519050808210156121575760006120c483836145e2565b604051633510f2a560e21b81529091506001600160a01b037f0000000000000000000000000000000000000000000000000000000000000000169063d443ca94906121159087908590600401614972565b600060405180830381600087803b15801561212f57600080fd5b505af1158015612143573d6000803e3d6000fd5b5050505080866121539190614666565b9550505b505050808061216590614692565b91505061205c565b508087146121925786816040516304471bcd60e11b81526004016106e5929190614aff565b6121ed7f00000000000000000000000000000000000000000000000000000000000000006121e74660405160200161081890602080825260099082015268434841494e4c494e4b60b81b604082015260600190565b88612863565b61222a7f00000000000000000000000000000000000000000000000000000000000000006122244660405160200161081890614c04565b87612863565b61228b7f000000000000000000000000000000000000000000000000000000000000000061228546604051602001610818906020808252600f908201526e2322a2afa3a6282faa2920a1a5a2a960891b604082015260600190565b8661367a565b6122d37f00000000000000000000000000000000000000000000000000000000000000006122c24660405160200161081890614638565b6122ce6108934661275c565b61367a565b50505050505050565b600060405160200161231f906020808252601e908201527f4645455f4449535452494255544f525f4645455f414d4f554e545f5553440000604082015260600190565b6040516020818303038152906040528051906020012082604051602001612347929190614aff565b604051602081830303815290604052805190602001209050919050565b604051637152429d60e11b81526001600160a01b037f0000000000000000000000000000000000000000000000000000000000000000169063e2a4853a906123b29085908590600401614aff565b6020604051808303816000875af11580156123d1573d6000803e3d6000fd5b505050506040513d601f19601f820116820180604052508101906123f59190614679565b505050565b600060405160200161243b906020808252602790820152600080516020615ba083398151915260408201526617d05353d5539560ca1b606082015260800190565b60408051601f198184030181528282528051602091820120908301526001600160a01b03841690820152606001612347565b611e1360405160200161247f90614b61565b6040516020818303038152906040528051906020012082612364565b806001600160401b038111156124b3576124b361460c565b6040519080825280602002602001820160405280156124f957816020015b6040805180820190915260608152600060208201528152602001906001900390816124d15790505b5090915250565b612508614227565b6020850151612519908585856137b2565b50929392505050565b60405163483624fb60e11b81526001600160a01b037f0000000000000000000000000000000000000000000000000000000000000000169063906c49f690612570908590859060040161549c565b600060405180830381600087803b15801561258a57600080fd5b505af1158015611431573d6000803e3d6000fd5b600060405160200161243b906020808252602590820152600080516020615ba083398151915260408201526417d4d1539560da1b606082015260800190565b6060600061262060405160200161203b9060208082526018908201527711915157d11254d5149250955513d497d0d210525397d25160421b604082015260600190565b604051637ab2834d60e01b815290915073__$26ca41ccf224404dca1800130c325a7716$__90637ab2834d9061265a9084906004016155a0565b600060405180830381865af4158015612677573d6000803e3d6000fd5b505050506040513d6000823e601f3d908101601f1916820160405261269f91908101906155d6565b91505090565b60006126b96126b48484613805565b61388f565b9392505050565b6040516370a0823160e01b81526000906001600160a01b038316906370a0823190611d4c907f000000000000000000000000000000000000000000000000000000000000000090600401614337565b600060405160200161243b9060208082526021908201527f574954484452415741424c455f4255594241434b5f544f4b454e5f414d4f554e6040820152601560fa1b606082015260800190565b600060405160200161231f906020808252601e908201527f4645455f4449535452494255544f525f4645455f414d4f554e545f474d580000604082015260600190565b600060405160200161231f906020808252601a908201527908c8a8abe8892a6a8a49284aaa89ea4bea6a882968a88be8e9ab60331b604082015260600190565b600060405160200161231f9060208082526022908201527f4645455f4449535452494255544f525f4c415945525a45524f5f434841494e5f604082015261125160f21b606082015260800190565b612835614318565b506040805160608101825263ffffffff9490941684526001600160a01b039290921660208401529082015290565b60405163078d3b7960e01b81526001600160a01b0384811660048301528381166024830152604482018390527f0000000000000000000000000000000000000000000000000000000000000000169063078d3b7990606401600060405180830381600087803b1580156128d557600080fd5b505af11580156122d3573d6000803e3d6000fd5b6060816001600160401b038111156129035761290361460c565b60405190808252806020026020018201604052801561292c578160200160208202803683370190505b5092915050565b600080806129428460606145f5565b905060008080888489612956826060614666565b9261296393929190615660565b810190612970919061568a565b9194509250905060006129838385614666565b9a91995090975050505050505050565b61299b61391b565b604051633d333c8560e01b81526001600160a01b037f00000000000000000000000000000000000000000000000000000000000000001690633d333c85906129e79084906004016156b6565b600060405180830381600087803b158015612a0157600080fd5b505af1158015612a15573d6000803e3d6000fd5b50505050612b24604051602001612a59906020808252601990820152784645455f4449535452494255544f525f474d585f505249434560381b604082015260600190565b604051602081830303815290604052805190602001207f00000000000000000000000000000000000000000000000000000000000000006001600160a01b0316635dcf71947f00000000000000000000000000000000000000000000000000000000000000006040518263ffffffff1660e01b8152600401612adb9190614337565b6040805180830381865afa158015612af7573d6000803e3d6000fd5b505050506040513d601f19601f82011682018060405250810190612b1b91906148c1565b60200151612364565b612bb8604051602001612b369061570e565b604051602081830303815290604052805190602001207f00000000000000000000000000000000000000000000000000000000000000006001600160a01b0316635dcf71947f00000000000000000000000000000000000000000000000000000000000000006040518263ffffffff1660e01b8152600401612adb9190614337565b7f00000000000000000000000000000000000000000000000000000000000000006001600160a01b031662ccf1556040518163ffffffff1660e01b8152600401600060405180830381600087803b158015612c1257600080fd5b505af1158015611f16573d6000803e3d6000fd5b6000612c33848484613b08565b949350505050565b855160009081816001600160401b03811115612c5957612c5961460c565b604051908082528060200260200182016040528015612c82578160200160208202803683370190505b50905060005b82811015612ce357612cb489898381518110612ca657612ca6614622565b602002602001015189612c26565b828281518110612cc657612cc6614622565b602090810291909101015280612cdb81614692565b915050612c88565b506040516358b4282560e01b815260009073__$26ca41ccf224404dca1800130c325a7716$__906358b4282590612d209089908690600401615741565b600060405180830381865af4158015612d3d573d6000803e3d6000fd5b505050506040513d6000823e601f3d908101601f19168201604052612d659190810190615766565b90506000612d72846128e9565b905060005b8251811015612e105786838281518110612d9357612d93614622565b60200260200101516000015103612dfe57828181518110612db657612db6614622565b60200260200101516040015182848381518110612dd557612dd5614622565b60200260200101516020015181518110612df157612df1614622565b6020026020010181815250505b80612e0881614692565b915050612d77565b50612e1b8b82613bf2565b9b9a5050505050505050505050565b806001600160401b03811115612e4257612e4261460c565b6040519080825280602002602001820160405280156124f957816020015b6040805180820190915260608082526020820152815260200190600190039081612e6057505090915250565b8184600001518481518110612ea357612ea3614622565b6020026020010151600001819052508084600001518481518110612ec957612ec9614622565b60200260200101516020018190525050505050565b8184600001518481518110612ef557612ef5614622565b6020026020010151600001819052508084600001518481518110612f1b57612f1b614622565b60209081029190910181015191151591015250505050565b600060405160200161231f9060208082526026908201527f4645455f4449535452494255544f525f4252494447455f534c4950504147455f6040820152652320a1aa27a960d11b606082015260800190565b60006126b9838368327cb2734119d3b7a9601e1b612c26565b6000806000612fb560405160200161200a90614bce565b90506000612fcb60405160200161203b90614bce565b905060007f00000000000000000000000000000000000000000000000000000000000000006001600160a01b031663116bb92960405160200161300d90614bce565b604051602081830303815290604052805190602001206040518263ffffffff1660e01b815260040161304191815260200190565b600060405180830381865afa15801561305e573d6000803e3d6000fd5b505050506040513d6000823e601f3d908101601f191682016040526130869190810190615823565b90508151835114158061309b57508051835114155b156130c257825182518251604051630fcc1b9160e11b81526004016106e593929190614a67565b60008060006131156040516020016101fe9060208082526021908201527f4645455f4449535452494255544f525f4b45455045525f474c505f464143544f6040820152602960f91b606082015260800190565b905060005b86518110156131f857600086828151811061313757613137614622565b60200260200101519050600088838151811061315557613155614622565b60200260200101516001600160a01b0316319050808211156131e357600061317d82846145e2565b905087848151811061319157613191614622565b6020026020010151156131af576131a88188614666565b96506131e1565b60006131bb8287612f85565b90506131c78188614666565b96506131d381836145e2565b6131dd9089614666565b9750505b505b505080806131f090614692565b91505061311a565b509197909650945050505050565b6000808061321e8786613219818a614666565b612c26565b9050600061326d826132686040516020016101fe906020808252818101527f4645455f4449535452494255544f525f434841494e4c494e4b5f464143544f52604082015260600190565b612f85565b905060008561327c83856145e2565b61328691906145e2565b9199919850909650505050505050565b6000806132e76040516020016101fe906020808252603390820152600080516020615b8083398151915260408201527210549114d7d5d39517d554d117d05353d55395606a1b606082015260800190565b90508085111561330e57848160405163e668511560e01b81526004016106e5929190614aff565b600061336961089360405160200161334e90602080825260149082015273149151915494905317d49155d0549114d7d5d39560621b604082015260600190565b60405160208183030381529060405280519060200120614097565b905060006133778683612f85565b90508087111561339e578681604051630c2b825560e21b81526004016106e5929190614aff565b600068327cb2734119d3b7a9601e1b6133bf6040516020016101fe9061570e565b6133c991906145f5565b905060006133d789836140d7565b905060006133e58886612f85565b90508082111561342e577f0000000000000000000000000000000000000000000000000000000000000000828260405163c1fa684360e01b81526004016106e593929190614951565b5098975050505050505050565b60008080848661344b898b6145e2565b61345591906145e2565b61345f9190614666565b905060006134ab610893604051602001613490906020808252600390820152620474c560ec1b604082015260600190565b604051602081830303815290604052805190602001206140e5565b905060006134b98383612f85565b90508086101561354a5760006134da61089360405160200161349090614c04565b905060006134e88a83612f85565b905060006134f689856145e2565b90506000613504838d6145e2565b90508082111561352d578b828260405163d73ed87560e01b81526004016106e593929190614a67565b613537828d6145e2565b9b50613543828b614666565b9950505050505b5095989397509295505050505050565b604051635948f73360e01b8152600481018290526060907f00000000000000000000000000000000000000000000000000000000000000006001600160a01b031690635948f73390602401600060405180830381865afa1580156135c2573d6000803e3d6000fd5b505050506040513d6000823e601f3d908101601f19168201604052611d8d91908101906158af565b6040516386ac6bdf60e01b8152600481018290526060907f00000000000000000000000000000000000000000000000000000000000000006001600160a01b0316906386ac6bdf90602401600060405180830381865afa158015613652573d6000803e3d6000fd5b505050506040513d6000823e601f3d908101601f19168201604052611d8d91908101906155d6565b613685838383612863565b6000826001600160a01b031663bfe109286040518163ffffffff1660e01b8152600401602060405180830381865afa1580156136c5573d6000803e3d6000fd5b505050506040513d601f19601f820116820180604052508101906136e991906145af565b9050806001600160a01b0316633ae6d6eb6040518163ffffffff1660e01b8152600401600060405180830381600087803b15801561372657600080fd5b505af115801561373a573d6000803e3d6000fd5b50505050806001600160a01b03166318e20a0362093a808461375c9190614ba6565b6040518263ffffffff1660e01b815260040161377a91815260200190565b600060405180830381600087803b15801561379457600080fd5b505af11580156137a8573d6000803e3d6000fd5b5050505050505050565b81846000015184815181106137c9576137c9614622565b60200260200101516000018190525080846000015184815181106137ef576137ef614622565b6020026020010151602001818152505050505050565b6000604051602001613847906020808252601c908201527b4645455f4449535452494255544f525f414444524553535f494e464f60201b604082015260600190565b60405160208183030381529060405280519060200120838360405160200161387193929190614a67565b60405160208183030381529060405280519060200120905092915050565b6040516321f8a72160e01b8152600481018290526000907f00000000000000000000000000000000000000000000000000000000000000006001600160a01b0316906321f8a72190602401602060405180830381865afa1580156138f7573d6000803e3d6000fd5b505050506040513d601f19601f82011682018060405250810190611d8d91906145af565b61393f60405180606001604052806060815260200160608152602001606081525090565b600061394b60026128e9565b90507f00000000000000000000000000000000000000000000000000000000000000008160008151811061398157613981614622565b60200260200101906001600160a01b031690816001600160a01b0316815250507f0000000000000000000000000000000000000000000000000000000000000000816001815181106139d5576139d5614622565b60200260200101906001600160a01b031690816001600160a01b0316815250506000613a0160026128e9565b9050613a2f6126b47f0000000000000000000000000000000000000000000000000000000000000000614125565b81600081518110613a4257613a42614622565b60200260200101906001600160a01b031690816001600160a01b031681525050613a8e6126b47f0000000000000000000000000000000000000000000000000000000000000000614125565b81600181518110613aa157613aa1614622565b6001600160a01b03929092166020928302919091019091015260408051600280825260608201909252600091816020015b6060815260200190600190039081613ad25750506040805160608101825294855260208501939093529183019190915250919050565b6000808060001985870985870292508281108382030391505080600003613b4257838281613b3857613b38614b90565b04925050506126b9565b808411613b895760405162461bcd60e51b81526020600482015260156024820152744d6174683a206d756c446976206f766572666c6f7760581b60448201526064016106e5565b60008486880960026001871981018816978890046003810283188082028403028082028403028082028403028082028403028082028403029081029092039091026000889003889004909101858311909403939093029303949094049190911702949350505050565b600080613c2a46604051602001610818906020808252600d908201526c131056515496915493d7d3d195609a1b604082015260600190565b90506000816001600160a01b031663857749b06040518163ffffffff1660e01b8152600401602060405180830381865afa158015613c6c573d6000803e3d6000fd5b505050506040513d601f19601f82011682018060405250810190613c90919061593d565b60ff1690506000613ca28260126145e2565b613cad90600a615a44565b90506000805b8751811015613ffc576000878281518110613cd057613cd0614622565b6020026020010151905080600003613ce85750613fea565b6000613cf48286614164565b9050613d217f00000000000000000000000000000000000000000000000000000000000000003083612863565b7f00000000000000000000000000000000000000000000000000000000000000006001600160a01b0316876001600160a01b031614613ded5760405163095ea7b360e01b81526001600160a01b037f0000000000000000000000000000000000000000000000000000000000000000169063095ea7b390613da8908a908590600401614972565b6020604051808303816000875af1158015613dc7573d6000803e3d6000fd5b505050506040513d601f19601f82011682018060405250810190613deb9190614b22565b505b60008a8481518110613e0157613e01614622565b602002602001015190506000613e19610893836127df565b90506000613e3f613e338460405160200161081890614589565b6001600160a01b031690565b90506000613e5c613e568661326861089388612f33565b8a614164565b905060006040518060e001604052808563ffffffff16815260200184815260200187815260200183815260200160405180602001604052806000815250815260200160405180602001604052806000815250815260200160405180602001604052806000815250815250905060008c6001600160a01b0316633b6f743b8360006040518363ffffffff1660e01b8152600401613ef9929190615ac6565b6040805180830381865afa158015613f15573d6000803e3d6000fd5b505050506040513d601f19601f82011682018060405250810190613f3991906148c1565b805160405163c7c7f5b360e01b81529192506001600160a01b038f169163c7c7f5b39190613f8f90869086907f000000000000000000000000000000000000000000000000000000000000000090600401615aea565b60c06040518083038185885af1158015613fad573d6000803e3d6000fd5b50505050506040513d601f19601f82011682018060405250810190613fd29190615b29565b50613fdf9050878b614666565b995050505050505050505b80613ff481614692565b915050613cb3565b50614005614227565b602081015161401590600161249b565b61404c816000604051806040016040528060128152602001711d1bdd185b11db5e109c9a5919d95913dd5d60721b81525085612500565b905061408c6040518060400160405280601c81526020017b119959511a5cdd1c9a589d5d1a5bdb91db5e109c9a5919d95913dd5d60221b81525082612522565b509695505050505050565b600060405160200161231f906020808252601a908201527926a0ac2fa322a2afa224a9aa2924a12aaa27a92fa320a1aa27a960311b604082015260600190565b60006126b98383600061417b565b600060405160200161231f906020808252601a908201527926a4a72fa322a2afa224a9aa2924a12aaa27a92fa320a1aa27a960311b604082015260600190565b600060405160200161243b9060208082526019908201527827a920a1a622afa82927ab24a222a92fa327a92faa27a5a2a760391b604082015260600190565b6000816141718185614ba6565b6126b991906145f5565b60008360000361418d575060006126b9565b81156141b3576141ac8468327cb2734119d3b7a9601e1b8560016141ca565b90506126b9565b612c338468327cb2734119d3b7a9601e1b85613b08565b6000806141d8868686613b08565b905060018360028111156141ee576141ee614573565b14801561420b57506000848061420657614206614b90565b868809115b1561421e5761421b600182614666565b90505b95945050505050565b604080516101208101909152606060e0820181815261010083019190915281908152602001614269604051806040016040528060608152602001606081525090565b815260200161428b604051806040016040528060608152602001606081525090565b81526020016142ad604051806040016040528060608152602001606081525090565b81526020016142cf604051806040016040528060608152602001606081525090565b81526020016142f1604051806040016040528060608152602001606081525090565b8152602001614313604051806040016040528060608152602001606081525090565b905290565b6040805160608082018352600080835260208301529181019190915290565b6001600160a01b0391909116815260200190565b6000806000806080858703121561436157600080fd5b5050823594602084013594506040840135936060013592509050565b6001600160a01b0381168114611e1357600080fd5b60008083601f8401126143a457600080fd5b5081356001600160401b038111156143bb57600080fd5b6020830191508360208260051b85010111156143d657600080fd5b9250929050565b600080600080600080608087890312156143f657600080fd5b86356144018161437d565b95506020870135945060408701356001600160401b038082111561442457600080fd5b6144308a838b01614392565b9096509450606089013591508082111561444957600080fd5b5061445689828a01614392565b979a9699509497509295939492505050565b6000806040838503121561447b57600080fd5b8235915060208301356001600160401b0381111561449857600080fd5b8301604081860312156144aa57600080fd5b809150509250929050565b6020808252601790820152762322a2afa224a9aa2924a12aaa24a7a72fa5a2a2a822a960491b604082015260600190565b60208082526027908201527f4645455f4449535452494255544f525f524541445f524553504f4e53455f544960408201526604d455354414d560cc1b606082015260800190565b60208082526026908201527f4645455f4449535452494255544f525f444953545249425554494f4e5f54494d6040820152650455354414d560d41b606082015260800190565b634e487b7160e01b600052602160045260246000fd5b6020808252600c908201526b2322a2afa922a1a2a4ab22a960a11b604082015260600190565b6000602082840312156145c157600080fd5b81516126b98161437d565b634e487b7160e01b600052601160045260246000fd5b81810381811115611d8d57611d8d6145cc565b8082028115828204841417611d8d57611d8d6145cc565b634e487b7160e01b600052604160045260246000fd5b634e487b7160e01b600052603260045260246000fd5b60208082526014908201527322ac2a22a72222a22fa3a6ac2faa2920a1a5a2a960611b604082015260600190565b80820180821115611d8d57611d8d6145cc565b60006020828403121561468b57600080fd5b5051919050565b6000600182016146a4576146a46145cc565b5060010190565b63ffffffff82811682821603908082111561292c5761292c6145cc565b63ffffffff8181168382160280821691908281146146e8576146e86145cc565b505092915050565b63ffffffff81811683821601908082111561292c5761292c6145cc565b6000815180845260005b8181101561473357602081850181015186830182015201614717565b506000602082860101526020601f19601f83011685010191505092915050565b6000608082016080835280855180835260a08501915060a08160051b8601019250602080880160005b838110156147d957878603609f190185528151805163ffffffff168752838101516001600160a01b0316848801526040908101516060918801829052906147c58189018361470d565b97505050938201939082019060010161477c565b50508394506148108187018880516001600160801b03908116835260208083015163ffffffff169084015260409182015116910152565b505050509392505050565b604051606081016001600160401b038111828210171561483d5761483d61460c565b60405290565b604051601f8201601f191681016001600160401b038111828210171561486b5761486b61460c565b604052919050565b60006040828403121561488557600080fd5b604080519081016001600160401b03811182821017156148a7576148a761460c565b604052825181526020928301519281019290925250919050565b6000604082840312156148d357600080fd5b6126b98383614873565b6000608082840312156148ef57600080fd5b6148f761481b565b8251815260208301519091506001600160401b038116811461491857600080fd5b602082015261492a8360408401614873565b604082015292915050565b60006080828403121561494757600080fd5b6126b983836148dd565b6001600160a01b039390931683526020830191909152604082015260600190565b6001600160a01b03929092168252602082015260400190565b60006020828403121561499d57600080fd5b81356126b98161437d565b6000808335601e198436030181126149bf57600080fd5b8301803591506001600160401b038211156149d957600080fd5b6020019150368190038213156143d657600080fd5b60208082526024908201527f4645455f4449535452494255544f525f544f54414c5f4645455f414d4f554e546040820152630be8e9ab60e31b606082015260800190565b6020808252818101527f4645455f4449535452494255544f525f544f54414c5f5354414b45445f474d58604082015260600190565b9283526020830191909152604082015260600190565b602081528135602082015260006020830135601e19843603018112614aa157600080fd5b83016020810190356001600160401b03811115614abd57600080fd5b803603821315614acc57600080fd5b604080850152806060850152808260808601376000608082860101526080601f19601f8301168501019250505092915050565b918252602082015260400190565b80518015158114614b1d57600080fd5b919050565b600060208284031215614b3457600080fd5b6126b982614b0d565b6001600160a01b0383168152604060208201819052600090612c339083018461470d565b6020808252601590820152744645455f4449535452494255544f525f535441544560581b604082015260600190565b634e487b7160e01b600052601260045260246000fd5b600082614bb557614bb5614b90565b500490565b600082614bc957614bc9614b90565b500690565b6020808252601c908201527b4645455f4449535452494255544f525f4b45455045525f434f53545360201b604082015260600190565b602080825260089082015267545245415355525960c01b604082015260600190565b600081518084526020808501945080840160005b83811015614c5f5781516001600160a01b031687529582019590820190600101614c3a565b509495945050505050565b600081518084526020808501808196508360051b8101915082860160005b85811015614cd8578284038952815160408151818752614caa8288018261470d565b91505086820151915085810387870152614cc48183614c26565b9a87019a9550505090840190600101614c88565b5091979650505050505050565b60006040808401835182865281815180845260608801915060608160051b89010193506020808401935060005b82811015614d5c57898603605f1901845284518051888852614d368989018261470d565b918401516001600160a01b03169784019790975295509381019392810192600101614d12565b50808801519550888503818a01525050505061421e8183614c6a565b600081518084526020808501808196508360051b810191508286016000805b86811015614e0a578385038a52825160408151818852614db98289018261470d565b92890151888403898b01528051808552908a01938693508a0191505b80831015614df55783518252928901926001929092019190890190614dd5565b509b88019b9650505091850191600101614d97565b509298975050505050505050565b60006040808401835182865281815180845260608801915060608160051b89010193506020808401935060005b82811015614e8657898603605f1901845284518051888852614e698989018261470d565b918401519784019790975295509381019392810192600101614e45565b50808801519550888503818a01525050505061421e8183614d78565b600081518084526020808501808196508360051b810191508286016000805b86811015614e0a578385038a52825160408151818852614ee38289018261470d565b92890151888403898b01528051808552908a01938693508a0191505b80831015614f1f5783518252928901926001929092019190890190614eff565b509b88019b9650505091850191600101614ec1565b60006040808401835182865281815180845260608801915060608160051b89010193506020808401935060005b82811015614fa257898603605f1901845284518051888852614f858989018261470d565b918401519784019790975295509381019392810192600101614f61565b50808801519550888503818a01525050505061421e8183614ea2565b600081518084526020808501808196508360051b810191508286016000805b86811015614e0a578385038a52825160408151818852614fff8289018261470d565b92890151888403898b01528051808552908a01938693508a0191505b8083101561503d5783511515825292890192600192909201919089019061501b565b509b88019b9650505091850191600101614fdd565b60006040808401835182865281815180845260608801915060608160051b89010193506020808401935060005b828110156150c257898603605f19018452845180518888526150a38989018261470d565b918401511515978401979097529550938101939281019260010161507f565b50808801519550888503818a01525050505061421e8183614fbe565b600081518084526020808501808196508360051b810191508286016000805b86811015614e0a578385038a5282516040815181885261511f8289018261470d565b92890151888403898b01528051808552908a01938693508a0191505b8083101561515b578351825292890192600192909201919089019061513b565b509b88019b96505050918501916001016150fd565b60006040808401835182865281815180845260608801915060608160051b89010193506020808401935060005b828110156151de57898603605f19018452845180518888526151c18989018261470d565b91840151978401979097529550938101939281019260010161519d565b50808801519550888503818a01525050505061421e81836150de565b600081518084526020808501808196508360051b8101915082860160005b85811015614cd857828403895261523084835161470d565b98850198935090840190600101615218565b600081518084526020808501808196508360051b8101915082860160005b85811015614cd85782840389528151604081518187526152828288018261470d565b9150508682015191508581038787015261529c81836151fa565b9a87019a9550505090840190600101615260565b60006040808401835182865281815180845260608801915060608160051b89010193506020808401935060005b8281101561532d57898603605f19018452845180518888526153018989018261470d565b9184015188830389860152919050615319818361470d565b9750505093810193928101926001016152dd565b50808801519550888503818a01525050505061421e8183615242565b600081518084526020808501808196506005915083821b81018387016000805b878110156153f4578484038b5282516040815181875261538b8288018261470d565b928a0151878403888c01528051808552908b019392508a83019150808a1b83018b01865b828110156153dd57601f198583030184526153cb82875161470d565b958d0195938d019391506001016153af565b509e8b019e97505050938801935050600101615369565b50919998505050505050505050565b60006040808401835182865281815180845260608801915060608160051b89010193506020808401935060005b8281101561548057898603605f19018452845180518888526154548989018261470d565b918401518883038986015291905061546c818361470d565b975050509381019392810192600101615430565b50808801519550888503818a01525050505061421e8183615349565b6040815260006154af604083018561470d565b8281036020840152835160e082526154ca60e0830182614ce5565b9050602085015182820360208401526154e38282614e18565b915050604085015182820360408401526154fd8282614f34565b915050606085015182820360608401526155178282615052565b915050608085015182820360808401526155318282615170565b91505060a085015182820360a084015261554b82826152b0565b91505060c085015182820360c08401526155658282615403565b979650505050505050565b600081518084526020808501945080840160005b83811015614c5f57815187529582019590820190600101615584565b6020815260006126b96020830184615570565b60006001600160401b038211156155cc576155cc61460c565b5060051b60200190565b600060208083850312156155e957600080fd5b82516001600160401b038111156155ff57600080fd5b8301601f8101851361561057600080fd5b805161562361561e826155b3565b614843565b81815260059190911b8201830190838101908783111561564257600080fd5b928401925b8284101561556557835182529284019290840190615647565b6000808585111561567057600080fd5b8386111561567d57600080fd5b5050820193919092039150565b60008060006060848603121561569f57600080fd5b505081359360208301359350604090920135919050565b6020815260008251606060208401526156d26080840182614c26565b90506020840151601f19808584030160408601526156f08383614c26565b925060408601519150808584030160608601525061421e82826151fa565b6020808252601990820152784645455f4449535452494255544f525f574e545f505249434560381b604082015260600190565b6040815260006157546040830185615570565b828103602084015261421e8185615570565b6000602080838503121561577957600080fd5b82516001600160401b0381111561578f57600080fd5b8301601f810185136157a057600080fd5b80516157ae61561e826155b3565b818152606091820283018401918482019190888411156157cd57600080fd5b938501935b838510156158175780858a0312156157ea5760008081fd5b6157f261481b565b85518152868601518782015260408087015190820152835293840193918501916157d2565b50979650505050505050565b6000602080838503121561583657600080fd5b82516001600160401b0381111561584c57600080fd5b8301601f8101851361585d57600080fd5b805161586b61561e826155b3565b81815260059190911b8201830190838101908783111561588a57600080fd5b928401925b82841015615565576158a084614b0d565b8252928401929084019061588f565b600060208083850312156158c257600080fd5b82516001600160401b038111156158d857600080fd5b8301601f810185136158e957600080fd5b80516158f761561e826155b3565b81815260059190911b8201830190838101908783111561591657600080fd5b928401925b8284101561556557835161592e8161437d565b8252928401929084019061591b565b60006020828403121561594f57600080fd5b815160ff811681146126b957600080fd5b600181815b8085111561599b578160001904821115615981576159816145cc565b8085161561598e57918102915b93841c9390800290615965565b509250929050565b6000826159b257506001611d8d565b816159bf57506000611d8d565b81600181146159d557600281146159df576159fb565b6001915050611d8d565b60ff8411156159f0576159f06145cc565b50506001821b611d8d565b5060208310610133831016604e8410600b8410161715615a1e575081810a611d8d565b615a288383615960565b8060001904821115615a3c57615a3c6145cc565b029392505050565b60006126b983836159a3565b63ffffffff81511682526020810151602083015260408101516040830152606081015160608301526000608082015160e06080850152615a9360e085018261470d565b905060a083015184820360a0860152615aac828261470d565b91505060c083015184820360c086015261421e828261470d565b604081526000615ad96040830185615a50565b905082151560208301529392505050565b608081526000615afd6080830186615a50565b8451602084810191909152909401516040830152506001600160a01b0391909116606090910152919050565b60008060c08385031215615b3c57600080fd5b615b4684846148dd565b9150615b558460808501614873565b9050925092905056fe466565446973747269627574696f6e42726964676564476d7852656365697665644645455f4449535452494255544f525f4d41585f524546455252414c5f5245574645455f4449535452494255544f525f524546455252414c5f52455741524453a2646970667358221220c9aa2331587ec9054aeff2d293ce83651125c7c802d41d9ceef86faad5faf86d64736f6c63430008140033",
  "linkReferences": {
    "contracts/fee/FeeDistributorUtils.sol": {
      "FeeDistributorUtils": [
        {
          "length": 20,
          "start": 10624
        },
        {
          "length": 20,
          "start": 12356
        }
      ]
    }
  },
  "deployedLinkReferences": {
    "contracts/fee/FeeDistributorUtils.sol": {
      "FeeDistributorUtils": [
        {
          "length": 20,
          "start": 9778
        },
        {
          "length": 20,
          "start": 11510
        }
      ]
    }
  }
}