{
  "_format": "hh-sol-artifact-1",
  "contractName": "GlvHandler",
  "sourceName": "contracts/exchange/GlvHandler.sol",
  "abi": [
    {
      "inputs": [
        {
          "internalType": "contract RoleStore",
          "name": "_roleStore",
          "type": "address"
        },
        {
          "internalType": "contract DataStore",
          "name": "_dataStore",
          "type": "address"
        },
        {
          "internalType": "contract EventEmitter",
          "name": "_eventEmitter",
          "type": "address"
        },
        {
          "internalType": "contract Oracle",
          "name": "_oracle",
          "type": "address"
        },
        {
          "internalType": "contract GlvVault",
          "name": "_glvVault",
          "type": "address"
        },
        {
          "internalType": "contract ShiftVault",
          "name": "_shiftVault",
          "type": "address"
        }
      ],
      "stateMutability": "nonpayable",
      "type": "constructor"
    },
    {
      "inputs": [
        {
          "internalType": "bytes32",
          "name": "key",
          "type": "bytes32"
        }
      ],
      "name": "DisabledFeature",
      "type": "error"
    },
    {
      "inputs": [],
      "name": "EndOfOracleSimulation",
      "type": "error"
    },
    {
      "inputs": [
        {
          "internalType": "uint256",
          "name": "startingGas",
          "type": "uint256"
        },
        {
          "internalType": "uint256",
          "name": "estimatedGasLimit",
          "type": "uint256"
        },
        {
          "internalType": "uint256",
          "name": "minAdditionalGasForExecution",
          "type": "uint256"
        }
      ],
      "name": "InsufficientExecutionGas",
      "type": "error"
    },
    {
      "inputs": [
        {
          "internalType": "uint256",
          "name": "startingGas",
          "type": "uint256"
        },
        {
          "internalType": "uint256",
          "name": "minHandleErrorGas",
          "type": "uint256"
        }
      ],
      "name": "InsufficientExecutionGasForErrorHandling",
      "type": "error"
    },
    {
      "inputs": [
        {
          "internalType": "uint256",
          "name": "gas",
          "type": "uint256"
        },
        {
          "internalType": "uint256",
          "name": "minHandleExecutionErrorGas",
          "type": "uint256"
        }
      ],
      "name": "InsufficientHandleExecutionErrorGas",
      "type": "error"
    },
    {
      "inputs": [
        {
          "internalType": "address",
          "name": "msgSender",
          "type": "address"
        }
      ],
      "name": "InvalidNativeTokenSender",
      "type": "error"
    },
    {
      "inputs": [
        {
          "internalType": "uint256",
          "name": "primaryTokensLength",
          "type": "uint256"
        },
        {
          "internalType": "uint256",
          "name": "primaryPricesLength",
          "type": "uint256"
        }
      ],
      "name": "InvalidPrimaryPricesForSimulation",
      "type": "error"
    },
    {
      "inputs": [
        {
          "internalType": "uint256",
          "name": "requestAge",
          "type": "uint256"
        },
        {
          "internalType": "uint256",
          "name": "requestExpirationAge",
          "type": "uint256"
        },
        {
          "internalType": "string",
          "name": "requestType",
          "type": "string"
        }
      ],
      "name": "RequestNotYetCancellable",
      "type": "error"
    },
    {
      "inputs": [
        {
          "internalType": "address",
          "name": "msgSender",
          "type": "address"
        },
        {
          "internalType": "string",
          "name": "role",
          "type": "string"
        }
      ],
      "name": "Unauthorized",
      "type": "error"
    },
    {
      "inputs": [
        {
          "internalType": "bytes32",
          "name": "key",
          "type": "bytes32"
        },
        {
          "components": [
            {
              "components": [
                {
                  "internalType": "address",
                  "name": "glv",
                  "type": "address"
                },
                {
                  "internalType": "address",
                  "name": "account",
                  "type": "address"
                },
                {
                  "internalType": "address",
                  "name": "receiver",
                  "type": "address"
                },
                {
                  "internalType": "address",
                  "name": "callbackContract",
                  "type": "address"
                },
                {
                  "internalType": "address",
                  "name": "uiFeeReceiver",
                  "type": "address"
                },
                {
                  "internalType": "address",
                  "name": "market",
                  "type": "address"
                },
                {
                  "internalType": "address",
                  "name": "initialLongToken",
                  "type": "address"
                },
                {
                  "internalType": "address",
                  "name": "initialShortToken",
                  "type": "address"
                },
                {
                  "internalType": "address[]",
                  "name": "longTokenSwapPath",
                  "type": "address[]"
                },
                {
                  "internalType": "address[]",
                  "name": "shortTokenSwapPath",
                  "type": "address[]"
                }
              ],
              "internalType": "struct GlvDeposit.Addresses",
              "name": "addresses",
              "type": "tuple"
            },
            {
              "components": [
                {
                  "internalType": "uint256",
                  "name": "marketTokenAmount",
                  "type": "uint256"
                },
                {
                  "internalType": "uint256",
                  "name": "initialLongTokenAmount",
                  "type": "uint256"
                },
                {
                  "internalType": "uint256",
                  "name": "initialShortTokenAmount",
                  "type": "uint256"
                },
                {
                  "internalType": "uint256",
                  "name": "minGlvTokens",
                  "type": "uint256"
                },
                {
                  "internalType": "uint256",
                  "name": "updatedAtTime",
                  "type": "uint256"
                },
                {
                  "internalType": "uint256",
                  "name": "executionFee",
                  "type": "uint256"
                },
                {
                  "internalType": "uint256",
                  "name": "callbackGasLimit",
                  "type": "uint256"
                }
              ],
              "internalType": "struct GlvDeposit.Numbers",
              "name": "numbers",
              "type": "tuple"
            },
            {
              "components": [
                {
                  "internalType": "bool",
                  "name": "shouldUnwrapNativeToken",
                  "type": "bool"
                },
                {
                  "internalType": "bool",
                  "name": "isMarketTokenDeposit",
                  "type": "bool"
                }
              ],
              "internalType": "struct GlvDeposit.Flags",
              "name": "flags",
              "type": "tuple"
            }
          ],
          "internalType": "struct GlvDeposit.Props",
          "name": "glvDeposit",
          "type": "tuple"
        },
        {
          "internalType": "address",
          "name": "keeper",
          "type": "address"
        }
      ],
      "name": "_executeGlvDeposit",
      "outputs": [],
      "stateMutability": "nonpayable",
      "type": "function"
    },
    {
      "inputs": [
        {
          "internalType": "bytes32",
          "name": "key",
          "type": "bytes32"
        },
        {
          "components": [
            {
              "components": [
                {
                  "internalType": "address",
                  "name": "glv",
                  "type": "address"
                },
                {
                  "internalType": "address",
                  "name": "fromMarket",
                  "type": "address"
                },
                {
                  "internalType": "address",
                  "name": "toMarket",
                  "type": "address"
                }
              ],
              "internalType": "struct GlvShift.Addresses",
              "name": "addresses",
              "type": "tuple"
            },
            {
              "components": [
                {
                  "internalType": "uint256",
                  "name": "marketTokenAmount",
                  "type": "uint256"
                },
                {
                  "internalType": "uint256",
                  "name": "minMarketTokens",
                  "type": "uint256"
                },
                {
                  "internalType": "uint256",
                  "name": "updatedAtTime",
                  "type": "uint256"
                }
              ],
              "internalType": "struct GlvShift.Numbers",
              "name": "numbers",
              "type": "tuple"
            }
          ],
          "internalType": "struct GlvShift.Props",
          "name": "glvShift",
          "type": "tuple"
        },
        {
          "internalType": "address",
          "name": "keeper",
          "type": "address"
        }
      ],
      "name": "_executeGlvShift",
      "outputs": [],
      "stateMutability": "nonpayable",
      "type": "function"
    },
    {
      "inputs": [
        {
          "internalType": "bytes32",
          "name": "key",
          "type": "bytes32"
        },
        {
          "components": [
            {
              "components": [
                {
                  "internalType": "address",
                  "name": "glv",
                  "type": "address"
                },
                {
                  "internalType": "address",
                  "name": "market",
                  "type": "address"
                },
                {
                  "internalType": "address",
                  "name": "account",
                  "type": "address"
                },
                {
                  "internalType": "address",
                  "name": "receiver",
                  "type": "address"
                },
                {
                  "internalType": "address",
                  "name": "callbackContract",
                  "type": "address"
                },
                {
                  "internalType": "address",
                  "name": "uiFeeReceiver",
                  "type": "address"
                },
                {
                  "internalType": "address[]",
                  "name": "longTokenSwapPath",
                  "type": "address[]"
                },
                {
                  "internalType": "address[]",
                  "name": "shortTokenSwapPath",
                  "type": "address[]"
                }
              ],
              "internalType": "struct GlvWithdrawal.Addresses",
              "name": "addresses",
              "type": "tuple"
            },
            {
              "components": [
                {
                  "internalType": "uint256",
                  "name": "glvTokenAmount",
                  "type": "uint256"
                },
                {
                  "internalType": "uint256",
                  "name": "minLongTokenAmount",
                  "type": "uint256"
                },
                {
                  "internalType": "uint256",
                  "name": "minShortTokenAmount",
                  "type": "uint256"
                },
                {
                  "internalType": "uint256",
                  "name": "updatedAtTime",
                  "type": "uint256"
                },
                {
                  "internalType": "uint256",
                  "name": "executionFee",
                  "type": "uint256"
                },
                {
                  "internalType": "uint256",
                  "name": "callbackGasLimit",
                  "type": "uint256"
                }
              ],
              "internalType": "struct GlvWithdrawal.Numbers",
              "name": "numbers",
              "type": "tuple"
            },
            {
              "components": [
                {
                  "internalType": "bool",
                  "name": "shouldUnwrapNativeToken",
                  "type": "bool"
                }
              ],
              "internalType": "struct GlvWithdrawal.Flags",
              "name": "flags",
              "type": "tuple"
            }
          ],
          "internalType": "struct GlvWithdrawal.Props",
          "name": "glvWithdrawal",
          "type": "tuple"
        },
        {
          "internalType": "address",
          "name": "keeper",
          "type": "address"
        }
      ],
      "name": "_executeGlvWithdrawal",
      "outputs": [],
      "stateMutability": "nonpayable",
      "type": "function"
    },
    {
      "inputs": [
        {
          "internalType": "address",
          "name": "glv",
          "type": "address"
        },
        {
          "internalType": "address",
          "name": "market",
          "type": "address"
        }
      ],
      "name": "addMarketToGlv",
      "outputs": [],
      "stateMutability": "nonpayable",
      "type": "function"
    },
    {
      "inputs": [
        {
          "internalType": "bytes32",
          "name": "key",
          "type": "bytes32"
        }
      ],
      "name": "cancelGlvDeposit",
      "outputs": [],
      "stateMutability": "nonpayable",
      "type": "function"
    },
    {
      "inputs": [
        {
          "internalType": "bytes32",
          "name": "key",
          "type": "bytes32"
        }
      ],
      "name": "cancelGlvWithdrawal",
      "outputs": [],
      "stateMutability": "nonpayable",
      "type": "function"
    },
    {
      "inputs": [
        {
          "internalType": "address",
          "name": "account",
          "type": "address"
        },
        {
          "components": [
            {
              "internalType": "address",
              "name": "glv",
              "type": "address"
            },
            {
              "internalType": "address",
              "name": "market",
              "type": "address"
            },
            {
              "internalType": "address",
              "name": "receiver",
              "type": "address"
            },
            {
              "internalType": "address",
              "name": "callbackContract",
              "type": "address"
            },
            {
              "internalType": "address",
              "name": "uiFeeReceiver",
              "type": "address"
            },
            {
              "internalType": "address",
              "name": "initialLongToken",
              "type": "address"
            },
            {
              "internalType": "address",
              "name": "initialShortToken",
              "type": "address"
            },
            {
              "internalType": "address[]",
              "name": "longTokenSwapPath",
              "type": "address[]"
            },
            {
              "internalType": "address[]",
              "name": "shortTokenSwapPath",
              "type": "address[]"
            },
            {
              "internalType": "uint256",
              "name": "minGlvTokens",
              "type": "uint256"
            },
            {
              "internalType": "uint256",
              "name": "executionFee",
              "type": "uint256"
            },
            {
              "internalType": "uint256",
              "name": "callbackGasLimit",
              "type": "uint256"
            },
            {
              "internalType": "bool",
              "name": "shouldUnwrapNativeToken",
              "type": "bool"
            },
            {
              "internalType": "bool",
              "name": "isMarketTokenDeposit",
              "type": "bool"
            }
          ],
          "internalType": "struct GlvDepositUtils.CreateGlvDepositParams",
          "name": "params",
          "type": "tuple"
        }
      ],
      "name": "createGlvDeposit",
      "outputs": [
        {
          "internalType": "bytes32",
          "name": "",
          "type": "bytes32"
        }
      ],
      "stateMutability": "nonpayable",
      "type": "function"
    },
    {
      "inputs": [
        {
          "components": [
            {
              "internalType": "address",
              "name": "glv",
              "type": "address"
            },
            {
              "internalType": "address",
              "name": "fromMarket",
              "type": "address"
            },
            {
              "internalType": "address",
              "name": "toMarket",
              "type": "address"
            },
            {
              "internalType": "uint256",
              "name": "marketTokenAmount",
              "type": "uint256"
            },
            {
              "internalType": "uint256",
              "name": "minMarketTokens",
              "type": "uint256"
            }
          ],
          "internalType": "struct GlvShiftUtils.CreateGlvShiftParams",
          "name": "params",
          "type": "tuple"
        }
      ],
      "name": "createGlvShift",
      "outputs": [
        {
          "internalType": "bytes32",
          "name": "",
          "type": "bytes32"
        }
      ],
      "stateMutability": "nonpayable",
      "type": "function"
    },
    {
      "inputs": [
        {
          "internalType": "address",
          "name": "account",
          "type": "address"
        },
        {
          "components": [
            {
              "internalType": "address",
              "name": "receiver",
              "type": "address"
            },
            {
              "internalType": "address",
              "name": "callbackContract",
              "type": "address"
            },
            {
              "internalType": "address",
              "name": "uiFeeReceiver",
              "type": "address"
            },
            {
              "internalType": "address",
              "name": "market",
              "type": "address"
            },
            {
              "internalType": "address",
              "name": "glv",
              "type": "address"
            },
            {
              "internalType": "address[]",
              "name": "longTokenSwapPath",
              "type": "address[]"
            },
            {
              "internalType": "address[]",
              "name": "shortTokenSwapPath",
              "type": "address[]"
            },
            {
              "internalType": "uint256",
              "name": "minLongTokenAmount",
              "type": "uint256"
            },
            {
              "internalType": "uint256",
              "name": "minShortTokenAmount",
              "type": "uint256"
            },
            {
              "internalType": "bool",
              "name": "shouldUnwrapNativeToken",
              "type": "bool"
            },
            {
              "internalType": "uint256",
              "name": "executionFee",
              "type": "uint256"
            },
            {
              "internalType": "uint256",
              "name": "callbackGasLimit",
              "type": "uint256"
            }
          ],
          "internalType": "struct GlvWithdrawalUtils.CreateGlvWithdrawalParams",
          "name": "params",
          "type": "tuple"
        }
      ],
      "name": "createGlvWithdrawal",
      "outputs": [
        {
          "internalType": "bytes32",
          "name": "",
          "type": "bytes32"
        }
      ],
      "stateMutability": "nonpayable",
      "type": "function"
    },
    {
      "inputs": [],
      "name": "dataStore",
      "outputs": [
        {
          "internalType": "contract DataStore",
          "name": "",
          "type": "address"
        }
      ],
      "stateMutability": "view",
      "type": "function"
    },
    {
      "inputs": [],
      "name": "eventEmitter",
      "outputs": [
        {
          "internalType": "contract EventEmitter",
          "name": "",
          "type": "address"
        }
      ],
      "stateMutability": "view",
      "type": "function"
    },
    {
      "inputs": [
        {
          "internalType": "bytes32",
          "name": "key",
          "type": "bytes32"
        },
        {
          "components": [
            {
              "internalType": "address[]",
              "name": "tokens",
              "type": "address[]"
            },
            {
              "internalType": "address[]",
              "name": "providers",
              "type": "address[]"
            },
            {
              "internalType": "bytes[]",
              "name": "data",
              "type": "bytes[]"
            }
          ],
          "internalType": "struct OracleUtils.SetPricesParams",
          "name": "oracleParams",
          "type": "tuple"
        }
      ],
      "name": "executeGlvDeposit",
      "outputs": [],
      "stateMutability": "nonpayable",
      "type": "function"
    },
    {
      "inputs": [
        {
          "internalType": "bytes32",
          "name": "key",
          "type": "bytes32"
        },
        {
          "components": [
            {
              "internalType": "address[]",
              "name": "tokens",
              "type": "address[]"
            },
            {
              "internalType": "address[]",
              "name": "providers",
              "type": "address[]"
            },
            {
              "internalType": "bytes[]",
              "name": "data",
              "type": "bytes[]"
            }
          ],
          "internalType": "struct OracleUtils.SetPricesParams",
          "name": "oracleParams",
          "type": "tuple"
        }
      ],
      "name": "executeGlvShift",
      "outputs": [],
      "stateMutability": "nonpayable",
      "type": "function"
    },
    {
      "inputs": [
        {
          "internalType": "bytes32",
          "name": "key",
          "type": "bytes32"
        },
        {
          "components": [
            {
              "internalType": "address[]",
              "name": "tokens",
              "type": "address[]"
            },
            {
              "internalType": "address[]",
              "name": "providers",
              "type": "address[]"
            },
            {
              "internalType": "bytes[]",
              "name": "data",
              "type": "bytes[]"
            }
          ],
          "internalType": "struct OracleUtils.SetPricesParams",
          "name": "oracleParams",
          "type": "tuple"
        }
      ],
      "name": "executeGlvWithdrawal",
      "outputs": [],
      "stateMutability": "nonpayable",
      "type": "function"
    },
    {
      "inputs": [],
      "name": "glvVault",
      "outputs": [
        {
          "internalType": "contract GlvVault",
          "name": "",
          "type": "address"
        }
      ],
      "stateMutability": "view",
      "type": "function"
    },
    {
      "inputs": [],
      "name": "oracle",
      "outputs": [
        {
          "internalType": "contract Oracle",
          "name": "",
          "type": "address"
        }
      ],
      "stateMutability": "view",
      "type": "function"
    },
    {
      "inputs": [
        {
          "internalType": "address",
          "name": "glv",
          "type": "address"
        },
        {
          "internalType": "address",
          "name": "market",
          "type": "address"
        }
      ],
      "name": "removeMarketFromGlv",
      "outputs": [],
      "stateMutability": "nonpayable",
      "type": "function"
    },
    {
      "inputs": [],
      "name": "roleStore",
      "outputs": [
        {
          "internalType": "contract RoleStore",
          "name": "",
          "type": "address"
        }
      ],
      "stateMutability": "view",
      "type": "function"
    },
    {
      "inputs": [],
      "name": "shiftVault",
      "outputs": [
        {
          "internalType": "contract ShiftVault",
          "name": "",
          "type": "address"
        }
      ],
      "stateMutability": "view",
      "type": "function"
    },
    {
      "inputs": [
        {
          "internalType": "bytes32",
          "name": "key",
          "type": "bytes32"
        },
        {
          "components": [
            {
              "internalType": "address[]",
              "name": "primaryTokens",
              "type": "address[]"
            },
            {
              "components": [
                {
                  "internalType": "uint256",
                  "name": "min",
                  "type": "uint256"
                },
                {
                  "internalType": "uint256",
                  "name": "max",
                  "type": "uint256"
                }
              ],
              "internalType": "struct Price.Props[]",
              "name": "primaryPrices",
              "type": "tuple[]"
            },
            {
              "internalType": "uint256",
              "name": "minTimestamp",
              "type": "uint256"
            },
            {
              "internalType": "uint256",
              "name": "maxTimestamp",
              "type": "uint256"
            }
          ],
          "internalType": "struct OracleUtils.SimulatePricesParams",
          "name": "params",
          "type": "tuple"
        }
      ],
      "name": "simulateExecuteGlvDeposit",
      "outputs": [],
      "stateMutability": "nonpayable",
      "type": "function"
    },
    {
      "inputs": [
        {
          "internalType": "bytes32",
          "name": "key",
          "type": "bytes32"
        },
        {
          "components": [
            {
              "internalType": "address[]",
              "name": "primaryTokens",
              "type": "address[]"
            },
            {
              "components": [
                {
                  "internalType": "uint256",
                  "name": "min",
                  "type": "uint256"
                },
                {
                  "internalType": "uint256",
                  "name": "max",
                  "type": "uint256"
                }
              ],
              "internalType": "struct Price.Props[]",
              "name": "primaryPrices",
              "type": "tuple[]"
            },
            {
              "internalType": "uint256",
              "name": "minTimestamp",
              "type": "uint256"
            },
            {
              "internalType": "uint256",
              "name": "maxTimestamp",
              "type": "uint256"
            }
          ],
          "internalType": "struct OracleUtils.SimulatePricesParams",
          "name": "params",
          "type": "tuple"
        }
      ],
      "name": "simulateExecuteGlvWithdrawal",
      "outputs": [],
      "stateMutability": "nonpayable",
      "type": "function"
    },
    {
      "stateMutability": "payable",
      "type": "receive"
    }
  ],
  "bytecode": "0x6101406040523480156200001257600080fd5b5060405162005a5038038062005a50833981016040819052620000359162000084565b6001600160a01b0395861660805293851660a05290841660c05290831660e0526001600055821661010052166101205262000118565b6001600160a01b03811681146200008157600080fd5b50565b60008060008060008060c087890312156200009e57600080fd5b8651620000ab816200006b565b6020880151909650620000be816200006b565b6040880151909550620000d1816200006b565b6060880151909450620000e4816200006b565b6080880151909350620000f7816200006b565b60a08801519092506200010a816200006b565b809150509295509295509295565b60805160a05160c05160e05161010051610120516157056200034b600039600081816105030152610621015260008181610312015281816106490152818161103b015281816111f80152818161139701528181611dd001528181611fc00152818161213d015281816129f40152612f7401526000818161046f015281816105d2015281816107c60152818161100c015281816111d001528181611375015281816114c001528181611aa601528181611dae01528181611f9101528181612115015281816129cc01528181612f4c015261310e01526000818161041b015281816105fa015281816108ca01528181610b2901528181610c7d01528181610d130152818161121f0152818161155e0152818161184c015281816118e201528181611b0c01528181611cdb0152612164015260008181610107015281816103e70152818161056c015281816105ad0152818161075e0152818161079e0152818161094601528181610dd301528181610ee101528181610fdd0152818161116f015281816111ab015281816112fc015281816113530152818161149e015281816115da015281816119a201528181611a8401528181611b8801528181611d5101528181611e6901528181611f62015281816120b4015281816120f0015281816122d5015281816123d80152818161258b01528181612948015281816129a701528181612b0201528181612ec801528181612f270152818161307001526130ec01526000818161037301526124a301526157056000f3fe6080604052600436106100fe5760003560e01c806304b854bd1461020d57806304cae4ca1461022d5780630910f3f9146102605780630db48e41146102805780630e229c35146102a05780630f703715146102c05780632978383a146102e0578063351fb07914610300578063473e57d0146103415780634a4a7b04146103615780635ee8ec8f146103955780636049a100146103b5578063660d0d67146103d55780637dc0d1d014610409578063928f27721461043d5780639ff78c301461045d578063bf1fb41114610491578063d92155a4146104b1578063d95c9e29146104d1578063ece9296b146104f1578063ee3608091461052557600080fd5b366102085760007f00000000000000000000000000000000000000000000000000000000000000006001600160a01b03166321f8a72160405160200161015b9060208082526003908201526215d39560ea1b604082015260600190565b604051602081830303815290604052805190602001206040518263ffffffff1660e01b815260040161018f91815260200190565b602060405180830381865afa1580156101ac573d6000803e3d6000fd5b505050506040513d601f19601f820116820180604052508101906101d091906137cc565b9050336001600160a01b03821614610206573360405163738d28df60e11b81526004016101fd91906137f6565b60405180910390fd5b005b600080fd5b34801561021957600080fd5b50610206610228366004613973565b610545565b34801561023957600080fd5b5061024d610248366004613a50565b6106fd565b6040519081526020015b60405180910390f35b34801561026c57600080fd5b5061020661027b366004613ad7565b610890565b34801561028c57600080fd5b5061020661029b366004613bbb565b610ba6565b3480156102ac57600080fd5b506102066102bb366004613ce2565b610ec0565b3480156102cc57600080fd5b506102066102db366004613db8565b611143565b3480156102ec57600080fd5b5061024d6102fb366004613f3c565b6112db565b34801561030c57600080fd5b506103347f000000000000000000000000000000000000000000000000000000000000000081565b60405161025791906137f6565b34801561034d57600080fd5b5061020661035c366004613f88565b611414565b34801561036d57600080fd5b506103347f000000000000000000000000000000000000000000000000000000000000000081565b3480156103a157600080fd5b506102066103b0366004613ad7565b611524565b3480156103c157600080fd5b506102066103d0366004613bbb565b6117b3565b3480156103e157600080fd5b506103347f000000000000000000000000000000000000000000000000000000000000000081565b34801561041557600080fd5b506103347f000000000000000000000000000000000000000000000000000000000000000081565b34801561044957600080fd5b50610206610458366004613f88565b611a3b565b34801561046957600080fd5b506103347f000000000000000000000000000000000000000000000000000000000000000081565b34801561049d57600080fd5b506102066104ac366004613ad7565b611ad2565b3480156104bd57600080fd5b5061024d6104cc366004613fb6565b611d33565b3480156104dd57600080fd5b506102066104ec366004613ce2565b611e48565b3480156104fd57600080fd5b506103347f000000000000000000000000000000000000000000000000000000000000000081565b34801561053157600080fd5b50610206610540366004614089565b612088565b333014610567573360405163a35b150b60e01b81526004016101fd91906141e8565b6105997f00000000000000000000000000000000000000000000000000000000000000006105943061220e565b6122a6565b6040805160e0810182526001600160a01b037f0000000000000000000000000000000000000000000000000000000000000000811682527f0000000000000000000000000000000000000000000000000000000000000000811660208301527f00000000000000000000000000000000000000000000000000000000000000008116828401527f0000000000000000000000000000000000000000000000000000000000000000811660608301527f00000000000000000000000000000000000000000000000000000000000000008116608083015260a08201869052831660c0820152905163a19bc3b960e01b815273__$edea835fb55de342a36b6fe89fea714fff$__9063a19bc3b9906106b59084908790600401614258565b602060405180830381865af41580156106d2573d6000803e3d6000fd5b505050506040513d601f19601f820116820180604052508101906106f691906142de565b5050505050565b60006107076122d1565b610759604051602001610719906142f7565b604051602081830303815290604052805190602001206040518060400160405280600c81526020016b27a92222a92fa5a2a2a822a960a11b81525061248c565b6107867f00000000000000000000000000000000000000000000000000000000000000006105943061253c565b6040805163a26f575360e01b81526001600160a01b037f0000000000000000000000000000000000000000000000000000000000000000811660048301527f000000000000000000000000000000000000000000000000000000000000000081166024830152845181166044830152602085015181166064830152918401519091166084820152606083015160a4820152608083015160c482015273__$edea835fb55de342a36b6fe89fea714fff$__9063a26f57539060e401602060405180830381865af415801561085d573d6000803e3d6000fd5b505050506040513d601f19601f8201168201806040525081019061088191906142de565b905061088b612589565b919050565b6108986122d1565b6108aa604051602001610719906142f7565b6108b381614344565b604051633d333c8560e01b81526001600160a01b037f00000000000000000000000000000000000000000000000000000000000000001690633d333c85906108ff908490600401614516565b600060405180830381600087803b15801561091957600080fd5b505af115801561092d573d6000803e3d6000fd5b5050505060005a60405163fdfc26f360e01b81529091507f00000000000000000000000000000000000000000000000000000000000000009060009073__$275108e79aa89bc0be7b6a95f0c90e4c42$__9063fdfc26f3906109959085908a906004016145b4565b600060405180830381865af41580156109b2573d6000803e3d6000fd5b505050506040513d6000823e601f3d908101601f191682016040526109da91908101906146b0565b9050600073__$912693e8661eae8519dca8323d5b513832$__63c61cf99084610a0285515190565b6040518363ffffffff1660e01b8152600401610a1f9291906147fc565b602060405180830381865af4158015610a3c573d6000803e3d6000fd5b505050506040513d601f19601f82011682018060405250810190610a6091906142de565b90506000610a6f84848461263f565b9050610a7c8486836128b0565b6000610a8885876128fe565b60405163ee36080960e01b8152909150309063ee360809908390610ab4908d9089903390600401614850565b600060405180830381600088803b158015610ace57600080fd5b5087f193505050508015610ae0575060015b610b21573d808015610b0e576040519150601f19603f3d011682016040523d82523d6000602084013e610b13565b606091505b50610b1f8a8883612943565b505b5050505050507f00000000000000000000000000000000000000000000000000000000000000006001600160a01b031662ccf1556040518163ffffffff1660e01b8152600401600060405180830381600087803b158015610b8157600080fd5b505af1158015610b95573d6000803e3d6000fd5b5050505050610ba2612589565b5050565b610bf6604051602001610bb89061494d565b604051602081830303815290604052805190602001206040518060400160405280600a81526020016921a7a72a2927a62622a960b11b81525061248c565b602081015151815151829114610c2a5780515160208201515160405163663de02360e01b81526101fd929190600401614971565b60005b815151811015610d1057600082600001518281518110610c4f57610c4f61497f565b60200260200101519050600083602001518381518110610c7157610c7161497f565b602002602001015190507f00000000000000000000000000000000000000000000000000000000000000006001600160a01b03166347cba33d83836040518363ffffffff1660e01b8152600401610cc9929190614995565b600060405180830381600087803b158015610ce357600080fd5b505af1158015610cf7573d6000803e3d6000fd5b5050505050508080610d08906149d1565b915050610c2d565b507f00000000000000000000000000000000000000000000000000000000000000006001600160a01b031663fa101977826040015183606001516040518363ffffffff1660e01b8152600401610d67929190614971565b600060405180830381600087803b158015610d8157600080fd5b505af1158015610d95573d6000803e3d6000fd5b50505050610da16122d1565b60405163fdfc26f360e01b815260009073__$0b06d8034ddfec34cf23b0ef7b59522d69$__9063fdfc26f390610dfd907f00000000000000000000000000000000000000000000000000000000000000009088906004016145b4565b600060405180830381865af4158015610e1a573d6000803e3d6000fd5b505050506040513d6000823e601f3d908101601f19168201604052610e429190810190614a83565b604051630f70371560e01b81529091503090630f70371590610e6c90879085903390600401614c39565b600060405180830381600087803b158015610e8657600080fd5b505af1158015610e9a573d6000803e3d6000fd5b5050505050610ea7612589565b6040516327246e6d60e11b815260040160405180910390fd5b610ec86122d1565b610eda604051602001610bb89061494d565b60005a90507f0000000000000000000000000000000000000000000000000000000000000000610f0d8161059430612aac565b60405163fdfc26f360e01b815260009073__$275108e79aa89bc0be7b6a95f0c90e4c42$__9063fdfc26f390610f4990859088906004016145b4565b600060405180830381865af4158015610f66573d6000803e3d6000fd5b505050506040513d6000823e601f3d908101601f19168201604052610f8e91908101906146b0565b9050610fcd610fa282602001516060015190565b6040518060400160405280600d81526020016c11db1d95da5d1a191c985dd85b609a1b815250612afe565b60006040518061010001604052807f00000000000000000000000000000000000000000000000000000000000000006001600160a01b031681526020017f00000000000000000000000000000000000000000000000000000000000000006001600160a01b031681526020017f00000000000000000000000000000000000000000000000000000000000000006001600160a01b0316815260200186815260200161107a84516040015190565b6001600160a01b03168152602080820187905260408051808201825260158152741554d15497d2539255125055115117d0d05390d153605a1b8184015281840152805191820181526000825260609092015251637976501960e11b815290915073__$3d0c32ba7071f5477566110fad865c0689$__9063f2eca03290611104908490600401614dec565b60006040518083038186803b15801561111c57600080fd5b505af4158015611130573d6000803e3d6000fd5b5050505050505050611140612589565b50565b333014611165573360405163a35b150b60e01b81526004016101fd91906141e8565b60005a90506111977f000000000000000000000000000000000000000000000000000000000000000061059430612c16565b6040805160e0810182526001600160a01b037f0000000000000000000000000000000000000000000000000000000000000000811682527f0000000000000000000000000000000000000000000000000000000000000000811660208301527f00000000000000000000000000000000000000000000000000000000000000008116828401527f0000000000000000000000000000000000000000000000000000000000000000811660608301526080820187905260a08201849052841660c08201529051630a600a2160e31b815273__$d280409aa0d413c1ee34fe6b8495c4455a$__906353005108906112929084908890600401614e52565b602060405180830381865af41580156112af573d6000803e3d6000fd5b505050506040513d601f19601f820116820180604052508101906112d391906142de565b505050505050565b60006112e56122d1565b6112f7604051602001610bb89061494d565b6113247f000000000000000000000000000000000000000000000000000000000000000061059430612c66565b604051634ee0a6d760e01b815273__$d280409aa0d413c1ee34fe6b8495c4455a$__90634ee0a6d7906113c3907f0000000000000000000000000000000000000000000000000000000000000000907f0000000000000000000000000000000000000000000000000000000000000000907f00000000000000000000000000000000000000000000000000000000000000009089908990600401615014565b602060405180830381865af41580156113e0573d6000803e3d6000fd5b505050506040513d601f19601f8201168201806040525081019061140491906142de565b905061140e612589565b92915050565b61141c6122d1565b61146f60405160200161142e906151b5565b604051602081830303815290604052805190602001206040518060400160405280600d81526020016c21a7a72324a3afa5a2a2a822a960991b81525061248c565b604051630215b4bb60e21b815273__$912693e8661eae8519dca8323d5b513832$__90630856d2ec906114ec907f0000000000000000000000000000000000000000000000000000000000000000907f000000000000000000000000000000000000000000000000000000000000000090879087906004016151dc565b60006040518083038186803b15801561150457600080fd5b505af4158015611518573d6000803e3d6000fd5b50505050610ba2612589565b61152c6122d1565b61153e604051602001610719906142f7565b61154781614344565b604051633d333c8560e01b81526001600160a01b037f00000000000000000000000000000000000000000000000000000000000000001690633d333c8590611593908490600401614516565b600060405180830381600087803b1580156115ad57600080fd5b505af11580156115c1573d6000803e3d6000fd5b5050505060005a60405163fdfc26f360e01b81529091507f00000000000000000000000000000000000000000000000000000000000000009060009073__$0b06d8034ddfec34cf23b0ef7b59522d69$__9063fdfc26f3906116299085908a906004016145b4565b600060405180830381865af4158015611646573d6000803e3d6000fd5b505050506040513d6000823e601f3d908101601f1916820160405261166e9190810190614a83565b9050600073__$912693e8661eae8519dca8323d5b513832$__63c61cf9908461169685515190565b6040518363ffffffff1660e01b81526004016116b39291906147fc565b602060405180830381865af41580156116d0573d6000803e3d6000fd5b505050506040513d601f19601f820116820180604052508101906116f491906142de565b90506000611703848484612cb5565b90506117108486836128b0565b600061171c85876128fe565b604051630f70371560e01b81529091503090630f703715908390611748908d9089903390600401614c39565b600060405180830381600088803b15801561176257600080fd5b5087f193505050508015611774575060015b610b21573d8080156117a2576040519150601f19603f3d011682016040523d82523d6000602084013e6117a7565b606091505b50610b1f8a8883612ec3565b6117c5604051602001610bb89061494d565b6020810151518151518291146117f95780515160208201515160405163663de02360e01b81526101fd929190600401614971565b60005b8151518110156118df5760008260000151828151811061181e5761181e61497f565b602002602001015190506000836020015183815181106118405761184061497f565b602002602001015190507f00000000000000000000000000000000000000000000000000000000000000006001600160a01b03166347cba33d83836040518363ffffffff1660e01b8152600401611898929190614995565b600060405180830381600087803b1580156118b257600080fd5b505af11580156118c6573d6000803e3d6000fd5b50505050505080806118d7906149d1565b9150506117fc565b507f00000000000000000000000000000000000000000000000000000000000000006001600160a01b031663fa101977826040015183606001516040518363ffffffff1660e01b8152600401611936929190614971565b600060405180830381600087803b15801561195057600080fd5b505af1158015611964573d6000803e3d6000fd5b505050506119706122d1565b60405163fdfc26f360e01b815260009073__$275108e79aa89bc0be7b6a95f0c90e4c42$__9063fdfc26f3906119cc907f00000000000000000000000000000000000000000000000000000000000000009088906004016145b4565b600060405180830381865af41580156119e9573d6000803e3d6000fd5b505050506040513d6000823e601f3d908101601f19168201604052611a1191908101906146b0565b60405163ee36080960e01b8152909150309063ee36080990610e6c90879085903390600401614850565b611a436122d1565b611a5560405160200161142e906151b5565b604051638aa2b9e760e01b815273__$912693e8661eae8519dca8323d5b513832$__90638aa2b9e7906114ec907f0000000000000000000000000000000000000000000000000000000000000000907f000000000000000000000000000000000000000000000000000000000000000090879087906004016151dc565b611ada6122d1565b611aec604051602001610719906142f7565b611af581614344565b604051633d333c8560e01b81526001600160a01b037f00000000000000000000000000000000000000000000000000000000000000001690633d333c8590611b41908490600401614516565b600060405180830381600087803b158015611b5b57600080fd5b505af1158015611b6f573d6000803e3d6000fd5b5050505060005a60405163fdfc26f360e01b81529091507f00000000000000000000000000000000000000000000000000000000000000009060009073__$07591b4a48e7f184f964d42e66c465aad6$__9063fdfc26f390611bd79085908a906004016145b4565b60c060405180830381865af4158015611bf4573d6000803e3d6000fd5b505050506040513d601f19601f82011682018060405250810190611c189190615207565b90506000611c2583612ff3565b9050611c328385836128b0565b6000611c3e84866128fe565b6040516304b854bd60e01b815290915030906304b854bd908390611c6a908c90889033906004016152b5565b600060405180830381600088803b158015611c8457600080fd5b5087f193505050508015611c96575060015b611cd4573d808015611cc4576040519150601f19603f3d011682016040523d82523d6000602084013e611cc9565b606091505b50610b21898261306b565b50505050507f00000000000000000000000000000000000000000000000000000000000000006001600160a01b031662ccf1556040518163ffffffff1660e01b8152600401600060405180830381600087803b158015610b8157600080fd5b6000611d3d6122d1565b611d4f604051602001610bb89061494d565b7f0000000000000000000000000000000000000000000000000000000000000000611d7d8161059430613172565b604051638f35b2d960e01b815273__$3d0c32ba7071f5477566110fad865c0689$__90638f35b2d990611dfc9084907f0000000000000000000000000000000000000000000000000000000000000000907f0000000000000000000000000000000000000000000000000000000000000000908a908a906004016152fb565b602060405180830381865af4158015611e19573d6000803e3d6000fd5b505050506040513d601f19601f82011682018060405250810190611e3d91906142de565b91505061140e612589565b611e506122d1565b611e62604051602001610bb89061494d565b60005a90507f0000000000000000000000000000000000000000000000000000000000000000611e9581610594306131c4565b60405163fdfc26f360e01b815260009073__$0b06d8034ddfec34cf23b0ef7b59522d69$__9063fdfc26f390611ed190859088906004016145b4565b600060405180830381865af4158015611eee573d6000803e3d6000fd5b505050506040513d6000823e601f3d908101601f19168201604052611f169190810190614a83565b9050611f52611f2a82602001516080015190565b6040518060400160405280600a81526020016911db1d91195c1bdcda5d60b21b815250612afe565b60006040518061010001604052807f00000000000000000000000000000000000000000000000000000000000000006001600160a01b031681526020017f00000000000000000000000000000000000000000000000000000000000000006001600160a01b031681526020017f00000000000000000000000000000000000000000000000000000000000000006001600160a01b03168152602001868152602001611fff84516020015190565b6001600160a01b03168152602080820187905260408051808201825260158152741554d15497d2539255125055115117d0d05390d153605a1b81840152818401528051918201815260008252606090920152516289a20760e21b815290915073__$d280409aa0d413c1ee34fe6b8495c4455a$__90630226881c90611104908490600401614dec565b3330146120aa573360405163a35b150b60e01b81526004016101fd91906141e8565b60005a90506120dc7f000000000000000000000000000000000000000000000000000000000000000061059430613213565b6040805160e0810182526001600160a01b037f0000000000000000000000000000000000000000000000000000000000000000811682527f0000000000000000000000000000000000000000000000000000000000000000811660208301527f00000000000000000000000000000000000000000000000000000000000000008116828401527f0000000000000000000000000000000000000000000000000000000000000000811660608301526080820187905260a08201849052841660c0820152905163771bb32360e11b815273__$3d0c32ba7071f5477566110fad865c0689$__9063ee376646906121d79084908890600401615449565b60006040518083038186803b1580156121ef57600080fd5b505af4158015612203573d6000803e3d6000fd5b505050505050505050565b600060405160200161225c9060208082526022908201527f455845435554455f474c565f53484946545f464541545552455f44495341424c604082015261115160f21b606082015260800190565b60408051601f198184030181528282528051602091820120908301526001600160a01b03841690820152606001604051602081830303815290604052805190602001209050919050565b6122b08282613266565b15610ba25760405163dd70e0c960e01b8152600481018290526024016101fd565b60007f00000000000000000000000000000000000000000000000000000000000000006001600160a01b031663bd02d0f560405160200161231190615543565b604051602081830303815290604052805190602001206040518263ffffffff1660e01b815260040161234591815260200190565b602060405180830381865afa158015612362573d6000803e3d6000fd5b505050506040513d601f19601f8201168201806040525081019061238691906142de565b905080156123d65760405162461bcd60e51b815260206004820152601f60248201527f5265656e7472616e637947756172643a207265656e7472616e742063616c6c0060448201526064016101fd565b7f00000000000000000000000000000000000000000000000000000000000000006001600160a01b031663e2a4853a60405160200161241490615543565b6040516020818303038152906040528051906020012060016040518363ffffffff1660e01b8152600401612449929190614971565b6020604051808303816000875af1158015612468573d6000803e3d6000fd5b505050506040513d601f19601f82011682018060405250810190610ba291906142de565b60405163ac4ab3fb60e01b81526001600160a01b037f0000000000000000000000000000000000000000000000000000000000000000169063ac4ab3fb906124da90339086906004016145b4565b602060405180830381865afa1580156124f7573d6000803e3d6000fd5b505050506040513d601f19601f8201168201806040525081019061251b9190615574565b610ba257338160405163a35b150b60e01b81526004016101fd929190615591565b600060405160200161225c9060208082526021908201527f4352454154455f474c565f53484946545f464541545552455f44495341424c456040820152601160fa1b606082015260800190565b7f00000000000000000000000000000000000000000000000000000000000000006001600160a01b031663e2a4853a6040516020016125c790615543565b6040516020818303038152906040528051906020012060006040518363ffffffff1660e01b81526004016125fc929190614971565b6020604051808303816000875af115801561261b573d6000803e3d6000fd5b505050506040513d601f19601f8201168201806040525081019061114091906142de565b600080846001600160a01b031663bd02d0f56126596132d2565b6040518263ffffffff1660e01b815260040161267791815260200190565b602060405180830381865afa158015612694573d6000803e3d6000fd5b505050506040513d601f19601f820116820180604052508101906126b891906142de565b905060006126c684836155b5565b90506000866001600160a01b031663bd02d0f56126e161332b565b6040518263ffffffff1660e01b81526004016126ff91815260200190565b602060405180830381865afa15801561271c573d6000803e3d6000fd5b505050506040513d601f19601f8201168201806040525081019061274091906142de565b9050600082612754886020015160a0015190565b61275e90846155cc565b61276891906155cc565b90506000886001600160a01b031663bd02d0f5612783613369565b6040518263ffffffff1660e01b81526004016127a191815260200190565b602060405180830381865afa1580156127be573d6000803e3d6000fd5b505050506040513d601f19601f820116820180604052508101906127e291906142de565b905060006127f2895160e0015190565b51895160c001515161280491906155cc565b9050600061281283836155b5565b9050808b6001600160a01b031663bd02d0f561282c6133a4565b6040518263ffffffff1660e01b815260040161284a91815260200190565b602060405180830381865afa158015612867573d6000803e3d6000fd5b505050506040513d601f19601f8201168201806040525081019061288b91906142de565b61289590866155cc565b61289f91906155cc565b9750505050505050505b9392505050565b60006128bb846133de565b90506128c781836155cc565b8310156128f85760405163bb416f9360e01b81526004810184905260248101839052604481018290526064016101fd565b50505050565b60008061290a84613462565b905080831015612931578281604051631e4a4e5960e21b81526004016101fd929190614971565b61293b81846155df565b949350505050565b61296d7f0000000000000000000000000000000000000000000000000000000000000000826134c6565b600061297a826020015190565b90506129868183613514565b60006129918361357c565b5060408051610100810182526001600160a01b037f0000000000000000000000000000000000000000000000000000000000000000811682527f0000000000000000000000000000000000000000000000000000000000000000811660208301527f000000000000000000000000000000000000000000000000000000000000000016818301526060810188905233608082015260a0810187905260c0810183905260e081018690529051637976501960e11b81529192509073__$3d0c32ba7071f5477566110fad865c0689$__9063f2eca03290612a74908490600401614dec565b60006040518083038186803b158015612a8c57600080fd5b505af4158015612aa0573d6000803e3d6000fd5b50505050505050505050565b600060405160200161225c9060208082526026908201527f43414e43454c5f474c565f5749544844524157414c5f464541545552455f444960408201526514d05093115160d21b606082015260800190565b60007f00000000000000000000000000000000000000000000000000000000000000006001600160a01b031663bd02d0f5604051602001612b6a90602080825260179082015276524551554553545f45585049524154494f4e5f54494d4560481b604082015260600190565b604051602081830303815290604052805190602001206040518263ffffffff1660e01b8152600401612b9e91815260200190565b602060405180830381865afa158015612bbb573d6000803e3d6000fd5b505050506040513d601f19601f82011682018060405250810190612bdf91906142de565b90506000612bed84426155df565b9050818110156128f857808284604051631d04cc8760e31b81526004016101fd939291906155f2565b600060405160200161225c9060208082526024908201527f455845435554455f474c565f4445504f5349545f464541545552455f444953416040820152631093115160e21b606082015260800190565b600060405160200161225c9060208082526023908201527f4352454154455f474c565f4445504f5349545f464541545552455f444953414260408201526213115160ea1b606082015260800190565b600080846001600160a01b031663bd02d0f5612ccf6132d2565b6040518263ffffffff1660e01b8152600401612ced91815260200190565b602060405180830381865afa158015612d0a573d6000803e3d6000fd5b505050506040513d601f19601f82011682018060405250810190612d2e91906142de565b90506000612d3c84836155b5565b90506000866001600160a01b031663bd02d0f5612d5761360c565b6040518263ffffffff1660e01b8152600401612d7591815260200190565b602060405180830381865afa158015612d92573d6000803e3d6000fd5b505050506040513d601f19601f82011682018060405250810190612db691906142de565b9050600082612dca886020015160c0015190565b612dd490846155cc565b612dde91906155cc565b9050612def87604001516020015190565b15612dff5793506128a992505050565b6000886001600160a01b031663bd02d0f5612e18613369565b6040518263ffffffff1660e01b8152600401612e3691815260200190565b602060405180830381865afa158015612e53573d6000803e3d6000fd5b505050506040513d601f19601f82011682018060405250810190612e7791906142de565b90506000612e888951610120015190565b518951610100015151612e9b91906155cc565b90506000612ea983836155b5565b9050808b6001600160a01b031663bd02d0f561282c613647565b612eed7f0000000000000000000000000000000000000000000000000000000000000000826134c6565b6000612efa826020015190565b9050612f068183613514565b6000612f118361357c565b5060408051610100810182526001600160a01b037f0000000000000000000000000000000000000000000000000000000000000000811682527f0000000000000000000000000000000000000000000000000000000000000000811660208301527f000000000000000000000000000000000000000000000000000000000000000016818301526060810188905233608082015260a0810187905260c0810183905260e0810186905290516289a20760e21b81529192509073__$d280409aa0d413c1ee34fe6b8495c4455a$__90630226881c90612a74908490600401614dec565b6000816001600160a01b031663bd02d0f561300c61367e565b6040518263ffffffff1660e01b815260040161302a91815260200190565b602060405180830381865afa158015613047573d6000803e3d6000fd5b505050506040513d601f19601f8201168201806040525081019061140e91906142de565b6130957f0000000000000000000000000000000000000000000000000000000000000000826134c6565b60006130a2826020015190565b90506130ae8183613514565b60006130b98361357c565b5060405163c7883ffb60e01b815290915073__$edea835fb55de342a36b6fe89fea714fff$__9063c7883ffb9061313c907f0000000000000000000000000000000000000000000000000000000000000000907f000000000000000000000000000000000000000000000000000000000000000090899087908a90600401615611565b60006040518083038186803b15801561315457600080fd5b505af4158015613168573d6000803e3d6000fd5b5050505050505050565b600060405160200161225c9060208082526026908201527f4352454154455f474c565f5749544844524157414c5f464541545552455f444960408201526514d05093115160d21b606082015260800190565b600060405160200161225c9060208082526023908201527f43414e43454c5f474c565f4445504f5349545f464541545552455f444953414260408201526213115160ea1b606082015260800190565b600060405160200161225c9060208082526027908201527f455845435554455f474c565f5749544844524157414c5f464541545552455f446040820152661254d05093115160ca1b606082015260800190565b604051633d70e7e560e11b8152600481018290526000906001600160a01b03841690637ae1cfca90602401602060405180830381865afa1580156132ae573d6000803e3d6000fd5b505050506040513d601f19601f820116820180604052508101906128a99190615574565b60006040516020016133109060208082526018908201527711d31597d4115497d3505492d15517d1d054d7d31253525560421b604082015260600190565b60405160208183030381529060405280519060200120905090565b60006040516020016133109060208082526018908201527711d31597d5d2551211149055d05317d1d054d7d31253525560421b604082015260600190565b60006040516020016133109060208082526015908201527414d25391d31157d4d5d05417d1d054d7d312535255605a1b604082015260600190565b60006040516020016133109060208082526014908201527315d2551211149055d05317d1d054d7d31253525560621b604082015260600190565b6000816001600160a01b031663bd02d0f560405160200161342e906020808252818101527f4d494e5f4144444954494f4e414c5f4741535f464f525f455845435554494f4e604082015260600190565b604051602081830303815290604052805190602001206040518263ffffffff1660e01b815260040161302a91815260200190565b6000816001600160a01b031663bd02d0f560405160200161342e9060208082526029908201527f4d494e5f48414e444c455f455845435554494f4e5f4552524f525f4741535f5460408201526813d7d193d495d0549160ba1b606082015260800190565b80511515806134d457503215155b156134dd575050565b60005a905060006134ed846136b7565b9050808210156128f8578181604051633083b9e560e01b81526004016101fd929190614971565b61351d82613709565b8061353857506001600160e01b0319821663dd70e0c960e01b145b8061355357506001600160e01b031982166379a2abad60e01b145b8061356e57506001600160e01b031982166334f6b2ab60e21b145b15610ba257610ba28161373f565b606060006044835110156135a3575050604080516020810190915260008082529092909150565b60006135b0846020015190565b90506307b9e43360e51b6001600160e01b03198216016135ef57600484019350838060200190518101906135e49190615662565b946001945092505050565b600060405180602001604052806000815250909250925050915091565b60006040516020016133109060208082526015908201527411d31597d1115413d4d25517d1d054d7d312535255605a1b604082015260600190565b60006040516020016133109060208082526011908201527011115413d4d25517d1d054d7d312535255607a1b604082015260600190565b60006040516020016133109060208082526013908201527211d31597d4d212519517d1d054d7d312535255606a1b604082015260600190565b6000816001600160a01b031663bd02d0f560405160200161342e906020808252601e908201527f4d494e5f48414e444c455f455845435554494f4e5f4552524f525f4741530000604082015260600190565b600061371482613748565b1561372157506001919050565b61372a8261378a565b1561373757506001919050565b506000919050565b80518060208301fd5b60006304f68e2360e31b6001600160e01b031983160161376a57506001919050565b638298854160e01b6001600160e01b031983160161373757506001919050565b600063329b5fdb60e01b6001600160e01b031983160161373757506001919050565b6001600160a01b038116811461114057600080fd5b805161088b816137ac565b6000602082840312156137de57600080fd5b81516128a9816137ac565b6001600160a01b03169052565b6001600160a01b0391909116815260200190565b634e487b7160e01b600052604160045260246000fd5b604080519081016001600160401b03811182821017156138425761384261380a565b60405290565b604051606081016001600160401b03811182821017156138425761384261380a565b604051608081016001600160401b03811182821017156138425761384261380a565b60405160e081016001600160401b03811182821017156138425761384261380a565b60405161014081016001600160401b03811182821017156138425761384261380a565b60405160c081016001600160401b03811182821017156138425761384261380a565b604051602081016001600160401b03811182821017156138425761384261380a565b60405161010081016001600160401b03811182821017156138425761384261380a565b604051601f8201601f191681016001600160401b03811182821017156139605761396061380a565b604052919050565b803561088b816137ac565b600080600083850361010081121561398a57600080fd5b84359350601f19810160c08112156139a157600080fd5b6139a9613820565b60608212156139b757600080fd5b6139bf613848565b915060208701356139cf816137ac565b825260408701356139df816137ac565b602083015260608701356139f2816137ac565b60408301528181526060607f1984011215613a0c57600080fd5b613a14613848565b6080880135815260a088013560208083019190915260c089013560408301528201529350613a4791505060e08501613968565b90509250925092565b600060a08284031215613a6257600080fd5b60405160a081016001600160401b0381118282101715613a8457613a8461380a565b6040528235613a92816137ac565b81526020830135613aa2816137ac565b60208201526040830135613ab5816137ac565b6040820152606083810135908201526080928301359281019290925250919050565b60008060408385031215613aea57600080fd5b8235915060208301356001600160401b03811115613b0757600080fd5b830160608186031215613b1957600080fd5b809150509250929050565b60006001600160401b03821115613b3d57613b3d61380a565b5060051b60200190565b600082601f830112613b5857600080fd5b81356020613b6d613b6883613b24565b613938565b82815260059290921b84018101918181019086841115613b8c57600080fd5b8286015b84811015613bb0578035613ba3816137ac565b8352918301918301613b90565b509695505050505050565b6000806040808486031215613bcf57600080fd5b833592506020808501356001600160401b0380821115613bee57600080fd5b9086019060808289031215613c0257600080fd5b613c0a61386a565b823582811115613c1957600080fd5b613c258a828601613b47565b8252508383013582811115613c3957600080fd5b83019150601f82018913613c4c57600080fd5b8135613c5a613b6882613b24565b81815260069190911b8301850190858101908b831115613c7957600080fd5b938601935b82851015613cb95787858d031215613c965760008081fd5b613c9e613820565b85358152878601358882015282529387019390860190613c7e565b808785015250505084830135858201526060830135606082015280955050505050509250929050565b600060208284031215613cf457600080fd5b5035919050565b600060e08284031215613d0d57600080fd5b613d1561388c565b9050813581526020820135602082015260408201356040820152606082013560608201526080820135608082015260a082013560a082015260c082013560c082015292915050565b801515811461114057600080fd5b803561088b81613d5d565b600060408284031215613d8857600080fd5b613d90613820565b90508135613d9d81613d5d565b81526020820135613dad81613d5d565b602082015292915050565b600080600060608486031215613dcd57600080fd5b8335925060208401356001600160401b0380821115613deb57600080fd5b8186019150610140808389031215613e0257600080fd5b613e0a613848565b833583811115613e1957600080fd5b8401808a03831315613e2a57600080fd5b613e326138ae565b9250613e3d81613968565b8352613e4b60208201613968565b6020840152613e5c60408201613968565b6040840152613e6d60608201613968565b6060840152613e7e60808201613968565b6080840152613e8f60a08201613968565b60a0840152613ea060c08201613968565b60c0840152613eb160e08201613968565b60e08401526101008082013585811115613eca57600080fd5b613ed68c828501613b47565b82860152506101208083013586811115613eef57600080fd5b613efb8d828601613b47565b828701525050838352613f118b60208801613cfb565b6020840152613f228b828801613d76565b6040840152505080955050505050613a4760408501613968565b60008060408385031215613f4f57600080fd5b8235613f5a816137ac565b915060208301356001600160401b03811115613f7557600080fd5b83016101c08186031215613b1957600080fd5b60008060408385031215613f9b57600080fd5b8235613fa6816137ac565b91506020830135613b19816137ac565b60008060408385031215613fc957600080fd5b8235613fd4816137ac565b915060208301356001600160401b03811115613fef57600080fd5b83016101808186031215613b1957600080fd5b600060c0828403121561401457600080fd5b61401c6138d1565b9050813581526020820135602082015260408201356040820152606082013560608201526080820135608082015260a082013560a082015292915050565b60006020828403121561406c57600080fd5b6140746138f3565b9050813561408181613d5d565b815292915050565b60008060006060848603121561409e57600080fd5b8335925060208401356001600160401b03808211156140bc57600080fd5b81860191506101008083890312156140d357600080fd5b6140db613848565b8335838111156140ea57600080fd5b8401808a038313156140fb57600080fd5b614103613915565b925061410e81613968565b835261411c60208201613968565b602084015261412d60408201613968565b604084015261413e60608201613968565b606084015261414f60808201613968565b608084015261416060a08201613968565b60a084015260c08101358481111561417757600080fd5b6141838b828401613b47565b60c08501525060e08101358481111561419b57600080fd5b6141a78b828401613b47565b60e085015250508181526141be8960208601614002565b60208201526141d08960e0860161405a565b604082015280955050505050613a4760408501613968565b6001600160a01b039190911681526040602082018190526004908201526329a2a62360e11b606082015260800190565b80516001600160a01b03908116835260208083015182169084015260409182015116910152565b8051825260208082015190830152604090810151910152565b60006101a08201905060018060a01b0380855116835280602086015116602084015280604086015116604084015280606086015116606084015280608086015116608084015260a085015160a08401528060c08601511660c0840152506142c360e083018451614218565b60208301516142d661014084018261423f565b509392505050565b6000602082840312156142f057600080fd5b5051919050565b6020808252600c908201526b27a92222a92fa5a2a2a822a960a11b604082015260600190565b60006001600160401b038211156143365761433661380a565b50601f01601f191660200190565b60006060823603121561435657600080fd5b61435e613848565b82356001600160401b038082111561437557600080fd5b61438136838701613b47565b835260209150818501358181111561439857600080fd5b6143a436828801613b47565b8385015250604080860135828111156143bc57600080fd5b860136601f8201126143cd57600080fd5b80356143db613b6882613b24565b81815260059190911b820185019085810190368311156143fa57600080fd5b8684015b8381101561446e578035878111156144165760008081fd5b850136603f8201126144285760008081fd5b88810135614438613b688261431d565b818152368983850101111561444d5760008081fd5b818984018c83013760009181018b01919091528452509187019187016143fe565b509387019390935250939695505050505050565b600081518084526020808501945080840160005b838110156144bb5781516001600160a01b031687529582019590820190600101614496565b509495945050505050565b60005b838110156144e15781810151838201526020016144c9565b50506000910152565b600081518084526145028160208601602086016144c6565b601f01601f19169290920160200192915050565b6000602080835283516060828501526145326080850182614482565b905081850151601f198086840301604087015261454f8383614482565b60408801518782038301606089015280518083529194508501925084840190600581901b8501860160005b828110156145a657848783030184526145948287516144ea565b9588019593880193915060010161457a565b509998505050505050505050565b6001600160a01b03929092168252602082015260400190565b600082601f8301126145de57600080fd5b815160206145ee613b6883613b24565b82815260059290921b8401810191818101908684111561460d57600080fd5b8286015b84811015613bb0578051614624816137ac565b8352918301918301614611565b600060c0828403121561464357600080fd5b61464b6138d1565b9050815181526020820151602082015260408201516040820152606082015160608201526080820151608082015260a082015160a082015292915050565b60006020828403121561469b57600080fd5b6146a36138f3565b9050815161408181613d5d565b6000602082840312156146c257600080fd5b81516001600160401b03808211156146d957600080fd5b81840191506101008083870312156146f057600080fd5b6146f8613848565b83518381111561470757600080fd5b840180880383131561471857600080fd5b614720613915565b925061472b816137c1565b8352614739602082016137c1565b602084015261474a604082016137c1565b604084015261475b606082016137c1565b606084015261476c608082016137c1565b608084015261477d60a082016137c1565b60a084015260c08101518481111561479457600080fd5b6147a0898284016145cd565b60c08501525060e0810151848111156147b857600080fd5b6147c4898284016145cd565b60e085015250508181526147db8760208601614631565b60208201526147ed8760e08601614689565b60408201529695505050505050565b6001600160a01b0392831681529116602082015260400190565b805182526020810151602083015260408101516040830152606081015160608301526080810151608083015260a081015160a08301525050565b838152606060208201526000835161010080606085015260018060a01b03825116610160850152602082015161488a6101808601826137e9565b50604082015161489e6101a08601826137e9565b5060608201516148b26101c08601826137e9565b5060808201516148c66101e08601826137e9565b5060a08201516148da6102008601826137e9565b5060c0820151816102208601526148f5610260860182614482565b91505060e0820151915061015f19848203016102408501526149178183614482565b915050602085015161492c6080850182614816565b506040850151805115156101408501525b50905061293b60408301846137e9565b6020808252600a908201526921a7a72a2927a62622a960b11b604082015260600190565b918252602082015260400190565b634e487b7160e01b600052603260045260246000fd5b6001600160a01b0392909216825280516020808401919091520151604082015260600190565b634e487b7160e01b600052601160045260246000fd5b6000600182016149e3576149e36149bb565b5060010190565b600060e082840312156149fc57600080fd5b614a0461388c565b9050815181526020820151602082015260408201516040820152606082015160608201526080820151608082015260a082015160a082015260c082015160c082015292915050565b600060408284031215614a5e57600080fd5b614a66613820565b90508151614a7381613d5d565b81526020820151613dad81613d5d565b600060208284031215614a9557600080fd5b81516001600160401b0380821115614aac57600080fd5b8184019150610140808387031215614ac357600080fd5b614acb613848565b835183811115614ada57600080fd5b8401808803831315614aeb57600080fd5b614af36138ae565b9250614afe816137c1565b8352614b0c602082016137c1565b6020840152614b1d604082016137c1565b6040840152614b2e606082016137c1565b6060840152614b3f608082016137c1565b6080840152614b5060a082016137c1565b60a0840152614b6160c082016137c1565b60c0840152614b7260e082016137c1565b60e08401526101008082015185811115614b8b57600080fd5b614b978a8285016145cd565b82860152506101208083015186811115614bb057600080fd5b614bbc8b8286016145cd565b828701525050838352614bd289602088016149ea565b6020840152614be389828801614a4c565b60408401525090979650505050505050565b805182526020810151602083015260408101516040830152606081015160608301526080810151608083015260a081015160a083015260c081015160c08301525050565b8381526060602082015260008351610140806060850152614c5f6101a0850183516137e9565b6020820151614c726101c08601826137e9565b506040820151614c866101e08601826137e9565b506060820151614c9a6102008601826137e9565b506080820151614cae6102208601826137e9565b5060a0820151614cc26102408601826137e9565b5060c0820151614cd66102608601826137e9565b5060e0820151614cea6102808601826137e9565b50610100820151816102a0860152614d066102e0860182614482565b915050610120820151915061019f19848203016102c0850152614d298183614482565b9150506020850151614d3e6080850182614bf5565b506040850151805115156101608501526020810151151561018085015261493d565b600061010060018060a01b0380845116855280602085015116602086015280604085015116604086015250606083015160608501526080830151614da760808601826137e9565b5060a083015160a085015260c08301518160c0860152614dc9828601826144ea565b91505060e083015184820360e0860152614de382826144ea565b95945050505050565b6020815260006128a96020830184614d60565b80516001600160a01b0390811683526020808301518216908401526040808301518216908401526060808301518216908401526080808301519084015260a0828101519084015260c09182015116910152565b6000610100614e618386614dff565b8060e084015283516101408083860152614e80610240860183516137e9565b6020820151614e936102608701826137e9565b506040820151614ea76102808701826137e9565b506060820151614ebb6102a08701826137e9565b506080820151614ecf6102c08701826137e9565b5060a0820151614ee36102e08701826137e9565b5060c0820151614ef76103008701826137e9565b5060e0820151614f0b6103208701826137e9565b5091810151610340850192909252614f27610380850183614482565b6101209182015185820361023f190161036087015290925090614f4a8383614482565b925060208601519150614f5f81860183614bf5565b5050604084015180511515610200850152602081015115156102208501525b50949350505050565b6000808335601e19843603018112614f9e57600080fd5b83016020810192503590506001600160401b03811115614fbd57600080fd5b8060051b3603821315614fcf57600080fd5b9250929050565b8183526000602080850194508260005b858110156144bb578135614ff9816137ac565b6001600160a01b031687529582019590820190600101614fe6565b6001600160a01b038681168252858116602083015284811660408301528316606082015260a06080820181905260009061505890830161505385613968565b6137e9565b61506460208401613968565b61507160c08401826137e9565b5061507e60408401613968565b61508b60e08401826137e9565b5061509860608401613968565b6101006150a7818501836137e9565b6150b360808601613968565b91506101206150c4818601846137e9565b6150d060a08701613968565b92506101406150e1818701856137e9565b6150ed60c08801613968565b93506101606150fe818801866137e9565b61510b60e0890189614f87565b95506101c061018081818b01526151276102608b018985614fd6565b9750615135878c018c614f87565b975092506101a0609f198b8a0301818c0152615152898986614fd6565b9850868c0135838c0152858c01356101e08c0152848c01356102008c015261517b828d01613d6b565b8015156102208d01529750615191818d01613d6b565b9750505050505050506151a961024085018215159052565b50979650505050505050565b6020808252600d908201526c21a7a72324a3afa5a2a2a822a960991b604082015260600190565b6001600160a01b03948516815292841660208401529083166040830152909116606082015260800190565b600081830360c081121561521a57600080fd5b615222613820565b606082121561523057600080fd5b615238613848565b8451615243816137ac565b81526020850151615253816137ac565b60208201526040850151615266816137ac565b604082015281526060605f198301121561527f57600080fd5b615287613848565b9150606084015182526080840151602083015260a08401516040830152816020820152809250505092915050565b6000610100820190508482526152cf602083018551614218565b60208401516152e1608084018261423f565b506001600160a01b039290921660e0919091015292915050565b6001600160a01b038681168252858116602083015284811660408301528316606082015260a06080820181905260009061533a90830161505385613968565b61534660208401613968565b61535360c08401826137e9565b5061536060408401613968565b61536d60e08401826137e9565b5061537a60608401613968565b610100615389818501836137e9565b61539560808601613968565b91506101206153a6818601846137e9565b6153b360a0870187614f87565b935061018061014081818901526153cf61022089018785614fd6565b95506153de60c08a018a614f87565b9350610160609f198a890301818b01526153f9888684614fd6565b975060e08b0135848b0152868b01356101a08b0152615419868c01613d6b565b15156101c08b0152918a01356101e08a015250979097013561020090960195909552509098975050505050505050565b60006101006154588386614dff565b60e08301819052835183820182905280516001600160a01b0316610200850152602081015161548b6102208601826137e9565b50604081015161549f6102408601826137e9565b5060608101516154b36102608601826137e9565b5060808101516154c76102808601826137e9565b5060a08101516154db6102a08601826137e9565b5060c0810151826102c08601526154f6610300860182614482565b92505060e081015190506101ff19848303016102e08501526155188282614482565b915050602084015161552e610120850182614816565b506040840151805115156101e0850152614f7e565b6020808252601790820152765245454e5452414e43595f47554152445f53544154555360481b604082015260600190565b60006020828403121561558657600080fd5b81516128a981613d5d565b6001600160a01b038316815260406020820181905260009061293b908301846144ea565b808202811582820484141761140e5761140e6149bb565b8082018082111561140e5761140e6149bb565b8181038181111561140e5761140e6149bb565b838152826020820152606060408201526000614de360608301846144ea565b6001600160a01b038681168252851660208201526040810184905260a060608201819052600090615644908301856144ea565b828103608084015261565681856144ea565b98975050505050505050565b60006020828403121561567457600080fd5b81516001600160401b0381111561568a57600080fd5b8201601f8101841361569b57600080fd5b80516156a9613b688261431d565b8181528560208385010111156156be57600080fd5b614de38260208301602086016144c656fea2646970667358221220e7f258da40fb83d9d11c44854cf73ca293e7eee9694ea5484ddb858c8dc0567664736f6c63430008120033",
  "linkReferences": {
    "contracts/glv/GlvUtils.sol": {
      "GlvUtils": [
        {
          "length": 20,
          "start": 3371
        },
        {
          "length": 20,
          "start": 6089
        },
        {
          "length": 20,
          "start": 6591
        },
        {
          "length": 20,
          "start": 7599
        }
      ]
    },
    "contracts/glv/glvDeposit/GlvDepositStoreUtils.sol": {
      "GlvDepositStoreUtils": [
        {
          "length": 20,
          "start": 4350
        },
        {
          "length": 20,
          "start": 6474
        },
        {
          "length": 20,
          "start": 8690
        }
      ]
    },
    "contracts/glv/glvDeposit/GlvDepositUtils.sol": {
      "GlvDepositUtils": [
        {
          "length": 20,
          "start": 5555
        },
        {
          "length": 20,
          "start": 5758
        },
        {
          "length": 20,
          "start": 9131
        },
        {
          "length": 20,
          "start": 13078
        }
      ]
    },
    "contracts/glv/glvShift/GlvShiftStoreUtils.sol": {
      "GlvShiftStoreUtils": [
        {
          "length": 20,
          "start": 7928
        }
      ]
    },
    "contracts/glv/glvShift/GlvShiftUtils.sol": {
      "GlvShiftUtils": [
        {
          "length": 20,
          "start": 2518
        },
        {
          "length": 20,
          "start": 2926
        },
        {
          "length": 20,
          "start": 13335
        }
      ]
    },
    "contracts/glv/glvWithdrawal/GlvWithdrawalStoreUtils.sol": {
      "GlvWithdrawalStoreUtils": [
        {
          "length": 20,
          "start": 3254
        },
        {
          "length": 20,
          "start": 4714
        },
        {
          "length": 20,
          "start": 7373
        }
      ]
    },
    "contracts/glv/glvWithdrawal/GlvWithdrawalUtils.sol": {
      "GlvWithdrawalUtils": [
        {
          "length": 20,
          "start": 5159
        },
        {
          "length": 20,
          "start": 8407
        },
        {
          "length": 20,
          "start": 9464
        },
        {
          "length": 20,
          "start": 11671
        }
      ]
    }
  },
  "deployedLinkReferences": {
    "contracts/glv/GlvUtils.sol": {
      "GlvUtils": [
        {
          "length": 20,
          "start": 2528
        },
        {
          "length": 20,
          "start": 5246
        },
        {
          "length": 20,
          "start": 5748
        },
        {
          "length": 20,
          "start": 6756
        }
      ]
    },
    "contracts/glv/glvDeposit/GlvDepositStoreUtils.sol": {
      "GlvDepositStoreUtils": [
        {
          "length": 20,
          "start": 3507
        },
        {
          "length": 20,
          "start": 5631
        },
        {
          "length": 20,
          "start": 7847
        }
      ]
    },
    "contracts/glv/glvDeposit/GlvDepositUtils.sol": {
      "GlvDepositUtils": [
        {
          "length": 20,
          "start": 4712
        },
        {
          "length": 20,
          "start": 4915
        },
        {
          "length": 20,
          "start": 8288
        },
        {
          "length": 20,
          "start": 12235
        }
      ]
    },
    "contracts/glv/glvShift/GlvShiftStoreUtils.sol": {
      "GlvShiftStoreUtils": [
        {
          "length": 20,
          "start": 7085
        }
      ]
    },
    "contracts/glv/glvShift/GlvShiftUtils.sol": {
      "GlvShiftUtils": [
        {
          "length": 20,
          "start": 1675
        },
        {
          "length": 20,
          "start": 2083
        },
        {
          "length": 20,
          "start": 12492
        }
      ]
    },
    "contracts/glv/glvWithdrawal/GlvWithdrawalStoreUtils.sol": {
      "GlvWithdrawalStoreUtils": [
        {
          "length": 20,
          "start": 2411
        },
        {
          "length": 20,
          "start": 3871
        },
        {
          "length": 20,
          "start": 6530
        }
      ]
    },
    "contracts/glv/glvWithdrawal/GlvWithdrawalUtils.sol": {
      "GlvWithdrawalUtils": [
        {
          "length": 20,
          "start": 4316
        },
        {
          "length": 20,
          "start": 7564
        },
        {
          "length": 20,
          "start": 8621
        },
        {
          "length": 20,
          "start": 10828
        }
      ]
    }
  }
}