{
  "_format": "hh-sol-artifact-1",
  "contractName": "GlvRouter",
  "sourceName": "contracts/router/GlvRouter.sol",
  "abi": [
    {
      "inputs": [
        {
          "internalType": "contract Router",
          "name": "_router",
          "type": "address"
        },
        {
          "internalType": "contract RoleStore",
          "name": "_roleStore",
          "type": "address"
        },
        {
          "internalType": "contract DataStore",
          "name": "_dataStore",
          "type": "address"
        },
        {
          "internalType": "contract EventEmitter",
          "name": "_eventEmitter",
          "type": "address"
        },
        {
          "internalType": "contract IGlvHandler",
          "name": "_glvHandler",
          "type": "address"
        },
        {
          "internalType": "contract IExternalHandler",
          "name": "_externalHandler",
          "type": "address"
        }
      ],
      "stateMutability": "nonpayable",
      "type": "constructor"
    },
    {
      "inputs": [],
      "name": "EmptyGlvDeposit",
      "type": "error"
    },
    {
      "inputs": [],
      "name": "EmptyGlvWithdrawal",
      "type": "error"
    },
    {
      "inputs": [],
      "name": "EmptyHoldingAddress",
      "type": "error"
    },
    {
      "inputs": [],
      "name": "EmptyReceiver",
      "type": "error"
    },
    {
      "inputs": [
        {
          "internalType": "address",
          "name": "token",
          "type": "address"
        }
      ],
      "name": "EmptyTokenTranferGasLimit",
      "type": "error"
    },
    {
      "inputs": [
        {
          "internalType": "address",
          "name": "msgSender",
          "type": "address"
        }
      ],
      "name": "InvalidNativeTokenSender",
      "type": "error"
    },
    {
      "inputs": [
        {
          "internalType": "address",
          "name": "token",
          "type": "address"
        },
        {
          "internalType": "address",
          "name": "receiver",
          "type": "address"
        },
        {
          "internalType": "uint256",
          "name": "amount",
          "type": "uint256"
        }
      ],
      "name": "TokenTransferError",
      "type": "error"
    },
    {
      "inputs": [
        {
          "internalType": "address",
          "name": "msgSender",
          "type": "address"
        },
        {
          "internalType": "string",
          "name": "role",
          "type": "string"
        }
      ],
      "name": "Unauthorized",
      "type": "error"
    },
    {
      "inputs": [
        {
          "internalType": "bytes32",
          "name": "key",
          "type": "bytes32"
        }
      ],
      "name": "cancelGlvDeposit",
      "outputs": [],
      "stateMutability": "nonpayable",
      "type": "function"
    },
    {
      "inputs": [
        {
          "internalType": "bytes32",
          "name": "key",
          "type": "bytes32"
        }
      ],
      "name": "cancelGlvWithdrawal",
      "outputs": [],
      "stateMutability": "nonpayable",
      "type": "function"
    },
    {
      "inputs": [
        {
          "components": [
            {
              "internalType": "address",
              "name": "glv",
              "type": "address"
            },
            {
              "internalType": "address",
              "name": "market",
              "type": "address"
            },
            {
              "internalType": "address",
              "name": "receiver",
              "type": "address"
            },
            {
              "internalType": "address",
              "name": "callbackContract",
              "type": "address"
            },
            {
              "internalType": "address",
              "name": "uiFeeReceiver",
              "type": "address"
            },
            {
              "internalType": "address",
              "name": "initialLongToken",
              "type": "address"
            },
            {
              "internalType": "address",
              "name": "initialShortToken",
              "type": "address"
            },
            {
              "internalType": "address[]",
              "name": "longTokenSwapPath",
              "type": "address[]"
            },
            {
              "internalType": "address[]",
              "name": "shortTokenSwapPath",
              "type": "address[]"
            },
            {
              "internalType": "uint256",
              "name": "minGlvTokens",
              "type": "uint256"
            },
            {
              "internalType": "uint256",
              "name": "executionFee",
              "type": "uint256"
            },
            {
              "internalType": "uint256",
              "name": "callbackGasLimit",
              "type": "uint256"
            },
            {
              "internalType": "bool",
              "name": "shouldUnwrapNativeToken",
              "type": "bool"
            },
            {
              "internalType": "bool",
              "name": "isMarketTokenDeposit",
              "type": "bool"
            }
          ],
          "internalType": "struct GlvDepositUtils.CreateGlvDepositParams",
          "name": "params",
          "type": "tuple"
        }
      ],
      "name": "createGlvDeposit",
      "outputs": [
        {
          "internalType": "bytes32",
          "name": "",
          "type": "bytes32"
        }
      ],
      "stateMutability": "payable",
      "type": "function"
    },
    {
      "inputs": [
        {
          "components": [
            {
              "internalType": "address",
              "name": "receiver",
              "type": "address"
            },
            {
              "internalType": "address",
              "name": "callbackContract",
              "type": "address"
            },
            {
              "internalType": "address",
              "name": "uiFeeReceiver",
              "type": "address"
            },
            {
              "internalType": "address",
              "name": "market",
              "type": "address"
            },
            {
              "internalType": "address",
              "name": "glv",
              "type": "address"
            },
            {
              "internalType": "address[]",
              "name": "longTokenSwapPath",
              "type": "address[]"
            },
            {
              "internalType": "address[]",
              "name": "shortTokenSwapPath",
              "type": "address[]"
            },
            {
              "internalType": "uint256",
              "name": "minLongTokenAmount",
              "type": "uint256"
            },
            {
              "internalType": "uint256",
              "name": "minShortTokenAmount",
              "type": "uint256"
            },
            {
              "internalType": "bool",
              "name": "shouldUnwrapNativeToken",
              "type": "bool"
            },
            {
              "internalType": "uint256",
              "name": "executionFee",
              "type": "uint256"
            },
            {
              "internalType": "uint256",
              "name": "callbackGasLimit",
              "type": "uint256"
            }
          ],
          "internalType": "struct GlvWithdrawalUtils.CreateGlvWithdrawalParams",
          "name": "params",
          "type": "tuple"
        }
      ],
      "name": "createGlvWithdrawal",
      "outputs": [
        {
          "internalType": "bytes32",
          "name": "",
          "type": "bytes32"
        }
      ],
      "stateMutability": "payable",
      "type": "function"
    },
    {
      "inputs": [],
      "name": "dataStore",
      "outputs": [
        {
          "internalType": "contract DataStore",
          "name": "",
          "type": "address"
        }
      ],
      "stateMutability": "view",
      "type": "function"
    },
    {
      "inputs": [],
      "name": "eventEmitter",
      "outputs": [
        {
          "internalType": "contract EventEmitter",
          "name": "",
          "type": "address"
        }
      ],
      "stateMutability": "view",
      "type": "function"
    },
    {
      "inputs": [],
      "name": "externalHandler",
      "outputs": [
        {
          "internalType": "contract IExternalHandler",
          "name": "",
          "type": "address"
        }
      ],
      "stateMutability": "view",
      "type": "function"
    },
    {
      "inputs": [],
      "name": "glvHandler",
      "outputs": [
        {
          "internalType": "contract IGlvHandler",
          "name": "",
          "type": "address"
        }
      ],
      "stateMutability": "view",
      "type": "function"
    },
    {
      "inputs": [
        {
          "internalType": "address[]",
          "name": "externalCallTargets",
          "type": "address[]"
        },
        {
          "internalType": "bytes[]",
          "name": "externalCallDataList",
          "type": "bytes[]"
        },
        {
          "internalType": "address[]",
          "name": "refundTokens",
          "type": "address[]"
        },
        {
          "internalType": "address[]",
          "name": "refundReceivers",
          "type": "address[]"
        }
      ],
      "name": "makeExternalCalls",
      "outputs": [],
      "stateMutability": "nonpayable",
      "type": "function"
    },
    {
      "inputs": [
        {
          "internalType": "bytes[]",
          "name": "data",
          "type": "bytes[]"
        }
      ],
      "name": "multicall",
      "outputs": [
        {
          "internalType": "bytes[]",
          "name": "results",
          "type": "bytes[]"
        }
      ],
      "stateMutability": "payable",
      "type": "function"
    },
    {
      "inputs": [],
      "name": "roleStore",
      "outputs": [
        {
          "internalType": "contract RoleStore",
          "name": "",
          "type": "address"
        }
      ],
      "stateMutability": "view",
      "type": "function"
    },
    {
      "inputs": [],
      "name": "router",
      "outputs": [
        {
          "internalType": "contract Router",
          "name": "",
          "type": "address"
        }
      ],
      "stateMutability": "view",
      "type": "function"
    },
    {
      "inputs": [
        {
          "internalType": "address",
          "name": "receiver",
          "type": "address"
        },
        {
          "internalType": "uint256",
          "name": "amount",
          "type": "uint256"
        }
      ],
      "name": "sendNativeToken",
      "outputs": [],
      "stateMutability": "payable",
      "type": "function"
    },
    {
      "inputs": [
        {
          "internalType": "address",
          "name": "token",
          "type": "address"
        },
        {
          "internalType": "address",
          "name": "receiver",
          "type": "address"
        },
        {
          "internalType": "uint256",
          "name": "amount",
          "type": "uint256"
        }
      ],
      "name": "sendTokens",
      "outputs": [],
      "stateMutability": "payable",
      "type": "function"
    },
    {
      "inputs": [
        {
          "internalType": "address",
          "name": "receiver",
          "type": "address"
        },
        {
          "internalType": "uint256",
          "name": "amount",
          "type": "uint256"
        }
      ],
      "name": "sendWnt",
      "outputs": [],
      "stateMutability": "payable",
      "type": "function"
    },
    {
      "inputs": [
        {
          "internalType": "bytes32",
          "name": "key",
          "type": "bytes32"
        },
        {
          "components": [
            {
              "internalType": "address[]",
              "name": "primaryTokens",
              "type": "address[]"
            },
            {
              "components": [
                {
                  "internalType": "uint256",
                  "name": "min",
                  "type": "uint256"
                },
                {
                  "internalType": "uint256",
                  "name": "max",
                  "type": "uint256"
                }
              ],
              "internalType": "struct Price.Props[]",
              "name": "primaryPrices",
              "type": "tuple[]"
            },
            {
              "internalType": "uint256",
              "name": "minTimestamp",
              "type": "uint256"
            },
            {
              "internalType": "uint256",
              "name": "maxTimestamp",
              "type": "uint256"
            }
          ],
          "internalType": "struct OracleUtils.SimulatePricesParams",
          "name": "simulatedOracleParams",
          "type": "tuple"
        }
      ],
      "name": "simulateExecuteGlvDeposit",
      "outputs": [],
      "stateMutability": "payable",
      "type": "function"
    },
    {
      "inputs": [
        {
          "internalType": "bytes32",
          "name": "key",
          "type": "bytes32"
        },
        {
          "components": [
            {
              "internalType": "address[]",
              "name": "primaryTokens",
              "type": "address[]"
            },
            {
              "components": [
                {
                  "internalType": "uint256",
                  "name": "min",
                  "type": "uint256"
                },
                {
                  "internalType": "uint256",
                  "name": "max",
                  "type": "uint256"
                }
              ],
              "internalType": "struct Price.Props[]",
              "name": "primaryPrices",
              "type": "tuple[]"
            },
            {
              "internalType": "uint256",
              "name": "minTimestamp",
              "type": "uint256"
            },
            {
              "internalType": "uint256",
              "name": "maxTimestamp",
              "type": "uint256"
            }
          ],
          "internalType": "struct OracleUtils.SimulatePricesParams",
          "name": "simulatedOracleParams",
          "type": "tuple"
        }
      ],
      "name": "simulateExecuteGlvWithdrawal",
      "outputs": [],
      "stateMutability": "payable",
      "type": "function"
    },
    {
      "inputs": [
        {
          "components": [
            {
              "internalType": "address[]",
              "name": "primaryTokens",
              "type": "address[]"
            },
            {
              "components": [
                {
                  "internalType": "uint256",
                  "name": "min",
                  "type": "uint256"
                },
                {
                  "internalType": "uint256",
                  "name": "max",
                  "type": "uint256"
                }
              ],
              "internalType": "struct Price.Props[]",
              "name": "primaryPrices",
              "type": "tuple[]"
            },
            {
              "internalType": "uint256",
              "name": "minTimestamp",
              "type": "uint256"
            },
            {
              "internalType": "uint256",
              "name": "maxTimestamp",
              "type": "uint256"
            }
          ],
          "internalType": "struct OracleUtils.SimulatePricesParams",
          "name": "simulatedOracleParams",
          "type": "tuple"
        }
      ],
      "name": "simulateExecuteLatestGlvDeposit",
      "outputs": [],
      "stateMutability": "payable",
      "type": "function"
    },
    {
      "inputs": [
        {
          "components": [
            {
              "internalType": "address[]",
              "name": "primaryTokens",
              "type": "address[]"
            },
            {
              "components": [
                {
                  "internalType": "uint256",
                  "name": "min",
                  "type": "uint256"
                },
                {
                  "internalType": "uint256",
                  "name": "max",
                  "type": "uint256"
                }
              ],
              "internalType": "struct Price.Props[]",
              "name": "primaryPrices",
              "type": "tuple[]"
            },
            {
              "internalType": "uint256",
              "name": "minTimestamp",
              "type": "uint256"
            },
            {
              "internalType": "uint256",
              "name": "maxTimestamp",
              "type": "uint256"
            }
          ],
          "internalType": "struct OracleUtils.SimulatePricesParams",
          "name": "simulatedOracleParams",
          "type": "tuple"
        }
      ],
      "name": "simulateExecuteLatestGlvWithdrawal",
      "outputs": [],
      "stateMutability": "payable",
      "type": "function"
    },
    {
      "stateMutability": "payable",
      "type": "receive"
    }
  ],
  "bytecode": "0x6101406040523480156200001257600080fd5b5060405162002a1b38038062002a1b833981016040819052620000359162000083565b60016000556001600160a01b0394851660805294841660a05291831660c052821660e052811661010052166101205262000117565b6001600160a01b03811681146200008057600080fd5b50565b60008060008060008060c087890312156200009d57600080fd5b8651620000aa816200006a565b6020880151909650620000bd816200006a565b6040880151909550620000d0816200006a565b6060880151909450620000e3816200006a565b6080880151909350620000f6816200006a565b60a088015190925062000109816200006a565b809150509295509295509295565b60805160a05160c05160e051610100516101205161283e620001dd600039600081816101d30152610ac001526000818161036f015281816104aa0152818161068301528181610719015281816107f10152818161088c01528181610a6a01528181610c9e0152610dae015260006102b501526000818160f40152818161026e0152818161055b015281816107b40152818161083e015281816108d901528181610a2c0152610b770152600081816103a30152610d1d01526000610214015261283e6000f3fe6080604052600436106100e85760003560e01c80630db48e41146101555780630e229c351461016857806329bb5970146101885780632a4a6add146101ae5780632e944bd6146101c15780634a4a7b041461020257806353ead2d3146102365780636049a10014610249578063660d0d671461025c5780637d39aaf1146102905780639ff78c30146102a3578063ac9650d8146102d7578063cf8a4857146102f7578063d59922b01461030a578063d95c9e291461032a578063e6d66ac81461034a578063f1722c481461035d578063f887ea4014610391578063f93f1093146103c557600080fd5b366101505760006101187f00000000000000000000000000000000000000000000000000000000000000006103d8565b9050336001600160a01b0382161461014e573360405163738d28df60e11b81526004016101459190611611565b60405180910390fd5b005b600080fd5b61014e6101633660046118d1565b61048b565b34801561017457600080fd5b5061014e610183366004611917565b610521565b61019b610196366004611930565b6106f6565b6040519081526020015b60405180910390f35b61014e6101bc366004611972565b6107a5565b3480156101cd57600080fd5b506101f57f000000000000000000000000000000000000000000000000000000000000000081565b6040516101a59190611611565b34801561020e57600080fd5b506101f57f000000000000000000000000000000000000000000000000000000000000000081565b61014e6102443660046119a6565b610828565b61014e6102573660046118d1565b61086e565b34801561026857600080fd5b506101f57f000000000000000000000000000000000000000000000000000000000000000081565b61014e61029e3660046119a6565b6108c3565b3480156102af57600080fd5b506101f57f000000000000000000000000000000000000000000000000000000000000000081565b6102ea6102e53660046119d2565b6108ff565b6040516101a59190611aee565b61014e610305366004611972565b610a1d565b34801561031657600080fd5b5061014e610325366004611b28565b610aa1565b34801561033657600080fd5b5061014e610345366004611917565b610b3d565b61014e610358366004611c7f565b610cd5565b34801561036957600080fd5b506101f57f000000000000000000000000000000000000000000000000000000000000000081565b34801561039d57600080fd5b506101f57f000000000000000000000000000000000000000000000000000000000000000081565b61019b6103d3366004611cc0565b610d8b565b6000816001600160a01b03166321f8a7216040516020016104109060208082526003908201526215d39560ea1b604082015260600190565b604051602081830303815290604052805190602001206040518263ffffffff1660e01b815260040161044491815260200190565b602060405180830381865afa158015610461573d6000803e3d6000fd5b505050506040513d601f19601f820116820180604052508101906104859190611d06565b92915050565b610493610de5565b604051630db48e4160e01b81526001600160a01b037f00000000000000000000000000000000000000000000000000000000000000001690630db48e41906104e19085908590600401611d67565b600060405180830381600087803b1580156104fb57600080fd5b505af115801561050f573d6000803e3d6000fd5b5050505061051d6001600055565b5050565b610529610de5565b60405163fdfc26f360e01b815260009073__$275108e79aa89bc0be7b6a95f0c90e4c42$__9063fdfc26f390610585907f0000000000000000000000000000000000000000000000000000000000000000908690600401611df6565b600060405180830381865af41580156105a2573d6000803e3d6000fd5b505050506040513d6000823e601f3d908101601f191682016040526105ca9190810190611f49565b905060006105da82516040015190565b6001600160a01b03160361060157604051630e5be78f60e01b815260040160405180910390fd5b3361060e82516040015190565b6001600160a01b03161461066d576040805163a35b150b60e01b81523360048201526024810191909152601f60448201527f6163636f756e7420666f722063616e63656c476c765769746864726177616c006064820152608401610145565b604051630e229c3560e01b8152600481018390527f00000000000000000000000000000000000000000000000000000000000000006001600160a01b031690630e229c35906024015b600060405180830381600087803b1580156106d057600080fd5b505af11580156106e4573d6000803e3d6000fd5b50505050506106f36001600055565b50565b6000610700610de5565b6040516314bc1c1d60e11b815233906001600160a01b037f00000000000000000000000000000000000000000000000000000000000000001690632978383a90610750908490879060040161212d565b6020604051808303816000875af115801561076f573d6000803e3d6000fd5b505050506040513d601f19601f8201168201806040525081019061079391906122ae565b9150506107a06001600055565b919050565b6107ad610de5565b60006107d87f0000000000000000000000000000000000000000000000000000000000000000610e3e565b604051626049a160e81b81529091506001600160a01b037f00000000000000000000000000000000000000000000000000000000000000001690636049a100906106b69084908690600401611d67565b610830610de5565b61083982610e60565b6108647f00000000000000000000000000000000000000000000000000000000000000008383610e87565b61051d6001600055565b610876610de5565b604051626049a160e81b81526001600160a01b037f00000000000000000000000000000000000000000000000000000000000000001690636049a100906104e19085908590600401611d67565b6108cb610de5565b6108d482610e60565b6108647f00000000000000000000000000000000000000000000000000000000000000008383610f93565b6060816001600160401b0381111561091957610919611625565b60405190808252806020026020018201604052801561094c57816020015b60608152602001906001900390816109375790505b50905060005b82811015610a165760008030868685818110610970576109706122c7565b905060200281019061098291906122dd565b604051610990929190612323565b600060405180830381855af49150503d80600081146109cb576040519150601f19603f3d011682016040523d82523d6000602084013e6109d0565b606091505b5091509150816109e3576109e381611016565b808484815181106109f6576109f66122c7565b602002602001018190525050508080610a0e90612333565b915050610952565b5092915050565b610a25610de5565b6000610a507f0000000000000000000000000000000000000000000000000000000000000000610e3e565b604051630db48e4160e01b81529091506001600160a01b037f00000000000000000000000000000000000000000000000000000000000000001690630db48e41906106b69084908690600401611d67565b610aa9610de5565b604051630d59922b60e41b81526001600160a01b037f0000000000000000000000000000000000000000000000000000000000000000169063d59922b090610afb90879087908790879060040161235a565b600060405180830381600087803b158015610b1557600080fd5b505af1158015610b29573d6000803e3d6000fd5b50505050610b376001600055565b50505050565b610b45610de5565b60405163fdfc26f360e01b815260009073__$0b06d8034ddfec34cf23b0ef7b59522d69$__9063fdfc26f390610ba1907f0000000000000000000000000000000000000000000000000000000000000000908690600401611df6565b600060405180830381865af4158015610bbe573d6000803e3d6000fd5b505050506040513d6000823e601f3d908101601f19168201604052610be69190810190612477565b90506000610bf682516020015190565b6001600160a01b031603610c1d5760405163bd19297160e01b815260040160405180910390fd5b33610c2a82516020015190565b6001600160a01b031614610c88576040805163a35b150b60e01b81523360048201526024810191909152601c60448201527b1858d8dbdd5b9d08199bdc8818d85b98d95b11db1d91195c1bdcda5d60221b6064820152608401610145565b60405163d95c9e2960e01b8152600481018390527f00000000000000000000000000000000000000000000000000000000000000006001600160a01b03169063d95c9e29906024016106b6565b610cdd610de5565b610ce682610e60565b6040516303704f0f60e31b81526001600160a01b0384811660048301523360248301819052848216604484015260648301849052917f000000000000000000000000000000000000000000000000000000000000000090911690631b82787890608401600060405180830381600087803b158015610d6357600080fd5b505af1158015610d77573d6000803e3d6000fd5b5050505050610d866001600055565b505050565b6000610d95610de5565b604051633648556960e21b815233906001600160a01b037f0000000000000000000000000000000000000000000000000000000000000000169063d92155a49061075090849087906004016125e9565b600260005403610e375760405162461bcd60e51b815260206004820152601f60248201527f5265656e7472616e637947756172643a207265656e7472616e742063616c6c006044820152606401610145565b6002600055565b600080610e4a8361104f565b90506000610e5884836110fe565b949350505050565b6001600160a01b0381166106f35760405163d551823d60e01b815260040160405180910390fd5b80600003610e9457505050565b610e9d82610e60565b6000836001600160a01b031663bd02d0f5604051602001610eef906020808252601f908201527f4e41544956455f544f4b454e5f5452414e534645525f4741535f4c494d495400604082015260600190565b604051602081830303815290604052805190602001206040518263ffffffff1660e01b8152600401610f2391815260200190565b602060405180830381865afa158015610f40573d6000803e3d6000fd5b505050506040513d601f19601f82011682018060405250810190610f6491906122ae565b90506000806000806000868887f190508015610f81575050505050565b610f8c858585610f93565b5050505050565b80600003610fa057505050565b610fa982610e60565b6000610fb4846103d8565b9050806001600160a01b031663d0e30db0836040518263ffffffff1660e01b81526004016000604051808303818588803b158015610ff157600080fd5b505af1158015611005573d6000803e3d6000fd5b5050505050610b3784828585611131565b6000806110228361137b565b915091508015611046578160405162461bcd60e51b81526004016101459190612721565b610d868361140b565b6000816001600160a01b031663bd02d0f5604051602001611089906020808252600590820152644e4f4e434560d81b604082015260600190565b604051602081830303815290604052805190602001206040518263ffffffff1660e01b81526004016110bd91815260200190565b602060405180830381865afa1580156110da573d6000803e3d6000fd5b505050506040513d601f19601f8201168201806040525081019061048591906122ae565b60008282604051602001611113929190611df6565b60405160208183030381529060405280519060200120905092915050565b8015610b375761114082610e60565b6000846001600160a01b031663bd02d0f561115a86611414565b6040518263ffffffff1660e01b815260040161117891815260200190565b602060405180830381865afa158015611195573d6000803e3d6000fd5b505050506040513d601f19601f820116820180604052508101906111b991906122ae565b9050806000036111de5783604051634fe14bfd60e11b81526004016101459190611611565b60006111ec8585858561149c565b50905080156111fc575050610b37565b6000866001600160a01b03166321f8a721604051602001611240906020808252600f908201526e484f4c44494e475f4144445245535360881b604082015260600190565b604051602081830303815290604052805190602001206040518263ffffffff1660e01b815260040161127491815260200190565b602060405180830381865afa158015611291573d6000803e3d6000fd5b505050506040513d601f19601f820116820180604052508101906112b59190611d06565b90506001600160a01b0381166112de57604051633a6de2f560e21b815260040160405180910390fd5b6000806112ed8884888861149c565b915091508115611301575050505050610b37565b600061130c8261137b565b5090507fc9f14d9a0a9b46470c7c0b6c508f8283abaab7f795f153953c58cd4250824dae8183604051611340929190612734565b60405180910390a160405163012f3b8f60e71b81526001600160a01b03808b1660048301528916602482015260448101889052606401610145565b606060006044835110156113a2575050604080516020810190915260008082529092909150565b60006113af846020015190565b90506307b9e43360e51b6001600160e01b03198216016113ee57600484019350838060200190518101906113e39190612762565b946001945092505050565b600060405180602001604052806000815250909250925050915091565b80518060208301fd5b6000604051602001611452906020808252601890820152771513d2d15397d514905394d1915497d1d054d7d31253525560421b604082015260600190565b60408051601f198184030181528282528051602091820120908301526001600160a01b03841690820152606001604051602081830303815290604052805190602001209050919050565b60006060600063a9059cbb60e01b86866040516024016114bd929190611df6565b604051602081830303815290604052906001600160e01b0319166020820180516001600160e01b0383818316178352505050509050600080886001600160a01b0316868460405161150e91906127cf565b60006040518083038160008787f1925050503d806000811461154c576040519150601f19603f3d011682016040523d82523d6000602084013e611551565b606091505b509150915081156115f25780516000036115af576001600160a01b0389163b6115af5760006040518060400160405280601481526020017310d85b1b081d1bc81b9bdb8b58dbdb9d1c9858dd60621b815250945094505050506115fb565b600081511180156115d15750808060200190518101906115cf91906127eb565b155b156115e4576000945092506115fb915050565b6001945092506115fb915050565b60009450925050505b94509492505050565b6001600160a01b03169052565b6001600160a01b0391909116815260200190565b634e487b7160e01b600052604160045260246000fd5b604051608081016001600160401b038111828210171561165d5761165d611625565b60405290565b604080519081016001600160401b038111828210171561165d5761165d611625565b604051606081016001600160401b038111828210171561165d5761165d611625565b60405161010081016001600160401b038111828210171561165d5761165d611625565b60405161014081016001600160401b038111828210171561165d5761165d611625565b604051601f8201601f191681016001600160401b038111828210171561171557611715611625565b604052919050565b60006001600160401b0382111561173657611736611625565b5060051b60200190565b6001600160a01b03811681146106f357600080fd5b80356107a081611740565b600082601f83011261177157600080fd5b813560206117866117818361171d565b6116ed565b82815260059290921b840181019181810190868411156117a557600080fd5b8286015b848110156117c95780356117bc81611740565b83529183019183016117a9565b509695505050505050565b6000608082840312156117e657600080fd5b6117ee61163b565b905081356001600160401b038082111561180757600080fd5b61181385838601611760565b835260209150818401358181111561182a57600080fd5b84019050601f8101851361183d57600080fd5b803561184b6117818261171d565b81815260069190911b8201830190838101908783111561186a57600080fd5b928401925b828410156118ad57604084890312156118885760008081fd5b611890611663565b84358152858501358682015282526040909301929084019061186f565b80858701525050505050604082013560408201526060820135606082015292915050565b600080604083850312156118e457600080fd5b8235915060208301356001600160401b0381111561190157600080fd5b61190d858286016117d4565b9150509250929050565b60006020828403121561192957600080fd5b5035919050565b60006020828403121561194257600080fd5b81356001600160401b0381111561195857600080fd5b82016101c0818503121561196b57600080fd5b9392505050565b60006020828403121561198457600080fd5b81356001600160401b0381111561199a57600080fd5b610e58848285016117d4565b600080604083850312156119b957600080fd5b82356119c481611740565b946020939093013593505050565b600080602083850312156119e557600080fd5b82356001600160401b03808211156119fc57600080fd5b818501915085601f830112611a1057600080fd5b813581811115611a1f57600080fd5b8660208260051b8501011115611a3457600080fd5b60209290920196919550909350505050565b60005b83811015611a61578181015183820152602001611a49565b50506000910152565b60008151808452611a82816020860160208601611a46565b601f01601f19169290920160200192915050565b600082825180855260208086019550808260051b84010181860160005b84811015611ae157601f19868403018952611acf838351611a6a565b98840198925090830190600101611ab3565b5090979650505050505050565b60208152600061196b6020830184611a96565b60006001600160401b03821115611b1a57611b1a611625565b50601f01601f191660200190565b60008060008060808587031215611b3e57600080fd5b84356001600160401b0380821115611b5557600080fd5b611b6188838901611760565b9550602091508187013581811115611b7857600080fd5b8701601f81018913611b8957600080fd5b8035611b976117818261171d565b81815260059190911b8201840190848101908b831115611bb657600080fd5b8584015b83811015611c2a57803586811115611bd157600080fd5b8501603f81018e13611be257600080fd5b87810135611bf261178182611b01565b8181528f6040838501011115611c085760008081fd5b81604084018b83013760009181018a0191909152845250918601918601611bba565b5097505050506040870135915080821115611c4457600080fd5b611c5088838901611760565b93506060870135915080821115611c6657600080fd5b50611c7387828801611760565b91505092959194509250565b600080600060608486031215611c9457600080fd5b8335611c9f81611740565b92506020840135611caf81611740565b929592945050506040919091013590565b600060208284031215611cd257600080fd5b81356001600160401b03811115611ce857600080fd5b8201610180818503121561196b57600080fd5b80516107a081611740565b600060208284031215611d1857600080fd5b815161196b81611740565b600081518084526020808501945080840160005b83811015611d5c5781516001600160a01b031687529582019590820190600101611d37565b509495945050505050565b60006040848352602081818501528451608083860152611d8a60c0860182611d23565b86830151868203603f19016060880152805180835290840192506000918401905b80831015611dd45783518051835285015185830152928401926001929092019190850190611dab565b5093870151608087015250505060609093015160a09092019190915250919050565b6001600160a01b03929092168252602082015260400190565b600082601f830112611e2057600080fd5b81516020611e306117818361171d565b82815260059290921b84018101918181019086841115611e4f57600080fd5b8286015b848110156117c9578051611e6681611740565b8352918301918301611e53565b600060c08284031215611e8557600080fd5b60405160c081016001600160401b0381118282101715611ea757611ea7611625565b8060405250809150825181526020830151602082015260408301516040820152606083015160608201526080830151608082015260a083015160a08201525092915050565b80151581146106f357600080fd5b600060208284031215611f0c57600080fd5b604051602081016001600160401b0381118282101715611f2e57611f2e611625565b80604052508091508251611f4181611eec565b905292915050565b600060208284031215611f5b57600080fd5b81516001600160401b0380821115611f7257600080fd5b8184019150610100808387031215611f8957600080fd5b611f91611685565b835183811115611fa057600080fd5b8401808803831315611fb157600080fd5b611fb96116a7565b9250611fc481611cfb565b8352611fd260208201611cfb565b6020840152611fe360408201611cfb565b6040840152611ff460608201611cfb565b606084015261200560808201611cfb565b608084015261201660a08201611cfb565b60a084015260c08101518481111561202d57600080fd5b61203989828401611e0f565b60c08501525060e08101518481111561205157600080fd5b61205d89828401611e0f565b60e085015250508181526120748760208601611e73565b60208201526120868760e08601611efa565b60408201529695505050505050565b6000808335601e198436030181126120ac57600080fd5b83016020810192503590506001600160401b038111156120cb57600080fd5b8060051b36038213156120dd57600080fd5b9250929050565b8183526000602080850194508260005b85811015611d5c57813561210781611740565b6001600160a01b0316875295820195908201906001016120f4565b80356107a081611eec565b6001600160a01b038316815260406020820181905261215690820161215184611755565b611604565b600061216460208401611755565b6121716060840182611604565b5061217e60408401611755565b61218b6080840182611604565b5061219860608401611755565b6121a560a0840182611604565b506121b260808401611755565b6121bf60c0840182611604565b506121cc60a08401611755565b6121d960e0840182611604565b506121e660c08401611755565b6101006121f581850183611604565b61220260e0860186612095565b92506101c0610120818188015261221e610200880186856120e4565b945061222c84890189612095565b94509250610140603f1988870301818901526122498686866120e4565b9550610160945081890135858901526101809350808901358489015250506101a0838801358188015261227d838901612122565b801515888401529350612291818901612122565b93505050506122a56101e085018215159052565b50949350505050565b6000602082840312156122c057600080fd5b5051919050565b634e487b7160e01b600052603260045260246000fd5b6000808335601e198436030181126122f457600080fd5b8301803591506001600160401b0382111561230e57600080fd5b6020019150368190038213156120dd57600080fd5b8183823760009101908152919050565b60006001820161235357634e487b7160e01b600052601160045260246000fd5b5060010190565b60808152600061236d6080830187611d23565b828103602084015261237f8187611a96565b905082810360408401526123938186611d23565b905082810360608401526123a78185611d23565b979650505050505050565b600060e082840312156123c457600080fd5b60405160e081016001600160401b03811182821017156123e6576123e6611625565b8060405250809150825181526020830151602082015260408301516040820152606083015160608201526080830151608082015260a083015160a082015260c083015160c08201525092915050565b60006040828403121561244757600080fd5b61244f611663565b9050815161245c81611eec565b8152602082015161246c81611eec565b602082015292915050565b60006020828403121561248957600080fd5b81516001600160401b03808211156124a057600080fd5b81840191506101408083870312156124b757600080fd5b6124bf611685565b8351838111156124ce57600080fd5b84018088038313156124df57600080fd5b6124e76116ca565b92506124f281611cfb565b835261250060208201611cfb565b602084015261251160408201611cfb565b604084015261252260608201611cfb565b606084015261253360808201611cfb565b608084015261254460a08201611cfb565b60a084015261255560c08201611cfb565b60c084015261256660e08201611cfb565b60e0840152610100808201518581111561257f57600080fd5b61258b8a828501611e0f565b828601525061012080830151868111156125a457600080fd5b6125b08b828601611e0f565b8287015250508383526125c689602088016123b2565b60208401526125d789828801612435565b60408401525090979650505050505050565b6001600160a01b038316815260406020820181905261260d90820161215184611755565b600061261b60208401611755565b6126286060840182611604565b5061263560408401611755565b6126426080840182611604565b5061264f60608401611755565b61265c60a0840182611604565b5061266960808401611755565b61267660c0840182611604565b5061268460a0840184612095565b6101808060e086015261269c6101c0860183856120e4565b92506126ab60c0870187612095565b9250610100603f1987860301818801526126c68585846120e4565b9450610120935060e08801358488015261014091508088013582880152506126ef838801612122565b92506101606127018188018515159052565b9087013591860191909152909401356101a0909301929092525092915050565b60208152600061196b6020830184611a6a565b6040815260006127476040830185611a6a565b82810360208401526127598185611a6a565b95945050505050565b60006020828403121561277457600080fd5b81516001600160401b0381111561278a57600080fd5b8201601f8101841361279b57600080fd5b80516127a961178182611b01565b8181528560208385010111156127be57600080fd5b612759826020830160208601611a46565b600082516127e1818460208701611a46565b9190910192915050565b6000602082840312156127fd57600080fd5b815161196b81611eec56fea26469706673582212204b9ec03b4d50af2cf6b769183429c324d5fb02312239b9cd9c067eae5bc2906a64736f6c63430008120033",
  "linkReferences": {
    "contracts/glv/glvDeposit/GlvDepositStoreUtils.sol": {
      "GlvDepositStoreUtils": [
        {
          "length": 20,
          "start": 3380
        }
      ]
    },
    "contracts/glv/glvWithdrawal/GlvWithdrawalStoreUtils.sol": {
      "GlvWithdrawalStoreUtils": [
        {
          "length": 20,
          "start": 1816
        }
      ]
    }
  },
  "deployedLinkReferences": {
    "contracts/glv/glvDeposit/GlvDepositStoreUtils.sol": {
      "GlvDepositStoreUtils": [
        {
          "length": 20,
          "start": 2903
        }
      ]
    },
    "contracts/glv/glvWithdrawal/GlvWithdrawalStoreUtils.sol": {
      "GlvWithdrawalStoreUtils": [
        {
          "length": 20,
          "start": 1339
        }
      ]
    }
  }
}