{
  "_format": "hh-sol-artifact-1",
  "contractName": "GlvShiftStoreUtilsTest",
  "sourceName": "contracts/test/GlvShiftStoreUtilsTest.sol",
  "abi": [
    {
      "inputs": [],
      "name": "getEmptyGlvShift",
      "outputs": [
        {
          "components": [
            {
              "components": [
                {
                  "internalType": "address",
                  "name": "glv",
                  "type": "address"
                },
                {
                  "internalType": "address",
                  "name": "fromMarket",
                  "type": "address"
                },
                {
                  "internalType": "address",
                  "name": "toMarket",
                  "type": "address"
                }
              ],
              "internalType": "struct GlvShift.Addresses",
              "name": "addresses",
              "type": "tuple"
            },
            {
              "components": [
                {
                  "internalType": "uint256",
                  "name": "marketTokenAmount",
                  "type": "uint256"
                },
                {
                  "internalType": "uint256",
                  "name": "minMarketTokens",
                  "type": "uint256"
                },
                {
                  "internalType": "uint256",
                  "name": "updatedAtTime",
                  "type": "uint256"
                }
              ],
              "internalType": "struct GlvShift.Numbers",
              "name": "numbers",
              "type": "tuple"
            }
          ],
          "internalType": "struct GlvShift.Props",
          "name": "",
          "type": "tuple"
        }
      ],
      "stateMutability": "pure",
      "type": "function"
    },
    {
      "inputs": [
        {
          "internalType": "contract DataStore",
          "name": "dataStore",
          "type": "address"
        },
        {
          "internalType": "bytes32",
          "name": "key",
          "type": "bytes32"
        }
      ],
      "name": "removeGlvShift",
      "outputs": [],
      "stateMutability": "nonpayable",
      "type": "function"
    },
    {
      "inputs": [
        {
          "internalType": "contract DataStore",
          "name": "dataStore",
          "type": "address"
        },
        {
          "internalType": "bytes32",
          "name": "key",
          "type": "bytes32"
        },
        {
          "components": [
            {
              "components": [
                {
                  "internalType": "address",
                  "name": "glv",
                  "type": "address"
                },
                {
                  "internalType": "address",
                  "name": "fromMarket",
                  "type": "address"
                },
                {
                  "internalType": "address",
                  "name": "toMarket",
                  "type": "address"
                }
              ],
              "internalType": "struct GlvShift.Addresses",
              "name": "addresses",
              "type": "tuple"
            },
            {
              "components": [
                {
                  "internalType": "uint256",
                  "name": "marketTokenAmount",
                  "type": "uint256"
                },
                {
                  "internalType": "uint256",
                  "name": "minMarketTokens",
                  "type": "uint256"
                },
                {
                  "internalType": "uint256",
                  "name": "updatedAtTime",
                  "type": "uint256"
                }
              ],
              "internalType": "struct GlvShift.Numbers",
              "name": "numbers",
              "type": "tuple"
            }
          ],
          "internalType": "struct GlvShift.Props",
          "name": "glvShift",
          "type": "tuple"
        }
      ],
      "name": "setGlvShift",
      "outputs": [],
      "stateMutability": "nonpayable",
      "type": "function"
    }
  ],
  "bytecode": "0x608060405234801561001057600080fd5b5061044a806100206000396000f3fe608060405234801561001057600080fd5b50600436106100415760003560e01c806359c3a9f814610046578063be7d2a2b1461005b578063bebca79614610079575b600080fd5b6100596100543660046101f1565b61008c565b005b610063610102565b604051610070919061025d565b60405180910390f35b6100596100873660046102ef565b610117565b6040516335545ec560e21b81526001600160a01b03831660048201526024810182905273__$07591b4a48e7f184f964d42e66c465aad6$__9063d5517b149060440160006040518083038186803b1580156100e657600080fd5b505af41580156100fa573d6000803e3d6000fd5b505050505050565b61010a610187565b610112610187565b919050565b60405163b56fb88960e01b815273__$07591b4a48e7f184f964d42e66c465aad6$__9063b56fb88990610152908690869086906004016103d0565b60006040518083038186803b15801561016a57600080fd5b505af415801561017e573d6000803e3d6000fd5b50505050505050565b6040805160a081018252600091810182815260608201839052608082019290925290819081526020016101d460405180606001604052806000815260200160008152602001600081525090565b905290565b6001600160a01b03811681146101ee57600080fd5b50565b6000806040838503121561020457600080fd5b823561020f816101d9565b946020939093013593505050565b80516001600160a01b03908116835260208083015182169084015260409182015116910152565b8051825260208082015190830152604090810151910152565b600060c08201905061027082845161021d565b60208301516102826060840182610244565b5092915050565b604080519081016001600160401b03811182821017156102b957634e487b7160e01b600052604160045260246000fd5b60405290565b604051606081016001600160401b03811182821017156102b957634e487b7160e01b600052604160045260246000fd5b600080600083850361010081121561030657600080fd5b8435610311816101d9565b935060208501359250603f19810160c081121561032d57600080fd5b610335610289565b606082121561034357600080fd5b61034b6102bf565b9150604087013561035b816101d9565b8252606087013561036b816101d9565b6020830152608087013561037e816101d9565b60408301528181526060609f198401121561039857600080fd5b6103a06102bf565b925060a0870135835260c0870135602084015260e087013560408401528260208201528093505050509250925092565b6001600160a01b03841681526020810183905281516101008201906103f990604084019061021d565b602083015161040b60a0840182610244565b5094935050505056fea26469706673582212208d428bed50142db6af72a608a71d0f9ee72adbffafd67431741ff409e7decfd264736f6c63430008120033",
  "linkReferences": {
    "contracts/glv/glvShift/GlvShiftStoreUtils.sol": {
      "GlvShiftStoreUtils": [
        {
          "length": 20,
          "start": 209
        },
        {
          "length": 20,
          "start": 326
        }
      ]
    }
  },
  "deployedLinkReferences": {
    "contracts/glv/glvShift/GlvShiftStoreUtils.sol": {
      "GlvShiftStoreUtils": [
        {
          "length": 20,
          "start": 177
        },
        {
          "length": 20,
          "start": 294
        }
      ]
    }
  }
}