{
  "_format": "hh-sol-artifact-1",
  "contractName": "Keys",
  "sourceName": "contracts/data/Keys.sol",
  "abi": [
    {
      "inputs": [],
      "name": "ABOVE_OPTIMAL_USAGE_BORROWING_FACTOR",
      "outputs": [
        {
          "internalType": "bytes32",
          "name": "",
          "type": "bytes32"
        }
      ],
      "stateMutability": "view",
      "type": "function"
    },
    {
      "inputs": [],
      "name": "ACCOUNT_DEPOSIT_LIST",
      "outputs": [
        {
          "internalType": "bytes32",
          "name": "",
          "type": "bytes32"
        }
      ],
      "stateMutability": "view",
      "type": "function"
    },
    {
      "inputs": [],
      "name": "ACCOUNT_GLV_DEPOSIT_LIST",
      "outputs": [
        {
          "internalType": "bytes32",
          "name": "",
          "type": "bytes32"
        }
      ],
      "stateMutability": "view",
      "type": "function"
    },
    {
      "inputs": [],
      "name": "ACCOUNT_GLV_WITHDRAWAL_LIST",
      "outputs": [
        {
          "internalType": "bytes32",
          "name": "",
          "type": "bytes32"
        }
      ],
      "stateMutability": "view",
      "type": "function"
    },
    {
      "inputs": [],
      "name": "ACCOUNT_ORDER_LIST",
      "outputs": [
        {
          "internalType": "bytes32",
          "name": "",
          "type": "bytes32"
        }
      ],
      "stateMutability": "view",
      "type": "function"
    },
    {
      "inputs": [],
      "name": "ACCOUNT_POSITION_LIST",
      "outputs": [
        {
          "internalType": "bytes32",
          "name": "",
          "type": "bytes32"
        }
      ],
      "stateMutability": "view",
      "type": "function"
    },
    {
      "inputs": [],
      "name": "ACCOUNT_SHIFT_LIST",
      "outputs": [
        {
          "internalType": "bytes32",
          "name": "",
          "type": "bytes32"
        }
      ],
      "stateMutability": "view",
      "type": "function"
    },
    {
      "inputs": [],
      "name": "ACCOUNT_WITHDRAWAL_LIST",
      "outputs": [
        {
          "internalType": "bytes32",
          "name": "",
          "type": "bytes32"
        }
      ],
      "stateMutability": "view",
      "type": "function"
    },
    {
      "inputs": [],
      "name": "AFFILIATE_REWARD",
      "outputs": [
        {
          "internalType": "bytes32",
          "name": "",
          "type": "bytes32"
        }
      ],
      "stateMutability": "view",
      "type": "function"
    },
    {
      "inputs": [],
      "name": "ATOMIC_SWAP_FEE_FACTOR",
      "outputs": [
        {
          "internalType": "bytes32",
          "name": "",
          "type": "bytes32"
        }
      ],
      "stateMutability": "view",
      "type": "function"
    },
    {
      "inputs": [],
      "name": "AUTO_CANCEL_ORDER_LIST",
      "outputs": [
        {
          "internalType": "bytes32",
          "name": "",
          "type": "bytes32"
        }
      ],
      "stateMutability": "view",
      "type": "function"
    },
    {
      "inputs": [],
      "name": "BASE_BORROWING_FACTOR",
      "outputs": [
        {
          "internalType": "bytes32",
          "name": "",
          "type": "bytes32"
        }
      ],
      "stateMutability": "view",
      "type": "function"
    },
    {
      "inputs": [],
      "name": "BORROWING_EXPONENT_FACTOR",
      "outputs": [
        {
          "internalType": "bytes32",
          "name": "",
          "type": "bytes32"
        }
      ],
      "stateMutability": "view",
      "type": "function"
    },
    {
      "inputs": [],
      "name": "BORROWING_FACTOR",
      "outputs": [
        {
          "internalType": "bytes32",
          "name": "",
          "type": "bytes32"
        }
      ],
      "stateMutability": "view",
      "type": "function"
    },
    {
      "inputs": [],
      "name": "BORROWING_FEE_RECEIVER_FACTOR",
      "outputs": [
        {
          "internalType": "bytes32",
          "name": "",
          "type": "bytes32"
        }
      ],
      "stateMutability": "view",
      "type": "function"
    },
    {
      "inputs": [],
      "name": "BUYBACK_AVAILABLE_FEE_AMOUNT",
      "outputs": [
        {
          "internalType": "bytes32",
          "name": "",
          "type": "bytes32"
        }
      ],
      "stateMutability": "view",
      "type": "function"
    },
    {
      "inputs": [],
      "name": "BUYBACK_BATCH_AMOUNT",
      "outputs": [
        {
          "internalType": "bytes32",
          "name": "",
          "type": "bytes32"
        }
      ],
      "stateMutability": "view",
      "type": "function"
    },
    {
      "inputs": [],
      "name": "BUYBACK_GMX_FACTOR",
      "outputs": [
        {
          "internalType": "bytes32",
          "name": "",
          "type": "bytes32"
        }
      ],
      "stateMutability": "view",
      "type": "function"
    },
    {
      "inputs": [],
      "name": "BUYBACK_MAX_PRICE_AGE",
      "outputs": [
        {
          "internalType": "bytes32",
          "name": "",
          "type": "bytes32"
        }
      ],
      "stateMutability": "view",
      "type": "function"
    },
    {
      "inputs": [],
      "name": "BUYBACK_MAX_PRICE_IMPACT_FACTOR",
      "outputs": [
        {
          "internalType": "bytes32",
          "name": "",
          "type": "bytes32"
        }
      ],
      "stateMutability": "view",
      "type": "function"
    },
    {
      "inputs": [],
      "name": "CANCEL_DEPOSIT_FEATURE_DISABLED",
      "outputs": [
        {
          "internalType": "bytes32",
          "name": "",
          "type": "bytes32"
        }
      ],
      "stateMutability": "view",
      "type": "function"
    },
    {
      "inputs": [],
      "name": "CANCEL_GLV_DEPOSIT_FEATURE_DISABLED",
      "outputs": [
        {
          "internalType": "bytes32",
          "name": "",
          "type": "bytes32"
        }
      ],
      "stateMutability": "view",
      "type": "function"
    },
    {
      "inputs": [],
      "name": "CANCEL_GLV_WITHDRAWAL_FEATURE_DISABLED",
      "outputs": [
        {
          "internalType": "bytes32",
          "name": "",
          "type": "bytes32"
        }
      ],
      "stateMutability": "view",
      "type": "function"
    },
    {
      "inputs": [],
      "name": "CANCEL_ORDER_FEATURE_DISABLED",
      "outputs": [
        {
          "internalType": "bytes32",
          "name": "",
          "type": "bytes32"
        }
      ],
      "stateMutability": "view",
      "type": "function"
    },
    {
      "inputs": [],
      "name": "CANCEL_SHIFT_FEATURE_DISABLED",
      "outputs": [
        {
          "internalType": "bytes32",
          "name": "",
          "type": "bytes32"
        }
      ],
      "stateMutability": "view",
      "type": "function"
    },
    {
      "inputs": [],
      "name": "CANCEL_WITHDRAWAL_FEATURE_DISABLED",
      "outputs": [
        {
          "internalType": "bytes32",
          "name": "",
          "type": "bytes32"
        }
      ],
      "stateMutability": "view",
      "type": "function"
    },
    {
      "inputs": [],
      "name": "CHAINLINK_PAYMENT_TOKEN",
      "outputs": [
        {
          "internalType": "bytes32",
          "name": "",
          "type": "bytes32"
        }
      ],
      "stateMutability": "view",
      "type": "function"
    },
    {
      "inputs": [],
      "name": "CLAIMABLE_COLLATERAL_AMOUNT",
      "outputs": [
        {
          "internalType": "bytes32",
          "name": "",
          "type": "bytes32"
        }
      ],
      "stateMutability": "view",
      "type": "function"
    },
    {
      "inputs": [],
      "name": "CLAIMABLE_COLLATERAL_FACTOR",
      "outputs": [
        {
          "internalType": "bytes32",
          "name": "",
          "type": "bytes32"
        }
      ],
      "stateMutability": "view",
      "type": "function"
    },
    {
      "inputs": [],
      "name": "CLAIMABLE_COLLATERAL_TIME_DIVISOR",
      "outputs": [
        {
          "internalType": "bytes32",
          "name": "",
          "type": "bytes32"
        }
      ],
      "stateMutability": "view",
      "type": "function"
    },
    {
      "inputs": [],
      "name": "CLAIMABLE_FEE_AMOUNT",
      "outputs": [
        {
          "internalType": "bytes32",
          "name": "",
          "type": "bytes32"
        }
      ],
      "stateMutability": "view",
      "type": "function"
    },
    {
      "inputs": [],
      "name": "CLAIMABLE_FUNDING_AMOUNT",
      "outputs": [
        {
          "internalType": "bytes32",
          "name": "",
          "type": "bytes32"
        }
      ],
      "stateMutability": "view",
      "type": "function"
    },
    {
      "inputs": [],
      "name": "CLAIMABLE_FUNDING_AMOUNT_PER_SIZE",
      "outputs": [
        {
          "internalType": "bytes32",
          "name": "",
          "type": "bytes32"
        }
      ],
      "stateMutability": "view",
      "type": "function"
    },
    {
      "inputs": [],
      "name": "CLAIMABLE_UI_FEE_AMOUNT",
      "outputs": [
        {
          "internalType": "bytes32",
          "name": "",
          "type": "bytes32"
        }
      ],
      "stateMutability": "view",
      "type": "function"
    },
    {
      "inputs": [],
      "name": "CLAIMED_COLLATERAL_AMOUNT",
      "outputs": [
        {
          "internalType": "bytes32",
          "name": "",
          "type": "bytes32"
        }
      ],
      "stateMutability": "view",
      "type": "function"
    },
    {
      "inputs": [],
      "name": "CLAIM_AFFILIATE_REWARDS_FEATURE_DISABLED",
      "outputs": [
        {
          "internalType": "bytes32",
          "name": "",
          "type": "bytes32"
        }
      ],
      "stateMutability": "view",
      "type": "function"
    },
    {
      "inputs": [],
      "name": "CLAIM_COLLATERAL_FEATURE_DISABLED",
      "outputs": [
        {
          "internalType": "bytes32",
          "name": "",
          "type": "bytes32"
        }
      ],
      "stateMutability": "view",
      "type": "function"
    },
    {
      "inputs": [],
      "name": "CLAIM_FUNDING_FEES_FEATURE_DISABLED",
      "outputs": [
        {
          "internalType": "bytes32",
          "name": "",
          "type": "bytes32"
        }
      ],
      "stateMutability": "view",
      "type": "function"
    },
    {
      "inputs": [],
      "name": "CLAIM_UI_FEES_FEATURE_DISABLED",
      "outputs": [
        {
          "internalType": "bytes32",
          "name": "",
          "type": "bytes32"
        }
      ],
      "stateMutability": "view",
      "type": "function"
    },
    {
      "inputs": [],
      "name": "COLLATERAL_SUM",
      "outputs": [
        {
          "internalType": "bytes32",
          "name": "",
          "type": "bytes32"
        }
      ],
      "stateMutability": "view",
      "type": "function"
    },
    {
      "inputs": [],
      "name": "CONTRIBUTOR_ACCOUNT_LIST",
      "outputs": [
        {
          "internalType": "bytes32",
          "name": "",
          "type": "bytes32"
        }
      ],
      "stateMutability": "view",
      "type": "function"
    },
    {
      "inputs": [],
      "name": "CONTRIBUTOR_LAST_PAYMENT_AT",
      "outputs": [
        {
          "internalType": "bytes32",
          "name": "",
          "type": "bytes32"
        }
      ],
      "stateMutability": "view",
      "type": "function"
    },
    {
      "inputs": [],
      "name": "CONTRIBUTOR_TOKEN_AMOUNT",
      "outputs": [
        {
          "internalType": "bytes32",
          "name": "",
          "type": "bytes32"
        }
      ],
      "stateMutability": "view",
      "type": "function"
    },
    {
      "inputs": [],
      "name": "CONTRIBUTOR_TOKEN_LIST",
      "outputs": [
        {
          "internalType": "bytes32",
          "name": "",
          "type": "bytes32"
        }
      ],
      "stateMutability": "view",
      "type": "function"
    },
    {
      "inputs": [],
      "name": "CONTRIBUTOR_TOKEN_VAULT",
      "outputs": [
        {
          "internalType": "bytes32",
          "name": "",
          "type": "bytes32"
        }
      ],
      "stateMutability": "view",
      "type": "function"
    },
    {
      "inputs": [],
      "name": "CREATE_DEPOSIT_FEATURE_DISABLED",
      "outputs": [
        {
          "internalType": "bytes32",
          "name": "",
          "type": "bytes32"
        }
      ],
      "stateMutability": "view",
      "type": "function"
    },
    {
      "inputs": [],
      "name": "CREATE_GLV_DEPOSIT_FEATURE_DISABLED",
      "outputs": [
        {
          "internalType": "bytes32",
          "name": "",
          "type": "bytes32"
        }
      ],
      "stateMutability": "view",
      "type": "function"
    },
    {
      "inputs": [],
      "name": "CREATE_GLV_SHIFT_FEATURE_DISABLED",
      "outputs": [
        {
          "internalType": "bytes32",
          "name": "",
          "type": "bytes32"
        }
      ],
      "stateMutability": "view",
      "type": "function"
    },
    {
      "inputs": [],
      "name": "CREATE_GLV_WITHDRAWAL_FEATURE_DISABLED",
      "outputs": [
        {
          "internalType": "bytes32",
          "name": "",
          "type": "bytes32"
        }
      ],
      "stateMutability": "view",
      "type": "function"
    },
    {
      "inputs": [],
      "name": "CREATE_ORDER_FEATURE_DISABLED",
      "outputs": [
        {
          "internalType": "bytes32",
          "name": "",
          "type": "bytes32"
        }
      ],
      "stateMutability": "view",
      "type": "function"
    },
    {
      "inputs": [],
      "name": "CREATE_SHIFT_FEATURE_DISABLED",
      "outputs": [
        {
          "internalType": "bytes32",
          "name": "",
          "type": "bytes32"
        }
      ],
      "stateMutability": "view",
      "type": "function"
    },
    {
      "inputs": [],
      "name": "CREATE_WITHDRAWAL_FEATURE_DISABLED",
      "outputs": [
        {
          "internalType": "bytes32",
          "name": "",
          "type": "bytes32"
        }
      ],
      "stateMutability": "view",
      "type": "function"
    },
    {
      "inputs": [],
      "name": "CUMULATIVE_BORROWING_FACTOR",
      "outputs": [
        {
          "internalType": "bytes32",
          "name": "",
          "type": "bytes32"
        }
      ],
      "stateMutability": "view",
      "type": "function"
    },
    {
      "inputs": [],
      "name": "CUMULATIVE_BORROWING_FACTOR_UPDATED_AT",
      "outputs": [
        {
          "internalType": "bytes32",
          "name": "",
          "type": "bytes32"
        }
      ],
      "stateMutability": "view",
      "type": "function"
    },
    {
      "inputs": [],
      "name": "DATA_STREAM_ID",
      "outputs": [
        {
          "internalType": "bytes32",
          "name": "",
          "type": "bytes32"
        }
      ],
      "stateMutability": "view",
      "type": "function"
    },
    {
      "inputs": [],
      "name": "DATA_STREAM_MULTIPLIER",
      "outputs": [
        {
          "internalType": "bytes32",
          "name": "",
          "type": "bytes32"
        }
      ],
      "stateMutability": "view",
      "type": "function"
    },
    {
      "inputs": [],
      "name": "DATA_STREAM_SPREAD_REDUCTION_FACTOR",
      "outputs": [
        {
          "internalType": "bytes32",
          "name": "",
          "type": "bytes32"
        }
      ],
      "stateMutability": "view",
      "type": "function"
    },
    {
      "inputs": [],
      "name": "DECREASE_ORDER_GAS_LIMIT",
      "outputs": [
        {
          "internalType": "bytes32",
          "name": "",
          "type": "bytes32"
        }
      ],
      "stateMutability": "view",
      "type": "function"
    },
    {
      "inputs": [],
      "name": "DEPOSIT_FEE_FACTOR",
      "outputs": [
        {
          "internalType": "bytes32",
          "name": "",
          "type": "bytes32"
        }
      ],
      "stateMutability": "view",
      "type": "function"
    },
    {
      "inputs": [],
      "name": "DEPOSIT_FEE_TYPE",
      "outputs": [
        {
          "internalType": "bytes32",
          "name": "",
          "type": "bytes32"
        }
      ],
      "stateMutability": "view",
      "type": "function"
    },
    {
      "inputs": [],
      "name": "DEPOSIT_GAS_LIMIT",
      "outputs": [
        {
          "internalType": "bytes32",
          "name": "",
          "type": "bytes32"
        }
      ],
      "stateMutability": "view",
      "type": "function"
    },
    {
      "inputs": [],
      "name": "DEPOSIT_LIST",
      "outputs": [
        {
          "internalType": "bytes32",
          "name": "",
          "type": "bytes32"
        }
      ],
      "stateMutability": "view",
      "type": "function"
    },
    {
      "inputs": [],
      "name": "ESTIMATED_GAS_FEE_BASE_AMOUNT_V2_1",
      "outputs": [
        {
          "internalType": "bytes32",
          "name": "",
          "type": "bytes32"
        }
      ],
      "stateMutability": "view",
      "type": "function"
    },
    {
      "inputs": [],
      "name": "ESTIMATED_GAS_FEE_MULTIPLIER_FACTOR",
      "outputs": [
        {
          "internalType": "bytes32",
          "name": "",
          "type": "bytes32"
        }
      ],
      "stateMutability": "view",
      "type": "function"
    },
    {
      "inputs": [],
      "name": "ESTIMATED_GAS_FEE_PER_ORACLE_PRICE",
      "outputs": [
        {
          "internalType": "bytes32",
          "name": "",
          "type": "bytes32"
        }
      ],
      "stateMutability": "view",
      "type": "function"
    },
    {
      "inputs": [],
      "name": "EXECUTE_ADL_FEATURE_DISABLED",
      "outputs": [
        {
          "internalType": "bytes32",
          "name": "",
          "type": "bytes32"
        }
      ],
      "stateMutability": "view",
      "type": "function"
    },
    {
      "inputs": [],
      "name": "EXECUTE_ATOMIC_WITHDRAWAL_FEATURE_DISABLED",
      "outputs": [
        {
          "internalType": "bytes32",
          "name": "",
          "type": "bytes32"
        }
      ],
      "stateMutability": "view",
      "type": "function"
    },
    {
      "inputs": [],
      "name": "EXECUTE_DEPOSIT_FEATURE_DISABLED",
      "outputs": [
        {
          "internalType": "bytes32",
          "name": "",
          "type": "bytes32"
        }
      ],
      "stateMutability": "view",
      "type": "function"
    },
    {
      "inputs": [],
      "name": "EXECUTE_GLV_DEPOSIT_FEATURE_DISABLED",
      "outputs": [
        {
          "internalType": "bytes32",
          "name": "",
          "type": "bytes32"
        }
      ],
      "stateMutability": "view",
      "type": "function"
    },
    {
      "inputs": [],
      "name": "EXECUTE_GLV_SHIFT_FEATURE_DISABLED",
      "outputs": [
        {
          "internalType": "bytes32",
          "name": "",
          "type": "bytes32"
        }
      ],
      "stateMutability": "view",
      "type": "function"
    },
    {
      "inputs": [],
      "name": "EXECUTE_GLV_WITHDRAWAL_FEATURE_DISABLED",
      "outputs": [
        {
          "internalType": "bytes32",
          "name": "",
          "type": "bytes32"
        }
      ],
      "stateMutability": "view",
      "type": "function"
    },
    {
      "inputs": [],
      "name": "EXECUTE_ORDER_FEATURE_DISABLED",
      "outputs": [
        {
          "internalType": "bytes32",
          "name": "",
          "type": "bytes32"
        }
      ],
      "stateMutability": "view",
      "type": "function"
    },
    {
      "inputs": [],
      "name": "EXECUTE_SHIFT_FEATURE_DISABLED",
      "outputs": [
        {
          "internalType": "bytes32",
          "name": "",
          "type": "bytes32"
        }
      ],
      "stateMutability": "view",
      "type": "function"
    },
    {
      "inputs": [],
      "name": "EXECUTE_WITHDRAWAL_FEATURE_DISABLED",
      "outputs": [
        {
          "internalType": "bytes32",
          "name": "",
          "type": "bytes32"
        }
      ],
      "stateMutability": "view",
      "type": "function"
    },
    {
      "inputs": [],
      "name": "EXECUTION_GAS_FEE_BASE_AMOUNT_V2_1",
      "outputs": [
        {
          "internalType": "bytes32",
          "name": "",
          "type": "bytes32"
        }
      ],
      "stateMutability": "view",
      "type": "function"
    },
    {
      "inputs": [],
      "name": "EXECUTION_GAS_FEE_MULTIPLIER_FACTOR",
      "outputs": [
        {
          "internalType": "bytes32",
          "name": "",
          "type": "bytes32"
        }
      ],
      "stateMutability": "view",
      "type": "function"
    },
    {
      "inputs": [],
      "name": "EXECUTION_GAS_FEE_PER_ORACLE_PRICE",
      "outputs": [
        {
          "internalType": "bytes32",
          "name": "",
          "type": "bytes32"
        }
      ],
      "stateMutability": "view",
      "type": "function"
    },
    {
      "inputs": [],
      "name": "FEE_BATCH_LIST",
      "outputs": [
        {
          "internalType": "bytes32",
          "name": "",
          "type": "bytes32"
        }
      ],
      "stateMutability": "view",
      "type": "function"
    },
    {
      "inputs": [],
      "name": "FEE_DISTRIBUTOR_SWAP_FEE_BATCH",
      "outputs": [
        {
          "internalType": "bytes32",
          "name": "",
          "type": "bytes32"
        }
      ],
      "stateMutability": "view",
      "type": "function"
    },
    {
      "inputs": [],
      "name": "FEE_DISTRIBUTOR_SWAP_TOKEN_INDEX",
      "outputs": [
        {
          "internalType": "bytes32",
          "name": "",
          "type": "bytes32"
        }
      ],
      "stateMutability": "view",
      "type": "function"
    },
    {
      "inputs": [],
      "name": "FEE_RECEIVER",
      "outputs": [
        {
          "internalType": "bytes32",
          "name": "",
          "type": "bytes32"
        }
      ],
      "stateMutability": "view",
      "type": "function"
    },
    {
      "inputs": [],
      "name": "FUNDING_DECREASE_FACTOR_PER_SECOND",
      "outputs": [
        {
          "internalType": "bytes32",
          "name": "",
          "type": "bytes32"
        }
      ],
      "stateMutability": "view",
      "type": "function"
    },
    {
      "inputs": [],
      "name": "FUNDING_EXPONENT_FACTOR",
      "outputs": [
        {
          "internalType": "bytes32",
          "name": "",
          "type": "bytes32"
        }
      ],
      "stateMutability": "view",
      "type": "function"
    },
    {
      "inputs": [],
      "name": "FUNDING_FACTOR",
      "outputs": [
        {
          "internalType": "bytes32",
          "name": "",
          "type": "bytes32"
        }
      ],
      "stateMutability": "view",
      "type": "function"
    },
    {
      "inputs": [],
      "name": "FUNDING_FEE_AMOUNT_PER_SIZE",
      "outputs": [
        {
          "internalType": "bytes32",
          "name": "",
          "type": "bytes32"
        }
      ],
      "stateMutability": "view",
      "type": "function"
    },
    {
      "inputs": [],
      "name": "FUNDING_INCREASE_FACTOR_PER_SECOND",
      "outputs": [
        {
          "internalType": "bytes32",
          "name": "",
          "type": "bytes32"
        }
      ],
      "stateMutability": "view",
      "type": "function"
    },
    {
      "inputs": [],
      "name": "FUNDING_UPDATED_AT",
      "outputs": [
        {
          "internalType": "bytes32",
          "name": "",
          "type": "bytes32"
        }
      ],
      "stateMutability": "view",
      "type": "function"
    },
    {
      "inputs": [],
      "name": "GLV_DEPOSIT_GAS_LIMIT",
      "outputs": [
        {
          "internalType": "bytes32",
          "name": "",
          "type": "bytes32"
        }
      ],
      "stateMutability": "view",
      "type": "function"
    },
    {
      "inputs": [],
      "name": "GLV_DEPOSIT_LIST",
      "outputs": [
        {
          "internalType": "bytes32",
          "name": "",
          "type": "bytes32"
        }
      ],
      "stateMutability": "view",
      "type": "function"
    },
    {
      "inputs": [],
      "name": "GLV_LIST",
      "outputs": [
        {
          "internalType": "bytes32",
          "name": "",
          "type": "bytes32"
        }
      ],
      "stateMutability": "view",
      "type": "function"
    },
    {
      "inputs": [],
      "name": "GLV_MAX_MARKET_COUNT",
      "outputs": [
        {
          "internalType": "bytes32",
          "name": "",
          "type": "bytes32"
        }
      ],
      "stateMutability": "view",
      "type": "function"
    },
    {
      "inputs": [],
      "name": "GLV_MAX_MARKET_TOKEN_BALANCE_AMOUNT",
      "outputs": [
        {
          "internalType": "bytes32",
          "name": "",
          "type": "bytes32"
        }
      ],
      "stateMutability": "view",
      "type": "function"
    },
    {
      "inputs": [],
      "name": "GLV_MAX_MARKET_TOKEN_BALANCE_USD",
      "outputs": [
        {
          "internalType": "bytes32",
          "name": "",
          "type": "bytes32"
        }
      ],
      "stateMutability": "view",
      "type": "function"
    },
    {
      "inputs": [],
      "name": "GLV_PER_MARKET_GAS_LIMIT",
      "outputs": [
        {
          "internalType": "bytes32",
          "name": "",
          "type": "bytes32"
        }
      ],
      "stateMutability": "view",
      "type": "function"
    },
    {
      "inputs": [],
      "name": "GLV_SHIFT_GAS_LIMIT",
      "outputs": [
        {
          "internalType": "bytes32",
          "name": "",
          "type": "bytes32"
        }
      ],
      "stateMutability": "view",
      "type": "function"
    },
    {
      "inputs": [],
      "name": "GLV_SHIFT_LAST_EXECUTED_AT",
      "outputs": [
        {
          "internalType": "bytes32",
          "name": "",
          "type": "bytes32"
        }
      ],
      "stateMutability": "view",
      "type": "function"
    },
    {
      "inputs": [],
      "name": "GLV_SHIFT_LIST",
      "outputs": [
        {
          "internalType": "bytes32",
          "name": "",
          "type": "bytes32"
        }
      ],
      "stateMutability": "view",
      "type": "function"
    },
    {
      "inputs": [],
      "name": "GLV_SHIFT_MAX_PRICE_IMPACT_FACTOR",
      "outputs": [
        {
          "internalType": "bytes32",
          "name": "",
          "type": "bytes32"
        }
      ],
      "stateMutability": "view",
      "type": "function"
    },
    {
      "inputs": [],
      "name": "GLV_SHIFT_MIN_INTERVAL",
      "outputs": [
        {
          "internalType": "bytes32",
          "name": "",
          "type": "bytes32"
        }
      ],
      "stateMutability": "view",
      "type": "function"
    },
    {
      "inputs": [],
      "name": "GLV_SUPPORTED_MARKET_LIST",
      "outputs": [
        {
          "internalType": "bytes32",
          "name": "",
          "type": "bytes32"
        }
      ],
      "stateMutability": "view",
      "type": "function"
    },
    {
      "inputs": [],
      "name": "GLV_WITHDRAWAL_GAS_LIMIT",
      "outputs": [
        {
          "internalType": "bytes32",
          "name": "",
          "type": "bytes32"
        }
      ],
      "stateMutability": "view",
      "type": "function"
    },
    {
      "inputs": [],
      "name": "GLV_WITHDRAWAL_LIST",
      "outputs": [
        {
          "internalType": "bytes32",
          "name": "",
          "type": "bytes32"
        }
      ],
      "stateMutability": "view",
      "type": "function"
    },
    {
      "inputs": [],
      "name": "HOLDING_ADDRESS",
      "outputs": [
        {
          "internalType": "bytes32",
          "name": "",
          "type": "bytes32"
        }
      ],
      "stateMutability": "view",
      "type": "function"
    },
    {
      "inputs": [],
      "name": "IGNORE_OPEN_INTEREST_FOR_USAGE_FACTOR",
      "outputs": [
        {
          "internalType": "bytes32",
          "name": "",
          "type": "bytes32"
        }
      ],
      "stateMutability": "view",
      "type": "function"
    },
    {
      "inputs": [],
      "name": "INCREASE_ORDER_GAS_LIMIT",
      "outputs": [
        {
          "internalType": "bytes32",
          "name": "",
          "type": "bytes32"
        }
      ],
      "stateMutability": "view",
      "type": "function"
    },
    {
      "inputs": [],
      "name": "IS_ADL_ENABLED",
      "outputs": [
        {
          "internalType": "bytes32",
          "name": "",
          "type": "bytes32"
        }
      ],
      "stateMutability": "view",
      "type": "function"
    },
    {
      "inputs": [],
      "name": "IS_ATOMIC_ORACLE_PROVIDER",
      "outputs": [
        {
          "internalType": "bytes32",
          "name": "",
          "type": "bytes32"
        }
      ],
      "stateMutability": "view",
      "type": "function"
    },
    {
      "inputs": [],
      "name": "IS_GLV_MARKET_DISABLED",
      "outputs": [
        {
          "internalType": "bytes32",
          "name": "",
          "type": "bytes32"
        }
      ],
      "stateMutability": "view",
      "type": "function"
    },
    {
      "inputs": [],
      "name": "IS_MARKET_DISABLED",
      "outputs": [
        {
          "internalType": "bytes32",
          "name": "",
          "type": "bytes32"
        }
      ],
      "stateMutability": "view",
      "type": "function"
    },
    {
      "inputs": [],
      "name": "IS_ORACLE_PROVIDER_ENABLED",
      "outputs": [
        {
          "internalType": "bytes32",
          "name": "",
          "type": "bytes32"
        }
      ],
      "stateMutability": "view",
      "type": "function"
    },
    {
      "inputs": [],
      "name": "LATEST_ADL_AT",
      "outputs": [
        {
          "internalType": "bytes32",
          "name": "",
          "type": "bytes32"
        }
      ],
      "stateMutability": "view",
      "type": "function"
    },
    {
      "inputs": [],
      "name": "LIQUIDATION_FEE_FACTOR",
      "outputs": [
        {
          "internalType": "bytes32",
          "name": "",
          "type": "bytes32"
        }
      ],
      "stateMutability": "view",
      "type": "function"
    },
    {
      "inputs": [],
      "name": "LIQUIDATION_FEE_RECEIVER_FACTOR",
      "outputs": [
        {
          "internalType": "bytes32",
          "name": "",
          "type": "bytes32"
        }
      ],
      "stateMutability": "view",
      "type": "function"
    },
    {
      "inputs": [],
      "name": "MARKET_LIST",
      "outputs": [
        {
          "internalType": "bytes32",
          "name": "",
          "type": "bytes32"
        }
      ],
      "stateMutability": "view",
      "type": "function"
    },
    {
      "inputs": [],
      "name": "MAX_ALLOWED_SUBACCOUNT_ACTION_COUNT",
      "outputs": [
        {
          "internalType": "bytes32",
          "name": "",
          "type": "bytes32"
        }
      ],
      "stateMutability": "view",
      "type": "function"
    },
    {
      "inputs": [],
      "name": "MAX_AUTO_CANCEL_ORDERS",
      "outputs": [
        {
          "internalType": "bytes32",
          "name": "",
          "type": "bytes32"
        }
      ],
      "stateMutability": "view",
      "type": "function"
    },
    {
      "inputs": [],
      "name": "MAX_CALLBACK_GAS_LIMIT",
      "outputs": [
        {
          "internalType": "bytes32",
          "name": "",
          "type": "bytes32"
        }
      ],
      "stateMutability": "view",
      "type": "function"
    },
    {
      "inputs": [],
      "name": "MAX_FUNDING_FACTOR_PER_SECOND",
      "outputs": [
        {
          "internalType": "bytes32",
          "name": "",
          "type": "bytes32"
        }
      ],
      "stateMutability": "view",
      "type": "function"
    },
    {
      "inputs": [],
      "name": "MAX_OPEN_INTEREST",
      "outputs": [
        {
          "internalType": "bytes32",
          "name": "",
          "type": "bytes32"
        }
      ],
      "stateMutability": "view",
      "type": "function"
    },
    {
      "inputs": [],
      "name": "MAX_ORACLE_PRICE_AGE",
      "outputs": [
        {
          "internalType": "bytes32",
          "name": "",
          "type": "bytes32"
        }
      ],
      "stateMutability": "view",
      "type": "function"
    },
    {
      "inputs": [],
      "name": "MAX_ORACLE_REF_PRICE_DEVIATION_FACTOR",
      "outputs": [
        {
          "internalType": "bytes32",
          "name": "",
          "type": "bytes32"
        }
      ],
      "stateMutability": "view",
      "type": "function"
    },
    {
      "inputs": [],
      "name": "MAX_ORACLE_TIMESTAMP_RANGE",
      "outputs": [
        {
          "internalType": "bytes32",
          "name": "",
          "type": "bytes32"
        }
      ],
      "stateMutability": "view",
      "type": "function"
    },
    {
      "inputs": [],
      "name": "MAX_PNL_FACTOR",
      "outputs": [
        {
          "internalType": "bytes32",
          "name": "",
          "type": "bytes32"
        }
      ],
      "stateMutability": "view",
      "type": "function"
    },
    {
      "inputs": [],
      "name": "MAX_PNL_FACTOR_FOR_ADL",
      "outputs": [
        {
          "internalType": "bytes32",
          "name": "",
          "type": "bytes32"
        }
      ],
      "stateMutability": "view",
      "type": "function"
    },
    {
      "inputs": [],
      "name": "MAX_PNL_FACTOR_FOR_DEPOSITS",
      "outputs": [
        {
          "internalType": "bytes32",
          "name": "",
          "type": "bytes32"
        }
      ],
      "stateMutability": "view",
      "type": "function"
    },
    {
      "inputs": [],
      "name": "MAX_PNL_FACTOR_FOR_TRADERS",
      "outputs": [
        {
          "internalType": "bytes32",
          "name": "",
          "type": "bytes32"
        }
      ],
      "stateMutability": "view",
      "type": "function"
    },
    {
      "inputs": [],
      "name": "MAX_PNL_FACTOR_FOR_WITHDRAWALS",
      "outputs": [
        {
          "internalType": "bytes32",
          "name": "",
          "type": "bytes32"
        }
      ],
      "stateMutability": "view",
      "type": "function"
    },
    {
      "inputs": [],
      "name": "MAX_POOL_AMOUNT",
      "outputs": [
        {
          "internalType": "bytes32",
          "name": "",
          "type": "bytes32"
        }
      ],
      "stateMutability": "view",
      "type": "function"
    },
    {
      "inputs": [],
      "name": "MAX_POOL_USD_FOR_DEPOSIT",
      "outputs": [
        {
          "internalType": "bytes32",
          "name": "",
          "type": "bytes32"
        }
      ],
      "stateMutability": "view",
      "type": "function"
    },
    {
      "inputs": [],
      "name": "MAX_POSITION_IMPACT_FACTOR",
      "outputs": [
        {
          "internalType": "bytes32",
          "name": "",
          "type": "bytes32"
        }
      ],
      "stateMutability": "view",
      "type": "function"
    },
    {
      "inputs": [],
      "name": "MAX_POSITION_IMPACT_FACTOR_FOR_LIQUIDATIONS",
      "outputs": [
        {
          "internalType": "bytes32",
          "name": "",
          "type": "bytes32"
        }
      ],
      "stateMutability": "view",
      "type": "function"
    },
    {
      "inputs": [],
      "name": "MAX_SWAP_PATH_LENGTH",
      "outputs": [
        {
          "internalType": "bytes32",
          "name": "",
          "type": "bytes32"
        }
      ],
      "stateMutability": "view",
      "type": "function"
    },
    {
      "inputs": [],
      "name": "MAX_TOTAL_CALLBACK_GAS_LIMIT_FOR_AUTO_CANCEL_ORDERS",
      "outputs": [
        {
          "internalType": "bytes32",
          "name": "",
          "type": "bytes32"
        }
      ],
      "stateMutability": "view",
      "type": "function"
    },
    {
      "inputs": [],
      "name": "MAX_TOTAL_CONTRIBUTOR_TOKEN_AMOUNT",
      "outputs": [
        {
          "internalType": "bytes32",
          "name": "",
          "type": "bytes32"
        }
      ],
      "stateMutability": "view",
      "type": "function"
    },
    {
      "inputs": [],
      "name": "MAX_UI_FEE_FACTOR",
      "outputs": [
        {
          "internalType": "bytes32",
          "name": "",
          "type": "bytes32"
        }
      ],
      "stateMutability": "view",
      "type": "function"
    },
    {
      "inputs": [],
      "name": "MIN_ADDITIONAL_GAS_FOR_EXECUTION",
      "outputs": [
        {
          "internalType": "bytes32",
          "name": "",
          "type": "bytes32"
        }
      ],
      "stateMutability": "view",
      "type": "function"
    },
    {
      "inputs": [],
      "name": "MIN_AFFILIATE_REWARD_FACTOR",
      "outputs": [
        {
          "internalType": "bytes32",
          "name": "",
          "type": "bytes32"
        }
      ],
      "stateMutability": "view",
      "type": "function"
    },
    {
      "inputs": [],
      "name": "MIN_COLLATERAL_FACTOR",
      "outputs": [
        {
          "internalType": "bytes32",
          "name": "",
          "type": "bytes32"
        }
      ],
      "stateMutability": "view",
      "type": "function"
    },
    {
      "inputs": [],
      "name": "MIN_COLLATERAL_FACTOR_FOR_OPEN_INTEREST_MULTIPLIER",
      "outputs": [
        {
          "internalType": "bytes32",
          "name": "",
          "type": "bytes32"
        }
      ],
      "stateMutability": "view",
      "type": "function"
    },
    {
      "inputs": [],
      "name": "MIN_COLLATERAL_USD",
      "outputs": [
        {
          "internalType": "bytes32",
          "name": "",
          "type": "bytes32"
        }
      ],
      "stateMutability": "view",
      "type": "function"
    },
    {
      "inputs": [],
      "name": "MIN_CONTRIBUTOR_PAYMENT_INTERVAL",
      "outputs": [
        {
          "internalType": "bytes32",
          "name": "",
          "type": "bytes32"
        }
      ],
      "stateMutability": "view",
      "type": "function"
    },
    {
      "inputs": [],
      "name": "MIN_FUNDING_FACTOR_PER_SECOND",
      "outputs": [
        {
          "internalType": "bytes32",
          "name": "",
          "type": "bytes32"
        }
      ],
      "stateMutability": "view",
      "type": "function"
    },
    {
      "inputs": [],
      "name": "MIN_GLV_TOKENS_FOR_FIRST_DEPOSIT",
      "outputs": [
        {
          "internalType": "bytes32",
          "name": "",
          "type": "bytes32"
        }
      ],
      "stateMutability": "view",
      "type": "function"
    },
    {
      "inputs": [],
      "name": "MIN_HANDLE_EXECUTION_ERROR_GAS",
      "outputs": [
        {
          "internalType": "bytes32",
          "name": "",
          "type": "bytes32"
        }
      ],
      "stateMutability": "view",
      "type": "function"
    },
    {
      "inputs": [],
      "name": "MIN_HANDLE_EXECUTION_ERROR_GAS_TO_FORWARD",
      "outputs": [
        {
          "internalType": "bytes32",
          "name": "",
          "type": "bytes32"
        }
      ],
      "stateMutability": "view",
      "type": "function"
    },
    {
      "inputs": [],
      "name": "MIN_MARKET_TOKENS_FOR_FIRST_DEPOSIT",
      "outputs": [
        {
          "internalType": "bytes32",
          "name": "",
          "type": "bytes32"
        }
      ],
      "stateMutability": "view",
      "type": "function"
    },
    {
      "inputs": [],
      "name": "MIN_ORACLE_BLOCK_CONFIRMATIONS",
      "outputs": [
        {
          "internalType": "bytes32",
          "name": "",
          "type": "bytes32"
        }
      ],
      "stateMutability": "view",
      "type": "function"
    },
    {
      "inputs": [],
      "name": "MIN_ORACLE_SIGNERS",
      "outputs": [
        {
          "internalType": "bytes32",
          "name": "",
          "type": "bytes32"
        }
      ],
      "stateMutability": "view",
      "type": "function"
    },
    {
      "inputs": [],
      "name": "MIN_PNL_FACTOR_AFTER_ADL",
      "outputs": [
        {
          "internalType": "bytes32",
          "name": "",
          "type": "bytes32"
        }
      ],
      "stateMutability": "view",
      "type": "function"
    },
    {
      "inputs": [],
      "name": "MIN_POSITION_IMPACT_POOL_AMOUNT",
      "outputs": [
        {
          "internalType": "bytes32",
          "name": "",
          "type": "bytes32"
        }
      ],
      "stateMutability": "view",
      "type": "function"
    },
    {
      "inputs": [],
      "name": "MIN_POSITION_SIZE_USD",
      "outputs": [
        {
          "internalType": "bytes32",
          "name": "",
          "type": "bytes32"
        }
      ],
      "stateMutability": "view",
      "type": "function"
    },
    {
      "inputs": [],
      "name": "NATIVE_TOKEN_TRANSFER_GAS_LIMIT",
      "outputs": [
        {
          "internalType": "bytes32",
          "name": "",
          "type": "bytes32"
        }
      ],
      "stateMutability": "view",
      "type": "function"
    },
    {
      "inputs": [],
      "name": "NONCE",
      "outputs": [
        {
          "internalType": "bytes32",
          "name": "",
          "type": "bytes32"
        }
      ],
      "stateMutability": "view",
      "type": "function"
    },
    {
      "inputs": [],
      "name": "OPEN_INTEREST",
      "outputs": [
        {
          "internalType": "bytes32",
          "name": "",
          "type": "bytes32"
        }
      ],
      "stateMutability": "view",
      "type": "function"
    },
    {
      "inputs": [],
      "name": "OPEN_INTEREST_IN_TOKENS",
      "outputs": [
        {
          "internalType": "bytes32",
          "name": "",
          "type": "bytes32"
        }
      ],
      "stateMutability": "view",
      "type": "function"
    },
    {
      "inputs": [],
      "name": "OPEN_INTEREST_RESERVE_FACTOR",
      "outputs": [
        {
          "internalType": "bytes32",
          "name": "",
          "type": "bytes32"
        }
      ],
      "stateMutability": "view",
      "type": "function"
    },
    {
      "inputs": [],
      "name": "OPTIMAL_USAGE_FACTOR",
      "outputs": [
        {
          "internalType": "bytes32",
          "name": "",
          "type": "bytes32"
        }
      ],
      "stateMutability": "view",
      "type": "function"
    },
    {
      "inputs": [],
      "name": "ORACLE_PROVIDER_FOR_TOKEN",
      "outputs": [
        {
          "internalType": "bytes32",
          "name": "",
          "type": "bytes32"
        }
      ],
      "stateMutability": "view",
      "type": "function"
    },
    {
      "inputs": [],
      "name": "ORACLE_TIMESTAMP_ADJUSTMENT",
      "outputs": [
        {
          "internalType": "bytes32",
          "name": "",
          "type": "bytes32"
        }
      ],
      "stateMutability": "view",
      "type": "function"
    },
    {
      "inputs": [],
      "name": "ORACLE_TYPE",
      "outputs": [
        {
          "internalType": "bytes32",
          "name": "",
          "type": "bytes32"
        }
      ],
      "stateMutability": "view",
      "type": "function"
    },
    {
      "inputs": [],
      "name": "ORDER_LIST",
      "outputs": [
        {
          "internalType": "bytes32",
          "name": "",
          "type": "bytes32"
        }
      ],
      "stateMutability": "view",
      "type": "function"
    },
    {
      "inputs": [],
      "name": "POOL_AMOUNT",
      "outputs": [
        {
          "internalType": "bytes32",
          "name": "",
          "type": "bytes32"
        }
      ],
      "stateMutability": "view",
      "type": "function"
    },
    {
      "inputs": [],
      "name": "POSITION_FEE_FACTOR",
      "outputs": [
        {
          "internalType": "bytes32",
          "name": "",
          "type": "bytes32"
        }
      ],
      "stateMutability": "view",
      "type": "function"
    },
    {
      "inputs": [],
      "name": "POSITION_FEE_RECEIVER_FACTOR",
      "outputs": [
        {
          "internalType": "bytes32",
          "name": "",
          "type": "bytes32"
        }
      ],
      "stateMutability": "view",
      "type": "function"
    },
    {
      "inputs": [],
      "name": "POSITION_FEE_TYPE",
      "outputs": [
        {
          "internalType": "bytes32",
          "name": "",
          "type": "bytes32"
        }
      ],
      "stateMutability": "view",
      "type": "function"
    },
    {
      "inputs": [],
      "name": "POSITION_IMPACT_EXPONENT_FACTOR",
      "outputs": [
        {
          "internalType": "bytes32",
          "name": "",
          "type": "bytes32"
        }
      ],
      "stateMutability": "view",
      "type": "function"
    },
    {
      "inputs": [],
      "name": "POSITION_IMPACT_FACTOR",
      "outputs": [
        {
          "internalType": "bytes32",
          "name": "",
          "type": "bytes32"
        }
      ],
      "stateMutability": "view",
      "type": "function"
    },
    {
      "inputs": [],
      "name": "POSITION_IMPACT_POOL_AMOUNT",
      "outputs": [
        {
          "internalType": "bytes32",
          "name": "",
          "type": "bytes32"
        }
      ],
      "stateMutability": "view",
      "type": "function"
    },
    {
      "inputs": [],
      "name": "POSITION_IMPACT_POOL_DISTRIBUTED_AT",
      "outputs": [
        {
          "internalType": "bytes32",
          "name": "",
          "type": "bytes32"
        }
      ],
      "stateMutability": "view",
      "type": "function"
    },
    {
      "inputs": [],
      "name": "POSITION_IMPACT_POOL_DISTRIBUTION_RATE",
      "outputs": [
        {
          "internalType": "bytes32",
          "name": "",
          "type": "bytes32"
        }
      ],
      "stateMutability": "view",
      "type": "function"
    },
    {
      "inputs": [],
      "name": "POSITION_LIST",
      "outputs": [
        {
          "internalType": "bytes32",
          "name": "",
          "type": "bytes32"
        }
      ],
      "stateMutability": "view",
      "type": "function"
    },
    {
      "inputs": [],
      "name": "PRICE_FEED",
      "outputs": [
        {
          "internalType": "bytes32",
          "name": "",
          "type": "bytes32"
        }
      ],
      "stateMutability": "view",
      "type": "function"
    },
    {
      "inputs": [],
      "name": "PRICE_FEED_HEARTBEAT_DURATION",
      "outputs": [
        {
          "internalType": "bytes32",
          "name": "",
          "type": "bytes32"
        }
      ],
      "stateMutability": "view",
      "type": "function"
    },
    {
      "inputs": [],
      "name": "PRICE_FEED_MULTIPLIER",
      "outputs": [
        {
          "internalType": "bytes32",
          "name": "",
          "type": "bytes32"
        }
      ],
      "stateMutability": "view",
      "type": "function"
    },
    {
      "inputs": [],
      "name": "PRO_DISCOUNT_FACTOR",
      "outputs": [
        {
          "internalType": "bytes32",
          "name": "",
          "type": "bytes32"
        }
      ],
      "stateMutability": "view",
      "type": "function"
    },
    {
      "inputs": [],
      "name": "PRO_TRADER_TIER",
      "outputs": [
        {
          "internalType": "bytes32",
          "name": "",
          "type": "bytes32"
        }
      ],
      "stateMutability": "view",
      "type": "function"
    },
    {
      "inputs": [],
      "name": "REENTRANCY_GUARD_STATUS",
      "outputs": [
        {
          "internalType": "bytes32",
          "name": "",
          "type": "bytes32"
        }
      ],
      "stateMutability": "view",
      "type": "function"
    },
    {
      "inputs": [],
      "name": "REFUND_EXECUTION_FEE_GAS_LIMIT",
      "outputs": [
        {
          "internalType": "bytes32",
          "name": "",
          "type": "bytes32"
        }
      ],
      "stateMutability": "view",
      "type": "function"
    },
    {
      "inputs": [],
      "name": "REQUEST_EXPIRATION_TIME",
      "outputs": [
        {
          "internalType": "bytes32",
          "name": "",
          "type": "bytes32"
        }
      ],
      "stateMutability": "view",
      "type": "function"
    },
    {
      "inputs": [],
      "name": "RESERVE_FACTOR",
      "outputs": [
        {
          "internalType": "bytes32",
          "name": "",
          "type": "bytes32"
        }
      ],
      "stateMutability": "view",
      "type": "function"
    },
    {
      "inputs": [],
      "name": "SAVED_CALLBACK_CONTRACT",
      "outputs": [
        {
          "internalType": "bytes32",
          "name": "",
          "type": "bytes32"
        }
      ],
      "stateMutability": "view",
      "type": "function"
    },
    {
      "inputs": [],
      "name": "SAVED_FUNDING_FACTOR_PER_SECOND",
      "outputs": [
        {
          "internalType": "bytes32",
          "name": "",
          "type": "bytes32"
        }
      ],
      "stateMutability": "view",
      "type": "function"
    },
    {
      "inputs": [],
      "name": "SEQUENCER_GRACE_DURATION",
      "outputs": [
        {
          "internalType": "bytes32",
          "name": "",
          "type": "bytes32"
        }
      ],
      "stateMutability": "view",
      "type": "function"
    },
    {
      "inputs": [],
      "name": "SHIFT_GAS_LIMIT",
      "outputs": [
        {
          "internalType": "bytes32",
          "name": "",
          "type": "bytes32"
        }
      ],
      "stateMutability": "view",
      "type": "function"
    },
    {
      "inputs": [],
      "name": "SHIFT_LIST",
      "outputs": [
        {
          "internalType": "bytes32",
          "name": "",
          "type": "bytes32"
        }
      ],
      "stateMutability": "view",
      "type": "function"
    },
    {
      "inputs": [],
      "name": "SINGLE_SWAP_GAS_LIMIT",
      "outputs": [
        {
          "internalType": "bytes32",
          "name": "",
          "type": "bytes32"
        }
      ],
      "stateMutability": "view",
      "type": "function"
    },
    {
      "inputs": [],
      "name": "SKIP_BORROWING_FEE_FOR_SMALLER_SIDE",
      "outputs": [
        {
          "internalType": "bytes32",
          "name": "",
          "type": "bytes32"
        }
      ],
      "stateMutability": "view",
      "type": "function"
    },
    {
      "inputs": [],
      "name": "STABLE_PRICE",
      "outputs": [
        {
          "internalType": "bytes32",
          "name": "",
          "type": "bytes32"
        }
      ],
      "stateMutability": "view",
      "type": "function"
    },
    {
      "inputs": [],
      "name": "SUBACCOUNT_ACTION_COUNT",
      "outputs": [
        {
          "internalType": "bytes32",
          "name": "",
          "type": "bytes32"
        }
      ],
      "stateMutability": "view",
      "type": "function"
    },
    {
      "inputs": [],
      "name": "SUBACCOUNT_AUTO_TOP_UP_AMOUNT",
      "outputs": [
        {
          "internalType": "bytes32",
          "name": "",
          "type": "bytes32"
        }
      ],
      "stateMutability": "view",
      "type": "function"
    },
    {
      "inputs": [],
      "name": "SUBACCOUNT_FEATURE_DISABLED",
      "outputs": [
        {
          "internalType": "bytes32",
          "name": "",
          "type": "bytes32"
        }
      ],
      "stateMutability": "view",
      "type": "function"
    },
    {
      "inputs": [],
      "name": "SUBACCOUNT_LIST",
      "outputs": [
        {
          "internalType": "bytes32",
          "name": "",
          "type": "bytes32"
        }
      ],
      "stateMutability": "view",
      "type": "function"
    },
    {
      "inputs": [],
      "name": "SUBACCOUNT_ORDER_ACTION",
      "outputs": [
        {
          "internalType": "bytes32",
          "name": "",
          "type": "bytes32"
        }
      ],
      "stateMutability": "view",
      "type": "function"
    },
    {
      "inputs": [],
      "name": "SWAP_FEE_FACTOR",
      "outputs": [
        {
          "internalType": "bytes32",
          "name": "",
          "type": "bytes32"
        }
      ],
      "stateMutability": "view",
      "type": "function"
    },
    {
      "inputs": [],
      "name": "SWAP_FEE_RECEIVER_FACTOR",
      "outputs": [
        {
          "internalType": "bytes32",
          "name": "",
          "type": "bytes32"
        }
      ],
      "stateMutability": "view",
      "type": "function"
    },
    {
      "inputs": [],
      "name": "SWAP_FEE_TYPE",
      "outputs": [
        {
          "internalType": "bytes32",
          "name": "",
          "type": "bytes32"
        }
      ],
      "stateMutability": "view",
      "type": "function"
    },
    {
      "inputs": [],
      "name": "SWAP_IMPACT_EXPONENT_FACTOR",
      "outputs": [
        {
          "internalType": "bytes32",
          "name": "",
          "type": "bytes32"
        }
      ],
      "stateMutability": "view",
      "type": "function"
    },
    {
      "inputs": [],
      "name": "SWAP_IMPACT_FACTOR",
      "outputs": [
        {
          "internalType": "bytes32",
          "name": "",
          "type": "bytes32"
        }
      ],
      "stateMutability": "view",
      "type": "function"
    },
    {
      "inputs": [],
      "name": "SWAP_IMPACT_POOL_AMOUNT",
      "outputs": [
        {
          "internalType": "bytes32",
          "name": "",
          "type": "bytes32"
        }
      ],
      "stateMutability": "view",
      "type": "function"
    },
    {
      "inputs": [],
      "name": "SWAP_ORDER_GAS_LIMIT",
      "outputs": [
        {
          "internalType": "bytes32",
          "name": "",
          "type": "bytes32"
        }
      ],
      "stateMutability": "view",
      "type": "function"
    },
    {
      "inputs": [],
      "name": "SWAP_PATH_MARKET_FLAG",
      "outputs": [
        {
          "internalType": "bytes32",
          "name": "",
          "type": "bytes32"
        }
      ],
      "stateMutability": "view",
      "type": "function"
    },
    {
      "inputs": [],
      "name": "SYNC_CONFIG_FEATURE_DISABLED",
      "outputs": [
        {
          "internalType": "bytes32",
          "name": "",
          "type": "bytes32"
        }
      ],
      "stateMutability": "view",
      "type": "function"
    },
    {
      "inputs": [],
      "name": "SYNC_CONFIG_LATEST_UPDATE_ID",
      "outputs": [
        {
          "internalType": "bytes32",
          "name": "",
          "type": "bytes32"
        }
      ],
      "stateMutability": "view",
      "type": "function"
    },
    {
      "inputs": [],
      "name": "SYNC_CONFIG_MARKET_DISABLED",
      "outputs": [
        {
          "internalType": "bytes32",
          "name": "",
          "type": "bytes32"
        }
      ],
      "stateMutability": "view",
      "type": "function"
    },
    {
      "inputs": [],
      "name": "SYNC_CONFIG_MARKET_PARAMETER_DISABLED",
      "outputs": [
        {
          "internalType": "bytes32",
          "name": "",
          "type": "bytes32"
        }
      ],
      "stateMutability": "view",
      "type": "function"
    },
    {
      "inputs": [],
      "name": "SYNC_CONFIG_PARAMETER_DISABLED",
      "outputs": [
        {
          "internalType": "bytes32",
          "name": "",
          "type": "bytes32"
        }
      ],
      "stateMutability": "view",
      "type": "function"
    },
    {
      "inputs": [],
      "name": "SYNC_CONFIG_UPDATE_COMPLETED",
      "outputs": [
        {
          "internalType": "bytes32",
          "name": "",
          "type": "bytes32"
        }
      ],
      "stateMutability": "view",
      "type": "function"
    },
    {
      "inputs": [],
      "name": "THRESHOLD_FOR_DECREASE_FUNDING",
      "outputs": [
        {
          "internalType": "bytes32",
          "name": "",
          "type": "bytes32"
        }
      ],
      "stateMutability": "view",
      "type": "function"
    },
    {
      "inputs": [],
      "name": "THRESHOLD_FOR_STABLE_FUNDING",
      "outputs": [
        {
          "internalType": "bytes32",
          "name": "",
          "type": "bytes32"
        }
      ],
      "stateMutability": "view",
      "type": "function"
    },
    {
      "inputs": [],
      "name": "TOKEN_TRANSFER_GAS_LIMIT",
      "outputs": [
        {
          "internalType": "bytes32",
          "name": "",
          "type": "bytes32"
        }
      ],
      "stateMutability": "view",
      "type": "function"
    },
    {
      "inputs": [],
      "name": "TOTAL_BORROWING",
      "outputs": [
        {
          "internalType": "bytes32",
          "name": "",
          "type": "bytes32"
        }
      ],
      "stateMutability": "view",
      "type": "function"
    },
    {
      "inputs": [],
      "name": "UI_DEPOSIT_FEE_TYPE",
      "outputs": [
        {
          "internalType": "bytes32",
          "name": "",
          "type": "bytes32"
        }
      ],
      "stateMutability": "view",
      "type": "function"
    },
    {
      "inputs": [],
      "name": "UI_FEE_FACTOR",
      "outputs": [
        {
          "internalType": "bytes32",
          "name": "",
          "type": "bytes32"
        }
      ],
      "stateMutability": "view",
      "type": "function"
    },
    {
      "inputs": [],
      "name": "UI_POSITION_FEE_TYPE",
      "outputs": [
        {
          "internalType": "bytes32",
          "name": "",
          "type": "bytes32"
        }
      ],
      "stateMutability": "view",
      "type": "function"
    },
    {
      "inputs": [],
      "name": "UI_SWAP_FEE_TYPE",
      "outputs": [
        {
          "internalType": "bytes32",
          "name": "",
          "type": "bytes32"
        }
      ],
      "stateMutability": "view",
      "type": "function"
    },
    {
      "inputs": [],
      "name": "UI_WITHDRAWAL_FEE_TYPE",
      "outputs": [
        {
          "internalType": "bytes32",
          "name": "",
          "type": "bytes32"
        }
      ],
      "stateMutability": "view",
      "type": "function"
    },
    {
      "inputs": [],
      "name": "UPDATE_ORDER_FEATURE_DISABLED",
      "outputs": [
        {
          "internalType": "bytes32",
          "name": "",
          "type": "bytes32"
        }
      ],
      "stateMutability": "view",
      "type": "function"
    },
    {
      "inputs": [],
      "name": "USER_INITIATED_CANCEL",
      "outputs": [
        {
          "internalType": "string",
          "name": "",
          "type": "string"
        }
      ],
      "stateMutability": "view",
      "type": "function"
    },
    {
      "inputs": [],
      "name": "VIRTUAL_INVENTORY_FOR_POSITIONS",
      "outputs": [
        {
          "internalType": "bytes32",
          "name": "",
          "type": "bytes32"
        }
      ],
      "stateMutability": "view",
      "type": "function"
    },
    {
      "inputs": [],
      "name": "VIRTUAL_INVENTORY_FOR_SWAPS",
      "outputs": [
        {
          "internalType": "bytes32",
          "name": "",
          "type": "bytes32"
        }
      ],
      "stateMutability": "view",
      "type": "function"
    },
    {
      "inputs": [],
      "name": "VIRTUAL_MARKET_ID",
      "outputs": [
        {
          "internalType": "bytes32",
          "name": "",
          "type": "bytes32"
        }
      ],
      "stateMutability": "view",
      "type": "function"
    },
    {
      "inputs": [],
      "name": "VIRTUAL_TOKEN_ID",
      "outputs": [
        {
          "internalType": "bytes32",
          "name": "",
          "type": "bytes32"
        }
      ],
      "stateMutability": "view",
      "type": "function"
    },
    {
      "inputs": [],
      "name": "WITHDRAWABLE_BUYBACK_TOKEN_AMOUNT",
      "outputs": [
        {
          "internalType": "bytes32",
          "name": "",
          "type": "bytes32"
        }
      ],
      "stateMutability": "view",
      "type": "function"
    },
    {
      "inputs": [],
      "name": "WITHDRAWAL_FEE_FACTOR",
      "outputs": [
        {
          "internalType": "bytes32",
          "name": "",
          "type": "bytes32"
        }
      ],
      "stateMutability": "view",
      "type": "function"
    },
    {
      "inputs": [],
      "name": "WITHDRAWAL_FEE_TYPE",
      "outputs": [
        {
          "internalType": "bytes32",
          "name": "",
          "type": "bytes32"
        }
      ],
      "stateMutability": "view",
      "type": "function"
    },
    {
      "inputs": [],
      "name": "WITHDRAWAL_GAS_LIMIT",
      "outputs": [
        {
          "internalType": "bytes32",
          "name": "",
          "type": "bytes32"
        }
      ],
      "stateMutability": "view",
      "type": "function"
    },
    {
      "inputs": [],
      "name": "WITHDRAWAL_LIST",
      "outputs": [
        {
          "internalType": "bytes32",
          "name": "",
          "type": "bytes32"
        }
      ],
      "stateMutability": "view",
      "type": "function"
    },
    {
      "inputs": [],
      "name": "WNT",
      "outputs": [
        {
          "internalType": "bytes32",
          "name": "",
          "type": "bytes32"
        }
      ],
      "stateMutability": "view",
      "type": "function"
    }
  ],
  "bytecode": "0x6148fe61003a600b82828239805160001a60731461002d57634e487b7160e01b600052600060045260246000fd5b30600052607381538281f3fe7300000000000000000000000000000000000000003014608060405260043610610a265760003560e01c806381352d1a1161052f578063c197eb9e116102b7578063c197eb9e14610f96578063c1b8380414610fd7578063c2af464e14610fdf578063c5a9762714610fe7578063c5ea2d2414610fef578063c68c2cd514610ff7578063c6c1caa714610fff578063c701f95514611007578063c7a9dae91461100f578063c7d1239f14611017578063c8a00a761461101f578063cab5f19c14611027578063cbddd4441461102f578063cc13ac7b14611037578063ceac2a691461103f578063cfd7752c14611047578063d1e049161461104f578063d27295be14611057578063d3e78e4d1461105f578063d4d9bb3314611067578063d7a0f9e61461106f578063d9f5a94114611077578063da03a1b61461107f578063da0db8e214611087578063dad1aa221461108f578063db5038a714611097578063db7a50241461109f578063dbd1f248146110a7578063dd723e59146110af578063ddb51f9f146110b7578063df649915146110bf578063e091dd1a146110c7578063e099e32c146110cf578063e2a54260146110d7578063e339132e146110df578063e3cb6014146110e7578063e4372fe7146110ef578063e4775a40146110f7578063e73ddaa1146110ff578063e8ae5a7814611107578063ea32605b1461110f578063eb958c0814611117578063ec6501bd1461111f578063ecda9bf914611127578063edd50a2d1461112f578063ee951a1b14611137578063ef0cbfbc1461113f578063ef5235fd14611147578063effefd471461114f578063f01cce5214611157578063f0d436901461115f578063f3a11da714611167578063f765f5d61461116f578063f76de96414611177578063f89c50f61461117f578063fabc5d0b14611187578063ff7716931461118f57600080fd5b806381352d1a14610dce57806388be014e14610dd657806389ca7fc814610dde5780638a1bbc5d14610de65780638b79198914610dee5780638c4a44ea14610df65780638e26402a14610dfe5780638f9dcf2114610e065780639030cce814610e0e57806391f9696c14610e16578063931a4d8114610e1e5780639381fa1c14610e265780639400070014610e2e57806394a5a4e714610e3657806396a6b6f814610e3e57806396b365eb14610e465780639904ec9c14610e4e5780639ab11e7914610e565780639b43522714610e5e5780639bfe0ccf14610e665780639c789d9114610e6e5780639d051e6014610e765780639fe1255314610e7e578063a1cf3e8c14610e86578063a204def814610e8e578063a3765f9c14610e96578063a383a74214610e9e578063a3d92d7e14610ea6578063a3e25d4414610eae578063a61ccdb814610eb6578063a687249314610ebe578063a89364dc14610ec6578063aabead0714610ece578063aad7a10f14610ed6578063ab1ce44c14610ede578063ab1df48114610ee6578063abf63d6114610eee578063ae23cc2f14610ef6578063ae59bfb514610efe578063ae5b84e414610f06578063ae9c63dd14610f0e578063b070009c14610f16578063b0c2fd1414610f1e578063b2c8a84214610f26578063b359926c14610f2e578063b417687b14610f36578063b41c2c4314610f3e578063b641427814610f46578063b7cc979714610f4e578063b8b4a54314610f56578063b8f50c8d14610f5e578063b952094814610f66578063bae6b63314610f6e578063bc55a08214610f76578063bdf25e9314610f7e578063beda3db314610f86578063c02941c114610f8e57600080fd5b8063404742bf116107b2578063404742bf14610c06578063417ef47b14610c0e5780634180ea9914610c1657806342cb816b14610c1e578063431a25e414610c2657806343c3c45914610c2e57806344ff036714610c36578063469eae3714610c3e57806347c46c7414610c465780634888590414610c4e57806348dda5d014610c565780634b0018b414610c5e5780634c8fe76b14610c665780634ce32dec14610c6e5780634fc0e46014610c7657806350237e0814610c7e5780635484cc1714610c865780635517979014610c8e5780635836138b14610c9657806358f2feab14610c9e5780635ac2117414610ca65780635c6f66f114610cae5780635c899df314610cb65780635ef6629314610cbe5780635fcfef9d14610cc657806361e0c4f114610cce57806362d594fa14610cd657806363b8501a14610cde5780636589bb0714610ce65780636778d47514610cee57806367cc69cb14610cf657806367eeaf1d14610cfe57806369fb117d14610d065780636a40ecf014610d0e5780636ab2473314610d165780636afc94eb14610d1e5780636ba70cec14610d265780636ba90bde14610d2e5780636c5bf2f314610d365780636d350cdc14610d3e5780636e81257214610d465780636f0b3d5514610d4e578063717491b414610d5657806371cedbc614610d5e578063726fb90e14610d66578063734fc49514610d6e57806374fd267f14610d765780637548bd1714610d7e57806375f285ff14610d865780637690b77614610d8e578063769b895314610d965780637b5eee8b14610d9e5780637bf43e4714610da65780637bf804f014610dae5780637e04a77a14610db65780637f18ca2b14610dbe5780637fcf215614610dc657600080fd5b80630299405a14610a2b578063041429b814610a46578063056a4c5914610a4e57806308966e2714610a56578063093dd29d14610a5e578063095e93d714610a665780630a214fc314610a6e5780630b083b8014610a765780630b9035a114610a7e5780630d3b329914610a865780630d3eae7114610a8e578063100bb91614610a9657806311508e2e14610a9e578063117e409c14610aa6578063123b6b9614610aae5780631483449e14610ab65780631697642314610abe57806316afde3614610ac6578063170b8bdf14610ace57806317adb28b14610ad657806317f5f5fc14610ade5780631bc3bb1b14610ae65780631dc168fe14610aee5780631e5f4ebe14610af65780631eb92d6414610afe578063222931a714610b065780632240815814610b0e57806322f3f8a714610b16578063238b044b14610b1e57806323a25f0d14610b2657806324ec097f14610b2e57806324f481b914610b3657806324ff1cb814610b3e5780632c5426f314610b465780632c66335a14610b4e5780632cd1260514610b565780632d9de99414610b5e5780632dfa8e8014610b665780632f58348114610b6e5780632fb0c1a314610b765780633059860814610b7e57806330e408d314610b86578063314a198a14610b8e578063315def4014610b9657806331dd278014610b9e57806331eb318a14610ba6578063320b24cf14610bae5780633252339914610bb657806333b2249b14610bbe578063344ce8aa14610bc6578063365e398a14610bce5780633817cfe814610bd657806339c3321514610bde5780633e6e130514610be65780633f56cc9b14610bee5780633f5cee2314610bf65780633feaf81614610bfe575b600080fd5b610a33611197565b6040519081526020015b60405180910390f35b610a336111f1565b610a3361122a565b610a33611277565b610a336112b0565b610a336112ed565b610a3361132e565b610a3361136f565b610a336113ae565b610a336113fb565b610a3361143a565b610a3361146c565b610a336114ad565b610a336114ec565b610a33611537565b610a3361156d565b610a336115ba565b610a336115f9565b610a33611648565b610a33611680565b610a336116cd565b610a33611700565b610a33611736565b610a33611771565b610a336117b0565b610a336117e3565b610a33611824565b610a33611874565b610a336118ac565b610a336118ed565b610a3361193a565b610a3361197b565b610a336119ad565b610a336119e8565b610a33611a17565b610a33611a4d565b610a33611a81565b610a33611ab2565b610a33611af2565b610a33611b33565b610a33611b74565b610a33611bc0565b610a33611bf7565b610a33611c43565b610a33611c7c565b610a33611cb7565b610a33611ce5565b610a33611d26565b610a33611d62565b610a33611d99565b610a33611dd0565b610a33611dfe565b610a33611e3f565b610a33611e79565b610a33611ec4565b610a33611f03565b610a33611f3f565b610a33611f7e565b610a33611fbf565b610a33611ff1565b610a3361203c565b610a3361206f565b610a336120ae565b610a336120ef565b610a33612120565b610a33612152565b610a33612186565b610a336121b9565b610a336121fa565b610a33612233565b610a33612269565b610a336122a0565b610a336122d2565b610a33612311565b610a33612348565b610a3361237c565b610a336123b6565b610a336123eb565b610a33612440565b610a33612474565b610a336124b5565b610a336124f4565b610a33612541565b610a3361257b565b610a336125b7565b610a33612606565b610a3361263f565b610a33612679565b610a336126b3565b610a336126ec565b610a33612727565b610a33612767565b610a336127a6565b610a336127e0565b610a3361281a565b610a3361285b565b610a33612899565b610a336128d4565b610a33612920565b610a33612961565b610a3361299b565b610a336129d8565b610a33612a19565b610a33612a4c565b610a33612a8c565b610a33612ada565b610a33612b16565b610a33612b4f565b610a33612b80565b610a33612bbb565b610a33612be2565b610a33612c15565b610a33612c56565b610a33612c95565b610a33612cc5565b610a33612d15565b610a33612d41565b610a33612d80565b610a33612dd2565b610a33612e07565b610a33612e43565b610a33612e83565b610a33612ec2565b610a33612efd565b610a33612f3a565b610a33612f72565b610a33612fad565b610a33612ff8565b610a33613039565b610a33613085565b610a336130b9565b610a336130f5565b610a33613131565b610a33613172565b610a336131ad565b610a336131e1565b610a33613222565b610a3361326e565b610a336132ba565b610a336132f0565b610a33613341565b610a3361337d565b610a336133b7565b610a336133f1565b610a33613430565b610a3361346e565b610a336134bc565b610a33613509565b610a33613547565b610a33613588565b610a336135c6565b610a33613607565b610a33613654565b610a336136a1565b610a336136dc565b610a3361372b565b610a33613764565b610a3361379b565b610a336137d3565b610a33613808565b610a33613848565b610a33613882565b610a336138bf565b610a336138f8565b610a33613929565b610a33613968565b610a336139a4565b610a336139d7565b610a33613a0f565b610a33613a4a565b610a33613a79565b610fca604051806040016040528060158152602001741554d15497d2539255125055115117d0d05390d153605a1b81525081565b604051610a3d919061487a565b610a33613ac9565b610a33613afb565b610a33613b47565b610a33613b7f565b610a33613bad565b610a33613be9565b610a33613c21565b610a33613c59565b610a33613c96565b610a33613ccc565b610a33613d18565b610a33613d57565b610a33613d91565b610a33613dcc565b610a33613e0d565b610a33613e4b565b610a33613e8b565b610a33613ec7565b610a33613ef7565b610a33613f42565b610a33613f7e565b610a33613fbf565b610a33613ffb565b610a33614048565b610a33614093565b610a336140e6565b610a33614126565b610a3361415f565b610a33614194565b610a336141cc565b610a33614202565b610a3361422b565b610a3361426a565b610a336142a9565b610a336142df565b610a33614317565b610a33614364565b610a336143b8565b610a336143e9565b610a33614446565b610a33614478565b610a336144b8565b610a336144eb565b610a33614538565b610a33614588565b610a336145b7565b610a33614603565b610a3361464f565b610a33614690565b610a336146cf565b610a33614704565b610a33614745565b610a336147a1565b610a336147d3565b610a33614814565b610a33614844565b6040516020016111d8906020808252601e908201527f4d494e5f4f5241434c455f424c4f434b5f434f4e4649524d4154494f4e530000604082015260600190565b6040516020818303038152906040528051906020012081565b6040516020016111d8906020808252601590820152741050d0d3d5539517d413d4d2551253d397d31254d5605a1b604082015260600190565b6040516020016111d89060208082526023908201527f455354494d415445445f4741535f4645455f4d554c5449504c4945525f4641436040820152622a27a960e91b606082015260800190565b6040516020016111d8906020808252601590820152742120a9a2afa127a92927aba4a723afa320a1aa27a960591b604082015260600190565b6040516020016111d89060208082526019908201527827a920a1a622afa82927ab24a222a92fa327a92faa27a5a2a760391b604082015260600190565b6040516020016111d8906020808252601e908201527f455845435554455f53484946545f464541545552455f44495341424c45440000604082015260600190565b6040516020016111d8906020808252601e908201527f524546554e445f455845435554494f4e5f4645455f4741535f4c494d49540000604082015260600190565b6040516020016111d8906020808252601b908201527a14d65390d7d0d3d3919251d7d3505492d15517d11254d050931151602a1b604082015260600190565b6040516020016111d89060208082526023908201527f4d494e5f4d41524b45545f544f4b454e535f464f525f46495253545f4445504f60408201526214d25560ea1b606082015260800190565b6040516020016111d8906020808252601b908201527a10d3d395149250955513d497d31054d517d410565351539517d055602a1b604082015260600190565b6040516020016111d8906020808252600e908201526d1110551057d4d51491505357d25160921b604082015260600190565b6040516020016111d8906020808252601d908201527f43414e43454c5f4f524445525f464541545552455f44495341424c4544000000604082015260600190565b6040516020016111d8906020808252818101527f4d494e5f4144444954494f4e414c5f4741535f464f525f455845435554494f4e604082015260600190565b6040516020016111d89060208082526021908201527f474c565f53484946545f4d41585f50524943455f494d504143545f464143544f6040820152602960f91b606082015260800190565b6040516020016111d890602080825260129082015271212aaca120a1a5afa3a6ac2fa320a1aa27a960711b604082015260600190565b6040516020016111d89060208082526023908201527f455845435554494f4e5f4741535f4645455f4d554c5449504c4945525f4641436040820152622a27a960e91b606082015260800190565b6040516020016111d8906020808252601b908201527a5649525455414c5f494e56454e544f52595f464f525f535741505360281b604082015260600190565b6040516020016111d89060208082526025908201527f49474e4f52455f4f50454e5f494e5445524553545f464f525f55534147455f4660408201526420a1aa27a960d91b606082015260800190565b6040516020016111d8906020808252601490820152734d41585f4f5241434c455f50524943455f41474560601b604082015260600190565b6040516020016111d89060208082526023908201527f434c41494d5f46554e44494e475f464545535f464541545552455f444953414260408201526213115160ea1b606082015260800190565b6040516020016111d8906020808252600f908201526e14d212519517d1d054d7d312535255608a1b604082015260600190565b6040516020016111d89060208082526012908201527111955391125391d7d554111055115117d05560721b604082015260600190565b6040516020016111d89060208082526017908201527610d3d395149250955513d497d513d2d15397d590555315604a1b604082015260600190565b6040516020016111d8906020808252601b908201527a29aba0a82fa4a6a820a1aa2fa2ac2827a722a72a2fa320a1aa27a960291b604082015260600190565b6040516020016111d8906020808252600f908201526e14d5509050d0d3d5539517d31254d5608a1b604082015260600190565b6040516020016111d8906020808252601d908201527f4352454154455f53484946545f464541545552455f44495341424c4544000000604082015260600190565b6040516020016111d89060208082526026908201527f504f534954494f4e5f494d504143545f504f4f4c5f444953545249425554494f6040820152654e5f5241544560d01b606082015260800190565b6040516020016111d8906020808252601490820152731050d0d3d5539517d1115413d4d25517d31254d560621b604082015260600190565b6040516020016111d8906020808252601f908201527f4c49515549444154494f4e5f4645455f52454345495645525f464143544f5200604082015260600190565b6040516020016111d89060208082526023908201527f534b49505f424f52524f57494e475f4645455f464f525f534d414c4c45525f5360408201526249444560e81b606082015260800190565b6040516020016111d8906020808252601f908201527f53415645445f46554e44494e475f464143544f525f5045525f5345434f4e4400604082015260600190565b6040516020016111d8906020808252600e908201526d26a0ac2fa827262fa320a1aa27a960911b604082015260600190565b6040516020016111d890602080825260179082015276232aa72224a723afa2ac2827a722a72a2fa320a1aa27a960491b604082015260600190565b6040516020016111d8906020808252600b908201526a4f5241434c455f5459504560a81b604082015260600190565b6040516020016111d89060208082526012908201527113525397d0d3d31310551154905317d554d160721b604082015260600190565b6040516020016111d89060208082526010908201526f10519192531250551157d49155d0549160821b604082015260600190565b6040516020016111d8906020808252600d908201526c2aa4afa322a2afa320a1aa27a960991b604082015260600190565b6040516020016111d8906020808252601c908201527b2827a9a4aa24a7a72fa322a2afa922a1a2a4ab22a92fa320a1aa27a960211b604082015260600190565b6040516020016111d8906020808252601d908201527f50524943455f464545445f4845415254424541545f4455524154494f4e000000604082015260600190565b6040516020016111d8906020808252601d908201527f5355424143434f554e545f4155544f5f544f505f55505f414d4f554e54000000604082015260600190565b6040516020016111d89060208082526022908201527f455354494d415445445f4741535f4645455f5045525f4f5241434c455f505249604082015261434560f01b606082015260800190565b6040516020016111d89060208082526013908201527211d31597d4d212519517d1d054d7d312535255606a1b604082015260600190565b6040516020016111d89060208082526022908201527f455845435554494f4e5f4741535f4645455f5045525f4f5241434c455f505249604082015261434560f01b606082015260800190565b6040516020016111d89060208082526015908201527426a4a72fa1a7a62620aa22a920a62fa320a1aa27a960591b604082015260600190565b6040516020016111d89060208082526017908201527621a420a4a72624a725afa820aca6a2a72a2faa27a5a2a760491b604082015260600190565b6040516020016111d8906020808252600a908201526914149250d157d191515160b21b604082015260600190565b6040516020016111d8906020808252601e908201527f4645455f4449535452494255544f525f535741505f4645455f42415443480000604082015260600190565b6040516020016111d89060208082526018908201527729a2a8aaa2a721a2a92fa3a920a1a2afa22aa920aa24a7a760411b604082015260600190565b6040516020016111d8906020808252601390820152722827a9a4aa24a7a72fa322a2afa320a1aa27a960691b604082015260600190565b6040516020016111d89060208082526013908201527211d31597d5d2551211149055d05317d31254d5606a1b604082015260600190565b6040516020016111d8906020808252600a908201526913d491115497d31254d560b21b604082015260600190565b6040516020016111d8906020808252601e908201527f455845435554455f4f524445525f464541545552455f44495341424c45440000604082015260600190565b6040516020016111d89060208082526016908201527513505617d0d05313109050d2d7d1d054d7d31253525560521b604082015260600190565b6040516020016111d89060208082526021908201527f434c41494d5f434f4c4c41544552414c5f464541545552455f44495341424c456040820152601160fa1b606082015260800190565b6040516020016111d8906020808252601b908201527a1050d0d3d5539517d1d31597d5d2551211149055d05317d31254d5602a1b604082015260600190565b6040516020016111d89060208082526018908201527710d3d395149250955513d497d513d2d15397d05353d5539560421b604082015260600190565b6040516020016111d8906020808252601b908201527a14d5509050d0d3d5539517d191505515549157d11254d050931151602a1b604082015260600190565b6040516020016111d8906020808252601f908201527f43414e43454c5f4445504f5349545f464541545552455f44495341424c454400604082015260600190565b6040516020016111d8906020808252600e908201526d11d31597d4d212519517d31254d560921b604082015260600190565b6040516020016111d89060208082526021908201527f434c41494d41424c455f434f4c4c41544552414c5f54494d455f44495649534f6040820152602960f91b606082015260800190565b6040516020016111d8906020808252600f908201526e282927afaa2920a222a92faa24a2a960891b604082015260600190565b6040516020016111d8906020808252818101527f4d494e5f474c565f544f4b454e535f464f525f46495253545f4445504f534954604082015260600190565b6040516020016111d8906020808252601e908201527f53594e435f434f4e4649475f504152414d455445525f44495341424c45440000604082015260600190565b6040516020016111d8906020808252600d908201526c1310551154d517d0511317d055609a1b604082015260600190565b6040516020016111d8906020808252600e908201526d232aa72224a723afa320a1aa27a960911b604082015260600190565b6040516020016111d89060208082526010908201526f11d31597d1115413d4d25517d31254d560821b604082015260600190565b6040516020016111d8906020808252600f908201526e544f54414c5f424f52524f57494e4760881b604082015260600190565b6040516020016111d8906020808252601d908201527f4d41585f46554e44494e475f464143544f525f5045525f5345434f4e44000000604082015260600190565b6040516020016111d89060208082526015908201527414d25391d31157d4d5d05417d1d054d7d312535255605a1b604082015260600190565b6040516020016111d8906020808252601290820152711050d0d3d5539517d4d212519517d31254d560721b604082015260600190565b6040516020016111d890602080825260139082015272282927afa224a9a1a7aaa72a2fa320a1aa27a960691b604082015260600190565b6040516020016111d8906020808252600e908201526d1254d7d0511317d153905093115160921b604082015260600190565b6040516020016111d8906020808252818101527f474c565f4d41585f4d41524b45545f544f4b454e5f42414c414e43455f555344604082015260600190565b6040516020016111d8906020808252601390820152725749544844524157414c5f4645455f5459504560681b604082015260600190565b6040516020016111d89060208082526010908201526f2127a92927aba4a723afa320a1aa27a960811b604082015260600190565b6040516020016111d8906020808252601690820152752220aa20afa9aa2922a0a6afa6aaa62a24a82624a2a960511b604082015260600190565b6040516020016111d8906020808252601190820152701592549515505317d3505492d15517d251607a1b604082015260600190565b6040516020016111d8906020808252602b908201527f4d41585f504f534954494f4e5f494d504143545f464143544f525f464f525f4c60408201526a49515549444154494f4e5360a81b606082015260800190565b6040516020016111d89060208082526010908201526f4445504f5349545f4645455f5459504560801b604082015260600190565b6040516020016111d8906020808252601d908201527f5550444154455f4f524445525f464541545552455f44495341424c4544000000604082015260600190565b6040516020016111d8906020808252818101527f4645455f4449535452494255544f525f535741505f544f4b454e5f494e444558604082015260600190565b6040516020016111d89060208082526023908201527f4352454154455f474c565f4445504f5349545f464541545552455f444953414260408201526213115160ea1b606082015260800190565b6040516020016111d89060208082526016908201527511d31597d4d212519517d3525397d25395115495905360521b604082015260600190565b6040516020016111d89060208082526018908201527713505617d413d3d317d554d117d193d497d1115413d4d25560421b604082015260600190565b6040516020016111d89060208082526025908201527f53594e435f434f4e4649475f4d41524b45545f504152414d455445525f444953604082015264105093115160da1b606082015260800190565b6040516020016111d8906020808252601590820152742ba4aa24222920aba0a62fa322a2afa320a1aa27a960591b604082015260600190565b6040516020016111d89060208082526016908201527513505617d4139317d19050d513d497d193d497d0511360521b604082015260600190565b6040516020016111d89060208082526016908201527510555513d7d0d05390d15317d3d491115497d31254d560521b604082015260600190565b6040516020016111d890602080825260159082015274282924a1a2afa322a2a22fa6aaa62a24a82624a2a960591b604082015260600190565b6040516020016111d89060208082526017908201527610d31052535050931157d55257d1915157d05353d55395604a1b604082015260600190565b6040516020016111d8906020808252601c908201527b14d65390d7d0d3d3919251d7d191505515549157d11254d05093115160221b604082015260600190565b6040516020016111d8906020808252601b908201527a21a620a4a6a0a12622afa1a7a62620aa22a920a62fa320a1aa27a960291b604082015260600190565b6040516020016111d8906020808252601690820152752827a9a4aa24a7a72fa4a6a820a1aa2fa320a1aa27a960511b604082015260600190565b6040516020016111d89060208082526016908201527510d3d395149250955513d497d513d2d15397d31254d560521b604082015260600190565b6040516020016111d8906020808252601e908201527f4d494e5f48414e444c455f455845435554494f4e5f4552524f525f4741530000604082015260600190565b6040516020016111d8906020808252601a90820152794d41585f504e4c5f464143544f525f464f525f5452414445525360301b604082015260600190565b6040516020016111d8906020808252601790820152764f50454e5f494e5445524553545f494e5f544f4b454e5360481b604082015260600190565b6040516020016111d89060208082526022908201527f4d41585f544f54414c5f434f4e5452494255544f525f544f4b454e5f414d4f55604082015261139560f21b606082015260800190565b6040516020016111d8906020808252601e908201527f434c41494d5f55495f464545535f464541545552455f44495341424c45440000604082015260600190565b6040516020016111d89060208082526016908201527520aa27a6a4a1afa9aba0a82fa322a2afa320a1aa27a960511b604082015260600190565b6040516020016111d89060208082526019908201527824a9afa0aa27a6a4a1afa7a920a1a622afa82927ab24a222a960391b604082015260600190565b6040516020016111d8906020808252601e908201527f5448524553484f4c445f464f525f44454352454153455f46554e44494e470000604082015260600190565b6040516020016111d8906020808252600f908201526e29aba0a82fa322a2afa320a1aa27a960891b604082015260600190565b6040516020016111d8906020808252601c908201527b109556509050d2d7d0559052531050931157d1915157d05353d5539560221b604082015260600190565b6040516020016111d89060208082526024908201527f455845435554455f474c565f4445504f5349545f464541545552455f444953416040820152631093115160e21b606082015260800190565b6040516020016111d890602080825260189082015277125390d4915054d157d3d491115497d1d054d7d31253525560421b604082015260600190565b6040516020016111d89060208082526015908201527411d31597d1115413d4d25517d1d054d7d312535255605a1b604082015260600190565b6040516020016111d8906020808252600d908201526c13d4115397d2539511549154d5609a1b604082015260600190565b6040516020016111d89060208082526017908201527614d5509050d0d3d5539517d050d51253d397d0d3d55395604a1b604082015260600190565b6040516020016111d89060208082526003908201526215d39560ea1b604082015260600190565b6040516020016111d8906020808252600f908201526e13505617d413d3d317d05353d55395608a1b604082015260600190565b6040516020016111d8906020808252601d908201527f43414e43454c5f53484946545f464541545552455f44495341424c4544000000604082015260600190565b6040516020016111d8906020808252601b908201527a13d49050d31157d512535154d510535417d051129554d513515395602a1b604082015260600190565b6040516020016111d8906020808252600c908201526b535441424c455f505249434560a01b604082015260600190565b6040516020016111d89060208082526026908201527f43414e43454c5f474c565f5749544844524157414c5f464541545552455f444960408201526514d05093115160d21b606082015260800190565b6040516020016111d89060208082526008908201526711d31597d31254d560c21b604082015260600190565b6040516020016111d8906020808252601b908201527a26a4a72fa0a32324a624a0aa22afa922aba0a9222fa320a1aa27a960291b604082015260600190565b6040516020016111d89060208082526028908201527f434c41494d5f414646494c494154455f524557415244535f464541545552455f604082015267111254d05093115160c21b606082015260800190565b6040516020016111d89060208082526011908201527026a0ac2faaa4afa322a2afa320a1aa27a960791b604082015260600190565b6040516020016111d89060208082526018908201527710d31052535050931157d1955391125391d7d05353d5539560421b604082015260600190565b6040516020016111d8906020808252601c908201527b5448524553484f4c445f464f525f535441424c455f46554e44494e4760201b604082015260600190565b6040516020016111d8906020808252601b908201527a4d41585f504e4c5f464143544f525f464f525f4445504f5349545360281b604082015260600190565b6040516020016111d8906020808252601790820152761050d0d3d5539517d5d2551211149055d05317d31254d5604a1b604082015260600190565b6040516020016111d89060208082526019908201527810d3105253515117d0d3d31310551154905317d05353d55395603a1b604082015260600190565b6040516020016111d89060208082526014908201527309a82b0bea6ae82a0bea082a890be988a9c8ea8960631b604082015260600190565b6040516020016111d89060208082526017908201527614d5d05417d253541050d517d413d3d317d05353d55395604a1b604082015260600190565b6040516020016111d89060208082526021908201527f434c41494d41424c455f46554e44494e475f414d4f554e545f5045525f53495a6040820152604560f81b606082015260800190565b6040516020016111d8906020808252601d908201527f4d494e5f46554e44494e475f464143544f525f5045525f5345434f4e44000000604082015260600190565b6040516020016111d89060208082526022908201527f455845435554494f4e5f4741535f4645455f424153455f414d4f554e545f56326040820152615f3160f01b606082015260800190565b6040516020016111d89060208082526010908201526f1592549515505317d513d2d15397d25160821b604082015260600190565b6040516020016111d8906020808252601890820152771513d2d15397d514905394d1915497d1d054d7d31253525560421b604082015260600190565b6040516020016111d89060208082526018908201527729aba0a82fa322a2afa922a1a2a4ab22a92fa320a1aa27a960411b604082015260600190565b6040516020016111d8906020808252601e908201527f4d41585f504e4c5f464143544f525f464f525f5749544844524157414c530000604082015260600190565b6040516020016111d8906020808252601790820152765245454e5452414e43595f47554152445f53544154555360481b604082015260600190565b6040516020016111d89060208082526010908201526f55495f535741505f4645455f5459504560801b604082015260600190565b6040516020016111d8906020808252601f908201527f4d494e5f504f534954494f4e5f494d504143545f504f4f4c5f414d4f554e5400604082015260600190565b6040516020016111d89060208082526022908201527f46554e44494e475f44454352454153455f464143544f525f5045525f5345434f604082015261139160f21b606082015260800190565b6040516020016111d89060208082526022908201527f46554e44494e475f494e4352454153455f464143544f525f5045525f5345434f604082015261139160f21b606082015260800190565b6040516020016111d89060208082526012908201527129aba0a82fa4a6a820a1aa2fa320a1aa27a960711b604082015260600190565b6040516020016111d89060208082526027908201527f455845435554455f474c565f5749544844524157414c5f464541545552455f446040820152661254d05093115160ca1b606082015260800190565b6040516020016111d890602080825260189082015277111150d4915054d157d3d491115497d1d054d7d31253525560421b604082015260600190565b6040516020016111d8906020808252601690820152751254d7d1d31597d3505492d15517d11254d05093115160521b604082015260600190565b6040516020016111d8906020808252601690820152752624a8aaa4a220aa24a7a72fa322a2afa320a1aa27a960511b604082015260600190565b6040516020016111d8906020808252601b908201527a10d31052535050931157d0d3d31310551154905317d05353d55395602a1b604082015260600190565b6040516020016111d8906020808252601a908201527911d31597d4d212519517d31054d517d1561150d555115117d05560321b604082015260600190565b6040516020016111d89060208082526024908201527f41424f56455f4f5054494d414c5f55534147455f424f52524f57494e475f464160408201526321aa27a960e11b606082015260800190565b6040516020016111d89060208082526023908201527f43414e43454c5f474c565f4445504f5349545f464541545552455f444953414260408201526213115160ea1b606082015260800190565b6040516020016111d8906020808252601a90820152791254d7d3d49050d31157d41493d59251115497d153905093115160321b604082015260600190565b6040516020016111d8906020808252601d908201527f4352454154455f4f524445525f464541545552455f44495341424c4544000000604082015260600190565b6040516020016111d8906020808252601a908201527926a0ac2fa827a9a4aa24a7a72fa4a6a820a1aa2fa320a1aa27a960311b604082015260600190565b6040516020016111d8906020808252601f908201527f5649525455414c5f494e56454e544f52595f464f525f504f534954494f4e5300604082015260600190565b6040516020016111d89060208082526023908201527f444154415f53545245414d5f5350524541445f524544554354494f4e5f4641436040820152622a27a960e91b606082015260800190565b6040516020016111d89060208082526023908201527f474c565f4d41585f4d41524b45545f544f4b454e5f42414c414e43455f414d4f60408201526215539560ea1b606082015260800190565b6040516020016111d89060208082526017908201527614d055915117d0d05313109050d2d7d0d3d395149050d5604a1b604082015260600190565b6040516020016111d89060208082526025908201527f4d41585f4f5241434c455f5245465f50524943455f444556494154494f4e5f4660408201526420a1aa27a960d91b606082015260800190565b6040516020016111d89060208082526015908201527413525397d413d4d2551253d397d4d2569157d554d1605a1b604082015260600190565b6040516020016111d89060208082526013908201527255495f4445504f5349545f4645455f5459504560681b604082015260600190565b6040516020016111d89060208082526014908201527311d31597d3505617d3505492d15517d0d3d5539560621b604082015260600190565b6040516020016111d89060208082526011908201527011115413d4d25517d1d054d7d312535255607a1b604082015260600190565b6040516020016111d8906020808252601c908201527b27a822a72fa4a72a22a922a9aa2fa922a9a2a92b22afa320a1aa27a960211b604082015260600190565b6040516020016111d8906020808252601690820152754d41585f4155544f5f43414e43454c5f4f524445525360501b604082015260600190565b6040516020016111d8906020808252601990820152782127a92927aba4a723afa2ac2827a722a72a2fa320a1aa27a960391b604082015260600190565b6040516020016111d890602080825260159082015274535741505f504154485f4d41524b45545f464c414760581b604082015260600190565b6040516020016111d8906020808252600d908201526c1413d4d2551253d397d31254d5609a1b604082015260600190565b6040516020016111d8906020808252601b908201527a21aaa6aaa620aa24ab22afa127a92927aba4a723afa320a1aa27a960291b604082015260600190565b6040516020016111d89060208082526018908201527710d3d395149250955513d497d050d0d3d5539517d31254d560421b604082015260600190565b6040516020016111d8906020808252600f908201526e15d2551211149055d05317d31254d5608a1b604082015260600190565b6040516020016111d89060208082526014908201527355495f504f534954494f4e5f4645455f5459504560601b604082015260600190565b6040516020016111d89060208082526017908201527629aaa120a1a1a7aaa72a2fa7a92222a92fa0a1aa24a7a760491b604082015260600190565b6040516020016111d8906020808252600b908201526a1413d3d317d05353d5539560aa1b604082015260600190565b6040516020016111d89060208082526026908201527f43554d554c41544956455f424f52524f57494e475f464143544f525f5550444160408201526515115117d05560d21b606082015260800190565b6040516020016111d8906020808252600e908201526d434f4c4c41544552414c5f53554d60901b604082015260600190565b6040516020016111d89060208082526022908201527f455354494d415445445f4741535f4645455f424153455f414d4f554e545f56326040820152615f3160f01b606082015260800190565b6040516020016111d89060208082526014908201527310d31052535050931157d1915157d05353d5539560621b604082015260600190565b6040516020016111d8906020808252600a908201526914d212519517d31254d560b21b604082015260600190565b6040516020016111d89060208082526018908201527711d31597d5d2551211149055d05317d1d054d7d31253525560421b604082015260600190565b6040516020016111d89060208082526014908201527314d5d05417d3d491115497d1d054d7d31253525560621b604082015260600190565b6040516020016111d89060208082526014908201527315d2551211149055d05317d1d054d7d31253525560621b604082015260600190565b6040516020016111d89060208082526019908201527811d31597d4d5541413d495115117d3505492d15517d31254d5603a1b604082015260600190565b6040516020016111d8906020808252601290820152711050d0d3d5539517d3d491115497d31254d560721b604082015260600190565b6040516020016111d89060208082526022908201527f43414e43454c5f5749544844524157414c5f464541545552455f44495341424c604082015261115160f21b606082015260800190565b6040516020016111d8906020808252818101527f4d494e5f434f4e5452494255544f525f5041594d454e545f494e54455256414c604082015260600190565b6040516020016111d89060208082526016908201527555495f5749544844524157414c5f4645455f5459504560501b604082015260600190565b6040516020016111d890602080825260179082015276524551554553545f45585049524154494f4e5f54494d4560481b604082015260600190565b6040516020016111d8906020808252601f908201527f504f534954494f4e5f494d504143545f4558504f4e454e545f464143544f5200604082015260600190565b6040516020016111d8906020808252601a90820152794d41585f4f5241434c455f54494d455354414d505f52414e474560301b604082015260600190565b6040516020016111d8906020808252601c908201527b11561150d5551157d0511317d191505515549157d11254d05093115160221b604082015260600190565b6040516020016111d89060208082526018908201527713525397d4139317d19050d513d497d05195115497d0511360421b604082015260600190565b6040516020016111d8906020808252600c908201526b2322a2afa922a1a2a4ab22a960a11b604082015260600190565b6040516020016111d89060208082526021908201527f574954484452415741424c455f4255594241434b5f544f4b454e5f414d4f554e6040820152601560fa1b606082015260800190565b6040516020016111d8906020808252601890820152771050d0d3d5539517d1d31597d1115413d4d25517d31254d560421b604082015260600190565b6040516020016111d8906020808252601f908201527f4352454154455f4445504f5349545f464541545552455f44495341424c454400604082015260600190565b6040516020016111d89060208082526018908201527711d31597d4115497d3505492d15517d1d054d7d31253525560421b604082015260600190565b6040516020016111d89060208082526023908201527f4d41585f414c4c4f5745445f5355424143434f554e545f414354494f4e5f434f60408201526215539560ea1b606082015260800190565b6040516020016111d89060208082526021908201527f4352454154455f474c565f53484946545f464541545552455f44495341424c456040820152601160fa1b606082015260800190565b6040516020016111d89060208082526029908201527f4d494e5f48414e444c455f455845435554494f4e5f4552524f525f4741535f5460408201526813d7d193d495d0549160ba1b606082015260800190565b6040516020016111d8906020808252601c908201527b14d65390d7d0d3d3919251d7d310551154d517d5541110551157d25160221b604082015260600190565b6040516020016111d8906020808252601590820152744255594241434b5f4d41585f50524943455f41474560581b604082015260600190565b6040516020016111d890602080825260119082015270504f534954494f4e5f4645455f5459504560781b604082015260600190565b6040516020016111d89060208082526014908201527327a82a24a6a0a62faaa9a0a3a2afa320a1aa27a960611b604082015260600190565b6040516020016111d8906020808252601290820152711254d7d3505492d15517d11254d05093115160721b604082015260600190565b6040516020016111d8906020808252600590820152644e4f4e434560d81b604082015260600190565b6040516020016111d8906020808252601b908201527a1413d4d2551253d397d253541050d517d413d3d317d05353d55395602a1b604082015260600190565b6040516020016111d8906020808252818101527f455845435554455f4445504f5349545f464541545552455f44495341424c4544604082015260600190565b6040516020016111d8906020808252601290820152712222a827a9a4aa2fa322a2afa320a1aa27a960711b604082015260600190565b6040516020016111d890602080825260149082015273109556509050d2d7d0905510d217d05353d5539560621b604082015260600190565b6040516020016111d89060208082526023908201527f455845435554455f5749544844524157414c5f464541545552455f444953414260408201526213115160ea1b606082015260800190565b6040516020016111d8906020808252602a908201527f455845435554455f41544f4d49435f5749544844524157414c5f4645415455526040820152691157d11254d05093115160b21b606082015260800190565b6040516020016111d8906020808252600d908201526c535741505f4645455f5459504560981b604082015260600190565b6040516020016111d89060208082526033908201527f4d41585f544f54414c5f43414c4c4241434b5f4741535f4c494d49545f464f526040820152725f4155544f5f43414e43454c5f4f524445525360681b606082015260800190565b6040516020016111d8906020808252600e908201526d2922a9a2a92b22afa320a1aa27a960911b604082015260600190565b6040516020016111d8906020808252601c908201527b14d65390d7d0d3d3919251d7d5541110551157d0d3d354131155115160221b604082015260600190565b6040516020016111d8906020808252600f908201526e484f4c44494e475f4144445245535360881b604082015260600190565b6040516020016111d89060208082526023908201527f504f534954494f4e5f494d504143545f504f4f4c5f444953545249425554454460408201526217d05560ea1b606082015260800190565b6040516020016111d89060208082526026908201527f4352454154455f474c565f5749544844524157414c5f464541545552455f444960408201526514d05093115160d21b606082015260800190565b6040516020016111d8906020808252600b908201526a13505492d15517d31254d560aa1b604082015260600190565b6040516020016111d89060208082526022908201527f455845435554455f474c565f53484946545f464541545552455f44495341424c604082015261115160f21b606082015260800190565b6040516020016111d89060208082526022908201527f4352454154455f5749544844524157414c5f464541545552455f44495341424c604082015261115160f21b606082015260800190565b6040516020016111d8906020808252601d908201527f424f52524f57494e475f4645455f52454345495645525f464143544f52000000604082015260600190565b6040516020016111d8906020808252601b908201527a46554e44494e475f4645455f414d4f554e545f5045525f53495a4560281b604082015260600190565b6040516020016111d89060208082526011908201527013505617d3d4115397d2539511549154d5607a1b604082015260600190565b6040516020016111d8906020808252601f908201527f4e41544956455f544f4b454e5f5452414e534645525f4741535f4c494d495400604082015260600190565b6040516020016111d89060208082526032908201527f4d494e5f434f4c4c41544552414c5f464143544f525f464f525f4f50454e5f49604082015271272a22a922a9aa2fa6aaa62a24a82624a2a960711b606082015260800190565b6040516020016111d8906020808252600e908201526d11915157d0905510d217d31254d560921b604082015260600190565b6040516020016111d8906020808252601f908201527f4255594241434b5f4d41585f50524943455f494d504143545f464143544f5200604082015260600190565b6040516020016111d8906020808252600c908201526b11115413d4d25517d31254d560a21b604082015260600190565b6040516020016111d8906020808252601290820152714d494e5f4f5241434c455f5349474e45525360701b604082015260600190565b600060208083528351808285015260005b818110156148a75785810183015185820160400152820161488b565b506000604082860101526040601f19601f830116850101925050509291505056fea26469706673582212206b19e23800c9b8f0d8984fca3539c81d879bb94e78bca3fc1ba025edc17befc564736f6c63430008120033",
  "linkReferences": {},
  "deployedLinkReferences": {}
}