{
  "_format": "hh-sol-artifact-1",
  "contractName": "MockRiskOracle",
  "sourceName": "contracts/mock/MockRiskOracle.sol",
  "abi": [
    {
      "inputs": [
        {
          "internalType": "address[]",
          "name": "initialSenders",
          "type": "address[]"
        },
        {
          "internalType": "string[]",
          "name": "initialUpdateTypes",
          "type": "string[]"
        }
      ],
      "stateMutability": "nonpayable",
      "type": "constructor"
    },
    {
      "anonymous": false,
      "inputs": [
        {
          "indexed": true,
          "internalType": "address",
          "name": "sender",
          "type": "address"
        }
      ],
      "name": "AuthorizedSenderAdded",
      "type": "event"
    },
    {
      "anonymous": false,
      "inputs": [
        {
          "indexed": true,
          "internalType": "address",
          "name": "sender",
          "type": "address"
        }
      ],
      "name": "AuthorizedSenderRemoved",
      "type": "event"
    },
    {
      "anonymous": false,
      "inputs": [
        {
          "indexed": true,
          "internalType": "address",
          "name": "previousOwner",
          "type": "address"
        },
        {
          "indexed": true,
          "internalType": "address",
          "name": "newOwner",
          "type": "address"
        }
      ],
      "name": "OwnershipTransferred",
      "type": "event"
    },
    {
      "anonymous": false,
      "inputs": [
        {
          "indexed": false,
          "internalType": "string",
          "name": "referenceId",
          "type": "string"
        },
        {
          "indexed": false,
          "internalType": "bytes",
          "name": "newValue",
          "type": "bytes"
        },
        {
          "indexed": false,
          "internalType": "bytes",
          "name": "previousValue",
          "type": "bytes"
        },
        {
          "indexed": false,
          "internalType": "uint256",
          "name": "timestamp",
          "type": "uint256"
        },
        {
          "indexed": true,
          "internalType": "string",
          "name": "updateType",
          "type": "string"
        },
        {
          "indexed": true,
          "internalType": "uint256",
          "name": "updateId",
          "type": "uint256"
        },
        {
          "indexed": true,
          "internalType": "address",
          "name": "market",
          "type": "address"
        },
        {
          "indexed": false,
          "internalType": "bytes",
          "name": "additionalData",
          "type": "bytes"
        }
      ],
      "name": "ParameterUpdated",
      "type": "event"
    },
    {
      "anonymous": false,
      "inputs": [
        {
          "indexed": true,
          "internalType": "string",
          "name": "updateType",
          "type": "string"
        }
      ],
      "name": "UpdateTypeAdded",
      "type": "event"
    },
    {
      "inputs": [
        {
          "internalType": "address",
          "name": "sender",
          "type": "address"
        }
      ],
      "name": "addAuthorizedSender",
      "outputs": [],
      "stateMutability": "nonpayable",
      "type": "function"
    },
    {
      "inputs": [
        {
          "internalType": "string",
          "name": "newUpdateType",
          "type": "string"
        }
      ],
      "name": "addUpdateType",
      "outputs": [],
      "stateMutability": "nonpayable",
      "type": "function"
    },
    {
      "inputs": [],
      "name": "getAllUpdateTypes",
      "outputs": [
        {
          "internalType": "string[]",
          "name": "",
          "type": "string[]"
        }
      ],
      "stateMutability": "view",
      "type": "function"
    },
    {
      "inputs": [
        {
          "internalType": "string",
          "name": "updateType",
          "type": "string"
        },
        {
          "internalType": "address",
          "name": "market",
          "type": "address"
        }
      ],
      "name": "getLatestUpdateByParameterAndMarket",
      "outputs": [
        {
          "components": [
            {
              "internalType": "uint256",
              "name": "timestamp",
              "type": "uint256"
            },
            {
              "internalType": "bytes",
              "name": "newValue",
              "type": "bytes"
            },
            {
              "internalType": "string",
              "name": "referenceId",
              "type": "string"
            },
            {
              "internalType": "bytes",
              "name": "previousValue",
              "type": "bytes"
            },
            {
              "internalType": "string",
              "name": "updateType",
              "type": "string"
            },
            {
              "internalType": "uint256",
              "name": "updateId",
              "type": "uint256"
            },
            {
              "internalType": "address",
              "name": "market",
              "type": "address"
            },
            {
              "internalType": "bytes",
              "name": "additionalData",
              "type": "bytes"
            }
          ],
          "internalType": "struct MockRiskOracle.RiskParameterUpdate",
          "name": "",
          "type": "tuple"
        }
      ],
      "stateMutability": "view",
      "type": "function"
    },
    {
      "inputs": [
        {
          "internalType": "uint256",
          "name": "updateId",
          "type": "uint256"
        }
      ],
      "name": "getUpdateById",
      "outputs": [
        {
          "components": [
            {
              "internalType": "uint256",
              "name": "timestamp",
              "type": "uint256"
            },
            {
              "internalType": "bytes",
              "name": "newValue",
              "type": "bytes"
            },
            {
              "internalType": "string",
              "name": "referenceId",
              "type": "string"
            },
            {
              "internalType": "bytes",
              "name": "previousValue",
              "type": "bytes"
            },
            {
              "internalType": "string",
              "name": "updateType",
              "type": "string"
            },
            {
              "internalType": "uint256",
              "name": "updateId",
              "type": "uint256"
            },
            {
              "internalType": "address",
              "name": "market",
              "type": "address"
            },
            {
              "internalType": "bytes",
              "name": "additionalData",
              "type": "bytes"
            }
          ],
          "internalType": "struct MockRiskOracle.RiskParameterUpdate",
          "name": "",
          "type": "tuple"
        }
      ],
      "stateMutability": "view",
      "type": "function"
    },
    {
      "inputs": [
        {
          "internalType": "address",
          "name": "sender",
          "type": "address"
        }
      ],
      "name": "isAuthorized",
      "outputs": [
        {
          "internalType": "bool",
          "name": "",
          "type": "bool"
        }
      ],
      "stateMutability": "view",
      "type": "function"
    },
    {
      "inputs": [
        {
          "internalType": "address",
          "name": "",
          "type": "address"
        },
        {
          "internalType": "string",
          "name": "",
          "type": "string"
        }
      ],
      "name": "latestUpdateIdByMarketAndType",
      "outputs": [
        {
          "internalType": "uint256",
          "name": "",
          "type": "uint256"
        }
      ],
      "stateMutability": "view",
      "type": "function"
    },
    {
      "inputs": [],
      "name": "owner",
      "outputs": [
        {
          "internalType": "address",
          "name": "",
          "type": "address"
        }
      ],
      "stateMutability": "view",
      "type": "function"
    },
    {
      "inputs": [
        {
          "internalType": "string[]",
          "name": "referenceIds",
          "type": "string[]"
        },
        {
          "internalType": "bytes[]",
          "name": "newValues",
          "type": "bytes[]"
        },
        {
          "internalType": "string[]",
          "name": "updateTypes",
          "type": "string[]"
        },
        {
          "internalType": "address[]",
          "name": "markets",
          "type": "address[]"
        },
        {
          "internalType": "bytes[]",
          "name": "additionalData",
          "type": "bytes[]"
        }
      ],
      "name": "publishBulkRiskParameterUpdates",
      "outputs": [],
      "stateMutability": "nonpayable",
      "type": "function"
    },
    {
      "inputs": [
        {
          "internalType": "string",
          "name": "referenceId",
          "type": "string"
        },
        {
          "internalType": "bytes",
          "name": "newValue",
          "type": "bytes"
        },
        {
          "internalType": "string",
          "name": "updateType",
          "type": "string"
        },
        {
          "internalType": "address",
          "name": "market",
          "type": "address"
        },
        {
          "internalType": "bytes",
          "name": "additionalData",
          "type": "bytes"
        }
      ],
      "name": "publishRiskParameterUpdate",
      "outputs": [],
      "stateMutability": "nonpayable",
      "type": "function"
    },
    {
      "inputs": [
        {
          "internalType": "address",
          "name": "sender",
          "type": "address"
        }
      ],
      "name": "removeAuthorizedSender",
      "outputs": [],
      "stateMutability": "nonpayable",
      "type": "function"
    },
    {
      "inputs": [],
      "name": "renounceOwnership",
      "outputs": [],
      "stateMutability": "nonpayable",
      "type": "function"
    },
    {
      "inputs": [
        {
          "internalType": "address",
          "name": "newOwner",
          "type": "address"
        }
      ],
      "name": "transferOwnership",
      "outputs": [],
      "stateMutability": "nonpayable",
      "type": "function"
    },
    {
      "inputs": [],
      "name": "updateCounter",
      "outputs": [
        {
          "internalType": "uint256",
          "name": "",
          "type": "uint256"
        }
      ],
      "stateMutability": "view",
      "type": "function"
    }
  ],
  "bytecode": "0x60806040523480156200001157600080fd5b506040516200248138038062002481833981016040819052620000349162000398565b6200003f33620001b9565b60005b8251811015620000ae5760016005600085848151811062000067576200006762000476565b6020908102919091018101516001600160a01b03168252810191909152604001600020805460ff191691151591909117905580620000a5816200048c565b91505062000042565b5060005b8151811015620001b0576003828281518110620000d357620000d362000476565b6020026020010151604051620000ea9190620004b4565b9081526040519081900360200190205460ff166200019b57600160038383815181106200011b576200011b62000476565b6020026020010151604051620001329190620004b4565b908152602001604051809103902060006101000a81548160ff02191690831515021790555060028282815181106200016e576200016e62000476565b6020908102919091018101518254600181018455600093845291909220019062000199908262000561565b505b80620001a7816200048c565b915050620000b2565b5050506200062d565b600080546001600160a01b038381166001600160a01b0319831681178455604051919092169283917f8be0079c531659141344cd1fd0a4f28419497f9722a3daafe3b4186f6b6457e09190a35050565b634e487b7160e01b600052604160045260246000fd5b604051601f8201601f191681016001600160401b03811182821017156200024a576200024a62000209565b604052919050565b60006001600160401b038211156200026e576200026e62000209565b5060051b60200190565b60005b83811015620002955781810151838201526020016200027b565b50506000910152565b6000601f8381840112620002b157600080fd5b82516020620002ca620002c48362000252565b6200021f565b82815260059290921b85018101918181019087841115620002ea57600080fd5b8287015b848110156200038c5780516001600160401b0380821115620003105760008081fd5b818a0191508a603f830112620003265760008081fd5b858201516040828211156200033f576200033f62000209565b62000352828b01601f191689016200021f565b92508183528c818386010111156200036a5760008081fd5b6200037b8289850183870162000278565b5050845250918301918301620002ee565b50979650505050505050565b60008060408385031215620003ac57600080fd5b82516001600160401b0380821115620003c457600080fd5b818501915085601f830112620003d957600080fd5b81516020620003ec620002c48362000252565b82815260059290921b840181019181810190898411156200040c57600080fd5b948201945b83861015620004435785516001600160a01b0381168114620004335760008081fd5b8252948201949082019062000411565b918801519196509093505050808211156200045d57600080fd5b506200046c858286016200029e565b9150509250929050565b634e487b7160e01b600052603260045260246000fd5b600060018201620004ad57634e487b7160e01b600052601160045260246000fd5b5060010190565b60008251620004c881846020870162000278565b9190910192915050565b600181811c90821680620004e757607f821691505b6020821081036200050857634e487b7160e01b600052602260045260246000fd5b50919050565b601f8211156200055c57600081815260208120601f850160051c81016020861015620005375750805b601f850160051c820191505b81811015620005585782815560010162000543565b5050505b505050565b81516001600160401b038111156200057d576200057d62000209565b62000595816200058e8454620004d2565b846200050e565b602080601f831160018114620005cd5760008415620005b45750858301515b600019600386901b1c1916600185901b17855562000558565b600085815260208120601f198616915b82811015620005fe57888601518255948401946001909101908401620005dd565b50858210156200061d5787850151600019600388901b60f8161c191681555b5050505050600190811b01905550565b611e44806200063d6000396000f3fe608060405234801561001057600080fd5b50600436106100ba5760003560e01c8063031ed79c146100bf5780631687fe8e146100d457806337759b9a146100f05780635decfee4146101105780636a309fe914610123578063715018a61461015f57806377abc9bd146101675780638da5cb5b1461017a578063b0be25051461019a578063c030ce7b146101ad578063cbd57967146101c2578063f2fde38b146101d5578063fa7229ee146101e8578063fe9fbb80146101fb575b600080fd5b6100d26100cd3660046117bc565b610237565b005b6100dd60075481565b6040519081526020015b60405180910390f35b6101036100fe36600461188d565b61043a565b6040516100e791906118f6565b61010361011e3660046119c4565b6107c0565b6100dd610131366004611a11565b6006602090815260009283526040909220815180830184018051928152908401929093019190912091525481565b6100d2610b9c565b6100d2610175366004611a5e565b610bb0565b610182610d34565b6040516001600160a01b0390911681526020016100e7565b6100d26101a8366004611a9a565b610d43565b6101b5610df1565b6040516100e79190611b4a565b6100d26101d0366004611bac565b610eca565b6100d26101e3366004611bac565b610f7c565b6100d26101f6366004611bac565b610ff5565b610227610209366004611bac565b6001600160a01b031660009081526005602052604090205460ff1690565b60405190151581526020016100e7565b3360009081526005602052604090205460ff1661026f5760405162461bcd60e51b815260040161026690611bce565b60405180910390fd5b83518551148015610281575082518451145b801561028e575081518351145b801561029b575080518251145b6102f85760405162461bcd60e51b815260206004820152602860248201527f4d69736d61746368206265747765656e20617267756d656e74206172726179206044820152673632b733ba34399760c11b6064820152608401610266565b60005b855181101561043257600384828151811061031857610318611c12565b602002602001015160405161032d9190611c28565b9081526040519081900360200190205460ff166103965760405162461bcd60e51b815260206004820152602160248201527f556e617574686f72697a656420757064617465207479706520617420696e64656044820152600f60fb1b6064820152608401610266565b6104208682815181106103ab576103ab611c12565b60200260200101518683815181106103c5576103c5611c12565b60200260200101518684815181106103df576103df611c12565b60200260200101518685815181106103f9576103f9611c12565b602002602001015186868151811061041357610413611c12565b60200260200101516110af565b8061042a81611c44565b9150506102fb565b505050505050565b61044261150a565b60008211801561045457506007548211155b6104955760405162461bcd60e51b815260206004820152601260248201527124b73b30b634b2103ab83230ba329024a21760711b6044820152606401610266565b6004600083815260200190815260200160002060405180610100016040529081600082015481526020016001820180546104ce90611c6b565b80601f01602080910402602001604051908101604052809291908181526020018280546104fa90611c6b565b80156105475780601f1061051c57610100808354040283529160200191610547565b820191906000526020600020905b81548152906001019060200180831161052a57829003601f168201915b5050505050815260200160028201805461056090611c6b565b80601f016020809104026020016040519081016040528092919081815260200182805461058c90611c6b565b80156105d95780601f106105ae576101008083540402835291602001916105d9565b820191906000526020600020905b8154815290600101906020018083116105bc57829003601f168201915b505050505081526020016003820180546105f290611c6b565b80601f016020809104026020016040519081016040528092919081815260200182805461061e90611c6b565b801561066b5780601f106106405761010080835404028352916020019161066b565b820191906000526020600020905b81548152906001019060200180831161064e57829003601f168201915b5050505050815260200160048201805461068490611c6b565b80601f01602080910402602001604051908101604052809291908181526020018280546106b090611c6b565b80156106fd5780601f106106d2576101008083540402835291602001916106fd565b820191906000526020600020905b8154815290600101906020018083116106e057829003601f168201915b50505091835250506005820154602082015260068201546001600160a01b0316604082015260078201805460609092019161073790611c6b565b80601f016020809104026020016040519081016040528092919081815260200182805461076390611c6b565b80156107b05780601f10610785576101008083540402835291602001916107b0565b820191906000526020600020905b81548152906001019060200180831161079357829003601f168201915b5050505050815250509050919050565b6107c861150a565b6001600160a01b03821660009081526006602052604080822090516107ee908690611c28565b90815260200160405180910390205490506000811161086f5760405162461bcd60e51b815260206004820152603760248201527f4e6f2075706461746520666f756e6420666f722074686520737065636966696560448201527632103830b930b6b2ba32b91030b7321036b0b935b2ba1760491b6064820152608401610266565b6004600082815260200190815260200160002060405180610100016040529081600082015481526020016001820180546108a890611c6b565b80601f01602080910402602001604051908101604052809291908181526020018280546108d490611c6b565b80156109215780601f106108f657610100808354040283529160200191610921565b820191906000526020600020905b81548152906001019060200180831161090457829003601f168201915b5050505050815260200160028201805461093a90611c6b565b80601f016020809104026020016040519081016040528092919081815260200182805461096690611c6b565b80156109b35780601f10610988576101008083540402835291602001916109b3565b820191906000526020600020905b81548152906001019060200180831161099657829003601f168201915b505050505081526020016003820180546109cc90611c6b565b80601f01602080910402602001604051908101604052809291908181526020018280546109f890611c6b565b8015610a455780601f10610a1a57610100808354040283529160200191610a45565b820191906000526020600020905b815481529060010190602001808311610a2857829003601f168201915b50505050508152602001600482018054610a5e90611c6b565b80601f0160208091040260200160405190810160405280929190818152602001828054610a8a90611c6b565b8015610ad75780601f10610aac57610100808354040283529160200191610ad7565b820191906000526020600020905b815481529060010190602001808311610aba57829003601f168201915b50505091835250506005820154602082015260068201546001600160a01b03166040820152600782018054606090920191610b1190611c6b565b80601f0160208091040260200160405190810160405280929190818152602001828054610b3d90611c6b565b8015610b8a5780601f10610b5f57610100808354040283529160200191610b8a565b820191906000526020600020905b815481529060010190602001808311610b6d57829003601f168201915b50505050508152505091505092915050565b610ba461145b565b610bae60006114ba565b565b610bb861145b565b8060008151118015610bcc57506040815111155b610c155760405162461bcd60e51b815260206004820152601a602482015279496e76616c696420757064617465207479706520737472696e6760301b6044820152606401610266565b600382604051610c259190611c28565b9081526040519081900360200190205460ff1615610c835760405162461bcd60e51b815260206004820152601b60248201527a2ab83230ba32903a3cb8329030b63932b0b23c9032bc34b9ba399760291b6044820152606401610266565b6001600383604051610c959190611c28565b908152604051908190036020019020805491151560ff19909216919091179055600280546001810182556000919091527f405787fa12a823e0f2b7631cc41b3ba8828b3321ca811111fa75cd3aa3bb5ace01610cf18382611cf0565b5081604051610d009190611c28565b604051908190038120907f07d686af6e6b7a2e3d03f5c81f05bba6a5b3686aca218f92f96b84c7d59aabaf90600090a25050565b6000546001600160a01b031690565b3360009081526005602052604090205460ff16610d725760405162461bcd60e51b815260040161026690611bce565b600383604051610d829190611c28565b9081526040519081900360200190205460ff16610ddd5760405162461bcd60e51b81526020600482015260196024820152782ab730baba3437b934bd32b2103ab83230ba32903a3cb8329760391b6044820152606401610266565b610dea85858585856110af565b5050505050565b60606002805480602002602001604051908101604052809291908181526020016000905b82821015610ec1578382906000526020600020018054610e3490611c6b565b80601f0160208091040260200160405190810160405280929190818152602001828054610e6090611c6b565b8015610ead5780601f10610e8257610100808354040283529160200191610ead565b820191906000526020600020905b815481529060010190602001808311610e9057829003601f168201915b505050505081526020019060010190610e15565b50505050905090565b610ed261145b565b6001600160a01b03811660009081526005602052604090205460ff16610f335760405162461bcd60e51b815260206004820152601660248201527529b2b73232b9103737ba1030baba3437b934bd32b21760511b6044820152606401610266565b6001600160a01b038116600081815260056020526040808220805460ff19169055517f98f9958a855d78eae670154a7d047d26968849962c3204c2b12c2228634f4ff89190a250565b610f8461145b565b6001600160a01b038116610fe95760405162461bcd60e51b815260206004820152602660248201527f4f776e61626c653a206e6577206f776e657220697320746865207a65726f206160448201526564647265737360d01b6064820152608401610266565b610ff2816114ba565b50565b610ffd61145b565b6001600160a01b03811660009081526005602052604090205460ff16156110635760405162461bcd60e51b815260206004820152601a60248201527929b2b73232b91030b63932b0b23c9030baba3437b934bd32b21760311b6044820152606401610266565b6001600160a01b038116600081815260056020526040808220805460ff19166001179055517fd06d2241a59677d082959f22e5a5212c57a9e890949a9d0f2426efd49f8c5d7f9190a250565b600780549060006110bf83611c44565b90915550506001600160a01b03821660009081526006602052604080822090516110ea908690611c28565b9081526020016040518091039020549050600080821161111957604051806020016040528060008152506111b4565b6000828152600460205260409020600101805461113590611c6b565b80601f016020809104026020016040519081016040528092919081815260200182805461116190611c6b565b80156111ae5780601f10611183576101008083540402835291602001916111ae565b820191906000526020600020905b81548152906001019060200180831161119157829003601f168201915b50505050505b604080516101008101825242815260208082018a81528284018c905260608301859052608083018a905260075460a084018190526001600160a01b038a1660c085015260e08401899052600090815260049092529290208151815591519293509182919060018201906112279082611cf0565b506040820151600282019061123c9082611cf0565b50606082015160038201906112519082611cf0565b50608082015160048201906112669082611cf0565b5060a0820151600582015560c08201516006820180546001600160a01b0319166001600160a01b0390921691909117905560e082015160078201906112ab9082611cf0565b5050600180548082018255600091909152825160089091027fb10e2d527612073b26eecdfd717e6a320cf44b4afac2b0732d9fcbe2b7fa0cf6810191825560208401518493507fb10e2d527612073b26eecdfd717e6a320cf44b4afac2b0732d9fcbe2b7fa0cf7909101906113209082611cf0565b50604082015160028201906113359082611cf0565b506060820151600382019061134a9082611cf0565b506080820151600482019061135f9082611cf0565b5060a0820151600582015560c08201516006820180546001600160a01b0319166001600160a01b0390921691909117905560e082015160078201906113a49082611cf0565b50505060075460066000876001600160a01b03166001600160a01b03168152602001908152602001600020876040516113dd9190611c28565b908152602001604051809103902081905550846001600160a01b03166007548760405161140a9190611c28565b60405180910390207ff4ffa2dade992ad974b9415d5dc108fa2a4a6de3822a3a0bb50d5e6991bdb8ae8b8b87428b604051611449959493929190611daf565b60405180910390a45050505050505050565b33611464610d34565b6001600160a01b031614610bae5760405162461bcd60e51b815260206004820181905260248201527f4f776e61626c653a2063616c6c6572206973206e6f7420746865206f776e65726044820152606401610266565b600080546001600160a01b038381166001600160a01b0319831681178455604051919092169283917f8be0079c531659141344cd1fd0a4f28419497f9722a3daafe3b4186f6b6457e09190a35050565b60405180610100016040528060008152602001606081526020016060815260200160608152602001606081526020016000815260200160006001600160a01b03168152602001606081525090565b634e487b7160e01b600052604160045260246000fd5b604051601f8201601f191681016001600160401b038111828210171561159657611596611558565b604052919050565b60006001600160401b038211156115b7576115b7611558565b5060051b60200190565b600082601f8301126115d257600080fd5b81356001600160401b038111156115eb576115eb611558565b6115fe601f8201601f191660200161156e565b81815284602083860101111561161357600080fd5b816020850160208301376000918101602001919091529392505050565b600082601f83011261164157600080fd5b813560206116566116518361159e565b61156e565b82815260059290921b8401810191818101908684111561167557600080fd5b8286015b848110156116b45780356001600160401b038111156116985760008081fd5b6116a68986838b01016115c1565b845250918301918301611679565b509695505050505050565b600082601f8301126116d057600080fd5b813560206116e06116518361159e565b82815260059290921b840181019181810190868411156116ff57600080fd5b8286015b848110156116b45780356001600160401b038111156117225760008081fd5b6117308986838b01016115c1565b845250918301918301611703565b80356001600160a01b038116811461175557600080fd5b919050565b600082601f83011261176b57600080fd5b8135602061177b6116518361159e565b82815260059290921b8401810191818101908684111561179a57600080fd5b8286015b848110156116b4576117af8161173e565b835291830191830161179e565b600080600080600060a086880312156117d457600080fd5b85356001600160401b03808211156117eb57600080fd5b6117f789838a01611630565b9650602088013591508082111561180d57600080fd5b61181989838a016116bf565b9550604088013591508082111561182f57600080fd5b61183b89838a01611630565b9450606088013591508082111561185157600080fd5b61185d89838a0161175a565b9350608088013591508082111561187357600080fd5b50611880888289016116bf565b9150509295509295909350565b60006020828403121561189f57600080fd5b5035919050565b60005b838110156118c15781810151838201526020016118a9565b50506000910152565b600081518084526118e28160208601602086016118a6565b601f01601f19169290920160200192915050565b60208152815160208201526000602083015161010080604085015261191f6101208501836118ca565b91506040850151601f198086850301606087015261193d84836118ca565b9350606087015191508086850301608087015261195a84836118ca565b935060808701519150808685030160a087015261197784836118ca565b935060a087015160c087015260c0870151915061199f60e08701836001600160a01b03169052565b60e08701519150808685030183870152506119ba83826118ca565b9695505050505050565b600080604083850312156119d757600080fd5b82356001600160401b038111156119ed57600080fd5b6119f9858286016115c1565b925050611a086020840161173e565b90509250929050565b60008060408385031215611a2457600080fd5b611a2d8361173e565b915060208301356001600160401b03811115611a4857600080fd5b611a54858286016115c1565b9150509250929050565b600060208284031215611a7057600080fd5b81356001600160401b03811115611a8657600080fd5b611a92848285016115c1565b949350505050565b600080600080600060a08688031215611ab257600080fd5b85356001600160401b0380821115611ac957600080fd5b611ad589838a016115c1565b96506020880135915080821115611aeb57600080fd5b611af789838a016115c1565b95506040880135915080821115611b0d57600080fd5b611b1989838a016115c1565b9450611b276060890161173e565b93506080880135915080821115611b3d57600080fd5b50611880888289016115c1565b6000602080830181845280855180835260408601915060408160051b870101925083870160005b82811015611b9f57603f19888603018452611b8d8583516118ca565b94509285019290850190600101611b71565b5092979650505050505050565b600060208284031215611bbe57600080fd5b611bc78261173e565b9392505050565b60208082526024908201527f556e617574686f72697a65643a2053656e646572206e6f7420617574686f72696040820152633d32b21760e11b606082015260800190565b634e487b7160e01b600052603260045260246000fd5b60008251611c3a8184602087016118a6565b9190910192915050565b600060018201611c6457634e487b7160e01b600052601160045260246000fd5b5060010190565b600181811c90821680611c7f57607f821691505b602082108103611c9f57634e487b7160e01b600052602260045260246000fd5b50919050565b601f821115611ceb57600081815260208120601f850160051c81016020861015611ccc5750805b601f850160051c820191505b8181101561043257828155600101611cd8565b505050565b81516001600160401b03811115611d0957611d09611558565b611d1d81611d178454611c6b565b84611ca5565b602080601f831160018114611d525760008415611d3a5750858301515b600019600386901b1c1916600185901b178555610432565b600085815260208120601f198616915b82811015611d8157888601518255948401946001909101908401611d62565b5085821015611d9f5787850151600019600388901b60f8161c191681555b5050505050600190811b01905550565b60a081526000611dc260a08301886118ca565b8281036020840152611dd481886118ca565b90508281036040840152611de881876118ca565b90508460608401528281036080840152611e0281856118ca565b9897505050505050505056fea2646970667358221220de45173bee4d7f9a1c885a7a63f2fe45c80c41660680742637b0d35595f8b1ea64736f6c63430008120033",
  "linkReferences": {},
  "deployedLinkReferences": {}
}