{
  "_format": "hh-sol-artifact-1",
  "contractName": "MockArbSys",
  "sourceName": "contracts/mock/MockArbSys.sol",
  "abi": [
    {
      "inputs": [
        {
          "internalType": "uint256",
          "name": "blockNumber",
          "type": "uint256"
        }
      ],
      "name": "arbBlockHash",
      "outputs": [
        {
          "internalType": "bytes32",
          "name": "",
          "type": "bytes32"
        }
      ],
      "stateMutability": "view",
      "type": "function"
    },
    {
      "inputs": [],
      "name": "arbBlockNumber",
      "outputs": [
        {
          "internalType": "uint256",
          "name": "",
          "type": "uint256"
        }
      ],
      "stateMutability": "view",
      "type": "function"
    }
  ],
  "bytecode": "0x6080604052348015600f57600080fd5b5060ab8061001e6000396000f3fe6080604052348015600f57600080fd5b506004361060325760003560e01c80632b407a82146037578063a3b1b31d146058575b600080fd5b60466042366004605d565b4090565b60405190815260200160405180910390f35b436046565b600060208284031215606e57600080fd5b503591905056fea2646970667358221220316857a88662d13dcb585c233afc5a6dc4a39d58ba5629e58faf2bde90fd1a7364736f6c63430008120033",
  "linkReferences": {},
  "deployedLinkReferences": {}
}