{
  "_format": "hh-sol-artifact-1",
  "contractName": "MockOFTAdapter",
  "sourceName": "contracts/mock/MockOFTAdapter.sol",
  "abi": [
    {
      "inputs": [
        {
          "internalType": "address",
          "name": "_token",
          "type": "address"
        },
        {
          "internalType": "address",
          "name": "_lzEndpoint",
          "type": "address"
        },
        {
          "internalType": "address",
          "name": "_delegate",
          "type": "address"
        }
      ],
      "stateMutability": "nonpayable",
      "type": "constructor"
    },
    {
      "inputs": [],
      "name": "InvalidDelegate",
      "type": "error"
    },
    {
      "inputs": [],
      "name": "InvalidEndpointCall",
      "type": "error"
    },
    {
      "inputs": [],
      "name": "InvalidLocalDecimals",
      "type": "error"
    },
    {
      "inputs": [
        {
          "internalType": "bytes",
          "name": "options",
          "type": "bytes"
        }
      ],
      "name": "InvalidOptions",
      "type": "error"
    },
    {
      "inputs": [],
      "name": "LzTokenUnavailable",
      "type": "error"
    },
    {
      "inputs": [
        {
          "internalType": "uint32",
          "name": "eid",
          "type": "uint32"
        }
      ],
      "name": "NoPeer",
      "type": "error"
    },
    {
      "inputs": [
        {
          "internalType": "uint256",
          "name": "msgValue",
          "type": "uint256"
        }
      ],
      "name": "NotEnoughNative",
      "type": "error"
    },
    {
      "inputs": [
        {
          "internalType": "address",
          "name": "addr",
          "type": "address"
        }
      ],
      "name": "OnlyEndpoint",
      "type": "error"
    },
    {
      "inputs": [
        {
          "internalType": "uint32",
          "name": "eid",
          "type": "uint32"
        },
        {
          "internalType": "bytes32",
          "name": "sender",
          "type": "bytes32"
        }
      ],
      "name": "OnlyPeer",
      "type": "error"
    },
    {
      "inputs": [],
      "name": "OnlySelf",
      "type": "error"
    },
    {
      "inputs": [
        {
          "internalType": "bytes",
          "name": "result",
          "type": "bytes"
        }
      ],
      "name": "SimulationResult",
      "type": "error"
    },
    {
      "inputs": [
        {
          "internalType": "uint256",
          "name": "amountLD",
          "type": "uint256"
        },
        {
          "internalType": "uint256",
          "name": "minAmountLD",
          "type": "uint256"
        }
      ],
      "name": "SlippageExceeded",
      "type": "error"
    },
    {
      "anonymous": false,
      "inputs": [
        {
          "components": [
            {
              "internalType": "uint32",
              "name": "eid",
              "type": "uint32"
            },
            {
              "internalType": "uint16",
              "name": "msgType",
              "type": "uint16"
            },
            {
              "internalType": "bytes",
              "name": "options",
              "type": "bytes"
            }
          ],
          "indexed": false,
          "internalType": "struct EnforcedOptionParam[]",
          "name": "_enforcedOptions",
          "type": "tuple[]"
        }
      ],
      "name": "EnforcedOptionSet",
      "type": "event"
    },
    {
      "anonymous": false,
      "inputs": [
        {
          "indexed": false,
          "internalType": "address",
          "name": "inspector",
          "type": "address"
        }
      ],
      "name": "MsgInspectorSet",
      "type": "event"
    },
    {
      "anonymous": false,
      "inputs": [
        {
          "indexed": true,
          "internalType": "bytes32",
          "name": "guid",
          "type": "bytes32"
        },
        {
          "indexed": false,
          "internalType": "uint32",
          "name": "srcEid",
          "type": "uint32"
        },
        {
          "indexed": true,
          "internalType": "address",
          "name": "toAddress",
          "type": "address"
        },
        {
          "indexed": false,
          "internalType": "uint256",
          "name": "amountReceivedLD",
          "type": "uint256"
        }
      ],
      "name": "OFTReceived",
      "type": "event"
    },
    {
      "anonymous": false,
      "inputs": [
        {
          "indexed": true,
          "internalType": "bytes32",
          "name": "guid",
          "type": "bytes32"
        },
        {
          "indexed": false,
          "internalType": "uint32",
          "name": "dstEid",
          "type": "uint32"
        },
        {
          "indexed": true,
          "internalType": "address",
          "name": "fromAddress",
          "type": "address"
        },
        {
          "indexed": false,
          "internalType": "uint256",
          "name": "amountSentLD",
          "type": "uint256"
        },
        {
          "indexed": false,
          "internalType": "uint256",
          "name": "amountReceivedLD",
          "type": "uint256"
        }
      ],
      "name": "OFTSent",
      "type": "event"
    },
    {
      "anonymous": false,
      "inputs": [
        {
          "indexed": true,
          "internalType": "address",
          "name": "previousOwner",
          "type": "address"
        },
        {
          "indexed": true,
          "internalType": "address",
          "name": "newOwner",
          "type": "address"
        }
      ],
      "name": "OwnershipTransferred",
      "type": "event"
    },
    {
      "anonymous": false,
      "inputs": [
        {
          "indexed": false,
          "internalType": "uint32",
          "name": "eid",
          "type": "uint32"
        },
        {
          "indexed": false,
          "internalType": "bytes32",
          "name": "peer",
          "type": "bytes32"
        }
      ],
      "name": "PeerSet",
      "type": "event"
    },
    {
      "anonymous": false,
      "inputs": [
        {
          "indexed": false,
          "internalType": "address",
          "name": "preCrimeAddress",
          "type": "address"
        }
      ],
      "name": "PreCrimeSet",
      "type": "event"
    },
    {
      "inputs": [],
      "name": "SEND",
      "outputs": [
        {
          "internalType": "uint16",
          "name": "",
          "type": "uint16"
        }
      ],
      "stateMutability": "view",
      "type": "function"
    },
    {
      "inputs": [],
      "name": "SEND_AND_CALL",
      "outputs": [
        {
          "internalType": "uint16",
          "name": "",
          "type": "uint16"
        }
      ],
      "stateMutability": "view",
      "type": "function"
    },
    {
      "inputs": [
        {
          "components": [
            {
              "internalType": "uint32",
              "name": "srcEid",
              "type": "uint32"
            },
            {
              "internalType": "bytes32",
              "name": "sender",
              "type": "bytes32"
            },
            {
              "internalType": "uint64",
              "name": "nonce",
              "type": "uint64"
            }
          ],
          "internalType": "struct Origin",
          "name": "origin",
          "type": "tuple"
        }
      ],
      "name": "allowInitializePath",
      "outputs": [
        {
          "internalType": "bool",
          "name": "",
          "type": "bool"
        }
      ],
      "stateMutability": "view",
      "type": "function"
    },
    {
      "inputs": [],
      "name": "approvalRequired",
      "outputs": [
        {
          "internalType": "bool",
          "name": "",
          "type": "bool"
        }
      ],
      "stateMutability": "pure",
      "type": "function"
    },
    {
      "inputs": [
        {
          "internalType": "uint32",
          "name": "_eid",
          "type": "uint32"
        },
        {
          "internalType": "uint16",
          "name": "_msgType",
          "type": "uint16"
        },
        {
          "internalType": "bytes",
          "name": "_extraOptions",
          "type": "bytes"
        }
      ],
      "name": "combineOptions",
      "outputs": [
        {
          "internalType": "bytes",
          "name": "",
          "type": "bytes"
        }
      ],
      "stateMutability": "view",
      "type": "function"
    },
    {
      "inputs": [
        {
          "internalType": "address",
          "name": "_to",
          "type": "address"
        },
        {
          "internalType": "uint256",
          "name": "_amountToCreditLD",
          "type": "uint256"
        },
        {
          "internalType": "uint32",
          "name": "_srcEid",
          "type": "uint32"
        }
      ],
      "name": "credit",
      "outputs": [
        {
          "internalType": "uint256",
          "name": "amountReceivedLD",
          "type": "uint256"
        }
      ],
      "stateMutability": "nonpayable",
      "type": "function"
    },
    {
      "inputs": [
        {
          "internalType": "uint256",
          "name": "_amountToSendLD",
          "type": "uint256"
        },
        {
          "internalType": "uint256",
          "name": "_minAmountToCreditLD",
          "type": "uint256"
        },
        {
          "internalType": "uint32",
          "name": "_dstEid",
          "type": "uint32"
        }
      ],
      "name": "debit",
      "outputs": [
        {
          "internalType": "uint256",
          "name": "amountDebitedLD",
          "type": "uint256"
        },
        {
          "internalType": "uint256",
          "name": "amountToCreditLD",
          "type": "uint256"
        }
      ],
      "stateMutability": "nonpayable",
      "type": "function"
    },
    {
      "inputs": [
        {
          "internalType": "uint256",
          "name": "_amountToSendLD",
          "type": "uint256"
        },
        {
          "internalType": "uint256",
          "name": "_minAmountToCreditLD",
          "type": "uint256"
        },
        {
          "internalType": "uint32",
          "name": "_dstEid",
          "type": "uint32"
        }
      ],
      "name": "debitView",
      "outputs": [
        {
          "internalType": "uint256",
          "name": "amountDebitedLD",
          "type": "uint256"
        },
        {
          "internalType": "uint256",
          "name": "amountToCreditLD",
          "type": "uint256"
        }
      ],
      "stateMutability": "view",
      "type": "function"
    },
    {
      "inputs": [],
      "name": "decimalConversionRate",
      "outputs": [
        {
          "internalType": "uint256",
          "name": "",
          "type": "uint256"
        }
      ],
      "stateMutability": "view",
      "type": "function"
    },
    {
      "inputs": [],
      "name": "endpoint",
      "outputs": [
        {
          "internalType": "contract ILayerZeroEndpointV2",
          "name": "",
          "type": "address"
        }
      ],
      "stateMutability": "view",
      "type": "function"
    },
    {
      "inputs": [
        {
          "internalType": "uint32",
          "name": "eid",
          "type": "uint32"
        },
        {
          "internalType": "uint16",
          "name": "msgType",
          "type": "uint16"
        }
      ],
      "name": "enforcedOptions",
      "outputs": [
        {
          "internalType": "bytes",
          "name": "enforcedOption",
          "type": "bytes"
        }
      ],
      "stateMutability": "view",
      "type": "function"
    },
    {
      "inputs": [
        {
          "components": [
            {
              "internalType": "uint32",
              "name": "srcEid",
              "type": "uint32"
            },
            {
              "internalType": "bytes32",
              "name": "sender",
              "type": "bytes32"
            },
            {
              "internalType": "uint64",
              "name": "nonce",
              "type": "uint64"
            }
          ],
          "internalType": "struct Origin",
          "name": "",
          "type": "tuple"
        },
        {
          "internalType": "bytes",
          "name": "",
          "type": "bytes"
        },
        {
          "internalType": "address",
          "name": "_sender",
          "type": "address"
        }
      ],
      "name": "isComposeMsgSender",
      "outputs": [
        {
          "internalType": "bool",
          "name": "",
          "type": "bool"
        }
      ],
      "stateMutability": "view",
      "type": "function"
    },
    {
      "inputs": [
        {
          "internalType": "uint32",
          "name": "_eid",
          "type": "uint32"
        },
        {
          "internalType": "bytes32",
          "name": "_peer",
          "type": "bytes32"
        }
      ],
      "name": "isPeer",
      "outputs": [
        {
          "internalType": "bool",
          "name": "",
          "type": "bool"
        }
      ],
      "stateMutability": "view",
      "type": "function"
    },
    {
      "inputs": [
        {
          "components": [
            {
              "internalType": "uint32",
              "name": "srcEid",
              "type": "uint32"
            },
            {
              "internalType": "bytes32",
              "name": "sender",
              "type": "bytes32"
            },
            {
              "internalType": "uint64",
              "name": "nonce",
              "type": "uint64"
            }
          ],
          "internalType": "struct Origin",
          "name": "_origin",
          "type": "tuple"
        },
        {
          "internalType": "bytes32",
          "name": "_guid",
          "type": "bytes32"
        },
        {
          "internalType": "bytes",
          "name": "_message",
          "type": "bytes"
        },
        {
          "internalType": "address",
          "name": "_executor",
          "type": "address"
        },
        {
          "internalType": "bytes",
          "name": "_extraData",
          "type": "bytes"
        }
      ],
      "name": "lzReceive",
      "outputs": [],
      "stateMutability": "payable",
      "type": "function"
    },
    {
      "inputs": [
        {
          "components": [
            {
              "components": [
                {
                  "internalType": "uint32",
                  "name": "srcEid",
                  "type": "uint32"
                },
                {
                  "internalType": "bytes32",
                  "name": "sender",
                  "type": "bytes32"
                },
                {
                  "internalType": "uint64",
                  "name": "nonce",
                  "type": "uint64"
                }
              ],
              "internalType": "struct Origin",
              "name": "origin",
              "type": "tuple"
            },
            {
              "internalType": "uint32",
              "name": "dstEid",
              "type": "uint32"
            },
            {
              "internalType": "address",
              "name": "receiver",
              "type": "address"
            },
            {
              "internalType": "bytes32",
              "name": "guid",
              "type": "bytes32"
            },
            {
              "internalType": "uint256",
              "name": "value",
              "type": "uint256"
            },
            {
              "internalType": "address",
              "name": "executor",
              "type": "address"
            },
            {
              "internalType": "bytes",
              "name": "message",
              "type": "bytes"
            },
            {
              "internalType": "bytes",
              "name": "extraData",
              "type": "bytes"
            }
          ],
          "internalType": "struct InboundPacket[]",
          "name": "_packets",
          "type": "tuple[]"
        }
      ],
      "name": "lzReceiveAndRevert",
      "outputs": [],
      "stateMutability": "payable",
      "type": "function"
    },
    {
      "inputs": [
        {
          "components": [
            {
              "internalType": "uint32",
              "name": "srcEid",
              "type": "uint32"
            },
            {
              "internalType": "bytes32",
              "name": "sender",
              "type": "bytes32"
            },
            {
              "internalType": "uint64",
              "name": "nonce",
              "type": "uint64"
            }
          ],
          "internalType": "struct Origin",
          "name": "_origin",
          "type": "tuple"
        },
        {
          "internalType": "bytes32",
          "name": "_guid",
          "type": "bytes32"
        },
        {
          "internalType": "bytes",
          "name": "_message",
          "type": "bytes"
        },
        {
          "internalType": "address",
          "name": "_executor",
          "type": "address"
        },
        {
          "internalType": "bytes",
          "name": "_extraData",
          "type": "bytes"
        }
      ],
      "name": "lzReceiveSimulate",
      "outputs": [],
      "stateMutability": "payable",
      "type": "function"
    },
    {
      "inputs": [],
      "name": "msgInspector",
      "outputs": [
        {
          "internalType": "address",
          "name": "",
          "type": "address"
        }
      ],
      "stateMutability": "view",
      "type": "function"
    },
    {
      "inputs": [
        {
          "internalType": "uint32",
          "name": "",
          "type": "uint32"
        },
        {
          "internalType": "bytes32",
          "name": "",
          "type": "bytes32"
        }
      ],
      "name": "nextNonce",
      "outputs": [
        {
          "internalType": "uint64",
          "name": "nonce",
          "type": "uint64"
        }
      ],
      "stateMutability": "view",
      "type": "function"
    },
    {
      "inputs": [],
      "name": "oApp",
      "outputs": [
        {
          "internalType": "address",
          "name": "",
          "type": "address"
        }
      ],
      "stateMutability": "view",
      "type": "function"
    },
    {
      "inputs": [],
      "name": "oAppVersion",
      "outputs": [
        {
          "internalType": "uint64",
          "name": "senderVersion",
          "type": "uint64"
        },
        {
          "internalType": "uint64",
          "name": "receiverVersion",
          "type": "uint64"
        }
      ],
      "stateMutability": "pure",
      "type": "function"
    },
    {
      "inputs": [],
      "name": "oftVersion",
      "outputs": [
        {
          "internalType": "bytes4",
          "name": "interfaceId",
          "type": "bytes4"
        },
        {
          "internalType": "uint64",
          "name": "version",
          "type": "uint64"
        }
      ],
      "stateMutability": "pure",
      "type": "function"
    },
    {
      "inputs": [],
      "name": "owner",
      "outputs": [
        {
          "internalType": "address",
          "name": "",
          "type": "address"
        }
      ],
      "stateMutability": "view",
      "type": "function"
    },
    {
      "inputs": [
        {
          "internalType": "uint32",
          "name": "eid",
          "type": "uint32"
        }
      ],
      "name": "peers",
      "outputs": [
        {
          "internalType": "bytes32",
          "name": "peer",
          "type": "bytes32"
        }
      ],
      "stateMutability": "view",
      "type": "function"
    },
    {
      "inputs": [],
      "name": "preCrime",
      "outputs": [
        {
          "internalType": "address",
          "name": "",
          "type": "address"
        }
      ],
      "stateMutability": "view",
      "type": "function"
    },
    {
      "inputs": [
        {
          "components": [
            {
              "internalType": "uint32",
              "name": "dstEid",
              "type": "uint32"
            },
            {
              "internalType": "bytes32",
              "name": "to",
              "type": "bytes32"
            },
            {
              "internalType": "uint256",
              "name": "amountLD",
              "type": "uint256"
            },
            {
              "internalType": "uint256",
              "name": "minAmountLD",
              "type": "uint256"
            },
            {
              "internalType": "bytes",
              "name": "extraOptions",
              "type": "bytes"
            },
            {
              "internalType": "bytes",
              "name": "composeMsg",
              "type": "bytes"
            },
            {
              "internalType": "bytes",
              "name": "oftCmd",
              "type": "bytes"
            }
          ],
          "internalType": "struct SendParam",
          "name": "_sendParam",
          "type": "tuple"
        }
      ],
      "name": "quoteOFT",
      "outputs": [
        {
          "components": [
            {
              "internalType": "uint256",
              "name": "minAmountLD",
              "type": "uint256"
            },
            {
              "internalType": "uint256",
              "name": "maxAmountLD",
              "type": "uint256"
            }
          ],
          "internalType": "struct OFTLimit",
          "name": "oftLimit",
          "type": "tuple"
        },
        {
          "components": [
            {
              "internalType": "int256",
              "name": "feeAmountLD",
              "type": "int256"
            },
            {
              "internalType": "string",
              "name": "description",
              "type": "string"
            }
          ],
          "internalType": "struct OFTFeeDetail[]",
          "name": "oftFeeDetails",
          "type": "tuple[]"
        },
        {
          "components": [
            {
              "internalType": "uint256",
              "name": "amountSentLD",
              "type": "uint256"
            },
            {
              "internalType": "uint256",
              "name": "amountReceivedLD",
              "type": "uint256"
            }
          ],
          "internalType": "struct OFTReceipt",
          "name": "oftReceipt",
          "type": "tuple"
        }
      ],
      "stateMutability": "view",
      "type": "function"
    },
    {
      "inputs": [
        {
          "components": [
            {
              "internalType": "uint32",
              "name": "dstEid",
              "type": "uint32"
            },
            {
              "internalType": "bytes32",
              "name": "to",
              "type": "bytes32"
            },
            {
              "internalType": "uint256",
              "name": "amountLD",
              "type": "uint256"
            },
            {
              "internalType": "uint256",
              "name": "minAmountLD",
              "type": "uint256"
            },
            {
              "internalType": "bytes",
              "name": "extraOptions",
              "type": "bytes"
            },
            {
              "internalType": "bytes",
              "name": "composeMsg",
              "type": "bytes"
            },
            {
              "internalType": "bytes",
              "name": "oftCmd",
              "type": "bytes"
            }
          ],
          "internalType": "struct SendParam",
          "name": "_sendParam",
          "type": "tuple"
        },
        {
          "internalType": "bool",
          "name": "_payInLzToken",
          "type": "bool"
        }
      ],
      "name": "quoteSend",
      "outputs": [
        {
          "components": [
            {
              "internalType": "uint256",
              "name": "nativeFee",
              "type": "uint256"
            },
            {
              "internalType": "uint256",
              "name": "lzTokenFee",
              "type": "uint256"
            }
          ],
          "internalType": "struct MessagingFee",
          "name": "msgFee",
          "type": "tuple"
        }
      ],
      "stateMutability": "view",
      "type": "function"
    },
    {
      "inputs": [
        {
          "internalType": "uint256",
          "name": "_amountLD",
          "type": "uint256"
        }
      ],
      "name": "removeDust",
      "outputs": [
        {
          "internalType": "uint256",
          "name": "amountLD",
          "type": "uint256"
        }
      ],
      "stateMutability": "view",
      "type": "function"
    },
    {
      "inputs": [],
      "name": "renounceOwnership",
      "outputs": [],
      "stateMutability": "nonpayable",
      "type": "function"
    },
    {
      "inputs": [
        {
          "components": [
            {
              "internalType": "uint32",
              "name": "dstEid",
              "type": "uint32"
            },
            {
              "internalType": "bytes32",
              "name": "to",
              "type": "bytes32"
            },
            {
              "internalType": "uint256",
              "name": "amountLD",
              "type": "uint256"
            },
            {
              "internalType": "uint256",
              "name": "minAmountLD",
              "type": "uint256"
            },
            {
              "internalType": "bytes",
              "name": "extraOptions",
              "type": "bytes"
            },
            {
              "internalType": "bytes",
              "name": "composeMsg",
              "type": "bytes"
            },
            {
              "internalType": "bytes",
              "name": "oftCmd",
              "type": "bytes"
            }
          ],
          "internalType": "struct SendParam",
          "name": "_sendParam",
          "type": "tuple"
        },
        {
          "components": [
            {
              "internalType": "uint256",
              "name": "nativeFee",
              "type": "uint256"
            },
            {
              "internalType": "uint256",
              "name": "lzTokenFee",
              "type": "uint256"
            }
          ],
          "internalType": "struct MessagingFee",
          "name": "_fee",
          "type": "tuple"
        },
        {
          "internalType": "address",
          "name": "_refundAddress",
          "type": "address"
        }
      ],
      "name": "send",
      "outputs": [
        {
          "components": [
            {
              "internalType": "bytes32",
              "name": "guid",
              "type": "bytes32"
            },
            {
              "internalType": "uint64",
              "name": "nonce",
              "type": "uint64"
            },
            {
              "components": [
                {
                  "internalType": "uint256",
                  "name": "nativeFee",
                  "type": "uint256"
                },
                {
                  "internalType": "uint256",
                  "name": "lzTokenFee",
                  "type": "uint256"
                }
              ],
              "internalType": "struct MessagingFee",
              "name": "fee",
              "type": "tuple"
            }
          ],
          "internalType": "struct MessagingReceipt",
          "name": "msgReceipt",
          "type": "tuple"
        },
        {
          "components": [
            {
              "internalType": "uint256",
              "name": "amountSentLD",
              "type": "uint256"
            },
            {
              "internalType": "uint256",
              "name": "amountReceivedLD",
              "type": "uint256"
            }
          ],
          "internalType": "struct OFTReceipt",
          "name": "oftReceipt",
          "type": "tuple"
        }
      ],
      "stateMutability": "payable",
      "type": "function"
    },
    {
      "inputs": [
        {
          "internalType": "address",
          "name": "_delegate",
          "type": "address"
        }
      ],
      "name": "setDelegate",
      "outputs": [],
      "stateMutability": "nonpayable",
      "type": "function"
    },
    {
      "inputs": [
        {
          "components": [
            {
              "internalType": "uint32",
              "name": "eid",
              "type": "uint32"
            },
            {
              "internalType": "uint16",
              "name": "msgType",
              "type": "uint16"
            },
            {
              "internalType": "bytes",
              "name": "options",
              "type": "bytes"
            }
          ],
          "internalType": "struct EnforcedOptionParam[]",
          "name": "_enforcedOptions",
          "type": "tuple[]"
        }
      ],
      "name": "setEnforcedOptions",
      "outputs": [],
      "stateMutability": "nonpayable",
      "type": "function"
    },
    {
      "inputs": [
        {
          "internalType": "address",
          "name": "_msgInspector",
          "type": "address"
        }
      ],
      "name": "setMsgInspector",
      "outputs": [],
      "stateMutability": "nonpayable",
      "type": "function"
    },
    {
      "inputs": [
        {
          "internalType": "uint32",
          "name": "_eid",
          "type": "uint32"
        },
        {
          "internalType": "bytes32",
          "name": "_peer",
          "type": "bytes32"
        }
      ],
      "name": "setPeer",
      "outputs": [],
      "stateMutability": "nonpayable",
      "type": "function"
    },
    {
      "inputs": [
        {
          "internalType": "address",
          "name": "_preCrime",
          "type": "address"
        }
      ],
      "name": "setPreCrime",
      "outputs": [],
      "stateMutability": "nonpayable",
      "type": "function"
    },
    {
      "inputs": [],
      "name": "sharedDecimals",
      "outputs": [
        {
          "internalType": "uint8",
          "name": "",
          "type": "uint8"
        }
      ],
      "stateMutability": "view",
      "type": "function"
    },
    {
      "inputs": [],
      "name": "token",
      "outputs": [
        {
          "internalType": "address",
          "name": "",
          "type": "address"
        }
      ],
      "stateMutability": "view",
      "type": "function"
    },
    {
      "inputs": [
        {
          "internalType": "address",
          "name": "newOwner",
          "type": "address"
        }
      ],
      "name": "transferOwnership",
      "outputs": [],
      "stateMutability": "nonpayable",
      "type": "function"
    }
  ],
  "bytecode": "0x60e06040523480156200001157600080fd5b506040516200325d3803806200325d833981016040819052620000349162000223565b828282826001600160a01b031663313ce5676040518163ffffffff1660e01b8152600401602060405180830381865afa15801562000076573d6000803e3d6000fd5b505050506040513d601f19601f820116820180604052508101906200009c91906200026d565b828281818181620000ad33620001b1565b6001600160a01b038083166080528116620000db57604051632d618d8160e21b815260040160405180910390fd5b60805160405163ca5eb5e160e01b81526001600160a01b0383811660048301529091169063ca5eb5e190602401600060405180830381600087803b1580156200012357600080fd5b505af115801562000138573d6000803e3d6000fd5b5050505050505050620001506200020160201b60201c565b60ff168360ff16101562000177576040516301e9714b60e41b815260040160405180910390fd5b62000184600684620002af565b6200019190600a620003ce565b60a0525050506001600160a01b0390921660c05250620003df9350505050565b600080546001600160a01b038381166001600160a01b0319831681178455604051919092169283917f8be0079c531659141344cd1fd0a4f28419497f9722a3daafe3b4186f6b6457e09190a35050565b600690565b80516001600160a01b03811681146200021e57600080fd5b919050565b6000806000606084860312156200023957600080fd5b620002448462000206565b9250620002546020850162000206565b9150620002646040850162000206565b90509250925092565b6000602082840312156200028057600080fd5b815160ff811681146200029257600080fd5b9392505050565b634e487b7160e01b600052601160045260246000fd5b60ff8281168282160390811115620002cb57620002cb62000299565b92915050565b600181815b8085111562000312578160001904821115620002f657620002f662000299565b808516156200030457918102915b93841c9390800290620002d6565b509250929050565b6000826200032b57506001620002cb565b816200033a57506000620002cb565b81600181146200035357600281146200035e576200037e565b6001915050620002cb565b60ff84111562000372576200037262000299565b50506001821b620002cb565b5060208310610133831016604e8410600b8410161715620003a3575081810a620002cb565b620003af8383620002d1565b8060001904821115620003c657620003c662000299565b029392505050565b60006200029260ff8416836200031a565b60805160a05160c051612dfa620004636000396000818161068f015281816114c501526115140152600081816104d6015281816116d60152818161183a01526118ec0152600081816103e10152818161085101528181610e880152818161113e015281816113eb01528181611a6401528181611c3d0152611cf60152612dfa6000f3fe6080604052600436106101aa5760003560e01c80630d35b415146101af578063111ecdad146101e757806313137d6514610214578063134d4f2514610229578063156a0d0f1461025157806317442b70146102785780631f5e13341461029a5780633400288b146102af5780633b6f743b146102cf5780634dba701b146102fc57806352ae28791461032a57806354f524141461033d5780635535d461146103725780635a0dfe4d1461039f5780635e280f11146103cf5780636fc1b31e14610403578063715018a6146104235780637d25a05e1461043857806382413eac14610473578063857749b0146104935780638da5cb5b146104af578063963efcaa146104c45780639f68b964146104f8578063b731ea0a1461050c578063b98bd0701461052c578063bb0b6a531461054c578063bc70b35414610579578063bd815db014610599578063c0779988146105ac578063c7c7f5b3146105cc578063ca5eb5e1146105ed578063d045a0dc1461060d578063d424388514610620578063f016302314610640578063f2fde38b14610660578063fc0c546a14610680578063ff7bd03d146106b3575b600080fd5b3480156101bb57600080fd5b506101cf6101ca366004611e84565b6106d3565b6040516101de93929190611f17565b60405180910390f35b3480156101f357600080fd5b50600454610207906001600160a01b031681565b6040516101de9190611fa4565b610227610222366004612027565b61084f565b005b34801561023557600080fd5b5061023e600281565b60405161ffff90911681526020016101de565b34801561025d57600080fd5b506040805162b9270b60e21b815260016020820152016101de565b34801561028457600080fd5b50604080516001815260026020820152016101de565b3480156102a657600080fd5b5061023e600181565b3480156102bb57600080fd5b506102276102ca3660046120df565b610907565b3480156102db57600080fd5b506102ef6102ea366004612117565b61091d565b6040516101de9190612168565b34801561030857600080fd5b5061031c610317366004612176565b61097a565b6040519081526020016101de565b34801561033657600080fd5b5030610207565b34801561034957600080fd5b5061035d6103583660046121b4565b610991565b604080519283526020830191909152016101de565b34801561037e57600080fd5b5061039261038d3660046121f2565b6109ad565b6040516101de9190612225565b3480156103ab57600080fd5b506103bf6103ba3660046120df565b610a52565b60405190151581526020016101de565b3480156103db57600080fd5b506102077f000000000000000000000000000000000000000000000000000000000000000081565b34801561040f57600080fd5b5061022761041e366004612238565b610a6e565b34801561042f57600080fd5b50610227610acc565b34801561044457600080fd5b5061045b6104533660046120df565b600092915050565b6040516001600160401b0390911681526020016101de565b34801561047f57600080fd5b506103bf61048e366004612255565b610ae0565b34801561049f57600080fd5b50604051600681526020016101de565b3480156104bb57600080fd5b50610207610af5565b3480156104d057600080fd5b5061031c7f000000000000000000000000000000000000000000000000000000000000000081565b34801561050457600080fd5b5060016103bf565b34801561051857600080fd5b50600254610207906001600160a01b031681565b34801561053857600080fd5b506102276105473660046122ff565b610b04565b34801561055857600080fd5b5061031c610567366004612340565b60016020526000908152604090205481565b34801561058557600080fd5b5061039261059436600461235b565b610b1e565b6102276105a73660046122ff565b610cc6565b3480156105b857600080fd5b5061031c6105c73660046123bb565b610e43565b6105df6105da3660046123d4565b610e4e565b6040516101de929190612441565b3480156105f957600080fd5b50610227610608366004612238565b610e69565b61022761061b366004612027565b610ef2565b34801561062c57600080fd5b5061022761063b366004612238565b610f21565b34801561064c57600080fd5b5061035d61065b3660046121b4565b610f74565b34801561066c57600080fd5b5061022761067b366004612238565b610f82565b34801561068c57600080fd5b507f0000000000000000000000000000000000000000000000000000000000000000610207565b3480156106bf57600080fd5b506103bf6106ce36600461247d565b610ffb565b604080518082019091526000808252602082015260606106f1611e2e565b600080306001600160a01b031663fc0c546a6040518163ffffffff1660e01b8152600401602060405180830381865afa158015610732573d6000803e3d6000fd5b505050506040513d601f19601f820116820180604052508101906107569190612499565b6001600160a01b03166318160ddd6040518163ffffffff1660e01b8152600401602060405180830381865afa158015610793573d6000803e3d6000fd5b505050506040513d601f19601f820116820180604052508101906107b791906124b6565b6040805180820182528481526020808201849052825160008082529181019093529097509192509061080c565b6040805180820190915260008152606060208201528152602001906001900390816107e45790505b509350600080610831604089013560608a013561082c60208c018c612340565b611031565b60408051808201909152918252602082015296989597505050505050565b7f00000000000000000000000000000000000000000000000000000000000000006001600160a01b031633146108a357336040516391ac5e4f60e01b815260040161089a9190611fa4565b60405180910390fd5b602087018035906108bd906108b8908a612340565b61106d565b146108ef576108cf6020880188612340565b876020013560405163309afaf360e21b815260040161089a9291906124e5565b6108fe878787878787876110a9565b50505050505050565b61090f611209565b6109198282611268565b5050565b610925611e2e565b60006109416040850135606086013561082c6020880188612340565b91505060008061095186846112be565b909250905061096e6109666020880188612340565b8383886113e1565b93505050505b92915050565b60006109878484846114b6565b90505b9392505050565b6000806109a0338686866114f4565b915091505b935093915050565b6003602090815260009283526040808420909152908252902080546109d1906124fb565b80601f01602080910402602001604051908101604052809291908181526020018280546109fd906124fb565b8015610a4a5780601f10610a1f57610100808354040283529160200191610a4a565b820191906000526020600020905b815481529060010190602001808311610a2d57829003601f168201915b505050505081565b63ffffffff919091166000908152600160205260409020541490565b610a76611209565b600480546001600160a01b0319166001600160a01b0383161790556040517ff0be4f1e87349231d80c36b33f9e8639658eeaf474014dee15a3e6a4d441419790610ac1908390611fa4565b60405180910390a150565b610ad4611209565b610ade6000611545565b565b6001600160a01b03811630145b949350505050565b6000546001600160a01b031690565b610b0c611209565b610919610b1982846125d0565b611595565b63ffffffff8416600090815260036020908152604080832061ffff87168452909152812080546060929190610b52906124fb565b80601f0160208091040260200160405190810160405280929190818152602001828054610b7e906124fb565b8015610bcb5780601f10610ba057610100808354040283529160200191610bcb565b820191906000526020600020905b815481529060010190602001808311610bae57829003601f168201915b505050505090508051600003610c1b5783838080601f016020809104026020016040519081016040528093929190818152602001838380828437600092019190915250929450610aed9350505050565b6000839003610c2b579050610aed565b60028310610ca957610c7284848080601f0160208091040260200160405190810160405280939291908181526020018383808284376000920191909152506116a692505050565b80610c8084600281886126e5565b604051602001610c929392919061270f565b604051602081830303815290604052915050610aed565b8383604051639a6d49cd60e01b815260040161089a929190612760565b60005b81811015610dc25736838383818110610ce457610ce4612774565b9050602002810190610cf6919061278a565b9050610d12610d086020830183612340565b6020830135610a52565b610d1c5750610db0565b3063d045a0dc60c08301358360a0810135610d3b6101008301836127ab565b610d4c610100890160e08a01612238565b610d5a6101208a018a6127ab565b6040518963ffffffff1660e01b8152600401610d7c9796959493929190612806565b6000604051808303818588803b158015610d9557600080fd5b505af1158015610da9573d6000803e3d6000fd5b5050505050505b80610dba816128a2565b915050610cc9565b50336001600160a01b0316638e9e70996040518163ffffffff1660e01b8152600401600060405180830381865afa158015610e01573d6000803e3d6000fd5b505050506040513d6000823e601f3d908101601f19168201604052610e2991908101906128bb565b604051638351eea760e01b815260040161089a9190612225565b6000610974826116d2565b610e56611e48565b610e5e611e2e565b6109a0858585611709565b610e71611209565b60405163ca5eb5e160e01b81526001600160a01b037f0000000000000000000000000000000000000000000000000000000000000000169063ca5eb5e190610ebd908490600401611fa4565b600060405180830381600087803b158015610ed757600080fd5b505af1158015610eeb573d6000803e3d6000fd5b5050505050565b333014610f125760405163029a949d60e31b815260040160405180910390fd5b6108fe878787878787876108ef565b610f29611209565b600280546001600160a01b0319166001600160a01b0383161790556040517fd48d879cef83a1c0bdda516f27b13ddb1b3f8bbac1c9e1511bb2a659c242776090610ac1908390611fa4565b6000806109a0858585611031565b610f8a611209565b6001600160a01b038116610fef5760405162461bcd60e51b815260206004820152602660248201527f4f776e61626c653a206e6577206f776e657220697320746865207a65726f206160448201526564647265737360d01b606482015260840161089a565b610ff881611545565b50565b60006020820180359060019083906110139086612340565b63ffffffff1681526020810191909152604001600020541492915050565b60008061103d856116d2565b9150819050838110156109a5576040516371c4efed60e01b8152600481018290526024810185905260440161089a565b63ffffffff8116600090815260016020526040812054806109745760405163f6ff4fb760e01b815263ffffffff8416600482015260240161089a565b60006110bb6110b887876117f8565b90565b905060006110e7826110d56110d08a8a611810565b611833565b6110e260208d018d612340565b6114b6565b905060288611156111ae57600061112461110760608c0160408d01612928565b61111460208d018d612340565b8461111f8c8c611868565b6118b3565b604051633e5ac80960e11b81529091506001600160a01b037f00000000000000000000000000000000000000000000000000000000000000001690637cb590129061117a9086908d906000908790600401612945565b600060405180830381600087803b15801561119457600080fd5b505af11580156111a8573d6000803e3d6000fd5b50505050505b6001600160a01b038216887fefed6d3500546b29533b128a29e3a94d70788727f0507505ac12eaf2e578fd9c6111e760208d018d612340565b846040516111f69291906124e5565b60405180910390a3505050505050505050565b33611212610af5565b6001600160a01b031614610ade5760405162461bcd60e51b815260206004820181905260248201527f4f776e61626c653a2063616c6c6572206973206e6f7420746865206f776e6572604482015260640161089a565b63ffffffff821660009081526001602052604090819020829055517f238399d427b947898edb290f5ff0f9109849b1c3ba196a42e35f00c50a54b98b906112b290849084906124e5565b60405180910390a15050565b606080600061131b85602001356112d4866118e5565b6112e160a08901896127ab565b8080601f01602080910402602001604051908101604052809392919081815260200183838082843760009201919091525061191192505050565b909350905060008161132e576001611331565b60025b90506113516113436020880188612340565b8261059460808a018a6127ab565b6004549093506001600160a01b031680156113d75760405163043a78eb60e01b81526001600160a01b0382169063043a78eb906113949088908890600401612980565b602060405180830381865afa1580156113b1573d6000803e3d6000fd5b505050506040513d601f19601f820116820180604052508101906113d591906129a5565b505b5050509250929050565b6113e9611e2e565b7f00000000000000000000000000000000000000000000000000000000000000006001600160a01b031663ddc28c586040518060a001604052808863ffffffff1681526020016114388961106d565b8152602001878152602001868152602001851515815250306040518363ffffffff1660e01b815260040161146d9291906129c2565b6040805180830381865afa158015611489573d6000803e3d6000fd5b505050506040513d601f19601f820116820180604052508101906114ad9190612a6b565b95945050505050565b60006114ec6001600160a01b037f000000000000000000000000000000000000000000000000000000000000000016858561198b565b509092915050565b600080611502858585611031565b909250905061153c6001600160a01b037f0000000000000000000000000000000000000000000000000000000000000000168730856119f3565b94509492505050565b600080546001600160a01b038381166001600160a01b0319831681178455604051919092169283917f8be0079c531659141344cd1fd0a4f28419497f9722a3daafe3b4186f6b6457e09190a35050565b60005b8151811015611676576115c78282815181106115b6576115b6612774565b6020026020010151604001516116a6565b8181815181106115d9576115d9612774565b602002602001015160400151600360008484815181106115fb576115fb612774565b60200260200101516000015163ffffffff1663ffffffff168152602001908152602001600020600084848151811061163557611635612774565b60200260200101516020015161ffff1661ffff16815260200190815260200160002090816116639190612ad5565b508061166e816128a2565b915050611598565b507fbe4864a8e820971c0247f5992e2da559595f7bf076a21cb5928d443d2a13b67481604051610ac19190612b94565b600281015161ffff81166003146109195781604051639a6d49cd60e01b815260040161089a9190612225565b60007f00000000000000000000000000000000000000000000000000000000000000006116ff8184612c1d565b6109749190612c3f565b611711611e48565b611719611e2e565b60008061173c33604089013560608a013561173760208c018c612340565b6114f4565b9150915060008061174d89846112be565b909250905061177961176260208b018b612340565b8383611773368d90038d018d612c56565b8b611a31565b60408051808201909152858152602080820186905282519298509096503391907f85496b760a4b7f8d66384b9df21b381f5d1b1e79f229a47aaf4c232edc2fe59a906117c7908d018d612340565b6040805163ffffffff909216825260208201899052810187905260600160405180910390a350505050935093915050565b600061180760208284866126e5565b61098a91612c88565b60006118206028602084866126e5565b61182991612ca6565b60c01c9392505050565b60006109747f00000000000000000000000000000000000000000000000000000000000000006001600160401b038416612c3f565b606061187782602881866126e5565b8080601f016020809104026020016040519081016040528093929190818152602001838380828437600092019190915250929695505050505050565b6060848484846040516020016118cc9493929190612cd6565b6040516020818303038152906040529050949350505050565b60006109747f000000000000000000000000000000000000000000000000000000000000000083612c1d565b805160609015158061195a57848460405160200161194692919091825260c01b6001600160c01b031916602082015260280190565b604051602081830303815290604052611981565b848433856040516020016119719493929190612d28565b6040516020818303038152906040525b9150935093915050565b6040516001600160a01b0383166024820152604481018290526119ee90849063a9059cbb60e01b906064015b60408051601f198184030181529190526020810180516001600160e01b03166001600160e01b031990931692909217909152611b3c565b505050565b6040516001600160a01b0380851660248301528316604482015260648101829052611a2b9085906323b872dd60e01b906084016119b7565b50505050565b611a39611e48565b6000611a488460000151611c11565b602085015190915015611a6257611a628460200151611c39565b7f00000000000000000000000000000000000000000000000000000000000000006001600160a01b0316632637a450826040518060a001604052808b63ffffffff168152602001611ab28c61106d565b81526020018a815260200189815260200160008960200151111515815250866040518463ffffffff1660e01b8152600401611aee9291906129c2565b60806040518083038185885af1158015611b0c573d6000803e3d6000fd5b50505050506040513d601f19601f82011682018060405250810190611b319190612d68565b979650505050505050565b6000611b91826040518060400160405280602081526020017f5361666545524332303a206c6f772d6c6576656c2063616c6c206661696c6564815250856001600160a01b0316611d1b9092919063ffffffff16565b9050805160001480611bb2575080806020019051810190611bb291906129a5565b6119ee5760405162461bcd60e51b815260206004820152602a60248201527f5361666545524332303a204552433230206f7065726174696f6e20646964206e6044820152691bdd081cdd58d8d9595960b21b606482015260840161089a565b6000813414611c35576040516304fb820960e51b815234600482015260240161089a565b5090565b60007f00000000000000000000000000000000000000000000000000000000000000006001600160a01b031663e4fe1d946040518163ffffffff1660e01b8152600401602060405180830381865afa158015611c99573d6000803e3d6000fd5b505050506040513d601f19601f82011682018060405250810190611cbd9190612499565b90506001600160a01b038116611ce6576040516329b99a9560e11b815260040160405180910390fd5b6109196001600160a01b038216337f0000000000000000000000000000000000000000000000000000000000000000856119f3565b6060610987848460008585600080866001600160a01b03168587604051611d429190612db2565b60006040518083038185875af1925050503d8060008114611d7f576040519150601f19603f3d011682016040523d82523d6000602084013e611d84565b606091505b5091509150611b318783838760608315611dff578251600003611df8576001600160a01b0385163b611df85760405162461bcd60e51b815260206004820152601d60248201527f416464726573733a2063616c6c20746f206e6f6e2d636f6e7472616374000000604482015260640161089a565b5081610aed565b610aed8383815115611e145781518083602001fd5b8060405162461bcd60e51b815260040161089a9190612225565b604051806040016040528060008152602001600081525090565b6040805160608101825260008082526020820152908101611e67611e2e565b905290565b600060e08284031215611e7e57600080fd5b50919050565b600060208284031215611e9657600080fd5b81356001600160401b03811115611eac57600080fd5b610aed84828501611e6c565b80518252602090810151910152565b60005b83811015611ee2578181015183820152602001611eca565b50506000910152565b60008151808452611f03816020860160208601611ec7565b601f01601f19169290920160200192915050565b600060a08201611f278387611eb8565b604060a08185015281865180845260c08601915060c08160051b8701019350602080890160005b83811015611f8d5788870360bf19018552815180518852830151838801879052611f7a87890182611eeb565b9750509382019390820190600101611f4e565b50505050505080915050610aed6060830184611eb8565b6001600160a01b0391909116815260200190565b600060608284031215611e7e57600080fd5b60008083601f840112611fdc57600080fd5b5081356001600160401b03811115611ff357600080fd5b60208301915083602082850101111561200b57600080fd5b9250929050565b6001600160a01b0381168114610ff857600080fd5b600080600080600080600060e0888a03121561204257600080fd5b61204c8989611fb8565b96506060880135955060808801356001600160401b038082111561206f57600080fd5b61207b8b838c01611fca565b909750955060a08a0135915061209082612012565b90935060c089013590808211156120a657600080fd5b506120b38a828b01611fca565b989b979a50959850939692959293505050565b803563ffffffff811681146120da57600080fd5b919050565b600080604083850312156120f257600080fd5b6120fb836120c6565b946020939093013593505050565b8015158114610ff857600080fd5b6000806040838503121561212a57600080fd5b82356001600160401b0381111561214057600080fd5b61214c85828601611e6c565b925050602083013561215d81612109565b809150509250929050565b604081016109748284611eb8565b60008060006060848603121561218b57600080fd5b833561219681612012565b9250602084013591506121ab604085016120c6565b90509250925092565b6000806000606084860312156121c957600080fd5b83359250602084013591506121ab604085016120c6565b803561ffff811681146120da57600080fd5b6000806040838503121561220557600080fd5b61220e836120c6565b915061221c602084016121e0565b90509250929050565b60208152600061098a6020830184611eeb565b60006020828403121561224a57600080fd5b813561098a81612012565b60008060008060a0858703121561226b57600080fd5b6122758686611fb8565b935060608501356001600160401b0381111561229057600080fd5b61229c87828801611fca565b90945092505060808501356122b081612012565b939692955090935050565b60008083601f8401126122cd57600080fd5b5081356001600160401b038111156122e457600080fd5b6020830191508360208260051b850101111561200b57600080fd5b6000806020838503121561231257600080fd5b82356001600160401b0381111561232857600080fd5b612334858286016122bb565b90969095509350505050565b60006020828403121561235257600080fd5b61098a826120c6565b6000806000806060858703121561237157600080fd5b61237a856120c6565b9350612388602086016121e0565b925060408501356001600160401b038111156123a357600080fd5b6123af87828801611fca565b95989497509550505050565b6000602082840312156123cd57600080fd5b5035919050565b600080600083850360808112156123ea57600080fd5b84356001600160401b0381111561240057600080fd5b61240c87828801611e6c565b9450506040601f198201121561242157600080fd5b50602084019150606084013561243681612012565b809150509250925092565b825181526020808401516001600160401b03169082015260408084015160c083019161246f90840182611eb8565b5061098a6080830184611eb8565b60006060828403121561248f57600080fd5b61098a8383611fb8565b6000602082840312156124ab57600080fd5b815161098a81612012565b6000602082840312156124c857600080fd5b5051919050565b634e487b7160e01b600052604160045260246000fd5b63ffffffff929092168252602082015260400190565b600181811c9082168061250f57607f821691505b602082108103611e7e57634e487b7160e01b600052602260045260246000fd5b604051606081016001600160401b0381118282101715612551576125516124cf565b60405290565b604080519081016001600160401b0381118282101715612551576125516124cf565b604051601f8201601f191681016001600160401b03811182821017156125a1576125a16124cf565b604052919050565b60006001600160401b038211156125c2576125c26124cf565b50601f01601f191660200190565b60006001600160401b03808411156125ea576125ea6124cf565b8360051b60206125fb818301612579565b86815291850191818101903684111561261357600080fd5b865b848110156126d95780358681111561262d5760008081fd5b880160603682900312156126415760008081fd5b61264961252f565b612652826120c6565b815261265f8683016121e0565b86820152604080830135898111156126775760008081fd5b929092019136601f84011261268c5760008081fd5b823561269f61269a826125a9565b612579565b81815236898387010111156126b45760008081fd5b818986018a830137600091810189019190915290820152845250918301918301612615565b50979650505050505050565b600080858511156126f557600080fd5b8386111561270257600080fd5b5050820193919092039150565b60008451612721818460208901611ec7565b8201838582376000930192835250909392505050565b81835281816020850137506000828201602090810191909152601f909101601f19169091010190565b602081526000610987602083018486612737565b634e487b7160e01b600052603260045260246000fd5b6000823561013e198336030181126127a157600080fd5b9190910192915050565b6000808335601e198436030181126127c257600080fd5b8301803591506001600160401b038211156127dc57600080fd5b60200191503681900382131561200b57600080fd5b6001600160401b0381168114610ff857600080fd5b63ffffffff612814896120c6565b1681526020880135602082015260006040890135612831816127f1565b6001600160401b031660408301526060820188905260e06080830181905261285c9083018789612737565b6001600160a01b03861660a084015282810360c084015261287e818587612737565b9a9950505050505050505050565b634e487b7160e01b600052601160045260246000fd5b6000600182016128b4576128b461288c565b5060010190565b6000602082840312156128cd57600080fd5b81516001600160401b038111156128e357600080fd5b8201601f810184136128f457600080fd5b805161290261269a826125a9565b81815285602083850101111561291757600080fd5b6114ad826020830160208601611ec7565b60006020828403121561293a57600080fd5b813561098a816127f1565b60018060a01b038516815283602082015261ffff831660408201526080606082015260006129766080830184611eeb565b9695505050505050565b6040815260006129936040830185611eeb565b82810360208401526114ad8185611eeb565b6000602082840312156129b757600080fd5b815161098a81612109565b6040815263ffffffff8351166040820152602083015160608201526000604084015160a060808401526129f860e0840182611eeb565b90506060850151603f198483030160a0850152612a158282611eeb565b60809690960151151560c08501525050506001600160a01b039190911660209091015290565b600060408284031215612a4d57600080fd5b612a55612557565b9050815181526020820151602082015292915050565b600060408284031215612a7d57600080fd5b61098a8383612a3b565b601f8211156119ee57600081815260208120601f850160051c81016020861015612aae5750805b601f850160051c820191505b81811015612acd57828155600101612aba565b505050505050565b81516001600160401b03811115612aee57612aee6124cf565b612b0281612afc84546124fb565b84612a87565b602080601f831160018114612b375760008415612b1f5750858301515b600019600386901b1c1916600185901b178555612acd565b600085815260208120601f198616915b82811015612b6657888601518255948401946001909101908401612b47565b5085821015612b845787850151600019600388901b60f8161c191681555b5050505050600190811b01905550565b60006020808301818452808551808352604092508286019150828160051b87010184880160005b83811015612c0f57888303603f190185528151805163ffffffff1684528781015161ffff16888501528601516060878501819052612bfb81860183611eeb565b968901969450505090860190600101612bbb565b509098975050505050505050565b600082612c3a57634e487b7160e01b600052601260045260246000fd5b500490565b80820281158282048414176109745761097461288c565b600060408284031215612c6857600080fd5b612c70612557565b82358152602083013560208201528091505092915050565b8035602083101561097457600019602084900360031b1b1692915050565b6001600160c01b03198135818116916008851015612cce5780818660080360031b1b83161692505b505092915050565b60c085901b6001600160c01b031916815260e084901b6001600160e01b0319166008820152600c81018390528151600090612d1881602c850160208701611ec7565b91909101602c0195945050505050565b84815260018060c01b03198460c01b16602082015282602882015260008251612d58816048850160208701611ec7565b9190910160480195945050505050565b600060808284031215612d7a57600080fd5b612d8261252f565b825181526020830151612d94816127f1565b6020820152612da68460408501612a3b565b60408201529392505050565b600082516127a1818460208701611ec756fea264697066735822122067ab6a3b6dc7d89bbf832665381758b9356a916a6d7e183e592b23beae3d1c7564736f6c63430008140033",
  "linkReferences": {},
  "deployedLinkReferences": {}
}