{
  "_format": "hh-sol-artifact-1",
  "contractName": "MockGlpVault",
  "sourceName": "contracts/mock/MockGlpVault.sol",
  "abi": [
    {
      "inputs": [],
      "name": "mintBurnFeeBasisPoints",
      "outputs": [
        {
          "internalType": "uint256",
          "name": "",
          "type": "uint256"
        }
      ],
      "stateMutability": "pure",
      "type": "function"
    },
    {
      "inputs": [],
      "name": "stableSwapFeeBasisPoints",
      "outputs": [
        {
          "internalType": "uint256",
          "name": "",
          "type": "uint256"
        }
      ],
      "stateMutability": "pure",
      "type": "function"
    },
    {
      "inputs": [],
      "name": "stableTaxBasisPoints",
      "outputs": [
        {
          "internalType": "uint256",
          "name": "",
          "type": "uint256"
        }
      ],
      "stateMutability": "pure",
      "type": "function"
    },
    {
      "inputs": [],
      "name": "swapFeeBasisPoints",
      "outputs": [
        {
          "internalType": "uint256",
          "name": "",
          "type": "uint256"
        }
      ],
      "stateMutability": "pure",
      "type": "function"
    },
    {
      "inputs": [],
      "name": "taxBasisPoints",
      "outputs": [
        {
          "internalType": "uint256",
          "name": "",
          "type": "uint256"
        }
      ],
      "stateMutability": "pure",
      "type": "function"
    }
  ],
  "bytecode": "0x608060405234801561001057600080fd5b5060b28061001f6000396000f3fe6080604052348015600f57600080fd5b506004361060505760003560e01c806310eb56c21460555780634d47b30414606a5780637a210a2b146070578063a22f239214606a578063df73a267146076575b600080fd5b60055b60405190815260200160405180910390f35b601e6058565b60326058565b6001605856fea26469706673582212201399ded69c13d139964f17d23c2e8b003de12b55473442270444ae630acbfa0f64736f6c63430008120033",
  "linkReferences": {},
  "deployedLinkReferences": {}
}