{
  "_format": "hh-sol-artifact-1",
  "contractName": "MockVaultGovV1",
  "sourceName": "contracts/mock/MockVaultGovV1.sol",
  "abi": [
    {
      "inputs": [
        {
          "internalType": "address",
          "name": "_vault",
          "type": "address"
        },
        {
          "internalType": "address",
          "name": "_token",
          "type": "address"
        },
        {
          "internalType": "address",
          "name": "_receiver",
          "type": "address"
        }
      ],
      "name": "withdrawFees",
      "outputs": [
        {
          "internalType": "uint256",
          "name": "",
          "type": "uint256"
        }
      ],
      "stateMutability": "nonpayable",
      "type": "function"
    }
  ],
  "bytecode": "0x608060405234801561001057600080fd5b50610185806100206000396000f3fe608060405234801561001057600080fd5b506004361061002b5760003560e01c80630e9587f314610030575b600080fd5b61004361003e3660046100f3565b610055565b60405190815260200160405180910390f35b604051631e4aaa4f60e31b81526001600160a01b0383811660048301528281166024830152600091829186169063f2555278906044016020604051808303816000875af11580156100aa573d6000803e3d6000fd5b505050506040513d601f19601f820116820180604052508101906100ce9190610136565b95945050505050565b80356001600160a01b03811681146100ee57600080fd5b919050565b60008060006060848603121561010857600080fd5b610111846100d7565b925061011f602085016100d7565b915061012d604085016100d7565b90509250925092565b60006020828403121561014857600080fd5b505191905056fea2646970667358221220b0b8cd5e5c295e1c48f870ccaee47e199d85f1a4c0546394d88651fe28e32d5d64736f6c63430008120033",
  "linkReferences": {},
  "deployedLinkReferences": {}
}