{
  "_format": "hh-sol-artifact-1",
  "contractName": "MockGMX_Adapter",
  "sourceName": "contracts/mock/MockGMX_Adapter.sol",
  "abi": [
    {
      "inputs": [
        {
          "components": [
            {
              "internalType": "uint32",
              "name": "dstEid",
              "type": "uint32"
            },
            {
              "internalType": "uint256",
              "name": "limit",
              "type": "uint256"
            },
            {
              "internalType": "uint256",
              "name": "window",
              "type": "uint256"
            }
          ],
          "internalType": "struct RateLimiter.RateLimitConfig[]",
          "name": "_rateLimitConfigs",
          "type": "tuple[]"
        },
        {
          "internalType": "address",
          "name": "_token",
          "type": "address"
        },
        {
          "internalType": "contract IMintableBurnable",
          "name": "_minterBurner",
          "type": "address"
        },
        {
          "internalType": "address",
          "name": "_lzEndpoint",
          "type": "address"
        },
        {
          "internalType": "address",
          "name": "_delegate",
          "type": "address"
        }
      ],
      "stateMutability": "nonpayable",
      "type": "constructor"
    },
    {
      "inputs": [
        {
          "internalType": "uint256",
          "name": "addressOrGUIDLength",
          "type": "uint256"
        },
        {
          "internalType": "uint256",
          "name": "overridableLength",
          "type": "uint256"
        }
      ],
      "name": "InputLengthMismatch",
      "type": "error"
    },
    {
      "inputs": [],
      "name": "InvalidDelegate",
      "type": "error"
    },
    {
      "inputs": [],
      "name": "InvalidEndpointCall",
      "type": "error"
    },
    {
      "inputs": [],
      "name": "InvalidLocalDecimals",
      "type": "error"
    },
    {
      "inputs": [
        {
          "internalType": "bytes",
          "name": "options",
          "type": "bytes"
        }
      ],
      "name": "InvalidOptions",
      "type": "error"
    },
    {
      "inputs": [],
      "name": "LzTokenUnavailable",
      "type": "error"
    },
    {
      "inputs": [
        {
          "internalType": "uint32",
          "name": "eid",
          "type": "uint32"
        }
      ],
      "name": "NoPeer",
      "type": "error"
    },
    {
      "inputs": [
        {
          "internalType": "uint256",
          "name": "msgValue",
          "type": "uint256"
        }
      ],
      "name": "NotEnoughNative",
      "type": "error"
    },
    {
      "inputs": [
        {
          "internalType": "address",
          "name": "addr",
          "type": "address"
        }
      ],
      "name": "OnlyEndpoint",
      "type": "error"
    },
    {
      "inputs": [
        {
          "internalType": "uint32",
          "name": "eid",
          "type": "uint32"
        },
        {
          "internalType": "bytes32",
          "name": "sender",
          "type": "bytes32"
        }
      ],
      "name": "OnlyPeer",
      "type": "error"
    },
    {
      "inputs": [],
      "name": "OnlySelf",
      "type": "error"
    },
    {
      "inputs": [],
      "name": "RateLimitExceeded",
      "type": "error"
    },
    {
      "inputs": [
        {
          "internalType": "bytes",
          "name": "result",
          "type": "bytes"
        }
      ],
      "name": "SimulationResult",
      "type": "error"
    },
    {
      "inputs": [
        {
          "internalType": "uint256",
          "name": "amountLD",
          "type": "uint256"
        },
        {
          "internalType": "uint256",
          "name": "minAmountLD",
          "type": "uint256"
        }
      ],
      "name": "SlippageExceeded",
      "type": "error"
    },
    {
      "anonymous": false,
      "inputs": [
        {
          "components": [
            {
              "internalType": "uint32",
              "name": "eid",
              "type": "uint32"
            },
            {
              "internalType": "uint16",
              "name": "msgType",
              "type": "uint16"
            },
            {
              "internalType": "bytes",
              "name": "options",
              "type": "bytes"
            }
          ],
          "indexed": false,
          "internalType": "struct EnforcedOptionParam[]",
          "name": "_enforcedOptions",
          "type": "tuple[]"
        }
      ],
      "name": "EnforcedOptionSet",
      "type": "event"
    },
    {
      "anonymous": false,
      "inputs": [
        {
          "indexed": false,
          "internalType": "address",
          "name": "inspector",
          "type": "address"
        }
      ],
      "name": "MsgInspectorSet",
      "type": "event"
    },
    {
      "anonymous": false,
      "inputs": [
        {
          "indexed": true,
          "internalType": "bytes32",
          "name": "guid",
          "type": "bytes32"
        },
        {
          "indexed": false,
          "internalType": "uint32",
          "name": "srcEid",
          "type": "uint32"
        },
        {
          "indexed": true,
          "internalType": "address",
          "name": "toAddress",
          "type": "address"
        },
        {
          "indexed": false,
          "internalType": "uint256",
          "name": "amountReceivedLD",
          "type": "uint256"
        }
      ],
      "name": "OFTReceived",
      "type": "event"
    },
    {
      "anonymous": false,
      "inputs": [
        {
          "indexed": true,
          "internalType": "bytes32",
          "name": "guid",
          "type": "bytes32"
        },
        {
          "indexed": false,
          "internalType": "uint32",
          "name": "dstEid",
          "type": "uint32"
        },
        {
          "indexed": true,
          "internalType": "address",
          "name": "fromAddress",
          "type": "address"
        },
        {
          "indexed": false,
          "internalType": "uint256",
          "name": "amountSentLD",
          "type": "uint256"
        },
        {
          "indexed": false,
          "internalType": "uint256",
          "name": "amountReceivedLD",
          "type": "uint256"
        }
      ],
      "name": "OFTSent",
      "type": "event"
    },
    {
      "anonymous": false,
      "inputs": [
        {
          "indexed": true,
          "internalType": "address",
          "name": "previousOwner",
          "type": "address"
        },
        {
          "indexed": true,
          "internalType": "address",
          "name": "newOwner",
          "type": "address"
        }
      ],
      "name": "OwnershipTransferred",
      "type": "event"
    },
    {
      "anonymous": false,
      "inputs": [
        {
          "indexed": false,
          "internalType": "uint32",
          "name": "eid",
          "type": "uint32"
        },
        {
          "indexed": false,
          "internalType": "bytes32",
          "name": "peer",
          "type": "bytes32"
        }
      ],
      "name": "PeerSet",
      "type": "event"
    },
    {
      "anonymous": false,
      "inputs": [
        {
          "indexed": false,
          "internalType": "address",
          "name": "preCrimeAddress",
          "type": "address"
        }
      ],
      "name": "PreCrimeSet",
      "type": "event"
    },
    {
      "anonymous": false,
      "inputs": [
        {
          "components": [
            {
              "internalType": "address",
              "name": "addr",
              "type": "address"
            },
            {
              "internalType": "bool",
              "name": "isExempt",
              "type": "bool"
            }
          ],
          "indexed": true,
          "internalType": "struct RateLimitExemptAddress[]",
          "name": "addresses",
          "type": "tuple[]"
        }
      ],
      "name": "RateLimitOverrider_ModifiedAddress",
      "type": "event"
    },
    {
      "anonymous": false,
      "inputs": [
        {
          "indexed": true,
          "internalType": "bytes32[]",
          "name": "guid",
          "type": "bytes32[]"
        },
        {
          "indexed": false,
          "internalType": "bool",
          "name": "canOverride",
          "type": "bool"
        }
      ],
      "name": "RateLimitOverrider_ModifiedGUID",
      "type": "event"
    },
    {
      "anonymous": false,
      "inputs": [
        {
          "components": [
            {
              "internalType": "uint32",
              "name": "dstEid",
              "type": "uint32"
            },
            {
              "internalType": "uint256",
              "name": "limit",
              "type": "uint256"
            },
            {
              "internalType": "uint256",
              "name": "window",
              "type": "uint256"
            }
          ],
          "indexed": false,
          "internalType": "struct RateLimiter.RateLimitConfig[]",
          "name": "newConfigs",
          "type": "tuple[]"
        }
      ],
      "name": "RateLimitUpdated",
      "type": "event"
    },
    {
      "anonymous": false,
      "inputs": [
        {
          "components": [
            {
              "internalType": "uint32",
              "name": "dstEid",
              "type": "uint32"
            },
            {
              "internalType": "uint256",
              "name": "limit",
              "type": "uint256"
            },
            {
              "internalType": "uint256",
              "name": "window",
              "type": "uint256"
            }
          ],
          "indexed": false,
          "internalType": "struct RateLimiter.RateLimitConfig[]",
          "name": "rateLimitConfigs",
          "type": "tuple[]"
        }
      ],
      "name": "RateLimitsChanged",
      "type": "event"
    },
    {
      "inputs": [],
      "name": "SEND",
      "outputs": [
        {
          "internalType": "uint16",
          "name": "",
          "type": "uint16"
        }
      ],
      "stateMutability": "view",
      "type": "function"
    },
    {
      "inputs": [],
      "name": "SEND_AND_CALL",
      "outputs": [
        {
          "internalType": "uint16",
          "name": "",
          "type": "uint16"
        }
      ],
      "stateMutability": "view",
      "type": "function"
    },
    {
      "inputs": [
        {
          "components": [
            {
              "internalType": "uint32",
              "name": "srcEid",
              "type": "uint32"
            },
            {
              "internalType": "bytes32",
              "name": "sender",
              "type": "bytes32"
            },
            {
              "internalType": "uint64",
              "name": "nonce",
              "type": "uint64"
            }
          ],
          "internalType": "struct Origin",
          "name": "origin",
          "type": "tuple"
        }
      ],
      "name": "allowInitializePath",
      "outputs": [
        {
          "internalType": "bool",
          "name": "",
          "type": "bool"
        }
      ],
      "stateMutability": "view",
      "type": "function"
    },
    {
      "inputs": [],
      "name": "approvalRequired",
      "outputs": [
        {
          "internalType": "bool",
          "name": "",
          "type": "bool"
        }
      ],
      "stateMutability": "pure",
      "type": "function"
    },
    {
      "inputs": [
        {
          "internalType": "uint32",
          "name": "_eid",
          "type": "uint32"
        },
        {
          "internalType": "uint16",
          "name": "_msgType",
          "type": "uint16"
        },
        {
          "internalType": "bytes",
          "name": "_extraOptions",
          "type": "bytes"
        }
      ],
      "name": "combineOptions",
      "outputs": [
        {
          "internalType": "bytes",
          "name": "",
          "type": "bytes"
        }
      ],
      "stateMutability": "view",
      "type": "function"
    },
    {
      "inputs": [],
      "name": "decimalConversionRate",
      "outputs": [
        {
          "internalType": "uint256",
          "name": "",
          "type": "uint256"
        }
      ],
      "stateMutability": "view",
      "type": "function"
    },
    {
      "inputs": [],
      "name": "endpoint",
      "outputs": [
        {
          "internalType": "contract ILayerZeroEndpointV2",
          "name": "",
          "type": "address"
        }
      ],
      "stateMutability": "view",
      "type": "function"
    },
    {
      "inputs": [
        {
          "internalType": "uint32",
          "name": "eid",
          "type": "uint32"
        },
        {
          "internalType": "uint16",
          "name": "msgType",
          "type": "uint16"
        }
      ],
      "name": "enforcedOptions",
      "outputs": [
        {
          "internalType": "bytes",
          "name": "enforcedOption",
          "type": "bytes"
        }
      ],
      "stateMutability": "view",
      "type": "function"
    },
    {
      "inputs": [
        {
          "internalType": "address",
          "name": "",
          "type": "address"
        }
      ],
      "name": "exemptAddresses",
      "outputs": [
        {
          "internalType": "bool",
          "name": "",
          "type": "bool"
        }
      ],
      "stateMutability": "view",
      "type": "function"
    },
    {
      "inputs": [
        {
          "internalType": "uint32",
          "name": "_dstEid",
          "type": "uint32"
        }
      ],
      "name": "getAmountCanBeSent",
      "outputs": [
        {
          "internalType": "uint256",
          "name": "currentAmountInFlight",
          "type": "uint256"
        },
        {
          "internalType": "uint256",
          "name": "amountCanBeSent",
          "type": "uint256"
        }
      ],
      "stateMutability": "view",
      "type": "function"
    },
    {
      "inputs": [
        {
          "internalType": "bytes32",
          "name": "",
          "type": "bytes32"
        }
      ],
      "name": "guidOverrides",
      "outputs": [
        {
          "internalType": "bool",
          "name": "",
          "type": "bool"
        }
      ],
      "stateMutability": "view",
      "type": "function"
    },
    {
      "inputs": [
        {
          "components": [
            {
              "internalType": "uint32",
              "name": "srcEid",
              "type": "uint32"
            },
            {
              "internalType": "bytes32",
              "name": "sender",
              "type": "bytes32"
            },
            {
              "internalType": "uint64",
              "name": "nonce",
              "type": "uint64"
            }
          ],
          "internalType": "struct Origin",
          "name": "",
          "type": "tuple"
        },
        {
          "internalType": "bytes",
          "name": "",
          "type": "bytes"
        },
        {
          "internalType": "address",
          "name": "_sender",
          "type": "address"
        }
      ],
      "name": "isComposeMsgSender",
      "outputs": [
        {
          "internalType": "bool",
          "name": "",
          "type": "bool"
        }
      ],
      "stateMutability": "view",
      "type": "function"
    },
    {
      "inputs": [
        {
          "internalType": "uint32",
          "name": "_eid",
          "type": "uint32"
        },
        {
          "internalType": "bytes32",
          "name": "_peer",
          "type": "bytes32"
        }
      ],
      "name": "isPeer",
      "outputs": [
        {
          "internalType": "bool",
          "name": "",
          "type": "bool"
        }
      ],
      "stateMutability": "view",
      "type": "function"
    },
    {
      "inputs": [
        {
          "components": [
            {
              "internalType": "uint32",
              "name": "srcEid",
              "type": "uint32"
            },
            {
              "internalType": "bytes32",
              "name": "sender",
              "type": "bytes32"
            },
            {
              "internalType": "uint64",
              "name": "nonce",
              "type": "uint64"
            }
          ],
          "internalType": "struct Origin",
          "name": "_origin",
          "type": "tuple"
        },
        {
          "internalType": "bytes32",
          "name": "_guid",
          "type": "bytes32"
        },
        {
          "internalType": "bytes",
          "name": "_message",
          "type": "bytes"
        },
        {
          "internalType": "address",
          "name": "_executor",
          "type": "address"
        },
        {
          "internalType": "bytes",
          "name": "_extraData",
          "type": "bytes"
        }
      ],
      "name": "lzReceive",
      "outputs": [],
      "stateMutability": "payable",
      "type": "function"
    },
    {
      "inputs": [
        {
          "components": [
            {
              "components": [
                {
                  "internalType": "uint32",
                  "name": "srcEid",
                  "type": "uint32"
                },
                {
                  "internalType": "bytes32",
                  "name": "sender",
                  "type": "bytes32"
                },
                {
                  "internalType": "uint64",
                  "name": "nonce",
                  "type": "uint64"
                }
              ],
              "internalType": "struct Origin",
              "name": "origin",
              "type": "tuple"
            },
            {
              "internalType": "uint32",
              "name": "dstEid",
              "type": "uint32"
            },
            {
              "internalType": "address",
              "name": "receiver",
              "type": "address"
            },
            {
              "internalType": "bytes32",
              "name": "guid",
              "type": "bytes32"
            },
            {
              "internalType": "uint256",
              "name": "value",
              "type": "uint256"
            },
            {
              "internalType": "address",
              "name": "executor",
              "type": "address"
            },
            {
              "internalType": "bytes",
              "name": "message",
              "type": "bytes"
            },
            {
              "internalType": "bytes",
              "name": "extraData",
              "type": "bytes"
            }
          ],
          "internalType": "struct InboundPacket[]",
          "name": "_packets",
          "type": "tuple[]"
        }
      ],
      "name": "lzReceiveAndRevert",
      "outputs": [],
      "stateMutability": "payable",
      "type": "function"
    },
    {
      "inputs": [
        {
          "components": [
            {
              "internalType": "uint32",
              "name": "srcEid",
              "type": "uint32"
            },
            {
              "internalType": "bytes32",
              "name": "sender",
              "type": "bytes32"
            },
            {
              "internalType": "uint64",
              "name": "nonce",
              "type": "uint64"
            }
          ],
          "internalType": "struct Origin",
          "name": "_origin",
          "type": "tuple"
        },
        {
          "internalType": "bytes32",
          "name": "_guid",
          "type": "bytes32"
        },
        {
          "internalType": "bytes",
          "name": "_message",
          "type": "bytes"
        },
        {
          "internalType": "address",
          "name": "_executor",
          "type": "address"
        },
        {
          "internalType": "bytes",
          "name": "_extraData",
          "type": "bytes"
        }
      ],
      "name": "lzReceiveSimulate",
      "outputs": [],
      "stateMutability": "payable",
      "type": "function"
    },
    {
      "inputs": [],
      "name": "minterBurner",
      "outputs": [
        {
          "internalType": "contract IMintableBurnable",
          "name": "",
          "type": "address"
        }
      ],
      "stateMutability": "view",
      "type": "function"
    },
    {
      "inputs": [
        {
          "internalType": "bytes32[]",
          "name": "_guids",
          "type": "bytes32[]"
        },
        {
          "internalType": "bool",
          "name": "_canOverride",
          "type": "bool"
        }
      ],
      "name": "modifyOverridableGUIDs",
      "outputs": [],
      "stateMutability": "nonpayable",
      "type": "function"
    },
    {
      "inputs": [
        {
          "components": [
            {
              "internalType": "address",
              "name": "addr",
              "type": "address"
            },
            {
              "internalType": "bool",
              "name": "isExempt",
              "type": "bool"
            }
          ],
          "internalType": "struct RateLimitExemptAddress[]",
          "name": "_exemptAddresses",
          "type": "tuple[]"
        }
      ],
      "name": "modifyRateLimitExemptAddresses",
      "outputs": [],
      "stateMutability": "nonpayable",
      "type": "function"
    },
    {
      "inputs": [],
      "name": "msgInspector",
      "outputs": [
        {
          "internalType": "address",
          "name": "",
          "type": "address"
        }
      ],
      "stateMutability": "view",
      "type": "function"
    },
    {
      "inputs": [
        {
          "internalType": "uint32",
          "name": "",
          "type": "uint32"
        },
        {
          "internalType": "bytes32",
          "name": "",
          "type": "bytes32"
        }
      ],
      "name": "nextNonce",
      "outputs": [
        {
          "internalType": "uint64",
          "name": "nonce",
          "type": "uint64"
        }
      ],
      "stateMutability": "view",
      "type": "function"
    },
    {
      "inputs": [],
      "name": "oApp",
      "outputs": [
        {
          "internalType": "address",
          "name": "",
          "type": "address"
        }
      ],
      "stateMutability": "view",
      "type": "function"
    },
    {
      "inputs": [],
      "name": "oAppVersion",
      "outputs": [
        {
          "internalType": "uint64",
          "name": "senderVersion",
          "type": "uint64"
        },
        {
          "internalType": "uint64",
          "name": "receiverVersion",
          "type": "uint64"
        }
      ],
      "stateMutability": "pure",
      "type": "function"
    },
    {
      "inputs": [],
      "name": "oftVersion",
      "outputs": [
        {
          "internalType": "bytes4",
          "name": "interfaceId",
          "type": "bytes4"
        },
        {
          "internalType": "uint64",
          "name": "version",
          "type": "uint64"
        }
      ],
      "stateMutability": "pure",
      "type": "function"
    },
    {
      "inputs": [],
      "name": "owner",
      "outputs": [
        {
          "internalType": "address",
          "name": "",
          "type": "address"
        }
      ],
      "stateMutability": "view",
      "type": "function"
    },
    {
      "inputs": [
        {
          "internalType": "uint32",
          "name": "eid",
          "type": "uint32"
        }
      ],
      "name": "peers",
      "outputs": [
        {
          "internalType": "bytes32",
          "name": "peer",
          "type": "bytes32"
        }
      ],
      "stateMutability": "view",
      "type": "function"
    },
    {
      "inputs": [],
      "name": "preCrime",
      "outputs": [
        {
          "internalType": "address",
          "name": "",
          "type": "address"
        }
      ],
      "stateMutability": "view",
      "type": "function"
    },
    {
      "inputs": [
        {
          "components": [
            {
              "internalType": "uint32",
              "name": "dstEid",
              "type": "uint32"
            },
            {
              "internalType": "bytes32",
              "name": "to",
              "type": "bytes32"
            },
            {
              "internalType": "uint256",
              "name": "amountLD",
              "type": "uint256"
            },
            {
              "internalType": "uint256",
              "name": "minAmountLD",
              "type": "uint256"
            },
            {
              "internalType": "bytes",
              "name": "extraOptions",
              "type": "bytes"
            },
            {
              "internalType": "bytes",
              "name": "composeMsg",
              "type": "bytes"
            },
            {
              "internalType": "bytes",
              "name": "oftCmd",
              "type": "bytes"
            }
          ],
          "internalType": "struct SendParam",
          "name": "_sendParam",
          "type": "tuple"
        }
      ],
      "name": "quoteOFT",
      "outputs": [
        {
          "components": [
            {
              "internalType": "uint256",
              "name": "minAmountLD",
              "type": "uint256"
            },
            {
              "internalType": "uint256",
              "name": "maxAmountLD",
              "type": "uint256"
            }
          ],
          "internalType": "struct OFTLimit",
          "name": "oftLimit",
          "type": "tuple"
        },
        {
          "components": [
            {
              "internalType": "int256",
              "name": "feeAmountLD",
              "type": "int256"
            },
            {
              "internalType": "string",
              "name": "description",
              "type": "string"
            }
          ],
          "internalType": "struct OFTFeeDetail[]",
          "name": "oftFeeDetails",
          "type": "tuple[]"
        },
        {
          "components": [
            {
              "internalType": "uint256",
              "name": "amountSentLD",
              "type": "uint256"
            },
            {
              "internalType": "uint256",
              "name": "amountReceivedLD",
              "type": "uint256"
            }
          ],
          "internalType": "struct OFTReceipt",
          "name": "oftReceipt",
          "type": "tuple"
        }
      ],
      "stateMutability": "view",
      "type": "function"
    },
    {
      "inputs": [
        {
          "components": [
            {
              "internalType": "uint32",
              "name": "dstEid",
              "type": "uint32"
            },
            {
              "internalType": "bytes32",
              "name": "to",
              "type": "bytes32"
            },
            {
              "internalType": "uint256",
              "name": "amountLD",
              "type": "uint256"
            },
            {
              "internalType": "uint256",
              "name": "minAmountLD",
              "type": "uint256"
            },
            {
              "internalType": "bytes",
              "name": "extraOptions",
              "type": "bytes"
            },
            {
              "internalType": "bytes",
              "name": "composeMsg",
              "type": "bytes"
            },
            {
              "internalType": "bytes",
              "name": "oftCmd",
              "type": "bytes"
            }
          ],
          "internalType": "struct SendParam",
          "name": "_sendParam",
          "type": "tuple"
        },
        {
          "internalType": "bool",
          "name": "_payInLzToken",
          "type": "bool"
        }
      ],
      "name": "quoteSend",
      "outputs": [
        {
          "components": [
            {
              "internalType": "uint256",
              "name": "nativeFee",
              "type": "uint256"
            },
            {
              "internalType": "uint256",
              "name": "lzTokenFee",
              "type": "uint256"
            }
          ],
          "internalType": "struct MessagingFee",
          "name": "msgFee",
          "type": "tuple"
        }
      ],
      "stateMutability": "view",
      "type": "function"
    },
    {
      "inputs": [
        {
          "internalType": "uint32",
          "name": "dstEid",
          "type": "uint32"
        }
      ],
      "name": "rateLimits",
      "outputs": [
        {
          "internalType": "uint256",
          "name": "amountInFlight",
          "type": "uint256"
        },
        {
          "internalType": "uint256",
          "name": "lastUpdated",
          "type": "uint256"
        },
        {
          "internalType": "uint256",
          "name": "limit",
          "type": "uint256"
        },
        {
          "internalType": "uint256",
          "name": "window",
          "type": "uint256"
        }
      ],
      "stateMutability": "view",
      "type": "function"
    },
    {
      "inputs": [],
      "name": "renounceOwnership",
      "outputs": [],
      "stateMutability": "nonpayable",
      "type": "function"
    },
    {
      "inputs": [
        {
          "components": [
            {
              "internalType": "uint32",
              "name": "dstEid",
              "type": "uint32"
            },
            {
              "internalType": "bytes32",
              "name": "to",
              "type": "bytes32"
            },
            {
              "internalType": "uint256",
              "name": "amountLD",
              "type": "uint256"
            },
            {
              "internalType": "uint256",
              "name": "minAmountLD",
              "type": "uint256"
            },
            {
              "internalType": "bytes",
              "name": "extraOptions",
              "type": "bytes"
            },
            {
              "internalType": "bytes",
              "name": "composeMsg",
              "type": "bytes"
            },
            {
              "internalType": "bytes",
              "name": "oftCmd",
              "type": "bytes"
            }
          ],
          "internalType": "struct SendParam",
          "name": "_sendParam",
          "type": "tuple"
        },
        {
          "components": [
            {
              "internalType": "uint256",
              "name": "nativeFee",
              "type": "uint256"
            },
            {
              "internalType": "uint256",
              "name": "lzTokenFee",
              "type": "uint256"
            }
          ],
          "internalType": "struct MessagingFee",
          "name": "_fee",
          "type": "tuple"
        },
        {
          "internalType": "address",
          "name": "_refundAddress",
          "type": "address"
        }
      ],
      "name": "send",
      "outputs": [
        {
          "components": [
            {
              "internalType": "bytes32",
              "name": "guid",
              "type": "bytes32"
            },
            {
              "internalType": "uint64",
              "name": "nonce",
              "type": "uint64"
            },
            {
              "components": [
                {
                  "internalType": "uint256",
                  "name": "nativeFee",
                  "type": "uint256"
                },
                {
                  "internalType": "uint256",
                  "name": "lzTokenFee",
                  "type": "uint256"
                }
              ],
              "internalType": "struct MessagingFee",
              "name": "fee",
              "type": "tuple"
            }
          ],
          "internalType": "struct MessagingReceipt",
          "name": "msgReceipt",
          "type": "tuple"
        },
        {
          "components": [
            {
              "internalType": "uint256",
              "name": "amountSentLD",
              "type": "uint256"
            },
            {
              "internalType": "uint256",
              "name": "amountReceivedLD",
              "type": "uint256"
            }
          ],
          "internalType": "struct OFTReceipt",
          "name": "oftReceipt",
          "type": "tuple"
        }
      ],
      "stateMutability": "payable",
      "type": "function"
    },
    {
      "inputs": [
        {
          "internalType": "address",
          "name": "_delegate",
          "type": "address"
        }
      ],
      "name": "setDelegate",
      "outputs": [],
      "stateMutability": "nonpayable",
      "type": "function"
    },
    {
      "inputs": [
        {
          "components": [
            {
              "internalType": "uint32",
              "name": "eid",
              "type": "uint32"
            },
            {
              "internalType": "uint16",
              "name": "msgType",
              "type": "uint16"
            },
            {
              "internalType": "bytes",
              "name": "options",
              "type": "bytes"
            }
          ],
          "internalType": "struct EnforcedOptionParam[]",
          "name": "_enforcedOptions",
          "type": "tuple[]"
        }
      ],
      "name": "setEnforcedOptions",
      "outputs": [],
      "stateMutability": "nonpayable",
      "type": "function"
    },
    {
      "inputs": [
        {
          "internalType": "address",
          "name": "_msgInspector",
          "type": "address"
        }
      ],
      "name": "setMsgInspector",
      "outputs": [],
      "stateMutability": "nonpayable",
      "type": "function"
    },
    {
      "inputs": [
        {
          "internalType": "uint32",
          "name": "_eid",
          "type": "uint32"
        },
        {
          "internalType": "bytes32",
          "name": "_peer",
          "type": "bytes32"
        }
      ],
      "name": "setPeer",
      "outputs": [],
      "stateMutability": "nonpayable",
      "type": "function"
    },
    {
      "inputs": [
        {
          "internalType": "address",
          "name": "_preCrime",
          "type": "address"
        }
      ],
      "name": "setPreCrime",
      "outputs": [],
      "stateMutability": "nonpayable",
      "type": "function"
    },
    {
      "inputs": [
        {
          "components": [
            {
              "internalType": "uint32",
              "name": "dstEid",
              "type": "uint32"
            },
            {
              "internalType": "uint256",
              "name": "limit",
              "type": "uint256"
            },
            {
              "internalType": "uint256",
              "name": "window",
              "type": "uint256"
            }
          ],
          "internalType": "struct RateLimiter.RateLimitConfig[]",
          "name": "_rateLimitConfigs",
          "type": "tuple[]"
        }
      ],
      "name": "setRateLimits",
      "outputs": [],
      "stateMutability": "nonpayable",
      "type": "function"
    },
    {
      "inputs": [],
      "name": "sharedDecimals",
      "outputs": [
        {
          "internalType": "uint8",
          "name": "",
          "type": "uint8"
        }
      ],
      "stateMutability": "view",
      "type": "function"
    },
    {
      "inputs": [],
      "name": "token",
      "outputs": [
        {
          "internalType": "address",
          "name": "",
          "type": "address"
        }
      ],
      "stateMutability": "view",
      "type": "function"
    },
    {
      "inputs": [
        {
          "internalType": "address",
          "name": "newOwner",
          "type": "address"
        }
      ],
      "name": "transferOwnership",
      "outputs": [],
      "stateMutability": "nonpayable",
      "type": "function"
    }
  ],
  "bytecode": "0x61010060405234801561001157600080fd5b50604051613fc9380380613fc983398101604081905261003091610486565b83838383836001600160a01b031663313ce5676040518163ffffffff1660e01b8152600401602060405180830381865afa158015610072573d6000803e3d6000fd5b505050506040513d601f19601f8201168201806040525081019061009691906105bb565b8282818181816100a5336101ac565b6001600160a01b0380831660805281166100d257604051632d618d8160e21b815260040160405180910390fd5b60805160405163ca5eb5e160e01b81526001600160a01b0383811660048301529091169063ca5eb5e190602401600060405180830381600087803b15801561011957600080fd5b505af115801561012d573d6000803e3d6000fd5b50505050505050506101436101fc60201b60201c565b60ff168360ff161015610169576040516301e9714b60e41b815260040160405180910390fd5b6101746006846105fb565b61017f90600a610701565b60a0525050506001600160a01b0393841660c05250501660e0526101a285610201565b50505050506107ea565b600080546001600160a01b038381166001600160a01b0319831681178455604051919092169283917f8be0079c531659141344cd1fd0a4f28419497f9722a3daafe3b4186f6b6457e09190a35050565b600690565b60005b81518110156102d05760006005600084848151811061022557610225610710565b60200260200101516000015163ffffffff1663ffffffff168152602001908152602001600020905061027b83838151811061026257610262610710565b602002602001015160000151600061030b60201b60201c565b82828151811061028d5761028d610710565b60200260200101516020015181600201819055508282815181106102b3576102b3610710565b602090810291909101015160400151600390910155600101610204565b507fe888347665897e637801f36c5129f510657276178c89022bc5fa0246dbc19de1816040516103009190610726565b60405180910390a150565b63ffffffff82166000908152600560205260408120805460018201546002830154600384015493949384936103439390929091610381565b91509150808411156103685760405163a74c1c5f60e01b815260040160405180910390fd5b610372848361078b565b83555050426001909101555050565b6000808061038f864261079e565b905060008085116103a15760016103a3565b845b6103ad83886107b1565b6103b791906107c8565b9050808811156103d0576103cb818961079e565b6103d3565b60005b9350838611156103ec576103e7848761079e565b6103ef565b60005b9250505094509492505050565b634e487b7160e01b600052604160045260246000fd5b604051606081016001600160401b0381118282101715610434576104346103fc565b60405290565b604051601f8201601f191681016001600160401b0381118282101715610462576104626103fc565b604052919050565b80516001600160a01b038116811461048157600080fd5b919050565b600080600080600060a0868803121561049e57600080fd5b85516001600160401b038111156104b457600080fd5b8601601f810188136104c557600080fd5b80516001600160401b038111156104de576104de6103fc565b6104ed60208260051b0161043a565b8082825260208201915060206060840285010192508a83111561050f57600080fd5b6020840193505b82841015610573576060848c03121561052e57600080fd5b610536610412565b845163ffffffff8116811461054a57600080fd5b815260208581015181830152604080870151908301529083526060909401939190910190610516565b9750610585925050506020870161046a565b93506105936040870161046a565b92506105a16060870161046a565b91506105af6080870161046a565b90509295509295909350565b6000602082840312156105cd57600080fd5b815160ff811681146105de57600080fd5b9392505050565b634e487b7160e01b600052601160045260246000fd5b60ff8281168282160390811115610614576106146105e5565b92915050565b6001815b600184111561065557808504811115610639576106396105e5565b600184161561064757908102905b60019390931c92800261061e565b935093915050565b60008261066c57506001610614565b8161067957506000610614565b816001811461068f5760028114610699576106b5565b6001915050610614565b60ff8411156106aa576106aa6105e5565b50506001821b610614565b5060208310610133831016604e8410600b84101617156106d8575081810a610614565b6106e5600019848461061a565b80600019048211156106f9576106f96105e5565b029392505050565b60006105de60ff84168361065d565b634e487b7160e01b600052603260045260246000fd5b602080825282518282018190526000918401906040840190835b8181101561078057835163ffffffff8151168452602081015160208501526040810151604085015250606083019250602084019350600181019050610740565b509095945050505050565b80820180821115610614576106146105e5565b81810381811115610614576106146105e5565b8082028115828204841417610614576106146105e5565b6000826107e557634e487b7160e01b600052601260045260246000fd5b500490565b60805160a05160c05160e0516137526108776000396000818161030d01528181611fbe01526120e80152600061079101526000818161051301528181611b2a01528181611ba60152611da901526000818161041e015281816109730152818161114e0152818161167501528181611cd701528181611eb9015281816121d1015261228801526137526000f3fe6080604052600436106101d65760003560e01c80630d35b415146101db578063111ecdad1461021357806313137d6514610240578063134d4f2514610255578063156a0d0f1461027d57806317442b70146102a45780631b9ec964146102c65780631f5e1334146102e65780632ef8c5a4146102fb5780633400288b1461032f5780633b6f743b1461034f57806346f943e91461037c57806352ae28791461039c5780635535d461146103af5780635a0dfe4d146103dc5780635e280f111461040c5780636fc1b31e14610440578063715018a6146104605780637d25a05e1461047557806382413eac146104b0578063857749b0146104d05780638da5cb5b146104ec578063963efcaa146105015780639f68b96414610543578063ab99095d14610557578063b731ea0a146105b9578063b98bd070146105d9578063bb0b6a53146105f9578063bc70b35414610626578063bd815db014610646578063c272198d14610659578063c7c7f5b31461068e578063ca5eb5e1146106af578063cf58ebc1146106cf578063d045a0dc146106ff578063d424388514610712578063e69592f914610732578063f2fde38b14610762578063fc0c546a14610782578063fd69013e146107b5578063ff7bd03d146107d5575b600080fd5b3480156101e757600080fd5b506101fb6101f6366004612548565b6107f5565b60405161020a939291906125db565b60405180910390f35b34801561021f57600080fd5b50600454610233906001600160a01b031681565b60405161020a919061266d565b61025361024e3660046126f0565b610971565b005b34801561026157600080fd5b5061026a600281565b60405161ffff909116815260200161020a565b34801561028957600080fd5b506040805162b9270b60e21b8152600160208201520161020a565b3480156102b057600080fd5b506040805160018152600260208201520161020a565b3480156102d257600080fd5b506102536102e1366004612791565b610a29565b3480156102f257600080fd5b5061026a600181565b34801561030757600080fd5b506102337f000000000000000000000000000000000000000000000000000000000000000081565b34801561033b57600080fd5b5061025361034a36600461281f565b610b07565b34801561035b57600080fd5b5061036f61036a366004612857565b610b1d565b60405161020a91906128a8565b34801561038857600080fd5b506102536103973660046128b6565b610b7a565b3480156103a857600080fd5b5030610233565b3480156103bb57600080fd5b506103cf6103ca36600461292d565b610c1a565b60405161020a9190612960565b3480156103e857600080fd5b506103fc6103f736600461281f565b610cbf565b604051901515815260200161020a565b34801561041857600080fd5b506102337f000000000000000000000000000000000000000000000000000000000000000081565b34801561044c57600080fd5b5061025361045b366004612973565b610cdb565b34801561046c57600080fd5b50610253610d39565b34801561048157600080fd5b5061049861049036600461281f565b600092915050565b6040516001600160401b03909116815260200161020a565b3480156104bc57600080fd5b506103fc6104cb366004612990565b610d4d565b3480156104dc57600080fd5b506040516006815260200161020a565b3480156104f857600080fd5b50610233610d62565b34801561050d57600080fd5b506105357f000000000000000000000000000000000000000000000000000000000000000081565b60405190815260200161020a565b34801561054f57600080fd5b5060006103fc565b34801561056357600080fd5b506105996105723660046129f6565b60056020526000908152604090208054600182015460028301546003909301549192909184565b60408051948552602085019390935291830152606082015260800161020a565b3480156105c557600080fd5b50600254610233906001600160a01b031681565b3480156105e557600080fd5b506102536105f4366004612a55565b610d71565b34801561060557600080fd5b506105356106143660046129f6565b60016020526000908152604090205481565b34801561063257600080fd5b506103cf610641366004612a96565b610d8b565b610253610654366004612a55565b610f33565b34801561066557600080fd5b506106796106743660046129f6565b6110a6565b6040805192835260208301919091520161020a565b6106a161069c366004612af6565b611107565b60405161020a929190612b63565b3480156106bb57600080fd5b506102536106ca366004612973565b61112f565b3480156106db57600080fd5b506103fc6106ea366004612b9f565b60076020526000908152604090205460ff1681565b61025361070d3660046126f0565b6111b8565b34801561071e57600080fd5b5061025361072d366004612973565b6111e7565b34801561073e57600080fd5b506103fc61074d366004612973565b60066020526000908152604090205460ff1681565b34801561076e57600080fd5b5061025361077d366004612973565b61123a565b34801561078e57600080fd5b507f0000000000000000000000000000000000000000000000000000000000000000610233565b3480156107c157600080fd5b506102536107d0366004612bb8565b6112b3565b3480156107e157600080fd5b506103fc6107f0366004612c03565b61135f565b604080518082019091526000808252602082015260606108136124f2565b600080306001600160a01b031663fc0c546a6040518163ffffffff1660e01b8152600401602060405180830381865afa158015610854573d6000803e3d6000fd5b505050506040513d601f19601f820116820180604052508101906108789190612c1f565b6001600160a01b03166318160ddd6040518163ffffffff1660e01b8152600401602060405180830381865afa1580156108b5573d6000803e3d6000fd5b505050506040513d601f19601f820116820180604052508101906108d99190612c3c565b6040805180820182528481526020808201849052825160008082529181019093529097509192509061092e565b6040805180820190915260008152606060208201528152602001906001900390816109065790505b509350600080610953604089013560608a013561094e60208c018c6129f6565b611395565b60408051808201909152918252602082015296989597505050505050565b7f00000000000000000000000000000000000000000000000000000000000000006001600160a01b031633146109c557336040516391ac5e4f60e01b81526004016109bc919061266d565b60405180910390fd5b602087018035906109df906109da908a6129f6565b6113d1565b14610a11576109f160208801886129f6565b876020013560405163309afaf360e21b81526004016109bc929190612c6b565b610a208787878787878761140d565b50505050505050565b610a3161149f565b60005b81811015610ac257828282818110610a4e57610a4e612c81565b9050604002016020016020810190610a669190612c97565b60066000858585818110610a7c57610a7c612c81565b610a929260206040909202019081019150612973565b6001600160a01b031681526020810191909152604001600020805460ff1916911515919091179055600101610a34565b508181604051610ad3929190612cb4565b604051908190038120907f2e341a0ee6e478a8486e9dfa0e2d166fa45b6ea743e80458c3616f98bc2a5a1990600090a25050565b610b0f61149f565b610b1982826114fe565b5050565b610b256124f2565b6000610b416040850135606086013561094e60208801886129f6565b915050600080610b518684611548565b9092509050610b6e610b6660208801886129f6565b83838861166b565b93505050505b92915050565b610b8261149f565b610bdd8282808060200260200160405190810160405280939291908181526020016000905b82821015610bd357610bc460608302860136819003810190612d85565b81526020019060010190610ba7565b5050505050611740565b7f1292498acd8c4952587fd0d97ab43e79980046c80ce8dd2babf73d6b0585c6be8282604051610c0e929190612dc9565b60405180910390a15050565b600360209081526000928352604080842090915290825290208054610c3e90612e25565b80601f0160208091040260200160405190810160405280929190818152602001828054610c6a90612e25565b8015610cb75780601f10610c8c57610100808354040283529160200191610cb7565b820191906000526020600020905b815481529060010190602001808311610c9a57829003601f168201915b505050505081565b63ffffffff919091166000908152600160205260409020541490565b610ce361149f565b600480546001600160a01b0319166001600160a01b0383161790556040517ff0be4f1e87349231d80c36b33f9e8639658eeaf474014dee15a3e6a4d441419790610d2e90839061266d565b60405180910390a150565b610d4161149f565b610d4b6000611839565b565b6001600160a01b03811630145b949350505050565b6000546001600160a01b031690565b610d7961149f565b610b19610d868284612e80565b611889565b63ffffffff8416600090815260036020908152604080832061ffff87168452909152812080546060929190610dbf90612e25565b80601f0160208091040260200160405190810160405280929190818152602001828054610deb90612e25565b8015610e385780601f10610e0d57610100808354040283529160200191610e38565b820191906000526020600020905b815481529060010190602001808311610e1b57829003601f168201915b505050505090508051600003610e885783838080601f016020809104026020016040519081016040528093929190818152602001838380828437600092019190915250929450610d5a9350505050565b6000839003610e98579050610d5a565b60028310610f1657610edf84848080601f01602080910402602001604051908101604052809392919081815260200183838082843760009201919091525061199092505050565b80610eed8460028188612f9f565b604051602001610eff93929190612fc9565b604051602081830303815290604052915050610d5a565b8383604051639a6d49cd60e01b81526004016109bc92919061301a565b60005b818110156110255736838383818110610f5157610f51612c81565b9050602002810190610f63919061302e565b9050610f7f610f7560208301836129f6565b6020830135610cbf565b610f89575061101d565b3063d045a0dc60c08301358360a0810135610fa861010083018361304f565b610fb9610100890160e08a01612973565b610fc76101208a018a61304f565b6040518963ffffffff1660e01b8152600401610fe997969594939291906130aa565b6000604051808303818588803b15801561100257600080fd5b505af1158015611016573d6000803e3d6000fd5b5050505050505b600101610f36565b50336001600160a01b0316638e9e70996040518163ffffffff1660e01b8152600401600060405180830381865afa158015611064573d6000803e3d6000fd5b505050506040513d6000823e601f3d908101601f1916820160405261108c9190810190613130565b604051638351eea760e01b81526004016109bc9190612960565b63ffffffff81166000908152600560209081526040808320815160808101835281548082526001830154948201859052600283015493820184905260039092015460608201819052859491936110fd9392916119bc565b9250925050915091565b61110f61250c565b6111176124f2565b611122858585611a37565b915091505b935093915050565b61113761149f565b60405163ca5eb5e160e01b81526001600160a01b037f0000000000000000000000000000000000000000000000000000000000000000169063ca5eb5e19061118390849060040161266d565b600060405180830381600087803b15801561119d57600080fd5b505af11580156111b1573d6000803e3d6000fd5b5050505050565b3330146111d85760405163029a949d60e31b815260040160405180910390fd5b610a2087878787878787610a11565b6111ef61149f565b600280546001600160a01b0319166001600160a01b0383161790556040517fd48d879cef83a1c0bdda516f27b13ddb1b3f8bbac1c9e1511bb2a659c242776090610d2e90839061266d565b61124261149f565b6001600160a01b0381166112a75760405162461bcd60e51b815260206004820152602660248201527f4f776e61626c653a206e6577206f776e657220697320746865207a65726f206160448201526564647265737360d01b60648201526084016109bc565b6112b081611839565b50565b6112bb61149f565b60005b8281101561130d5781600760008686858181106112dd576112dd612c81565b60209081029290920135835250810191909152604001600020805460ff19169115159190911790556001016112be565b50828260405161131e92919061319d565b6040519081900381208215158252907f35e69bc11aa2467a483766028e0f05c268579d58ffc62021bb3ee918fc92c9409060200160405180910390a2505050565b600060208201803590600190839061137790866129f6565b63ffffffff1681526020810191909152604001600020541492915050565b6000806113a185611b26565b915081905083811015611127576040516371c4efed60e01b815260048101829052602481018590526044016109bc565b63ffffffff811660009081526001602052604081205480610b745760405163f6ff4fb760e01b815263ffffffff841660048201526024016109bc565b600061141f61141c8787611b5d565b90565b6001600160a01b03811660009081526006602052604090205490915060ff1615801561145a575060008781526007602052604090205460ff16155b156114865761148661146f60208a018a6129f6565b61148161147c8989611b7c565b611b9f565b611bd4565b61149588888888888888611c4a565b5050505050505050565b336114a8610d62565b6001600160a01b031614610d4b5760405162461bcd60e51b815260206004820181905260248201527f4f776e61626c653a2063616c6c6572206973206e6f7420746865206f776e657260448201526064016109bc565b63ffffffff821660009081526001602052604090819020829055517f238399d427b947898edb290f5ff0f9109849b1c3ba196a42e35f00c50a54b98b90610c0e9084908490612c6b565b60608060006115a5856020013561155e86611da2565b61156b60a089018961304f565b8080601f016020809104026020016040519081016040528093929190818152602001838380828437600092019190915250611dce92505050565b90935090506000816115b85760016115bb565b60025b90506115db6115cd60208801886129f6565b8261064160808a018a61304f565b6004549093506001600160a01b031680156116615760405163043a78eb60e01b81526001600160a01b0382169063043a78eb9061161e90889088906004016131c6565b602060405180830381865afa15801561163b573d6000803e3d6000fd5b505050506040513d601f19601f8201168201806040525081019061165f91906131eb565b505b5050509250929050565b6116736124f2565b7f00000000000000000000000000000000000000000000000000000000000000006001600160a01b031663ddc28c586040518060a001604052808863ffffffff1681526020016116c2896113d1565b8152602001878152602001868152602001851515815250306040518363ffffffff1660e01b81526004016116f7929190613208565b6040805180830381865afa158015611713573d6000803e3d6000fd5b505050506040513d601f19601f8201168201806040525081019061173791906132b2565b95945050505050565b60005b81518110156118095760006005600084848151811061176457611764612c81565b60200260200101516000015163ffffffff1663ffffffff16815260200190815260200160002090506117b48383815181106117a1576117a1612c81565b6020026020010151600001516000611bd4565b8282815181106117c6576117c6612c81565b60200260200101516020015181600201819055508282815181106117ec576117ec612c81565b602090810291909101015160400151600390910155600101611743565b507fe888347665897e637801f36c5129f510657276178c89022bc5fa0246dbc19de181604051610d2e91906132ce565b600080546001600160a01b038381166001600160a01b0319831681178455604051919092169283917f8be0079c531659141344cd1fd0a4f28419497f9722a3daafe3b4186f6b6457e09190a35050565b60005b8151811015611960576118bb8282815181106118aa576118aa612c81565b602002602001015160400151611990565b8181815181106118cd576118cd612c81565b602002602001015160400151600360008484815181106118ef576118ef612c81565b60200260200101516000015163ffffffff1663ffffffff168152602001908152602001600020600084848151811061192957611929612c81565b60200260200101516020015161ffff1661ffff1681526020019081526020016000209081611957919061336f565b5060010161188c565b507fbe4864a8e820971c0247f5992e2da559595f7bf076a21cb5928d443d2a13b67481604051610d2e919061342d565b600281015161ffff8116600314610b195781604051639a6d49cd60e01b81526004016109bc9190612960565b600080806119ca86426134d3565b905060008085116119dc5760016119de565b845b6119e883886134e6565b6119f291906134fd565b905080881115611a0b57611a0681896134d3565b611a0e565b60005b935083861115611a2757611a2284876134d3565b611a2a565b60005b9250505094509492505050565b611a3f61250c565b611a476124f2565b600080611a6a33604089013560608a0135611a6560208c018c6129f6565b611e48565b91509150600080611a7b8984611548565b9092509050611aa7611a9060208b018b6129f6565b8383611aa1368d90038d018d61351f565b8b611e86565b60408051808201909152858152602080820186905282519298509096503391907f85496b760a4b7f8d66384b9df21b381f5d1b1e79f229a47aaf4c232edc2fe59a90611af5908d018d6129f6565b6040805163ffffffff909216825260208201899052810187905260600160405180910390a350505050935093915050565b60007f0000000000000000000000000000000000000000000000000000000000000000611b5381846134fd565b610b7491906134e6565b6000611b6c6020828486612f9f565b611b7591613552565b9392505050565b6000611b8c602860208486612f9f565b611b9591613570565b60c01c9392505050565b6000610b747f00000000000000000000000000000000000000000000000000000000000000006001600160401b0384166134e6565b63ffffffff8216600090815260056020526040812080546001820154600283015460038401549394938493611c0c93909290916119bc565b9150915080841115611c315760405163a74c1c5f60e01b815260040160405180910390fd5b611c3b84836135a8565b83555050426001909101555050565b6000611c5961141c8787611b5d565b90506000611c8082611c6e61147c8a8a611b7c565b611c7b60208d018d6129f6565b611f91565b90506028861115611d47576000611cbd611ca060608c0160408d016135bb565b611cad60208d018d6129f6565b84611cb88c8c612041565b61208c565b604051633e5ac80960e11b81529091506001600160a01b037f00000000000000000000000000000000000000000000000000000000000000001690637cb5901290611d139086908d9060009087906004016135d8565b600060405180830381600087803b158015611d2d57600080fd5b505af1158015611d41573d6000803e3d6000fd5b50505050505b6001600160a01b038216887fefed6d3500546b29533b128a29e3a94d70788727f0507505ac12eaf2e578fd9c611d8060208d018d6129f6565b84604051611d8f929190612c6b565b60405180910390a3505050505050505050565b6000610b747f0000000000000000000000000000000000000000000000000000000000000000836134fd565b8051606090151580611e17578484604051602001611e0392919091825260c01b6001600160c01b031916602082015260280190565b604051602081830303815290604052611e3e565b84843385604051602001611e2e9493929190613613565b6040516020818303038152906040525b9150935093915050565b600080611e57868686866120be565b33600090815260066020526040902054919350915060ff16611e7d57611e7d838261216c565b94509492505050565b611e8e61250c565b6000611e9d84600001516121a5565b602085015190915015611eb757611eb784602001516121cd565b7f00000000000000000000000000000000000000000000000000000000000000006001600160a01b0316632637a450826040518060a001604052808b63ffffffff168152602001611f078c6113d1565b81526020018a815260200189815260200160008960200151111515815250866040518463ffffffff1660e01b8152600401611f43929190613208565b60806040518083038185885af1158015611f61573d6000803e3d6000fd5b50505050506040513d601f19601f82011682018060405250810190611f869190613653565b979650505050505050565b60006001600160a01b038416611fa75761dead93505b6040516340c10f1960e01b81526001600160a01b037f000000000000000000000000000000000000000000000000000000000000000016906340c10f1990611ff5908790879060040161369f565b6020604051808303816000875af1158015612014573d6000803e3d6000fd5b505050506040513d601f19601f8201168201806040525081019061203891906131eb565b50919392505050565b60606120508260288186612f9f565b8080601f016020809104026020016040519081016040528093929190818152602001838380828437600092019190915250929695505050505050565b6060848484846040516020016120a594939291906136b8565b6040516020818303038152906040529050949350505050565b6000806120cc858585611395565b604051632770a7eb60e21b815291935091506001600160a01b037f00000000000000000000000000000000000000000000000000000000000000001690639dc29fac9061211f908990869060040161369f565b6020604051808303816000875af115801561213e573d6000803e3d6000fd5b505050506040513d601f19601f8201168201806040525081019061216291906131eb565b5094509492505050565b63ffffffff82166000908152600560205260409020805482101561219c5780546121979083906134d3565b61219f565b60005b90555050565b60008134146121c9576040516304fb820960e51b81523460048201526024016109bc565b5090565b60007f00000000000000000000000000000000000000000000000000000000000000006001600160a01b031663e4fe1d946040518163ffffffff1660e01b8152600401602060405180830381865afa15801561222d573d6000803e3d6000fd5b505050506040513d601f19601f820116820180604052508101906122519190612c1f565b90506001600160a01b03811661227a576040516329b99a9560e11b815260040160405180910390fd5b6040805133602482018190527f00000000000000000000000000000000000000000000000000000000000000006001600160a01b03818116604485015260648085018890528551808603909101815260849094019094526020830180516001600160e01b03166323b872dd60e01b179052610b199385169286906122ff908590612305565b50505050565b600061235a826040518060400160405280602081526020017f5361666545524332303a206c6f772d6c6576656c2063616c6c206661696c6564815250856001600160a01b03166123df9092919063ffffffff16565b905080516000148061237b57508080602001905181019061237b91906131eb565b6123da5760405162461bcd60e51b815260206004820152602a60248201527f5361666545524332303a204552433230206f7065726174696f6e20646964206e6044820152691bdd081cdd58d8d9595960b21b60648201526084016109bc565b505050565b6060610d5a848460008585600080866001600160a01b03168587604051612406919061370a565b60006040518083038185875af1925050503d8060008114612443576040519150601f19603f3d011682016040523d82523d6000602084013e612448565b606091505b5091509150611f8687838387606083156124c35782516000036124bc576001600160a01b0385163b6124bc5760405162461bcd60e51b815260206004820152601d60248201527f416464726573733a2063616c6c20746f206e6f6e2d636f6e747261637400000060448201526064016109bc565b5081610d5a565b610d5a83838151156124d85781518083602001fd5b8060405162461bcd60e51b81526004016109bc9190612960565b604051806040016040528060008152602001600081525090565b604080516060810182526000808252602082015290810161252b6124f2565b905290565b600060e0828403121561254257600080fd5b50919050565b60006020828403121561255a57600080fd5b81356001600160401b0381111561257057600080fd5b610d5a84828501612530565b80518252602090810151910152565b60005b838110156125a657818101518382015260200161258e565b50506000910152565b600081518084526125c781602086016020860161258b565b601f01601f19169290920160200192915050565b600060a082016125eb838761257c565b60a0604084015280855180835260c08501915060c08160051b86010192506020870160005b828110156126585760bf19878603018452815180518652602081015190506040602087015261264260408701826125af565b9550506020938401939190910190600101612610565b5050505080915050610d5a606083018461257c565b6001600160a01b0391909116815260200190565b60006060828403121561254257600080fd5b60008083601f8401126126a557600080fd5b5081356001600160401b038111156126bc57600080fd5b6020830191508360208285010111156126d457600080fd5b9250929050565b6001600160a01b03811681146112b057600080fd5b600080600080600080600060e0888a03121561270b57600080fd5b6127158989612681565b96506060880135955060808801356001600160401b0381111561273757600080fd5b6127438a828b01612693565b90965094505060a0880135612757816126db565b925060c08801356001600160401b0381111561277257600080fd5b61277e8a828b01612693565b989b979a50959850939692959293505050565b600080602083850312156127a457600080fd5b82356001600160401b038111156127ba57600080fd5b8301601f810185136127cb57600080fd5b80356001600160401b038111156127e157600080fd5b8560208260061b84010111156127f657600080fd5b6020919091019590945092505050565b803563ffffffff8116811461281a57600080fd5b919050565b6000806040838503121561283257600080fd5b61283b83612806565b946020939093013593505050565b80151581146112b057600080fd5b6000806040838503121561286a57600080fd5b82356001600160401b0381111561288057600080fd5b61288c85828601612530565b925050602083013561289d81612849565b809150509250929050565b60408101610b74828461257c565b600080602083850312156128c957600080fd5b82356001600160401b038111156128df57600080fd5b8301601f810185136128f057600080fd5b80356001600160401b0381111561290657600080fd5b8560206060830284010111156127f657600080fd5b803561ffff8116811461281a57600080fd5b6000806040838503121561294057600080fd5b61294983612806565b91506129576020840161291b565b90509250929050565b602081526000611b7560208301846125af565b60006020828403121561298557600080fd5b8135611b75816126db565b60008060008060a085870312156129a657600080fd5b6129b08686612681565b935060608501356001600160401b038111156129cb57600080fd5b6129d787828801612693565b90945092505060808501356129eb816126db565b939692955090935050565b600060208284031215612a0857600080fd5b611b7582612806565b60008083601f840112612a2357600080fd5b5081356001600160401b03811115612a3a57600080fd5b6020830191508360208260051b85010111156126d457600080fd5b60008060208385031215612a6857600080fd5b82356001600160401b03811115612a7e57600080fd5b612a8a85828601612a11565b90969095509350505050565b60008060008060608587031215612aac57600080fd5b612ab585612806565b9350612ac36020860161291b565b925060408501356001600160401b03811115612ade57600080fd5b612aea87828801612693565b95989497509550505050565b60008060008385036080811215612b0c57600080fd5b84356001600160401b03811115612b2257600080fd5b612b2e87828801612530565b9450506040601f1982011215612b4357600080fd5b506020840191506060840135612b58816126db565b809150509250925092565b825181526020808401516001600160401b03169082015260408084015160c0830191612b919084018261257c565b50611b75608083018461257c565b600060208284031215612bb157600080fd5b5035919050565b600080600060408486031215612bcd57600080fd5b83356001600160401b03811115612be357600080fd5b612bef86828701612a11565b9094509250506020840135612b5881612849565b600060608284031215612c1557600080fd5b611b758383612681565b600060208284031215612c3157600080fd5b8151611b75816126db565b600060208284031215612c4e57600080fd5b5051919050565b634e487b7160e01b600052604160045260246000fd5b63ffffffff929092168252602082015260400190565b634e487b7160e01b600052603260045260246000fd5b600060208284031215612ca957600080fd5b8135611b7581612849565b60008184825b85811015612d00578135612ccd816126db565b6001600160a01b031683526020820135612ce681612849565b151560208401526040928301929190910190600101612cba565b509095945050505050565b604051606081016001600160401b0381118282101715612d2d57612d2d612c55565b60405290565b604080519081016001600160401b0381118282101715612d2d57612d2d612c55565b604051601f8201601f191681016001600160401b0381118282101715612d7d57612d7d612c55565b604052919050565b60006060828403128015612d9857600080fd5b50612da1612d0b565b612daa83612806565b8152602083810135908201526040928301359281019290925250919050565b6020808252810182905260008360408301825b85811015612e1b5763ffffffff612df284612806565b168252602083810135908301526040808401359083015260609283019290910190600101612ddc565b5095945050505050565b600181811c90821680612e3957607f821691505b60208210810361254257634e487b7160e01b600052602260045260246000fd5b60006001600160401b03821115612e7257612e72612c55565b50601f01601f191660200190565b60006001600160401b03831115612e9957612e99612c55565b8260051b612ea960208201612d55565b84815290830190602081019036831115612ec257600080fd5b845b83811015612e1b5780356001600160401b03811115612ee257600080fd5b86016060368290031215612ef557600080fd5b612efd612d0b565b612f0682612806565b8152612f146020830161291b565b602082015260408201356001600160401b03811115612f3257600080fd5b919091019036601f830112612f4657600080fd5b8135612f59612f5482612e59565b612d55565b818152366020838601011115612f6e57600080fd5b8160208501602083013760006020838301015280604084015250508085525050602083019250602081019050612ec4565b60008085851115612faf57600080fd5b83861115612fbc57600080fd5b5050820193919092039150565b60008451612fdb81846020890161258b565b8201838582376000930192835250909392505050565b81835281816020850137506000828201602090810191909152601f909101601f19169091010190565b602081526000610d5a602083018486612ff1565b6000823561013e1983360301811261304557600080fd5b9190910192915050565b6000808335601e1984360301811261306657600080fd5b8301803591506001600160401b0382111561308057600080fd5b6020019150368190038213156126d457600080fd5b6001600160401b03811681146112b057600080fd5b63ffffffff6130b889612806565b16815260208881013590820152600060408901356130d581613095565b6001600160401b031660408301526060820188905260e0608083018190526131009083018789612ff1565b6001600160a01b03861660a084015282810360c0840152613122818587612ff1565b9a9950505050505050505050565b60006020828403121561314257600080fd5b81516001600160401b0381111561315857600080fd5b8201601f8101841361316957600080fd5b8051613177612f5482612e59565b81815285602083850101111561318c57600080fd5b61173782602083016020860161258b565b60006001600160fb1b038311156131b357600080fd5b8260051b80858437919091019392505050565b6040815260006131d960408301856125af565b828103602084015261173781856125af565b6000602082840312156131fd57600080fd5b8151611b7581612849565b6040815263ffffffff8351166040820152602083015160608201526000604084015160a0608084015261323e60e08401826125af565b90506060850151603f198483030160a085015261325b82826125af565b60809690960151151560c08501525050506001600160a01b039190911660209091015290565b60006040828403121561329357600080fd5b61329b612d33565b825181526020928301519281019290925250919050565b6000604082840312156132c457600080fd5b611b758383613281565b602080825282518282018190526000918401906040840190835b81811015612d0057835163ffffffff81511684526020810151602085015260408101516040850152506060830192506020840193506001810190506132e8565b601f8211156123da57806000526020600020601f840160051c8101602085101561334f5750805b601f840160051c820191505b818110156111b1576000815560010161335b565b81516001600160401b0381111561338857613388612c55565b61339c816133968454612e25565b84613328565b6020601f8211600181146133d057600083156133b85750848201515b600019600385901b1c1916600184901b1784556111b1565b600084815260208120601f198516915b8281101561340057878501518255602094850194600190920191016133e0565b508482101561341e5786840151600019600387901b60f8161c191681555b50505050600190811b01905550565b6000602082016020835280845180835260408501915060408160051b86010192506020860160005b828110156134b157603f19878603018452815163ffffffff815116865261ffff6020820151166020870152604081015190506060604087015261349b60608701826125af565b9550506020938401939190910190600101613455565b50929695505050505050565b634e487b7160e01b600052601160045260246000fd5b81810381811115610b7457610b746134bd565b8082028115828204841417610b7457610b746134bd565b60008261351a57634e487b7160e01b600052601260045260246000fd5b500490565b6000604082840312801561353257600080fd5b5061353b612d33565b823581526020928301359281019290925250919050565b80356020831015610b7457600019602084900360031b1b1692915050565b80356001600160c01b031981169060088410156135a1576001600160c01b0319600885900360031b81901b82161691505b5092915050565b80820180821115610b7457610b746134bd565b6000602082840312156135cd57600080fd5b8135611b7581613095565b60018060a01b038516815283602082015261ffff8316604082015260806060820152600061360960808301846125af565b9695505050505050565b84815260018060c01b03198460c01b1660208201528260288201526000825161364381604885016020870161258b565b9190910160480195945050505050565b6000608082840312801561366657600080fd5b5061366f612d0b565b82518152602083015161368181613095565b60208201526136938460408501613281565b60408201529392505050565b6001600160a01b03929092168252602082015260400190565b60c085901b6001600160c01b031916815260e084901b6001600160e01b0319166008820152600c810183905281516000906136fa81602c85016020870161258b565b91909101602c0195945050505050565b6000825161304581846020870161258b56fea2646970667358221220d33110533d9c0465694f5dbc57aa4ddb6dc51f6925bafa323bfccf755e6bb3c764736f6c634300081d0033",
  "linkReferences": {},
  "deployedLinkReferences": {}
}