{
  "_format": "hh-sol-artifact-1",
  "contractName": "ReaderDepositUtils",
  "sourceName": "contracts/reader/ReaderDepositUtils.sol",
  "abi": [
    {
      "inputs": [
        {
          "internalType": "int256",
          "name": "poolValue",
          "type": "int256"
        }
      ],
      "name": "InvalidPoolValueForDeposit",
      "type": "error"
    },
    {
      "inputs": [
        {
          "internalType": "contract DataStore",
          "name": "dataStore",
          "type": "DataStore"
        },
        {
          "components": [
            {
              "internalType": "address",
              "name": "marketToken",
              "type": "address"
            },
            {
              "internalType": "address",
              "name": "indexToken",
              "type": "address"
            },
            {
              "internalType": "address",
              "name": "longToken",
              "type": "address"
            },
            {
              "internalType": "address",
              "name": "shortToken",
              "type": "address"
            }
          ],
          "internalType": "struct Market.Props",
          "name": "market",
          "type": "tuple"
        },
        {
          "components": [
            {
              "components": [
                {
                  "internalType": "uint256",
                  "name": "min",
                  "type": "uint256"
                },
                {
                  "internalType": "uint256",
                  "name": "max",
                  "type": "uint256"
                }
              ],
              "internalType": "struct Price.Props",
              "name": "indexTokenPrice",
              "type": "tuple"
            },
            {
              "components": [
                {
                  "internalType": "uint256",
                  "name": "min",
                  "type": "uint256"
                },
                {
                  "internalType": "uint256",
                  "name": "max",
                  "type": "uint256"
                }
              ],
              "internalType": "struct Price.Props",
              "name": "longTokenPrice",
              "type": "tuple"
            },
            {
              "components": [
                {
                  "internalType": "uint256",
                  "name": "min",
                  "type": "uint256"
                },
                {
                  "internalType": "uint256",
                  "name": "max",
                  "type": "uint256"
                }
              ],
              "internalType": "struct Price.Props",
              "name": "shortTokenPrice",
              "type": "tuple"
            }
          ],
          "internalType": "struct MarketUtils.MarketPrices",
          "name": "prices",
          "type": "tuple"
        },
        {
          "internalType": "uint256",
          "name": "longTokenAmount",
          "type": "uint256"
        },
        {
          "internalType": "uint256",
          "name": "shortTokenAmount",
          "type": "uint256"
        },
        {
          "internalType": "address",
          "name": "uiFeeReceiver",
          "type": "address"
        },
        {
          "internalType": "enum ISwapPricingUtils.SwapPricingType",
          "name": "swapPricingType",
          "type": "ISwapPricingUtils.SwapPricingType"
        },
        {
          "internalType": "bool",
          "name": "includeVirtualInventoryImpact",
          "type": "bool"
        }
      ],
      "name": "getDepositAmountOut",
      "outputs": [
        {
          "internalType": "uint256",
          "name": "",
          "type": "uint256"
        }
      ],
      "stateMutability": "view",
      "type": "function"
    },
    {
      "inputs": [
        {
          "components": [
            {
              "internalType": "contract DataStore",
              "name": "dataStore",
              "type": "DataStore"
            },
            {
              "components": [
                {
                  "internalType": "address",
                  "name": "marketToken",
                  "type": "address"
                },
                {
                  "internalType": "address",
                  "name": "indexToken",
                  "type": "address"
                },
                {
                  "internalType": "address",
                  "name": "longToken",
                  "type": "address"
                },
                {
                  "internalType": "address",
                  "name": "shortToken",
                  "type": "address"
                }
              ],
              "internalType": "struct Market.Props",
              "name": "market",
              "type": "tuple"
            },
            {
              "components": [
                {
                  "components": [
                    {
                      "internalType": "uint256",
                      "name": "min",
                      "type": "uint256"
                    },
                    {
                      "internalType": "uint256",
                      "name": "max",
                      "type": "uint256"
                    }
                  ],
                  "internalType": "struct Price.Props",
                  "name": "indexTokenPrice",
                  "type": "tuple"
                },
                {
                  "components": [
                    {
                      "internalType": "uint256",
                      "name": "min",
                      "type": "uint256"
                    },
                    {
                      "internalType": "uint256",
                      "name": "max",
                      "type": "uint256"
                    }
                  ],
                  "internalType": "struct Price.Props",
                  "name": "longTokenPrice",
                  "type": "tuple"
                },
                {
                  "components": [
                    {
                      "internalType": "uint256",
                      "name": "min",
                      "type": "uint256"
                    },
                    {
                      "internalType": "uint256",
                      "name": "max",
                      "type": "uint256"
                    }
                  ],
                  "internalType": "struct Price.Props",
                  "name": "shortTokenPrice",
                  "type": "tuple"
                }
              ],
              "internalType": "struct MarketUtils.MarketPrices",
              "name": "prices",
              "type": "tuple"
            },
            {
              "internalType": "address",
              "name": "tokenIn",
              "type": "address"
            },
            {
              "components": [
                {
                  "internalType": "uint256",
                  "name": "min",
                  "type": "uint256"
                },
                {
                  "internalType": "uint256",
                  "name": "max",
                  "type": "uint256"
                }
              ],
              "internalType": "struct Price.Props",
              "name": "tokenInPrice",
              "type": "tuple"
            },
            {
              "internalType": "address",
              "name": "tokenOut",
              "type": "address"
            },
            {
              "components": [
                {
                  "internalType": "uint256",
                  "name": "min",
                  "type": "uint256"
                },
                {
                  "internalType": "uint256",
                  "name": "max",
                  "type": "uint256"
                }
              ],
              "internalType": "struct Price.Props",
              "name": "tokenOutPrice",
              "type": "tuple"
            },
            {
              "internalType": "uint256",
              "name": "amount",
              "type": "uint256"
            },
            {
              "internalType": "int256",
              "name": "priceImpactUsd",
              "type": "int256"
            },
            {
              "internalType": "address",
              "name": "uiFeeReceiver",
              "type": "address"
            },
            {
              "internalType": "enum ISwapPricingUtils.SwapPricingType",
              "name": "swapPricingType",
              "type": "ISwapPricingUtils.SwapPricingType"
            }
          ],
          "internalType": "struct ReaderDepositUtils.GetDepositAmountOutForSingleTokenParams",
          "name": "params",
          "type": "tuple"
        }
      ],
      "name": "getDepositAmountOutForSingleToken",
      "outputs": [
        {
          "internalType": "uint256",
          "name": "",
          "type": "uint256"
        }
      ],
      "stateMutability": "view",
      "type": "function"
    }
  ],
  "bytecode": "0x61184461003a600b82828239805160001a60731461002d57634e487b7160e01b600052600060045260246000fd5b30600052607381538281f3fe73000000000000000000000000000000000000000030146080604052600436106100405760003560e01c806357e0a932146100455780638026a1051461006a575b600080fd5b610058610053366004611385565b61007d565b60405190815260200160405180910390f35b610058610078366004611422565b61030d565b60008061008d886020015161063a565b6100979088611510565b905060006100a8896040015161063a565b6100b29088611510565b9050600073__$37ccc826b10054fe27f32c30ea3a599925$__633b89b2366040518061012001604052808f6001600160a01b031681526020018e81526020018e604001516001600160a01b031681526020018e606001516001600160a01b031681526020016101248e6020015161063a565b81526020016101368e6040015161063a565b815260200161014487610662565b815260200161015286610662565b81526020018815158152506040518263ffffffff1660e01b81526004016101799190611567565b602060405180830381865af4158015610196573d6000803e3d6000fd5b505050506040513d601f19601f820116820180604052508101906101ba91906115fd565b9050600061026b6040518061016001604052808f6001600160a01b031681526020018e81526020018d81526020018e604001516001600160a01b031681526020018d6020015181526020018e606001516001600160a01b031681526020018d6040015181526020018c815260200161023e8588888a6102399190611616565b6106d0565b81526020018a6001600160a01b0316815260200189600481111561026457610264611629565b905261030d565b6102759082611616565b90506102f26040518061016001604052808f6001600160a01b031681526020018e81526020018d81526020018e606001516001600160a01b031681526020018d6040015181526020018e604001516001600160a01b031681526020018d6020015181526020018b815260200161023e8587888a6102399190611616565b6102fc9082611616565b9d9c50505050505050505050505050565b60008061034083600001518460200151600001518560e001516000876101000151138761012001518861014001516106e7565b905060008082604001519050600073__$e53db83827f4e07ebc418caf7145b8c2d5$__63f2e2a4f5876000015188602001518960400151600001518a60400151602001518b60400151604001516040516020016103cc906020808252601b908201527a4d41585f504e4c5f464143544f525f464f525f4445504f5349545360281b604082015260600190565b6040516020818303038152906040528051906020012060016040518863ffffffff1660e01b8152600401610406979695949392919061163f565b61016060405180830381865af4158015610424573d6000803e3d6000fd5b505050506040513d601f19601f8201168201806040525081019061044891906116ac565b905060008160000151121561047b57805160405163adaa688d60e01b815260048101919091526024015b60405180910390fd5b600061048a82600001516109e8565b9050600061049f886020015160000151610a3a565b83519091501580156104b15750600081115b156104d557825160405163adaa688d60e01b81526004810191909152602401610472565b60008861010001511380156104e8575080155b156104f65760006101008901525b600088610100015113156105b15760008061052d8a600001518b60200151600001518c60a001518d60c001518e6101000151610a9e565b915091506105578a60c0015160200151610546846109e8565b6105509190611510565b8585610b2c565b6105619088611616565b965080156105ae5760006105948b600001518c60200151600001518d606001518e6080015161058f87610662565b610a9e565b5090506105a0816109e8565b6105aa9088611616565b9650505b50505b600088610100015112156106095760006105e789600001518a60200151600001518b606001518c608001518d6101000151610a9e565b5090506105fb6105f68261173f565b6109e8565b610605908661175b565b9450505b6080880151516106249061061d9086611510565b8383610b2c565b61062e9086611616565b98975050505050505050565b60006002826000015183602001516106529190611616565b61065c9190611784565b92915050565b60006001600160ff1b038211156106cc5760405162461bcd60e51b815260206004820152602860248201527f53616665436173743a2076616c756520646f65736e27742066697420696e2061604482015267371034b73a191a9b60c11b6064820152608401610472565b5090565b60006106dd838584610b7f565b90505b9392505050565b6106ef611167565b6106f7611167565b60008084600481111561070c5761070c611629565b0361079057886001600160a01b031663bd02d0f561072a8a89610bc8565b6040518263ffffffff1660e01b815260040161074891815260200190565b602060405180830381865afa158015610765573d6000803e3d6000fd5b505050506040513d601f19601f8201168201806040525081019061078991906115fd565b90506108a0565b60018460048111156107a4576107a4611629565b146108a05760028460048111156107bd576107bd611629565b036107da57886001600160a01b031663bd02d0f561072a8a610c51565b60038460048111156107ee576107ee611629565b0361080c57886001600160a01b031663bd02d0f561072a8a89610cd7565b600484600481111561082057610820611629565b036108a057886001600160a01b031663bd02d0f561083e8a89610d0f565b6040518263ffffffff1660e01b815260040161085c91815260200190565b602060405180830381865afa158015610879573d6000803e3d6000fd5b505050506040513d601f19601f8201168201806040525081019061089d91906115fd565b90505b6000896001600160a01b031663bd02d0f56040516020016108ed9060208082526018908201527729aba0a82fa322a2afa922a1a2a4ab22a92fa320a1aa27a960411b604082015260600190565b604051602081830303815290604052805190602001206040518263ffffffff1660e01b815260040161092191815260200190565b602060405180830381865afa15801561093e573d6000803e3d6000fd5b505050506040513d601f19601f8201168201806040525081019061096291906115fd565b905060006109708984610d4a565b905061097c8183610d4a565b808552610989908261175b565b60208501526001600160a01b03871660608501526109a78b88610d63565b608085018190526109b9908a90610d4a565b60a085018190526109ca828b61175b565b6109d4919061175b565b604085015250919998505050505050505050565b6000808212156106cc5760405162461bcd60e51b815260206004820181905260248201527f53616665436173743a2076616c7565206d75737420626520706f7369746976656044820152606401610472565b6000816001600160a01b03166318160ddd6040518163ffffffff1660e01b8152600401602060405180830381865afa158015610a7a573d6000803e3d6000fd5b505050506040513d601f19601f8201168201806040525081019061065c91906115fd565b6000806000806000851315610b0d57610aba8660200151610662565b610ac49086611798565b91506000610adb610ad68b8b8b610eb1565b610662565b905080831315610b07576020870151610af76105f683866117c6565b610b019190611510565b91508092505b50610b1e565b610b1b858760000151610f2b565b91505b909890975095505050505050565b600081158015610b3a575082155b15610b4f57610b4884610f9f565b90506106e0565b81158015610b5d5750600083115b15610b7457610b48610b6f8585611616565b610f9f565b6106dd828585610fb0565b600080610b9585610b8f86610fbd565b85610fb0565b905060008413610bb657610ba881610662565b610bb19061173f565b610bbf565b610bbf81610662565b95945050505050565b6000604051602001610bfd906020808252600f908201526e29aba0a82fa322a2afa320a1aa27a960891b604082015260600190565b60408051601f198184030181528282528051602091820120908301526001600160a01b0385169082015282151560608201526080015b60405160208183030381529060405280519060200120905092915050565b6000604051602001610c8d9060208082526016908201527520aa27a6a4a1afa9aba0a82fa322a2afa320a1aa27a960511b604082015260600190565b60408051601f198184030181528282528051602091820120908301526001600160a01b03841690820152606001604051602081830303815290604052805190602001209050919050565b6000604051602001610bfd906020808252601290820152712222a827a9a4aa2fa322a2afa320a1aa27a960711b604082015260600190565b6000604051602001610bfd906020808252601590820152742ba4aa24222920aba0a62fa322a2afa320a1aa27a960591b604082015260600190565b60006106e0838368327cb2734119d3b7a9601e1b610fb0565b600080836001600160a01b031663bd02d0f5604051602001610daa9060208082526011908201527026a0ac2faaa4afa322a2afa320a1aa27a960791b604082015260600190565b604051602081830303815290604052805190602001206040518263ffffffff1660e01b8152600401610dde91815260200190565b602060405180830381865afa158015610dfb573d6000803e3d6000fd5b505050506040513d601f19601f82011682018060405250810190610e1f91906115fd565b90506000846001600160a01b031663bd02d0f5610e3b86610fd0565b6040518263ffffffff1660e01b8152600401610e5991815260200190565b602060405180830381865afa158015610e76573d6000803e3d6000fd5b505050506040513d601f19601f82011682018060405250810190610e9a91906115fd565b9050818110610ea95781610bbf565b949350505050565b6000836001600160a01b031663bd02d0f5610ecc8585611003565b6040518263ffffffff1660e01b8152600401610eea91815260200190565b602060405180830381865afa158015610f07573d6000803e3d6000fd5b505050506040513d601f19601f820116820180604052508101906106dd91906115fd565b600080831215610f6d57610f3e82610662565b610f4783610662565b610f5190856117c6565b610f5c9060016117e6565b610f669190611798565b905061065c565b610f7682610662565b6001610f8184610662565b610f8b90866117e6565b610f9591906117c6565b6106e09190611798565b600061065c64e8d4a5100083611784565b60006106dd84848461107d565b6000808212156106cc578160000361065c565b6000604051602001610c8d906020808252600d908201526c2aa4afa322a2afa320a1aa27a960991b604082015260600190565b60006040516020016110409060208082526017908201527614d5d05417d253541050d517d413d3d317d05353d55395604a1b604082015260600190565b60408051601f198184030181528282528051602091820120908301526001600160a01b038086169183019190915283166060820152608001610c33565b60008080600019858709858702925082811083820303915050806000036110b7578382816110ad576110ad61176e565b04925050506106e0565b8084116110fe5760405162461bcd60e51b81526020600482015260156024820152744d6174683a206d756c446976206f766572666c6f7760581b6044820152606401610472565b60008486880960026001871981018816978890046003810283188082028403028082028403028082028403028082028403028082028403029081029092039091026000889003889004909101858311909403939093029303949094049190911702949350505050565b6040518060c0016040528060008152602001600081526020016000815260200160006001600160a01b0316815260200160008152602001600081525090565b6001600160a01b03811681146111bb57600080fd5b50565b80356111c9816111a6565b919050565b60405161016081016001600160401b03811182821017156111ff57634e487b7160e01b600052604160045260246000fd5b60405290565b60006080828403121561121757600080fd5b604051608081016001600160401b038111828210171561124757634e487b7160e01b600052604160045260246000fd5b6040529050808235611258816111a6565b81526020830135611268816111a6565b6020820152604083013561127b816111a6565b6040820152606083013561128e816111a6565b6060919091015292915050565b6000604082840312156112ad57600080fd5b604080519081016001600160401b03811182821017156112dd57634e487b7160e01b600052604160045260246000fd5b604052823581526020928301359281019290925250919050565b600060c0828403121561130957600080fd5b604051606081016001600160401b038111828210171561133957634e487b7160e01b600052604160045260246000fd5b604052905080611349848461129b565b8152611358846040850161129b565b602082015261136a846080850161129b565b60408201525092915050565b8035600581106111c957600080fd5b600080600080600080600080610200898b0312156113a257600080fd5b88356113ad816111a6565b97506113bc8a60208b01611205565b96506113cb8a60a08b016112f7565b9550610160890135945061018089013593506101a08901356113ec816111a6565b92506113fb6101c08a01611376565b91506101e0890135801515811461141157600080fd5b809150509295985092959890939650565b60006102a0828403121561143557600080fd5b61143d6111ce565b611446836111be565b81526114558460208501611205565b60208201526114678460a085016112f7565b604082015261147961016084016111be565b606082015261148c84610180850161129b565b608082015261149e6101c084016111be565b60a08201526114b1846101e0850161129b565b60c082015261022083013560e08201526102408301356101008201526114da61026084016111be565b6101208201526114ed6102808401611376565b6101408201529392505050565b634e487b7160e01b600052601160045260246000fd5b808202811582820484141761065c5761065c6114fa565b6001600160a01b03169052565b80516001600160a01b03908116835260208083015182169084015260408083015182169084015260609182015116910152565b81516001600160a01b0316815260208083015161018083019161158c90840182611534565b50604083015161159f60a0840182611527565b5060608301516115b260c0840182611527565b50608083015160e083015260a0830151610100818185015260c085015161012085015260e0850151610140850152808501519150506115f661016084018215159052565b5092915050565b60006020828403121561160f57600080fd5b5051919050565b8082018082111561065c5761065c6114fa565b634e487b7160e01b600052602160045260246000fd5b6001600160a01b03881681526101a0810161165d6020830189611534565b865160a083015260209687015160c0830152855160e083015294860151610100820152835161012082015292909401516101408301526101608201529115156101809092019190915292915050565b600061016082840312156116bf57600080fd5b6116c76111ce565b825181526020830151602082015260408301516040820152606083015160608201526080830151608082015260a083015160a082015260c083015160c082015260e083015160e08201526101008084015181830152506101208084015181830152506101408084015181830152508091505092915050565b6000600160ff1b8201611754576117546114fa565b5060000390565b8181038181111561065c5761065c6114fa565b634e487b7160e01b600052601260045260246000fd5b6000826117935761179361176e565b500490565b6000826117a7576117a761176e565b600160ff1b8214600019841416156117c1576117c16114fa565b500590565b81810360008312801583831316838312821617156115f6576115f66114fa565b8082018281126000831280158216821582161715611806576118066114fa565b50509291505056fea2646970667358221220cd02da8598e86c90b7aa418bde508fb1fc5c4e4f22311225f91c1732bd91cdb464736f6c63430008120033",
  "linkReferences": {
    "contracts/market/MarketUtils.sol": {
      "MarketUtils": [
        {
          "length": 20,
          "start": 906
        }
      ]
    },
    "contracts/pricing/SwapPricingUtils.sol": {
      "SwapPricingUtils": [
        {
          "length": 20,
          "start": 242
        }
      ]
    }
  },
  "deployedLinkReferences": {
    "contracts/market/MarketUtils.sol": {
      "MarketUtils": [
        {
          "length": 20,
          "start": 848
        }
      ]
    },
    "contracts/pricing/SwapPricingUtils.sol": {
      "SwapPricingUtils": [
        {
          "length": 20,
          "start": 184
        }
      ]
    }
  }
}