{
  "_format": "hh-sol-artifact-1",
  "contractName": "Reader",
  "sourceName": "contracts/reader/Reader.sol",
  "abi": [
    {
      "inputs": [
        {
          "internalType": "contract DataStore",
          "name": "dataStore",
          "type": "address"
        },
        {
          "internalType": "address",
          "name": "account",
          "type": "address"
        },
        {
          "internalType": "uint256",
          "name": "start",
          "type": "uint256"
        },
        {
          "internalType": "uint256",
          "name": "end",
          "type": "uint256"
        }
      ],
      "name": "getAccountOrders",
      "outputs": [
        {
          "components": [
            {
              "components": [
                {
                  "internalType": "address",
                  "name": "account",
                  "type": "address"
                },
                {
                  "internalType": "address",
                  "name": "receiver",
                  "type": "address"
                },
                {
                  "internalType": "address",
                  "name": "cancellationReceiver",
                  "type": "address"
                },
                {
                  "internalType": "address",
                  "name": "callbackContract",
                  "type": "address"
                },
                {
                  "internalType": "address",
                  "name": "uiFeeReceiver",
                  "type": "address"
                },
                {
                  "internalType": "address",
                  "name": "market",
                  "type": "address"
                },
                {
                  "internalType": "address",
                  "name": "initialCollateralToken",
                  "type": "address"
                },
                {
                  "internalType": "address[]",
                  "name": "swapPath",
                  "type": "address[]"
                }
              ],
              "internalType": "struct Order.Addresses",
              "name": "addresses",
              "type": "tuple"
            },
            {
              "components": [
                {
                  "internalType": "enum Order.OrderType",
                  "name": "orderType",
                  "type": "uint8"
                },
                {
                  "internalType": "enum Order.DecreasePositionSwapType",
                  "name": "decreasePositionSwapType",
                  "type": "uint8"
                },
                {
                  "internalType": "uint256",
                  "name": "sizeDeltaUsd",
                  "type": "uint256"
                },
                {
                  "internalType": "uint256",
                  "name": "initialCollateralDeltaAmount",
                  "type": "uint256"
                },
                {
                  "internalType": "uint256",
                  "name": "triggerPrice",
                  "type": "uint256"
                },
                {
                  "internalType": "uint256",
                  "name": "acceptablePrice",
                  "type": "uint256"
                },
                {
                  "internalType": "uint256",
                  "name": "executionFee",
                  "type": "uint256"
                },
                {
                  "internalType": "uint256",
                  "name": "callbackGasLimit",
                  "type": "uint256"
                },
                {
                  "internalType": "uint256",
                  "name": "minOutputAmount",
                  "type": "uint256"
                },
                {
                  "internalType": "uint256",
                  "name": "updatedAtTime",
                  "type": "uint256"
                },
                {
                  "internalType": "uint256",
                  "name": "validFromTime",
                  "type": "uint256"
                }
              ],
              "internalType": "struct Order.Numbers",
              "name": "numbers",
              "type": "tuple"
            },
            {
              "components": [
                {
                  "internalType": "bool",
                  "name": "isLong",
                  "type": "bool"
                },
                {
                  "internalType": "bool",
                  "name": "shouldUnwrapNativeToken",
                  "type": "bool"
                },
                {
                  "internalType": "bool",
                  "name": "isFrozen",
                  "type": "bool"
                },
                {
                  "internalType": "bool",
                  "name": "autoCancel",
                  "type": "bool"
                }
              ],
              "internalType": "struct Order.Flags",
              "name": "flags",
              "type": "tuple"
            }
          ],
          "internalType": "struct Order.Props[]",
          "name": "",
          "type": "tuple[]"
        }
      ],
      "stateMutability": "view",
      "type": "function"
    },
    {
      "inputs": [
        {
          "internalType": "contract DataStore",
          "name": "dataStore",
          "type": "address"
        },
        {
          "internalType": "contract IReferralStorage",
          "name": "referralStorage",
          "type": "address"
        },
        {
          "internalType": "address",
          "name": "account",
          "type": "address"
        },
        {
          "internalType": "address[]",
          "name": "markets",
          "type": "address[]"
        },
        {
          "components": [
            {
              "components": [
                {
                  "internalType": "uint256",
                  "name": "min",
                  "type": "uint256"
                },
                {
                  "internalType": "uint256",
                  "name": "max",
                  "type": "uint256"
                }
              ],
              "internalType": "struct Price.Props",
              "name": "indexTokenPrice",
              "type": "tuple"
            },
            {
              "components": [
                {
                  "internalType": "uint256",
                  "name": "min",
                  "type": "uint256"
                },
                {
                  "internalType": "uint256",
                  "name": "max",
                  "type": "uint256"
                }
              ],
              "internalType": "struct Price.Props",
              "name": "longTokenPrice",
              "type": "tuple"
            },
            {
              "components": [
                {
                  "internalType": "uint256",
                  "name": "min",
                  "type": "uint256"
                },
                {
                  "internalType": "uint256",
                  "name": "max",
                  "type": "uint256"
                }
              ],
              "internalType": "struct Price.Props",
              "name": "shortTokenPrice",
              "type": "tuple"
            }
          ],
          "internalType": "struct MarketUtils.MarketPrices[]",
          "name": "marketPrices",
          "type": "tuple[]"
        },
        {
          "internalType": "address",
          "name": "uiFeeReceiver",
          "type": "address"
        },
        {
          "internalType": "uint256",
          "name": "start",
          "type": "uint256"
        },
        {
          "internalType": "uint256",
          "name": "end",
          "type": "uint256"
        }
      ],
      "name": "getAccountPositionInfoList",
      "outputs": [
        {
          "components": [
            {
              "internalType": "bytes32",
              "name": "positionKey",
              "type": "bytes32"
            },
            {
              "components": [
                {
                  "components": [
                    {
                      "internalType": "address",
                      "name": "account",
                      "type": "address"
                    },
                    {
                      "internalType": "address",
                      "name": "market",
                      "type": "address"
                    },
                    {
                      "internalType": "address",
                      "name": "collateralToken",
                      "type": "address"
                    }
                  ],
                  "internalType": "struct Position.Addresses",
                  "name": "addresses",
                  "type": "tuple"
                },
                {
                  "components": [
                    {
                      "internalType": "uint256",
                      "name": "sizeInUsd",
                      "type": "uint256"
                    },
                    {
                      "internalType": "uint256",
                      "name": "sizeInTokens",
                      "type": "uint256"
                    },
                    {
                      "internalType": "uint256",
                      "name": "collateralAmount",
                      "type": "uint256"
                    },
                    {
                      "internalType": "uint256",
                      "name": "borrowingFactor",
                      "type": "uint256"
                    },
                    {
                      "internalType": "uint256",
                      "name": "fundingFeeAmountPerSize",
                      "type": "uint256"
                    },
                    {
                      "internalType": "uint256",
                      "name": "longTokenClaimableFundingAmountPerSize",
                      "type": "uint256"
                    },
                    {
                      "internalType": "uint256",
                      "name": "shortTokenClaimableFundingAmountPerSize",
                      "type": "uint256"
                    },
                    {
                      "internalType": "uint256",
                      "name": "increasedAtTime",
                      "type": "uint256"
                    },
                    {
                      "internalType": "uint256",
                      "name": "decreasedAtTime",
                      "type": "uint256"
                    }
                  ],
                  "internalType": "struct Position.Numbers",
                  "name": "numbers",
                  "type": "tuple"
                },
                {
                  "components": [
                    {
                      "internalType": "bool",
                      "name": "isLong",
                      "type": "bool"
                    }
                  ],
                  "internalType": "struct Position.Flags",
                  "name": "flags",
                  "type": "tuple"
                }
              ],
              "internalType": "struct Position.Props",
              "name": "position",
              "type": "tuple"
            },
            {
              "components": [
                {
                  "components": [
                    {
                      "internalType": "bytes32",
                      "name": "referralCode",
                      "type": "bytes32"
                    },
                    {
                      "internalType": "address",
                      "name": "affiliate",
                      "type": "address"
                    },
                    {
                      "internalType": "address",
                      "name": "trader",
                      "type": "address"
                    },
                    {
                      "internalType": "uint256",
                      "name": "totalRebateFactor",
                      "type": "uint256"
                    },
                    {
                      "internalType": "uint256",
                      "name": "affiliateRewardFactor",
                      "type": "uint256"
                    },
                    {
                      "internalType": "uint256",
                      "name": "adjustedAffiliateRewardFactor",
                      "type": "uint256"
                    },
                    {
                      "internalType": "uint256",
                      "name": "traderDiscountFactor",
                      "type": "uint256"
                    },
                    {
                      "internalType": "uint256",
                      "name": "totalRebateAmount",
                      "type": "uint256"
                    },
                    {
                      "internalType": "uint256",
                      "name": "traderDiscountAmount",
                      "type": "uint256"
                    },
                    {
                      "internalType": "uint256",
                      "name": "affiliateRewardAmount",
                      "type": "uint256"
                    }
                  ],
                  "internalType": "struct PositionPricingUtils.PositionReferralFees",
                  "name": "referral",
                  "type": "tuple"
                },
                {
                  "components": [
                    {
                      "internalType": "uint256",
                      "name": "traderTier",
                      "type": "uint256"
                    },
                    {
                      "internalType": "uint256",
                      "name": "traderDiscountFactor",
                      "type": "uint256"
                    },
                    {
                      "internalType": "uint256",
                      "name": "traderDiscountAmount",
                      "type": "uint256"
                    }
                  ],
                  "internalType": "struct PositionPricingUtils.PositionProFees",
                  "name": "pro",
                  "type": "tuple"
                },
                {
                  "components": [
                    {
                      "internalType": "uint256",
                      "name": "fundingFeeAmount",
                      "type": "uint256"
                    },
                    {
                      "internalType": "uint256",
                      "name": "claimableLongTokenAmount",
                      "type": "uint256"
                    },
                    {
                      "internalType": "uint256",
                      "name": "claimableShortTokenAmount",
                      "type": "uint256"
                    },
                    {
                      "internalType": "uint256",
                      "name": "latestFundingFeeAmountPerSize",
                      "type": "uint256"
                    },
                    {
                      "internalType": "uint256",
                      "name": "latestLongTokenClaimableFundingAmountPerSize",
                      "type": "uint256"
                    },
                    {
                      "internalType": "uint256",
                      "name": "latestShortTokenClaimableFundingAmountPerSize",
                      "type": "uint256"
                    }
                  ],
                  "internalType": "struct PositionPricingUtils.PositionFundingFees",
                  "name": "funding",
                  "type": "tuple"
                },
                {
                  "components": [
                    {
                      "internalType": "uint256",
                      "name": "borrowingFeeUsd",
                      "type": "uint256"
                    },
                    {
                      "internalType": "uint256",
                      "name": "borrowingFeeAmount",
                      "type": "uint256"
                    },
                    {
                      "internalType": "uint256",
                      "name": "borrowingFeeReceiverFactor",
                      "type": "uint256"
                    },
                    {
                      "internalType": "uint256",
                      "name": "borrowingFeeAmountForFeeReceiver",
                      "type": "uint256"
                    }
                  ],
                  "internalType": "struct PositionPricingUtils.PositionBorrowingFees",
                  "name": "borrowing",
                  "type": "tuple"
                },
                {
                  "components": [
                    {
                      "internalType": "address",
                      "name": "uiFeeReceiver",
                      "type": "address"
                    },
                    {
                      "internalType": "uint256",
                      "name": "uiFeeReceiverFactor",
                      "type": "uint256"
                    },
                    {
                      "internalType": "uint256",
                      "name": "uiFeeAmount",
                      "type": "uint256"
                    }
                  ],
                  "internalType": "struct PositionPricingUtils.PositionUiFees",
                  "name": "ui",
                  "type": "tuple"
                },
                {
                  "components": [
                    {
                      "internalType": "uint256",
                      "name": "liquidationFeeUsd",
                      "type": "uint256"
                    },
                    {
                      "internalType": "uint256",
                      "name": "liquidationFeeAmount",
                      "type": "uint256"
                    },
                    {
                      "internalType": "uint256",
                      "name": "liquidationFeeReceiverFactor",
                      "type": "uint256"
                    },
                    {
                      "internalType": "uint256",
                      "name": "liquidationFeeAmountForFeeReceiver",
                      "type": "uint256"
                    }
                  ],
                  "internalType": "struct PositionPricingUtils.PositionLiquidationFees",
                  "name": "liquidation",
                  "type": "tuple"
                },
                {
                  "components": [
                    {
                      "internalType": "uint256",
                      "name": "min",
                      "type": "uint256"
                    },
                    {
                      "internalType": "uint256",
                      "name": "max",
                      "type": "uint256"
                    }
                  ],
                  "internalType": "struct Price.Props",
                  "name": "collateralTokenPrice",
                  "type": "tuple"
                },
                {
                  "internalType": "uint256",
                  "name": "positionFeeFactor",
                  "type": "uint256"
                },
                {
                  "internalType": "uint256",
                  "name": "protocolFeeAmount",
                  "type": "uint256"
                },
                {
                  "internalType": "uint256",
                  "name": "positionFeeReceiverFactor",
                  "type": "uint256"
                },
                {
                  "internalType": "uint256",
                  "name": "feeReceiverAmount",
                  "type": "uint256"
                },
                {
                  "internalType": "uint256",
                  "name": "feeAmountForPool",
                  "type": "uint256"
                },
                {
                  "internalType": "uint256",
                  "name": "positionFeeAmountForPool",
                  "type": "uint256"
                },
                {
                  "internalType": "uint256",
                  "name": "positionFeeAmount",
                  "type": "uint256"
                },
                {
                  "internalType": "uint256",
                  "name": "totalCostAmountExcludingFunding",
                  "type": "uint256"
                },
                {
                  "internalType": "uint256",
                  "name": "totalCostAmount",
                  "type": "uint256"
                },
                {
                  "internalType": "uint256",
                  "name": "totalDiscountAmount",
                  "type": "uint256"
                }
              ],
              "internalType": "struct PositionPricingUtils.PositionFees",
              "name": "fees",
              "type": "tuple"
            },
            {
              "components": [
                {
                  "internalType": "int256",
                  "name": "priceImpactUsd",
                  "type": "int256"
                },
                {
                  "internalType": "uint256",
                  "name": "priceImpactDiffUsd",
                  "type": "uint256"
                },
                {
                  "internalType": "uint256",
                  "name": "executionPrice",
                  "type": "uint256"
                }
              ],
              "internalType": "struct ReaderPricingUtils.ExecutionPriceResult",
              "name": "executionPriceResult",
              "type": "tuple"
            },
            {
              "internalType": "int256",
              "name": "basePnlUsd",
              "type": "int256"
            },
            {
              "internalType": "int256",
              "name": "uncappedBasePnlUsd",
              "type": "int256"
            },
            {
              "internalType": "int256",
              "name": "pnlAfterPriceImpactUsd",
              "type": "int256"
            }
          ],
          "internalType": "struct ReaderPositionUtils.PositionInfo[]",
          "name": "",
          "type": "tuple[]"
        }
      ],
      "stateMutability": "view",
      "type": "function"
    },
    {
      "inputs": [
        {
          "internalType": "contract DataStore",
          "name": "dataStore",
          "type": "address"
        },
        {
          "internalType": "address",
          "name": "account",
          "type": "address"
        },
        {
          "internalType": "uint256",
          "name": "start",
          "type": "uint256"
        },
        {
          "internalType": "uint256",
          "name": "end",
          "type": "uint256"
        }
      ],
      "name": "getAccountPositions",
      "outputs": [
        {
          "components": [
            {
              "components": [
                {
                  "internalType": "address",
                  "name": "account",
                  "type": "address"
                },
                {
                  "internalType": "address",
                  "name": "market",
                  "type": "address"
                },
                {
                  "internalType": "address",
                  "name": "collateralToken",
                  "type": "address"
                }
              ],
              "internalType": "struct Position.Addresses",
              "name": "addresses",
              "type": "tuple"
            },
            {
              "components": [
                {
                  "internalType": "uint256",
                  "name": "sizeInUsd",
                  "type": "uint256"
                },
                {
                  "internalType": "uint256",
                  "name": "sizeInTokens",
                  "type": "uint256"
                },
                {
                  "internalType": "uint256",
                  "name": "collateralAmount",
                  "type": "uint256"
                },
                {
                  "internalType": "uint256",
                  "name": "borrowingFactor",
                  "type": "uint256"
                },
                {
                  "internalType": "uint256",
                  "name": "fundingFeeAmountPerSize",
                  "type": "uint256"
                },
                {
                  "internalType": "uint256",
                  "name": "longTokenClaimableFundingAmountPerSize",
                  "type": "uint256"
                },
                {
                  "internalType": "uint256",
                  "name": "shortTokenClaimableFundingAmountPerSize",
                  "type": "uint256"
                },
                {
                  "internalType": "uint256",
                  "name": "increasedAtTime",
                  "type": "uint256"
                },
                {
                  "internalType": "uint256",
                  "name": "decreasedAtTime",
                  "type": "uint256"
                }
              ],
              "internalType": "struct Position.Numbers",
              "name": "numbers",
              "type": "tuple"
            },
            {
              "components": [
                {
                  "internalType": "bool",
                  "name": "isLong",
                  "type": "bool"
                }
              ],
              "internalType": "struct Position.Flags",
              "name": "flags",
              "type": "tuple"
            }
          ],
          "internalType": "struct Position.Props[]",
          "name": "",
          "type": "tuple[]"
        }
      ],
      "stateMutability": "view",
      "type": "function"
    },
    {
      "inputs": [
        {
          "internalType": "contract DataStore",
          "name": "dataStore",
          "type": "address"
        },
        {
          "internalType": "address",
          "name": "market",
          "type": "address"
        },
        {
          "internalType": "bool",
          "name": "isLong",
          "type": "bool"
        },
        {
          "components": [
            {
              "components": [
                {
                  "internalType": "uint256",
                  "name": "min",
                  "type": "uint256"
                },
                {
                  "internalType": "uint256",
                  "name": "max",
                  "type": "uint256"
                }
              ],
              "internalType": "struct Price.Props",
              "name": "indexTokenPrice",
              "type": "tuple"
            },
            {
              "components": [
                {
                  "internalType": "uint256",
                  "name": "min",
                  "type": "uint256"
                },
                {
                  "internalType": "uint256",
                  "name": "max",
                  "type": "uint256"
                }
              ],
              "internalType": "struct Price.Props",
              "name": "longTokenPrice",
              "type": "tuple"
            },
            {
              "components": [
                {
                  "internalType": "uint256",
                  "name": "min",
                  "type": "uint256"
                },
                {
                  "internalType": "uint256",
                  "name": "max",
                  "type": "uint256"
                }
              ],
              "internalType": "struct Price.Props",
              "name": "shortTokenPrice",
              "type": "tuple"
            }
          ],
          "internalType": "struct MarketUtils.MarketPrices",
          "name": "prices",
          "type": "tuple"
        }
      ],
      "name": "getAdlState",
      "outputs": [
        {
          "internalType": "uint256",
          "name": "",
          "type": "uint256"
        },
        {
          "internalType": "bool",
          "name": "",
          "type": "bool"
        },
        {
          "internalType": "int256",
          "name": "",
          "type": "int256"
        },
        {
          "internalType": "uint256",
          "name": "",
          "type": "uint256"
        }
      ],
      "stateMutability": "view",
      "type": "function"
    },
    {
      "inputs": [
        {
          "internalType": "contract DataStore",
          "name": "dataStore",
          "type": "address"
        },
        {
          "internalType": "bytes32",
          "name": "key",
          "type": "bytes32"
        }
      ],
      "name": "getDeposit",
      "outputs": [
        {
          "components": [
            {
              "components": [
                {
                  "internalType": "address",
                  "name": "account",
                  "type": "address"
                },
                {
                  "internalType": "address",
                  "name": "receiver",
                  "type": "address"
                },
                {
                  "internalType": "address",
                  "name": "callbackContract",
                  "type": "address"
                },
                {
                  "internalType": "address",
                  "name": "uiFeeReceiver",
                  "type": "address"
                },
                {
                  "internalType": "address",
                  "name": "market",
                  "type": "address"
                },
                {
                  "internalType": "address",
                  "name": "initialLongToken",
                  "type": "address"
                },
                {
                  "internalType": "address",
                  "name": "initialShortToken",
                  "type": "address"
                },
                {
                  "internalType": "address[]",
                  "name": "longTokenSwapPath",
                  "type": "address[]"
                },
                {
                  "internalType": "address[]",
                  "name": "shortTokenSwapPath",
                  "type": "address[]"
                }
              ],
              "internalType": "struct Deposit.Addresses",
              "name": "addresses",
              "type": "tuple"
            },
            {
              "components": [
                {
                  "internalType": "uint256",
                  "name": "initialLongTokenAmount",
                  "type": "uint256"
                },
                {
                  "internalType": "uint256",
                  "name": "initialShortTokenAmount",
                  "type": "uint256"
                },
                {
                  "internalType": "uint256",
                  "name": "minMarketTokens",
                  "type": "uint256"
                },
                {
                  "internalType": "uint256",
                  "name": "updatedAtTime",
                  "type": "uint256"
                },
                {
                  "internalType": "uint256",
                  "name": "executionFee",
                  "type": "uint256"
                },
                {
                  "internalType": "uint256",
                  "name": "callbackGasLimit",
                  "type": "uint256"
                }
              ],
              "internalType": "struct Deposit.Numbers",
              "name": "numbers",
              "type": "tuple"
            },
            {
              "components": [
                {
                  "internalType": "bool",
                  "name": "shouldUnwrapNativeToken",
                  "type": "bool"
                }
              ],
              "internalType": "struct Deposit.Flags",
              "name": "flags",
              "type": "tuple"
            }
          ],
          "internalType": "struct Deposit.Props",
          "name": "",
          "type": "tuple"
        }
      ],
      "stateMutability": "view",
      "type": "function"
    },
    {
      "inputs": [
        {
          "internalType": "contract DataStore",
          "name": "dataStore",
          "type": "address"
        },
        {
          "components": [
            {
              "internalType": "address",
              "name": "marketToken",
              "type": "address"
            },
            {
              "internalType": "address",
              "name": "indexToken",
              "type": "address"
            },
            {
              "internalType": "address",
              "name": "longToken",
              "type": "address"
            },
            {
              "internalType": "address",
              "name": "shortToken",
              "type": "address"
            }
          ],
          "internalType": "struct Market.Props",
          "name": "market",
          "type": "tuple"
        },
        {
          "components": [
            {
              "components": [
                {
                  "internalType": "uint256",
                  "name": "min",
                  "type": "uint256"
                },
                {
                  "internalType": "uint256",
                  "name": "max",
                  "type": "uint256"
                }
              ],
              "internalType": "struct Price.Props",
              "name": "indexTokenPrice",
              "type": "tuple"
            },
            {
              "components": [
                {
                  "internalType": "uint256",
                  "name": "min",
                  "type": "uint256"
                },
                {
                  "internalType": "uint256",
                  "name": "max",
                  "type": "uint256"
                }
              ],
              "internalType": "struct Price.Props",
              "name": "longTokenPrice",
              "type": "tuple"
            },
            {
              "components": [
                {
                  "internalType": "uint256",
                  "name": "min",
                  "type": "uint256"
                },
                {
                  "internalType": "uint256",
                  "name": "max",
                  "type": "uint256"
                }
              ],
              "internalType": "struct Price.Props",
              "name": "shortTokenPrice",
              "type": "tuple"
            }
          ],
          "internalType": "struct MarketUtils.MarketPrices",
          "name": "prices",
          "type": "tuple"
        },
        {
          "internalType": "uint256",
          "name": "longTokenAmount",
          "type": "uint256"
        },
        {
          "internalType": "uint256",
          "name": "shortTokenAmount",
          "type": "uint256"
        },
        {
          "internalType": "address",
          "name": "uiFeeReceiver",
          "type": "address"
        },
        {
          "internalType": "enum ISwapPricingUtils.SwapPricingType",
          "name": "swapPricingType",
          "type": "uint8"
        },
        {
          "internalType": "bool",
          "name": "includeVirtualInventoryImpact",
          "type": "bool"
        }
      ],
      "name": "getDepositAmountOut",
      "outputs": [
        {
          "internalType": "uint256",
          "name": "",
          "type": "uint256"
        }
      ],
      "stateMutability": "view",
      "type": "function"
    },
    {
      "inputs": [
        {
          "internalType": "contract DataStore",
          "name": "dataStore",
          "type": "address"
        },
        {
          "internalType": "address",
          "name": "marketKey",
          "type": "address"
        },
        {
          "components": [
            {
              "internalType": "uint256",
              "name": "min",
              "type": "uint256"
            },
            {
              "internalType": "uint256",
              "name": "max",
              "type": "uint256"
            }
          ],
          "internalType": "struct Price.Props",
          "name": "indexTokenPrice",
          "type": "tuple"
        },
        {
          "internalType": "uint256",
          "name": "positionSizeInUsd",
          "type": "uint256"
        },
        {
          "internalType": "uint256",
          "name": "positionSizeInTokens",
          "type": "uint256"
        },
        {
          "internalType": "int256",
          "name": "sizeDeltaUsd",
          "type": "int256"
        },
        {
          "internalType": "bool",
          "name": "isLong",
          "type": "bool"
        }
      ],
      "name": "getExecutionPrice",
      "outputs": [
        {
          "components": [
            {
              "internalType": "int256",
              "name": "priceImpactUsd",
              "type": "int256"
            },
            {
              "internalType": "uint256",
              "name": "priceImpactDiffUsd",
              "type": "uint256"
            },
            {
              "internalType": "uint256",
              "name": "executionPrice",
              "type": "uint256"
            }
          ],
          "internalType": "struct ReaderPricingUtils.ExecutionPriceResult",
          "name": "",
          "type": "tuple"
        }
      ],
      "stateMutability": "view",
      "type": "function"
    },
    {
      "inputs": [
        {
          "internalType": "contract DataStore",
          "name": "dataStore",
          "type": "address"
        },
        {
          "internalType": "address",
          "name": "key",
          "type": "address"
        }
      ],
      "name": "getMarket",
      "outputs": [
        {
          "components": [
            {
              "internalType": "address",
              "name": "marketToken",
              "type": "address"
            },
            {
              "internalType": "address",
              "name": "indexToken",
              "type": "address"
            },
            {
              "internalType": "address",
              "name": "longToken",
              "type": "address"
            },
            {
              "internalType": "address",
              "name": "shortToken",
              "type": "address"
            }
          ],
          "internalType": "struct Market.Props",
          "name": "",
          "type": "tuple"
        }
      ],
      "stateMutability": "view",
      "type": "function"
    },
    {
      "inputs": [
        {
          "internalType": "contract DataStore",
          "name": "dataStore",
          "type": "address"
        },
        {
          "internalType": "bytes32",
          "name": "salt",
          "type": "bytes32"
        }
      ],
      "name": "getMarketBySalt",
      "outputs": [
        {
          "components": [
            {
              "internalType": "address",
              "name": "marketToken",
              "type": "address"
            },
            {
              "internalType": "address",
              "name": "indexToken",
              "type": "address"
            },
            {
              "internalType": "address",
              "name": "longToken",
              "type": "address"
            },
            {
              "internalType": "address",
              "name": "shortToken",
              "type": "address"
            }
          ],
          "internalType": "struct Market.Props",
          "name": "",
          "type": "tuple"
        }
      ],
      "stateMutability": "view",
      "type": "function"
    },
    {
      "inputs": [
        {
          "internalType": "contract DataStore",
          "name": "dataStore",
          "type": "address"
        },
        {
          "components": [
            {
              "components": [
                {
                  "internalType": "uint256",
                  "name": "min",
                  "type": "uint256"
                },
                {
                  "internalType": "uint256",
                  "name": "max",
                  "type": "uint256"
                }
              ],
              "internalType": "struct Price.Props",
              "name": "indexTokenPrice",
              "type": "tuple"
            },
            {
              "components": [
                {
                  "internalType": "uint256",
                  "name": "min",
                  "type": "uint256"
                },
                {
                  "internalType": "uint256",
                  "name": "max",
                  "type": "uint256"
                }
              ],
              "internalType": "struct Price.Props",
              "name": "longTokenPrice",
              "type": "tuple"
            },
            {
              "components": [
                {
                  "internalType": "uint256",
                  "name": "min",
                  "type": "uint256"
                },
                {
                  "internalType": "uint256",
                  "name": "max",
                  "type": "uint256"
                }
              ],
              "internalType": "struct Price.Props",
              "name": "shortTokenPrice",
              "type": "tuple"
            }
          ],
          "internalType": "struct MarketUtils.MarketPrices",
          "name": "prices",
          "type": "tuple"
        },
        {
          "internalType": "address",
          "name": "marketKey",
          "type": "address"
        }
      ],
      "name": "getMarketInfo",
      "outputs": [
        {
          "components": [
            {
              "components": [
                {
                  "internalType": "address",
                  "name": "marketToken",
                  "type": "address"
                },
                {
                  "internalType": "address",
                  "name": "indexToken",
                  "type": "address"
                },
                {
                  "internalType": "address",
                  "name": "longToken",
                  "type": "address"
                },
                {
                  "internalType": "address",
                  "name": "shortToken",
                  "type": "address"
                }
              ],
              "internalType": "struct Market.Props",
              "name": "market",
              "type": "tuple"
            },
            {
              "internalType": "uint256",
              "name": "borrowingFactorPerSecondForLongs",
              "type": "uint256"
            },
            {
              "internalType": "uint256",
              "name": "borrowingFactorPerSecondForShorts",
              "type": "uint256"
            },
            {
              "components": [
                {
                  "components": [
                    {
                      "components": [
                        {
                          "internalType": "uint256",
                          "name": "longToken",
                          "type": "uint256"
                        },
                        {
                          "internalType": "uint256",
                          "name": "shortToken",
                          "type": "uint256"
                        }
                      ],
                      "internalType": "struct MarketUtils.CollateralType",
                      "name": "long",
                      "type": "tuple"
                    },
                    {
                      "components": [
                        {
                          "internalType": "uint256",
                          "name": "longToken",
                          "type": "uint256"
                        },
                        {
                          "internalType": "uint256",
                          "name": "shortToken",
                          "type": "uint256"
                        }
                      ],
                      "internalType": "struct MarketUtils.CollateralType",
                      "name": "short",
                      "type": "tuple"
                    }
                  ],
                  "internalType": "struct MarketUtils.PositionType",
                  "name": "fundingFeeAmountPerSize",
                  "type": "tuple"
                },
                {
                  "components": [
                    {
                      "components": [
                        {
                          "internalType": "uint256",
                          "name": "longToken",
                          "type": "uint256"
                        },
                        {
                          "internalType": "uint256",
                          "name": "shortToken",
                          "type": "uint256"
                        }
                      ],
                      "internalType": "struct MarketUtils.CollateralType",
                      "name": "long",
                      "type": "tuple"
                    },
                    {
                      "components": [
                        {
                          "internalType": "uint256",
                          "name": "longToken",
                          "type": "uint256"
                        },
                        {
                          "internalType": "uint256",
                          "name": "shortToken",
                          "type": "uint256"
                        }
                      ],
                      "internalType": "struct MarketUtils.CollateralType",
                      "name": "short",
                      "type": "tuple"
                    }
                  ],
                  "internalType": "struct MarketUtils.PositionType",
                  "name": "claimableFundingAmountPerSize",
                  "type": "tuple"
                }
              ],
              "internalType": "struct ReaderUtils.BaseFundingValues",
              "name": "baseFunding",
              "type": "tuple"
            },
            {
              "components": [
                {
                  "internalType": "bool",
                  "name": "longsPayShorts",
                  "type": "bool"
                },
                {
                  "internalType": "uint256",
                  "name": "fundingFactorPerSecond",
                  "type": "uint256"
                },
                {
                  "internalType": "int256",
                  "name": "nextSavedFundingFactorPerSecond",
                  "type": "int256"
                },
                {
                  "components": [
                    {
                      "components": [
                        {
                          "internalType": "uint256",
                          "name": "longToken",
                          "type": "uint256"
                        },
                        {
                          "internalType": "uint256",
                          "name": "shortToken",
                          "type": "uint256"
                        }
                      ],
                      "internalType": "struct MarketUtils.CollateralType",
                      "name": "long",
                      "type": "tuple"
                    },
                    {
                      "components": [
                        {
                          "internalType": "uint256",
                          "name": "longToken",
                          "type": "uint256"
                        },
                        {
                          "internalType": "uint256",
                          "name": "shortToken",
                          "type": "uint256"
                        }
                      ],
                      "internalType": "struct MarketUtils.CollateralType",
                      "name": "short",
                      "type": "tuple"
                    }
                  ],
                  "internalType": "struct MarketUtils.PositionType",
                  "name": "fundingFeeAmountPerSizeDelta",
                  "type": "tuple"
                },
                {
                  "components": [
                    {
                      "components": [
                        {
                          "internalType": "uint256",
                          "name": "longToken",
                          "type": "uint256"
                        },
                        {
                          "internalType": "uint256",
                          "name": "shortToken",
                          "type": "uint256"
                        }
                      ],
                      "internalType": "struct MarketUtils.CollateralType",
                      "name": "long",
                      "type": "tuple"
                    },
                    {
                      "components": [
                        {
                          "internalType": "uint256",
                          "name": "longToken",
                          "type": "uint256"
                        },
                        {
                          "internalType": "uint256",
                          "name": "shortToken",
                          "type": "uint256"
                        }
                      ],
                      "internalType": "struct MarketUtils.CollateralType",
                      "name": "short",
                      "type": "tuple"
                    }
                  ],
                  "internalType": "struct MarketUtils.PositionType",
                  "name": "claimableFundingAmountPerSizeDelta",
                  "type": "tuple"
                }
              ],
              "internalType": "struct MarketUtils.GetNextFundingAmountPerSizeResult",
              "name": "nextFunding",
              "type": "tuple"
            },
            {
              "components": [
                {
                  "internalType": "uint256",
                  "name": "virtualPoolAmountForLongToken",
                  "type": "uint256"
                },
                {
                  "internalType": "uint256",
                  "name": "virtualPoolAmountForShortToken",
                  "type": "uint256"
                },
                {
                  "internalType": "int256",
                  "name": "virtualInventoryForPositions",
                  "type": "int256"
                }
              ],
              "internalType": "struct ReaderUtils.VirtualInventory",
              "name": "virtualInventory",
              "type": "tuple"
            },
            {
              "internalType": "bool",
              "name": "isDisabled",
              "type": "bool"
            }
          ],
          "internalType": "struct ReaderUtils.MarketInfo",
          "name": "",
          "type": "tuple"
        }
      ],
      "stateMutability": "view",
      "type": "function"
    },
    {
      "inputs": [
        {
          "internalType": "contract DataStore",
          "name": "dataStore",
          "type": "address"
        },
        {
          "components": [
            {
              "components": [
                {
                  "internalType": "uint256",
                  "name": "min",
                  "type": "uint256"
                },
                {
                  "internalType": "uint256",
                  "name": "max",
                  "type": "uint256"
                }
              ],
              "internalType": "struct Price.Props",
              "name": "indexTokenPrice",
              "type": "tuple"
            },
            {
              "components": [
                {
                  "internalType": "uint256",
                  "name": "min",
                  "type": "uint256"
                },
                {
                  "internalType": "uint256",
                  "name": "max",
                  "type": "uint256"
                }
              ],
              "internalType": "struct Price.Props",
              "name": "longTokenPrice",
              "type": "tuple"
            },
            {
              "components": [
                {
                  "internalType": "uint256",
                  "name": "min",
                  "type": "uint256"
                },
                {
                  "internalType": "uint256",
                  "name": "max",
                  "type": "uint256"
                }
              ],
              "internalType": "struct Price.Props",
              "name": "shortTokenPrice",
              "type": "tuple"
            }
          ],
          "internalType": "struct MarketUtils.MarketPrices[]",
          "name": "marketPricesList",
          "type": "tuple[]"
        },
        {
          "internalType": "uint256",
          "name": "start",
          "type": "uint256"
        },
        {
          "internalType": "uint256",
          "name": "end",
          "type": "uint256"
        }
      ],
      "name": "getMarketInfoList",
      "outputs": [
        {
          "components": [
            {
              "components": [
                {
                  "internalType": "address",
                  "name": "marketToken",
                  "type": "address"
                },
                {
                  "internalType": "address",
                  "name": "indexToken",
                  "type": "address"
                },
                {
                  "internalType": "address",
                  "name": "longToken",
                  "type": "address"
                },
                {
                  "internalType": "address",
                  "name": "shortToken",
                  "type": "address"
                }
              ],
              "internalType": "struct Market.Props",
              "name": "market",
              "type": "tuple"
            },
            {
              "internalType": "uint256",
              "name": "borrowingFactorPerSecondForLongs",
              "type": "uint256"
            },
            {
              "internalType": "uint256",
              "name": "borrowingFactorPerSecondForShorts",
              "type": "uint256"
            },
            {
              "components": [
                {
                  "components": [
                    {
                      "components": [
                        {
                          "internalType": "uint256",
                          "name": "longToken",
                          "type": "uint256"
                        },
                        {
                          "internalType": "uint256",
                          "name": "shortToken",
                          "type": "uint256"
                        }
                      ],
                      "internalType": "struct MarketUtils.CollateralType",
                      "name": "long",
                      "type": "tuple"
                    },
                    {
                      "components": [
                        {
                          "internalType": "uint256",
                          "name": "longToken",
                          "type": "uint256"
                        },
                        {
                          "internalType": "uint256",
                          "name": "shortToken",
                          "type": "uint256"
                        }
                      ],
                      "internalType": "struct MarketUtils.CollateralType",
                      "name": "short",
                      "type": "tuple"
                    }
                  ],
                  "internalType": "struct MarketUtils.PositionType",
                  "name": "fundingFeeAmountPerSize",
                  "type": "tuple"
                },
                {
                  "components": [
                    {
                      "components": [
                        {
                          "internalType": "uint256",
                          "name": "longToken",
                          "type": "uint256"
                        },
                        {
                          "internalType": "uint256",
                          "name": "shortToken",
                          "type": "uint256"
                        }
                      ],
                      "internalType": "struct MarketUtils.CollateralType",
                      "name": "long",
                      "type": "tuple"
                    },
                    {
                      "components": [
                        {
                          "internalType": "uint256",
                          "name": "longToken",
                          "type": "uint256"
                        },
                        {
                          "internalType": "uint256",
                          "name": "shortToken",
                          "type": "uint256"
                        }
                      ],
                      "internalType": "struct MarketUtils.CollateralType",
                      "name": "short",
                      "type": "tuple"
                    }
                  ],
                  "internalType": "struct MarketUtils.PositionType",
                  "name": "claimableFundingAmountPerSize",
                  "type": "tuple"
                }
              ],
              "internalType": "struct ReaderUtils.BaseFundingValues",
              "name": "baseFunding",
              "type": "tuple"
            },
            {
              "components": [
                {
                  "internalType": "bool",
                  "name": "longsPayShorts",
                  "type": "bool"
                },
                {
                  "internalType": "uint256",
                  "name": "fundingFactorPerSecond",
                  "type": "uint256"
                },
                {
                  "internalType": "int256",
                  "name": "nextSavedFundingFactorPerSecond",
                  "type": "int256"
                },
                {
                  "components": [
                    {
                      "components": [
                        {
                          "internalType": "uint256",
                          "name": "longToken",
                          "type": "uint256"
                        },
                        {
                          "internalType": "uint256",
                          "name": "shortToken",
                          "type": "uint256"
                        }
                      ],
                      "internalType": "struct MarketUtils.CollateralType",
                      "name": "long",
                      "type": "tuple"
                    },
                    {
                      "components": [
                        {
                          "internalType": "uint256",
                          "name": "longToken",
                          "type": "uint256"
                        },
                        {
                          "internalType": "uint256",
                          "name": "shortToken",
                          "type": "uint256"
                        }
                      ],
                      "internalType": "struct MarketUtils.CollateralType",
                      "name": "short",
                      "type": "tuple"
                    }
                  ],
                  "internalType": "struct MarketUtils.PositionType",
                  "name": "fundingFeeAmountPerSizeDelta",
                  "type": "tuple"
                },
                {
                  "components": [
                    {
                      "components": [
                        {
                          "internalType": "uint256",
                          "name": "longToken",
                          "type": "uint256"
                        },
                        {
                          "internalType": "uint256",
                          "name": "shortToken",
                          "type": "uint256"
                        }
                      ],
                      "internalType": "struct MarketUtils.CollateralType",
                      "name": "long",
                      "type": "tuple"
                    },
                    {
                      "components": [
                        {
                          "internalType": "uint256",
                          "name": "longToken",
                          "type": "uint256"
                        },
                        {
                          "internalType": "uint256",
                          "name": "shortToken",
                          "type": "uint256"
                        }
                      ],
                      "internalType": "struct MarketUtils.CollateralType",
                      "name": "short",
                      "type": "tuple"
                    }
                  ],
                  "internalType": "struct MarketUtils.PositionType",
                  "name": "claimableFundingAmountPerSizeDelta",
                  "type": "tuple"
                }
              ],
              "internalType": "struct MarketUtils.GetNextFundingAmountPerSizeResult",
              "name": "nextFunding",
              "type": "tuple"
            },
            {
              "components": [
                {
                  "internalType": "uint256",
                  "name": "virtualPoolAmountForLongToken",
                  "type": "uint256"
                },
                {
                  "internalType": "uint256",
                  "name": "virtualPoolAmountForShortToken",
                  "type": "uint256"
                },
                {
                  "internalType": "int256",
                  "name": "virtualInventoryForPositions",
                  "type": "int256"
                }
              ],
              "internalType": "struct ReaderUtils.VirtualInventory",
              "name": "virtualInventory",
              "type": "tuple"
            },
            {
              "internalType": "bool",
              "name": "isDisabled",
              "type": "bool"
            }
          ],
          "internalType": "struct ReaderUtils.MarketInfo[]",
          "name": "",
          "type": "tuple[]"
        }
      ],
      "stateMutability": "view",
      "type": "function"
    },
    {
      "inputs": [
        {
          "internalType": "contract DataStore",
          "name": "dataStore",
          "type": "address"
        },
        {
          "components": [
            {
              "internalType": "address",
              "name": "marketToken",
              "type": "address"
            },
            {
              "internalType": "address",
              "name": "indexToken",
              "type": "address"
            },
            {
              "internalType": "address",
              "name": "longToken",
              "type": "address"
            },
            {
              "internalType": "address",
              "name": "shortToken",
              "type": "address"
            }
          ],
          "internalType": "struct Market.Props",
          "name": "market",
          "type": "tuple"
        },
        {
          "components": [
            {
              "internalType": "uint256",
              "name": "min",
              "type": "uint256"
            },
            {
              "internalType": "uint256",
              "name": "max",
              "type": "uint256"
            }
          ],
          "internalType": "struct Price.Props",
          "name": "indexTokenPrice",
          "type": "tuple"
        },
        {
          "components": [
            {
              "internalType": "uint256",
              "name": "min",
              "type": "uint256"
            },
            {
              "internalType": "uint256",
              "name": "max",
              "type": "uint256"
            }
          ],
          "internalType": "struct Price.Props",
          "name": "longTokenPrice",
          "type": "tuple"
        },
        {
          "components": [
            {
              "internalType": "uint256",
              "name": "min",
              "type": "uint256"
            },
            {
              "internalType": "uint256",
              "name": "max",
              "type": "uint256"
            }
          ],
          "internalType": "struct Price.Props",
          "name": "shortTokenPrice",
          "type": "tuple"
        },
        {
          "internalType": "bytes32",
          "name": "pnlFactorType",
          "type": "bytes32"
        },
        {
          "internalType": "bool",
          "name": "maximize",
          "type": "bool"
        }
      ],
      "name": "getMarketTokenPrice",
      "outputs": [
        {
          "internalType": "int256",
          "name": "",
          "type": "int256"
        },
        {
          "components": [
            {
              "internalType": "int256",
              "name": "poolValue",
              "type": "int256"
            },
            {
              "internalType": "int256",
              "name": "longPnl",
              "type": "int256"
            },
            {
              "internalType": "int256",
              "name": "shortPnl",
              "type": "int256"
            },
            {
              "internalType": "int256",
              "name": "netPnl",
              "type": "int256"
            },
            {
              "internalType": "uint256",
              "name": "longTokenAmount",
              "type": "uint256"
            },
            {
              "internalType": "uint256",
              "name": "shortTokenAmount",
              "type": "uint256"
            },
            {
              "internalType": "uint256",
              "name": "longTokenUsd",
              "type": "uint256"
            },
            {
              "internalType": "uint256",
              "name": "shortTokenUsd",
              "type": "uint256"
            },
            {
              "internalType": "uint256",
              "name": "totalBorrowingFees",
              "type": "uint256"
            },
            {
              "internalType": "uint256",
              "name": "borrowingFeePoolFactor",
              "type": "uint256"
            },
            {
              "internalType": "uint256",
              "name": "impactPoolAmount",
              "type": "uint256"
            }
          ],
          "internalType": "struct MarketPoolValueInfo.Props",
          "name": "",
          "type": "tuple"
        }
      ],
      "stateMutability": "view",
      "type": "function"
    },
    {
      "inputs": [
        {
          "internalType": "contract DataStore",
          "name": "dataStore",
          "type": "address"
        },
        {
          "internalType": "uint256",
          "name": "start",
          "type": "uint256"
        },
        {
          "internalType": "uint256",
          "name": "end",
          "type": "uint256"
        }
      ],
      "name": "getMarkets",
      "outputs": [
        {
          "components": [
            {
              "internalType": "address",
              "name": "marketToken",
              "type": "address"
            },
            {
              "internalType": "address",
              "name": "indexToken",
              "type": "address"
            },
            {
              "internalType": "address",
              "name": "longToken",
              "type": "address"
            },
            {
              "internalType": "address",
              "name": "shortToken",
              "type": "address"
            }
          ],
          "internalType": "struct Market.Props[]",
          "name": "",
          "type": "tuple[]"
        }
      ],
      "stateMutability": "view",
      "type": "function"
    },
    {
      "inputs": [
        {
          "internalType": "contract DataStore",
          "name": "dataStore",
          "type": "address"
        },
        {
          "components": [
            {
              "internalType": "address",
              "name": "marketToken",
              "type": "address"
            },
            {
              "internalType": "address",
              "name": "indexToken",
              "type": "address"
            },
            {
              "internalType": "address",
              "name": "longToken",
              "type": "address"
            },
            {
              "internalType": "address",
              "name": "shortToken",
              "type": "address"
            }
          ],
          "internalType": "struct Market.Props",
          "name": "market",
          "type": "tuple"
        },
        {
          "components": [
            {
              "internalType": "uint256",
              "name": "min",
              "type": "uint256"
            },
            {
              "internalType": "uint256",
              "name": "max",
              "type": "uint256"
            }
          ],
          "internalType": "struct Price.Props",
          "name": "indexTokenPrice",
          "type": "tuple"
        },
        {
          "internalType": "bool",
          "name": "maximize",
          "type": "bool"
        }
      ],
      "name": "getNetPnl",
      "outputs": [
        {
          "internalType": "int256",
          "name": "",
          "type": "int256"
        }
      ],
      "stateMutability": "view",
      "type": "function"
    },
    {
      "inputs": [
        {
          "internalType": "contract DataStore",
          "name": "dataStore",
          "type": "address"
        },
        {
          "components": [
            {
              "internalType": "address",
              "name": "marketToken",
              "type": "address"
            },
            {
              "internalType": "address",
              "name": "indexToken",
              "type": "address"
            },
            {
              "internalType": "address",
              "name": "longToken",
              "type": "address"
            },
            {
              "internalType": "address",
              "name": "shortToken",
              "type": "address"
            }
          ],
          "internalType": "struct Market.Props",
          "name": "market",
          "type": "tuple"
        },
        {
          "components": [
            {
              "internalType": "uint256",
              "name": "min",
              "type": "uint256"
            },
            {
              "internalType": "uint256",
              "name": "max",
              "type": "uint256"
            }
          ],
          "internalType": "struct Price.Props",
          "name": "indexTokenPrice",
          "type": "tuple"
        },
        {
          "internalType": "bool",
          "name": "isLong",
          "type": "bool"
        },
        {
          "internalType": "bool",
          "name": "maximize",
          "type": "bool"
        }
      ],
      "name": "getOpenInterestWithPnl",
      "outputs": [
        {
          "internalType": "int256",
          "name": "",
          "type": "int256"
        }
      ],
      "stateMutability": "view",
      "type": "function"
    },
    {
      "inputs": [
        {
          "internalType": "contract DataStore",
          "name": "dataStore",
          "type": "address"
        },
        {
          "internalType": "bytes32",
          "name": "key",
          "type": "bytes32"
        }
      ],
      "name": "getOrder",
      "outputs": [
        {
          "components": [
            {
              "components": [
                {
                  "internalType": "address",
                  "name": "account",
                  "type": "address"
                },
                {
                  "internalType": "address",
                  "name": "receiver",
                  "type": "address"
                },
                {
                  "internalType": "address",
                  "name": "cancellationReceiver",
                  "type": "address"
                },
                {
                  "internalType": "address",
                  "name": "callbackContract",
                  "type": "address"
                },
                {
                  "internalType": "address",
                  "name": "uiFeeReceiver",
                  "type": "address"
                },
                {
                  "internalType": "address",
                  "name": "market",
                  "type": "address"
                },
                {
                  "internalType": "address",
                  "name": "initialCollateralToken",
                  "type": "address"
                },
                {
                  "internalType": "address[]",
                  "name": "swapPath",
                  "type": "address[]"
                }
              ],
              "internalType": "struct Order.Addresses",
              "name": "addresses",
              "type": "tuple"
            },
            {
              "components": [
                {
                  "internalType": "enum Order.OrderType",
                  "name": "orderType",
                  "type": "uint8"
                },
                {
                  "internalType": "enum Order.DecreasePositionSwapType",
                  "name": "decreasePositionSwapType",
                  "type": "uint8"
                },
                {
                  "internalType": "uint256",
                  "name": "sizeDeltaUsd",
                  "type": "uint256"
                },
                {
                  "internalType": "uint256",
                  "name": "initialCollateralDeltaAmount",
                  "type": "uint256"
                },
                {
                  "internalType": "uint256",
                  "name": "triggerPrice",
                  "type": "uint256"
                },
                {
                  "internalType": "uint256",
                  "name": "acceptablePrice",
                  "type": "uint256"
                },
                {
                  "internalType": "uint256",
                  "name": "executionFee",
                  "type": "uint256"
                },
                {
                  "internalType": "uint256",
                  "name": "callbackGasLimit",
                  "type": "uint256"
                },
                {
                  "internalType": "uint256",
                  "name": "minOutputAmount",
                  "type": "uint256"
                },
                {
                  "internalType": "uint256",
                  "name": "updatedAtTime",
                  "type": "uint256"
                },
                {
                  "internalType": "uint256",
                  "name": "validFromTime",
                  "type": "uint256"
                }
              ],
              "internalType": "struct Order.Numbers",
              "name": "numbers",
              "type": "tuple"
            },
            {
              "components": [
                {
                  "internalType": "bool",
                  "name": "isLong",
                  "type": "bool"
                },
                {
                  "internalType": "bool",
                  "name": "shouldUnwrapNativeToken",
                  "type": "bool"
                },
                {
                  "internalType": "bool",
                  "name": "isFrozen",
                  "type": "bool"
                },
                {
                  "internalType": "bool",
                  "name": "autoCancel",
                  "type": "bool"
                }
              ],
              "internalType": "struct Order.Flags",
              "name": "flags",
              "type": "tuple"
            }
          ],
          "internalType": "struct Order.Props",
          "name": "",
          "type": "tuple"
        }
      ],
      "stateMutability": "view",
      "type": "function"
    },
    {
      "inputs": [
        {
          "internalType": "contract DataStore",
          "name": "dataStore",
          "type": "address"
        },
        {
          "components": [
            {
              "internalType": "address",
              "name": "marketToken",
              "type": "address"
            },
            {
              "internalType": "address",
              "name": "indexToken",
              "type": "address"
            },
            {
              "internalType": "address",
              "name": "longToken",
              "type": "address"
            },
            {
              "internalType": "address",
              "name": "shortToken",
              "type": "address"
            }
          ],
          "internalType": "struct Market.Props",
          "name": "market",
          "type": "tuple"
        },
        {
          "components": [
            {
              "internalType": "uint256",
              "name": "min",
              "type": "uint256"
            },
            {
              "internalType": "uint256",
              "name": "max",
              "type": "uint256"
            }
          ],
          "internalType": "struct Price.Props",
          "name": "indexTokenPrice",
          "type": "tuple"
        },
        {
          "internalType": "bool",
          "name": "isLong",
          "type": "bool"
        },
        {
          "internalType": "bool",
          "name": "maximize",
          "type": "bool"
        }
      ],
      "name": "getPnl",
      "outputs": [
        {
          "internalType": "int256",
          "name": "",
          "type": "int256"
        }
      ],
      "stateMutability": "view",
      "type": "function"
    },
    {
      "inputs": [
        {
          "internalType": "contract DataStore",
          "name": "dataStore",
          "type": "address"
        },
        {
          "internalType": "address",
          "name": "marketAddress",
          "type": "address"
        },
        {
          "components": [
            {
              "components": [
                {
                  "internalType": "uint256",
                  "name": "min",
                  "type": "uint256"
                },
                {
                  "internalType": "uint256",
                  "name": "max",
                  "type": "uint256"
                }
              ],
              "internalType": "struct Price.Props",
              "name": "indexTokenPrice",
              "type": "tuple"
            },
            {
              "components": [
                {
                  "internalType": "uint256",
                  "name": "min",
                  "type": "uint256"
                },
                {
                  "internalType": "uint256",
                  "name": "max",
                  "type": "uint256"
                }
              ],
              "internalType": "struct Price.Props",
              "name": "longTokenPrice",
              "type": "tuple"
            },
            {
              "components": [
                {
                  "internalType": "uint256",
                  "name": "min",
                  "type": "uint256"
                },
                {
                  "internalType": "uint256",
                  "name": "max",
                  "type": "uint256"
                }
              ],
              "internalType": "struct Price.Props",
              "name": "shortTokenPrice",
              "type": "tuple"
            }
          ],
          "internalType": "struct MarketUtils.MarketPrices",
          "name": "prices",
          "type": "tuple"
        },
        {
          "internalType": "bool",
          "name": "isLong",
          "type": "bool"
        },
        {
          "internalType": "bool",
          "name": "maximize",
          "type": "bool"
        }
      ],
      "name": "getPnlToPoolFactor",
      "outputs": [
        {
          "internalType": "int256",
          "name": "",
          "type": "int256"
        }
      ],
      "stateMutability": "view",
      "type": "function"
    },
    {
      "inputs": [
        {
          "internalType": "contract DataStore",
          "name": "dataStore",
          "type": "address"
        },
        {
          "internalType": "bytes32",
          "name": "key",
          "type": "bytes32"
        }
      ],
      "name": "getPosition",
      "outputs": [
        {
          "components": [
            {
              "components": [
                {
                  "internalType": "address",
                  "name": "account",
                  "type": "address"
                },
                {
                  "internalType": "address",
                  "name": "market",
                  "type": "address"
                },
                {
                  "internalType": "address",
                  "name": "collateralToken",
                  "type": "address"
                }
              ],
              "internalType": "struct Position.Addresses",
              "name": "addresses",
              "type": "tuple"
            },
            {
              "components": [
                {
                  "internalType": "uint256",
                  "name": "sizeInUsd",
                  "type": "uint256"
                },
                {
                  "internalType": "uint256",
                  "name": "sizeInTokens",
                  "type": "uint256"
                },
                {
                  "internalType": "uint256",
                  "name": "collateralAmount",
                  "type": "uint256"
                },
                {
                  "internalType": "uint256",
                  "name": "borrowingFactor",
                  "type": "uint256"
                },
                {
                  "internalType": "uint256",
                  "name": "fundingFeeAmountPerSize",
                  "type": "uint256"
                },
                {
                  "internalType": "uint256",
                  "name": "longTokenClaimableFundingAmountPerSize",
                  "type": "uint256"
                },
                {
                  "internalType": "uint256",
                  "name": "shortTokenClaimableFundingAmountPerSize",
                  "type": "uint256"
                },
                {
                  "internalType": "uint256",
                  "name": "increasedAtTime",
                  "type": "uint256"
                },
                {
                  "internalType": "uint256",
                  "name": "decreasedAtTime",
                  "type": "uint256"
                }
              ],
              "internalType": "struct Position.Numbers",
              "name": "numbers",
              "type": "tuple"
            },
            {
              "components": [
                {
                  "internalType": "bool",
                  "name": "isLong",
                  "type": "bool"
                }
              ],
              "internalType": "struct Position.Flags",
              "name": "flags",
              "type": "tuple"
            }
          ],
          "internalType": "struct Position.Props",
          "name": "",
          "type": "tuple"
        }
      ],
      "stateMutability": "view",
      "type": "function"
    },
    {
      "inputs": [
        {
          "internalType": "contract DataStore",
          "name": "dataStore",
          "type": "address"
        },
        {
          "internalType": "contract IReferralStorage",
          "name": "referralStorage",
          "type": "address"
        },
        {
          "internalType": "bytes32",
          "name": "positionKey",
          "type": "bytes32"
        },
        {
          "components": [
            {
              "components": [
                {
                  "internalType": "uint256",
                  "name": "min",
                  "type": "uint256"
                },
                {
                  "internalType": "uint256",
                  "name": "max",
                  "type": "uint256"
                }
              ],
              "internalType": "struct Price.Props",
              "name": "indexTokenPrice",
              "type": "tuple"
            },
            {
              "components": [
                {
                  "internalType": "uint256",
                  "name": "min",
                  "type": "uint256"
                },
                {
                  "internalType": "uint256",
                  "name": "max",
                  "type": "uint256"
                }
              ],
              "internalType": "struct Price.Props",
              "name": "longTokenPrice",
              "type": "tuple"
            },
            {
              "components": [
                {
                  "internalType": "uint256",
                  "name": "min",
                  "type": "uint256"
                },
                {
                  "internalType": "uint256",
                  "name": "max",
                  "type": "uint256"
                }
              ],
              "internalType": "struct Price.Props",
              "name": "shortTokenPrice",
              "type": "tuple"
            }
          ],
          "internalType": "struct MarketUtils.MarketPrices",
          "name": "prices",
          "type": "tuple"
        },
        {
          "internalType": "uint256",
          "name": "sizeDeltaUsd",
          "type": "uint256"
        },
        {
          "internalType": "address",
          "name": "uiFeeReceiver",
          "type": "address"
        },
        {
          "internalType": "bool",
          "name": "usePositionSizeAsSizeDeltaUsd",
          "type": "bool"
        }
      ],
      "name": "getPositionInfo",
      "outputs": [
        {
          "components": [
            {
              "internalType": "bytes32",
              "name": "positionKey",
              "type": "bytes32"
            },
            {
              "components": [
                {
                  "components": [
                    {
                      "internalType": "address",
                      "name": "account",
                      "type": "address"
                    },
                    {
                      "internalType": "address",
                      "name": "market",
                      "type": "address"
                    },
                    {
                      "internalType": "address",
                      "name": "collateralToken",
                      "type": "address"
                    }
                  ],
                  "internalType": "struct Position.Addresses",
                  "name": "addresses",
                  "type": "tuple"
                },
                {
                  "components": [
                    {
                      "internalType": "uint256",
                      "name": "sizeInUsd",
                      "type": "uint256"
                    },
                    {
                      "internalType": "uint256",
                      "name": "sizeInTokens",
                      "type": "uint256"
                    },
                    {
                      "internalType": "uint256",
                      "name": "collateralAmount",
                      "type": "uint256"
                    },
                    {
                      "internalType": "uint256",
                      "name": "borrowingFactor",
                      "type": "uint256"
                    },
                    {
                      "internalType": "uint256",
                      "name": "fundingFeeAmountPerSize",
                      "type": "uint256"
                    },
                    {
                      "internalType": "uint256",
                      "name": "longTokenClaimableFundingAmountPerSize",
                      "type": "uint256"
                    },
                    {
                      "internalType": "uint256",
                      "name": "shortTokenClaimableFundingAmountPerSize",
                      "type": "uint256"
                    },
                    {
                      "internalType": "uint256",
                      "name": "increasedAtTime",
                      "type": "uint256"
                    },
                    {
                      "internalType": "uint256",
                      "name": "decreasedAtTime",
                      "type": "uint256"
                    }
                  ],
                  "internalType": "struct Position.Numbers",
                  "name": "numbers",
                  "type": "tuple"
                },
                {
                  "components": [
                    {
                      "internalType": "bool",
                      "name": "isLong",
                      "type": "bool"
                    }
                  ],
                  "internalType": "struct Position.Flags",
                  "name": "flags",
                  "type": "tuple"
                }
              ],
              "internalType": "struct Position.Props",
              "name": "position",
              "type": "tuple"
            },
            {
              "components": [
                {
                  "components": [
                    {
                      "internalType": "bytes32",
                      "name": "referralCode",
                      "type": "bytes32"
                    },
                    {
                      "internalType": "address",
                      "name": "affiliate",
                      "type": "address"
                    },
                    {
                      "internalType": "address",
                      "name": "trader",
                      "type": "address"
                    },
                    {
                      "internalType": "uint256",
                      "name": "totalRebateFactor",
                      "type": "uint256"
                    },
                    {
                      "internalType": "uint256",
                      "name": "affiliateRewardFactor",
                      "type": "uint256"
                    },
                    {
                      "internalType": "uint256",
                      "name": "adjustedAffiliateRewardFactor",
                      "type": "uint256"
                    },
                    {
                      "internalType": "uint256",
                      "name": "traderDiscountFactor",
                      "type": "uint256"
                    },
                    {
                      "internalType": "uint256",
                      "name": "totalRebateAmount",
                      "type": "uint256"
                    },
                    {
                      "internalType": "uint256",
                      "name": "traderDiscountAmount",
                      "type": "uint256"
                    },
                    {
                      "internalType": "uint256",
                      "name": "affiliateRewardAmount",
                      "type": "uint256"
                    }
                  ],
                  "internalType": "struct PositionPricingUtils.PositionReferralFees",
                  "name": "referral",
                  "type": "tuple"
                },
                {
                  "components": [
                    {
                      "internalType": "uint256",
                      "name": "traderTier",
                      "type": "uint256"
                    },
                    {
                      "internalType": "uint256",
                      "name": "traderDiscountFactor",
                      "type": "uint256"
                    },
                    {
                      "internalType": "uint256",
                      "name": "traderDiscountAmount",
                      "type": "uint256"
                    }
                  ],
                  "internalType": "struct PositionPricingUtils.PositionProFees",
                  "name": "pro",
                  "type": "tuple"
                },
                {
                  "components": [
                    {
                      "internalType": "uint256",
                      "name": "fundingFeeAmount",
                      "type": "uint256"
                    },
                    {
                      "internalType": "uint256",
                      "name": "claimableLongTokenAmount",
                      "type": "uint256"
                    },
                    {
                      "internalType": "uint256",
                      "name": "claimableShortTokenAmount",
                      "type": "uint256"
                    },
                    {
                      "internalType": "uint256",
                      "name": "latestFundingFeeAmountPerSize",
                      "type": "uint256"
                    },
                    {
                      "internalType": "uint256",
                      "name": "latestLongTokenClaimableFundingAmountPerSize",
                      "type": "uint256"
                    },
                    {
                      "internalType": "uint256",
                      "name": "latestShortTokenClaimableFundingAmountPerSize",
                      "type": "uint256"
                    }
                  ],
                  "internalType": "struct PositionPricingUtils.PositionFundingFees",
                  "name": "funding",
                  "type": "tuple"
                },
                {
                  "components": [
                    {
                      "internalType": "uint256",
                      "name": "borrowingFeeUsd",
                      "type": "uint256"
                    },
                    {
                      "internalType": "uint256",
                      "name": "borrowingFeeAmount",
                      "type": "uint256"
                    },
                    {
                      "internalType": "uint256",
                      "name": "borrowingFeeReceiverFactor",
                      "type": "uint256"
                    },
                    {
                      "internalType": "uint256",
                      "name": "borrowingFeeAmountForFeeReceiver",
                      "type": "uint256"
                    }
                  ],
                  "internalType": "struct PositionPricingUtils.PositionBorrowingFees",
                  "name": "borrowing",
                  "type": "tuple"
                },
                {
                  "components": [
                    {
                      "internalType": "address",
                      "name": "uiFeeReceiver",
                      "type": "address"
                    },
                    {
                      "internalType": "uint256",
                      "name": "uiFeeReceiverFactor",
                      "type": "uint256"
                    },
                    {
                      "internalType": "uint256",
                      "name": "uiFeeAmount",
                      "type": "uint256"
                    }
                  ],
                  "internalType": "struct PositionPricingUtils.PositionUiFees",
                  "name": "ui",
                  "type": "tuple"
                },
                {
                  "components": [
                    {
                      "internalType": "uint256",
                      "name": "liquidationFeeUsd",
                      "type": "uint256"
                    },
                    {
                      "internalType": "uint256",
                      "name": "liquidationFeeAmount",
                      "type": "uint256"
                    },
                    {
                      "internalType": "uint256",
                      "name": "liquidationFeeReceiverFactor",
                      "type": "uint256"
                    },
                    {
                      "internalType": "uint256",
                      "name": "liquidationFeeAmountForFeeReceiver",
                      "type": "uint256"
                    }
                  ],
                  "internalType": "struct PositionPricingUtils.PositionLiquidationFees",
                  "name": "liquidation",
                  "type": "tuple"
                },
                {
                  "components": [
                    {
                      "internalType": "uint256",
                      "name": "min",
                      "type": "uint256"
                    },
                    {
                      "internalType": "uint256",
                      "name": "max",
                      "type": "uint256"
                    }
                  ],
                  "internalType": "struct Price.Props",
                  "name": "collateralTokenPrice",
                  "type": "tuple"
                },
                {
                  "internalType": "uint256",
                  "name": "positionFeeFactor",
                  "type": "uint256"
                },
                {
                  "internalType": "uint256",
                  "name": "protocolFeeAmount",
                  "type": "uint256"
                },
                {
                  "internalType": "uint256",
                  "name": "positionFeeReceiverFactor",
                  "type": "uint256"
                },
                {
                  "internalType": "uint256",
                  "name": "feeReceiverAmount",
                  "type": "uint256"
                },
                {
                  "internalType": "uint256",
                  "name": "feeAmountForPool",
                  "type": "uint256"
                },
                {
                  "internalType": "uint256",
                  "name": "positionFeeAmountForPool",
                  "type": "uint256"
                },
                {
                  "internalType": "uint256",
                  "name": "positionFeeAmount",
                  "type": "uint256"
                },
                {
                  "internalType": "uint256",
                  "name": "totalCostAmountExcludingFunding",
                  "type": "uint256"
                },
                {
                  "internalType": "uint256",
                  "name": "totalCostAmount",
                  "type": "uint256"
                },
                {
                  "internalType": "uint256",
                  "name": "totalDiscountAmount",
                  "type": "uint256"
                }
              ],
              "internalType": "struct PositionPricingUtils.PositionFees",
              "name": "fees",
              "type": "tuple"
            },
            {
              "components": [
                {
                  "internalType": "int256",
                  "name": "priceImpactUsd",
                  "type": "int256"
                },
                {
                  "internalType": "uint256",
                  "name": "priceImpactDiffUsd",
                  "type": "uint256"
                },
                {
                  "internalType": "uint256",
                  "name": "executionPrice",
                  "type": "uint256"
                }
              ],
              "internalType": "struct ReaderPricingUtils.ExecutionPriceResult",
              "name": "executionPriceResult",
              "type": "tuple"
            },
            {
              "internalType": "int256",
              "name": "basePnlUsd",
              "type": "int256"
            },
            {
              "internalType": "int256",
              "name": "uncappedBasePnlUsd",
              "type": "int256"
            },
            {
              "internalType": "int256",
              "name": "pnlAfterPriceImpactUsd",
              "type": "int256"
            }
          ],
          "internalType": "struct ReaderPositionUtils.PositionInfo",
          "name": "",
          "type": "tuple"
        }
      ],
      "stateMutability": "view",
      "type": "function"
    },
    {
      "inputs": [
        {
          "internalType": "contract DataStore",
          "name": "dataStore",
          "type": "address"
        },
        {
          "internalType": "contract IReferralStorage",
          "name": "referralStorage",
          "type": "address"
        },
        {
          "internalType": "bytes32[]",
          "name": "positionKeys",
          "type": "bytes32[]"
        },
        {
          "components": [
            {
              "components": [
                {
                  "internalType": "uint256",
                  "name": "min",
                  "type": "uint256"
                },
                {
                  "internalType": "uint256",
                  "name": "max",
                  "type": "uint256"
                }
              ],
              "internalType": "struct Price.Props",
              "name": "indexTokenPrice",
              "type": "tuple"
            },
            {
              "components": [
                {
                  "internalType": "uint256",
                  "name": "min",
                  "type": "uint256"
                },
                {
                  "internalType": "uint256",
                  "name": "max",
                  "type": "uint256"
                }
              ],
              "internalType": "struct Price.Props",
              "name": "longTokenPrice",
              "type": "tuple"
            },
            {
              "components": [
                {
                  "internalType": "uint256",
                  "name": "min",
                  "type": "uint256"
                },
                {
                  "internalType": "uint256",
                  "name": "max",
                  "type": "uint256"
                }
              ],
              "internalType": "struct Price.Props",
              "name": "shortTokenPrice",
              "type": "tuple"
            }
          ],
          "internalType": "struct MarketUtils.MarketPrices[]",
          "name": "prices",
          "type": "tuple[]"
        },
        {
          "internalType": "address",
          "name": "uiFeeReceiver",
          "type": "address"
        }
      ],
      "name": "getPositionInfoList",
      "outputs": [
        {
          "components": [
            {
              "internalType": "bytes32",
              "name": "positionKey",
              "type": "bytes32"
            },
            {
              "components": [
                {
                  "components": [
                    {
                      "internalType": "address",
                      "name": "account",
                      "type": "address"
                    },
                    {
                      "internalType": "address",
                      "name": "market",
                      "type": "address"
                    },
                    {
                      "internalType": "address",
                      "name": "collateralToken",
                      "type": "address"
                    }
                  ],
                  "internalType": "struct Position.Addresses",
                  "name": "addresses",
                  "type": "tuple"
                },
                {
                  "components": [
                    {
                      "internalType": "uint256",
                      "name": "sizeInUsd",
                      "type": "uint256"
                    },
                    {
                      "internalType": "uint256",
                      "name": "sizeInTokens",
                      "type": "uint256"
                    },
                    {
                      "internalType": "uint256",
                      "name": "collateralAmount",
                      "type": "uint256"
                    },
                    {
                      "internalType": "uint256",
                      "name": "borrowingFactor",
                      "type": "uint256"
                    },
                    {
                      "internalType": "uint256",
                      "name": "fundingFeeAmountPerSize",
                      "type": "uint256"
                    },
                    {
                      "internalType": "uint256",
                      "name": "longTokenClaimableFundingAmountPerSize",
                      "type": "uint256"
                    },
                    {
                      "internalType": "uint256",
                      "name": "shortTokenClaimableFundingAmountPerSize",
                      "type": "uint256"
                    },
                    {
                      "internalType": "uint256",
                      "name": "increasedAtTime",
                      "type": "uint256"
                    },
                    {
                      "internalType": "uint256",
                      "name": "decreasedAtTime",
                      "type": "uint256"
                    }
                  ],
                  "internalType": "struct Position.Numbers",
                  "name": "numbers",
                  "type": "tuple"
                },
                {
                  "components": [
                    {
                      "internalType": "bool",
                      "name": "isLong",
                      "type": "bool"
                    }
                  ],
                  "internalType": "struct Position.Flags",
                  "name": "flags",
                  "type": "tuple"
                }
              ],
              "internalType": "struct Position.Props",
              "name": "position",
              "type": "tuple"
            },
            {
              "components": [
                {
                  "components": [
                    {
                      "internalType": "bytes32",
                      "name": "referralCode",
                      "type": "bytes32"
                    },
                    {
                      "internalType": "address",
                      "name": "affiliate",
                      "type": "address"
                    },
                    {
                      "internalType": "address",
                      "name": "trader",
                      "type": "address"
                    },
                    {
                      "internalType": "uint256",
                      "name": "totalRebateFactor",
                      "type": "uint256"
                    },
                    {
                      "internalType": "uint256",
                      "name": "affiliateRewardFactor",
                      "type": "uint256"
                    },
                    {
                      "internalType": "uint256",
                      "name": "adjustedAffiliateRewardFactor",
                      "type": "uint256"
                    },
                    {
                      "internalType": "uint256",
                      "name": "traderDiscountFactor",
                      "type": "uint256"
                    },
                    {
                      "internalType": "uint256",
                      "name": "totalRebateAmount",
                      "type": "uint256"
                    },
                    {
                      "internalType": "uint256",
                      "name": "traderDiscountAmount",
                      "type": "uint256"
                    },
                    {
                      "internalType": "uint256",
                      "name": "affiliateRewardAmount",
                      "type": "uint256"
                    }
                  ],
                  "internalType": "struct PositionPricingUtils.PositionReferralFees",
                  "name": "referral",
                  "type": "tuple"
                },
                {
                  "components": [
                    {
                      "internalType": "uint256",
                      "name": "traderTier",
                      "type": "uint256"
                    },
                    {
                      "internalType": "uint256",
                      "name": "traderDiscountFactor",
                      "type": "uint256"
                    },
                    {
                      "internalType": "uint256",
                      "name": "traderDiscountAmount",
                      "type": "uint256"
                    }
                  ],
                  "internalType": "struct PositionPricingUtils.PositionProFees",
                  "name": "pro",
                  "type": "tuple"
                },
                {
                  "components": [
                    {
                      "internalType": "uint256",
                      "name": "fundingFeeAmount",
                      "type": "uint256"
                    },
                    {
                      "internalType": "uint256",
                      "name": "claimableLongTokenAmount",
                      "type": "uint256"
                    },
                    {
                      "internalType": "uint256",
                      "name": "claimableShortTokenAmount",
                      "type": "uint256"
                    },
                    {
                      "internalType": "uint256",
                      "name": "latestFundingFeeAmountPerSize",
                      "type": "uint256"
                    },
                    {
                      "internalType": "uint256",
                      "name": "latestLongTokenClaimableFundingAmountPerSize",
                      "type": "uint256"
                    },
                    {
                      "internalType": "uint256",
                      "name": "latestShortTokenClaimableFundingAmountPerSize",
                      "type": "uint256"
                    }
                  ],
                  "internalType": "struct PositionPricingUtils.PositionFundingFees",
                  "name": "funding",
                  "type": "tuple"
                },
                {
                  "components": [
                    {
                      "internalType": "uint256",
                      "name": "borrowingFeeUsd",
                      "type": "uint256"
                    },
                    {
                      "internalType": "uint256",
                      "name": "borrowingFeeAmount",
                      "type": "uint256"
                    },
                    {
                      "internalType": "uint256",
                      "name": "borrowingFeeReceiverFactor",
                      "type": "uint256"
                    },
                    {
                      "internalType": "uint256",
                      "name": "borrowingFeeAmountForFeeReceiver",
                      "type": "uint256"
                    }
                  ],
                  "internalType": "struct PositionPricingUtils.PositionBorrowingFees",
                  "name": "borrowing",
                  "type": "tuple"
                },
                {
                  "components": [
                    {
                      "internalType": "address",
                      "name": "uiFeeReceiver",
                      "type": "address"
                    },
                    {
                      "internalType": "uint256",
                      "name": "uiFeeReceiverFactor",
                      "type": "uint256"
                    },
                    {
                      "internalType": "uint256",
                      "name": "uiFeeAmount",
                      "type": "uint256"
                    }
                  ],
                  "internalType": "struct PositionPricingUtils.PositionUiFees",
                  "name": "ui",
                  "type": "tuple"
                },
                {
                  "components": [
                    {
                      "internalType": "uint256",
                      "name": "liquidationFeeUsd",
                      "type": "uint256"
                    },
                    {
                      "internalType": "uint256",
                      "name": "liquidationFeeAmount",
                      "type": "uint256"
                    },
                    {
                      "internalType": "uint256",
                      "name": "liquidationFeeReceiverFactor",
                      "type": "uint256"
                    },
                    {
                      "internalType": "uint256",
                      "name": "liquidationFeeAmountForFeeReceiver",
                      "type": "uint256"
                    }
                  ],
                  "internalType": "struct PositionPricingUtils.PositionLiquidationFees",
                  "name": "liquidation",
                  "type": "tuple"
                },
                {
                  "components": [
                    {
                      "internalType": "uint256",
                      "name": "min",
                      "type": "uint256"
                    },
                    {
                      "internalType": "uint256",
                      "name": "max",
                      "type": "uint256"
                    }
                  ],
                  "internalType": "struct Price.Props",
                  "name": "collateralTokenPrice",
                  "type": "tuple"
                },
                {
                  "internalType": "uint256",
                  "name": "positionFeeFactor",
                  "type": "uint256"
                },
                {
                  "internalType": "uint256",
                  "name": "protocolFeeAmount",
                  "type": "uint256"
                },
                {
                  "internalType": "uint256",
                  "name": "positionFeeReceiverFactor",
                  "type": "uint256"
                },
                {
                  "internalType": "uint256",
                  "name": "feeReceiverAmount",
                  "type": "uint256"
                },
                {
                  "internalType": "uint256",
                  "name": "feeAmountForPool",
                  "type": "uint256"
                },
                {
                  "internalType": "uint256",
                  "name": "positionFeeAmountForPool",
                  "type": "uint256"
                },
                {
                  "internalType": "uint256",
                  "name": "positionFeeAmount",
                  "type": "uint256"
                },
                {
                  "internalType": "uint256",
                  "name": "totalCostAmountExcludingFunding",
                  "type": "uint256"
                },
                {
                  "internalType": "uint256",
                  "name": "totalCostAmount",
                  "type": "uint256"
                },
                {
                  "internalType": "uint256",
                  "name": "totalDiscountAmount",
                  "type": "uint256"
                }
              ],
              "internalType": "struct PositionPricingUtils.PositionFees",
              "name": "fees",
              "type": "tuple"
            },
            {
              "components": [
                {
                  "internalType": "int256",
                  "name": "priceImpactUsd",
                  "type": "int256"
                },
                {
                  "internalType": "uint256",
                  "name": "priceImpactDiffUsd",
                  "type": "uint256"
                },
                {
                  "internalType": "uint256",
                  "name": "executionPrice",
                  "type": "uint256"
                }
              ],
              "internalType": "struct ReaderPricingUtils.ExecutionPriceResult",
              "name": "executionPriceResult",
              "type": "tuple"
            },
            {
              "internalType": "int256",
              "name": "basePnlUsd",
              "type": "int256"
            },
            {
              "internalType": "int256",
              "name": "uncappedBasePnlUsd",
              "type": "int256"
            },
            {
              "internalType": "int256",
              "name": "pnlAfterPriceImpactUsd",
              "type": "int256"
            }
          ],
          "internalType": "struct ReaderPositionUtils.PositionInfo[]",
          "name": "",
          "type": "tuple[]"
        }
      ],
      "stateMutability": "view",
      "type": "function"
    },
    {
      "inputs": [
        {
          "internalType": "contract DataStore",
          "name": "dataStore",
          "type": "address"
        },
        {
          "components": [
            {
              "internalType": "address",
              "name": "marketToken",
              "type": "address"
            },
            {
              "internalType": "address",
              "name": "indexToken",
              "type": "address"
            },
            {
              "internalType": "address",
              "name": "longToken",
              "type": "address"
            },
            {
              "internalType": "address",
              "name": "shortToken",
              "type": "address"
            }
          ],
          "internalType": "struct Market.Props",
          "name": "market",
          "type": "tuple"
        },
        {
          "components": [
            {
              "components": [
                {
                  "internalType": "uint256",
                  "name": "min",
                  "type": "uint256"
                },
                {
                  "internalType": "uint256",
                  "name": "max",
                  "type": "uint256"
                }
              ],
              "internalType": "struct Price.Props",
              "name": "indexTokenPrice",
              "type": "tuple"
            },
            {
              "components": [
                {
                  "internalType": "uint256",
                  "name": "min",
                  "type": "uint256"
                },
                {
                  "internalType": "uint256",
                  "name": "max",
                  "type": "uint256"
                }
              ],
              "internalType": "struct Price.Props",
              "name": "longTokenPrice",
              "type": "tuple"
            },
            {
              "components": [
                {
                  "internalType": "uint256",
                  "name": "min",
                  "type": "uint256"
                },
                {
                  "internalType": "uint256",
                  "name": "max",
                  "type": "uint256"
                }
              ],
              "internalType": "struct Price.Props",
              "name": "shortTokenPrice",
              "type": "tuple"
            }
          ],
          "internalType": "struct MarketUtils.MarketPrices",
          "name": "prices",
          "type": "tuple"
        },
        {
          "internalType": "bytes32",
          "name": "positionKey",
          "type": "bytes32"
        },
        {
          "internalType": "uint256",
          "name": "sizeDeltaUsd",
          "type": "uint256"
        }
      ],
      "name": "getPositionPnlUsd",
      "outputs": [
        {
          "internalType": "int256",
          "name": "",
          "type": "int256"
        },
        {
          "internalType": "int256",
          "name": "",
          "type": "int256"
        },
        {
          "internalType": "uint256",
          "name": "",
          "type": "uint256"
        }
      ],
      "stateMutability": "view",
      "type": "function"
    },
    {
      "inputs": [
        {
          "internalType": "contract DataStore",
          "name": "dataStore",
          "type": "address"
        },
        {
          "internalType": "bytes32",
          "name": "key",
          "type": "bytes32"
        }
      ],
      "name": "getShift",
      "outputs": [
        {
          "components": [
            {
              "components": [
                {
                  "internalType": "address",
                  "name": "account",
                  "type": "address"
                },
                {
                  "internalType": "address",
                  "name": "receiver",
                  "type": "address"
                },
                {
                  "internalType": "address",
                  "name": "callbackContract",
                  "type": "address"
                },
                {
                  "internalType": "address",
                  "name": "uiFeeReceiver",
                  "type": "address"
                },
                {
                  "internalType": "address",
                  "name": "fromMarket",
                  "type": "address"
                },
                {
                  "internalType": "address",
                  "name": "toMarket",
                  "type": "address"
                }
              ],
              "internalType": "struct Shift.Addresses",
              "name": "addresses",
              "type": "tuple"
            },
            {
              "components": [
                {
                  "internalType": "uint256",
                  "name": "marketTokenAmount",
                  "type": "uint256"
                },
                {
                  "internalType": "uint256",
                  "name": "minMarketTokens",
                  "type": "uint256"
                },
                {
                  "internalType": "uint256",
                  "name": "updatedAtTime",
                  "type": "uint256"
                },
                {
                  "internalType": "uint256",
                  "name": "executionFee",
                  "type": "uint256"
                },
                {
                  "internalType": "uint256",
                  "name": "callbackGasLimit",
                  "type": "uint256"
                }
              ],
              "internalType": "struct Shift.Numbers",
              "name": "numbers",
              "type": "tuple"
            }
          ],
          "internalType": "struct Shift.Props",
          "name": "",
          "type": "tuple"
        }
      ],
      "stateMutability": "view",
      "type": "function"
    },
    {
      "inputs": [
        {
          "internalType": "contract DataStore",
          "name": "dataStore",
          "type": "address"
        },
        {
          "components": [
            {
              "internalType": "address",
              "name": "marketToken",
              "type": "address"
            },
            {
              "internalType": "address",
              "name": "indexToken",
              "type": "address"
            },
            {
              "internalType": "address",
              "name": "longToken",
              "type": "address"
            },
            {
              "internalType": "address",
              "name": "shortToken",
              "type": "address"
            }
          ],
          "internalType": "struct Market.Props",
          "name": "market",
          "type": "tuple"
        },
        {
          "components": [
            {
              "components": [
                {
                  "internalType": "uint256",
                  "name": "min",
                  "type": "uint256"
                },
                {
                  "internalType": "uint256",
                  "name": "max",
                  "type": "uint256"
                }
              ],
              "internalType": "struct Price.Props",
              "name": "indexTokenPrice",
              "type": "tuple"
            },
            {
              "components": [
                {
                  "internalType": "uint256",
                  "name": "min",
                  "type": "uint256"
                },
                {
                  "internalType": "uint256",
                  "name": "max",
                  "type": "uint256"
                }
              ],
              "internalType": "struct Price.Props",
              "name": "longTokenPrice",
              "type": "tuple"
            },
            {
              "components": [
                {
                  "internalType": "uint256",
                  "name": "min",
                  "type": "uint256"
                },
                {
                  "internalType": "uint256",
                  "name": "max",
                  "type": "uint256"
                }
              ],
              "internalType": "struct Price.Props",
              "name": "shortTokenPrice",
              "type": "tuple"
            }
          ],
          "internalType": "struct MarketUtils.MarketPrices",
          "name": "prices",
          "type": "tuple"
        },
        {
          "internalType": "address",
          "name": "tokenIn",
          "type": "address"
        },
        {
          "internalType": "uint256",
          "name": "amountIn",
          "type": "uint256"
        },
        {
          "internalType": "address",
          "name": "uiFeeReceiver",
          "type": "address"
        }
      ],
      "name": "getSwapAmountOut",
      "outputs": [
        {
          "internalType": "uint256",
          "name": "",
          "type": "uint256"
        },
        {
          "internalType": "int256",
          "name": "",
          "type": "int256"
        },
        {
          "components": [
            {
              "internalType": "uint256",
              "name": "feeReceiverAmount",
              "type": "uint256"
            },
            {
              "internalType": "uint256",
              "name": "feeAmountForPool",
              "type": "uint256"
            },
            {
              "internalType": "uint256",
              "name": "amountAfterFees",
              "type": "uint256"
            },
            {
              "internalType": "address",
              "name": "uiFeeReceiver",
              "type": "address"
            },
            {
              "internalType": "uint256",
              "name": "uiFeeReceiverFactor",
              "type": "uint256"
            },
            {
              "internalType": "uint256",
              "name": "uiFeeAmount",
              "type": "uint256"
            }
          ],
          "internalType": "struct SwapPricingUtils.SwapFees",
          "name": "fees",
          "type": "tuple"
        }
      ],
      "stateMutability": "view",
      "type": "function"
    },
    {
      "inputs": [
        {
          "internalType": "contract DataStore",
          "name": "dataStore",
          "type": "address"
        },
        {
          "internalType": "address",
          "name": "marketKey",
          "type": "address"
        },
        {
          "internalType": "address",
          "name": "tokenIn",
          "type": "address"
        },
        {
          "internalType": "address",
          "name": "tokenOut",
          "type": "address"
        },
        {
          "internalType": "uint256",
          "name": "amountIn",
          "type": "uint256"
        },
        {
          "components": [
            {
              "internalType": "uint256",
              "name": "min",
              "type": "uint256"
            },
            {
              "internalType": "uint256",
              "name": "max",
              "type": "uint256"
            }
          ],
          "internalType": "struct Price.Props",
          "name": "tokenInPrice",
          "type": "tuple"
        },
        {
          "components": [
            {
              "internalType": "uint256",
              "name": "min",
              "type": "uint256"
            },
            {
              "internalType": "uint256",
              "name": "max",
              "type": "uint256"
            }
          ],
          "internalType": "struct Price.Props",
          "name": "tokenOutPrice",
          "type": "tuple"
        }
      ],
      "name": "getSwapPriceImpact",
      "outputs": [
        {
          "internalType": "int256",
          "name": "",
          "type": "int256"
        },
        {
          "internalType": "int256",
          "name": "",
          "type": "int256"
        },
        {
          "internalType": "int256",
          "name": "",
          "type": "int256"
        }
      ],
      "stateMutability": "view",
      "type": "function"
    },
    {
      "inputs": [
        {
          "internalType": "contract DataStore",
          "name": "dataStore",
          "type": "address"
        },
        {
          "internalType": "bytes32",
          "name": "key",
          "type": "bytes32"
        }
      ],
      "name": "getWithdrawal",
      "outputs": [
        {
          "components": [
            {
              "components": [
                {
                  "internalType": "address",
                  "name": "account",
                  "type": "address"
                },
                {
                  "internalType": "address",
                  "name": "receiver",
                  "type": "address"
                },
                {
                  "internalType": "address",
                  "name": "callbackContract",
                  "type": "address"
                },
                {
                  "internalType": "address",
                  "name": "uiFeeReceiver",
                  "type": "address"
                },
                {
                  "internalType": "address",
                  "name": "market",
                  "type": "address"
                },
                {
                  "internalType": "address[]",
                  "name": "longTokenSwapPath",
                  "type": "address[]"
                },
                {
                  "internalType": "address[]",
                  "name": "shortTokenSwapPath",
                  "type": "address[]"
                }
              ],
              "internalType": "struct Withdrawal.Addresses",
              "name": "addresses",
              "type": "tuple"
            },
            {
              "components": [
                {
                  "internalType": "uint256",
                  "name": "marketTokenAmount",
                  "type": "uint256"
                },
                {
                  "internalType": "uint256",
                  "name": "minLongTokenAmount",
                  "type": "uint256"
                },
                {
                  "internalType": "uint256",
                  "name": "minShortTokenAmount",
                  "type": "uint256"
                },
                {
                  "internalType": "uint256",
                  "name": "updatedAtTime",
                  "type": "uint256"
                },
                {
                  "internalType": "uint256",
                  "name": "executionFee",
                  "type": "uint256"
                },
                {
                  "internalType": "uint256",
                  "name": "callbackGasLimit",
                  "type": "uint256"
                }
              ],
              "internalType": "struct Withdrawal.Numbers",
              "name": "numbers",
              "type": "tuple"
            },
            {
              "components": [
                {
                  "internalType": "bool",
                  "name": "shouldUnwrapNativeToken",
                  "type": "bool"
                }
              ],
              "internalType": "struct Withdrawal.Flags",
              "name": "flags",
              "type": "tuple"
            }
          ],
          "internalType": "struct Withdrawal.Props",
          "name": "",
          "type": "tuple"
        }
      ],
      "stateMutability": "view",
      "type": "function"
    },
    {
      "inputs": [
        {
          "internalType": "contract DataStore",
          "name": "dataStore",
          "type": "address"
        },
        {
          "components": [
            {
              "internalType": "address",
              "name": "marketToken",
              "type": "address"
            },
            {
              "internalType": "address",
              "name": "indexToken",
              "type": "address"
            },
            {
              "internalType": "address",
              "name": "longToken",
              "type": "address"
            },
            {
              "internalType": "address",
              "name": "shortToken",
              "type": "address"
            }
          ],
          "internalType": "struct Market.Props",
          "name": "market",
          "type": "tuple"
        },
        {
          "components": [
            {
              "components": [
                {
                  "internalType": "uint256",
                  "name": "min",
                  "type": "uint256"
                },
                {
                  "internalType": "uint256",
                  "name": "max",
                  "type": "uint256"
                }
              ],
              "internalType": "struct Price.Props",
              "name": "indexTokenPrice",
              "type": "tuple"
            },
            {
              "components": [
                {
                  "internalType": "uint256",
                  "name": "min",
                  "type": "uint256"
                },
                {
                  "internalType": "uint256",
                  "name": "max",
                  "type": "uint256"
                }
              ],
              "internalType": "struct Price.Props",
              "name": "longTokenPrice",
              "type": "tuple"
            },
            {
              "components": [
                {
                  "internalType": "uint256",
                  "name": "min",
                  "type": "uint256"
                },
                {
                  "internalType": "uint256",
                  "name": "max",
                  "type": "uint256"
                }
              ],
              "internalType": "struct Price.Props",
              "name": "shortTokenPrice",
              "type": "tuple"
            }
          ],
          "internalType": "struct MarketUtils.MarketPrices",
          "name": "prices",
          "type": "tuple"
        },
        {
          "internalType": "uint256",
          "name": "marketTokenAmount",
          "type": "uint256"
        },
        {
          "internalType": "address",
          "name": "uiFeeReceiver",
          "type": "address"
        },
        {
          "internalType": "enum ISwapPricingUtils.SwapPricingType",
          "name": "swapPricingType",
          "type": "uint8"
        }
      ],
      "name": "getWithdrawalAmountOut",
      "outputs": [
        {
          "internalType": "uint256",
          "name": "",
          "type": "uint256"
        },
        {
          "internalType": "uint256",
          "name": "",
          "type": "uint256"
        }
      ],
      "stateMutability": "view",
      "type": "function"
    },
    {
      "inputs": [
        {
          "internalType": "contract DataStore",
          "name": "dataStore",
          "type": "address"
        },
        {
          "internalType": "contract IReferralStorage",
          "name": "referralStorage",
          "type": "address"
        },
        {
          "internalType": "bytes32",
          "name": "positionKey",
          "type": "bytes32"
        },
        {
          "components": [
            {
              "internalType": "address",
              "name": "marketToken",
              "type": "address"
            },
            {
              "internalType": "address",
              "name": "indexToken",
              "type": "address"
            },
            {
              "internalType": "address",
              "name": "longToken",
              "type": "address"
            },
            {
              "internalType": "address",
              "name": "shortToken",
              "type": "address"
            }
          ],
          "internalType": "struct Market.Props",
          "name": "market",
          "type": "tuple"
        },
        {
          "components": [
            {
              "components": [
                {
                  "internalType": "uint256",
                  "name": "min",
                  "type": "uint256"
                },
                {
                  "internalType": "uint256",
                  "name": "max",
                  "type": "uint256"
                }
              ],
              "internalType": "struct Price.Props",
              "name": "indexTokenPrice",
              "type": "tuple"
            },
            {
              "components": [
                {
                  "internalType": "uint256",
                  "name": "min",
                  "type": "uint256"
                },
                {
                  "internalType": "uint256",
                  "name": "max",
                  "type": "uint256"
                }
              ],
              "internalType": "struct Price.Props",
              "name": "longTokenPrice",
              "type": "tuple"
            },
            {
              "components": [
                {
                  "internalType": "uint256",
                  "name": "min",
                  "type": "uint256"
                },
                {
                  "internalType": "uint256",
                  "name": "max",
                  "type": "uint256"
                }
              ],
              "internalType": "struct Price.Props",
              "name": "shortTokenPrice",
              "type": "tuple"
            }
          ],
          "internalType": "struct MarketUtils.MarketPrices",
          "name": "prices",
          "type": "tuple"
        },
        {
          "internalType": "bool",
          "name": "shouldValidateMinCollateralUsd",
          "type": "bool"
        }
      ],
      "name": "isPositionLiquidatable",
      "outputs": [
        {
          "internalType": "bool",
          "name": "",
          "type": "bool"
        },
        {
          "internalType": "string",
          "name": "",
          "type": "string"
        },
        {
          "components": [
            {
              "internalType": "int256",
              "name": "remainingCollateralUsd",
              "type": "int256"
            },
            {
              "internalType": "int256",
              "name": "minCollateralUsd",
              "type": "int256"
            },
            {
              "internalType": "int256",
              "name": "minCollateralUsdForLeverage",
              "type": "int256"
            }
          ],
          "internalType": "struct PositionUtils.IsPositionLiquidatableInfo",
          "name": "",
          "type": "tuple"
        }
      ],
      "stateMutability": "view",
      "type": "function"
    }
  ],
  "bytecode": "0x608060405234801561001057600080fd5b5061555f806100206000396000f3fe608060405234801561001057600080fd5b50600436106101535760003560e01c8062e261b7146101585780630815bce114610183578063095ce6c5146101a35780630fa8f5161461024c5780631485d2971461026c57806324c029e01461028c5780632572d8f9146102ad5780632b17b4fd146102d5578063409f37c71461030857806342a6f8d31461037a57806349651b6a1461039a5780635d2b44f9146103ba5780635d5c6efe146103da5780635deceb8414610408578063714af34b1461041b57806377cfb1621461043b578063847bb4691461045b578063971de27d1461047b578063a01409381461048e578063a4f0d550146104a1578063addac2e0146104b4578063b05e0ea014610553578063b4976dae14610573578063bc7b5bba14610586578063bfbf451a146105a6578063ce3264bf146105b9578063ceeea3bf146105d9578063fd50649d146105f9575b600080fd5b61016b610166366004612758565b61060c565b60405161017a939291906127f5565b60405180910390f35b61019661019136600461284f565b61074e565b60405161017a9190612be7565b6101b66101b1366004612bf6565b6107e9565b60405161017a92919060006101808201905083825282516020830152602083015160408301526040830151606083015260608301516080830152608083015160a083015260a083015160c083015260c083015160e083015260e083015161010081818501528085015191505061012081818501528085015191505061014081818501528085015161016085015250509392505050565b61025f61025a366004612c73565b6108dd565b60405161017a9190612c9f565b61027f61027a366004612c73565b610969565b60405161017a9190612cf2565b61029f61029a366004612df6565b6109ef565b60405190815260200161017a565b6102c06102bb366004612e76565b610a0a565b6040805192835260208301919091520161017a565b6102e86102e3366004612eed565b610a9d565b60408051948552921515602085015291830152606082015260800161017a565b61031b610316366004612f49565b610b33565b604080519384526020808501939093528151848201529181015160608085019190915291810151608080850191909152918101516001600160a01b031660a0808501919091529181015160c0840152015160e08201526101000161017a565b61038d610388366004612fb6565b610c0d565b60405161017a91906131ba565b6103ad6103a8366004612c73565b610c92565b60405161017a919061321c565b6103cd6103c836600461322f565b610d17565b60405161017a919061329a565b6103ed6103e83660046132a8565b610e30565b6040805193845260208401929092529082015260600161017a565b61029f610416366004613332565b610f4b565b61042e6104293660046133ca565b610fe3565b60405161017a9190613436565b61044e610449366004612fb6565b611065565b60405161017a9190613444565b61046e610469366004613493565b6110ea565b60405161017a91906135b5565b61029f6104893660046135c4565b611179565b61029f61049c366004612df6565b611205565b61042e6104af366004612c73565b611214565b6104c76104c2366004612c73565b611255565b60408051825180516001600160a01b0390811683526020808301518216818501528285015182168486015260608084015183168186015260808085015184168187015260a0948501519093169385019390935294850151805160c08501529485015160e0840152928401516101008301528301516101208201529101516101408201526101600161017a565b6105666105613660046136c1565b6112d8565b60405161017a91906137e0565b6103ed610581366004613823565b611365565b61059961059436600461387f565b61147b565b60405161017a91906138de565b6105666105b4366004613921565b611500565b6105cc6105c7366004613a11565b611587565b60405161017a9190613a46565b6105ec6105e7366004612c73565b611618565b60405161017a9190613a88565b61029f610607366004613b51565b61169e565b6000606061063460405180606001604052806000815260200160008152602001600081525090565b60405163fdfc26f360e01b815260009073__$3d31b232fb363902662fbc281b11ab3357$__9063fdfc26f390610670908d908c90600401613bac565b6101a060405180830381865af415801561068e573d6000803e3d6000fd5b505050506040513d601f19601f820116820180604052508101906106b29190613d21565b604051633e2d58cd60e21b815290915073__$91a1a7f12f728c8759f4be979bae55555f$__9063f8b56334906106f6908d908d9086908d908d908d90600401613d6e565b600060405180830381865af4158015610713573d6000803e3d6000fd5b505050506040513d6000823e601f3d908101601f1916820160405261073b9190810190613dfe565b9350935093505096509650969350505050565b610756611e5f565b6040516306bc109960e31b815273__$056c740eb4988709d6549ac3afae887637$__906335e084c890610799908b908b908b908b908b908b908b90600401613eb7565b6107c060405180830381865af41580156107b7573d6000803e3d6000fd5b505050506040513d601f19601f820116820180604052508101906107db9190614239565b90505b979650505050505050565b600061084860405180610160016040528060008152602001600081526020016000815260200160008152602001600081526020016000815260200160008152602001600081526020016000815260200160008152602001600081525090565b604051637d494dc360e01b815273__$e53db83827f4e07ebc418caf7145b8c2d5$__90637d494dc39061088b908c908c908c908c908c908c908c90600401614256565b61018060405180830381865af41580156108a9573d6000803e3d6000fd5b505050506040513d601f19601f820116820180604052508101906108cd91906142b8565b9150915097509795505050505050565b6108e5611eaf565b60405163fdfc26f360e01b815273__$3d31b232fb363902662fbc281b11ab3357$__9063fdfc26f39061091e9086908690600401613bac565b6101a060405180830381865af415801561093c573d6000803e3d6000fd5b505050506040513d601f19601f820116820180604052508101906109609190613d21565b90505b92915050565b610971611f45565b60405163fdfc26f360e01b815273__$b63e253a228f0e32f671cc49c7fc32477c$__9063fdfc26f3906109aa9086908690600401613bac565b600060405180830381865af41580156109c7573d6000803e3d6000fd5b505050506040513d6000823e601f3d908101601f1916820160405261096091908101906143db565b60006109fe86868686866116ac565b90505b95945050505050565b60008073__$cede619ada704cb31824310f43bfb6e2d5$__63b027d32d8989898989896040518763ffffffff1660e01b8152600401610a4e96959493929190614545565b6040805180830381865af4158015610a6a573d6000803e3d6000fd5b505050506040513d601f19601f82011682018060405250810190610a8e9190614590565b91509150965096945050505050565b60008060008073__$7d62b333171909e88f9935bee8a07b01ad$__631d81085c898989896040518563ffffffff1660e01b8152600401610ae094939291906145b4565b608060405180830381865af4158015610afd573d6000803e3d6000fd5b505050506040513d601f19601f82011682018060405250810190610b2191906145e2565b929b919a509850909650945050505050565b600080610b786040518060c0016040528060008152602001600081526020016000815260200160006001600160a01b0316815260200160008152602001600081525090565b60405163dafa66bf60e01b815273__$ae023ddda47a46a9af6ec057a2ebe54454$__9063dafa66bf90610bb9908c908c908c908c908c908c90600401614620565b61010060405180830381865af4158015610bd7573d6000803e3d6000fd5b505050506040513d601f19601f82011682018060405250810190610bfb9190614672565b92509250925096509650969350505050565b604051635b4df72360e11b815260609073__$7d62b333171909e88f9935bee8a07b01ad$__9063b69bee4690610c4d9088908890889088906004016146fa565b600060405180830381865af4158015610c6a573d6000803e3d6000fd5b505050506040513d6000823e601f3d908101601f19168201604052610a019190810190614949565b610c9a611fd7565b6040516218cbb560eb1b815273__$7d62b333171909e88f9935bee8a07b01ad$__9063c65da80090610cd29086908690600401613bac565b600060405180830381865af4158015610cef573d6000803e3d6000fd5b505050506040513d6000823e601f3d908101601f1916820160405261096091908101906149f9565b610d1f6120ae565b60405163a8d8fff560e01b815260009073__$ff439aa65a80c9eec648f15db20b189505$__9063a8d8fff590610d5b908c908c90600401614a2d565b608060405180830381865af4158015610d78573d6000803e3d6000fd5b505050506040513d601f19601f82011682018060405250810190610d9c9190614aa4565b604051630a37d4c760e11b815290915073__$ae023ddda47a46a9af6ec057a2ebe54454$__9063146fa98e90610de2908c9085908c908c908c908c908c90600401614ac0565b606060405180830381865af4158015610dff573d6000803e3d6000fd5b505050506040513d601f19601f82011682018060405250810190610e239190614b14565b9998505050505050505050565b60008060008073__$ff439aa65a80c9eec648f15db20b189505$__63a8d8fff58c8c6040518363ffffffff1660e01b8152600401610e6f929190614a2d565b608060405180830381865af4158015610e8c573d6000803e3d6000fd5b505050506040513d601f19601f82011682018060405250810190610eb09190614aa4565b6040516340f5d44f60e11b815290915073__$ae023ddda47a46a9af6ec057a2ebe54454$__906381eba89e90610ef6908e9085908e908e908e908e908e90600401614b30565b606060405180830381865af4158015610f13573d6000803e3d6000fd5b505050506040513d601f19601f82011682018060405250810190610f379190614b82565b935093509350509750975097945050505050565b604051632bf0549960e11b815260009073__$12e61648fa0188a8261c5e0807220aaa66$__906357e0a93290610f93908c908c908c908c908c908c908c908c90600401614bb0565b602060405180830381865af4158015610fb0573d6000803e3d6000fd5b505050506040513d601f19601f82011682018060405250810190610fd49190614c19565b90505b98975050505050505050565b610feb6120cf565b60405163a8d8fff560e01b815273__$ff439aa65a80c9eec648f15db20b189505$__9063a8d8fff5906110249086908690600401614a2d565b608060405180830381865af4158015611041573d6000803e3d6000fd5b505050506040513d601f19601f820116820180604052508101906109609190614aa4565b60405163282ece5960e11b815260609073__$056c740eb4988709d6549ac3afae887637$__9063505d9cb2906110a59088908890889088906004016146fa565b600060405180830381865af41580156110c2573d6000803e3d6000fd5b505050506040513d6000823e601f3d908101601f19168201604052610a019190810190614c32565b6110f26120f6565b60405163619c4ddb60e01b815273__$7d62b333171909e88f9935bee8a07b01ad$__9063619c4ddb9061112d90879087908790600401614ccc565b6103a060405180830381865af415801561114b573d6000803e3d6000fd5b505050506040513d601f19601f8201168201806040525081019061116f9190614e66565b90505b9392505050565b60008073__$ff439aa65a80c9eec648f15db20b189505$__63a8d8fff588886040518363ffffffff1660e01b81526004016111b5929190614a2d565b608060405180830381865af41580156111d2573d6000803e3d6000fd5b505050506040513d601f19601f820116820180604052508101906111f69190614aa4565b90506107de878287878761173d565b60006109fe8686868686611781565b61121c6120cf565b6040516329bc01e160e11b815273__$ff439aa65a80c9eec648f15db20b189505$__9063537803c2906110249086908690600401613bac565b61125d612167565b60405163fdfc26f360e01b815273__$17bbc74b36df540d4a9b171eb59c5012db$__9063fdfc26f3906112969086908690600401613bac565b61016060405180830381865af41580156112b4573d6000803e3d6000fd5b505050506040513d601f19601f820116820180604052508101906109609190614ed1565b604051637810908160e01b815260609073__$056c740eb4988709d6549ac3afae887637$__90637810908190611320908c908c908c908c908c908c908c908c90600401614fc8565b600060405180830381865af415801561133d573d6000803e3d6000fd5b505050506040513d6000823e601f3d908101601f19168201604052610fd49190810190615065565b60008060008073__$3d31b232fb363902662fbc281b11ab3357$__63fdfc26f38a886040518363ffffffff1660e01b81526004016113a4929190613bac565b6101a060405180830381865af41580156113c2573d6000803e3d6000fd5b505050506040513d601f19601f820116820180604052508101906113e69190613d21565b60405163e22de79360e01b815290915073__$91a1a7f12f728c8759f4be979bae55555f$__9063e22de79390611428908c908c908c9087908c906004016150f3565b606060405180830381865af4158015611445573d6000803e3d6000fd5b505050506040513d601f19601f820116820180604052508101906114699190614b82565b93509350935050955095509592505050565b6040516340c774bb60e11b815260609073__$7d62b333171909e88f9935bee8a07b01ad$__9063818ee976906114bb90889088908890889060040161513d565b600060405180830381865af41580156114d8573d6000803e3d6000fd5b505050506040513d6000823e601f3d908101601f19168201604052610a019190810190615174565b604051636aeb875560e01b815260609073__$056c740eb4988709d6549ac3afae887637$__90636aeb8755906115429089908990899089908990600401615202565b600060405180830381865af415801561155f573d6000803e3d6000fd5b505050506040513d6000823e601f3d908101601f191682016040526109fe9190810190615065565b6040516326d0fa7f60e21b81526001600160a01b0384166004820152602481018390526044810182905260609073__$7d62b333171909e88f9935bee8a07b01ad$__90639b43e9fc90606401600060405180830381865af41580156115f0573d6000803e3d6000fd5b505050506040513d6000823e601f3d908101601f1916820160405261116f9190810190615280565b6116206121d8565b60405163fdfc26f360e01b815273__$3dc24d71d6ebafc0c4ce8ac2f69cd1548a$__9063fdfc26f3906116599086908690600401613bac565b600060405180830381865af4158015611676573d6000803e3d6000fd5b505050506040513d6000823e601f3d908101601f191682016040526109609190810190615310565b6000610a01858585856117ac565b6000806116c26116bd8888876117db565b61182e565b905060006116d18888876118a1565b90508115806116de575080155b156116ee57600092505050610a01565b60006116fb8787876118e8565b9050600061170c6116bd838561545c565b90506000876117245761171f8286615473565b61172e565b61172e8583615473565b9b9a5050505050505050505050565b60008061174e878787878715611921565b905080600003611762576000915050610a01565b60006117758888886000015188886116ac565b9050610fd7818361199a565b60008061178f8787866117db565b905060006117a088888888886116ac565b9050610fd782826119e1565b6000806117bd8686866001876116ac565b905060006117cf8787876000886116ac565b90506107de818361549a565b6000806117f0846040015185606001516119f7565b9050600061180986866000015187604001518786611a26565b9050600061182287876000015188606001518887611a26565b90506107de81836154c2565b60006001600160ff1b0382111561189d5760405162461bcd60e51b815260206004820152602860248201527f53616665436173743a2076616c756520646f65736e27742066697420696e2061604482015267371034b73a191a9b60c11b60648201526084015b60405180910390fd5b5090565b6000806118b6846040015185606001516119f7565b905060006118cf86866000015187604001518786611aac565b9050600061182287876000015188606001518887611aac565b6000821561190957816118fc578351611902565b83602001515b9050611172565b8161191857836020015161116f565b50509051919050565b60008083611933578560600151611939565b85604001515b90506000611948888884611ac9565b90506000841561197657856119655786604001516020015161196f565b8660200151602001515b9050611990565b856119865760408701515161198d565b6020870151515b90505b610e23818361545c565b6000806119af6119a985611b67565b84611b78565b9050600084136119d0576119c28161182e565b6119cb906154d5565b6119d9565b6119d98161182e565b949350505050565b6000816119ed8461182e565b610960919061549a565b6000816001600160a01b0316836001600160a01b031614611a19576001611a1c565b60025b60ff169392505050565b600081866001600160a01b031663bd02d0f5611a43888888611b86565b6040518263ffffffff1660e01b8152600401611a6191815260200190565b602060405180830381865afa158015611a7e573d6000803e3d6000fd5b505050506040513d601f19601f82011682018060405250810190611aa29190614c19565b6109fe9190615507565b600081866001600160a01b031663bd02d0f5611a43888888611c18565b600080611ade846040015185606001516119f7565b905080856001600160a01b031663bd02d0f5611afe876000015187611c55565b6040518263ffffffff1660e01b8152600401611b1c91815260200190565b602060405180830381865afa158015611b39573d6000803e3d6000fd5b505050506040513d601f19601f82011682018060405250810190611b5d9190614c19565b610a019190615507565b60008082121561189d575060000390565b600061096083836000611cdc565b6000604051602001611bb9906020808252600d908201526c13d4115397d2539511549154d5609a1b604082015260600190565b60408051601f198184030181528282528051602091820120908301526001600160a01b038087169183019190915284166060820152821515608082015260a0016040516020818303038152906040528051906020012090509392505050565b6000604051602001611bb9906020808252601790820152764f50454e5f494e5445524553545f494e5f544f4b454e5360481b604082015260600190565b6000604051602001611c86906020808252600b908201526a1413d3d317d05353d5539560aa1b604082015260600190565b60408051601f198184030181528282528051602091820120908301526001600160a01b03808616918301919091528316606082015260800160405160208183030381529060405280519060200120905092915050565b600083600003611cee57506000611172565b8115611d0d576119028468327cb2734119d3b7a9601e1b856001611d24565b61116f8468327cb2734119d3b7a9601e1b85611d75565b600080611d32868686611d75565b90506001836002811115611d4857611d48612ffc565b148015611d65575060008480611d6057611d606154f1565b868809115b15610a01576109fe6001826154c2565b6000808060001985870985870292508281108382030391505080600003611daf57838281611da557611da56154f1565b0492505050611172565b808411611df65760405162461bcd60e51b81526020600482015260156024820152744d6174683a206d756c446976206f766572666c6f7760581b6044820152606401611894565b60008486880960026001871981018816978890046003810283188082028403028082028403028082028403028082028403028082028403029081029092039091026000889003889004909101858311909403939093029303949094049190911702949350505050565b6040805160e081019091526000815260208101611e7a611eaf565b8152602001611e87612220565b8152602001611e946120ae565b81526020016000815260200160008152602001600081525090565b6040805160c081019091526000606082018181526080830182905260a083019190915281908152602001611f286040518061012001604052806000815260200160008152602001600081526020016000815260200160008152602001600081526020016000815260200160008152602001600081525090565b81526040805160208181019092526000815291015290565b905290565b604080516101808101909152600060608083018281526080840183905260a0840183905260c0840183905260e084018390526101008401839052610120840192909252610140830181905261016083015281905b8152602001611f286040518060c001604052806000815260200160008152602001600081526020016000815260200160008152602001600081525090565b604080516101608101909152600060608083018281526080840183905260a0840183905260c0840183905260e0840183905261010084018390526101208401929092526101408301528152602081016120846040805161016081019091528060008152602001600081526020016000815260200160008152602001600081526020016000815260200160008152602001600081526020016000815260200160008152602001600081525090565b81526040805160808101825260008082526020828101829052928201819052606082015291015290565b60405180606001604052806000815260200160008152602001600081525090565b60408051608081018252600080825260208201819052918101829052606081019190915290565b6040518060e001604052806121096120cf565b815260200160008152602001600081526020016121246123ec565b815260200161213161240c565b815260200161215a60405180606001604052806000815260200160008152602001600081525090565b8152600060209091015290565b60408051610100810182526000918101828152606082018390526080820183905260a0820183905260c0820183905260e08201929092529081908152602001611f406040518060a0016040528060008152602001600081526020016000815260200160008152602001600081525090565b604080516101408101909152600060608083018281526080840183905260a0840183905260c0840183905260e084019290925261010083018190526101208301528190611f99565b6040518061022001604052806122976040518061014001604052806000801916815260200160006001600160a01b0316815260200160006001600160a01b03168152602001600081526020016000815260200160008152602001600081526020016000815260200160008152602001600081525090565b81526020016122c060405180606001604052806000815260200160008152602001600081525090565b81526020016122fe6040518060c001604052806000815260200160008152602001600081526020016000815260200160008152602001600081525090565b815260200161232e6040518060800160405280600081526020016000815260200160008152602001600081525090565b8152604080516060810182526000808252602082810182905292820152910190815260200161237e6040518060800160405280600081526020016000815260200160008152602001600081525090565b81526020016123a0604051806040016040528060008152602001600081525090565b8152602001600081526020016000815260200160008152602001600081526020016000815260200160008152602001600081526020016000815260200160008152602001600081525090565b60405180604001604052806123ff612432565b8152602001611f40612432565b6040518060a0016040528060001515815260200160008152602001600081526020016123ff5b60408051608081018252600091810182815260608201929092529081908152602001611f40604051806040016040528060008152602001600081525090565b6001600160a01b038116811461248657600080fd5b50565b634e487b7160e01b600052604160045260246000fd5b604051608081016001600160401b03811182821017156124c1576124c1612489565b60405290565b604080519081016001600160401b03811182821017156124c1576124c1612489565b604051606081016001600160401b03811182821017156124c1576124c1612489565b60405161012081016001600160401b03811182821017156124c1576124c1612489565b60405161014081016001600160401b03811182821017156124c1576124c1612489565b60405160c081016001600160401b03811182821017156124c1576124c1612489565b60405160e081016001600160401b03811182821017156124c1576124c1612489565b60405161022081016001600160401b03811182821017156124c1576124c1612489565b60405161016081016001600160401b03811182821017156124c1576124c1612489565b60405161010081016001600160401b03811182821017156124c1576124c1612489565b60405160a081016001600160401b03811182821017156124c1576124c1612489565b604051601f8201601f191681016001600160401b038111828210171561264857612648612489565b604052919050565b803561265b81612471565b919050565b60006080828403121561267257600080fd5b61267a61249f565b9050813561268781612471565b8152602082013561269781612471565b602082015260408201356126aa81612471565b604082015260608201356126bd81612471565b606082015292915050565b6000604082840312156126da57600080fd5b6126e26124c7565b9050813581526020820135602082015292915050565b600060c0828403121561270a57600080fd5b6127126124e9565b905061271e83836126c8565b815261272d83604084016126c8565b602082015261273f83608084016126c8565b604082015292915050565b801515811461248657600080fd5b6000806000806000806101c0878903121561277257600080fd5b863561277d81612471565b9550602087013561278d81612471565b9450604087013593506127a38860608901612660565b92506127b28860e089016126f8565b91506101a08701356127c38161274a565b809150509295509295509295565b60005b838110156127ec5781810151838201526020016127d4565b50506000910152565b831515815260a06020820152600083518060a084015261281c8160c08501602088016127d1565b60c0601f19601f830116840101915050825160408301526020830151606083015260408301516080830152949350505050565b6000806000806000806000610180888a03121561286b57600080fd5b873561287681612471565b9650602088013561288681612471565b95506040880135945061289c8960608a016126f8565b935061012088013592506101408801356128b581612471565b91506101608801356128c68161274a565b8091505092959891949750929550565b6001600160a01b03169052565b805160018060a01b03808251168452806020830151166020850152806040830151166040850152505060208101518051606084015260208101516080840152604081015160a0840152606081015160c0840152608081015160e084015260a0810151610100818186015260c083015161012086015260e08301516101408601528083015161016086015250505060408101515115156101808301525050565b80518252602081015161299860208401826128d6565b5060408101516129ab60408401826128d6565b50606081015160608301526080810151608083015260a081015160a083015260c081015160c083015260e081015160e08301526101008082015181840152506101208082015181840152505050565b8051825260208082015190830152604090810151910152565b805182526020810151602083015260408101516040830152606081015160608301526080810151608083015260a081015160a08301525050565b805182526020810151602083015260408101516040830152606081015160608301525050565b80518252602090810151910152565b805182526020810151612a9860208401826128e3565b5060408101516101c0612aae8185018351612982565b6020820151612ac16103008601826129fa565b506040820151612ad5610360860182612a13565b506060820151612ae9610420860182612a4d565b50608082015180516001600160a01b03166104a086015260208101516104c0860152604001516104e085015260a0820151612b28610500860182612a4d565b5060c0820151612b3c610580860182612a73565b5060e08201516105c08501526101008201516105e08501526101208201516106008501526101408201516106208501526101608201516106408501526101808201516106608501526101a08201516106808501528101516106a08401526101e08101516106c084015261020001516106e08301526060810151612bc36107008401826129fa565b50608081015161076083015260a081015161078083015260c001516107a090910152565b6107c081016109638284612a82565b60008060008060008060006101a0888a031215612c1257600080fd5b8735612c1d81612471565b9650612c2c8960208a01612660565b9550612c3b8960a08a016126c8565b9450612c4a8960e08a016126c8565b9350612c5a896101208a016126c8565b925061016088013591506101808801356128c68161274a565b60008060408385031215612c8657600080fd5b8235612c9181612471565b946020939093013593505050565b6101a0810161096382846128e3565b600081518084526020808501945080840160005b83811015612ce75781516001600160a01b031687529582019590820190600101612cc2565b509495945050505050565b6020815260006101208351610100806020860152612d1383860183516128d6565b6020820151612d266101408701826128d6565b506040820151612d3a6101608701826128d6565b506060820151612d4e6101808701826128d6565b506080820151612d626101a08701826128d6565b5060a0820151612d766101c08701826128d6565b5060c0820151612d8a6101e08701826128d6565b5060e082015183610200870152612da5610240870182612cae565b9282015186840361011f1901610220880152929350612dc690508383612cae565b925060208601519150612ddc6040860183612a13565b6040860151805115158683015291505b5090949350505050565b60008060008060006101208688031215612e0f57600080fd5b8535612e1a81612471565b9450612e298760208801612660565b9350612e388760a088016126c8565b925060e0860135612e488161274a565b9150610100860135612e598161274a565b809150509295509295909350565b80356005811061265b57600080fd5b6000806000806000806101c08789031215612e9057600080fd5b8635612e9b81612471565b9550612eaa8860208901612660565b9450612eb98860a089016126f8565b93506101608701359250610180870135612ed281612471565b9150612ee16101a08801612e67565b90509295509295509295565b6000806000806101208587031215612f0457600080fd5b8435612f0f81612471565b93506020850135612f1f81612471565b92506040850135612f2f8161274a565b9150612f3e86606087016126f8565b905092959194509250565b6000806000806000806101c08789031215612f6357600080fd5b8635612f6e81612471565b9550612f7d8860208901612660565b9450612f8c8860a089016126f8565b9350610160870135612f9d81612471565b925061018087013591506101a08701356127c381612471565b60008060008060808587031215612fcc57600080fd5b8435612fd781612471565b93506020850135612fe781612471565b93969395505050506040820135916060013590565b634e487b7160e01b600052602160045260246000fd5b6009811061302257613022612ffc565b9052565b6003811061302257613022612ffc565b613041828251613012565b60208101516130536020840182613026565b5060408101516040830152606081015160608301526080810151608083015260a081015160a083015260c081015160c083015260e081015160e08301526101008082015181840152506101208082015181840152506101408082015181840152505050565b805161020080845281516001600160a01b039081169185019190915260208201511661022084015260408101516000916130f66102408601836128d6565b6060810151915061310b6102608601836128d6565b608081015191506131206102808601836128d6565b60a081015191506131356102a08601836128d6565b60c0810151915061314a6102c08601836128d6565b60e001516101006102e08601529050613167610300850182612cae565b9050602083015161317b6020860182613036565b5060408381015180511515610180870152602081015115156101a08701529081015115156101c0860152606081015115156101e0860152509392505050565b6000602080830181845280855180835260408601915060408160051b870101925083870160005b8281101561320f57603f198886030184526131fd8583516130b8565b945092850192908501906001016131e1565b5092979650505050505050565b60208152600061096060208301846130b8565b6000806000806000806000610100888a03121561324b57600080fd5b873561325681612471565b9650602088013561326681612471565b95506132758960408a016126c8565b94506080880135935060a0880135925060c0880135915060e08801356128c68161274a565b6060810161096382846129fa565b6000806000806000806000610120888a0312156132c457600080fd5b87356132cf81612471565b965060208801356132df81612471565b955060408801356132ef81612471565b945060608801356132ff81612471565b9350608088013592506133158960a08a016126c8565b91506133248960e08a016126c8565b905092959891949750929550565b600080600080600080600080610200898b03121561334f57600080fd5b883561335a81612471565b97506133698a60208b01612660565b96506133788a60a08b016126f8565b9550610160890135945061018089013593506101a089013561339981612471565b92506133a86101c08a01612e67565b91506101e08901356133b98161274a565b809150509295985092959890939650565b600080604083850312156133dd57600080fd5b82356133e881612471565b915060208301356133f881612471565b809150509250929050565b80516001600160a01b03908116835260208083015182169084015260408083015182169084015260609182015116910152565b608081016109638284613403565b6020808252825182820181905260009190848201906040850190845b81811015613487576134738385516128e3565b928401926101a09290920191600101613460565b50909695505050505050565b600080600061010084860312156134a957600080fd5b83356134b481612471565b92506134c385602086016126f8565b915060e08401356134d381612471565b809150509250925092565b6134e9828251612a73565b60208101516134fb6040840182612a73565b505050565b61350b828251613403565b60208101516080830152604081015160a0830152606081015161353260c0840182516134de565b602001516135446101408401826134de565b506080810151805115156101c084015260208101516101e08401526040810151610200840152606081015161357d6102208501826134de565b50608001516135906102a08401826134de565b5060a08101516135a46103208401826129fa565b5060c0015115156103809190910152565b6103a081016109638284613500565b600080600080600061014086880312156135dd57600080fd5b85356135e881612471565b945060208601356135f881612471565b935061360787604088016126f8565b92506101008601356136188161274a565b9150610120860135612e598161274a565b60006001600160401b0382111561364257613642612489565b5060051b60200190565b600082601f83011261365d57600080fd5b8135602061367261366d83613629565b612620565b82815260c0928302850182019282820191908785111561369157600080fd5b8387015b858110156136b4576136a789826126f8565b8452928401928101613695565b5090979650505050505050565b600080600080600080600080610100898b0312156136de57600080fd5b88356136e981612471565b97506020898101356136fa81612471565b975060408a013561370a81612471565b965060608a01356001600160401b038082111561372657600080fd5b818c0191508c601f83011261373a57600080fd5b813561374861366d82613629565b81815260059190911b8301840190848101908f83111561376757600080fd5b938501935b8285101561378e57843561377f81612471565b8252938501939085019061376c565b9950505060808c01359250808311156137a657600080fd5b50506137b48b828c0161364c565b9450506137c360a08a01612650565b925060c0890135915060e089013590509295985092959890939650565b6020808252825182820181905260009190848201906040850190845b818110156134875761380f838551612a82565b928401926107c092909201916001016137fc565b60008060008060006101a0868803121561383c57600080fd5b853561384781612471565b94506138568760208801612660565b93506138658760a088016126f8565b949793965093946101608101359450610180013592915050565b6000806000806080858703121561389557600080fd5b84356138a081612471565b935060208501356001600160401b038111156138bb57600080fd5b6138c78782880161364c565b949794965050505060408301359260600135919050565b6020808252825182820181905260009190848201906040850190845b818110156134875761390d838551613500565b928401926103a092909201916001016138fa565b600080600080600060a0868803121561393957600080fd5b853561394481612471565b945060208681013561395581612471565b945060408701356001600160401b038082111561397157600080fd5b818901915089601f83011261398557600080fd5b813561399361366d82613629565b81815260059190911b8301840190848101908c8311156139b257600080fd5b938501935b828510156139d0578435825293850193908501906139b7565b9750505060608901359250808311156139e857600080fd5b50506139f68882890161364c565b925050613a0560808701612650565b90509295509295909350565b600080600060608486031215613a2657600080fd5b8335613a3181612471565b95602085013595506040909401359392505050565b6020808252825182820181905260009190848201906040850190845b8181101561348757613a75838551613403565b9284019260809290920191600101613a62565b602081526000825161010080602085015260018060a01b03808351166101208601528060208401511661014086015280604084015116610160860152506060820151613ad86101808601826128d6565b506080820151613aec6101a08601826128d6565b5060a082015160e06101c0860152613b08610200860182612cae565b905060c0830151925061011f19858203016101e0860152613b298184612cae565b9250506020850151613b3e6040860182612a13565b5060408501518051151585830152612dec565b6000806000806101008587031215613b6857600080fd5b8435613b7381612471565b9350613b828660208701612660565b9250613b918660a087016126c8565b915060e0850135613ba18161274a565b939692955090935050565b6001600160a01b03929092168252602082015260400190565b805161265b81612471565b805161265b8161274a565b600060208284031215613bed57600080fd5b604051602081016001600160401b0381118282101715613c0f57613c0f612489565b80604052508091508251613c228161274a565b905292915050565b60008183036101a0811215613c3e57600080fd5b613c466124e9565b91506060811215613c5657600080fd5b613c5e6124e9565b8351613c6981612471565b81526020840151613c7981612471565b60208201526040840151613c8c81612471565b60408201528252610120605f198201811315613ca757600080fd5b613caf61250b565b9150606084015182526080840151602083015260a0840151604083015260c0840151606083015260e084015160808301526101008085015160a08401528185015160c084015261014085015160e08401526101608501518184015250508060208301525061273f836101808401613bdb565b60006101a08284031215613d3457600080fd5b6109608383613c2a565b613d49828251612a73565b6020810151613d5b6040840182612a73565b5060408101516134fb6080840182612a73565b6001600160a01b038781168252861660208201526103408101613d9460408301876128e3565b613da26101e0830186613403565b613db0610260830185613d3e565b821515610320830152979650505050505050565b600060608284031215613dd657600080fd5b613dde6124e9565b905081518152602082015160208201526040820151604082015292915050565b600080600060a08486031215613e1357600080fd5b8351613e1e8161274a565b60208501519093506001600160401b0380821115613e3b57600080fd5b818601915086601f830112613e4f57600080fd5b815181811115613e6157613e61612489565b613e74601f8201601f1916602001612620565b9150808252876020828501011115613e8b57600080fd5b613e9c8160208401602086016127d1565b509250613eae90508560408601613dc4565b90509250925092565b6001600160a01b038881168252878116602083015260408201879052610180820190613ee66060840188613d3e565b856101208401528085166101408401525082151561016083015298975050505050505050565b60006101408284031215613f1f57600080fd5b613f2761252e565b905081518152613f3960208301613bc5565b6020820152613f4a60408301613bc5565b6040820152606082015160608201526080820151608082015260a082015160a082015260c082015160c082015260e082015160e082015261010080830151818301525061012080830151818301525092915050565b600060c08284031215613fb157600080fd5b613fb9612551565b9050815181526020820151602082015260408201516040820152606082015160608201526080820151608082015260a082015160a082015292915050565b60006080828403121561400957600080fd5b61401161249f565b90508151815260208201516020820152604082015160408201526060820151606082015292915050565b60006060828403121561404d57600080fd5b6140556124e9565b9050815161406281612471565b80825250602082015160208201526040820151604082015292915050565b60006040828403121561409257600080fd5b61409a6124c7565b9050815181526020820151602082015292915050565b60008183036107c08112156140c457600080fd5b6140cc612573565b9150825182526140df8460208501613c2a565b60208301526101c06105406101bf19830112156140fb57600080fd5b614103612595565b915061411185828601613f0c565b8252614121856103008601613dc4565b6020830152614134856103608601613f9f565b6040830152614147856104208601613ff7565b606083015261415a856104a0860161403b565b608083015261416d856105008601613ff7565b60a0830152614180856105808601614080565b60c08301526105c084015160e08301526105e08401516101008301526106008401516101208301526106208401516101408301526106408401516101608301526106608401516101808301526106808401516101a08301526106a0840151908201526106c08301516101e08201526106e0830151610200820152604082015261420d836107008401613dc4565b6060820152610760820151608082015261078082015160a08201526107a082015160c082015292915050565b60006107c0828403121561424c57600080fd5b61096083836140b0565b6001600160a01b03881681526101a081016142746020830189613403565b61428160a0830188612a73565b61428e60e0830187612a73565b61429c610120830186612a73565b8361016083015282151561018083015298975050505050505050565b6000808284036101808112156142cd57600080fd5b8351925061016080601f19830112156142e557600080fd5b6142ed6125b8565b91506020850151825260408501516020830152606085015160408301526080850151606083015260a0850151608083015260c085015160a083015260e085015160c08301526101008086015160e08401526101208087015182850152610140915081870151818501525081860151818401525050809150509250929050565b600082601f83011261437d57600080fd5b8151602061438d61366d83613629565b82815260059290921b840181019181810190868411156143ac57600080fd5b8286015b848110156143d05780516143c381612471565b83529183019183016143b0565b509695505050505050565b6000602082840312156143ed57600080fd5b81516001600160401b038082111561440457600080fd5b818401915061010080838703121561441b57600080fd5b6144236124e9565b83518381111561443257600080fd5b8401610120818903121561444557600080fd5b61444d61250b565b61445682613bc5565b815261446460208301613bc5565b602082015261447560408301613bc5565b604082015261448660608301613bc5565b606082015261449760808301613bc5565b60808201526144a860a08301613bc5565b60a08201526144b960c08301613bc5565b60c082015260e0820151858111156144d057600080fd5b6144dc8a82850161436c565b60e08301525083820151858111156144f357600080fd5b6144ff8a82850161436c565b82860152508252506145148760208601613f9f565b60208201526145268760e08601613bdb565b60408201529695505050505050565b6005811061302257613022612ffc565b6001600160a01b0387811682526101c08201906145656020840189613403565b61457260a0840188613d3e565b610160830186905284166101808301526107de6101a0830184614535565b600080604083850312156145a357600080fd5b505080516020909101519092909150565b6001600160a01b0385811682528416602082015282151560408201526101208101610a016060830184613d3e565b600080600080608085870312156145f857600080fd5b84519350602085015161460a8161274a565b6040860151606090960151949790965092505050565b6001600160a01b0387811682526101c08201906146406020840189613403565b61464d60a0840188613d3e565b808616610160840152846101808401528084166101a084015250979650505050505050565b600080600083850361010081121561468957600080fd5b845193506020850151925060c0603f19820112156146a657600080fd5b506146af612551565b60408501518152606085015160208201526080850151604082015260a08501516146d881612471565b606082015260c0850151608082015260e09094015160a0850152509093909250565b6001600160a01b0394851681529290931660208301526040820152606081019190915260800190565b80516009811061265b57600080fd5b80516003811061265b57600080fd5b6000610160828403121561475457600080fd5b61475c6125b8565b905061476782614723565b815261477560208301614732565b602082015260408201516040820152606082015160608201526080820151608082015260a082015160a082015260c082015160c082015260e082015160e082015261010080830151818301525061012080830151818301525061014080830151818301525092915050565b6000608082840312156147f257600080fd5b6147fa61249f565b905081516148078161274a565b815260208201516148178161274a565b6020820152604082015161482a8161274a565b604082015260608201516126bd8161274a565b6000610200828403121561485057600080fd5b6148586124e9565b82519091506001600160401b038082111561487257600080fd5b90830190610100828603121561488757600080fd5b61488f6125db565b61489883613bc5565b81526148a660208401613bc5565b60208201526148b760408401613bc5565b60408201526148c860608401613bc5565b60608201526148d960808401613bc5565b60808201526148ea60a08401613bc5565b60a08201526148fb60c08401613bc5565b60c082015260e08301518281111561491257600080fd5b61491e8782860161436c565b60e08301525083525061493690508360208401614741565b602082015261273f8361018084016147e0565b6000602080838503121561495c57600080fd5b82516001600160401b038082111561497357600080fd5b818501915085601f83011261498757600080fd5b815161499561366d82613629565b81815260059190911b830184019084810190888311156149b457600080fd5b8585015b838110156149ec578051858111156149d05760008081fd5b6149de8b89838a010161483d565b8452509186019186016149b8565b5098975050505050505050565b600060208284031215614a0b57600080fd5b81516001600160401b03811115614a2157600080fd5b6119d98482850161483d565b6001600160a01b0392831681529116602082015260400190565b600060808284031215614a5957600080fd5b614a6161249f565b90508151614a6e81612471565b81526020820151614a7e81612471565b60208201526040820151614a9181612471565b604082015260608201516126bd81612471565b600060808284031215614ab657600080fd5b6109608383614a47565b6001600160a01b03881681526101608101614ade6020830189613403565b614aeb60a0830188612a73565b8560e0830152846101008301528361012083015282151561014083015298975050505050505050565b600060608284031215614b2657600080fd5b6109608383613dc4565b6001600160a01b038881168252610180820190614b50602084018a613403565b87811660a0840152861660c083015260e08201859052614b74610100830185612a73565b610fd7610140830184612a73565b600080600060608486031215614b9757600080fd5b8351925060208401519150604084015190509250925092565b6001600160a01b038981168252610200820190614bd0602084018b613403565b614bdd60a084018a613d3e565b87610160840152866101808401528086166101a084015250614c036101c0830185614535565b8215156101e08301529998505050505050505050565b600060208284031215614c2b57600080fd5b5051919050565b60006020808385031215614c4557600080fd5b82516001600160401b03811115614c5b57600080fd5b8301601f81018513614c6c57600080fd5b8051614c7a61366d82613629565b8181526101a09182028301840191848201919088841115614c9a57600080fd5b938501935b83851015614cc057614cb18986613c2a565b83529384019391850191614c9f565b50979650505050505050565b6001600160a01b038481168252610100820190614cec6020840186613d3e565b80841660e084015250949350505050565b600060808284031215614d0f57600080fd5b614d176124c7565b9050614d238383614080565b8152614d328360408401614080565b602082015292915050565b60006101608284031215614d5057600080fd5b614d586125fe565b90508151614d658161274a565b808252506020820151602082015260408201516040820152614d8a8360608401614cfd565b6060820152614d9c8360e08401614cfd565b608082015292915050565b60008183036103a0811215614dbb57600080fd5b614dc3612573565b9150614dcf8484614a47565b82526080830151602083015260a0830151604083015261010060bf1982011215614df857600080fd5b50614e016124c7565b614e0e8460c08501614cfd565b8152614e1e846101408501614cfd565b60208201526060820152614e36836101c08401614d3d565b6080820152614e49836103208401613dc4565b60a0820152614e5b6103808301613bd0565b60c082015292915050565b60006103a08284031215614e7957600080fd5b6109608383614da7565b600060a08284031215614e9557600080fd5b614e9d6125fe565b9050815181526020820151602082015260408201516040820152606082015160608201526080820151608082015292915050565b6000818303610160811215614ee557600080fd5b614eed6124c7565b60c0821215614efb57600080fd5b614f03612551565b91508351614f1081612471565b82526020840151614f2081612471565b60208301526040840151614f3381612471565b60408301526060840151614f4681612471565b60608301526080840151614f5981612471565b608083015260a0840151614f6c81612471565b60a0830152818152614f818560c08601614e83565b6020820152949350505050565b600081518084526020808501945080840160005b83811015612ce757614fb5878351613d3e565b60c0969096019590820190600101614fa2565b6001600160a01b03898116825288811660208084019190915288821660408401526101006060840181905288519084018190526000926101208501928a810192855b8181101561502857845184168652948201949382019360010161500a565b5050505050828103608084015261503f8188614f8e565b91505061504f60a08301866128d6565b60c082019390935260e001529695505050505050565b6000602080838503121561507857600080fd5b82516001600160401b0381111561508e57600080fd5b8301601f8101851361509f57600080fd5b80516150ad61366d82613629565b8181526107c091820283018401918482019190888411156150cd57600080fd5b938501935b83851015614cc0576150e489866140b0565b835293840193918501916150d2565b6001600160a01b038616815261032081016151116020830187613403565b61511e60a0830186613d3e565b61512c6101608301856128e3565b826103008301529695505050505050565b6001600160a01b038516815260806020820181905260009061516190830186614f8e565b6040830194909452506060015292915050565b6000602080838503121561518757600080fd5b82516001600160401b0381111561519d57600080fd5b8301601f810185136151ae57600080fd5b80516151bc61366d82613629565b8181526103a091820283018401918482019190888411156151dc57600080fd5b938501935b83851015614cc0576151f38986614da7565b835293840193918501916151e1565b600060a0820160018060a01b03808916845260208189168186015260a0604086015282885180855260c087019150828a01945060005b8181101561525457855183529483019491830191600101615238565b505085810360608701526152688189614f8e565b94505050808516608085015250509695505050505050565b6000602080838503121561529357600080fd5b82516001600160401b038111156152a957600080fd5b8301601f810185136152ba57600080fd5b80516152c861366d82613629565b81815260079190911b820183019083810190878311156152e757600080fd5b928401925b828410156107de576152fe8885614a47565b825284820191506080840193506152ec565b60006020828403121561532257600080fd5b81516001600160401b038082111561533957600080fd5b90830190610100828603121561534e57600080fd5b6153566124e9565b82518281111561536557600080fd5b830160e0818803121561537757600080fd5b61537f612573565b61538882613bc5565b815261539660208301613bc5565b60208201526153a760408301613bc5565b60408201526153b860608301613bc5565b60608201526153c960808301613bc5565b608082015260a0820151848111156153e057600080fd5b6153ec8982850161436c565b60a08301525060c08201518481111561540457600080fd5b6154108982850161436c565b60c0830152508252506154268660208501613f9f565b60208201526154388660e08501613bdb565b604082015295945050505050565b634e487b7160e01b600052601160045260246000fd5b808202811582820484141761096357610963615446565b818103600083128015838313168383128216171561549357615493615446565b5092915050565b80820182811260008312801582168215821617156154ba576154ba615446565b505092915050565b8082018082111561096357610963615446565b6000600160ff1b82016154ea576154ea615446565b5060000390565b634e487b7160e01b600052601260045260246000fd5b60008261552457634e487b7160e01b600052601260045260246000fd5b50049056fea2646970667358221220ac0a09b0de08801ab71556494605f5b7f69da3002b52d2dfcecb1b588f51e67664736f6c63430008120033",
  "linkReferences": {
    "contracts/deposit/DepositStoreUtils.sol": {
      "DepositStoreUtils": [
        {
          "length": 20,
          "start": 2464
        }
      ]
    },
    "contracts/market/MarketStoreUtils.sol": {
      "MarketStoreUtils": [
        {
          "length": 20,
          "start": 3409
        },
        {
          "length": 20,
          "start": 3672
        },
        {
          "length": 20,
          "start": 4122
        },
        {
          "length": 20,
          "start": 4510
        },
        {
          "length": 20,
          "start": 4683
        }
      ]
    },
    "contracts/market/MarketUtils.sol": {
      "MarketUtils": [
        {
          "length": 20,
          "start": 2167
        }
      ]
    },
    "contracts/position/PositionStoreUtils.sol": {
      "PositionStoreUtils": [
        {
          "length": 20,
          "start": 1638
        },
        {
          "length": 20,
          "start": 2324
        },
        {
          "length": 20,
          "start": 5005
        }
      ]
    },
    "contracts/position/PositionUtils.sol": {
      "PositionUtils": [
        {
          "length": 20,
          "start": 1764
        },
        {
          "length": 20,
          "start": 5144
        }
      ]
    },
    "contracts/reader/ReaderDepositUtils.sol": {
      "ReaderDepositUtils": [
        {
          "length": 20,
          "start": 3965
        }
      ]
    },
    "contracts/reader/ReaderPositionUtils.sol": {
      "ReaderPositionUtils": [
        {
          "length": 20,
          "start": 1925
        },
        {
          "length": 20,
          "start": 4247
        },
        {
          "length": 20,
          "start": 4874
        },
        {
          "length": 20,
          "start": 5426
        }
      ]
    },
    "contracts/reader/ReaderPricingUtils.sol": {
      "ReaderPricingUtils": [
        {
          "length": 20,
          "start": 2983
        },
        {
          "length": 20,
          "start": 3534
        },
        {
          "length": 20,
          "start": 3810
        }
      ]
    },
    "contracts/reader/ReaderUtils.sol": {
      "ReaderUtils": [
        {
          "length": 20,
          "start": 2757
        },
        {
          "length": 20,
          "start": 3135
        },
        {
          "length": 20,
          "start": 3272
        },
        {
          "length": 20,
          "start": 4385
        },
        {
          "length": 20,
          "start": 5293
        },
        {
          "length": 20,
          "start": 5590
        }
      ]
    },
    "contracts/reader/ReaderWithdrawalUtils.sol": {
      "ReaderWithdrawalUtils": [
        {
          "length": 20,
          "start": 2607
        }
      ]
    },
    "contracts/shift/ShiftStoreUtils.sol": {
      "ShiftStoreUtils": [
        {
          "length": 20,
          "start": 4748
        }
      ]
    },
    "contracts/withdrawal/WithdrawalStoreUtils.sol": {
      "WithdrawalStoreUtils": [
        {
          "length": 20,
          "start": 5711
        }
      ]
    }
  },
  "deployedLinkReferences": {
    "contracts/deposit/DepositStoreUtils.sol": {
      "DepositStoreUtils": [
        {
          "length": 20,
          "start": 2432
        }
      ]
    },
    "contracts/market/MarketStoreUtils.sol": {
      "MarketStoreUtils": [
        {
          "length": 20,
          "start": 3377
        },
        {
          "length": 20,
          "start": 3640
        },
        {
          "length": 20,
          "start": 4090
        },
        {
          "length": 20,
          "start": 4478
        },
        {
          "length": 20,
          "start": 4651
        }
      ]
    },
    "contracts/market/MarketUtils.sol": {
      "MarketUtils": [
        {
          "length": 20,
          "start": 2135
        }
      ]
    },
    "contracts/position/PositionStoreUtils.sol": {
      "PositionStoreUtils": [
        {
          "length": 20,
          "start": 1606
        },
        {
          "length": 20,
          "start": 2292
        },
        {
          "length": 20,
          "start": 4973
        }
      ]
    },
    "contracts/position/PositionUtils.sol": {
      "PositionUtils": [
        {
          "length": 20,
          "start": 1732
        },
        {
          "length": 20,
          "start": 5112
        }
      ]
    },
    "contracts/reader/ReaderDepositUtils.sol": {
      "ReaderDepositUtils": [
        {
          "length": 20,
          "start": 3933
        }
      ]
    },
    "contracts/reader/ReaderPositionUtils.sol": {
      "ReaderPositionUtils": [
        {
          "length": 20,
          "start": 1893
        },
        {
          "length": 20,
          "start": 4215
        },
        {
          "length": 20,
          "start": 4842
        },
        {
          "length": 20,
          "start": 5394
        }
      ]
    },
    "contracts/reader/ReaderPricingUtils.sol": {
      "ReaderPricingUtils": [
        {
          "length": 20,
          "start": 2951
        },
        {
          "length": 20,
          "start": 3502
        },
        {
          "length": 20,
          "start": 3778
        }
      ]
    },
    "contracts/reader/ReaderUtils.sol": {
      "ReaderUtils": [
        {
          "length": 20,
          "start": 2725
        },
        {
          "length": 20,
          "start": 3103
        },
        {
          "length": 20,
          "start": 3240
        },
        {
          "length": 20,
          "start": 4353
        },
        {
          "length": 20,
          "start": 5261
        },
        {
          "length": 20,
          "start": 5558
        }
      ]
    },
    "contracts/reader/ReaderWithdrawalUtils.sol": {
      "ReaderWithdrawalUtils": [
        {
          "length": 20,
          "start": 2575
        }
      ]
    },
    "contracts/shift/ShiftStoreUtils.sol": {
      "ShiftStoreUtils": [
        {
          "length": 20,
          "start": 4716
        }
      ]
    },
    "contracts/withdrawal/WithdrawalStoreUtils.sol": {
      "WithdrawalStoreUtils": [
        {
          "length": 20,
          "start": 5679
        }
      ]
    }
  }
}