{
  "_format": "hh-sol-artifact-1",
  "contractName": "ReaderPricingUtils",
  "sourceName": "contracts/reader/ReaderPricingUtils.sol",
  "abi": [
    {
      "inputs": [
        {
          "internalType": "address",
          "name": "market",
          "type": "address"
        }
      ],
      "name": "DisabledMarket",
      "type": "error"
    },
    {
      "inputs": [],
      "name": "EmptyMarket",
      "type": "error"
    },
    {
      "inputs": [
        {
          "internalType": "address",
          "name": "market",
          "type": "address"
        }
      ],
      "name": "InvalidSwapMarket",
      "type": "error"
    },
    {
      "inputs": [
        {
          "internalType": "address",
          "name": "tokenIn",
          "type": "address"
        },
        {
          "internalType": "address",
          "name": "market",
          "type": "address"
        }
      ],
      "name": "InvalidTokenIn",
      "type": "error"
    },
    {
      "inputs": [
        {
          "internalType": "address",
          "name": "token",
          "type": "address"
        },
        {
          "internalType": "address",
          "name": "market",
          "type": "address"
        }
      ],
      "name": "UnableToGetCachedTokenPrice",
      "type": "error"
    },
    {
      "inputs": [
        {
          "internalType": "address",
          "name": "inputToken",
          "type": "address"
        },
        {
          "internalType": "address",
          "name": "market",
          "type": "address"
        }
      ],
      "name": "UnableToGetOppositeToken",
      "type": "error"
    },
    {
      "inputs": [
        {
          "internalType": "contract DataStore",
          "name": "dataStore",
          "type": "DataStore"
        },
        {
          "components": [
            {
              "internalType": "address",
              "name": "marketToken",
              "type": "address"
            },
            {
              "internalType": "address",
              "name": "indexToken",
              "type": "address"
            },
            {
              "internalType": "address",
              "name": "longToken",
              "type": "address"
            },
            {
              "internalType": "address",
              "name": "shortToken",
              "type": "address"
            }
          ],
          "internalType": "struct Market.Props",
          "name": "market",
          "type": "tuple"
        },
        {
          "components": [
            {
              "internalType": "uint256",
              "name": "min",
              "type": "uint256"
            },
            {
              "internalType": "uint256",
              "name": "max",
              "type": "uint256"
            }
          ],
          "internalType": "struct Price.Props",
          "name": "indexTokenPrice",
          "type": "tuple"
        },
        {
          "internalType": "uint256",
          "name": "positionSizeInUsd",
          "type": "uint256"
        },
        {
          "internalType": "uint256",
          "name": "positionSizeInTokens",
          "type": "uint256"
        },
        {
          "internalType": "int256",
          "name": "sizeDeltaUsd",
          "type": "int256"
        },
        {
          "internalType": "bool",
          "name": "isLong",
          "type": "bool"
        }
      ],
      "name": "getExecutionPrice",
      "outputs": [
        {
          "components": [
            {
              "internalType": "int256",
              "name": "priceImpactUsd",
              "type": "int256"
            },
            {
              "internalType": "uint256",
              "name": "priceImpactDiffUsd",
              "type": "uint256"
            },
            {
              "internalType": "uint256",
              "name": "executionPrice",
              "type": "uint256"
            }
          ],
          "internalType": "struct ReaderPricingUtils.ExecutionPriceResult",
          "name": "",
          "type": "tuple"
        }
      ],
      "stateMutability": "view",
      "type": "function"
    },
    {
      "inputs": [
        {
          "internalType": "contract DataStore",
          "name": "dataStore",
          "type": "DataStore"
        },
        {
          "components": [
            {
              "internalType": "address",
              "name": "marketToken",
              "type": "address"
            },
            {
              "internalType": "address",
              "name": "indexToken",
              "type": "address"
            },
            {
              "internalType": "address",
              "name": "longToken",
              "type": "address"
            },
            {
              "internalType": "address",
              "name": "shortToken",
              "type": "address"
            }
          ],
          "internalType": "struct Market.Props",
          "name": "market",
          "type": "tuple"
        },
        {
          "components": [
            {
              "components": [
                {
                  "internalType": "uint256",
                  "name": "min",
                  "type": "uint256"
                },
                {
                  "internalType": "uint256",
                  "name": "max",
                  "type": "uint256"
                }
              ],
              "internalType": "struct Price.Props",
              "name": "indexTokenPrice",
              "type": "tuple"
            },
            {
              "components": [
                {
                  "internalType": "uint256",
                  "name": "min",
                  "type": "uint256"
                },
                {
                  "internalType": "uint256",
                  "name": "max",
                  "type": "uint256"
                }
              ],
              "internalType": "struct Price.Props",
              "name": "longTokenPrice",
              "type": "tuple"
            },
            {
              "components": [
                {
                  "internalType": "uint256",
                  "name": "min",
                  "type": "uint256"
                },
                {
                  "internalType": "uint256",
                  "name": "max",
                  "type": "uint256"
                }
              ],
              "internalType": "struct Price.Props",
              "name": "shortTokenPrice",
              "type": "tuple"
            }
          ],
          "internalType": "struct MarketUtils.MarketPrices",
          "name": "prices",
          "type": "tuple"
        },
        {
          "internalType": "address",
          "name": "tokenIn",
          "type": "address"
        },
        {
          "internalType": "uint256",
          "name": "amountIn",
          "type": "uint256"
        },
        {
          "internalType": "address",
          "name": "uiFeeReceiver",
          "type": "address"
        }
      ],
      "name": "getSwapAmountOut",
      "outputs": [
        {
          "internalType": "uint256",
          "name": "",
          "type": "uint256"
        },
        {
          "internalType": "int256",
          "name": "",
          "type": "int256"
        },
        {
          "components": [
            {
              "internalType": "uint256",
              "name": "feeReceiverAmount",
              "type": "uint256"
            },
            {
              "internalType": "uint256",
              "name": "feeAmountForPool",
              "type": "uint256"
            },
            {
              "internalType": "uint256",
              "name": "amountAfterFees",
              "type": "uint256"
            },
            {
              "internalType": "address",
              "name": "uiFeeReceiver",
              "type": "address"
            },
            {
              "internalType": "uint256",
              "name": "uiFeeReceiverFactor",
              "type": "uint256"
            },
            {
              "internalType": "uint256",
              "name": "uiFeeAmount",
              "type": "uint256"
            }
          ],
          "internalType": "struct SwapPricingUtils.SwapFees",
          "name": "",
          "type": "tuple"
        }
      ],
      "stateMutability": "view",
      "type": "function"
    },
    {
      "inputs": [
        {
          "internalType": "contract DataStore",
          "name": "dataStore",
          "type": "DataStore"
        },
        {
          "components": [
            {
              "internalType": "address",
              "name": "marketToken",
              "type": "address"
            },
            {
              "internalType": "address",
              "name": "indexToken",
              "type": "address"
            },
            {
              "internalType": "address",
              "name": "longToken",
              "type": "address"
            },
            {
              "internalType": "address",
              "name": "shortToken",
              "type": "address"
            }
          ],
          "internalType": "struct Market.Props",
          "name": "market",
          "type": "tuple"
        },
        {
          "internalType": "address",
          "name": "tokenIn",
          "type": "address"
        },
        {
          "internalType": "address",
          "name": "tokenOut",
          "type": "address"
        },
        {
          "internalType": "uint256",
          "name": "amountIn",
          "type": "uint256"
        },
        {
          "components": [
            {
              "internalType": "uint256",
              "name": "min",
              "type": "uint256"
            },
            {
              "internalType": "uint256",
              "name": "max",
              "type": "uint256"
            }
          ],
          "internalType": "struct Price.Props",
          "name": "tokenInPrice",
          "type": "tuple"
        },
        {
          "components": [
            {
              "internalType": "uint256",
              "name": "min",
              "type": "uint256"
            },
            {
              "internalType": "uint256",
              "name": "max",
              "type": "uint256"
            }
          ],
          "internalType": "struct Price.Props",
          "name": "tokenOutPrice",
          "type": "tuple"
        }
      ],
      "name": "getSwapPriceImpact",
      "outputs": [
        {
          "internalType": "int256",
          "name": "priceImpactUsdBeforeCap",
          "type": "int256"
        },
        {
          "internalType": "int256",
          "name": "priceImpactAmount",
          "type": "int256"
        },
        {
          "internalType": "int256",
          "name": "tokenInPriceImpactAmount",
          "type": "int256"
        }
      ],
      "stateMutability": "view",
      "type": "function"
    }
  ],
  "bytecode": "0x6120d761003a600b82828239805160001a60731461002d57634e487b7160e01b600052600060045260246000fd5b30600052607381538281f3fe730000000000000000000000000000000000000000301460806040526004361061004b5760003560e01c8063146fa98e1461005057806381eba89e1461008a578063dafa66bf146100b8575b600080fd5b61006361005e36600461186b565b61012a565b60408051825181526020808401519082015291810151908201526060015b60405180910390f35b61009d6100983660046118e8565b6102ff565b60408051938452602084019290925290820152606001610081565b6100cb6100c6366004611973565b610488565b604080519384526020808501939093528151848201529181015160608085019190915291810151608080850191909152918101516001600160a01b031660a0808501919091529181015160c0840152015160e082015261010001610081565b61013261145c565b61013a61147d565b80516001600160a01b038a1690526020810188905261016961015b856107f2565b604083810151602001510152565b604081810151015183151590526000808513908161018857841561018a565b845b90506101ae8161019b57600061019f565b6000195b60408501516020015160a00152565b6080830180516020908101518a9052815181015101889052516040015185151590526101d861145c565b60008713156102695760405163358daa8960e01b815273__$91a1a7f12f728c8759f4be979bae55555f$__9063358daa899061021a9087908e90600401611d4c565b608060405180830381865af4158015610237573d6000803e3d6000fd5b505050506040513d601f19601f8201168201806040525081019061025b9190611e34565b6040850152505081526102f0565b60405163103b6c3760e31b815273__$91a1a7f12f728c8759f4be979bae55555f$__906381db61b8906102a29087908e90600401611d4c565b606060405180830381865af41580156102bf573d6000803e3d6000fd5b505050506040513d601f19601f820116820180604052508101906102e39190611e6a565b6040840152602083015281525b9b9a5050505050505050505050565b600080600073__$37ccc826b10054fe27f32c30ea3a599925$__633b89b2366040518061012001604052808d6001600160a01b031681526020018c81526020018b6001600160a01b031681526020018a6001600160a01b031681526020016103668961080d565b81526020016103748861080d565b81526020016103946103858a61080d565b61038f908c611eae565b61082f565b81526020016103a56103858a61080d565b6103ae90611ec5565b815260016020909101526040516001600160e01b031960e084901b1681526103d99190600401611ee1565b602060405180830381865af41580156103f6573d6000803e3d6000fd5b505050506040513d601f19601f8201168201806040525081019061041a9190611f77565b925060008313156104665760006104388b8b600001518a8888610899565b909350905080156104605761045c8b8b600001518b896104578661082f565b610899565b5091505b5061047b565b6104778a8a600001518a8887610899565b5091505b9750975097945050505050565b600080610493611513565b61049b611552565b88604001516001600160a01b0316876001600160a01b0316141580156104d7575088606001516001600160a01b0316876001600160a01b031614155b156105025788516040516353f8171160e01b81526104f9918991600401611f90565b60405180910390fd5b61050c8a8a610922565b610516878a61096d565b6001600160a01b0316815261052c878a8a6109dc565b6020820152805161053e908a8a6109dc565b8160400181905250600073__$37ccc826b10054fe27f32c30ea3a599925$__633b89b2366040518061012001604052808e6001600160a01b031681526020018d81526020018b6001600160a01b0316815260200185600001516001600160a01b031681526020016105b2866020015161080d565b81526020016105c4866040015161080d565b81526020016105e36105d9876020015161080d565b61038f908d611eae565b81526020016105f86105d9876020015161080d565b61060190611ec5565b815260016020909101526040516001600160e01b031960e084901b16815261062c9190600401611ee1565b602060405180830381865af4158015610649573d6000803e3d6000fd5b505050506040513d601f19601f8201168201806040525081019061066d9190611f77565b905060006106878c8c600001518a600086138b6000610a7d565b90506000808313156107675781604001518460600181815250506106ba8d8d600001518660000151876040015187610899565b61012086018190529091501561070e576106e78d8d600001518c876020015161045789610120015161082f565b5061014085018190526106f990610d7e565b8460600181815161070a9190611faa565b9052505b836040015160200151846020015160000151856060015161072f9190611eae565b6107399190611fd3565b60a0850181905260c085015261074e81610d7e565b8460a00181815161075f9190611faa565b9052506107d9565b61077c8d8d600001518c876020015187610899565b50905061079061078b82611ec5565b610d7e565b826040015161079f9190611fe7565b606085018190526040850151602090810151908601515190916107c29190611eae565b6107cc9190611fd3565b60a0850181905260c08501525b60a093909301519c929b50995090975050505050505050565b6000808212156108055781600003610807565b815b92915050565b60006002826000015183602001516108259190611faa565b6108079190611fd3565b60006001600160ff1b038211156108055760405162461bcd60e51b815260206004820152602860248201527f53616665436173743a2076616c756520646f65736e27742066697420696e2061604482015267371034b73a191a9b60c11b60648201526084016104f9565b6000806000806000851315610903576108b5866020015161082f565b6108bf9086611ffa565b915060006108d161038f8b8b8b610dd0565b9050808313156108fd5760208701516108ed61078b8386612028565b6108f79190611eae565b91508092505b50610914565b610911858760000151610e52565b91505b909890975095505050505050565b61092c8282610ec6565b80606001516001600160a01b031681604001516001600160a01b0316036109695780516040516332e6f44d60e21b81526104f99190600401612048565b5050565b600081604001516001600160a01b0316836001600160a01b03160361099757506060810151610807565b81606001516001600160a01b0316836001600160a01b0316036109bf57506040810151610807565b8151604051637a0ca68160e01b81526104f9918591600401611f90565b6109e46115c1565b82604001516001600160a01b0316846001600160a01b031603610a0c57506020810151610a76565b82606001516001600160a01b0316846001600160a01b031603610a3457506040810151610a76565b82602001516001600160a01b0316846001600160a01b031603610a5957508051610a76565b8251604051635f2394d160e11b81526104f9918691600401611f90565b9392505050565b610a85611513565b610a8d611513565b600080846004811115610aa257610aa2611adc565b03610b2657886001600160a01b031663bd02d0f5610ac08a89610f94565b6040518263ffffffff1660e01b8152600401610ade91815260200190565b602060405180830381865afa158015610afb573d6000803e3d6000fd5b505050506040513d601f19601f82011682018060405250810190610b1f9190611f77565b9050610c36565b6001846004811115610b3a57610b3a611adc565b14610c36576002846004811115610b5357610b53611adc565b03610b7057886001600160a01b031663bd02d0f5610ac08a61101d565b6003846004811115610b8457610b84611adc565b03610ba257886001600160a01b031663bd02d0f5610ac08a896110a3565b6004846004811115610bb657610bb6611adc565b03610c3657886001600160a01b031663bd02d0f5610bd48a896110db565b6040518263ffffffff1660e01b8152600401610bf291815260200190565b602060405180830381865afa158015610c0f573d6000803e3d6000fd5b505050506040513d601f19601f82011682018060405250810190610c339190611f77565b90505b6000896001600160a01b031663bd02d0f5604051602001610c839060208082526018908201527729aba0a82fa322a2afa922a1a2a4ab22a92fa320a1aa27a960411b604082015260600190565b604051602081830303815290604052805190602001206040518263ffffffff1660e01b8152600401610cb791815260200190565b602060405180830381865afa158015610cd4573d6000803e3d6000fd5b505050506040513d601f19601f82011682018060405250810190610cf89190611f77565b90506000610d068984611116565b9050610d128183611116565b808552610d1f9082611fe7565b60208501526001600160a01b0387166060850152610d3d8b8861112f565b60808501819052610d4f908a90611116565b60a08501819052610d60828b611fe7565b610d6a9190611fe7565b604085015250919998505050505050505050565b6000808212156108055760405162461bcd60e51b815260206004820181905260248201527f53616665436173743a2076616c7565206d75737420626520706f73697469766560448201526064016104f9565b6000836001600160a01b031663bd02d0f5610deb8585611280565b6040518263ffffffff1660e01b8152600401610e0991815260200190565b602060405180830381865afa158015610e26573d6000803e3d6000fd5b505050506040513d601f19601f82011682018060405250810190610e4a9190611f77565b949350505050565b600080831215610e9457610e658261082f565b610e6e8361082f565b610e789085612028565b610e8390600161205c565b610e8d9190611ffa565b9050610807565b610e9d8261082f565b6001610ea88461082f565b610eb2908661205c565b610ebc9190612028565b610a769190611ffa565b80516001600160a01b0316610eee576040516302fde0d760e11b815260040160405180910390fd5b6000826001600160a01b0316637ae1cfca610f0c84600001516112fa565b6040518263ffffffff1660e01b8152600401610f2a91815260200190565b602060405180830381865afa158015610f47573d6000803e3d6000fd5b505050506040513d601f19601f82011682018060405250810190610f6b9190612084565b90508015610f8f5781516040516309f8c93760e01b81526104f99190600401612048565b505050565b6000604051602001610fc9906020808252600f908201526e29aba0a82fa322a2afa320a1aa27a960891b604082015260600190565b60408051601f198184030181528282528051602091820120908301526001600160a01b0385169082015282151560608201526080015b60405160208183030381529060405280519060200120905092915050565b60006040516020016110599060208082526016908201527520aa27a6a4a1afa9aba0a82fa322a2afa320a1aa27a960511b604082015260600190565b60408051601f198184030181528282528051602091820120908301526001600160a01b03841690820152606001604051602081830303815290604052805190602001209050919050565b6000604051602001610fc9906020808252601290820152712222a827a9a4aa2fa322a2afa320a1aa27a960711b604082015260600190565b6000604051602001610fc9906020808252601590820152742ba4aa24222920aba0a62fa322a2afa320a1aa27a960591b604082015260600190565b6000610a76838368327cb2734119d3b7a9601e1b611332565b600080836001600160a01b031663bd02d0f56040516020016111769060208082526011908201527026a0ac2faaa4afa322a2afa320a1aa27a960791b604082015260600190565b604051602081830303815290604052805190602001206040518263ffffffff1660e01b81526004016111aa91815260200190565b602060405180830381865afa1580156111c7573d6000803e3d6000fd5b505050506040513d601f19601f820116820180604052508101906111eb9190611f77565b90506000846001600160a01b031663bd02d0f56112078661133f565b6040518263ffffffff1660e01b815260040161122591815260200190565b602060405180830381865afa158015611242573d6000803e3d6000fd5b505050506040513d601f19601f820116820180604052508101906112669190611f77565b90508181106112755781611277565b805b95945050505050565b60006040516020016112bd9060208082526017908201527614d5d05417d253541050d517d413d3d317d05353d55395604a1b604082015260600190565b60408051601f198184030181528282528051602091820120908301526001600160a01b038086169183019190915283166060820152608001610fff565b6000604051602001611059906020808252601290820152711254d7d3505492d15517d11254d05093115160721b604082015260600190565b6000610e4a848484611372565b6000604051602001611059906020808252600d908201526c2aa4afa322a2afa320a1aa27a960991b604082015260600190565b60008080600019858709858702925082811083820303915050806000036113ac578382816113a2576113a2611fbd565b0492505050610a76565b8084116113f35760405162461bcd60e51b81526020600482015260156024820152744d6174683a206d756c446976206f766572666c6f7760581b60448201526064016104f9565b60008486880960026001871981018816978890046003810283188082028403028082028403028082028403028082028403028082028403029081029092039091026000889003889004909101858311909403939093029303949094049190911702949350505050565b60405180606001604052806000815260200160008152602001600081525090565b604080516101a081018252600060e08201818152610100830182905261012083018290526101408301829052610160830182905261018083018290528252825160808101845281815260208082018390528185018390526060820192909252908201529081016114eb6115db565b8152600060208201526040016114ff6116b2565b815260006020820181905260409091015290565b6040518060c0016040528060008152602001600081526020016000815260200160006001600160a01b0316815260200160008152602001600081525090565b60405180610160016040528060006001600160a01b031681526020016115766115c1565b81526020016115836115c1565b815260200160008152602001600081526020016000815260200160008152602001600081526020016000815260200160008152602001600081525090565b604051806040016040528060008152602001600081525090565b604080516101608101909152600060608083018281526080840183905260a0840183905260c0840183905260e0840183905261010084018390526101208401929092526101408301528152602081016116886040805161016081019091528060008152602001600081526020016000815260200160008152602001600081526020016000815260200160008152602001600081526020016000815260200160008152602001600081525090565b81526040805160808101825260008082526020828101829052928201819052606082015291015290565b6040805160c081019091526000606082018181526080830182905260a08301919091528190815260200161172b6040518061012001604052806000815260200160008152602001600081526020016000815260200160008152602001600081526020016000815260200160008152602001600081525090565b81526040805160208181019092526000815291015290565b6001600160a01b038116811461175857600080fd5b50565b803561176681611743565b919050565b60006080828403121561177d57600080fd5b604051608081016001600160401b03811182821017156117ad57634e487b7160e01b600052604160045260246000fd5b60405290508082356117be81611743565b815260208301356117ce81611743565b602082015260408301356117e181611743565b604082015260608301356117f481611743565b6060919091015292915050565b60006040828403121561181357600080fd5b604080519081016001600160401b038111828210171561184357634e487b7160e01b600052604160045260246000fd5b604052823581526020928301359281019290925250919050565b801515811461175857600080fd5b6000806000806000806000610160888a03121561188757600080fd5b873561189281611743565b96506118a18960208a0161176b565b95506118b08960a08a01611801565b945060e08801359350610100880135925061012088013591506101408801356118d88161185d565b8091505092959891949750929550565b6000806000806000806000610180888a03121561190457600080fd5b873561190f81611743565b965061191e8960208a0161176b565b955060a088013561192e81611743565b945060c088013561193e81611743565b935060e08801359250611955896101008a01611801565b9150611965896101408a01611801565b905092959891949750929550565b6000806000806000808688036101c081121561198e57600080fd5b873561199981611743565b96506119a88960208a0161176b565b955060c0609f19820112156119bc57600080fd5b50604051606081016001600160401b03811182821017156119ed57634e487b7160e01b600052604160045260246000fd5b6040526119fd8960a08a01611801565b8152611a0c8960e08a01611801565b6020820152611a1f896101208a01611801565b60408201529350610160870135611a3581611743565b92506101808701359150611a4c6101a0880161175b565b90509295509295509295565b6001600160a01b03169052565b80516001600160a01b03908116835260208083015182169084015260408083015182169084015260609182015116910152565b600081518084526020808501945080840160005b83811015611ad15781516001600160a01b031687529582019590820190600101611aac565b509495945050505050565b634e487b7160e01b600052602160045260246000fd5b60098110611b0257611b02611adc565b9052565b60038110611b0257611b02611adc565b611b21828251611af2565b6020810151611b336020840182611b06565b5060408101516040830152606081015160608301526080810151608083015260a081015160a083015260c081015160c083015260e081015160e08301526101008082015181840152506101208082015181840152506101408082015181840152505050565b805161020080845281516001600160a01b03908116918501919091526020820151166102208401526040810151600091611bd6610240860183611a58565b60608101519150611beb610260860183611a58565b60808101519150611c00610280860183611a58565b60a08101519150611c156102a0860183611a58565b60c08101519150611c2a6102c0860183611a58565b60e001516101006102e08601529050611c47610300850182611a98565b90506020830151611c5b6020860182611b16565b5060408381015180511515610180870152602081015115156101a08701529081015115156101c0860152606081015115156101e0860152509392505050565b805160018060a01b03808251168452806020830151166020850152806040830151166040850152505060208101518051606084015260208101516080840152604081015160a0840152606081015160c0840152608081015160e084015260a0810151610100818186015260c083015161012086015260e0830151610140860152808301516101608601525050506040810151610f8f6101808401825115159052565b60028110611b0257611b02611adc565b606081526000835160018060a01b038082511660608501528060208301511660808501528060408301511660a08501528060608301511660c08501528060808301511660e08501525060a08101519050611daa610100840182611a58565b506020840151611dbe610120840182611a65565b5060408401516103606101a0840152611ddb6103c0840182611b98565b905060608501516101c08401526080850151611dfb6101e0850182611c9a565b5060a085015161038084015260c0850151611e1a6103a0850182611d3c565b509050610a76602083018480518252602090810151910152565b60008060008060808587031215611e4a57600080fd5b505082516020840151604085015160609095015191969095509092509050565b600080600060608486031215611e7f57600080fd5b8351925060208401519150604084015190509250925092565b634e487b7160e01b600052601160045260246000fd5b808202811582820484141761080757610807611e98565b6000600160ff1b8201611eda57611eda611e98565b5060000390565b81516001600160a01b03168152602080830151610180830191611f0690840182611a65565b506040830151611f1960a0840182611a58565b506060830151611f2c60c0840182611a58565b50608083015160e083015260a0830151610100818185015260c085015161012085015260e085015161014085015280850151915050611f7061016084018215159052565b5092915050565b600060208284031215611f8957600080fd5b5051919050565b6001600160a01b0392831681529116602082015260400190565b8082018082111561080757610807611e98565b634e487b7160e01b600052601260045260246000fd5b600082611fe257611fe2611fbd565b500490565b8181038181111561080757610807611e98565b60008261200957612009611fbd565b600160ff1b82146000198414161561202357612023611e98565b500590565b8181036000831280158383131683831282161715611f7057611f70611e98565b6001600160a01b0391909116815260200190565b808201828112600083128015821682158216171561207c5761207c611e98565b505092915050565b60006020828403121561209657600080fd5b8151610a768161185d56fea2646970667358221220deb0dd84c0ec307b1922a8bb9902cf3c2129c1db169be471ad6f518a02304bba64736f6c63430008120033",
  "linkReferences": {
    "contracts/position/PositionUtils.sol": {
      "PositionUtils": [
        {
          "length": 20,
          "start": 554
        },
        {
          "length": 20,
          "start": 690
        }
      ]
    },
    "contracts/pricing/SwapPricingUtils.sol": {
      "SwapPricingUtils": [
        {
          "length": 20,
          "start": 832
        },
        {
          "length": 20,
          "start": 1412
        }
      ]
    }
  },
  "deployedLinkReferences": {
    "contracts/position/PositionUtils.sol": {
      "PositionUtils": [
        {
          "length": 20,
          "start": 496
        },
        {
          "length": 20,
          "start": 632
        }
      ]
    },
    "contracts/pricing/SwapPricingUtils.sol": {
      "SwapPricingUtils": [
        {
          "length": 20,
          "start": 774
        },
        {
          "length": 20,
          "start": 1354
        }
      ]
    }
  }
}